:020000040800F2
:10100000005000208DFA000889FA000887FA0008CD
:1010100087FA000887FA000887FA00080000000035
:1010200000000000000000000000000089FA000835
:1010300089FA00080000000089FA000889FA00080F
:1010400087FA000887FA000887FA00087528000860
:1010500087FA000887FA000887FA000887FA00086C
:1010600087FA000887FA000887FA000887FA00085C
:1010700087FA000887FA000887FA000887FA00084C
:1010800087FA000887FA000887FA0008F982000842
:10109000D9820008E982000887FA000887FA000868
:1010A00087FA000887FA000887FA000887FA00081C
:1010B00087FA000887FA00082528000887FA000840
:1010C00087FA000887FA000887FA000887FA0008FC
:1010D00087FA000887FA000887FA000887FA0008EC
:1010E0003128000887FA000887FA000887FA000804
:1010F00087FA000887FA000887FA000887FA0008CC
:1011000087FA000887FA000887FA000887FA0008BB
:1011100087FA000887FA000887FA000887FA0008AB
:1011200087FA000887FA000887FA000887FA00089B
:1011300087FA000887FA000887FA00082583000864
:10114000058300081583000887FA000887FA00085D
:1011500010B404466468084611461A46234610BC7B
:101160001847836818477047704770477047704743
:1011700041607047704770477047704770477047CD
:1011800070470020704700207047000000487047FB
:101190000000484200207047416070477047704728
:1011A0007047704770470020704741607047704734
:1011B0007047704770477047002070477047416024
:1011C00070470020704770477047704770477047FE
:1011D000002070477047416070477047002070479B
:1011E00070474160704770470846704770477047C6
:1011F0007047704700487047003C1C46416070478C
:10120000704770477047704770474160704770473C
:101210000020704700207047002070470020704772
:101220000020704770477047104B10B5186803686E
:101230001B6898470E4B186803681B6898470D4B4E
:10124000186803681B6898470B4B186803681B688D
:1012500098470A4B186803681B689847BDE8104018
:10126000074B186803689B68184700BF20000020E0
:101270001C00002014000020100000200C000020A2
:101280000400002010B5174C206803689B6998473C
:10129000052002F075FA062818D8DFE800F0040AE5
:1012A0000C0E1012200000220F4B1A700F4B2360FF
:1012B0000CE00F4BFBE70F4BF9E70F4BF7E70F4B3A
:1012C000F5E701220E4B23600E4B1A700E4C20687E
:1012D00005F0C4FF6068BDE8104005F0BFBF0B4BD0
:1012E000E5E700BF140000207A2A002058290020DA
:1012F000502900204829002078290020702900204A
:1013000030290020502A00206C2A00206829002063
:1013100010B5114C20680368DB699847042002F07F
:101320002FFA042806D8DFE800F003100E1214008C
:101330000A4B23600A4C206805F090FF6068BDE806
:10134000104005F08BBF074BF3E7074BF1E7074B66
:10135000EFE7074BEDE700BF1000002060290020F9
:101360006C2A00202829002020290020182900208C
:101370001029002010B5124C206803685B6898475C
:10138000062002F0FDF90138052815D8DFE800F045
:10139000160E0E0310120B4B23600B4C206805F049
:1013A0005DFF6068BDE8104005F058BF074BF3E7EC
:1013B000074BF1E7074BEFE7074BEDE7074BEBE791
:1013C00008000020342700206C2A00200427002079
:1013D000C82600207C2600205C2700203C27002017
:1013E00010B50B4C206803685B689847492002F0F1
:1013F000C7F9084A084B012808BF13462360074C69
:10140000206805F02BFF6068BDE8104005F026BF9E
:101410000400002064260020742600206C2A00208E
:10142000022010B502F0ACF90138032815D8DFE826
:1014300000F0020E10120A4B0A4C0B4A206813608F
:1014400005F00CFF6068BDE8104005F007BF074BD2
:10145000F2E7074BF0E7074BEEE7074BECE700BF7F
:10146000AC2700206C2A00200C00002094270020CC
:1014700088270020A02700205826002010B5012032
:1014800002F07EF909280FD8DFE800F0171C2B0EB8
:1014900005091F222528144B144A1A6004E0124A39
:1014A000134B136000229A72124C206805F0D6FE8E
:1014B0006068BDE8104005F0D1BE0B4A0C4B1360CC
:1014C0000122F0E7084B0C4AE7E7074B0B4AE4E739
:1014D000054B0B4AE1E7044B0A4ADEE7024B0A4A96
:1014E000DBE7014B094AD8E71C00002070270020E9
:1014F000E02900206C2A00200C2A0020D42900209A
:10150000BC290020282A0020F02900206427002080
:10151000036810B59B6898470FF02EFC0024014625
:101520009B2002F04DF92146962002F057F9214602
:10153000972002F053F92146992002F04FF92146F5
:10154000BDE810409A2002F049B9000010B51C4CCB
:10155000206803689B6A9847002002F011F9092867
:101560000FD8DFE800F005080A0E271C2117292BE9
:10157000144B236005E0144BFBE71448206005F092
:101580000FF8134C206805F069FE6068BDE8104054
:1015900005F064BE0D48206005F01AF8F1E70B482D
:1015A000206004F0D7FFECE70A4B012223600A4BCE
:1015B0001A70E6E7094BDCE7094BF6E7094BD8E779
:1015C00020000020002900208029002098290020E8
:1015D0006C2A0020E0280020502A00200829002042
:1015E000382600200426002010B5144C206803681B
:1015F0001B699847512002F0C3F8032805D8DFE89B
:1016000000F0020D0F160E4B23600E4C206805F003
:1016100025FE6068BDE8104005F020BE0A4BF3E7E8
:101620000A4B0B48196820600BF048F9EDE70122DE
:10163000084B2360084B1A70E7E700BF1800002032
:10164000D82800206C2A0020CC280020002600206A
:1016500078270020C0280020502A0020B52002F062
:10166000A5B800002DE9F74F082002F089F8484C92
:1016700054F820100920019102F082F854F82060FB
:101680000A2002F07DF854F820500B2002F078F880
:1016900054F820A00C2002F073F854F820B00D206C
:1016A00002F06EF854F820900E2002F069F854F819
:1016B0002070102002F064F854F82080112002F00D
:1016C0005FF854F8203001990093324B1868036892
:1016D000DB6A9847304B314618680368DB6B9847E4
:1016E0002E4B594618680368DB6998472C4B5146C6
:1016F000186803681B6A98472A4B494618680368AC
:101700001B699847284B4146186803685B699847EE
:10171000264B3146186803689B6998473946244828
:1017200009F022FF234B0099186803685B6998470A
:10173000072002F025F8012802D1284603F042FBD9
:10174000072002F01DF8022802D1284609F0C0F84F
:10175000072002F015F8032802D1284609F0EAFA1A
:10176000072002F00DF8042802D128460CF0B0FF43
:10177000002240F20161606805F053FD002240F252
:101780000161206803B0BDE8F04F05F04ABD00BF1D
:101790006C2A0020200000201C00002014000020E3
:1017A0001000002008000020040000200C00002091
:1017B000602600201800002038B540F2DF73984200
:1017C00004460D4606D10A460146314809F0D4FECA
:1017D000002038BD072001F0D3FF012803D129469E
:1017E000204603F0CDFB072001F0CAFF022803D1F9
:1017F0002946204609F0ACF8072001F0C1FF032874
:1018000003D12946204609F0C7FA072001F0B8FFA6
:10181000042803D1294620460CF07CFF1D4B2A46A4
:10182000186821460368DB6898471B4B2A461868EE
:10183000214603681B699847184B2A4618682146B9
:1018400003681B699847164B2A46186821460368A7
:101850001B699847134B2A461868214603681B6882
:101860009847114B2A461868214603681B68984719
:101870000E4B2A461868214603681B6998470C4B93
:101880002A461868214603681B689847A0E700BFEE
:1018900060260020200000201C00002014000020F2
:1018A0001000002008000020040000200C00002090
:1018B0001800002008B5034699889B7900682BB171
:1018C0000DF037FCB0FA80F0400908BD0DF031FC96
:1018D000003818BF0120F8E708B50248FFF7EAFF13
:1018E00008BD00BF7C2B0020818800680DF01CBC67
:1018F000818800680DF01ABC2DE9F843A44BA54C73
:10190000998818680DF018FC0DF020FCA24BA34D2F
:10191000186801F002FF0EF0FFFFA1490FF004F973
:101920000146DF2001F05AFF06F05AFA01468220F4
:1019300001F046FF802001F023FF21680646286859
:1019400006F0BCFE072001F01BFF08B107F06EF99E
:101950002868944F03689B6A98470146B32001F0BA
:101960002FFF28680368DB6A98470146B12001F021
:1019700035FF07F08FF9386803689B689847286837
:1019800003689B689847884B186803689B6898476A
:10199000864B18680368DB689847854B18680368AE
:1019A0001B699847206803689B689847814B1868B3
:1019B00003689B699847804B186805F09BFC0CF006
:1019C0008DFE7E4B1B780BB10BF0E0FCAA2001F0E2
:1019D000D7FE7B4C0028606A80F2A980FFF784FF65
:1019E000E62001F0CDFE002800F0A480AA2001F03E
:1019F000C7FE022800F09E80AA2001F0C1FE002848
:101A000000F098806069FFF76FFFBC2001F0B8FE1E
:101A10000346606C002B00F09180FFF765FF012EFC
:101A2000206940F08E80FFF75FFF3868DFF894810F
:101A300003689B6998470146AB2001F0CFFE3868E8
:101A400003685B6998470146AC2001F0C7FE38681F
:101A500003685B6A98470EF05FFF0146C12001F002
:101A6000BDFE38680368DB69984701468A2001F0AB
:101A7000B5FE2868544D03685B6B98470146C0204B
:101A800001F09EFE514BAE20196801F099FE504BBB
:101A90001B78012B03D0042B01D02B7823B1D8F86D
:101AA000000003689B689847D8F80000DFF824918D
:101AB000036899F800105B6998470746002843D0EF
:101AC000012E1EBF0122444B1A7001232B70A06A05
:101AD000424B984205D0FFF7EDFE0146D82001F0B9
:101AE0006FFE0BF001FC0BF01BFC042E01D0012E4D
:101AF0007AD1AB2001F04CFE0546DB2001F048FE18
:101B0000014628460FF018F988B3AB2001F040FEDB
:101B10000546762001F03CFE29460FF0EFF840B371
:101B2000E06BFFF7E1FE206CFFF7DEFE62E0FFF7FF
:101B3000DFFE55E76069FFF7DBFE66E7FFF7D8FEDB
:101B40006DE7FFF7D5FE70E72B7833B101468120B2
:101B500001F036FE204B2F701F70D8F8000099F866
:101B6000001003689B6998471D4B1870AFE7DB2096
:101B7000CCE7762001F00CFE1A490EF017FE29463C
:101B80000FF0DAF80028CED0E06BFFF7B1FECAE71D
:101B90003C2C00200C0000207C2A00201C0000208F
:101BA0000000204120000020140000200800002038
:101BB0000400002018000020682A0020502A00207D
:101BC0006430002010000020792A00209C2E002084
:101BD000662A0020642A00207A2A00206C2B00202C
:101BE000532A00200000A040E06BFFF781FE206C2C
:101BF000FFF77EFE002001F0C3FD092816D1012E5B
:101C000014D1AA2001F0BCFD094B0A4C1A6882428B
:101C100009D005221860226007480CF059FC23689F
:101C2000013B236002E02368002BF5DCBDE8F8836C
:101C3000FC250020F8250020042600202DE9F74F80
:101C4000A12001F09DFD0746802001F099FD04468A
:101C5000AA2001F095FD81460DF052FC06F08CF8AB
:101C6000824BDFF80C82186803685B689847802015
:101C700001F086FD0128054640F0D4803FB287EA96
:101C8000E770A0EBE77080B206F0EAFE002106469E
:101C90000FF034F890B1002001F072FD04280DD04F
:101CA000232001F06DFD002840F0B7808742B8BFC7
:101CB0004FF0FF354D4518BF06F1004648460EF07F
:101CC0002BFE31460EF07CFE0546D8F80000036876
:101CD0005B689847D8F8000029460368654E1B6981
:101CE0009847B92001F062FD002840F09F80306ADB
:101CF000FFF7FEFDD8F80000DFF87C9103685F4F26
:101D00001B6A98470FF038F805B22946A12001F068
:101D100057FD082001F034FD59F8200006F0C8FBFB
:101D2000012C01D0042C08D1386885EAE5710368DC
:101D3000A1EBE5719B6989B29847D7F800A0AB2069
:101D4000DAF80030D3F81CB001F022FD014650460D
:101D5000D847386803685B689847494B1868036838
:101D6000DB689847474B186803685B689847042C02
:101D700066D1454B186803685B689847284606F0AB
:101D80001BFD8346A52001F0FBFC8246182001F0D4
:101D9000F7FC0090392001F0FBFC0190292001F0B4
:101DA000F7FC59460EF0C8FFB0FA80F359465B09BC
:101DB0000198DD000EF0ACFFB0FA80F0009B400906
:101DC0009A4545EA80054FF08700D4BF4FF0000ADE
:101DD0004FF0010A01F0DCFC45EA8A158246282012
:101DE00001F0D6FC014650460EF0A6FF002808BFC1
:101DF00045F001058320294601F0E2FC172001F09F
:101E0000BFFC0090052C00F29A80DFE814F03F0040
:101E10008301B40036015101CF01002FA8BF4FF05C
:101E2000FF3547E706F0EAFE002553E7B62001F04C
:101E3000BDFC00287FF45BAF306AFFF755FD59E722
:101E4000052001F09DFC032804D10F4B186803689E
:101E50005B689847012C91D1DE2001F091FC411C78
:101E600001F00F01DE2001F0ABFC87E7100000203D
:101E700020000020643000206C2A00201C0000207C
:101E8000040000200C000020140000204FF0000887
:101E9000924B934883F80080924B83F80080FFF7C1
:101EA00027FDB069FFF724FD0221AA2001F088FC7C
:101EB000386803685B6998478B4B83F80080DFF8CC
:101EC0002C82B8F80030002B4ED18948FFF710FD66
:101ED000F069FFF70DFD8748FFF70AFD15F0410F88
:101EE00001D0009BB3B1386803689B6B984788B1F9
:101EF000386803685B6B984760B101237A4A022413
:101F00001370764A13701923A8F800300DF0F8FA10
:101F1000794B1860794B1B786BB115F0480F0AD1DB
:101F20001923A8F800300DF0EBFA734B0224186067
:101F300001236C4A13702146802001F041FCC0202F
:101F400001F01EFC20436E4A6E4D40F043816B4B06
:101F50001B78002B40F03E811388002B40F04C8111
:101F6000B06CFFF7C5FC3DE1013B9BB2A8F8003027
:101F7000002BB3D1A9E7DFF884B19BF80030002B28
:101F800059D1D8F80020604B9A4202D05448FFF74C
:101F9000ABFCF069DFF85481FFF7A6FCB069FFF7EE
:101FA000A3FCB8F80030002B50D15248FFF79CFC3E
:101FB000DFF834A19AF800305BB115F0450108D183
:101FC000192385208AF80010A8F80030012401F0B8
:101FD000F7FB9BF8003053B115F04C0107D14FF4DB
:101FE000FA738520A8F80030042401F0E9FB3D4B8A
:101FF0001B7823B19BF80030002B08BF0024374D1D
:102000002B7853BB022C96D10DF07AFA0746152097
:1020100001F0B6FB384B1B68184487428BD9009BF4
:102020001BB32B780BB300238AF80030192301244B
:10203000A8F800307FE7072001F0A2FB0028A8D114
:10204000D8F80020314B9A42A3D19FE7013B9BB2C5
:10205000A8F80030002BABD1A7E7386803685B6BAA
:1020600098470028CED1002465E72248FFF740FCBE
:102070000A2005F087FE03245DE700221A4B1D4865
:102080001A70FFF735FC174B1B7823B11B4B1B78DD
:10209000002B08BF0024114B1B78002B3FF44BAFE3
:1020A000386803685B6B9847002808BF002442E744
:1020B0000E4A138853B90E48FFF716FC0F4B1B78D6
:1020C0004BB9C822124B05241A8004E0013B9BB295
:1020D0001380002BEFD005F077FE2CE7522A00206A
:1020E000F42B0020512A0020542A00202400002034
:1020F000442C0020FC2B0020F42500207A2A00200C
:10210000F025002018000020082900208029002048
:102110003C2A0020644A1388ABBB6448FFF7E4FB09
:102120006348FFF7E1FB8020012101F049FB05F046
:102130004BFE386803685B6B984700287FF4FBAE62
:10214000A12001F01DFB00284FF0A10021DA01F0D1
:1021500017FB404263283FF7EEAE8F2001F010FBE3
:1021600000284FF08F0017DA01F00AFB40420428E4
:102170003FF7E1AEAA2001F003FB80B9C8224D4B26
:1021800005241A80D7E6013B9BB21380002BCAD1ED
:10219000C3E701F0F5FADDE701F0F2FAE7E7AA207C
:1021A00001F0EEFA02287FF4C6AEE7E73F48FFF7FA
:1021B0009BFB3F48FFF79CFB3E4A13881BB9FA2262
:1021C000394B1A804FE7013B9BB21380002B7FF401
:1021D000B2AEF4E74FF496731380B06CFFF784FB54
:1021E000012C10D0F068FFF783FB0022286811460D
:1021F0000368DB68984723E0013B9BB21380002B08
:102200003FF4AEAEE9E7522001F0BAFA012841D11D
:10221000F068FFF769FB2E68552033689F6801F06E
:10222000AFFA0EF079FB01463046B8472D685320CF
:102230002B68DE6801F0A4FA012281B22846B0477B
:10224000072001F09DFA022807D10A2001F098FA30
:1022500059F82010204608F08DFB072001F090FA75
:10226000032807D10A2001F08BFA59F820102046E4
:1022700008F0C4FD072001F083FA042810D10A20D9
:1022800001F07EFA59F82010204603B0BDE8F04F67
:102290000CF048BAD82001F089FA0028B8D1A1E79B
:1022A00003B0BDE8F08F00BF24000020442C0020C4
:1022B000F42B00203C2A00202DE9F047802001F07B
:1022C0005FFA0546894BDFF8289218680368DB68D7
:1022D0009847042D04D1D9F800000368DB689847BB
:1022E00006F066FD834BDFF810A21968D320834FF8
:1022F00001F066FAD420DAF8001001F061FAD52076
:10230000396801F05DFA7E4B7E4E1968D620DFF801
:10231000F88101F055FAD720318801F051FA98F888
:1023200000307A4C022B2DD1794B1B7853BB042DF6
:1023300019D1DFF8E0A1784FDAF80030002B41D155
:102340005C20237001F01CFA4FF496735843CAF8CE
:1023500000003B68B3F5967F14D100233B603388BF
:10236000013B33800EE06D4ADAF8003012789A4271
:1023700026D16B4A3B6812789A4221D13388FBB14F
:102380000123237098F800302BBB614B1B780BB9ED
:10239000012323706F2001F0F3F901281FD1712070
:1023A00001F0EEF95F4B0746586802F0ABF80646BD
:1023B0000146E02001F004FAB7422ADA002330E0B7
:1023C0000023DEE73A68013B0132CAF800303A6088
:1023D000002BBED1B4E7012BDCD10023D9E770205C
:1023E00001F0CEF90128DAD0D9F800004E4A03688E
:1023F00012785B692178984708B1012D13D14B4BB6
:102400001E78B6B93146812001F0DAF9484B1E70CA
:102410000FE098F80030012BE6D13D4A1278002AEF
:10242000E2D12370E0E70121414B8120197001F0D6
:10243000C7F9404E3378022B07D13C4B1B7823B1B0
:102440003D4B18680368DB6898473378012B02D945
:10245000033B012B0AD8384F38680368DB6898477C
:1024600033781BB938680368DB689847042D6DD151
:102470002E4B1D78002D33D1862001F081F90646C0
:102480003E2001F07DF98642A1BF0122204B25703C
:102490001A702A4B186803689B68984700210EF051
:1024A00023FC68B1264A1368002BDFBF00230121FB
:1024B0002370174BCEBF03F1FF3319700A2313604B
:1024C000204B586B204B98420AD0FFF7F3F938B1F4
:1024D000E52001F055F918B901220D4B20701A7052
:1024E000184B986BFFF704FA57E000BF1C00002060
:1024F000140000204C2A0020482A0020442A0020F2
:10250000402A0020602A0020652A0020642A00203A
:10251000782A00205C2A0020582A0020632A002004
:10252000622A002058300020532A0020792A0020F7
:102530007A2A0020662A00201000002008000020CF
:1025400000000020643000206C2B0020012DC7D13A
:102550000022174B6F201A7001F012F9022817D1D0
:10256000722001F00DF90646732001F009F9114BB4
:102570000546986801F0C6FF01460446E12001F0D7
:102580001FF9AE420BDCA642AADCA54205DA0AE03E
:10259000702001F0F5F80228E2D0BDE8F087A642ED
:1025A0009EDBA542F9DD044B986BFFF79DF9F4E73C
:1025B000782A00205830002064300020FEE7000018
:1025C0000C2838B510D80C2819D8DFE810F0D00046
:1025D000D300E5001800D900D600DF001800E8009D
:1025E000E800E800E800E800512800F0CC8000F2A4
:1025F000B2803C2800F0DB80492800F0CA8023200C
:1026000001F0BEF840B1002001F0BAF8082803D06C
:102610000021232001F0D4F8182001F0B1F8664D14
:10262000664C2860192001F0ABF820601A2001F0F8
:10263000A7F868601B2001F0A3F860601C2001F07F
:10264000A7F85F4D5F4C28601D2001F0A1F82060C5
:10265000332001F09DF85C4B2168186028680EF06B
:102660004DFB50B159491C202960594D256001F09E
:10267000B5F829461D2001F0B1F81E2001F088F8B8
:10268000544B554C18602E2001F082F8534B1860C3
:102690002F2001F07DF8524B1860312001F078F8BE
:1026A000504B1860262001F06BF84F4B186020202B
:1026B00001F06EF84D4B1860242001F069F84C4B86
:1026C0001860302001F064F84A4B18601F2001F0B8
:1026D0005FF8494B1860052001F052F8042001F022
:1026E0004FF8464B18702378012B22D1592001F066
:1026F00047F8434B1860582001F042F8414B1860EE
:10270000572001F03DF8404B1860562001F038F892
:102710003E4B18605A2001F033F83D4B18705B2097
:1027200001F02EF83B4B18705C2001F029F83A4B71
:102730001880452001F024F820705C2001F020F87A
:102740004FF496735843354B186008F069F8BDE8AC
:10275000384008F091B8692805D866287FF64FAF51
:1027600000F02CFE4BE779380428F9D947E7FEF74B
:10277000EDFE44E7FEF782FE41E7FEF783FD3EE70C
:10278000FEF7C6FD3BE7FEF72FFF38E7FEF7F2FD49
:1027900035E7FEF725FE32E7FEF742FE2FE7204C35
:1027A000206804F05BFD606804F058FD27E704F042
:1027B00045FB04F031FB22E7942E00208C2E0020F4
:1027C000882E0020842E00204C2E00200080BB4448
:1027D0000000C842802E0020652A0020782E0020AC
:1027E000702E00206C2E0020502E0020682E00201D
:1027F000642E0020742E00207C2E0020662A0020EB
:10280000402A0020442A0020482A00204C2A002088
:10281000632A0020622A0020602A00205C2A00200F
:102820006C2A0020014B186800F040BF7C2A002071
:1028300000B589B003A804F081FB28B1DDF815309C
:102840000193DDF81930029304F0F3FA4FF40040DD
:102850000CF030FB0499A1F58473012B05D8044BCF
:1028600001AA186803681B69984709B000BD00BF3A
:102870001000002008B500200CF078FE104B1A68FC
:1028800001323B2A1A600F4A05D9116801311160E3
:1028900019683C39196013683B2B0B4B05D9196833
:1028A0000131196011683C3911601A68172A06D97C
:1028B00006490A6801320A601A68183A1A6008BDA7
:1028C000402A0020442A0020482A00204C2A0020C8
:1028D0002DE9F043ADF68C2D00F0BCFB00F0E4FCDC
:1028E0000022C349C34801F04DFE0122C049C2483D
:1028F00001F048FE0122C149C14801F043FE022215
:10290000BB49C04801F03EFE0322B949BE4801F070
:1029100039FE0522B649BD4801F034FE0422B4490F
:10292000BB4801F02FFE0B22B149BA4801F02AFE44
:1029300004232022B849B94801F09DFB04238022DA
:10294000B549B74801F097FB04234FF40042B5495D
:10295000B54801F090FB04231022A849B34801F0C8
:102960008AFB04230822A549B14801F084FB012514
:10297000072380229E49AF4801F07DFB07230422F4
:10298000AD49AE4801F077FB07234FF40042A2495E
:10299000AB4801F070FB07234FF480429E49A948E1
:1029A00001F069FB07234FF400529B49A64801F050
:1029B00062FB07234FF400729749A44801F05BFBC8
:1029C00007234FF480729449A14801F054FB072378
:1029D0004FF4806290499F4801F04DFB07234FF46C
:1029E00000628D499C4801F046FB07234022804944
:1029F0009A4801F040FB07234FF4807289499848B8
:102A000001F039FB07234FF400727949954801F032
:102A100032FB07234FF480727549934801F02BFB7A
:102A200007234FF480527C49904801F024FB052392
:102A3000082281498E4801F01EFB052310227E49A1
:102A40008C4801F018FB052320227B498A4801F0BD
:102A500012FB072340227849884801F00CFB07232A
:102A600008226D49864801F006FB072304226A49C3
:102A7000844801F000FB07234FF480525F498248ED
:102A800001F0F9FA07234FF480426B497F4801F0C7
:102A9000F2FA0723012259497D4801F0ECFA072395
:102AA000802260497B4801F0E6FA072340225D4915
:102AB000794801F0E0FA042340225749774801F0B1
:102AC000DAFA042310225449754801F0D4FA00239D
:102AD00080225949734801F0CEFA01F0A7FC7249EF
:102AE0004FF000700CF016FB00F06EFB00F09CFB4A
:102AF00005F014F900F00EFB00F038FB00F05EFC6E
:102B0000E720FFF75DFD5648FEF7F2FE5F48FEF74F
:102B1000EFFEC4AC0023654A6549009539A800F072
:102B2000FFFE0DF26C58002302222046614905F099
:102B30002BFB022260492B46404605F025FB5F4BEC
:102B40000F2004935E4B0DF5F96705935D4B5E4EC8
:102B5000069300F015FE2A46002814BF4146214680
:102B6000384605F057F83A46214619A808F0D6FD30
:102B7000032119A808F0EEFD204604A9C6E9004883
:102B800004F040FB04A9404604F03CFB4F4B0A20F4
:102B90001F604F4B07AC1F6000F0F2FD56F820702D
:102BA0000E2000F0EDFD56F820104A4808F0DCFC3D
:102BB00004F044F904F030F94FF4964246492046B7
:102BC00009F0F2FC454B1C600FACFEF7BFFCFEF7B2
:102BD00055FCFEF757FBFEF79BFBFEF7CBFBFEF722
:102BE00003FDFEF7FDFBFEF71BFC3D49204679E0A7
:102BF00000100140902C00208C2C0020000C014083
:102C0000882C0020842C0020802C00207C2C00208C
:102C1000782C0020742C0020001401406C2C002023
:102C2000642C0020000801405C2C0020542C002063
:102C30004C2C0020442C0020001801403C2C00208B
:102C4000342C00202C2C0020242C00201C2C0020B4
:102C5000142C00200C2C0020042C0020FC2B002025
:102C6000F42B0020EC2B0020E42B0020DC2B002098
:102C7000D42B0020CC2B0020C42B0020BC2B002008
:102C8000B42B0020AC2B0020A42B00209C2B002078
:102C9000942B00208C2B0020842B00207C2B0020E8
:102CA000742B00206C2B0020C000400094290108E8
:102CB000004800400064004000680040840F0108A4
:102CC000B9170008651600086C2A0020CC2F0020D8
:102CD000682A0020602600200038014000260020DD
:102CE0000008004000F08EFC1A4B2A4620461A4984
:102CF0001C6000F0A7FC0A222046184900F0A2FC44
:102D000064222046164900F09DFCC8222046154941
:102D100000F098FC782000F033FDA84202D138463C
:102D200002F0B2F804217F2000F04AFD002180204B
:102D300000F046FD4FF0000439A88DF80F4000F078
:102D4000A3FF1E9B002BF7D10DF10F011AA806F06F
:102D500001FAF1E77C2A0020291200083D1C000836
:102D6000F9180008B922000810B50024624B634A24
:102D70001C741A60624B634A1C721A60DC721C730A
:102D8000614A624B62481A601C72DC721C73614AB1
:102D9000614B1A60614B624A1A6007F037FD614B64
:102DA000614A1C621A601C77604A614B61481A6074
:102DB000614B624A1A60624B624A1A60624B634A14
:102DC0001A60634B634A1A60634B644A1A60644B2F
:102DD000644A1A60644B654A1A60654B654A5C75C3
:102DE0001A60DC82644A654B1A60654B654A1A605A
:102DF000654B664A1A60664B664A1A60664B674ABC
:102E00001A60674B674A1A6004F0E0F9664B674A3C
:102E100067481A6007F028FB664B674A67491A60E3
:102E2000674B684A68481A60684B694A1A60694B80
:102E3000694A1A60694B6A4A1A606A4B6A4A1A60A0
:102E40006A4B6B4A1C721A606A4B6B4A1A606B4B76
:102E50006B4A1A606B4B6C4A1A606C4A6C4BC2E945
:102E6000024413600023136153619361D361694A83
:102E70001160694A6949C2E904441160C2E9064423
:102E8000136253629362D3626549664A1160664970
:102E9000C2E90244C2E904441483D3611362536259
:102EA0009362D362136353639163604A6049C2E9DA
:102EB000044411605F49D3609361D3611484536209
:102EC0009362D362136353639363D3631364536452
:102ED00093649160584B594A1A60594B594A1C7374
:102EE0001A60594B594A1A6009F058FBBDE8104066
:102EF00057480BF0E1BA00BF282A00200C33010824
:102F00000C2A0020282A0108602B0108F029002043
:102F1000BC290020542D0108E0290020D4290020DC
:102F20009C2D010898290020E82B0108842F010816
:102F300080290020E028002078290020E4300108C2
:102F4000702900201031010868290020A4340108EC
:102F500060290020B80F010858290020E40F01085B
:102F6000502900203C310108482900203830010850
:102F700030290020A0320108E82F0108282900206C
:102F800020290020BC2F01081829002078340108CE
:102F9000102900200436010808290020E42D01082A
:102FA0000029002094100108D828002010100108E2
:102FB000CC280020C02800205C370108DC3601083E
:102FC000B82800207010010838260020AC27002007
:102FD00054330108A0270020B836010894270020A8
:102FE0005C350108882700208035010878270020FB
:102FF0003835010870270020CC1001086427002014
:10300000F83601085C270020341001083C27002016
:103010008432010834270020042700206832010888
:1030200040370108C82600200000FA437C26002013
:10303000883701080000C84274260020501001089B
:1030400064260020EC32010858260020940F010865
:103050000426002008B50CF091F902200CF066F966
:103060004FF0E0232A4A40F20230C3F80C2D0CF056
:10307000CBF940F203300CF0C7F94FF441700CF07B
:10308000C3F940F205300CF0BFF940F206300CF005
:10309000BBF940F292300CF0B7F940F291300CF0ED
:1030A000B3F940F20E300CF0AFF940F20B300CF0F7
:1030B000ABF94FF460700CF0A7F940F281300CF0DE
:1030C000A3F940F282300CF09FF94FF420700CF01D
:1030D0009BF940F209300CF097F940F286200CF091
:1030E00093F94FF440700CF08FF940F299300CF0E6
:1030F0008BF940F29A300CF087F940F28E300CF0E8
:1031000083F9BDE8084040F28F300CF07DB900BF74
:103110000003FA0513B50024202123462246CDE9F9
:10312000004410480CF090FA21460E480CF084FA46
:103130000C480CF073FA0B480CF079FA4FF420436A
:103140000222032108480BF0B5FF4FF4804301220F
:10315000214605480BF0AEFF024802B0BDE8104022
:103160000CF050BA00380040000C014013B50024A8
:103170004FF080514FF000700BF0CCFF23462246F9
:103180002021CDE900440E480CF05EFA0C480CF00A
:1031900045FA0B480CF04BFA4FF4A05302220321DE
:1031A00008480BF087FF4FF40063012221460548D1
:1031B0000BF080FF024802B0BDE810400CF022BACC
:1031C000003C00400010014008B502220423032106
:1031D00012480BF06FFF0823012200210F480BF06B
:1031E00069FF0F490F480CF0EDFB08210D480CF06A
:1031F000FDFB00210B480CF002FC0C2109480CF0EF
:103200000AFC002107480CF000FC064800210CF0E5
:1032100008FCBDE8084003480CF009BC0008014068
:1032200020A107000044004008B511200CF098FCD4
:10323000F02111200CF0A2FC10200CF091FCF021E8
:1032400010200CF09BFC1E200CF08AFC00211E209C
:103250000CF094FC14200CF083FCE02114200CF002
:103260008DFC13200CF07CFCE02113200CF086FC7C
:1032700028200CF075FC4FF400400BF011FE0121EA
:103280004FF400400BF0F0FD06494FF400400BF006
:1032900017FE03200CF064FCBDE808402021032049
:1032A0000CF06CBC0018014008B54FF2234103201C
:1032B0000CF08EF900200CF02DF900200CF056F9DE
:1032C000BDE8084000200CF033B90000022208B528
:1032D00011464FF4007316480BF0ECFE15480CF045
:1032E000FBF900232022194612480CF0CEF92021C8
:1032F00010480CF0F6F9072200210E480CF0F5F901
:1033000000210C480CF0F6FA0A480CF04DFB4FF483
:10331000C872002107480CF037FB06484FF488615B
:103320000CF0E1F9BDE8084002480CF0D0B900BF4C
:1033300000180140002C014008B5022303211A4661
:103340001D480BF0B7FE4FF080400CF0C5F900238C
:103350004FF080401A4619460CF097F900214FF0C3
:1033600080400CF0BEF94FF080400CF097F94FF020
:1033700080400CF0A7F98F214FF080400CF0B3F99A
:1033800002214FF080400CF0DAFA062202214FF0C1
:1033900080400CF0AAF902214FF080400CF0AAFA0C
:1033A0004FF08040482202210CF0EEFABDE80840C0
:1033B0004FF080400CF08BB900080140692038B50F
:1033C00000F0DEF9132808D10222012311468748B4
:1033D0000BF070FE002425460DE0692000F0D0F9C6
:1033E000142840F092800222012311467F480BF0FE
:1033F00061FE00240125682000F0C2F9132840F086
:10340000998002228023114679480BF053FE6720F1
:1034100000F0B6F9132840F0AE8002224023114696
:1034200073480BF047FE73480CF056F900217148C1
:103430000CF039F96F480CF031F9062200216D4883
:103440000CF053F9062202216A480CF04EF90622CC
:10345000042168480CF049F9002166480CF00BFA89
:10346000022164480CF007FA042162480CF003FAC8
:10347000002160480CF019FA02215E480CF015FAA0
:1034800004215C480CF011FA00215A480CF032FA81
:10349000022158480CF02EFA042156480CF02AFA62
:1034A000002D40F08980002C40F086807A2000F0CA
:1034B00067F901464F480CF016F97B2000F060F9DF
:1034C000214602464B480CF05FFA7C2000F058F988
:1034D0000221024647480CF057FA7D2000F050F9CF
:1034E0000421024643480CF04FFA012141480CF0F8
:1034F00060FA792000F044F901463E480CF0F1F8FA
:10350000BDE838403B480CF0E2B8692000F038F9DB
:10351000152808D102220123114634480BF0CAFDB8
:103520000124002567E7072301223049324800F0D3
:10353000A2FD4FE7682000F023F9142807D10222EA
:10354000802311462A480BF0B5FD01255FE768206E
:1035500000F016F9152807D10222802311462448CD
:103560000BF0A8FD012452E70723802220492348BD
:1035700000F081FD4BE7672000F002F9142807D125
:103580000222402311461A480BF094FD01254AE718
:10359000672000F0F5F8152807D1022240231146D4
:1035A00013480BF087FD01243DE707234022104913
:1035B000134800F060FD36E741F68C110D480CF021
:1035C00092F8012200210B480CF0DEF901220221C1
:1035D00008480CF0D9F90122042106480CF0D4F96E
:1035E000012104480CF0E5F90A2186E7000C0140AE
:1035F0000008014000040040942B00208C2B002088
:10360000842B002038B50C460546016208460CF0B4
:1036100045F820460CF051F8084B20461968084B35
:10362000B1FBF3F101390CF05CF820464FF6FF7165
:103630000CF059F8002328466B6238BDE4230020C3
:10364000A0860100F8B5436A0446032B0F462ADC26
:10365000006A02EB8205144E0CF03EF8636A012208
:10366000F15C206A0CF041F8636A0022F15C206A88
:103670000CF08AF90221636A05EB850503F1080263
:10368000AD0044F82370994024F81250206A0BF0E2
:10369000EFFF0021206A0CF092F9206A0CF017F875
:1036A000636A01336362F8BD0C1101082DE9F84328
:1036B000044600254FF0020800F11006636A08FA7C
:1036C00005F7AB420ADC3946206A0BF0DBFF013517
:1036D000042D06F10206F1D1BDE8F8833946206ACF
:1036E0000BF0CAFFA8B1206A0CF067F9236A318891
:1036F000343353F8252081460A4443F8252054F8F2
:1037000025309847206A0CF058F9A0EB0900308169
:10371000D9E7636AAB42DADCD5E7002170B500F186
:103720000E03446A4FF47A7508468C4200DC70BD83
:103730005A8933F8026F6A43B2FBF6F20131104442
:10374000F3E7000010B51C24084B04FB0033DC68D1
:103750008C4209DC1B698B4206DB054B43F82010C9
:10376000FEF72EFF002010BDFF20FCE7C403002061
:1037700028000020014B53F820007047280000204B
:10378000024B53F820004011704700BF2800002072
:1037900008B5054B53F820000DF0BEF84FF07451FA
:1037A0000DF00EF908BD00BF28000020034B53F8B0
:1037B00020004011431E5842584170472800002005
:1037C000024B490143F82010704700BF2800002039
:1037D000014B43F8201070472800002010B5044624
:1037E00008464FF084410DF0EBF80DF0C5FA024B9E
:1037F00043F8240010BD00BF2800002070B5064625
:103800000024074D3146686800F08EFB08B9E0B22D
:1038100070BD0134E72C05F11C05F3D1E820F7E772
:10382000C40300200023064A118B814201D1D8B283
:1038300070470133E72B02F11C02F5D1E8207047F5
:10384000C40300201C22024B02FB0030704700BF63
:10385000C40300200023064A0649108B10B15069AA
:1038600041F823000133E72B02F11C02F5D1704728
:10387000C403002028000020014B1954704700BFEA
:10388000802A0020024B1A5C11431954704700BF74
:10389000802A0020024A135C23EA01031354704774
:1038A000802A0020014B185C704700BF802A00204E
:1038B0001C22024B02FB0033987E7047C403002099
:1038C00000487047AA6A0300024B1A68024BC3F80B
:1038D000402E7047D4220020C4030020202180689D
:1038E0000CF0CBB880680CF0C0B810B50446436843
:1038F000597A58680BF08FFA636804F12A02597AF2
:1039000058680BF09AFA63688022597A58680BF06D
:10391000A4FA6368BDE81040597A58680BF072BA8F
:1039200070B5026140F201120D464A49828201607F
:1039300001210022817580F8281004460421C0E985
:10394000062280F8202042629DF81020856080F8D1
:103950002920414A037342601068A84203D01C32F8
:1039600001396260F8D13D490C60002B6FD050697D
:10397000138B022203210BF09DFB28464FF4E1310B
:103980000CF020F8284608210CF030F828464FF4B7
:1039900000510CF034F828460C210CF03CF8284675
:1039A00000210CF032F8002128460CF03AF82846A5
:1039B0000CF04DF828460CF04FF86368197A5868F7
:1039C0000BF0B0F96368197A58680BF012FA636863
:1039D0002A1D197A58680BF027FA63680022197AB1
:1039E00058680BF0DAF963680022197A58680BF00E
:1039F000C7F96368197A58680BF0DCF96368597A7B
:103A000058680BF08FF963682A1D597A58680BF0D3
:103A10000BFA63680022597A58680BF0BEF96368A4
:103A20000022597A58680BF0ABF96368597A5868E4
:103A30000BF0C0F963685868597A0BF0E3F9204637
:103A4000FFF753FF28460BF0F2FF204670BDD06809
:103A5000138A8EE72029010824290108682B0020F9
:103A600038B5437D0D4643B10469216819B1284634
:103A700000F05AFA20B9236803B90024204638BD63
:103A80000834F2E738B504460D4663680222197A15
:103A900058680BF05EF918B994F82830002BF4D070
:103AA0006368197A58680BF0B6F96368AAB2197A94
:103AB00058680BF0D2F994F82020636804EBC21226
:103AC000197A5868AA320BF0B8F963680222197A99
:103AD00058680BF038F96368197A58680BF092F956
:103AE00094F82030B3FA83F35B0984F82030002384
:103AF00084F8283038BD10B50446A37D084623B9A4
:103B0000A068BDE810400BF097BF94F82030626ABF
:103B100004EBC31313440A2802F1010183F8AA003D
:103B200001D07F2A05D12046FFF7ACFF0023636256
:103B300010BD6162FCE7802A28BF8022002330B4D8
:103B4000934203D130BC1946FFF79CBF90F8204048
:103B5000CD5C00EBC4141C4484F8AA500133EFE799
:103B600038B5054608460C4600F0F5F921460246F0
:103B70002846BDE83840FFF7DEBF000010B5044618
:103B8000084600F03BFA00F020FA217D227B8142BA
:103B9000636811D1012161755AB158691B8B0321EA
:103BA00002220BF087FA2046BDE810400949FFF7D2
:103BB000D7BFD8681B8AF2E7002161753AB158690E
:103BC0001B8B0122BDE8104000210BF073BAD868AE
:103BD0001B8AF6E72E22010830B5044685B0084658
:103BE00000F00CFA0378302B26D0322B144D18BF7E
:103BF0004FF46125637DA3B10A22294601A800F094
:103C0000BAF920460F49FFF7ABFF20460E49FFF7F0
:103C1000A7FF204601A9FFF7A3FF20460B49FFF7A6
:103C20009FFF2946A0680BF0CDFE0021A06805B0DB
:103C3000BDE830400BF0E3BE4FF4E135DAE700BFFA
:103C4000105522002D22010833220108B328010853
:103C500010B50446084600F0D1F9037823B1303B93
:103C600018BF012384F8293094F829302BB1044976
:103C70002046BDE81040FFF773BF0249F8E700BFD8
:103C8000422201084C2201082DE9F0414368044614
:103C9000597A58680BF0DAF80546C0F1800710B978
:103CA0002046FFF722FE94F82930A06813B1E3699B
:103CB000BB4257DB08210BF0E0FE10B1A0680BF00F
:103CC000D4FE7F2D00F39880631B93F8A9300A2B54
:103CD00001D00D2B7DD16368597A58680BF09BF8A1
:103CE0007F2D3AD00022E31983F82A202021E261B7
:103CF00004F12A0000F036F990F800800546B8F18A
:103D0000000F37D10A2104F12A0000F02BF90546F3
:103D100084F8AA812B782BB90D2104F12A0000F038
:103D200021F90546002335492B7004F12A00A361CF
:103D300000F0FAF820BB204604F5D571FFF71EFF0E
:103D40000027A369002B3AD0A0680BF092FEA3696C
:103D500020465B6804F5D57198472046BDE8F041E0
:103D6000FFF7C3BD5A1CE261234493F82A100BF0FD
:103D700063FE98E7411C04F5D57000F0E3F8C9E74D
:103D80001F4904F12A0000F0CFF828B9204604F5B5
:103D9000D571FFF721FFD3E71A4904F12A0000F09B
:103DA000C3F828B9204604F5D571FFF751FFC7E7DE
:103DB000204604F12A01FFF753FEA061C1E7012F5D
:103DC000CBDD637D002BC8D020460F49FFF7C8FE2E
:103DD000C3E794F82A30212B0ED1A36963B12046A2
:103DE000FFF783FD0023E361A369204604F5D57145
:103DF0005B68BDE8F0411847BDE8F0815722010833
:103E0000622201086B22010870220108034BC1B233
:103E10001B681A6818461268104700BF682B0020FC
:103E200003F0FABF07B50649D1F8F027D1F8EC370F
:103E3000D1F8E8170091034900F0EAFA03B000BD99
:103E400000F0FF1F8B22010805F084B973B51448F8
:103E500000F0CCFA134800F0C9FA0024E6B230466C
:103E6000FFF7F0FC05463046FFF722FD68B9304603
:103E7000FFF718FDC3070DD46B690B480093696801
:103E8000D5E9032300F0B2FA04E03046FFF710FD55
:103E90000128ECD00134E72CE0D102B070BD00BFA6
:103EA00094220108AB220108C722010870B50B4912
:103EB00000F0AEFA0024E0B2FFF7C4FC0546E0B221
:103EC000FFF7F0FCC30704D4D5E90112044800F061
:103ED0008DFA0134E72CEED170BD00BFDA22010863
:103EE000FC220108F8B506460024E0B2FFF7AAFC60
:103EF0004768E0B2FFF73EFC013403463A463046DD
:103F0000024900F085FAE72CEFD1F8BD062301083D
:103F100010B50446FFF79EFC2046BDE8104001495D
:103F200000F076BA0F230108431E013913F8010F80
:103F300011F8012F10B10AB19042F7D0801A18BFC2
:103F400001207047013911F8013F0BB90370704728
:103F500000F8013BF7E70023C25C0AB91846704736
:103F60000133F9E703461A7818461AB18A4203F179
:103F70000103F8D17047002970B51EDA2D23012402
:103F800000F8013B4942064691FBF2F302FB131194
:103F900030313170191E354606F10106F4DC00227D
:103FA0000346201A30443270AB420BD21A7829787B
:103FB00003F8011B05F80129F6E704D1302341700D
:103FC0000370012070BD0024DDE730B503782D2B90
:103FD00011D14FF0FF34013000210A25431E01E0CA
:103FE00005FB012113F8012F303AD0B20928F7D987
:103FF00004FB01F030BD0124EEE7000010B5144CC5
:1040000002780146A2F10A03DBB2162B1BD824FA70
:1040100003F3DA0700F10100F2D40846FFF79BFF33
:1040200001380844814204460AD203780A3BDBB2D5
:10403000162B05D8064A013822FA03F3DB07F1D420
:104040000023637001E0002AE7D1084610BD00BFDD
:1040500009004000002310B5934200D110BD51F873
:10406000234040F823400133F6E702B97047013A94
:1040700040F8041BF9E72DE9F04117468280002241
:10408000013B0E4601608271082B0BD8DFE803F07C
:10409000080E0C18150524261A000024002513E02C
:1040A000012383710224F9E701238371022400258F
:1040B000394630460BF038F806E001248471EDE70C
:1040C0000124EBE7022403253B46224629463046DD
:1040D000BDE8F0410AF0EEBF0024F4E70124032517
:1040E000E6E770B50C1EACBF01234FF0FF335C4315
:1040F0000133064608BF2D234FF0640208BF06F8BF
:10410000013B611104F01F040546544330460A2266
:10411000FFF731FF2E226411092C3254D8BF302210
:1041200006EB0003D8BF5A7021464FF00A02CCBFFD
:10413000581C981CFFF71FFF284670BDF0B5027889
:1041400003462D2A13D14FF0FF30013300250A27F3
:1041500002E007FB052501331C78A4F13002D6B23A
:10416000092EF6D9A4B98D4025446843F0BD01203D
:10417000ECE78A4002EB660292FBF6F20CFB06F6D5
:10418000144413F8012F303AD7B2092FF1D9EAE7D6
:104190000A260024B446F4E72DE9F843141E064627
:1041A000894614DC2027DB071FD50025C84626E0FA
:1041B000013219F802100029FAD1A242ACBF0C4614
:1041C000A41A13F0020F14BF30272027EBE70022B8
:1041D000EFE73368414630461B689847013D002DA4
:1041E000F7DC24EAE475641BE0E725465FFA87F80C
:1041F000F5E7336830461B6808F10108984798F8DE
:1042000000100029F5D1A5EB09054544A046FFB2F1
:10421000B8F1000F05DC002CACBF2819281CBDE844
:10422000F8833368394630461B68984708F1FF38F1
:10423000EEE72DE9F04385B08046DDE90C691C46C8
:104240000D4651B930233246ADF8003069464B4631
:10425000FFF7A2FF05B0BDE8F08323B10A2A2DD1F4
:1042600000292BDA4D4200238DF80D300E9B0DF105
:104270000D0C3A3BB5FBF2F002FB1051CF180929A7
:1042800088BF3946AA4201F130010CF1FF370CF822
:10429000011C15D954B1B6B119F0020F13D0D8F8DA
:1042A00000302D2140461B689847013E4B46324660
:1042B00039464046FFF770FF2044CBE70024D2E7A1
:1042C0000546BC46D6E72D23002407F8013CACF197
:1042D0000207EBE70846FFF799BD00002DE9F04320
:1042E00080460E46144600254FF00A098DB03178FD
:1042F00019B928460DB0BDE8F08325296DD1717834
:104300000029F6D0252906F1010065D02D290ABF24
:1043100001270027B01C0378302B14D0002203782B
:104320000646A3F130015FFA81FCBCF1090F0ED9FA
:10433000662B3DD00FD8632B44D0642B1CD0582B58
:104340002ED00136D3E7013047F00207E3E709FB3F
:1043500002120130E3E7752B24D0782B19D0732B90
:10436000EFD1216820483B46002908BF01460434AC
:104370004046FFF711FF0AE06123CDE901730123F5
:1043800000920A22216840460434FFF752FF054498
:10439000D7E76123CDE90173009200231022F1E7F2
:1043A0004123F7E761230092CDE901730023E8E799
:1043B000216808A805920434FFF793FE3B46059A4E
:1043C00008A9D5E7236807A98DF81C300023043419
:1043D0008DF81D303B46CBE70646D8F80030404606
:1043E0001B6898470135ACE7692301080FB407B58E
:1043F00004AA52F8041B054B6846CDE90032FFF7CA
:104400006DFF03B05DF804EB04B070471C2A01088F
:104410000EB403B503AA52F8041B0192FFF75EFF26
:1044200002B05DF804EB03B07047000008B52948FE
:104430000AF00CFA27480AF00EFA26480AF015FA94
:1044400024480AF00DFA012122480AF0EAF921482D
:104450000AF0B0F91F480AF0C7F91E480AF0D7F968
:104460001D4A08211B480AF005FA1A480AF045FAC5
:104470004FF4602117480AF0ADF90121174A184896
:104480000AF0D2FC0121174A15480AF0D6FC4FF475
:104490008072012112480AF080FC4FF480620121F1
:1044A0000F480AF06DFC602201210D480AF0D5FC8E
:1044B00001210B480AF07EFC012109480AF083FC27
:1044C000074801210AF09EFCBDE8084001480AF0B7
:1044D0000ABA00BF00240140542D00204C240140A2
:1044E00000000240942C0020884207DD914203DC4A
:1044F00001469142A8BF1146084670479042F8DD38
:104500000146F9E737B56D46046804F13003F0342D
:1045100033F8102C33F8201C33F8300CFFF7E4FF8D
:104520003033A34225F8020BF2D1BDF80230BDF8BA
:1045300000001844BDF804301844BDF80630184493
:10454000C0F38F0003B030BD08B50D4B98420BD0BF
:1045500003F5806398420BD0A3F5006398420BD11A
:10456000072909DCC8B208BD012905DC0831F9E7D3
:10457000052901DC0A31F5E70AF024F91020F2E7F9
:10458000000C0140012370B593400C4615460022F3
:10459000064611469BB220460AF08CFD294620466D
:1045A000FFF7D2FF3368034A9B1A034AC3F34F0352
:1045B000D05470BD942C0020542D00200D4B0E4A79
:1045C000991C13600D4A11600D4A191D11600D4AA6
:1045D000991D11600C4A03F1080111600B4A03F1A7
:1045E0000A0111600A4A03F10C011160094A0E33F5
:1045F00013607047942C0020902C00208C2C0020FD
:10460000882C0020842C0020802C00207C2C002072
:10461000782C0020742C0020114A124B30B553F82E
:10462000213052F821401946A342A8BF2146026812
:1046300002F1C8058D4206DBA342B8BF234603F151
:10464000C804A24202DD0160002030BD8A4202DAC5
:1046500001600120F9E79A42FBDD0360F9E700BF42
:10466000942E00208C2E0020012970B516D80C4BFA
:1046700053F821400B4B53F82150AC420ED0001B95
:104680000CF04AF90646281B0CF046F90146304664
:104690000CF04AFA04490CF093F970BD0020FCE7D5
:1046A000942E00208C2E00200000C842F8B5224B2A
:1046B00005461C68014620460CF03EFB00B12C4626
:1046C0001E4B21461E6830460CF018FB00B12646F2
:1046D0001B4D31462F68344638460CF019FB00213B
:1046E00098B130460CF028FB68B1164B1968384673
:1046F0000CF05EF8314604460CF01EFB00B1344667
:1047000020462C60F8BD104BF0E730460CF00AFB59
:104710000028F5D1002138460CF00EFB48B10020EE
:10472000094B19680CF042F8314604460CF0E6FAE1
:10473000E4E73846F4E700BF782E0020702E002012
:10474000402E0020642E0020682E0020F8B505467B
:1047500085200E461746FFF713F8314604462846D3
:104760000CF0D6FAE0B94FF0804130460CF020F85A
:1047700029460CF0E1FAA8B144F01001852089B275
:10478000FFF71EF8124D3E68002130460CF0CAFAC1
:10479000A0B1294630460CF0B1FA28B1344604E005
:1047A0000C4DF0E70025EEE72C46284609493C6011
:1047B0000CF0A4FA003818BF0120F8BD05F1004440
:1047C000214630460CF0B8FA0028EED0E6E700BFEC
:1047D000000048420000C8422DE9F8430646282060
:1047E0000D46FEF7D5FF304FDFF8C0803860292036
:1047F000FEF7CEFFC8F800008520FEF7C1FFD7F80E
:10480000009020F0030400214846A4B20CF094FA72
:1048100028B3002130680CF085FA254F28B34946AB
:1048200028460BF0C3FF23490CF0CAF800210546C7
:104830000CF064FA00B100253D603768294638461F
:104840000CF07AFA44F001039BB2002818BF1C4612
:10485000294638460CF052FA00B13D4635602146F3
:10486000BDE8F8438520FEF7ABBF2846D8F8001016
:104870000BF09CFF0F490CF0A3F8002105460CF04B
:104880005BFA00B100253D603768294638460CF0D8
:1048900035FA44F002039BB2002818BF1C46294693
:1048A00038460CF049FAD7E7602E00205C2E002035
:1048B000482E0020000060402DE9F8430C46364D9C
:1048C0003649064628680CF07BF821460BF070FF4D
:1048D0004FF076510CF074F828602A20FEF758FF4C
:1048E0002F4FDFF8C08038602B20FEF751FFC8F84B
:1048F00000008520FEF744FFD7F8009020F00C045C
:1049000000214846A4B20CF017FA18B30021306811
:104910000CF008FA2D68244F10B3294648460BF0D6
:1049200045FF002105460CF0E9F900B100253D6086
:104930003768294638460CF0FFF944F008039BB26B
:10494000002818BF1C46294638460CF0D7F900B19C
:104950003D4635602146BDE8F8438520FEF730BF6F
:104960002846D8F800100BF023FF002105460CF074
:10497000E3F900B100253D603768294638460CF060
:10498000BDF944F004039BB2002818BF1C46294619
:1049900038460CF0D1F9DAE7602D002000007041B4
:1049A000542E0020582E0020442E0020104B70B5AD
:1049B0001A68066801EB0214A41A241105460021A6
:1049C00030461C600CF0B8F988B10A4B1868001B1F
:1049D00048BF0330801020EAE0700BF09DFF0446D2
:1049E000014630460CF0A8F900B126462E6070BD95
:1049F0005C2D0020502E0020F8B50E4A0646147893
:104A00000D4F0134E4B2312C8ABF002323461C46EB
:104A10000A4D386855F8241013700BF0C7FE314664
:104A20000BF0C6FE0649386045F824600CF07CF8AF
:104A3000F8BD00BF642D0020302E0020682D00201E
:104A400000004842000000002DE9F74F8046A120F9
:104A500092468946FEF794FE0446AA20FEF790FE91
:104A6000074684EAE470A0EBE4700BF055FFDFF832
:104A7000F8B10446DBF8005029460BF097FE002100
:104A800001900CF03BF9019B08B103F10043774A18
:104A90001946166830460CF031F950B129462046C7
:104AA0000CF04AF9314600283CD028460BF080FE35
:104AB0000446CBF80040002F00F0CE8020460CF0DA
:104AC0005BF90546BAF1000F30D0632840F3C4808B
:104AD0000BF022FF664B80461E6831460CF00EF943
:104AE000002840F0B980634B40461F68624B39464E
:104AF0001C680CF003F988B130460CF03DF906460D
:104B000020460CF039F9AD1B454338460CF034F91A
:104B1000801B95FBF0F00BF0FFFE0446204603B02F
:104B2000BDE8F08F28460BF041FEC1E749464046FC
:104B3000FFF79AFD514B06461C68014620460CF0D3
:104B4000FBF8002876D1214630460BF02FFE214697
:104B500006464B480BF02AFE014649480BF0E4FF9D
:104B600031460BF02DFF0446464B20461C60FFF7F4
:104B700043FF0146064620460BF018FE4249804698
:104B80000CF0BCF830B94FF07E5140460CF0D4F830
:104B900000B93446632D4FDD28460BF0BDFE344B83
:104BA0008246D3F8008041460CF0A8F8002843D193
:104BB000304B5046D3F80090344B49461E680CF0F9
:104BC0009DF898B140460CF0D7F8804630460CF07E
:104BD000D3F8A5EB0805454348460CF0CDF8A0EB0B
:104BE000080095FBF0F00BF097FE0646284D012FCC
:104BF0002E6023D1274930460BF0E2FE05462549B9
:104C0000254B18680BF0DCFE29460BF0CFFD214642
:104C10000BF0D6FE1A490BF087FF29460BF0C8FDB2
:104C20000BF0BEFA0EA3D3E900230BF011FB0BF03F
:104C300069FD72E7002497E70026D7E72720FEF7F3
:104C40009FFD08B900232B60124928680BF0B8FEBD
:104C500010490546114BD4E700245FE7AFF300800D
:104C60009A9999999999B93F3C2E00204C2E002091
:104C7000842E0020882E00207C2E00206C2E002008
:104C80000000C842342E0020000080BF802E00208B
:104C9000382E002000002041782E0020742E0020A5
:104CA0002DE9F3411F4C06462C201F460D46904629
:104CB0000194FEF76DFD01AA01464046FFF746FD4F
:104CC0002D20FEF765FD01AA01463846FFF73EFD9F
:104CD000314601A8FFF780FD294601A8FFF7ECFD4A
:104CE000089901A8FFF762FE214601980BF01CFF0E
:104CF0004FF07E5104460CF01FF820B900212046E9
:104D00000BF0FCFF60B94FF07E5120460CF014F818
:104D100020B14FF07E5002B0BDE8F0812046FAE7A6
:104D20000020F8E70000C842F7B51E461F4B0546B5
:104D30002C2001930C461746FEF72AFD01AA0146D6
:104D40003846FFF703FD2D20FEF722FD01AA01469C
:104D50003046FFF7FBFC294601A8FFF73DFD214641
:104D600001A8FFF7A9FD089901A8FFF71FFE019808
:104D70000F4900F100400BF0D7FE4FF07E51044682
:104D80000BF0DAFF20B9002120460BF0B7FF58B92D
:104D90004FF07E5120460BF0CFFF18B14FF07E5000
:104DA00003B0F0BD2046FBE70020F9E70000C8C2D1
:104DB0000000C842024B00BF013BFCD1704700BF5E
:104DC00000127A0010B50446002240F2215102F090
:104DD00028FA002240F22251204602F022FA002254
:104DE00040F22351204602F01CFA002240F22451E6
:104DF000204602F016FA002240F22551204602F029
:104E000010FA002240F22651204602F00AFA00224F
:104E100040F22751204602F004FA2046BDE8104037
:104E200000224FF4A56102F0FCB90000002313B585
:104E3000054A40F21141CDE9002303686A465C68E7
:104E40000823A04702B010BD340001003222002325
:104E500013B5CDE9002303686A465C6840F211414E
:104E60000823A04702B010BD002313B5054A40F245
:104E70001141CDE9002303686A465C680823A04716
:104E800002B010BD340101002DE9F7430026174B95
:104E900005461E702024FFF7C9FF4FF04209FFF7B7
:104EA00089FF4FF4C8482B6801966A4640F21141C9
:104EB00028465F688DF8004008238DF80190ADF812
:104EC00002800134B847E4B22846FFF773FFFFF7CA
:104ED000BDFFFFF76FFF292CE5D12846FFF7C4FF80
:104EE000FFF768FF03B0BDE8F08300BF081D002096
:104EF000D0F80220014B1A60704700BFB82E002086
:104F0000D0F80220014B1A60704700BFA82E002085
:104F1000D0F80220014B1A60704700BFA42E002079
:104F2000D0F80220014B1A60704700BFA02E00206D
:104F3000054A1388013313800A22D0F8023093FB0C
:104F4000F2F3024A13607047BC2E00209C2E002012
:104F5000D0F80220014B1A60704700BFB02E00202D
:104F6000D0F80220014B1A60704700BFB42E002019
:104F7000D0F80220014B1A60704700BFAC2E002011
:104F80006FF4A463C3180846072B15D8DFE803F0B5
:104F90000406080A0C0E1012FFF7AABFFFF7B0BFF5
:104FA000FFF7B6BFFFF7BCBFFFF7C2BFFFF7D0BF29
:104FB000FFF7D6BFFFF7DCBF704701617047416163
:104FC0007047007A7047007A70470023C3727047B9
:104FD00010B504460022616008464FF4987102F053
:104FE00020F900224FF43F71606802F01AF90022A4
:104FF0004FF49061606802F014F960680022BDE827
:1050000010404FF4D07102F00CB900002DE9F041CE
:105010000025BCB08846F02268460F490BF038FFE7
:105020006C4614262F4620680BF076FC41460BF0A8
:105030006FFE08B1D4E90175013E04F10C04F2D110
:1050400039467420FEF7BCFB294675203CB0BDE80C
:10505000F041FEF7B5BB00BF682A010810B4046830
:105060006468A44610BC6047037E73B50446002BF9
:1050700050D0AA20FEF784FB324B00284CD10321EC
:10508000314A20731170E1221A701B782F4D8DF870
:1050900000300C238DF801308F238DF802302B78EF
:1050A00060688DF80330F0238DF8043003686A4699
:1050B0004FF4E9715E680523B0472B783B2010332D
:1050C000DBB2ED2B08BF0D232B70FEF759FB204BF5
:1050D000C0B21A78824215D04FF40952ADF80020C0
:1050E00000228DF802204FF0FF32019230BB3022B7
:1050F0008DF8032018706A46082340F292516068C8
:10510000FFF7ACFF236895201D6AFEF741FB0146BF
:105110002046A84702B070BD421C06D101220221E0
:105120002273094A1170D222AEE70128ADD10322C1
:1051300008212273044A11707822A5E70828D9D1E2
:105140003122D5E70E1D00200D1D0020C42E0020A9
:10515000BE2E00200B7803F0010343720B78C3F3DB
:10516000800303720B78C3F3001383728B78C3F34D
:10517000C00343767047000008B54B7808781B02DF
:1051800003F4706318440AF0F9FF09A3D3E900237C
:105190000BF05EF80BF0B6FA07490BF011FCBDE816
:1051A00008400146A220FEF719BB00BFAFF3008004
:1051B0009A9999999999B93F2B121F3F0B78842B93
:1051C00003D10121E520FEF7FBBA812B01D100219B
:1051D000F8E770474B78323B18BF012303767047DE
:1051E0000B46B3F53F7F11460FD006DCB3F5987F31
:1051F00007D0B3F5D07F06D07047B3F5906F06D0D7
:105200007047FFF7A7BFFFF7B7BFFFF7D7BFFFF79D
:10521000E1BF000003682DE9F74F5B6B05460E46C2
:105220009847634C002800F0BD80A120FEF7A8FA43
:1052300040F2ED23984240F3B280A120FEF7A0FA9D
:10524000800080B207229421237843F05003002786
:105250008DF802200A44AA3202EB10228DF80130A8
:10526000ADF804001344C0B2034403EB23236A46A1
:1052700068688DF806108DF80030AA2108238DF893
:1052800007708DF80370FFF7E9FEBE420CBF0422E1
:105290006422DFF820A14FF00F0B9AF80010DFF81E
:1052A000189101F5FC73134403EB13238DF80030C0
:1052B0004EF22103ADF8023041F6217368688DF893
:1052C0000110ADF80430A82108238DF807206A46A4
:1052D000DFF8E8808DF806B0FFF7C0FE99F80030DF
:1052E0006A468DF8003098F80030A9218DF8013019
:1052F0004DF67973ADF80230314B6868019308239D
:10530000FFF7ACFE2F4E304B3278197868688B1857
:105310008DF80010FF2103F5E47303EB13238DF8E0
:1053200001108DF80530BA2107238DF806206A4652
:10533000ADF802B08DF80470FFF790FE2378234992
:10534000013323700B78224A01330B709AF8003036
:10535000307801338AF8003099F800300130013399
:1053600089F8003098F800303070013388F8003048
:1053700013780133DBB25C2B13700DD1BE230B709D
:10538000E92389F800304D231370802327708AF8B1
:10539000007088F80070337003B0BDE8F08F40F6FD
:1053A000B8304FE72378FE22842143F030034EE7E4
:1053B000BF2E0020C12E00200B1D0020C02E00207B
:1053C0001DC7E021091D00200D1D00200C1D00201F
:1053D0000A1D0020037E10B5044643B1B620FEF737
:1053E000E5F901462046BDE81040FFF713BF10BDA8
:1053F00073B506468020FEF7C3F9012815BF0023C8
:105400009C231A469E224FF08F0014BF1D46602534
:105410008DF804308DF80520FEF7BAF901462148D1
:105420000BF0C4F9204904460BF086FC002835D166
:1054300020460BF0A1FC642358434FF4FA7390FB11
:10544000F3F032300BF068FA18490BF0B1F93C2355
:10545000174C8DF800300BF0B5FC23786A461D43DD
:10546000C3238DF8033048F2CD234FF4E8718DF853
:105470000100ADF80630706808238DF80250FFF780
:10548000EDFD0C4A217813788B4209D10133DBB250
:105490000F2B08BF0023237002B070BD0648D6E76B
:1054A0001170F9E70000C842004003440000404288
:1054B000C32E0020C22E002000001643037E73B5C9
:1054C0000446A3B148F261230093C37A63B903256C
:1054D00060686A46036840F232315E680223B04772
:1054E000013DF5D10123E3722046FFF781FF02B0B1
:1054F00070BD0161704741617047007A7047007A62
:1055000070470023C372704710B5044600226160E3
:1055100008464FF4987101F084FE00224FF43F7169
:10552000606801F07EFE00224FF49061606801F037
:1055300078FE00224FF4D071606801F072FE60685E
:105540000022BDE8104040F2FE3101F06ABE0000CA
:105550002DE9F84F00250F462C46284E28460BF023
:10556000DBF9A04639460134814656F8345006EB43
:10557000C40B0BF0CDFB00283CD028460BF0CCF937
:10558000394682460BF0CEFB002833D006EBC80824
:10559000D8F804000BF0C0F90446DBF804000BF067
:1055A000BBF921460BF002F94946054638460BF097
:1055B000FDF84946064650460BF0F8F801463046DD
:1055C0000BF0B2FA014628460BF0FAF921460BF02F
:1055D000EFF84FF07C510BF0EBF80BF0CDFB0446ED
:1055E00021467420FEF7ECF82146BDE8F84F7520FF
:1055F000FEF7E6B8072CB1D1FF24F1E7A02B010894
:10560000037E37B504462BB33B20FEF7B9F8144BA5
:10561000C0B21A78824215D04FF40952ADF800207A
:1056200000228DF802204FF0FF320192A0B9302203
:105630008DF8032018706A46082340F29251606882
:10564000FFF70CFD236895201D6AFEF7A1F80146BF
:105650002046A84703B030BD0828EBD13122E7E748
:10566000CC2E00200B7803F0010343720B78C3F3B8
:10567000800303720B78C3F3001383728B78C3F338
:10568000C00343767047000008B54B7808781B02CA
:1056900003F4706318440AF071FD07A3D3E90023F3
:1056A0000AF0D6FD0BF02EF8BDE808400146A22016
:1056B000FEF794B8AFF300809A9999999999B93FF8
:1056C00010B50B780C46842B0BD10121E520FEF799
:1056D00077F86178E620BDE8104001F00101FEF79F
:1056E0006FB8812BF5D10021F0E74B78323B18BF22
:1056F00001230376704708B5B1F900000BF00CF9EF
:105700004FF074510BF05CF9BDE808400146A4204D
:10571000FEF764B80978BC208B1E59425941FEF748
:105720004FB80B46B3F53F7F114615D008DCB3F5F3
:10573000987F0DD0B3F5D07F0CD0B62B10D070472A
:1057400040F2FE3293420DD0B3F5906F06D0704711
:10575000FFF788BFFFF798BFFFF7B2BFFFF7C5BFDE
:10576000FFF7C9BFFFF7D6BF03682DE9F74F5B6BA3
:105770000646884698475C4D002800F0B080A1207E
:10578000FDF7FEFF40F2ED23984240F3A580A120F3
:10579000FDF7F6FF8400A4B22B7843F050030027F6
:1057A000A9208DF801308DF80770FDF7F1FF4F4902
:1057B00083460BF0B9F90BF005FB0021C0F3072974
:1057C000ADF802005FFA80FA5846ADF804400BF0DD
:1057D000B3FAB84214BF942280229DF807109DF8B6
:1057E000013070680B44AA3303EB1423E4B21C4469
:1057F000A144D14402EB090303EB2323AA218DF832
:1058000006208DF800306A460823FFF727FCA32006
:10581000FDF7BEFF4FF084410BF0D2F80BF0ACFA6D
:1058200000B242BAADF802201F22B8450CBF0424D2
:1058300064248DF805200F22C0F307238DF80100A2
:10584000C0B28DF804308DF807400344D63404EB21
:105850004304A821082370688DF8062004EB242453
:105860006A468DF80040FFF7F9FBA320FDF790FF93
:105870004FF084410BF0A4F80BF07EFAC0F307233D
:105880008DF80100C0B28DF802300344184A03F2CB
:10589000712303EB2323A921706801928DF8003056
:1058A0006A4608238DF80370FFF7D8FB2B7811495F
:1058B0000133114A2B700B7810780133DBB20130C1
:1058C0005C2B0B70107004D14D230B7080232F7054
:1058D000137003B0BDE8F08F40F6B8345CE72B7866
:1058E000044643F030035AE7CD2E00200AD7233D6B
:1058F00000C7E021101D00200F1D0020037E10B501
:10590000044643B1B620FDF751FF01462046BDE8ED
:105910001040FFF729BF10BD2DE9F3470746AB2024
:10592000FDF736FF0446AC20FDF732FF4D49054632
:1059300020460AF03DFF002104460BF0DFF9002865
:105940007ED1204648490BF0F7F900287AD120464D
:105950000BF038FA0646434928460AF029FF002191
:1059600004460BF0CBF900286ED120463E490BF0DF
:10597000E3F900286AD120460BF024FA054680207E
:10598000FDF7FEFE01284FF00004DFF8E08061D152
:105990003D20FDF7FDFE36490BF0C6F881468B2011
:1059A000FDF7F6FE214682460BF0A8F900284FD0FD
:1059B00030490AF100400BF003F849460BF0B4F807
:1059C0002D490AF0FDFFD8F800100AF0F1FE4FF063
:1059D0008F4104460BF0A6F928B120464FF08F41C5
:1059E0000AF0E4FE04462046C8F800400BF0EAF94D
:1059F0006023ADF80400214C4FF4E87122787868F8
:105A000013438DF80230C3238DF8033049F2CD6380
:105A10006A46ADF8063008238DF800608DF8015015
:105A2000FFF71CFB164A217813788B4218D10133FB
:105A3000DBB20F2B08BF0023237002B0BDE8F08754
:105A4000002688E7CF2686E7002598E7CF2596E74A
:105A50002046B2E70023C8F80040ADF80430CAE79A
:105A60001170EAE70000404200004F43C82E0020BA
:105A700000007C425304E93700247449CF2E0020F3
:105A8000CE2E0020037E73B50446A3B148F26123F5
:105A90000093C37A63B9032560686A46036840F2DD
:105AA00032315E680223B047013DF5D10123E37234
:105AB0002046FFF731FF02B070BD4069704708B55E
:105AC000B0F908000AF028FF08BD08B5B0F90C00CD
:105AD0000AF022FF08BD0000014B1878704700BF94
:105AE000612F00200000000038B51D48FEF70AFDB8
:105AF00005461C48FEF706FD044628460AF03EFB14
:105B000013A3D3E900230AF0A3FB13A3D3E90023D3
:105B10000AF0E8F90AF0F6FD054620460AF02EFBE9
:105B20000BA3D3E900230AF093FB0BA3D3E90023D3
:105B30000AF0D8F90AF0E6FD0446014628460BF0C3
:105B4000FBF808B1284638BD2046FCE7AFF30080DB
:105B50001213371BE91495BF988F7B2556484C408C
:105B60007C2C0020782C002038B505460C461A48BD
:105B7000072109F0D7F80721184A174809F054F906
:105B80002A460721144809F058F9A2B20721124801
:105B900009F063F90721104809F02BF907210E4895
:105BA00009F008F9002207210B4809F0F6F8002255
:105BB0000721094809F0E4F84FF48052072106480C
:105BC00009F0D1F80448072109F01CF9BDE8384074
:105BD000034809F041BF00BF0000024004440040F8
:105BE0000044004010B504460621194809F09AF80F
:105BF0000621184A164809F017F90621164A1448D2
:105C000009F01BF9A2B20621114809F026F9062174
:105C10000F4809F0E5F806210D4809F0CBF80022FD
:105C200006210B4809F0B9F800220621084809F0BE
:105C3000A7F800220621064809F095F80448062135
:105C400009F0E0F8BDE81040044809F000BF00BFCB
:105C50000000024004440040D02E002000440040D8
:105C600038B504463420FDF78BFD00B20228E081F0
:105C70001FD1344D344B2878002832D141F65832A8
:105C8000B4F90C10914201DD01221A7019782F4AE3
:105C9000884248D0012313702D4B93F900002D4BFF
:105CA00010B91878013018701878042822D108B279
:105CB000E081012808D12848FBF71AFE2748FBF7A6
:105CC00017FE2748FBF714FEB4F90E30C3B922487B
:105CD000FBF70EFE2148FBF707FE2148FBF704FE09
:105CE0000EE00128D2D1B4F90C20B2F5FA6FCDDA6A
:105CF0000022CAE7052803D129700021197011700C
:105D0000B4F90E30032B0DD1AA20FDF739FD013077
:105D100011480DD1FBF7ECFD1048FBF7E5FD1048ED
:105D2000FBF7E2FD38BD002300B2E0811370C0E74D
:105D3000FBF7DEFD0948FBF7DBFD0948FBF7D8FD63
:105D4000F0E700BF5E2F00205D2F0020602F0020B5
:105D50005F2F00205C2F0020DC2B0020EC2B00208C
:105D6000E42B0020000000002DE9F74F064612202A
:105D70008846FDF705FD8E4BC4B21B78012B40F021
:105D8000B4803046FFF76CFF40468A490AF018FE9F
:105D900089490AF0C9FE0AF0EFFF884D884F95F94E
:105DA00000A0388050460AF0B7FD41460AF008FED0
:105DB0000AF0F6F97CA3D3E900230AF049FA0AF0C5
:105DC000A1FC804981460AF0FBFD7B490AF0ACFE4C
:105DD0000AF0D2FFDFF8F0B1DFF8F0819BF8002085
:105DE0003062A8F80000002A00F0D880BAF1000F55
:105DF0002EDD2420FDF7CCFC019095F900000AF07F
:105E00008BFD7349824601980AF0DAFD014650463F
:105E10000AF0CCFC0AF0B0FF40B200283DDB63285A
:105E2000287015DC9BF8003093B92420FDF7B0FCF6
:105E3000824695F900000AF06FFD51460AF0B8FC61
:105E40000AF09AFF40B26428CABF642328702B70FE
:105E5000B6F90E3023BB002148460AF04FFFF8B1D7
:105E6000B8F900000AF08AF900225A4B0AF0F0F95A
:105E70000AF000FCA8F80000B7F900000AF07EF96B
:105E80000022544B0AF0E4F90AF0F4FB3880032CAA
:105E900014D8DFE804F00B100E1B00222A70C1E7B3
:105EA000032C0BD8DFE804F00207050D336A002B42
:105EB00004DA434B00E0454B00221A8003B0BDE8F2
:105EC000F08F484644490AF037FF10B900233B8061
:105ED000F4E748460AF050FF41F2171332385843AE
:105EE000322390FBF3F03880E8E7022B1ED13549CE
:105EF00040460AF065FD30490AF016FE0AF03CFF04
:105F0000324A03B2138013EB83032D4948BF033396
:105F10009B1030620B800CB9A042C9E7012C02D162
:105F200000231380CAE7022CC8D1C2E7032BC5D1D6
:105F3000244940460AF044FD1F490AF0F5FD0AF0E5
:105F40001BFF224A03B2138013EB83031C4D48BF8F
:105F500003339B1030622B80032CAFD801A353F87E
:105F600024F000BF755F0008B75E0008B35E00084C
:105F7000795F000800289BE7404617490AF0DCFEDD
:105F800008B928809AE740460AF0F6FE41F2171356
:105F900032385843322390FBF3F0F2E7BAF1630F43
:105FA0003FF756AF41E700BF7B14AE47E17A843F2D
:105FB0006B2F002000B888450000C8425F2F0020EA
:105FC000642F002000C05A45602F0020622F00205F
:105FD0000000A0400000E03F0000484210B58020D3
:105FE000FDF7CEFB08B902F087FF8020FDF7C8FB64
:105FF000012841D12148FBF75DFC0146BD20FDF79A
:10600000DFFB1F48FBF756FC0146BE20FDF7D8FB1F
:106010001C48FBF74FFC0146BF20FDF7D1FB194898
:10602000FBF748FC04461648FBF744FC84F00103E8
:1060300080F001046400114844EA8304FBF73AFC51
:1060400080F0010044EA00035BB20F4C062B237082
:1060500003D10021C220FDF7B3FB2378052B03D128
:106060000121C220FDF7ACFB3520FDF789FBBDE81F
:10607000104080B202F040BF10BD00BFD42B002002
:10608000CC2B0020C42B0020662F0020034B1B7854
:10609000012B01D1FFF7A2BF704700BF6B2F00207B
:1060A00000220B4870B5134605468C1E944209DC4D
:1060B000294411F8012C285D40EA0220C31A5842F5
:1060C000584170BD10F8016B013233449BB2EDE7CB
:1060D000D02E0020002070B5084C034622468D1EAD
:1060E000854205DC53550A441B0A02F8013C70BD89
:1060F00014F8016B01303344F2E700BF4322002063
:10610000F8B5B94D04462B780E2B3ED8DFE813F0D6
:106110000F0016003B003E007600B800BA00D90020
:10612000DB000701600186019F01A101CA01642013
:10613000FFF758FDAD48FBF7DBFB1EE0AC4CAB486E
:10614000FBF7D2FB23787BB902220721A94808F08C
:1061500000FE90B107210222A64808F0F4FD50216C
:10616000A548FFF701FD08E05021A448FFF7FCFC1B
:10617000A34B5B7823B9012323702B78013303E011
:106180002378013BF8E703232B70F8BD6421FFF768
:1061900087FF9B4E9B4F38B9014638706081A081C4
:1061A000B220FDF70DFB23E002220621914808F002
:1061B000D0FD0028F0D0022206218E4808F0C3FD51
:1061C00001233B70B6F85230053B03EBD3735B10F1
:1061D000238196F92A000AF09FFB606196F9560028
:1061E0000AF09AFBF388A0616381B6F81F30A3819F
:1061F000002386F8623086F86330BEE7824EA32023
:10620000B6F90010FDF7DCFA6189A2897A4B0A44DD
:10621000712112B292FBF1F27C491A70B1F900209F
:106220000978880083F84B009011524212129A713B
:106230001A73B6F9002049425971D9729A76110A37
:1062400083F82020782283F83F20EC2283F8402036
:106250006C2283F841206B2283F84C00D97683F8B6
:1062600021102046502183F84220FFF733FF684A6F
:106270001388642B8CBF002301331380002383E732
:10628000782055E75A4C5948FBF72EFB2378052B0D
:106290000ED902220721574808F05BFD00283FF481
:1062A0006CAF07210222534808F04DFD642157E7E7
:1062B0006421584801FB0300FFF756FC23780133A3
:1062C0005AE7082360E77821FFF7EAFE4C4E4D4F6E
:1062D00000283FF461AF02220621464808F039FD4C
:1062E00000283FF459AF02220621424808F02BFD56
:1062F00001233B70B6F86430053B03EBD3735B10AE
:10630000238196F914000AF007FB6061B6F8560085
:106310000AF002FBF388A0616381F38C67E73A4ED1
:10632000A320B6F90010FDF74BFA384B206AB3F9F9
:106330000020314B11125A71DA72B6F900209971AE
:10634000197300284FEA12219A77D97736DD9A76A9
:1063500002EBD27252101A77120AD9765A77752147
:1063600083F84A10122183F84B106021402283F8F1
:106370004C10252183F84820042283F84D10522127
:1063800083F8492083F84F20892283F84E10224950
:1063900083F8562083F858200A78204601320A7084
:1063A000D20748BF93F85E204FF0640144BF01322A
:1063B00083F85E20FFF78EFE0523E5E6CFD01A773F
:1063C00002EBD27252109A76120A5977DA76C6E741
:1063D0008020FDF7D5F901281CBF0022044B4FF0A7
:1063E0008C0018BF1A70A3E66A2F0020BC2B002077
:1063F000AC2200200000024043220020E52C0108CE
:10640000D02E0020612F0020622F0020642F00205A
:10641000682F0020871F0020672F0020384C394844
:10642000FBF762FA2378062B0ED9022207213648A1
:1064300008F08FFC00283FF4A0AE0721022232486A
:1064400008F081FC69218BE66921304832E70D2391
:106450009AE68C21FFF724FE2D4E08B30222062176
:10646000294808F076FCD8B102220621264808F017
:106470006AFC01233370274EB6F875305B10238118
:1064800096F914000AF048FA6061B6F819000AF0AB
:1064900043FA7389A0616381B6F82B30A3816CE65F
:1064A00030706AE61C4EA320B6F90010FDF788F99B
:1064B0001A4B2046B3F90020194B524211125A715F
:1064C000DA72B6F900209971DA77121283F8202077
:1064D0009A7E197383F82520DA7E692183F82620B5
:1064E000782283F84F20EC2283F85020102283F882
:1064F0005120272283F85220FFF7ECFD0A2343E6C0
:10650000AC220020BC2B002000000240111D002006
:10651000612F0020D02E0020622F0020642F002049
:106520004322002038B5037F04468B420D460AD033
:1065300051B16020FDF724F908B9FCF7C7FEFCF75C
:10654000FBFE0123237738BD4FF0804009F0C4F8EB
:106550002577F8E708B50121FFF7E4FF0B4B1A7820
:10656000042A04D805221A700022094B1A7000234D
:106570000849094A11F8010B0133642B02F8010B99
:10658000F8D10222054B1A7008BD00BF6A2F002007
:10659000AC220020182C0108432200206B2F002081
:1065A00008B50121FFF7BEFF064B1A78042A04D96B
:1065B00000221A700122044B1A700122034B1A7038
:1065C00008BD00BF6A2F0020AC2200206B2F0020E6
:1065D000012108B5FFF7A6FF0A4B0B491A78092AD3
:1065E0009CBF0A221A700022084B1A706923084ABD
:1065F00011F8010B013B02F8010BF9D10322054B05
:106600001A7008BD6A2F00207C2C0108AC220020E3
:10661000432200206B2F00200021FFF783BF018160
:106620007047000008B508460AF0A6FBA622A0F1B4
:106630000F035343412293FBF2F3024A5833138072
:1066400008BD00BF6C2F0020B520FDF7AFB810B516
:10665000044600226160084640F2531100F0E1FD5B
:1066600060680022BDE8104040F2F31100F0D9BD8F
:1066700040F25313994210B5044610D1B2F801000C
:10668000A0F5B0700AF048F94FF076510AF098F989
:106690000146A220FDF7A2F80123E37203E040F2D5
:1066A000F3139942F8D010BD10B50446C07A10B962
:1066B0000348FBF7FFF800232073E37210BD00BF0F
:1066C0007C2B002008B50248FBF7F4F808BD00BF9A
:1066D0007C2B002007B540F2EE22038940F21631F0
:1066E000934238BF13460522ADF8002041F65832D8
:1066F000934228BF13460A229B01B3FBF2F3ADF885
:10670000023000236A46019340680823FEF7A6FC86
:1067100003B000BD13B5154A0024137814498DF851
:106720000030144B01941B888DF80130C523ADF85F
:1067300002300B780133DBB2152B0CD80B7063B928
:106740001123137008236A4640F229314068FEF78E
:1067500085FC02B010BD0C70F2E7082B01D1862336
:10676000EFE70F2BEED1D923EBE700BF702F00200E
:10677000712F00206C2F0020462313B5ADF8043094
:10678000002340688DF80630036840F23B415C68A6
:1067900001AA0323A04702B010BD000007B50C4AB0
:1067A00040F24551138840680133138000228DF870
:1067B00001301B0A8DF80230064B8DF800208DF851
:1067C000032001936A460823FEF748FC03B000BD8E
:1067D0006E2F00207E10001807B5C9B1012919D00D
:1067E00001310CBF072308238DF801304FF6FF73EA
:1067F0008122ADF80230084B8DF8002001936A46E3
:10680000082340F23F414068FEF728FC03B000BD7A
:106810000623E9E70523E7E70080FFFF037B10B5C8
:106820000446BBB1FFF756FF2046FFF773FF204633
:10683000FFF7B4FF2046FFF79FFF0320FCF7B6FFEA
:1068400040B1AA20FCF79CFF41B22046BDE81040B1
:10685000FFF7C2BF10BD018170477047B520FCF73C
:10686000A5BF000008B5084B186899889B792BB123
:1068700008F05FFCB0FA80F0400908BD08F059FC50
:10688000003818BF0120F8E77C2B002030B51F4AE4
:106890001F4B89B0CDE901231E491F4B1F4CCDE989
:1068A00003131F4B1F4D05930023ADF819302378B8
:1068B0004FF4B06163F07F038DF818302B684068A7
:1068C00020336B4413F81C2C8DF81B2013F8182C64
:1068D0008DF81C2013F8142C8DF81D2013F8102CA3
:1068E00013F80C3C8DF81E208DF81F3006AA0823E3
:1068F000FEF7B4FB2B68013303F003032B6023780E
:10690000013303F00F03237009B030BD0F287F2837
:106910001E1000107056F0560C48A748722F002029
:1069200046902890742F002037B540F2EE2203895C
:106930000025934238BF134641F65832934228BF90
:106940001346044603819A009B09CDE900554FF494
:1069500020718DF803308DF8042008236A464068C2
:10696000FEF77CFB08236A464FF4227160688DF8BD
:1069700003508DF80450FEF771FB03B030BD0000EA
:1069800008B5034BB3F9000009F0C6FF08BD00BF0E
:10699000842F002008B5034BB3F9000009F0BCFFB9
:1069A00008BD00BF862F002008B5024B188809F0EB
:1069B000AFFF08BD8A2F002008B5034BB3F90000D4
:1069C00009F0AAFF08BD00BF882F0020064B1A78E7
:1069D000064B0AB91A7001E0012AFBD0044A12687A
:1069E00002B91A7018787047802F0020812F00207C
:1069F0007C2F002010B504460022616008464FF449
:106A0000C87100F00EFC00224FF4CD71606800F0F8
:106A100008FC00224FF4D271606800F002FC60684C
:106A20000022BDE810404FF4D77100F0FABB00001F
:106A30002DE9F34106460846354909F0C1FF0AF041
:106A40009BF9344B01B2A3201980FCF7B9FE8020DA
:106A5000FCF796FE0546B720FCF7A8FE00284DD0AF
:106A60006B1E5C425C41E400B820FCF79FFE28B13D
:106A700004F11003DBB2012D08BF1C46B620FCF761
:106A800095FE012D04EB80043AD1234A138813B1FB
:106A9000013B13800234A520FCF772FEC0F30B0506
:106AA000A620FCF76DFE8046DE20FCF769FE00F0B4
:106AB0000307B220FCF764FE184B45EA046503EABD
:106AC00008331D43C0F30D0040EA873045EA87755F
:106AD0000190009508F004F90221684608F00EF9CB
