:020000040800F2
:1010000000500020C90F0108C50F0108C30F0108D7
:10101000C30F0108C30F0108C30F0108000000003F
:10102000000000000000000000000000C50F0108E3
:10103000C50F010800000000C50F0108C50F010819
:10104000C30F0108C30F0108C30F0108612800087E
:10105000C30F0108C30F0108C30F0108C30F010824
:10106000C30F0108C30F0108C30F0108C30F010814
:10107000C30F0108C30F0108C30F0108C30F010804
:10108000C30F0108C30F0108C30F010885830008BF
:101090006583000875830008C30F0108C30F0108AA
:1010A000C30F0108C30F0108C30F0108C30F0108D4
:1010B000C30F0108C30F010811280008C30F01085E
:1010C000C30F0108C30F0108C30F0108C30F0108B4
:1010D000C30F0108C30F0108C30F0108C30F0108A4
:1010E0001D280008C30F0108C30F0108C30F010822
:1010F000C30F0108C30F0108C30F0108C30F010884
:10110000C30F0108C30F0108C30F0108C30F010873
:10111000C30F0108C30F0108C30F0108C30F010863
:10112000C30F0108C30F0108C30F0108C30F010853
:10113000C30F0108C30F0108C30F0108B1830008E2
:1011400091830008A1830008C30F0108C30F0108A1
:1011500010B404466468084611461A46234610BC7B
:101160001847836818477047704770477047704743
:1011700041607047704770477047704770477047CD
:1011800070470020704700207047000000487047FB
:101190000000484200207047416070477047704728
:1011A0007047704770470020704741607047704734
:1011B0007047704770477047002070477047416024
:1011C00070470020704770477047704770477047FE
:1011D000002070477047416070477047002070479B
:1011E00070474160704770470846704770477047C6
:1011F0007047704700487047003C1C46416070478C
:10120000704770477047704770474160704770473C
:101210000020704700207047002070470020704772
:101220000020704770477047104B10B5186803686E
:101230001B6898470E4B186803681B6898470D4B4E
:10124000186803681B6898470B4B186803681B688D
:1012500098470A4B186803681B689847BDE8104018
:10126000074B186803689B68184700BF24000020DC
:101270002000002018000020140000201000002092
:101280000800002010B5174C206803689B69984738
:10129000052002F075FA062818D8DFE800F0040AE5
:1012A0000C0E1012200000220F4B1A700F4B2360FF
:1012B0000CE00F4BFBE70F4BF9E70F4BF7E70F4B3A
:1012C000F5E701220E4B23600E4B1A700E4C20687E
:1012D00006F004F86068BDE8104005F0FFBF0B4B56
:1012E000E5E700BF18000020222B0020002A002084
:1012F000F8290020F0290020202A0020182A0020A8
:10130000D8290020F82A0020142B0020102A0020C1
:1013100010B5114C20680368DB699847042002F07F
:101320002FFA042806D8DFE800F003100E1214008C
:101330000A4B23600A4C206805F0D0FF6068BDE8C6
:10134000104005F0CBBF074BF3E7074BF1E7074B26
:10135000EFE7074BEDE700BF14000020082A00204C
:10136000142B0020D0290020C8290020C0290020EB
:10137000B829002010B5124C206803685B689847B4
:10138000062002F0FDF90138052815D8DFE800F045
:10139000160E0E0310120B4B23600B4C206805F049
:1013A0009DFF6068BDE8104005F098BF074BF3E76C
:1013B000074BF1E7074BEFE7074BEDE7074BEBE791
:1013C0000C000020DC270020142B0020AC2700207C
:1013D000702700202427002004280020E427002074
:1013E00010B50B4C206803685B689847452002F0F5
:1013F000C7F9084A084B012808BF13462360074C69
:10140000206805F06BFF6068BDE8104005F066BF1E
:10141000080000200C2700201C270020142B00208F
:10142000022010B502F0ACF90138032815D8DFE826
:1014300000F0020E10120A4B0A4C0B4A206813608F
:1014400005F04CFF6068BDE8104005F047BF074B52
:10145000F2E7074BF0E7074BEEE7074BECE700BF7F
:1014600054280020142B0020100000203C280020CD
:1014700030280020482800200027002010B5012037
:1014800002F07EF909280FD8DFE800F0171C2B0EB8
:1014900005091F222528144B144A1A6004E0124A39
:1014A000134B136000229A72124C206805F016FF4D
:1014B0006068BDE8104005F011BF0B4A0C4B13608B
:1014C0000122F0E7084B0C4AE7E7074B0B4AE4E739
:1014D000054B0B4AE1E7044B0A4ADEE7024B0A4A96
:1014E000DBE7014B094AD8E720000020182800203C
:1014F000882A0020142B0020B42A00207C2A0020F7
:10150000642A0020D02A0020982A00200C280020DD
:10151000036810B59B68984710F0ACFE00240146A4
:101520009C2002F04DF92146972002F057F9214600
:10153000982002F053F921469A2002F04FF92146F3
:10154000BDE810409B2002F049B9000010B51C4CCA
:10155000206803689B6A9847002002F011F9092867
:101560000FD8DFE800F005080A0E271C2117292BE9
:10157000144B236005E0144BFBE71448206005F092
:1015800045F8134C206805F0A9FE6068BDE81040DE
:1015900005F0A4BE0D48206005F050F8F1E70B48B7
:1015A000206005F00DF8ECE70A4B012223600A4B9E
:1015B0001A70E6E7094BDCE7094BF6E7094BD8E779
:1015C00024000020A8290020282A0020402A0020EA
:1015D000142B002088290020F82A0020B0290020A0
:1015E000E0260020AC26002010B5144C20680368CB
:1015F0001B699847522002F0C3F8032805D8DFE89A
:1016000000F0020D0F160E4B23600E4C206805F003
:1016100065FE6068BDE8104005F060BE0A4BF3E768
:101620000A4B0B48196820600BF0CEFAEDE7012257
:10163000084B2360084B1A70E7E700BF1C0000202E
:1016400080290020142B002074290020A8260020C7
:101650002028002068290020F82A0020BA2002F063
:10166000A5B800002DE9F74F082002F089F8484C92
:1016700054F820100920019102F082F854F82060FB
:101680000A2002F07DF854F820500B2002F078F880
:1016900054F820A00C2002F073F854F820B00D206C
:1016A00002F06EF854F820900E2002F069F854F819
:1016B0002070102002F064F854F82080112002F00D
:1016C0005FF854F8203001990093324B1868036892
:1016D000DB6A9847304B314618680368DB6B9847E4
:1016E0002E4B594618680368DB6998472C4B5146C6
:1016F000186803681B6A98472A4B494618680368AC
:101700001B699847284B4146186803685B699847EE
:10171000264B3146186803689B6998473946244828
:101720000AF07AF8234B0099186803685B699847B8
:10173000072002F025F8012802D1284603F070FBAB
:10174000072002F01DF8022802D1284609F0F0F91E
:10175000072002F015F8032802D1284609F038FCCA
:10176000072002F00DF8042802D128460DF0B2F946
:10177000002240F20161606805F093FD002240F212
:101780000161206803B0BDE8F04F05F08ABD00BFDD
:10179000142B00202400002020000020180000202E
:1017A000140000200C000020080000201000002081
:1017B000082700201C00002038B540F2DF73984253
:1017C00004460D4606D10A46014631480AF02CF877
:1017D000002038BD072001F0D3FF012803D129469E
:1017E000204603F0FBFB072001F0CAFF022803D1CB
:1017F0002946204609F0DCF9072001F0C1FF032843
:1018000003D12946204609F013FC072001F0B8FF58
:10181000042803D1294620460DF07EF91D4B2A46A7
:10182000186821460368DB6898471B4B2A461868EE
:10183000214603681B699847184B2A4618682146B9
:1018400003681B699847164B2A46186821460368A7
:101850001B699847134B2A461868214603681B6882
:101860009847114B2A461868214603681B68984719
:101870000E4B2A461868214603681B6998470C4B93
:101880002A461868214603681B689847A0E700BFEE
:10189000082700202400002020000020180000203D
:1018A000140000200C000020080000201000002080
:1018B0001C00002008B5034699889B7900682BB16D
:1018C0000EF0CFFEB0FA80F0400908BD0EF0C9FE60
:1018D000003818BF0120F8E708B50248FFF7EAFF13
:1018E00008BD00BF282C0020818800680EF0B4BE1F
:1018F000818800680EF0B2BE2DE9F843A44BA54CD8
:10190000998818680EF0B0FE0EF0B8FEA24BA34FF7
:10191000186801F002FF10F07DFAA14910F082FB77
:101920000146E42001F05AFF06F0A0FA01468320A8
:1019300001F046FF812001F023FF39680546206849
:1019400006F000FF072001F01BFF2068954E03689A
:101950009B6A98470146B82001F032FF206803686F
:10196000DB6A98470146B62001F038FF07F0B2F96C
:10197000206803689B6898478B4B186803689B68CE
:1019800098478A4B18680368DB6898470DF0D8FBC6
:10199000306803689B689847854B186803681B6923
:1019A0009847386803689B689847824B18680368B3
:1019B0009B699847804B186805F0DEFC0DF090F8A5
:1019C0007E4B1B780BB10BF07BFEAF2001F0D8FEF5
:1019D00003467B4C002B606A80F2A180FFF784FFF6
:1019E000EB2001F0CDFE002800F09C80AF2001F03C
:1019F000C7FE022800F09680AF2001F0C1FE00284B
:101A000000F090806069FFF76FFFC12001F0B8FE21
:101A10000346606C002B00F08980FFF765FF012D05
:101A2000206940F08680FFF75FFF3068654F0368EC
:101A3000DFF894819B6998470146B02001F0CEFE03
:101A4000306803685B6998470146B12001F0C6FE23
:101A5000306803685B6A984710F0DCF90146C620DD
:101A600001F0BCFE30680368DB69984701468B20B3
:101A700001F0B4FE554BB320196801F0A1FE544BA0
:101A80001B78012B03D0042B01D03B7823B1D8F86D
:101A9000000003689B689847D8F80000DFF834918D
:101AA000036899F800105B6998470646002843D000
:101AB000012D1EBF0122484B1A7001233B70A06A02
:101AC000464B984205D0FFF7F5FE0146DD2001F0B8
:101AD00077FE0BF0A3FD0BF0BDFD042D01D0012D11
:101AE0004ED1B02001F054FE0546E02001F050FE3A
:101AF0000146284610F09EFB88B3B02001F048FE56
:101B00000546772001F044FE294610F075FB40B3EE
:101B1000E06BFFF7E9FE206CFFF7E6FE36E0FFF72B
:101B2000E7FE5DE76069FFF7E3FE6EE7FFF7E0FEC3
:101B300075E7FFF7DDFE78E73B7833B10146822099
:101B400001F03EFE244B3E701E70D8F8000099F85C
:101B5000001003689B699847214B1870AFE7E0209D
:101B6000CCE7772001F014FE1E4910F09DF82946BD
:101B700010F060FB0028CED0E06BFFF7B9FECAE79B
:101B8000E06BFFF7B5FE206CFFF7B2FEBDE8F8830F
:101B9000E82C002020000020242B00201000002032
:101BA0000000204124000020180000200C0000202C
:101BB000080000201C000020102B0020F82A002024
:101BC00014310020212B002014000020482F002079
:101BD0000E2B00200C2B0020222B0020182C002084
:101BE000FB2A00200000A0402DE9F04FA62085B080
:101BF00001F0C6FD8246812001F0C2FD8F4B0446F4
:101C0000002840F0ED801F68003F18BF0127AF207B
:101C10001C6001F0B5FD81460EF004FF06F0F2F8FD
:101C2000874B884E186803685B689847812001F0ED
:101C3000A7FD0128054640F0DB800FFA8AFA8AEA00
:101C4000EA70A0EBEA7080B206F04EFF00218046F9
:101C500010F0D2FA98B1002001F092FD04280ED0C5
:101C6000222001F08DFD002840F0BC80BAF1000F69
:101C7000B8BF4FF0FF354D4518BF08F10048484642
:101C800010F0C8F8414610F019F9054630680368AD
:101C90005B689847306829460368DFF8AC811B69A8
:101CA0009847BE2001F082FD002840F0A580D8F8BA
:101CB0002000FFF71DFE3068DFF890A10368DFF811
:101CC00090911B6A984710F0D5FA05B22946A620D4
:101CD00001F076FD082001F053FD5AF8200006F0CF
:101CE0002BFC012C01D0042C09D1D9F8000085EA85
:101CF000E5710368A1EBE5719B6989B29847D9F852
:101D000000B0B020DBF80030DB69019301F040FD4A
:101D1000019B014658469847D9F8000003685B6864
:101D200098474C4B18680368DB6898474A4B18681B
:101D300003685B689847042C69D1484B18680368AE
:101D40005B689847284606F07BFD8346AA2001F091
:101D500017FD0390172001F013FD0546372001F011
:101D600017FD0190282001F013FD594610F062FA8A
:101D7000B0FA80F35B095946DB000198029310F03A
:101D800045FA039AB0FA80F0AA42D4BF0022012299
:101D9000029B400943EA8003882043EA821501F050
:101DA000F7FC8346272001F0F3FC0146584610F06B
:101DB00041FA002808BF45F001058420294601F0BA
:101DC000FFFC162001F0DCFC0190052C00F2A28043
:101DD000DFE814F046008601C1003A015601C30154
:101DE000002714E7BAF1000FA8BF4FF0FF3542E714
:101DF00006F058FF00254DE7BB2001F0D7FC002876
:101E00007FF455AFD8F82000FFF76EFD53E70520AB
:101E100001F0B6FC032804D1104B186803685B6816
:101E20009847012C8ED1E32001F0AAFC411C01F05F
:101E30000F01E32001F0C4FC84E700BF0000002094
:101E4000140000202400002014310020142B002056
:101E500020000020080000201000002018000020B2
:101E60000023924A924E934833701370FFF740FD5F
:101E7000D8F81800FFF73CFD1FB10221AF2001F098
:101E80009FFCD9F800008C4F0368DFF830B25B6923
:101E9000984700233B70BBF80030002B54D1884892
:101EA000FFF726FDD8F81C00FFF722FD8548FFF755
:101EB0001FFD15F0410F01D0019BB3B1D9F800000F
:101EC00003689B6B984780B1D9F8000003685B6B8F
:101ED000984750B101233B7033701923ABF80030A1
:101EE0000EF0A0FD0224784B1860784B1B786BB184
:101EF00015F0480F0AD11923ABF800300EF092FD0F
:101F0000714B022418600123684A13702146812016
:101F100001F056FCD9F800006D4D03685B6B9847E3
:101F2000002840F04281694B1B78002B40F03D8136
:101F3000002C40F03A812B88002B40F08F81D8F89C
:101F40004800FFF7D5FC37E1013B9BB2ABF800300E
:101F5000002BAED1A3E75D4F3B78002B53D1326805
:101F60005C4B9A4202D05348FFF7BEFCD8F81C00E5
:101F7000524EFFF7B9FCD8F81800FFF7B5FC3388CC
:101F8000002B4AD14F48FFF7AFFCDFF82CB19BF88C
:101F9000003053B115F0450107D1192386208BF885
:101FA00000103380012401F00BFC3B784BB115F09D
:101FB0004C0106D14FF4FA7386203380042401F0DB
:101FC000FFFB3A4B1B781BB13B78002B08BF00246A
:101FD000374D2B783BBB022C98D10EF023FD0746E2
:101FE000152001F0CDFB384B1B6803449F428DD96F
:101FF000019B0BB32B78FBB100238BF80030192326
:102000000124338082E7072001F0BAFB0028ADD11C
:102010003268314B9A42A9D1A5E7013B9BB233808C
:10202000002BB2D1AEE7D9F8000003685B6B98478C
:102030000028D0D1002469E72248FFF759FC0B2083
:1020400005F0E6FE032461E700221B4B1D481A70D1
:10205000FFF74EFC154B1B7823B11C4B1B78002B54
:1020600008BF0024124B1B78002B3FF44FAFD9F868
:10207000000003685B6B9847002808BF002445E711
:102080000E4A138853B90E48FFF72EFC0F4B1B78EE
:102090004BB99622114B05241A8004E0013B9BB2F8
:1020A0001380002BEFD005F0D5FE2FE7F92A002092
:1020B000FA2A0020A02C0020FC2A00202800002062
:1020C000F02C0020A82C0020A4260020222B002089
:1020D000A0260020B0290020282A0020E42A002081
:1020E0006B4A13884BBB6B48FFF7FEFB6A48FFF750
:1020F000FBFB8120012101F063FB05F0ABFED9F869
:10210000000003685B6B984700287FF4FFAEA620B1
:1021100001F036FB00284FF0A60014DA01F030FB86
:10212000404231283FF7F2AEAF2001F029FB68B9F9
:1021300096225A4B05241A80E8E6013B9BB2138095
:10214000002BD6D1CFE701F01BFBEAE7AF2001F06F
:1021500017FB02287FF4DAAEEAE74E48FFF7C4FB2C
:102160004D48FFF7C5FB0221AF2001F029FB4B4A88
:1021700013887BB9902001F003FB002811DA90202E
:1021800001F0FEFA404204283FF7C0AEFA22404B6D
:102190001A804FE7013B9BB21380002B7FF4B6AE51
:1021A000E8E7902001F0ECFAEDE74FF496732B800E
:1021B000D8F84800FFF798FB2988C520003918BFD8
:1021C000012101F0FDFA012C354D53D1532001F0CE
:1021D000D7FA012849D1D8F80C00FFF785FB2E6803
:1021E000562033689F6801F0CBFA0FF013FE0146CA
:1021F0003046B8472D6854202B68DE6801F0C0FADD
:10220000012281B22846B047072001F0B9FA02281E
:1022100007D10A2001F0B4FA5AF82010204608F03D
:10222000D9FC072001F0ACFA032807D10A2001F0FD
:10223000A7FA5AF82010204608F036FF072001F0D0
:102240009FFA042821D10A2001F09AFA5AF82010A6
:10225000204605B0BDE8F04F0CF066BC013B9BB2D8
:102260002B80002B3FF46BAEA2E7DD2001F09EFA3D
:102270000028B0D1D8F80C00FFF73AFB00222868FC
:1022800011460368DB689847BEE705B0BDE8F08FEC
:1022900028000020F02C0020A02C0020E42A0020A0
:1022A0001C0000202DE9F047812001F069FA054665
:1022B0009C4BDFF8748218680368DB689847042D2C
:1022C00004D1D8F800000368DB68984706F090FD59
:1022D000964BDFF85CA21968D820DFF8589201F01D
:1022E0006FFAD920DAF8001001F06AFADA20D9F88A
:1022F000001001F065FA904B904E1968DB20904F6A
:1023000001F05EFADC20318801F05AFA3B788D4CFE
:10231000022B32D18C4B1B787BBB042D1DD1DFF8F7
:102320002CA2DFF82C92DAF80030002B44D10023E5
:102330005D20237001F024FA4FF496735843CAF8D5
:102340000000D9F80030B3F5967F16D10023C9F804
:1023500000303388013B33800FE07E4ADAF80030EA
:1023600012789A4226D17C4AD9F8003012789A42E3
:1023700020D13388F3B1012323703B783BBB724BF0
:102380001B780BB901232370702001F0F9F90128A3
:1023900021D1722001F0F4F9704B8146586802F0A7
:1023A000C6F806460146E52001F00AFAB1452CDAE6
:1023B000002331E00023DFE7D9F80020013B0132A0
:1023C000CAF80030C9F80020002BBAD1AFE7012BC2
:1023D000DAD10023D7E7712001F0D2F90128D8D053
:1023E000D8F800005E4A036812785B692178984744
:1023F00008B1012D12D15B4B1E78AEB93146822057
:1024000001F0DEF9584B1E700EE03B78012BE7D14E
:102410004D4A1278002AE3D12370E1E70121524BA3
:102420008220197001F0CCF9504E3378022B07D17D
:102430004C4B1B7823B14E4B18680368DB689847F8
:102440003378012B02D9033B012B0AD8484F386857
:102450000368DB68984733781BB938680368DB6822
:102460009847042D3CD13F4B1E78002E33D1872056
:1024700001F086F905463C2001F082F98542A1BFB2
:102480000122314B26701A703A4B186803689B681A
:10249000984700210FF0A6FE68B1374A1368002B59
:1024A000DFBF002301212370274BCEBF03F1FF3391
:1024B00019700A231360314B586B314B98420AD084
:1024C000FFF7F8F938B1EA2001F05AF918B90122FA
:1024D0001D4B20701A70294B986BFFF709FA56E0D4
:1024E000012DF8D10022184B70201A7001F048F924
:1024F000022847D1732001F043F90646742001F009
:102500003FF9164B0546986802F011F8014604465B
:10251000E62001F055F9AE423BDCA642DBDCA542E9
:1025200035DA3AE02000002018000020F42A0020CC
:10253000F02A0020EC2A0020E82A0020082B0020A6
:102540000D2B00200C2B0020202B0020042B002022
:10255000002B00200B2B00200A2B0020083100202C
:10256000FB2A0020212B0020222B00200E2B0020F4
:10257000140000200C000020040000201431002072
:10258000182C0020712001F0FBF80228B2D0BDE821
:10259000F087A6429FDBA542F9DD024B986BFFF75F
:1025A000A3F9F4E714310020FEE700000C2838B549
:1025B00010D80C2819D8DFE810F0D000D300E500BF
:1025C0001800D900D600DF001800E800E800E80095
:1025D000E800E800522800F0CC8000F2B2803A28EF
:1025E00000F0DB80452800F0CA80222001F0C8F806
:1025F00040B1002001F0C4F8082803D000212220B7
:1026000001F0DEF8172001F0BBF8664D664C28603B
:10261000182001F0B5F82060192001F0B1F86860C9
:102620001A2001F0ADF860601B2001F0B1F85F4D99
:102630005F4C28601C2001F0ABF820602F2001F0D7
:10264000A7F85C4B2168186028680FF0D5FD50B1E1
:1026500059491B202960594D256001F0BFF82946D2
:102660001C2001F0BBF81D2001F092F8544B554C92
:1026700018602B2001F08CF8534B18602C2001F0CF
:1026800087F8524B18602E2001F082F8504B1860EA
:10269000252001F075F84F4B18601F2001F078F8E5
:1026A0004D4B1860232001F073F84C4B18602D201F
:1026B00001F06EF84A4B18601E2001F069F8494B92
:1026C0001860052001F05CF8042001F059F8464B31
:1026D00018702378012B22D15A2001F051F8434B76
:1026E0001860592001F04CF8414B1860582001F057
:1026F00047F8404B1860572001F042F83E4B1860F5
:102700005B2001F03DF83D4B18705C2001F038F87B
:102710003B4B18705D2001F033F83A4B1880412094
:1027200001F02EF820705D2001F02AF84FF4967326
:102730005843354B186008F091F9BDE8384008F06F
:10274000CBB96A2805D867287FF64FAF00F034FE72
:102750004BE77A380428F9D947E7FEF7F7FE44E754
:10276000FEF78CFE41E7FEF78DFD3EE7FEF7D0FD5C
:102770003BE7FEF739FF38E7FEF7FCFD35E7FEF7EC
:102780002FFE32E7FEF74CFE2FE7204C206804F0C6
:10279000A5FD606804F0A2FD27E704F08BFB04F0C0
:1027A00077FB22E7402F0020382F0020342F002015
:1027B000302F0020F82E00200080BB440000C842CB
:1027C0002C2F00200D2B0020242F00201C2F002058
:1027D000182F0020FC2E0020142F0020102F002086
:1027E000202F0020282F00200E2B0020E82A002078
:1027F000EC2A0020F02A0020F42A00200B2B0020D5
:102800000A2B0020082B0020042B0020142B002072
:10281000014B186800F04ABF242B002000B589B096
:1028200003A804F0C7FB28B1DDF815300193DDF8EB
:102830001930029304F039FB4FF400400DF0CAFD4B
:102840000499A1F58473012B05D8044B01AA1868DB
:1028500003681B69984709B05DF804FB1400002069
:1028600008B500200EF01AF9104B1A6801323B2A05
:102870001A600F4A05D911680131116019683C3995
:10288000196013683B2B0B4B05D91968013119608E
:1028900011683C3911601A68172A06D906490A6876
:1028A00001320A601A68183A1A6008BDE82A002046
:1028B000EC2A0020F02A0020F42A00202DE9F04321
:1028C000ADF68C2D00F0C4FB00F0ECFC0022C449F6
:1028D000C44801F06DFE0122C149C34801F068FE01
:1028E0000122C249C24801F063FE0222BC49C1482C
:1028F00001F05EFE0322BA49BF4801F059FE0522ED
:10290000B749BE4801F054FE0422B549BC4801F065
:102910004FFE0B22B249BB4801F04AFE042320229D
:10292000B949BA4801F0B5FB04238022B649B8483A
:1029300001F0AFFB04234FF40042B649B64801F062
:10294000A8FB04231022A949B44801F0A2FB0423E8
:102950000822A649B24801F09CFB012507238022EA
:102960009F49B04801F095FB07230422AE49AF48C8
:1029700001F08FFB07234FF40042A349AC4801F05C
:1029800088FB07234FF480429F49AA4801F081FB4E
:1029900007234FF400529C49A74801F07AFB072314
:1029A0004FF400729849A54801F073FB07234FF4D8
:1029B00080729549A24801F06CFB07234FF48062B6
:1029C0009149A04801F065FB07234FF400628E494E
:1029D0009D4801F05EFB0723402281499B4801F09E
:1029E00058FB07234FF480728A49994801F051FB44
:1029F00007234FF400727A49964801F04AFB0723F7
:102A00004FF480727649944801F043FB07234FF45A
:102A100080527D49914801F03CFB05230822824900
:102A20008F4801F036FB052310227F498D4801F0C5
:102A300030FB052320227C498B4801F02AFB072329
:102A400040227949894801F024FB072308226E4976
:102A5000874801F01EFB072304226B49854801F0DB
:102A600018FB07234FF480526049834801F011FBA3
:102A700007234FF480426C49804801F00AFB07238A
:102A800001225A497E4801F004FB07238022614954
:102A90007C4801F0FEFA072340225E497A4801F0A3
:102AA000F8FA042340225849784801F0F2FA042346
:102AB00010225549764801F0ECFA002380225A4949
:102AC000744801F0E6FA01F0C5FC73494FF000705C
:102AD0000DF0B8FD00F076FB00F0A4FB05F064F902
:102AE00000F016FB00F040FB00F066FCEC20FFF766
:102AF0005DFD0CF097FF5648FEF7FAFE5F48FEF7C3
:102B0000F7FEC4AC0023654A6549009539A800F07A
:102B100007FF0DF26C58002302222046614905F0A0
:102B200079FB022260492B46404605F073FB5F4B60
:102B30000F2004935E4B0DF5F96705935D4B0DF186
:102B40006409069300F01CFE2A46002814BF414683
:102B50002146384605F09EF83A462146484608F098
:102B600039FF554E0321484608F050FF204604A97E
:102B7000C6E9004804F086FB04A9404604F082FB45
:102B80004E4B0A201F604E4B07AC1F6000F0F8FD53
:102B900056F820700E2000F0F3FD56F8201049483A
:102BA00008F03AFE04F086F904F072F94FF4964208
:102BB0004549204609F07EFE444B1C600FACFEF7F1
:102BC000C5FCFEF75BFCFEF75DFBFEF7A1FBFEF725
:102BD000D1FBFEF709FDFEF703FCFEF721FC77E0D1
:102BE000001001403C2D0020382D0020000C014039
:102BF000342D0020302D00202C2D0020282D0020E9
:102C0000242D0020202D002000140140182D00202C
:102C1000102D002000080140082D0020002D00206C
:102C2000F82C0020F02C002000180140E82C002097
:102C3000E02C0020D82C0020D02C0020C82C002014
:102C4000C02C0020B82C0020B02C0020A82C002084
:102C5000A02C0020982C0020902C0020882C0020F4
:102C6000802C0020782C0020702C0020682C002064
:102C7000602C0020582C0020502C0020482C0020D4
:102C8000402C0020382C0020302C0020282C002044
:102C9000202C0020182C0020C0004000F43F010828
:102CA0000048004000640040006800409C24010887
:102CB000B917000865160008142B00207830002092
:102CC000102B00200827002000380140A8260020F3
:102CD0001E49204600F094FC1D4B2A4620461D4903
:102CE0001C6000F0ADFC0A2220461B4900F0A8FC45
:102CF00064222046194900F0A3FCC8222046184946
:102D000000F09EFC792000F03BFDA84202D138463D
:102D100002F0E8F80421802000F052FD002181201B
:102D200000F04EFD4FF0000439A88DF80F4000F080
:102D3000AFFF0CF0EBF9D9F81430002BF4D10DF102
:102D40000F011AA806F028FAEEE700BF00080040BD
:102D5000242B002029120008E91B0008F91800089C
:102D6000A522000810B50024624B634A1C741A6047
:102D7000624B634A1C721A60DC721C73614A624BBC
:102D800062481A601C72DC721C73614A614B1A60E3
:102D9000614B624A1A6007F057FE614B614A1C6240
:102DA0001A601C77604A614B61481A60614B624A45
:102DB0001A60624B624A1A60624B634A1A60634B44
:102DC000634A1A60634B644A1A60644B644A1A602F
:102DD000644B654A1A60654B654A5C751A60DC8213
:102DE000644A654B1A60654B654A1A60654B664AD2
:102DF0001A60664B664A1A60664B674A1A60674BF0
:102E0000674A1A6004F022FA664B674A67481A60FC
:102E100007F048FC664B674A67491A60674B684A87
:102E200068481A60684B694A1A60694B694A1A60B7
:102E3000694B6A4A1A606A4B6A4A1A606A4B6B4A63
:102E40001C721A606A4B6B4A1A606B4B6B4A1A60B1
:102E50006B4B6C4A1A606C4A6C4BC2E902441360BB
:102E60000023136153619361D361694A1160694A18
:102E70006949C2E904441160C2E90644136253621D
:102E80009362D3626549664A11606649C2E90244A9
:102E9000C2E904441483D361136253629362D36220
:102EA000136353639163604A6049C2E9044411604B
:102EB0005F49D3609361D361148453629362D36298
:102EC000136353639363D363136453649364916094
:102ED000584B594A1A60594B594A1C731A60594B3E
:102EE000594A1A6009F0E0FCBDE8104057480BF061
:102EF000D9BC00BFD02A00207C480108B42A002099
:102F000098400108D0410108982A0020642A002036
:102F1000C4430108882A00207C2A00200C440108B0
:102F2000402A002058420108F4450108282A0020C0
:102F300088290020202A002054470108182A002050
:102F400080470108102A002014490108082A00209F
:102F5000D0240108002A0020FC240108F8290020C0
:102F6000AC470108F0290020A8460108D829002014
:102F70001048010858460108D0290020C82900201F
:102F80002C460108C0290020E8480108B829002083
:102F9000744A0108B029002054440108A8290020DF
:102FA000AC2501088029002028250108742900206B
:102FB00068290020CC4B01084C4B010860290020F7
:102FC00088250108E026002054280020C448010874
:102FD00048280020284B01083C280020CC49010843
:102FE00030280020F049010820280020A8490108C5
:102FF00018280020E42501080C280020684B01084F
:10300000042800204C250108E4270020F44701088B
:10301000DC270020AC270020D8470108B04B01086E
:10302000702700200000FA4324270020F84B0108F5
:103030000000C8421C270020682501080C2700203A
:103040005C48010800270020AC240108AC260020C1
:1030500008B50DF021FC02200DF0F6FB4FF0E02347
:103060002A4A40F20230C3F80C2D0DF059FC40F210
:1030700003300DF055FC4FF441700DF051FC40F25F
:1030800005300DF04DFC40F206300DF049FC40F2E9
:1030900092300DF045FC40F291300DF041FC40F2D1
:1030A0000E300DF03DFC40F20B300DF039FC4FF4CA
:1030B00060700DF035FC40F281300DF031FC40F2D3
:1030C00082300DF02DFC4FF420700DF029FC40F201
:1030D00009300DF025FC40F286200DF021FC4FF464
:1030E00040700DF01DFC40F299300DF019FC40F2DB
:1030F0009A300DF015FC40F28E300DF011FCBDE859
:10310000084040F28F300DF00BBC00BF0003FA0501
:1031100013B50024202123462246CDE9004410485F
:103120000DF032FD21460E480DF026FD0C480DF045
:1031300015FD0B480DF01BFD4FF420430222032127
:1031400008480DF049FA4FF4804301222146054812
:103150000DF042FA024802B0BDE810400DF0F2BC9A
:1031600000380040000C014013B500244FF080519E
:103170004FF000700DF066FA234622462021CDE97B
:1031800000440E480DF000FD0C480DF0E7FC0B4824
:103190000DF0EDFC4FF4A0530222032108480DF07E
:1031A0001BFA4FF400630122214605480DF014FA82
:1031B000024802B0BDE810400DF0C4BC003C004025
:1031C0000010014008B502220423032112480DF02B
:1031D00003FA0823012200210F480DF0FDF90F49E1
:1031E0000F480DF08FFE08210D480DF09DFE0021C7
:1031F0000B480DF0A2FE0C2109480DF0AAFE00219B
:1032000007480DF0A0FE064800210DF0A8FEBDE81D
:10321000084003480DF0A9BE0008014020A10700A6
:103220000044004008B511200DF03AFFF0211120B4
:103230000DF042FF10200DF033FFF02110200DF0B3
:103240003BFF1E200DF02CFF00211E200DF034FF4F
:1032500014200DF025FFE02114200DF02DFF132088
:103260000DF01EFFE02113200DF026FF28200DF0A9
:1032700017FF4FF400400DF09FF801214FF400407C
:103280000DF076F806494FF400400DF0A9F8032040
:103290000DF006FFBDE80840202103200DF00CBF13
:1032A0000018014008B54FF2234103200DF030FC17
:1032B00000200DF0C1FB00200DF0F0FBBDE8084040
:1032C00000200DF0C9BB0000022208B511464FF4E2
:1032D000007316480DF080F915480DF09DFC002391
:1032E0002022194612480DF070FC202110480DF0E4
:1032F00098FC072200210E480DF097FC00210C4895
:103300000DF098FD0A480DF0EFFD4FF4C872002152
:1033100007480DF0D9FD06484FF488610DF083FC95
:10332000BDE8084002480DF072BC00BF0018014023
:10333000002C014008B5022303211A461D480DF058
:103340004BF94FF080400DF067FC00234FF08040B8
:103350001A4619460DF039FC00214FF080400DF05F
:1033600060FC4FF080400DF039FC4FF080400DF0D4
:1033700049FC8F214FF080400DF055FC02214FF0A9
:1033800080400DF07CFD062202214FF080400DF0C0
:103390004CFC02214FF080400DF04CFD4FF080407E
:1033A000482202210DF090FDBDE808404FF080401A
:1033B0000DF02DBC000801406A2038B500F0E0F99E
:1033C000132808D102220123114687480DF004F981
:1033D000002425460DE06A2000F0D2F9142840F0C0
:1033E00092800222012311467F480DF0F5F8002457
:1033F0000125692000F0C4F9132840F099800222C9
:103400008023114679480DF0E7F8682000F0B8F9FC
:10341000132840F0AE8002224023114673480DF07D
:10342000DBF873480DF0F8FB002171480DF0DBFB71
:103430006F480DF0D3FB062200216D480DF0F5FB1F
:10344000062202216A480DF0F0FB0622042168489A
:103450000DF0EBFB002166480DF0ADFC0221644845
:103460000DF0A9FC042162480DF0A5FC0021604884
:103470000DF0BBFC02215E480DF0B7FC04215C4856
:103480000DF0B3FC00215A480DF0D4FC022158483D
:103490000DF0D0FC042156480DF0CCFC002D40F07E
:1034A0008980002C40F086807B2000F069F901467D
:1034B0004F480DF0B8FB7C2000F062F9214602462F
:1034C0004B480DF001FD7D2000F05AF90221024623
:1034D00047480DF0F9FC7E2000F052F90421024625
:1034E00043480DF0F1FC012141480DF002FD7A2026
:1034F00000F046F901463E480DF093FBBDE8384028
:103500003B480DF084BB6A2000F03AF9152808D139
:1035100002220123114634480DF05EF801240025F3
:1035200067E7072301223049324800F0B2FD4FE738
:10353000692000F025F9142807D1022280231146C2
:103540002A480DF049F801255FE7692000F018F9D5
:10355000152807D102228023114624480DF03CF89B
:10356000012452E7072380222049234800F091FDDF
:103570004BE7682000F004F9142807D10222402309
:1035800011461A480DF028F801254AE7682000F096
:10359000F7F8152807D102224023114613480DF0F1
:1035A0001BF801243DE7072340221049134800F08F
:1035B00070FD36E741F68C110D480DF034FB012209
:1035C00000210B480DF080FC0122022108480DF07B
:1035D0007BFC0122042106480DF076FC0121044801
:1035E0000DF087FC0A2186E7000C0140000801402D
:1035F00000040040402C0020382C0020302C0020FB
:1036000038B50C460546016208460DF0E7FA20463B
:103610000DF0F3FA084B20461968084BB1FBF3F1A3
:1036200001390DF0FEFA20464FF6FF710DF0FBFA5E
:10363000002328466B6238BD6C250020A08601005F
:10364000F8B5436A0446032B0E4615462ADC006A89
:103650000DF0E2FA144F636A0122F95C206A0DF062
:10366000E4FA636A0022F95C206A0DF02DFC022165
:10367000636A05EB850505EB850503F10802AD00DE
:1036800044F82360994024F81250206A0DF090FA13
:103690000021206A0DF033FC206A0DF0B8FA636A4D
:1036A00001336362F8BD00BF242601082DE9F84309
:1036B000044600254FF0020800F11006636A08FA7C
:1036C00005F7AB420ADC3946206A0DF07BFA01357A
:1036D000042D06F10206F1D1BDE8F8833946206ACF
:1036E0000DF06AFAA8B1206A0DF007FC236A318850
:1036F000343353F8252081460A4443F8252054F8F2
:1037000025309847206A0DF0F8FBA0EB09003081C6
:10371000D9E7636AAB42DADCD5E7002170B500F186
:103720000E03446A4FF47A7508468C4200DC70BD83
:103730005A8933F8026F6A43B2FBF6F20131104442
:10374000F3E7000010B51C24084A04FB0022D468EB
:103750008C4209DC12698A4206DB054A42F82010D5
:10376000FEF724FF002010BDFF20FCE7DC03002053
:103770002C000020014B53F8200070472C00002043
:10378000024B53F820004011704700BF2C0000206E
:1037900008B5054B53F820000EF03CFB4FF0745178
:1037A0000EF08CFB08BD00BF2C000020034B53F82B
:1037B00020004011431E5842584170472C00002001
:1037C000024B490143F82010704700BF2C00002035
:1037D000014B43F8201070472C00002010B5044620
:1037E00008464FF084410EF069FB0EF043FD024B9A
:1037F00043F8240010BD00BF2C00002070B5064621
:103800000024074D3146686800F09EFB08B9E0B21D
:1038100070BD0134EC2C05F11C05F3D1ED20F7E768
:10382000DC0300200023064A118B814201D1D8B26B
:1038300070470133EC2B02F11C02F5D1ED207047EB
:10384000DC0300201C22024B02FB0030704700BF4B
:10385000DC0300200023064A0649108B10B1506992
:1038600041F823000133EC2B02F11C02F5D1704723
:10387000DC0300202C000020014B1954704700BFCE
:10388000282B0020024B1A5C11431954704700BFCB
:10389000282B0020024A135C23EA010313547047CB
:1038A000282B0020014B185C704700BF282B0020FC
:1038B0001C22024B02FB0033987E7047DC03002081
:1038C00000487047D08E0300024B1A68024BC3F8C1
:1038D0005C2E704758240020DC03002020218068E3
:1038E0000DF069BB80680DF05EBB10B504464368FF
:1038F000597A58680CF013FD636804F12A02597A6A
:1039000058680CF01EFD63688022597A58680CF0E4
:1039100028FD6368BDE81040597A58680CF0F6BC81
:1039200070B5026140F201120D464B49828201607E
:1039300001210022817580F8281004460421C0E985
:10394000062280F8202042629DF81020856080F8D1
:103950002920424A037342601068A84203D01C32F7
:1039600001396260F8D13E490C60002B70D050697B
:10397000138B022203210CF02FFE28464FF4E13175
:103980000DF0C0FA284608210DF0CEFA28464FF473
:1039900000510DF0D2FA28460C210DF0DAFA284633
:1039A00000210DF0D0FA002128460DF0D8FA284663
:1039B0000DF0EBFA28460DF0EDFA63682E1D197A2A
:1039C00058680CF039FC6368197A58680CF095FC5B
:1039D00063683246197A58680CF0AAFC63680022C2
:1039E000197A58680CF05EFC63680022197A5868EE
:1039F0000CF04CFC6368197A58680CF05FFC636843
:103A0000597A58680CF018FC63683246597A58683D
:103A10000CF08EFC63680022597A58680CF042FC66
:103A200063680022597A58680CF030FC6368597A50
:103A300058680CF043FC63685868597A0CF066FCCF
:103A40002046FFF752FF28460DF08FFA204670BD42
:103A5000D068138A8DE700BF803F0108843F0108CA
:103A6000142C002038B5437D0D4604691BB9002491
:103A7000204638BD0834216821B1284600F064FA98
:103A80000028F7D12368002BF2D1F0E738B50446BF
:103A90000D4663680222197A58680CF0E2FB18B9E7
:103AA00094F82830002BF4D06368197A58680CF029
:103AB00036FC6368AAB2197A58680CF052FC94F884
:103AC0002020636804EBC212197A5868AA320CF0FD
:103AD00038FC63680222197A58680CF0BDFB6368F1
:103AE000197A58680CF012FC94F82030B3FA83F37A
:103AF0005B0984F82030002384F8283038BD837DAA
:103B000010B50A46044623B9BDE8104080680DF0A0
:103B100031BA94F82030406ADB01234403440A2A76
:103B200000F1010183F8AA2001D07F2805D12046A9
:103B3000FFF7ACFF0023636210BD6162FCE7802ADF
:103B400030B428BF80220C460021914202D130BC03
:103B5000FFF79CBF90F82030655C00EBC3130B446B
:103B600083F8AA500131F0E738B5054608460C46FF
:103B700000F001FA214602462846BDE83840FFF72A
:103B8000DEBF000010B50446084600F047FA00F01A
:103B90002CFA217D227B8142636811D1012161755C
:103BA0005AB158691B8B032102220CF015FD2046E7
:103BB000BDE810400949FFF7D7BFD8681B8AF2E774
:103BC000002161753AB158691B8B0122BDE8104094
:103BD00000210CF001BDD8681B8AF6E7C137010847
:103BE00030B5044685B0084600F018FA0378302B4B
:103BF00026D0322B144D18BF4FF46125637DA3B13D
:103C00000A22294601A800F0C5F920460F49FFF70E
:103C1000ABFF20460E49FFF7A7FF204601A9FFF79B
:103C2000A3FF20460B49FFF79FFF2946A0680DF030
:103C300069F90021A06805B0BDE830400DF07DB9FC
:103C40004FF4E135DAE700BF10552200C037010814
:103C5000C6370108963E010810B50446084600F034
:103C6000DDF9037823B1303B18BF012384F82930F4
:103C700094F829302BB104492046BDE81040FFF7E5
:103C800073BF0249F8E700BFD5370108DF370108E5
:103C90002DE9F04143680446597A58680CF05AFB04
:103CA0000546C0F1800710B92046FFF71EFE94F8C4
:103CB0002930A06813B1E369BB4254DB08210DF041
:103CC0007AF910B1A0680DF06EF9002F40F39280E0
:103CD000651B95F8A9300A2B01D00D2B77D16368AD
:103CE000597A58680CF01BFB012F37D00022E319DA
:103CF00004F12A0683F82A2020213046E26100F0F0
:103D000041F990F800800546B8F1000F33D10A213F
:103D1000304600F037F9054684F8AA812B7823B99C
:103D20000D21304600F02EF90546002330462B7059
:103D30003149A36100F008F918BB204604F5D5719C
:103D4000FFF720FF0027A369BBB3A0680DF02FF990
:103D5000A36920465B6804F5D57198472046BDE805
:103D6000F041FFF7C2BD5A1CE261234493F82A10C8
:103D70000DF000F99BE7411C04F5D57000F0F2F856
:103D8000CCE730461D4900F0DFF828B9204604F59D
:103D9000D571FFF725FFD5E73046194900F0D4F873
:103DA00028B9204604F5D571FFF756FFCAE731461A
:103DB0002046FFF757FEA061C5E7012FCEDD637DEA
:103DC000002BCBD020460F49FFF7CEFEC6E794F874
:103DD0002A30212B0ED1A36963B12046FFF785FD60
:103DE0000023E361A369204604F5D5715B68BDE853
:103DF000F0411847BDE8F081EA370108F5370108BE
:103E0000FE37010803380108034BC1B21B681A686A
:103E100018461268104700BF142C002010B5044645
:103E20000BF042FF2046BDE81040014900F004BB02
:103E30001E38010807B50749D1F8F027D1F8EC374B
:103E4000D1F8E8170091044900F0F6FA03B05DF8E4
:103E500004FB00BF00F0FF1F4F3801080BF07CBED1
:103E600004F020B805F098B973B5144800F0D2FA00
:103E7000134800F0CFFA0025EEB23046FFF7E2FC1F
:103E800004463046FFF714FD68B93046FFF70AFDD7
:103E9000C3070DD463690B4800936168D4E9032319
:103EA00000F0B8FA04E03046FFF702FD0128ECD03C
:103EB0000135EC2DE0D102B070BD00BF58380108CB
:103EC0006F3801088B38010870B50B4900F0B4FA5F
:103ED0000024E6B23046FFF7B5FC05463046FFF752
:103EE000E1FCC30704D4D5E90112044800F092FABA
:103EF0000134EC2CEDD170BD9E380108C0380108AA
:103F0000F8B505460024E6B23046FFF79BFC47684B
:103F10003046FFF72FFC013403463A462846034952
:103F200000F08AFAEC2CEED1F8BD00BFCA380108C7
:103F300010B50446FFF78EFC2046BDE8104001494D
:103F400000F07ABAD3380108431E013913F8010F83
:103F500011F8012F10B10AB19042F7D0801A18BFA2
:103F600001207047013911F8013F0BB90370704708
:103F700000F8013BF7E7034600201A5C02B97047DE
:103F80000130FAE70346184613F8012B0AB18A42BA
:103F9000F9D17047002970B518DA2D23012400F8F3
:103FA000013B4942034691FBF2F602FB1611303108
:103FB0001970311E1D4603F10103F4DC00221A7052
:103FC0000246AA420AD3241A181904E004D1302365
:103FD00041700370012070BD0024E3E711782E7852
:103FE00002F8016B05F80119EBE730B503782D2BCA
:103FF00011D14FF0FF34013000210A25431E01E0AA
:1040000005FB012113F8012F303AD0B20928F7D966
:1040100004FB01F030BD0124EEE7000010B5134CA5
:10402000014610F8012BA2F10A03DBB2162B19D8B6
:1040300024FA03F3DA07F3D40846FFF79CFF0138AC
:104040000844814204460AD2237801380A3BDBB295
:10405000162B04D8054A22FA03F3DB07F1D4002318
:10406000637001E0002AE7D1084610BD0900400056
:10407000002310B5934200D110BD51F8234040F801
:1040800023400133F6E7013A00D2704740F8041BA1
:10409000F9E72DE9F041174682800022013B0E46E8
:1040A00001608271082B0BD8DFE803F0080E0C18B2
:1040B000150524261A000024002513E0012383712E
:1040C0000224F9E701238371022400253946304692
:1040D0000CF0C2FA06E001248471EDE70124EBE75D
:1040E000022403253B46224629463046BDE8F041DE
:1040F0000CF072BA0024F4E701240325E6E770B55A
:104100000C1EACBF01234FF0FF335C430133064666
:1041100008BF2D234FF0640208BF06F8013B611170
:1041200004F01F040546544330460A22FFF732FFCD
:104130002E226411092C3254D8BF302206EB000322
:10414000D8BF5A7021464FF00A02CCBF581C981CA9
:10415000FFF720FF284670BDF0B503782D2B17D14F
:104160004FF0FF36013000244FF00A0C02E01846F1
:104170000CFB0454034613F8012BA2F13005EFB2F7
:10418000092FF4D9AAB98C40144406FB04F0F0BD01
:104190000126E8E78B4003EB650393FBF5F30CFB8B
:1041A00005F51A4410F8013F303BDFB2092FF1D971
:1041B000E9E70A250022AC46F4E72DE9F047141E92
:1041C00005460F4616DC4FF02008DB0720D50026F9
:1041D000B94626E00132B95C0029FBD1A242ACBF4E
:1041E0000C46A41A13F0020F14BF4FF030084FF022
:1041F0002008EAE70022EEE72B68494628461B68BC
:104200009847013E002EF7DC24EAE476A41BDFE7A2
:1042100026465FFA88F9F5E72B6828461B68984719
:10422000D146CA461AF8011B0029F5D1A2465FFA09
:1042300088F8BAF1000F06DCF01B4844002CA8BF38
:104240000019BDE8F0872B68414628461B6898474F
:104250000AF1FF3AEDE72DE9FF470746DDE90C8A51
:1042600015461C4651B930234246ADF80030694628
:104270005346FFF7A2FF04B0BDE8F08723B10A2A36
:104280002DD100292BDA494200230E9A8DF80D30EA
:104290003A3A0DF10D03B1FBF5F005FB1016092EAE
:1042A00088BFB61830368D4203F1FF3903F8016C30
:1042B00017D964B1B8F1000F16D01AF0020F13D05D
:1042C0003B682D2138461B68984708F1FF38534654
:1042D000424649463846FFF770FF2044CBE70024AA
:1042E000D2E701464B46D6E72D22002409F8012CDF
:1042F000A3F10209EBE70846FFF786BD2DE9F0417F
:1043000007460E46144600254FF00A088CB0317857
:1043100019B928460CB0BDE8F081252972D1717811
:104320000029F6D0252906F101026AD02D290ABFFD
:1043300001230023B21C164612F8011B302915D0A8
:104340000022304610F8011BA1F1300C5FFA8CFE00
:10435000BEF1090F0DD966293FD00ED8632947D089
:1043600064291AD058292ED00136D0E743F0020331
:10437000E1E7064608FB02C2E3E7752926D0782963
:1043800019D07329F0D1216821480434002908BFCD
:1043900001463846FFF711FF0BE061202146CDE9C9
:1043A0000130012300920A22384609680434FFF7DD
:1043B00052FF0544D8E721466120CDE90130009243
:1043C00000231022F0E721464120F6E76120214634
:1043D000CDE9013000920023E5E7216808A8CDE986
:1043E00004230434FFF78BFEDDE9042308A9D0E79A
:1043F000216804348DF81C1000218DF81D1007A9C8
:10440000C7E716463B6838461B6898470135ABE757
:10441000363901080FB407B504AA52F8041B054B3E
:104420006846CDE90032FFF769FF03B05DF804EBA1
:1044300004B070478C4001080EB403B503AA52F8CB
:10444000041B0192FFF75AFF02B05DF804EB03B0C2
:104450007047000008B529480BF082FC27480BF094
:1044600084FC26480BF08BFC24480BF083FC0121D4
:1044700022480BF060FC21480BF024FC1F480BF095
:104480003DFC1E480BF04DFC1D4A08211B480BF05B
:104490007BFC1A480BF0B0FC4FF4602117480BF07E
:1044A00023FC0121174A18480BF042FF0121174A4B
:1044B00015480BF046FF4FF48072012112480BF0B3
:1044C000F1FE4FF4806201210F480BF0DFFE602205
:1044D00001210D480BF045FF01210B480BF0EEFECA
:1044E000012109480BF0F3FE074801210BF00EFFF4
:1044F000BDE8084001480BF075BC00BF0024014036
:10450000002E00204C24014000000240402D0020DD
:10451000884205DD914208DC9042A8BF10467047F2
:10452000904203DC9142A8BF11460846704737B558
:104530006D46046804F13003F03433F8102C33F87E
:10454000201C33F8300CFFF7E3FF3033A34225F88B
:10455000020BF2D1BDF80230BDF800001844BDF8DE
:1045600004301844BDF806301844C0F38F0003B07F
:1045700030BD000008B50D4B98420BD003F58063A9
:1045800098420BD0A3F5006398420BD1072909DCB0
:10459000C8B208BD012905DC0831F9E7052901DCAD
:1045A0000A31F5E70BF096FB1020F2E7000C014012
:1045B000012370B593400C4615460022064611466D
:1045C0009BB220460CF008F829462046FFF7D2FFA0
:1045D0003368034A9B1A034AC3F34F03D05470BD98
:1045E000402D0020002E00200D4B0E4A991C136018
:1045F0000D4A11600D4A191D11600D4A991D116077
:104600000C4A03F1080111600B4A03F10A01116021
:104610000A4A03F10C011160094A0E331360704716
:10462000402D00203C2D0020382D0020342D00206E
:10463000302D00202C2D0020282D0020242D00209E
:10464000202D0020114A124B30B553F8213052F87A
:1046500021401946A342A8BF2146026802F1C805BD
:104660008D4206DBA342B8BF234603F1C804A24231
:1046700002DD0160002030BD8A4202DA01600120C3
:10468000F9E79A42FBDD0360F9E700BF402F002005
:10469000382F0020012970B516D80C4B53F8215043
:1046A0000B4B53F82160B5420ED0401B0DF0B2FB0E
:1046B0000446701B0DF0AEFB014620460DF0B2FC27
:1046C00004490DF0FBFB70BD0020FCE7402F0020EB
:1046D000382F00200000C842F8B5224B05461C6860
:1046E000014620460DF0A6FD00B12C461E4B21468A
:1046F0001E6830460DF080FD00B126461B4D314648
:104700002F68344638460DF081FD002198B13046BF
:104710000DF090FD68B1164B196838460DF0C6FAD9
:10472000314604460DF086FD00B1344620462C602B
:10473000F8BD104BF0E730460DF072FD0028F5D1C2
:10474000002138460DF076FD48B10020094B19686C
:104750000DF0AAFA314604460DF04EFDE4E7384666
:10476000F4E700BF242F00201C2F0020EC2E002097
:10477000102F0020142F0020F8B5054686200E4685
:104780001746FEF7FDFF3146044628460DF03EFD74
:10479000E0B94FF0804130460DF088FA29460DF01F
:1047A00049FDA8B1A1B2862041F01001FFF708F839
:1047B000124D3E68002130460DF032FDA0B1294671
:1047C00030460DF019FD28B1344604E00C4DF0E7F9
:1047D0000025EEE72C46284609493C600DF00CFD0B
:1047E000003818BF0120F8BD05F1004421463046CD
:1047F0000DF020FD0028EED0E6E700BF00004842A3
:104800000000C8422DE9F843064627200C46FEF773
:10481000BFFF2D4FDFF8B48038602820FEF7B8FFC7
:10482000C8F800008620FEF7ABFF4FF6FC75D7F8FE
:1048300000900540002148460DF0FCFC10B300211B
:1048400030680DF0EDFC224F10B3494620460DF0C4
:104850002BFA20490DF032FB002104460DF0CCFC70
:1048600000B100243C603768214638460DF0E2FC78
:1048700008B145F00105214638460DF0BDFC00B1F8
:104880003C4634602946BDE8F8438620FEF798BFD1
:104890002046D8F800100DF007FA0E490DF00EFB77
:1048A000002104460DF0C6FC00B100243C603768CE
:1048B000214638460DF0A0FC08B145F0020521461E
:1048C00038460DF0B7FCDAE70C2F0020082F002047
:1048D000F42E0020000060402DE9F8430C46434FC1
:1048E0004349064638680DF0E9FA21460DF0DEF935
:1048F0004FF076510DF0E2FA38608720FEF748FF5E
:104900003C4904460DF078FCDFF8EC8000230028D9
:104910003AD0C8F80030DFF8E49086204FF6F375FF
:10492000C9F80030FEF72CFFD8F8008005400021C0
:1049300040460DF07FFC08B3002130680DF070FC9C
:104940003C682F4F002837D0214640460DF0ACF987
:10495000002104460DF050FC00B100243C60376893
:10496000214638460DF066FC08B145F008052146A1
:1049700038460DF041FC00B13C4634602946BDE8A4
:10498000F8438620FEF71CBF3020FEF701FF1D49CB
:104990000DF094FA21460DF045FBC8F800003120D7
:1049A000FEF7F6FE174900F100400DF087FA2146A8
:1049B0000DF038FB0346AEE72046D9F800100DF0A5
:1049C00075F9002104460DF035FC00B100243C606F
:1049D0003768214638460DF00FFC08B145F0040554
:1049E000214638460DF026FCC5E700BF0C2E0020FE
:1049F0000000704100004842002F0020042F0020DA
:104A0000F02E002000007A44104B70B51A6806683A
:104A100001EB0214A41A24110546002130461C6043
:104A20000DF008FC88B10A4B1B681B1B48BF033301
:104A30009B1023EAE3700DF0EDF904460146304681
:104A40000DF0F8FB00B126462E6070BD082E002048
:104A5000FC2E0020F8B50E4A054614780D4F01349F
:104A6000E4B2312C8ABF002323461C460A4E386824
:104A700056F8241013700DF017F929460DF016F9A9
:104A80000649386046F824500DF0CCFAF8BD00BF56
:104A9000102E0020DC2E0020142E002000004842A2
:104AA0002DE9F74F0646A62091468846FEF768FE98
:104AB0000446AF20FEF764FE074684EAE470A0EBEC
:104AC000E4700DF0A7F9DFF8F8B10446DBF8005008
:104AD00029460DF0E9F8002101900DF08DFB019BB6
:104AE00008B103F10043774A1946D2F800A05046B6
:104AF0000DF082FB50B1294620460DF09BFB51463C
:104B000000283DD028460DF0D1F80446CBF80040EF
:104B1000002F00F0CF8020460DF0ACFB0546B9F128
:104B2000000F31D0632840F3C5800DF073F9664B58
:104B30000646D3F8008041460DF05EFB002840F0A9
:104B4000B980624B30461F68614B39461C680DF0D6
:104B500053FB88B140460DF08DFB064620460DF014
:104B600089FBAD1B454338460DF084FB801B95FB4C
:104B7000F0F00DF04FF90446204603B0BDE8F08F89
:104B800028460DF091F8C0E741463046FFF782FD18
:104B9000504B04461E68014630460DF04BFB002882
:104BA00076D1314620460DF07FF8314604464A481A
:104BB0000DF07AF8014648480DF034FA21460DF020
:104BC0007DF90646454B30461E60FFF743FF014620
:104BD000044630460DF068F8414980460DF00CFB64
:104BE00030B94FF07E5140460DF024FB00B9264607
:104BF000632D4FDD28460DF00DF9334B8046D3F879
:104C000000A051460DF0F8FA002843D12F4B404642
:104C1000D3F80090334B49461C680DF0EDFA98B17B
:104C200050460DF027FB804620460DF023FBA5EBF8
:104C30000805454348460DF01DFBA0EB080095FB19
:104C4000F0F00DF0E7F80446274D012F2C6023D13A
:104C5000204626490DF032F904462449244B1868B1
:104C60000DF02CF921460DF01FF831460DF026F914
:104C700019490DF0D7F921460DF018F80CF00EFD8A
:104C80000DA3D3E900230CF061FD0CF0B9FF72E72E
:104C9000002697E70024D7E72620FEF771FD08B924
:104CA00000232B60114928680DF008F90F490446CC
:104CB000104BD4E700245FE79A9999999999B93FE5
:104CC000E82E0020F82E0020302F0020342F002066
:104CD000282F0020182F00200000C842E02E0020BE
:104CE000000080BF2C2F0020E42E00200000204177
:104CF000242F0020202F00202DE9F341DFF88080B1
:104D0000054629201E460C461746CDF80480FEF7BE
:104D10003FFD01AA01463846FFF72EFD2A20FEF787
:104D200037FD01AA01463046FFF726FD294601A8B6
:104D3000FFF768FD214601A8FFF7CEFD089901A8FD
:104D4000FFF762FE414601980DF06CF94FF07E517D
:104D500004460DF06FFA20B9002120460DF04CFA00
:104D600060B94FF07E5120460DF064FA20B14FF04B
:104D70007E5002B0BDE8F0812046FAE70020F8E757
:104D80000000C842F7B51E461F4B05462920019377
:104D90000C461746FEF7FCFC01AA01463846FFF711
:104DA000EBFC2A20FEF7F4FC01AA01463046FFF78F
:104DB000E3FC294601A8FFF725FD214601A8FFF7DE
:104DC0008BFD089901A8FFF71FFE01980F4900F11C
:104DD00000400DF027F94FF07E5104460DF02AFAFD
:104DE00020B9002120460DF007FA58B94FF07E5146
:104DF00020460DF01FFA18B14FF07E5003B0F0BD01
:104E00002046FBE70020F9E70000C8C20000C842C6
:104E1000024B00BF013BFCD1704700BF00127A007B
:104E200010B50446002240F2215102F03AFA002265
:104E300040F22251204602F034FA002240F223517F
:104E4000204602F02EFA002240F22451204602F0C1
:104E500028FA002240F22551204602F022FA0022D0
:104E600040F22651204602F01CFA002240F227515F
:104E7000204602F016FA2046BDE8104000224FF40A
:104E8000A56102F00EBA0000002313B5054A40F2F6
:104E90001141CDE9002303686A465C680823A047F6
:104EA00002B010BD340001003222002313B5CDE959
:104EB000002303686A465C6840F211410823A0475A
:104EC00002B010BD002313B5054A40F21141CDE9EF
:104ED000002303686A465C680823A04702B010BD3F
:104EE000340101002DE9F7430026174B04461E70DC
:104EF0002025FFF7C9FF4FF04209FFF789FF4FF464
:104F0000C848236801966A4640F2114120465F680E
:104F10008DF8005008238DF80190ADF8028001351E
:104F2000B847EDB22046FFF773FFFFF7BDFFFFF76D
:104F30006FFF292DE5D12046FFF7C4FFFFF768FF7B
:104F400003B0BDE8F08300BFAC1D0020D0F8022004
:104F5000014B1A60704700BF642F0020D0F8022078
:104F6000014B1A60704700BF542F0020D0F8022078
:104F7000014B1A60704700BF502F0020D0F802206C
:104F8000014B1A60704700BF4C2F0020054A138860
:104F9000013313800A22D0F8023093FBF2F3024A65
:104FA00013607047682F0020482F0020D0F802209F
:104FB000014B1A60704700BF5C2F0020D0F8022020
:104FC000014B1A60704700BF602F0020D0F802200C
:104FD000014B1A60704700BF582F002003466FF442
:104FE000A46213440846072B15D8DFE803F0040633
:104FF000080A0C0E1012FFF7A9BFFFF7AFBFFFF7AB
:10500000B5BFFFF7BBBFFFF7C1BFFFF7CFBFFFF7CC
:10501000D5BFFFF7DBBF7047016170474161704743
:10502000007A7047007A70470023C372704710B54A
:1050300004460022616008464FF4987102F031F98D
:1050400000224FF43F71606802F02BF900224FF408
:105050009061606802F025F960680022BDE81040A8
:105060004FF4D07102F01DB92DE9F0410025BCB01C
:105070000F46F02268460F490DF042F96C4614269F
:10508000A84620680CF0C6FE39460DF0BFF808B1FE
:10509000D4E90185013E04F10C04F2D141467520AA
:1050A000FEF78EFB294676203CB0BDE8F041FEF7C6
:1050B00087BB00BFD840010810B404686468A446E8
:1050C00010BC6047037E73B50446002B50D0AF2060
:1050D000FEF756FB324B00284CD10321314A207396
:1050E0001170E1221A701B782F4D8DF800300C23BF
:1050F0008DF801308F238DF802302B7860688DF8A1
:105100000330F0238DF8043003686A464FF4E971E8
:105110005E680523B0472B7839201033DBB2ED2BC6
:1051200008BF0D232B70FEF72BFB204BC0B21A7863
:10513000824215D04FF40952ADF8002000228DF8BC
:1051400002204FF0FF32019230BB30228DF8032055
:1051500018706A46082340F292516068FFF7ACFF6E
:10516000236896201D6AFEF713FB01462046A847D8
:1051700002B070BD421C06D1012202212273094AED
:105180001170D222AEE70128ADD10322082122738B
:10519000044A11707822A5E70828D9D13122D5E731
:1051A000B21D0020B11D0020702F00206A2F0020AA
:1051B0000B7803F0010343720B78C3F3800303728F
:1051C0000B78C3F3001383728B78C3F3C003437669
:1051D000704700000000000008B54B7808781B02FB
:1051E00003F4706318440CF047FA09A3D3E90023D1
:1051F0000CF0ACFA0CF004FD07490CF05FFEBDE8C2
:1052000008400146A720FEF7E9BA00BFAFF30080CF
:105210009A9999999999B93F2B121F3F0B78842B32
:1052200003D10121EA20FEF7CBBA812B01D1002165
:10523000F8E770474B78323B18BF0123037670477D
:105240000B46B3F53F7F11460FD006DCB3F5987FD0
:1052500007D0B3F5D07F06D07047B3F5906F06D076
:105260007047FFF7A5BFFFF7B7BFFFF7D7BFFFF73F
:10527000E1BF000003682DE9F74F5B6B04460D4664
:105280009847644E002800F0BE80A620FEF778FA0A
:1052900040F2ED23984240F3B380A620FEF770FA67
:1052A000800080B207229421337843F05003002716
:1052B0008DF802200A44AA3202EB10228DF8013048
:1052C000ADF804001344C0B203449AB202EB2323A6
:1052D00060686A468DF806108DF80030AA21082310
:1052E0008DF807708DF80370FFF7E6FEBD420CBF26
:1052F00004226422DFF820A14FF00F0B9AF800007F
:10530000DFF8189100F5FC73D11801EB11238DF82B
:1053100000304EF22103ADF8023041F62173A8218E
:105320008DF80100ADF80430606808238DF807207F
:105330006A46DFF8EC808DF806B0FFF7BDFE99F8FD
:1053400000306A468DF8003098F80030A9218DF8B9
:1053500001304DF67973ADF80230324B606801933D
:105360000823FFF7A9FE304D304B297818788DF8C7
:10537000061043188DF80000FF2003F5E47202EBDD
:105380001223BA216A468DF801008DF80530606855
:105390000723ADF802B08DF80470FFF78DFE337867
:1053A0002349013333700B78224A01330B709AF88A
:1053B0000030287801338AF8003099F80030013045
:1053C000013389F8003098F800302870013388F8EC
:1053D000003013780133DBB25C2B13700DD1BE2388
:1053E0000B70E92389F800304D2313708023377048
:1053F0008AF8007088F800702B7003B0BDE8F08F59
:1054000040F6B8304EE73378FE22842143F0300373
:105410004DE700BF6B2F00206D2F0020AF1D002037
:105420006C2F00201DC7E021AD1D0020B11D002004
:10543000B01D0020AE1D0020037E10B5044643B110
:10544000BB20FEF7B3F901462046BDE81040FFF748
:1054500011BF10BD73B506468120FEF791F90128F2
:1054600015BF00239C231A469E224FF0900014BFC4
:105470001D4660258DF804308DF80520FEF788F96B
:10548000014622480CF010FC214904460CF0D2FEE3
:10549000002836D120460CF0EDFE64234FF4FA725A
:1054A000434393FBF2F303F132000CF0B3FC1949D0
:1054B0000CF0FCFB3C23184C8DF800300CF000FF86
:1054C00023786A461D43C3238DF8033048F2CD2369
:1054D0004FF4E8718DF80100ADF8063070680823CC
:1054E0008DF80250FFF7E8FD0C4A217813788B42C3
:1054F00009D10133DBB20F2B08BF0023237002B0A8
:1055000070BD0748D6E71170F9E700BF0000C84238
:1055100000400344000040426F2F00206E2F002007
:1055200000001643037E73B50446A3B148F261231D
:105530000093C37A63B9032560686A46036840F242
:1055400032315E680223B047013DF5D10123E37299
:105550002046FFF77FFF02B070BD016170474161D7
:105560007047007A7047007A70470023C372704713
:1055700010B504460022616008464FF4987101F0AE
:1055800090FE00224FF43F71606801F08AFE002215
:105590004FF49061606801F084FE00224FF4D071F6
:1055A000606801F07EFE60680022BDE8104040F2B5
:1055B000FE3101F076BE00002DE9F84F00260D46C1
:1055C0003446DFF8A48030460CF024FCA34629467C
:1055D0000134074658F8346008EBC40A0CF016FE94
:1055E00000283CD030460CF015FC294681460CF0D2
:1055F00017FE002833D008EBCB0BDBF804000CF0CF
:1056000009FC0446DAF804000CF004FC21460CF016
:105610004BFB3946064628460CF046FB3946054604
:1056200048460CF041FB014628460CF0FBFC0146C5
:1056300030460CF043FC21460CF038FB4FF07C5117
:105640000CF034FB0CF016FE044621467520FEF7E4
:10565000B7F82146BDE8F84F7620FEF7B1B8072C21
:10566000B1D1FF24F1E700BF10420108037E37B536
:1056700004462BB33920FEF783F8144BC0B21A78D6
:10568000824215D04FF40952ADF8002000228DF867
:1056900002204FF0FF320192A0B930228DF8032092
:1056A00018706A46082340F292516068FFF704FDC3
:1056B000236896201D6AFEF76BF801462046A8472E
:1056C00003B030BD0828EBD13122E7E7782F002066
:1056D0000B7803F0010343720B78C3F3800303726A
:1056E0000B78C3F3001383728B78C3F3C003437644
:1056F000704700000000000008B54B7808781B02D6
:1057000003F4706318440BF0B7FF07A3D3E9002339
:105710000CF01CF80CF074FABDE808400146A72014
:10572000FEF75CB8AFF300809A9999999999B93FBF
:1057300010B50B780C46842B0BD10121EA20FEF723
:105740003FF86178EB20BDE8104001F00101FEF761
:1057500037B8812BF5D10021F0E74B78323B18BFE9
:1057600001230376704708B5B1F900000CF052FB35
:105770004FF074510CF0A2FBBDE808400146A9208F
:10578000FEF72CB80978C1208B1E59425941FEF70B
:1057900017B80B46B3F53F7F114615D008DCB3F5BB
:1057A000987F0DD0B3F5D07F0CD0B62B10D07047BA
:1057B00040F2FE3293420DD0B3F5906F06D07047A1
:1057C000FFF786BFFFF798BFFFF7B2BFFFF7C5BF70
:1057D000FFF7C9BFFFF7D6BF03682DE9F7435B6B3F
:1057E00004460D469847534E002800F09D80A620A1
:1057F000FDF7C6FF40F2ED23984240F39280A620C9
:10580000FDF7BEFF800080B207229421337843F079
:10581000500300278DF802200A44AA3202EB10221E
:105820008DF80130ADF804001344C0B203449AB2BD
:1058300002EB232360686A468DF806108DF800306D
:10584000AA2108238DF807708DF80370FFF734FC48
:10585000BD420CBF04226422DFF8DC90DFF8DC805C
:1058600099F800008DF8072000F5FC73D11801EBC2
:1058700011238DF800304EF22103ADF8023041F6CD
:105880002173ADF804300F236A46A8218DF801007A
:105890008DF8063060680823FFF70EFC284D98F855
:1058A000003060688DF800302B786A468DF8013042
:1058B0004DF67973ADF80230224BA92101930823EC
:1058C000FFF7FAFB337820480133337003781F4920
:1058D0000133037099F800301D4A013389F8003014
:1058E00098F800301478013388F800302B780134B0
:1058F00001332B700B7814700133DBB25C2B0B700F
:105900000CD1BE230370E92388F800304D230B70BF
:105910008023377089F800702F70137003B0BDE8D2
:10592000F08340F6B8306FE73378FE22842143F0ED
:1059300030036EE7792F00207B2F0020B51D00205B
:105940007A2F00201DC7E021B61D0020B41D0020C5
:10595000B31D0020037E10B5044643B1BB20FDF704
:1059600025FF01462046BDE81040FFF735BF10BDBA
:105970002DE9F3470746B020FDF70AFF0446B120A2
:10598000FDF706FF4D49054620460CF08FF9002132
:1059900004460CF031FC00287ED1204648490CF02A
:1059A00049FC00287AD120460CF08AFCC6B2434953
:1059B00028460CF07BF9002104460CF01DFC002861
:1059C0006ED120463E490CF035FC00286AD12046B5
:1059D0000CF076FCC5B28120FDF7D2FE01284FF015
:1059E0000004DFF8E08061D13B20FDF7D1FE3649AD
:1059F0000CF018FB82468C20FDF7CAFE214681463A
:105A00000CF0FAFB00284FD0304909F100400CF0AF
:105A100055FA51460CF006FB2D490CF04FFAD8F818
:105A200000100CF043F94FF08F4104460CF0F8FBE6
:105A300028B120464FF08F410CF036F9044620463D
:105A4000C8F800400CF03CFC6023ADF80400214C89
:105A50004FF4E8712278786813438DF80230C3233D
:105A60008DF8033049F2CD636A46ADF8063008235D
:105A70008DF800608DF80150FFF71EFB164A217863
:105A800013788B4218D10133DBB20F2B08BF0023F0
:105A9000237002B0BDE8F087002688E7CF2686E7AE
:105AA000002598E7CF2596E72046B2E70023C8F8FF
:105AB0000040ADF80430CAE71170EAE70000404248
:105AC00000004F43742F002000007C425304E9374C
:105AD000002474497D2F00207C2F0020037E73B5A5
:105AE0000446A3B148F261230093C37A63B9032546
:105AF00060686A46036840F232315E680223B0474C
:105B0000013DF5D10123E3722046FFF731FF02B0DA
:105B100070BD4069704708B5B0F908000CF07AF91B
:105B200008BD08B5B0F90C000CF074F908BD000010
:105B3000014B1878704700BF0F30002000000000B4
:105B400038B51D48FEF7F3FC05461C48FEF7EFFC90
:105B5000044628460BF090FD13A3D3E900230BF075
:105B6000F5FD13A3D3E900230BF03AFC0CF048F841
:105B7000054620460BF080FD0BA3D3E900230BF074
:105B8000E5FD0BA3D3E900230BF02AFC0CF038F859
:105B90000446014628460CF04DFB08B1284638BDA6
:105BA0002046FCE7AFF300801213371BE91495BFC2
:105BB000988F7B2556484C40282D0020242D00200E
:105BC00038B505460C461A4807210AF035FB07216F
:105BD000184A17480AF0ACFB2A46072114480AF075
:105BE000B0FBA2B2072112480AF0BBFB0721104804
:105BF0000AF083FB07210E480AF060FB0022072110
:105C00000B480AF04FFB0022072109480AF03EFB2F
:105C10004FF48052072106480AF02CFB0448072164
:105C20000AF074FBBDE8384003480BF0B3B900BF7D
:105C300000000240044400400044004010B5044607
:105C4000062119480AF0F8FA0621184A16480AF0FF
:105C50006FFB0621164A14480AF073FBA2B2062114
:105C600011480AF07EFB06210F480AF03DFB062191
:105C70000D480AF023FB002206210B480AF012FB14
:105C80000022062108480AF001FB002206210648EE
:105C90000AF0F0FA044806210AF038FBBDE810408B
:105CA00004480BF072B900BF0000024004440040F9
:105CB0007E2F00200044004038B504463220FDF716
:105CC0005FFD03B2022BE3811FD1344D344A2B78A0
:105CD000002B32D141F65831B4F90C00884201DD75
:105CE0000121117011782F4A8B4248D00123137083
:105CF0002D4B93F900002D4B10B918780130187016
:105D00001878042822D10BB2E381012B08D128484E
:105D1000FBF7EEFD2748FBF7EBFD2748FBF7E8FD17
:105D2000B4F90E30C3B92248FBF7E2FD2148FBF776
:105D3000DBFD2148FBF7D8FD0EE0012BD2D1B4F9F1
:105D40000C10B1F5FA6FCDDA0021CAE7052803D1AE
:105D50002970002119701170B4F90E30032B0DD188
:105D6000AF20FDF70DFD013011480DD1FBF7C0FD4F
:105D70001048FBF7B9FD1048FBF7B6FD38BD002110
:105D80001BB2E3811170C0E7FBF7B2FD0948FBF7D6
:105D9000AFFD0948FBF7ACFDF0E700BF0C30002079
:105DA0000B3000200E3000200D3000200A30002083
:105DB000882C0020982C0020902C0020000000004F
:105DC0002DE9F84F054612200E46FDF7D9FC8E4B03
:105DD000C4B21B78012B40F0B6802846FFF76CFF59
:105DE00030468A490CF06AF889490CF01BF90CF02E
:105DF00041FA884FDFF8208297F900A0A8F8000048
:105E000050460CF007F831460CF058F80BF046FC01
:105E10007BA3D3E900230BF099FC0BF0F1FE7F4943
:105E200006460CF04BF87A490CF0FCF80CF022FA1C
:105E30007B4BDFF8F0911A782862A9F80000002A5D
:105E400000F0D880BAF1000F2EDD2320FDF7A0FC72
:105E5000834697F900000BF0DDFF734982465846F0
:105E60000CF02CF8014650460BF01EFF0CF002FA25
:105E700040B200286A4B3DDB6328387014DC1B7885
:105E800093B92320FDF784FC824697F900000BF0BC
:105E9000C1FF51460BF00AFF0CF0ECF940B2642848
:105EA000CABF642338703B70B5F90E302BBB00219C
:105EB00030460CF0A1F900B3B9F900000BF0DCFB9F
:105EC00000225A4B0BF042FC0BF052FEA9F80000E6
:105ED000B8F900000BF0D0FB0022544B0BF036FC5D
:105EE0000BF046FEA8F80000032C14D8DFE804F0FD
:105EF0000B100E1A00223A70C1E7032C0BD8DFE812
:105F000004F00207050C2B6A002B04DA424B00E078
:105F1000444B00221A80BDE8F88F304644490CF00B
:105F200089F918B90023A8F80030F4E730460CF0DE
:105F3000A1F941F2171332385843322390FBF3F0A2
:105F4000A8F80000E7E7022B1ED1344930460BF0D9
:105F5000B5FF2F490CF066F80CF08CF9314A03B20A
:105F6000138013EB83032C4948BF03339B10286233
:105F70000B800CB90028C8E7012C02D10023138044
:105F8000C9E7022CC7D1C1E7032BC4D1234930464E
:105F90000BF094FF1E490CF045F80CF06BF9214A08
:105FA00003B2138013EB8303286248BF03331A4DF7
:105FB0009B102B80032CAED801A353F824F000BF14
:105FC000755F0008115F00080D5F0008D15F0008D1
:105FD000304617490CF02EF908B928809BE7304667
:105FE0000CF048F941F2171332385843322390FB32
:105FF000F3F0F2E7BAF1630F3FF756AF41E700BFA6
:106000007B14AE47E17A843F1930002000B8884500
:106010000000C8420D3000201230002000C05A4558
:106020000E300020103000200000A0400000E03FB3
:106030000000484210B58120FDF7A2FB08B902F02C
:106040007DFF8120FDF79CFB012842D12148FBF711
:1060500031FC0146C220FDF7B3FB1F48FBF72AFCC9
:106060000146C320FDF7ACFB1C48FBF723FC0146AF
:10607000C420FDF7A5FB1948FBF71CFC0446164895
:10608000FBF718FC84F0010380F001046400114860
:1060900044EA8304FBF70EFC64B280F0010044EA9A
:1060A00000035BB20E4C062B237003D10021C720E6
:1060B000FDF786FB2378052B03D10121C720FDF7CF
:1060C0007FFB3320FDF75CFBBDE8104080B202F09F
:1060D00035BF10BD802C0020782C0020702C0020B3
:1060E00014300020034B1B78012B01D1FFF7A2BF16
:1060F000704700BF1930002000220B4870B51346CE
:1061000005468C1E944209DC294411F8012C285DB7
:1061100040EA0220C31A5842584170BD10F8016B82
:10612000013233449BB2EDE77E2F0020002070B592
:10613000084C034622468D1E854205DC53550A4411
:106140001B0A02F8013C70BD14F8016B01303344A6
:106150009BB2F1E7E9220020F8B5B64D04462B7852
:106160000E2B3ED8DFE813F00F0016003B003E0078
:106170007600BB00BD00DC00DE000A0180018C015E
:10618000A501A701D1016420FFF758FDAA48FBF73C
:10619000AFFB1EE0A94CA848FBF7A6FB23787BB910
:1061A00002220721A6480AF05CF890B107210222DA
:1061B000A3480AF051F85021A248FFF701FD08E07A
:1061C0005021A148FFF7FCFCA04B5B7823B90123C9
:1061D00023702B78013303E02378013BF8E7032396
:1061E0002B70F8BD6421FFF787FF984E984F38B9A0
:1061F0000021B7206181A1813970FDF7E1FA23E028
:10620000022206218E480AF02CF80028F0D0022243
:1062100006218B480AF020F801233B70B6F8523073
:10622000053B03EBD3735B10238196F92A000BF037
:10623000F1FD606196F956000BF0ECFDF388A0616A
:106240006381B6F81F30A381002386F8623086F898
:106250006330BEE77F4EA820B6F90010FDF7B0FA14
:106260006189A289774B0A44712112B292FBF1F243
:1062700079491A70B1F900200978880083F84B0039
:1062800090115242C2F307229A711A73328849421E
:10629000120ADA7683F82120782283F83F20EC2254
:1062A00083F840206C2283F841206B22C9B25971D7
:1062B000D972317883F84C00997683F82010204603
:1062C000502183F84220FFF731FF644A1388642B82
:1062D0008EBF002301339BB21380002380E7782018
:1062E00052E7564C5448FBF7FFFA2378052B0ED99A
:1062F00002220721524809F0B4FF00283FF469AF99
:10630000072102224E4809F0A7FF642154E76421C7
:10631000534801FB0300FFF753FC2378013357E791
:1063200008235DE77821FFF7E7FE484E484F002835
:106330003FF45EAF02220621414809F092FF002897
:106340003FF456AF022206213D4809F085FF0123A4
:106350003B70B6F86430053B03EBD3735B102381CD
:1063600096F914000BF056FD6061B6F856000BF07C
:1063700051FDF388A0616381F38C64E7354EA8205A
:10638000B6F90010FDF71CFA334A2E4B11785278FB
:10639000307859719A71D9721A733188B6F9002020
:1063A000266A090A002E9877D97738DD02EBD27277
:1063B00052101A77C2F307229876D9765A77752148
:1063C00083F84A10122183F84B106021402283F891
:1063D0004C10252183F84820042283F84D105221C7
:1063E00083F8492083F84F20892283F84E101D49F5
:1063F00083F8562083F858200A7820460132D2B21A
:106400000A70D20748BF93F85E204FF0640144BF82
:10641000013283F85E20FFF789FE0523E0E6CED047
:1064200002EBD27252109A76C2F30722187759778C
:10643000DA76C4E718300020682C002052230020B0
:1064400000000240E9220020554301087E2F002071
:106450000F300020103000201230002016300020B5
:106460002D200020153000208120FDF789F901281A
:106470001CBF00223D4B4FF08C0018BF1A7083E602
:106480003A4C3B48FBF730FA2378062B0ED9022210
:106490000721384809F0E5FE00283FF49AAE0721AD
:1064A0000222344809F0D8FE692185E66921324884
:1064B0002FE70D2394E68C21FFF71EFE2F4E08B325
:1064C000022206212B4809F0CCFED8B10222062177
:1064D000284809F0C1FE01233370294EB6F8753003
:1064E0005B10238196F914000BF094FC6061B6F800
:1064F00019000BF08FFC7389A0616381B6F82B3013
:10650000A38166E60023337063E61E4EA820B6F929
:106510000010FDF755F91C4B2046B3F900201B4B2A
:106520005242D1B2C2F307229A711A73B6F900200F
:106530005971DA77121283F820209A7ED97283F883
:106540002520DA7E692183F82620782283F84F20DF
:10655000EC2283F85020102283F85120272283F860
:106560005220FFF7E3FD0A233AE600BF5223002042
:10657000682C002000000240B71D00200F300020D2
:106580007E2F00201030002012300020E922002051
:1065900038B5037F04468B420D460AD051B16120C5
:1065A000FDF7EEF808B9FCF78FFEFCF7C3FE0123F8
:1065B000237738BD4FF080400AF02EFB2577F8E7AF
:1065C00008B50121FFF7E4FF0B4B1A78042A04D821
:1065D00005221A700022094B1A7000230849094A43
:1065E00011F8010B0133642B02F8010BF8D10222E0
:1065F000054B1A7008BD00BF183000205223002040
:1066000088420108E92200201930002008B5012144
:10661000FFF7BEFF064B1A78042A04D900221A702D
:106620000122044B1A700122034B1A7008BD00BFEF
:10663000183000205223002019300020012108B515
:10664000FFF7A6FF0A4B0B491A78092A9CBF0A22BA
:106650001A700022084B1A706923084A11F8010BBE
:10666000013B02F8010BF9D10322054B1A7008BD5A
:1066700018300020EC42010852230020E9220020BB
:10668000193000200021FFF783BF0181704700000F
:1066900008B508460BF0EEFDA622A0F10F03534308
:1066A000412293FBF2F3024A5833138008BD00BF26
:1066B0001A300020BA20FDF779B810B50446002240
:1066C0006160084640F2531100F0EBFD6068002263
:1066D000BDE8104040F2F31100F0E3BD40F2531367
:1066E000994210B5044610D1B2F80100A0F5B0707F
:1066F0000BF090FB4FF076510BF0E0FB0146A7202A
:10670000FDF76CF80123E37203E040F2F3139942C2
:10671000F8D010BD10B50446C07A10B90348FBF795
:10672000C9F800232073E37210BD00BF282C00209D
:1067300008B50248FBF7BEF808BD00BF282C0020B2
:1067400007B540F2EE22038940F21631934238BF7A
:1067500013460522ADF8002041F65832934228BF77
:1067600013460A229B01B3FBF2F3ADF8023000237B
:106770006A46019340680823FEF79EFC03B05DF86B
:1067800004FB000013B5154A0024137814498DF852
:106790000030144B01941B888DF80130C523ADF8EF
:1067A00002300B780133DBB2152B0CD80B7063B9B8
:1067B0001123137008236A4640F229314068FEF71E
:1067C0007BFC02B010BD0C70F2E7082B01D18623D0
:1067D000EFE70F2BEED1D923EBE700BF1E300020EF
:1067E0001F3000201A300020462313B5ADF80430C6
:1067F000002340688DF80630036840F23B415C6836
:1068000001AA0323A04702B010BD000007B50D4A3E
:1068100040F245511388406801339BB21380002237
:106820008DF801301B0A8DF80230074B8DF80020DF
:106830008DF8032001936A460823FEF73DFC03B060
:106840005DF804FB1C3000207E10001807B5D1B1A4
:1068500001291AD001310CBF072308238DF801301C
:106860004FF6FF738122ADF80230094B8DF80020FE
:1068700001936A46082340F23F414068FEF71CFC42
:1068800003B05DF804FB0623E8E70523E6E700BF55
:106890000080FFFF037B10B50446BBB1FFF750FF3C
:1068A0002046FFF76FFF2046FFF7B0FF2046FFF7B7
:1068B0009BFF0320FCF77AFF40B1AF20FCF760FF9D
:1068C00041B22046BDE81040FFF7C0BF10BD0181B6
:1068D00070477047BA20FCF769BF000008B5084B45
:1068E000186899889B792BB109F0BBFEB0FA80F04B
:1068F000400908BD09F0B5FE003818BF0120F8E7CF
:10690000282C002030B51F4A1F4B89B0CDE9012348
:106910001E491F4B1F4CCDE903131F4B1F4D059301
:106920000023ADF8193023784FF4B06163F07F0392
:106930008DF818302B68406820336B4413F81C2CFA
:106940008DF81B2013F8182C8DF81C2013F8142C2C
:106950008DF81D2013F8102C13F80C3C8DF81E2018
:106960008DF81F3006AA0823FEF7A6FB2B6801331B
:1069700003F003032B602378013303F00F0323702C
:1069800009B030BD0F287F281E1000107056F05639
:106990000C48A74820300020469028902430002042
:1069A00037B540F2EE2203890025934238BF1346E3
:1069B00041F65832934228BF1346044603819A0099
:1069C0009B09CDE900554FF420718DF803308DF807
:1069D000042008236A464068FEF76EFB08236A46D7
:1069E0004FF4227160688DF803508DF80450FEF763
:1069F00063FB03B030BD000008B5034BB3F90000E2
:106A00000BF008FA08BD00BF3430002008B5034B76
:106A1000B3F900000BF0FEF908BD00BF36300020CE
:106A200008B5024B18880BF0F1F908BD3A30002088
:106A300008B5034BB3F900000BF0ECF908BD00BF3B
:106A400038300020064B1A78064B0AB91A7001E05C
:106A5000012AFBD0044A126802B91A7018787047EC
:106A600030300020313000202C30002010B504469A
:106A70000022616008464FF4C87100F012FC002249
:106A80004FF4CD71606800F00CFC00224FF4D2711D
:106A9000606800F006FC60680022BDE810404FF41A
:106AA000D77100F0FEBB00002DE9F3410646084611
:106AB00034490BF003FA0BF0DDFB334B01B2A82095
:106AC0001980FCF77DFE8120FCF75AFE0546BC20AC
:106AD000FCF76CFE044618B16B1E5C425C41E4009E
