:020000040800F2
:1010000000500020EDFB0008E9FB0008E7FB0008AA
:10101000E7FB0008E7FB0008E7FB00080000000012
:10102000000000000000000000000000E9FB0008D4
:10103000E9FB000800000000E9FB0008E9FB0008EC
:10104000E7FB0008E7FB0008E7FB00085128000861
:10105000E7FB0008E7FB0008E7FB0008E7FB0008E8
:10106000E7FB0008E7FB0008E7FB0008E7FB0008D8
:10107000E7FB0008E7FB0008E7FB0008E7FB0008C8
:10108000E7FB0008E7FB0008E7FB00080D84000809
:10109000ED830008FD830008E7FB0008E7FB00087C
:1010A000E7FB0008E7FB0008E7FB0008E7FB000898
:1010B000E7FB0008E7FB000801280008E7FB000841
:1010C000E7FB0008E7FB0008E7FB0008E7FB000878
:1010D000E7FB0008E7FB0008E7FB0008E7FB000868
:1010E0000D280008E7FB0008E7FB0008E7FB000805
:1010F000E7FB0008E7FB0008E7FB0008E7FB000848
:10110000E7FB0008E7FB0008E7FB0008E7FB000837
:10111000E7FB0008E7FB0008E7FB0008E7FB000827
:10112000E7FB0008E7FB0008E7FB0008E7FB000817
:10113000E7FB0008E7FB0008E7FB0008398400082C
:101140001984000829840008E7FB0008E7FB000871
:1011500010B404466468084611461A46234610BC7B
:101160001847836818477047704770477047704743
:1011700041607047704770477047704770477047CD
:1011800070470020704700207047000000487047FB
:101190000000484200207047416070477047704728
:1011A0007047704770470020704741607047704734
:1011B0007047704770477047002070477047416024
:1011C00070470020704770477047704770477047FE
:1011D000002070477047416070477047002070479B
:1011E00070474160704770470846704770477047C6
:1011F0007047704700487047003C1C46416070478C
:10120000704770477047704770474160704770473C
:101210000020704700207047002070470020704772
:101220000020704770477047104B10B5186803686E
:101230001B6898470E4B186803681B6898470D4B4E
:10124000186803681B6898470B4B186803681B688D
:1012500098470A4B186803681B689847BDE8104018
:10126000074B186803689B68184700BF20000020E0
:101270001C00002014000020100000200C000020A2
:101280000400002010B5174C206803689B6998473C
:10129000052002F06DFA062818D8DFE800F0040AED
:1012A0000C0E1012200000220F4B1A700F4B2360FF
:1012B0000CE00F4BFBE70F4BF9E70F4BF7E70F4B3A
:1012C000F5E701220E4B23600E4B1A700E4C20687E
:1012D00006F04AF86068BDE8104006F045B80B4BD0
:1012E000E5E700BF140000207A29002058280020DC
:1012F000502800204828002078280020702800204E
:1013000030280020502900206C2900206828002067
:1013100010B5114C20680368DB699847042002F07F
:1013200027FA042806D8DFE800F003100E12140094
:101330000A4B23600A4C206806F016F86068BDE886
:10134000104006F011B8074BF3E7074BF1E7074BE6
:10135000EFE7074BEDE700BF1000002060280020FA
:101360006C29002028280020202800201828002090
:101370001028002010B5124C206803685B6898475D
:10138000062002F0F5F90138052815D8DFE800F04D
:10139000160E0E0310120B4B23600B4C206805F049
:1013A000E3FF6068BDE8104005F0DEBF074BF3E7E0
:1013B000074BF1E7074BEFE7074BEDE7074BEBE791
:1013C00008000020342600206C290020042600207C
:1013D000C82500207C2500205C2600203C2600201B
:1013E00010B50B4C206803685B689847492002F0F1
:1013F000BFF9084A084B012808BF13462360074C71
:10140000206805F0B1FF6068BDE8104005F0ACBF92
:101410000400002064250020742500206C29002091
:10142000022010B502F0A4F90138032815D8DFE82E
:1014300000F0020E10120A4B0A4C0B4A206813608F
:1014400005F092FF6068BDE8104005F08DBF074BC6
:10145000F2E7074BF0E7074BEEE7074BECE700BF7F
:10146000AC2600206C2900200C00002094260020CF
:1014700088260020A02600205825002010B5012035
:1014800002F076F909280FD8DFE800F0171C2B0EC0
:1014900005091F222528144B144A1A6004E0124A39
:1014A000134B136000229A72124C206805F05CFF07
:1014B0006068BDE8104005F057BF0B4A0C4B136045
:1014C0000122F0E7084B0C4AE7E7074B0B4AE4E739
:1014D000054B0B4AE1E7044B0A4ADEE7024B0A4A96
:1014E000DBE7014B094AD8E71C00002070260020EA
:1014F000E02800206C2900200C290020D42800209E
:10150000BC28002028290020F02800206426002084
:10151000036810B59B6898470FF0BEFC0024014695
:101520009A2002F045F92146952002F04FF9214614
:10153000962002F04BF92146982002F047F9214607
:10154000BDE81040992002F041B9000010B51C4CD4
:10155000206803689B6A9847002002F009F909286F
:101560000FD8DFE800F005080A0E271C2117292BE9
:10157000144B236005E0144BFBE71448206005F092
:101580007DF8134C206805F0EFFE6068BDE8104060
:1015900005F0EABE0D48206005F088F8F1E70B4839
:1015A000206005F045F8ECE70A4B012223600A4B66
:1015B0001A70E6E7094BDCE7094BF6E7094BD8E779
:1015C00020000020002800208028002098280020EB
:1015D0006C290020E0270020502900200828002046
:1015E000382500200825002010B5144C2068036819
:1015F0001B699847512002F0BBF8032805D8DFE8A3
:1016000000F0020D0F160E4B23600E4C206805F003
:10161000ABFE6068BDE8104005F0A6BE0A4BF3E7DC
:101620000A4B0B48196820600BF00EFAEDE7012217
:10163000084B2360084B1A70E7E700BF1800002032
:10164000D82700206C290020CC270020042500206A
:1016500078260020C027002050290020B42002F066
:101660009DB800002DE9F74F082002F081F8484CA2
:1016700054F820100920019102F07AF854F8206003
:101680000A2002F075F854F820500B2002F070F890
:1016900054F820A00C2002F06BF854F820B00D2074
:1016A00002F066F854F820900E2002F061F854F829
:1016B0002070102002F05CF854F82080112002F015
:1016C00057F854F8203001990093324B186803689A
:1016D000DB6A9847304B314618680368DB6B9847E4
:1016E0002E4B594618680368DB6998472C4B5146C6
:1016F000186803681B6A98472A4B494618680368AC
:101700001B699847284B4146186803685B699847EE
:10171000264B3146186803689B6998473946244828
:1017200009F0D4FF234B0099186803685B69984758
:10173000072002F01DF8012802D1284603F044FBDF
:10174000072002F015F8022802D1284609F068F9AE
:10175000072002F00DF8032802D1284609F094FB77
:10176000072002F005F8042802D128460DF04EF8B3
:10177000002240F20161606805F0D9FD002240F2CC
:101780000161206803B0BDE8F04F05F0D0BD00BF97
:101790006C290020200000201C00002014000020E4
:1017A0001000002008000020040000200C00002091
:1017B000602500201800002038B540F2DF73984201
:1017C00004460D4606D10A460146314809F086FF17
:1017D000002038BD072001F0CBFF012803D12946A6
:1017E000204603F0CFFB072001F0C2FF022803D1FF
:1017F0002946204609F054F9072001F0B9FF0328D3
:1018000003D12946204609F06FFB072001F0B0FF05
:10181000042803D1294620460DF01AF81D4B2A460C
:10182000186821460368DB6898471B4B2A461868EE
:10183000214603681B699847184B2A4618682146B9
:1018400003681B699847164B2A46186821460368A7
:101850001B699847134B2A461868214603681B6882
:101860009847114B2A461868214603681B68984719
:101870000E4B2A461868214603681B6998470C4B93
:101880002A461868214603681B689847A0E700BFEE
:1018900060250020200000201C00002014000020F3
:1018A0001000002008000020040000200C00002090
:1018B0001800002008B5034699889B7900682BB171
:1018C0000DF0DFFCB0FA80F0400908BD0DF0D9FC46
:1018D000003818BF0120F8E708B50248FFF7EAFF13
:1018E00008BD00BF7C2A0020818800680DF0C4BCC0
:1018F000818800680DF0C2BC2DE9F843A44BA54CCB
:10190000998818680DF0C0FC0DF0C8FCA24BA34EDE
:10191000186801F0FAFE0FF08FF8A1490FF094F962
:101920000146DE2001F052FF06F0E4FA0146812074
:1019300001F03EFF7F2001F01BFF21680546306863
:1019400006F044FF072001F013FF08B107F0F6F995
:101950003068944F03689B6A98470146B22001F0B3
:1019600027FF30680368DB6A98470146B02001F022
:101970002DFF07F015FA386803689B6898473068B0
:1019800003689B689847884B186803689B6898476A
:10199000864B18680368DB689847854B18680368AE
:1019A0001B699847206803689B689847814B1868B3
:1019B00003689B699847804B186805F023FD0CF07D
:1019C0002BFF7E4B1B780BB10BF0A6FDA92001F07D
:1019D000CFFE7B4C0028606A80F2A880FFF784FF6E
:1019E000E52001F0C5FE002800F0A380A92001F049
:1019F000BFFE022800F09D80A92001F0B9FE00285A
:101A000000F097806069FFF76FFFBB2001F0B0FE28
:101A1000002800F09280606CFFF766FF012D2069BE
:101A200040F08F80FFF760FF3868DFF89881036827
:101A30009B6998470146AA2001F0C8FE38680368F0
:101A40005B6998470146AB2001F0C0FE3868036827
:101A50005B6A98470EF0F0FF0146C02001F0B6FE29
:101A60003868594F0368DB6998470146892001F0BF
:101A7000ADFE306803685B6B98470146BF2001F0FC
:101A800097FE524BAD20196801F092FE504B1B7827
:101A9000012B03D0042B01D03B7823B1D8F80000F0
:101AA00003689B689847D8F80000DFF8289103681E
:101AB00099F800105B6998470646002844D0012D2C
:101AC0001EBF0122444B1A7001233B70A06A434B96
:101AD000984205D0FFF7EEFE0146D72001F068FEE0
:101AE0000BF0C8FC0BF0E2FC042D01D0012D7BD1E2
:101AF000AA2001F045FE0646DA2001F041FE01462B
:101B000030460FF0A9F990B3AA2001F039FE06463D
:101B1000752001F035FE31460FF080F948B3E06BD7
:101B2000FFF7E2FE206CFFF7DFFE63E0FFF7E0FE69
:101B300056E76069FFF7DCFE67E7606CFFF7D8FEE9
:101B40006CE7FFF7D5FE6FE73B7833B101468020A5
:101B500001F02EFE204B3E701E70D8F8000099F860
:101B6000001003689B6998471D4B1870AEE7DA2098
:101B7000CBE7752001F004FE1A490EF0A7FE3146AE
:101B80000FF06AF90028CDD0E06BFFF7B1FEC9E78E
:101B90003C2B00200C0000207C2900201C00002091
:101BA0000000204120000020140000200800002038
:101BB000040000201800002068290020502900207F
:101BC000682F002010000020792900209C2D002083
:101BD00066290020642900207A2900206C2A002030
:101BE000532900200000A040E06BFFF781FE206C2D
:101BF000FFF77EFE002001F0BBFD092816D1012D64
:101C000014D1A92001F0B4FD094B0A4C1A68824294
:101C100009D005221860226007480CF0C9FD23682E
:101C2000013B236002E02368002BF5DCBDE8F8836C
:101C300000250020FC240020082500202DE9F74F76
:101C4000A02001F095FD81467F2001F091FD044622
:101C5000A92001F08DFD07460DF0F4FC06F016F901
:101C6000834BDFF81082186803685B6898477F2011
:101C700001F07EFD0128054640F0D6800FFA89F973
:101C800089EAE970A0EBE97080B206F071FF0021EB
:101C900006460FF0C3F898B1002001F069FD042852
:101CA0000ED0232001F064FD002840F0B780B9F188
:101CB000000FB8BF4FF0FF35BD4218BF06F1004618
:101CC00038460EF0B9FE31460EF00AFF0546D8F848
:101CD000000003685B689847D8F80000294603684D
:101CE000654E1B699847B82001F058FD002840F068
:101CF0009F80306AFFF7FCFDD8F800005F4F036853
:101D00001B6A98470FF0C8F805B22946A02001F0D9
:101D10004FFD082001F02CFD594B53F8200006F030
:101D20004FFC012C01D0042C08D1386885EAE571FC
:101D30000368A1EBE5719B6989B29847D7F80090D9
:101D4000AA20D9F80030D3F81CA001F019FD0146F3
:101D50004846D047386803685B689847494B18681D
:101D60000368DB689847484B186803685B689847C6
:101D7000042C67D1454B186803685B689847284670
:101D800006F0A2FD8146A42001F0F2FC8346182053
:101D900001F0EEFC8246392001F0F2FC019029208E
:101DA00001F0EEFC49460FF057F84946B0FA80F5CD
:101DB00001980FF03DF8B0FA80F06D094009ED0090
:101DC000D34545EA80054FF08600D4BF4FF0000BA5
:101DD0004FF0010B01F0D4FC8146282001F0D0FC2B
:101DE000014648460FF038F845EA8B15002808BF31
:101DF00045F001058220294601F0DAFC172001F0A8
:101E0000B7FCDFF88C900190042C00F2AD80DFE885
:101E100014F04100FD01C200C101DC01B9F1000F65
:101E2000A8BF4FF0FF3547E706F070FF002553E7E6
:101E3000B52001F0B3FC00287FF45BAF306AFFF7F8
:101E400053FD59E7052001F093FC032804D10F4B03
:101E5000186803685B689847012C90D1DD2001F079
:101E600087FC411C01F00F01DD2001F0A1FC86E799
:101E70001000002020000020682F00201C000020FF
:101E80006C290020040000200C0000201400002019
:101E9000180000204FF00008B04BDFF8C4B2B14882
:101EA00083F800808BF80080FFF722FDB069FFF710
:101EB0001FFD0221A92001F07BFC3868DFF8A8A2F1
:101EC00003685B6998478AF80080DFF8A082B8F859
:101ED0000030002B54D1A648FFF70AFDF069FFF748
:101EE00007FDA448FFF704FDBF2001F041FC0028D6
:101EF0004DD1A14B1B78002B49D1B06CFFF7F8FCFA
:101F000015F0410F01D0019BCBB1386803689B6B82
:101F10009847A0B1386803685B6B984778B1B06C9C
:101F2000FFF7E2FC01238AF800308BF80030192318
:101F3000A8F800300DF086FB0224904B18608E4B01
:101F40001B786BB115F0480F0AD11923A8F800309F
:101F50000DF078FB894B0224186001237F4A13702F
:101F600021467F2001F024FCF068FFF7C1FC00222D
:101F7000D9F80000114603682546DB68984798E0C9
:101F8000013B9BB2A8F80030002BADD1A3E7B06CA9
:101F9000FFF7AAFCB4E7DFF8E0B19BF80030002BB4
:101FA00040F0B580D8F80020754B9A4202D06D48B9
:101FB000FFF79AFCF069DFF8B481FFF795FCB06990
:101FC000FFF792FCB8F80030002B40F0AD80694874
:101FD000FFF78AFCDFF890A19AF800305BB115F0AA
:101FE000450108D1192384208AF80010A8F8003090
:101FF000012401F0DDFB9BF800306BB115F04C01C2
:102000000AD14FF4FA73C822A8F800305D4B84203F
:102010001A80042401F0CCFB504B1B7823B19BF8B1
:102020000030002B08BF00244D4D2B78002B40F0D2
:102030008380022C17D10DF005FB0746152001F017
:1020400097FB4E4B1B6803449F420CD9019B002B0E
:102050007BD02B78002B78D000238AF8003019230E
:102060000124A8F8003021467F2001F0A1FB012CBB
:102070007FF47AAF522001F07BFB012805467FF404
:1020800073AFF068FFF730FCD9F800003E490368F1
:102090009B689847D9F8006053203368DF6801F0E7
:1020A00067FB0446D72001F079FBA1B20246304617
:1020B000B847072001F05CFB022808D10A2001F094
:1020C00057FB324B53F82010284608F0FBFC072042
:1020D00001F04EFB032808D10A2001F049FB2B4BED
:1020E00053F82010284608F03BFF072001F040FB82
:1020F000042840F0BA800A2001F03AFB234B53F841
:102100002010284603B0BDE8F04F0CF0A9BB072013
:1021100001F02EFB00287FF44DAFD8F800201C4BB7
:102120009A427FF447AF42E7013B9BB2A8F80030E8
:10213000002B7FF44FAF4AE7386803685B6B984722
:1021400000287FF476AF00248DE70A48FFF7D0FB24
:102150000A2005F0A1FE032485E700BF51290020D5
:1021600052290020F42A00205429002024000020B5
:10217000442B0020FC2A00207A290020F82400208B
:10218000082800203C290020000048426C2900203B
:10219000802800200022364B36481A70FFF7A8FB33
:1021A000354B1B7823B1354B1B78002B08BF00241F
:1021B000334B1B78002B3FF4D3AE386803685B6B5E
:1021C0009847002808BF0024CAE62E4D2B8863B923
:1021D0002D48FFF789FB294B2C4A1B789BB91388A4
:1021E0005BB9FA2300242B8004E0013B9BB22B80D7
:1021F000002BEDD005F072FEB2E6013B9BB21380DE
:10220000002BF7D1EDE7C8231380F3E71D4D2B8892
:1022100013BB1D48FFF768FB1D48FFF765FB7F20D8
:10222000012101F0C5FA05F059FE386803685B6BBF
:10223000984700287FF417AFA02001F099FA0028F2
:102240004FF0A0000EDA01F093FA404263283FF706
:102250000AAFFA232B8076E7013B9BB22B80002B41
:10226000DDD1D6E701F084FAF0E703B0BDE8F08FE6
:1022700054290020FC2A0020512900207A2900201E
:102280005229002024000020442B00203C2900205B
:10229000F42A00202DE9F0477F2001F069FA054675
:1022A0009C4BDFF8748218680368DB689847042D3C
:1022B00004D1D8F800000368DB68984706F0FCFDFD
:1022C000964BDFF85CA21968D220DFF8589201F033
:1022D0006FFAD320DAF8001001F06AFAD420D9F8A6
:1022E000001001F065FA904B904E1968D520904F80
:1022F00001F05EFAD620318801F05AFA3B788D4C15
:10230000022B32D18C4B1B787BBB042D1DD1DFF807
:102310002CA2DFF82C92DAF80030002B44D10023F5
:102320005B20237001F024FA4FF496735843CAF8E7
:102330000000D9F80030B3F5967F16D10023C9F814
:1023400000303388013B33800FE07E4ADAF80030FA
:1023500012789A4226D17C4AD9F8003012789A42F3
:1023600020D13388F3B1012323703B783BBB724B00
:102370001B780BB9012323706E2001F0F9F90128B5
:1023800021D1702001F0F4F9704B8146586802F0B9
:10239000C4F806460146DF2001F00AFAB1452CDAFE
:1023A000002331E00023DFE7D9F80020013B0132B0
:1023B000CAF80030C9F80020002BBAD1AFE7012BD2
:1023C000DAD10023D7E76F2001F0D2F90128D8D065
:1023D000D8F800005E4A036812785B692178984754
:1023E00008B1012D12D15B4B1E78AEB93146802069
:1023F00001F0DEF9584B1E700EE03B78012BE7D15F
:102400004D4A1278002AE3D12370E1E70121524BB3
:102410008020197001F0CCF9504E3378022B07D18F
:102420004C4B1B7823B14E4B18680368DB68984708
:102430003378012B02D9033B012B0AD8484F386867
:102440000368DB68984733781BB938680368DB6832
:102450009847042D3CD13F4B1E78002E33D1852068
:1024600001F086F905463E2001F082F98542A1BFC0
:102470000122314B26701A703A4B186803689B682A
:10248000984700210EF0C0FC68B1374A1368002B52
:10249000DFBF002301212370274BCEBF03F1FF33A1
:1024A00019700A231360314B586B314B98420AD094
:1024B000FFF700FA38B1E42001F05AF918B9012207
:1024C0001D4B20701A70294B986BFFF711FA56E0DC
:1024D000012DF8D10022184B6E201A7001F048F936
:1024E000022847D1712001F043F90646722001F01D
:1024F0003FF9164B0546986802F00FF8014604466E
:10250000E02001F055F9AE423BDCA642DBDCA542FF
:1025100035DA3AE01C000020140000204C2900208D
:10252000482900204429002040290020602900205B
:102530006529002064290020782900205C290020DA
:102540005829002063290020622900205C2F0020E8
:1025500053290020792900207A29002066290020AB
:10256000100000200800002000000020682F00203C
:102570006C2A00206F2001F0FBF80228B2D0BDE8E1
:10258000F087A6429FDBA542F9DD024B986BFFF76F
:10259000ABF9F4E7682F0020FEE700000C2838B5FF
:1025A00010D80C2819D8DFE810F0D000D300E500CF
:1025B0001800D900D600DF001800E800E800E800A5
:1025C000E800E800512800F0CC8000F2B2803C28FE
:1025D00000F0DB80492800F0CA80232001F0C8F811
:1025E00040B1002001F0C4F8082803D000212320C6
:1025F00001F0DEF8182001F0BBF8664D664C28604B
:10260000192001F0B5F820601A2001F0B1F86860D7
:102610001B2001F0ADF860601C2001F0B1F85F4DA7
:102620005F4C28601D2001F0ABF82060332001F0E2
:10263000A7F85C4B2168186028680EF0EFFB50B1DA
:1026400059491C202960594D256001F0BFF82946E1
:102650001D2001F0BBF81E2001F092F8544B554CA0
:1026600018602E2001F08CF8534B18602F2001F0D9
:1026700087F8524B1860312001F082F8504B1860F7
:10268000262001F075F84F4B1860202001F078F8F3
:102690004D4B1860242001F073F84C4B186030202B
:1026A00001F06EF84A4B18601F2001F069F8494BA1
:1026B0001860052001F05CF8042001F059F8464B41
:1026C00018702378012B22D1582001F051F8434B88
:1026D0001860572001F04CF8414B1860562001F06B
:1026E00047F8404B1860552001F042F83E4B186007
:1026F000592001F03DF83D4B18705A2001F038F890
:102700003B4B18705B2001F033F83A4B18804520A2
:1027100001F02EF820705B2001F02AF84FF4967338
:102720005843354B186008F011F9BDE8384008F0FF
:102730004BB9682805D865287FF64FAF00F034FE06
:102740004BE778380428F9D947E7FEF7FFFE44E75E
:10275000FEF794FE41E7FEF795FD3EE7FEF7D8FD54
:102760003BE7FEF741FF38E7FEF704FE35E7FEF7EB
:1027700037FE32E7FEF754FE2FE7204C206804F0C6
:10278000F3FD606804F0F0FD27E704F0D9FB04F0E6
:10279000C5FB22E7942D00208C2D0020882D0020E1
:1027A000842D00204C2D00200080BB440000C84236
:1027B000802D002065290020782D0020702D00201C
:1027C0006C2D0020502D0020682D0020642D00204D
:1027D000742D00207C2D0020662900204029002037
:1027E00044290020482900204C290020632900208A
:1027F00062290020602900205C2900206C2900202B
:10280000014B186800F04ABF7C29002000B589B050
:1028100003A804F015FC28B1DDF815300193DDF8AC
:102820001930029304F087FB4FF400400CF0E8FBF2
:102830000499A1F58473012B05D8044B01AA1868EB
:1028400003681B69984709B05DF804FB100000207D
:1028500008B500200CF032FF104B1A6801323B2AF9
:102860001A600F4A05D911680131116019683C39A5
:10287000196013683B2B0B4B05D91968013119609E
:1028800011683C3911601A68172A06D906490A6886
:1028900001320A601A68183A1A6008BD40290020FF
:1028A00044290020482900204C290020F0B5ADF62D
:1028B0008C2D00F0BFFB00F0EDFC0022C349C448A2
:1028C00001F06CFE0122C149C24801F067FE0122FD
:1028D000C149C24801F062FE0222BC49C04801F071
:1028E0005DFE0322B949BF4801F058FE0522B749F1
:1028F000BD4801F053FE0422B449BC4801F04EFE2D
:102900000B22B249BA4801F049FE04232022B949FA
:10291000B94801F0B0FB04238022B649B74801F062
:10292000AAFB04234FF40042B549B64801F0A3FBCB
:1029300004231022A849B44801F09DFB0423082277
:10294000A549B24801F097FB0125072380229F4942
:10295000AF4801F090FB07230422AE49AE4801F0D6
:102960008AFB07234FF40042A249AC4801F083FBE5
:1029700007234FF480429F49A94801F07CFB0723BD
:102980004FF400529B49A74801F075FB07234FF411
:1029900000729849A44801F06EFB07234FF480723F
:1029A0009449A24801F067FB07234FF480629149E4
:1029B0009F4801F060FB07234FF400628D499D485A
:1029C00001F059FB0723402280499B4801F053FB4B
:1029D00007234FF480728A49984801F04CFB072383
:1029E0004FF400727949964801F045FB07234FF4F4
:1029F00080727649934801F03EFB07234FF48052E2
:102A00007C49914801F037FB0523082281498F4812
:102A100001F031FB052310227E498D4801F02BFB8C
:102A2000052320227B498B4801F025FB0723402208
:102A30007849894801F01FFB072308226D49874820
:102A400001F019FB072304226A49854801F013FBB2
:102A500007234FF480526049824801F00CFB0723A2
:102A60004FF480426B49804801F005FB07230122A7
:102A700059497E4801F0FFFA0723802260497C48CB
:102A800001F0F9FA072340225D497A4801F0F3FA90
:102A9000042340225749784801F0EDFA042310221C
:102AA0005449764801F0E7FA0023802259497448D6
:102AB00001F0E1FA01F0C2FC72494FF000700CF035
:102AC000D1FB00F075FB00F0A5FB05F0B0F900F0BC
:102AD00011FB00F03DFB00F067FCE620FFF75EFD18
:102AE0005648FEF705FF6048FEF702FFC4AC00231E
:102AF000654A6649009539A800F00AFF0DF26C5747
:102B0000002302222046624905F0C8FB02226149E7
:102B10002B46384605F0C2FB5F4B0F2004935F4BFA
:102B20005F4E05935F4B069300F022FE2A46002875
:102B300014BF394621460DF5F96005F0F3F80DF59F
:102B4000F962214619A808F09FFE032119A808F090
:102B5000B7FE204604A9C6E9004704F0D9FB04A942
:102B6000384604F0D5FB504B0DF5F9621A604F4B17
:102B70000A201A6000F0FCFD56F820700E2000F0CC
:102B8000F7FD07AC56F82010494808F09FFD04F007
:102B9000D7F904F0C3F94FF496424649204609F0AC
:102BA000C9FD454B1C600FACFEF7D0FCFEF766FC80
:102BB000FEF768FBFEF7ACFBFEF7DCFBFEF714FD4F
:102BC000FEF70EFCFEF72CFC78E000BF0010014081
:102BD000902B00208C2B0020000C0140882B002023
:102BE000842B0020802B00207C2B0020782B0020C1
:102BF000742B0020001401406C2B0020642B00205B
:102C0000000801405C2B0020542B00204C2B00209E
:102C1000442B0020001801403C2B0020342B0020C6
:102C20002C2B0020242B00201C2B0020142B0020F8
:102C30000C2B0020042B0020FC2A0020F42A00206A
:102C4000EC2A0020E42A0020DC2A0020D42A0020DC
:102C5000CC2A0020C42A0020BC2A0020B42A00204C
:102C6000AC2A0020A42A00209C2A0020942A0020BC
:102C70008C2A0020842A00207C2A0020742A00202C
:102C80006C2A0020C0004000BC2A01080048004017
:102C90000064004000680040CC100108B91700082B
:102CA0006C29002065160008D02E0020682900201D
:102CB0006025002000380140042500201C492046E2
:102CC00000F096FC1B4B2A4620461B491C6000F076
:102CD000AFFC0A222046194900F0AAFC64222046D3
:102CE000174900F0A5FCC8222046164900F0A0FCB8
:102CF000772000F03DFDA84202D1384602F0C6F828
:102D000004217E2000F054FD00217F2000F050FDC2
:102D10004FF0000439A88DF80F4000F0B3FF1E9B60
:102D2000002BF7D10DF10F011AA806F09FFAF1E779
:102D3000000800407C290020291200083D1C0008E2
:102D4000F91800089522000810B50024624B634A68
:102D50001C741A60624B634A1C721A60DC721C732A
:102D6000614A624B62481A601C72DC721C73614AD1
:102D7000614B1A60614B624A1A6007F0DDFD614BDE
:102D8000614A1C621A601C77604A614B61481A6094
:102D9000614B624A1A60624B624A1A60624B634A34
:102DA0001A60634B634A1A60634B644A1A60644B4F
:102DB000644A1A60644B654A1A60654B654A5C75E3
:102DC0001A60DC82644A654B1A60654B654A1A607A
:102DD000654B664A1A60664B664A1A60664B674ADC
:102DE0001A60674B674A1A6004F076FA664B674AC6
:102DF00067481A6007F0D2FB664B674A67491A605A
:102E0000674B684A68481A60684B694A1A60694BA0
:102E1000694A1A60694B6A4A1A606A4B6A4A1A60C0
:102E20006A4B6B4A1C721A606A4B6B4A1A606B4B96
:102E30006B4A1A606B4B6C4A1A606C4A6C4BC2E965
:102E4000024413600023136153619361D361694AA3
:102E50001160694A6949C2E904441160C2E9064443
:102E6000136253629362D3626549664A1160664990
:102E7000C2E90244C2E904441483D3611362536279
:102E80009362D362136353639163604A6049C2E9FA
:102E9000044411605F49D3609361D3611484536229
:102EA0009362D362136353639363D3631364536472
:102EB00093649160584B594A1A60594B594A1C7394
:102EC0001A60594B594A1A6009F02EFCBDE81040AF
:102ED00057480BF061BC00BF28290020343301089B
:102EE0000C290020502B0108882C0108F028002014
:102EF000BC2800207C2E0108E0280020D4280020D7
:102F0000C42E010898280020102D0108AC300108BB
:102F100080280020E0270020782800200C320108BB
:102F2000702800203832010868280020CC330108BE
:102F30006028002000110108582800202C110108E9
:102F40005028002064320108482800206031010820
:102F500030280020C832010810310108282800203C
:102F600020280020E430010818280020A0330108A0
:102F7000102800202C350108082800200C2F0108FB
:102F800000280020DC110108D82700205811010872
:102F9000CC270020C0270020843601080436010811
:102FA000B8270020B811010838250020AC260020E1
:102FB0007C330108A0260020E0350108942600207B
:102FC0008434010888260020A834010878260020CF
:102FD00060340108702600201412010864260020C5
:102FE000203601085C2600207C1101083C260020C8
:102FF000AC3201083426002004260020903201085B
:1030000068360108C82500200000FA437C2500200E
:10301000B03601080000C84274250020981101084C
:10302000642500201433010858250020DC10010815
:103030000825002008B50CF03FFA02200CF014FA25
:103040004FF0E0232A4A40F20230C3F80C2D0CF076
:1030500077FA40F203300CF073FA4FF441700CF041
:103060006FFA40F205300CF06BFA40F206300CF0CB
:1030700067FA40F292300CF063FA40F291300CF0B3
:103080005FFA40F20E300CF05BFA40F20B300CF0BD
:1030900057FA4FF460700CF053FA40F281300CF0A4
:1030A0004FFA40F282300CF04BFA4FF420700CF0E3
:1030B00047FA40F209300CF043FA40F286200CF057
:1030C0003FFA4FF440700CF03BFA40F299300CF0AC
:1030D00037FA40F29A300CF033FA40F28E300CF0AE
:1030E0002FFABDE8084040F28F300CF029BA00BF3B
:1030F0000003FA0573B50024134D23462246202110
:103100002846CDE900440CF04FFB214628460CF040
:1031100043FB0E4E28460CF031FB28460CF037FBE3
:1031200030464FF42043022203210CF06BF8304666
:103130004FF48043012221460CF064F8284602B087
:10314000BDE870400CF00EBB00380040000C0140A0
:1031500073B50024144D4FF080514FF000700CF007
:1031600081F82346224620212846CDE900440CF070
:103170001BFB0E4E28460CF001FB28460CF007FB0B
:1031800030464FF4A053022203210CF03BF83046A6
:103190004FF40063012221460CF034F8284602B0B7
:1031A000BDE870400CF0DEBA003C00400010014069
:1031B00010B5164C04232046022203210CF022F8FD
:1031C0000823012220460021A4F544440CF01AF8FB
:1031D00020460F490CF0A6FC204608210CF0B6FC56
:1031E000204600210CF0BBFC20460C210CF0C3FC57
:1031F000204600210CF0B9FC204600210CF0C1FC57
:103200002046BDE810400CF0C2BC00BF00080140E1
:1032100020A1070008B511200CF054FDF021112069
:103220000CF05CFD10200CF04DFDF02110200CF096
:1032300055FD1E200CF046FD00211E200CF04EFD19
:1032400014200CF03FFDE02114200CF047FD13206A
:103250000CF038FDE02113200CF040FD28200CF08C
:1032600031FD4FF400400BF0BDFE01214FF4004052
:103270000BF094FE06494FF400400BF0C7FE03200C
:103280000CF020FDBDE80840202103200CF026BDF5
:103290000018014008B54FF2234103200CF048FA12
:1032A00000200CF0D9F900200CF008FABDE8084025
:1032B00000200CF0E1B90000022210B5174C1146B5
:1032C0004FF4007316480BF09DFF20460CF0B4FA43
:1032D00000232022194620460CF087FA20462021A0
:1032E0000CF0AFFA0722204600210CF0AEFA0021C4
:1032F00020460CF0AFFB20460CF006FC20464FF4B5
:10330000C87200210CF0F0FB20464FF488610CF0ED
:103310009AFA2046BDE810400CF089BA002C014012
:103320000018014008B5022303211A461D480BF07E
:1033300069FF4FF080400CF07FFA00234FF080408F
:103340001A4619460CF051FA00214FF080400CF05B
:1033500078FA4FF080400CF051FA4FF080400CF0BA
:1033600061FA8F214FF080400CF06DFA02214FF08E
:1033700080400CF094FB062202214FF080400CF0BC
:1033800064FA02214FF080400CF064FB4FF0804063
:10339000482202210CF0A8FBBDE808404FF0804015
:1033A0000CF045BA00080140682038B500F0E0F99B
:1033B000132808D102220123114687480BF022FF6F
:1033C000002425460DE0682000F0D2F9142840F0D2
:1033D00092800222012311467F480BF013FF002444
:1033E0000125672000F0C4F9132840F099800222DB
:1033F0008023114679480BF005FF662000F0B8F9EC
:10340000132840F0AE8002224023114673480BF08F
:10341000F9FE73480CF010FA002171480CF0F3F932
:103420006F480CF0EBF9062200216D480CF00DFA04
:10343000062202216A480CF008FA06220421684894
:103440000CF003FA002166480CF0C5FA022164482A
:103450000CF0C1FA042162480CF0BDFA002160486A
:103460000CF0D3FA02215E480CF0CFFA04215C483C
:103470000CF0CBFA00215A480CF0ECFA0221584823
:103480000CF0E8FA042156480CF0E4FA002D40F064
:103490008980002C40F08680792000F069F901468F
:1034A0004F480CF0D0F97A2000F062F9214602462C
:1034B0004B480CF019FB7B2000F05AF90221024620
:1034C00047480CF011FB7C2000F052F90421024621
:1034D00043480CF009FB012141480CF01AFB78200D
:1034E00000F046F901463E480CF0ABF9BDE8384023
:1034F0003B480CF09CB9682000F03AF9152808D137
:1035000002220123114634480BF07CFE01240025E1
:1035100067E7072301223049324800F0ACFD4FE74E
:10352000672000F025F9142807D1022280231146D4
:103530002A480BF067FE01255FE7672000F018F9C5
:10354000152807D102228023114624480BF05AFE89
:10355000012452E7072380222049234800F08BFDF5
:103560004BE7662000F004F9142807D1022240231B
:1035700011461A480BF046FE01254AE7662000F086
:10358000F7F8152807D102224023114613480BF003
:1035900039FE01243DE7072340221049134800F07B
:1035A0006AFD36E741F68C110D480CF04CF901220A
:1035B00000210B480CF098FA0122022108480CF077
:1035C00093FA0122042106480CF08EFA01210448E6
:1035D0000CF09FFA0A2186E7000C01400008014028
:1035E00000040040942A00208C2A0020842A002015
:1035F00038B50C460546016208460CF0FFF8204637
:103600000CF00BF9084B20461968084BB1FBF3F19D
:1036100001390CF016F920464FF6FF710CF013F942
:10362000002328466B6238BDC4230020A086010019
:10363000F8B5436A0446032B0E4615462ADC006A99
:103640000CF0FAF8144F636A0122F95C206A0CF05E
:10365000FCF8636A0022F95C206A0CF045FA02214A
:10366000636A05EB850505EB850503F10802AD00EE
:1036700044F82360994024F81250206A0CF0A8F80E
:103680000021206A0CF04BFA206A0CF0D0F8636A33
:1036900001336362F8BD00BF541201082DE9F843FD
:1036A000044600254FF0020800F11006636A206A04
:1036B000AB4208FA05F70ADC3946206A0CF092F8AA
:1036C0000135042D06F10206F0D1BDE8F883394634
:1036D0000CF082F8A8B1206A0CF01FFA236A318836
:1036E000343353F8252081460A4443F8252054F802
:1036F00025309847206A0CF010FAA0EB09003081C1
:10370000DAE7636AAB42DBDCD6E7002170B500F193
:103710000E03446A4FF47A7508468C4200DC70BD93
:103720005A8933F8026F6A43B2FBF6F20131104452
:10373000F3E7000010B51C24084A04FB0022D468FB
:103740008C4209DC12698A4206DB054A42F82010E5
:10375000FEF724FF002010BDFF20FCE7C00300207F
:1037600028000020014B53F820007047280000205B
:10377000024B53F820004011704700BF2800002082
:1037800008B5054B53F820000DF056F94FF0745171
:103790000DF0A6F908BD00BF28000020034B53F828
:1037A00020004011431E5842584170472800002015
:1037B000024B490143F82010704700BF2800002049
:1037C000014B43F8201070472800002010B5044634
:1037D00008464FF084410DF083F90DF05DFB024B7C
:1037E00043F8240010BD00BF2800002070B5064635
:1037F0000024074D3146686800F098FB08B9E0B234
:1038000070BD0134E62C05F11C05F3D1E720F7E784
:10381000C00300200023064A118B814201D1D8B297
:1038200070470133E62B02F11C02F5D1E720704707
:10383000C00300201C22024B02FB0030704700BF77
:10384000C00300200023064A0649108B10B15069BE
:1038500041F823000133E62B02F11C02F5D1704739
:10386000C003002028000020014B1954704700BFFE
:1038700080290020024B1A5C11431954704700BF85
:1038800080290020024A135C23EA01031354704785
:1038900080290020014B185C704700BF8029002060
:1038A0001C22024B02FB0033987E7047C0030020AD
:1038B00000487047146A0300024B1A68024BC3F8B1
:1038C000242E7047B8220020C003002020218068E9
:1038D0000CF083B980680CF078B910B504464368E1
:1038E000597A58680BF031FB636804F12A02597A5F
:1038F00058680BF03CFB63688022597A58680BF0DB
:1039000046FB6368BDE81040597A58680BF014BB59
:1039100070B5026140F201120D464C49828201608D
:1039200001210022817580F8281004460421C0E995
:10393000062280F8202042629DF81020856080F8E1
:103940002920434A0373426062681068A84206D186
:10395000404A146062683BB9D068138A06E01C32A2
:1039600001396260F0D1F3E75069138B0222032121
:103970000BF048FC28464FF4E1310CF0D3F8284610
:1039800008210CF0E3F828464FF400510CF0E7F85A
:1039900028460C210CF0EFF8284600210CF0E5F841
:1039A000002128460CF0EDF828460CF000F92846D6
:1039B0000CF002F963682E1D197A58680BF052FA60
:1039C0006368197A58680BF0AEFA63683246197A60
:1039D00058680BF0C3FA63680022197A58680BF034
:1039E00077FA63680022197A58680BF065FA636801
:1039F000197A58680BF078FA6368597A58680BF0AE
:103A000031FA63683246597A58680BF0A7FA63684E
:103A10000022597A58680BF05BFA63680022597AE1
:103A200058680BF049FA6368597A58680BF05CFAE9
:103A300063685868597A0BF07FFA2046FFF74DFF0C
:103A400028460CF0A4F8204670BD00BF482A0108A3
:103A50004C2A0108682A002038B5437D0D460469C8
:103A60001BB90024204638BD0834216821B12846FE
:103A700000F05CFA0028F7D12368002BF2D1F0E7C0
:103A800038B504460D4663680222197A58680BF06F
:103A9000FEF918B994F82830002BF4D06368197A2D
:103AA00058680BF052FA6368AAB2197A58680BF09A
:103AB0006EFA94F82020636804EBC212197A5868F1
:103AC000AA320BF054FA63680222197A58680BF094
:103AD000D9F96368197A58680BF02EFA94F82030F7
:103AE000B3FA83F35B0984F82030002384F828308C
:103AF00038BD837D10B50A46044623B9BDE81040A1
:103B000080680CF049B894F82030406ADB01234407
:103B100003440A2A00F1010183F8AA2001D07F287A
:103B200005D12046FFF7ACFF0023636210BD616240
:103B3000FCE7802A30B428BF80220C460021914245
:103B400002D130BCFFF79CBF90F82030655C00EBE1
:103B5000C3130B4483F8AA500131F0E738B505468A
:103B600008460C4600F0F9F9214602462846BDE811
:103B70003840FFF7DEBF000010B50446084600F0ED
:103B80003FFA00F024FA237D227B8342636811D13F
:103B9000012161755AB158691B8B032102220BF078
:103BA00031FB2046BDE810400949FFF7D7BFD86870
:103BB0001B8AF2E7002161753AB158691B8B01221B
:103BC000BDE8104000210BF01DBBD8681B8AF6E74A
:103BD0005823010830B5044685B0084600F010FAB5
:103BE0000378302B26D0322B144D18BF4FF46125AB
:103BF000637DA3B10A22294601A800F0BDF9204641
:103C00000F49FFF7ABFF20460E49FFF7A7FF2046FD
:103C100001A9FFF7A3FF20460B49FFF79FFF2946A5
:103C2000A0680BF07FFF0021A06805B0BDE8304020
:103C30000BF095BF4FF4E135DAE700BF10552200D5
:103C4000572301085D230108DD29010810B504464A
:103C5000084600F0D5F9037823B1303B18BF0123A3
:103C600084F8293094F829302BB104492046BDE866
:103C70001040FFF773BF0249F8E700BF6C2301084B
:103C8000762301082DE9F04143680446597A5868C3
:103C90000BF076F90546C0F1800710B92046FFF712
:103CA0001CFE94F82930A06813B1E369BB4254DBD1
:103CB00008210BF092FF10B1A0680BF086FF002FD7
:103CC00040F39280651B95F8A9300A2B01D00D2B8B
:103CD00077D16368597A58680BF037F9012F37D0DC
:103CE0000022E31904F12A0683F82A202021304615
:103CF000E26100F039F990F800800546B8F1000F54
:103D000033D10A21304600F02FF9054684F8AA8104
:103D10002B7823B90D21304600F026F90546002303
:103D200030462B703149A36100F000F918BB2046E2
:103D300004F5D571FFF720FF0027A369BBB3A06886
:103D40000BF047FFA36920465B6804F5D5719847DF
:103D50002046BDE8F041FFF7C0BD5A1CE261234494
:103D600093F82A100BF018FF9BE7411C04F5D5705F
:103D700000F0EAF8CCE730461D4900F0D7F828B942
:103D8000204604F5D571FFF725FFD5E730461949E0
:103D900000F0CCF828B9204604F5D571FFF756FF9E
:103DA000CAE731462046FFF757FEA061C5E7012F5D
:103DB000CEDD637D002BCBD020460F49FFF7CEFE32
:103DC000C6E794F82A30212B0ED1A36963B12046AF
:103DD000FFF783FD0023E361A369204604F5D57155
:103DE0005B68BDE8F0411847BDE8F0818123010818
:103DF0008C230108952301089A230108034BC1B2C3
:103E00001B681A6818461268104700BF682A00200D
:103E100004F08CB807B50749D1F8F027D1F8EC3792
:103E2000D1F8E8170091044900F0FAFA03B05DF800
:103E300004FB00BF00F0FF1FB523010805F016BA10
:103E4000F7B5144800F0DAFA134800F0D7FA002565
:103E5000124FEEB23046FFF7EDFC04463046FFF756
:103E60001FFD68B93046FFF715FDC3070DD4636920
:103E7000384600936168D4E9032300F0BFFA04E0F8
:103E80003046FFF70DFD0128ECD00135E62DE0D1DD
:103E900003B0F0BDBE230108D5230108F1230108BA
:103EA000F8B50C4900F0BCFA00240B4FE6B23046DE
:103EB000FFF7C0FC05463046FFF7ECFCC30704D40F
:103EC000D5E90112384600F099FA0134E62CEDD11B
:103ED000F8BD00BF04240108262401082DE9F041A3
:103EE000054600240A4FE6B23046FFF7A3FCD0F89F
:103EF00004803046FFF736FC01340346424639461B
:103F0000284600F08DFAE62CEDD1BDE8F08100BF27
:103F10003024010810B50446FFF794FC2046BDE8A4
:103F20001040014900F07CBA39240108431E0139D0
:103F300013F8010F11F8012F10B10AB19042F7D018
:103F4000801A18BF01207047013911F8013F0BB9E1
:103F50000370704700F8013BF7E7034600201A5C46
:103F600002B970470130FAE70346184613F8012BEF
:103F70000AB18A42F9D17047002970B518DA2D23A9
:103F8000012400F8013B4942034691FBF2F602FB93
:103F9000161130311970311E1D4603F10103F4DC96
:103FA00000221A70024695420AD8241A181904E011
:103FB00004D1302341700370012070BD0024E3E779
:103FC00011782E7802F8016B05F80119EBE730B58E
:103FD00003782D2B11D14FF0FF34013000210A2539
:103FE000431E01E005FB012113F8012F303AD0B246
:103FF0000928F7D904FB01F030BD0124EEE70000E9
:1040000010B5134C014610F8012BA2F10A03DBB2E4
:10401000162B19D824FA03F3DA07F3D40846FFF76E
:104020009CFF01380844814204460AD223780138B3
:104030000A3BDBB2162B04D8054A22FA03F3DB074E
:10404000F1D40023637001E0002AE7D1084610BDD7
:1040500009004000002310B5934200D110BD51F873
:10406000234040F823400133F6E7013A00D270477D
:1040700040F8041BF9E72DE9F04117468280002241
:10408000013B0E4601608271082B0BD8DFE803F07C
:10409000080E0C17151A052624000024032513E02A
:1040A0000123837102240BE0012383710224002584
:1040B000394630460BF0E0F806E001238371012415
:1040C000002501E0002425463B462246294630468D
:1040D000BDE8F0410BF096B80224DFE70124032588
:1040E000E6E770B50C1EACBF01234FF0FF335C4315
:1040F0000133064608BF2D234FF0640208BF06F8BF
:10410000013B611104F01F040546544330460A2266
:10411000FFF732FF2E226411092C3254D8BF30220F
:1041200006EB0003D8BF5A7021464FF00A02CCBFFD
:10413000581C981CFFF720FF284670BDF0B5037887
:104140002D2B17D14FF0FF36013000244FF00A0C11
:1041500002E018460CFB0454034613F8012BA2F1AD
:104160003005EFB2092FF4D9AAB98C40144406FBEC
:1041700004F0F0BD0126E8E78B4003EB650393FBF9
:10418000F5F30CFB05F51A4410F8013F303BDFB2A4
:10419000092FF1D9E9E70A250022AC46F4E72DE919
:1041A000F047141E05460F4616DC4FF02008DB07CB
:1041B00020D50026B94626E00132B95C0029FBD1A2
:1041C000A242ACBF0C46A41A13F0020F14BF4FF06A
:1041D00030084FF02008EAE70022EEE72B68494656
:1041E00028461B689847013E002EF7DC24EAE47657
:1041F000A41BDFE726465FFA88F9F5E72B68284617
:104200001B689847D146CA461AF8011B0029F5D108
:10421000A2465FFA88F8BAF1000F06DCF01B4844AA
:10422000002CA8BF0019BDE8F0872B68414628463E
:104230001B6898470AF1FF3AEDE72DE9FF4707466B
:10424000DDE90C8A15461C4651B930234246ADF8CB
:10425000003069465346FFF7A2FF04B0BDE8F0877F
:1042600023B10A2A2DD100292BDA494200230E9AC4
:104270008DF80D303A3A0DF10D03B1FBF5F005FB69
:104280001016092E88BFB61830368D4203F1FF395B
:1042900003F8016C17D964B1B8F1000F16D01AF009
:1042A000020F13D03B682D2138461B68984708F150
:1042B000FF385346424649463846FFF770FF2044D0
:1042C000CBE70024D2E701464B46D6E72D22002457
:1042D00009F8012CA3F10209EBE70846FFF78EBDB0
:1042E0002DE9F04107460E46144600254FF00A0816
:1042F0008CB033781BB928460CB0BDE8F081252B73
:1043000072D17378002BF6D0252B06F101026AD00A
:104310002D2B0ABF01230023B21C164612F8011BE5
:10432000302915D00022304610F8011BA1F1300CC5
:104330005FFA8CFEBEF1090F0DD966293FD00ED869
:10434000632947D064291AD058292ED00136D0E7E6
:1043500043F00203E1E7064608FB02C2E3E77529E2
:1043600026D0782919D07329F0D121682248043445
:10437000002908BF01463846FFF711FF0BE0612016
:104380002146CDE90130012300920A22384609680E
:104390000434FFF752FF0544D8E721466120CDE9F8
:1043A0000130009200231022F0E721464120F6E779
:1043B00061202146CDE9013000920023E5E7216824
:1043C00008A8CDE904230434FFF78BFEDDE90423BC
:1043D00008A9D0E7216804348DF81C1000218DF85D
:1043E0001D1007A9C7E716463B6838461B68317899
:1043F00098470135AAE700BF932401080FB407B519
:1044000004AA52F8041B054B6846CDE90032FFF7B9
:1044100067FF03B05DF804EB04B07047442B01085C
:104420000EB403B503AA52F8041B0192FFF758FF1C
:1044300002B05DF804EB03B07047000038B52A4CB9
:104440002A4D20460AF0A2FA20460AF0A4FA204695
:104450000AF0ABFA20460AF0A3FA012120460AF03E
:1044600080FA20460AF044FA20460AF05DFA204617
:104470000AF06DFA1E4A082120460AF09BFA2046EF
:104480000AF0D0FA20464FF460210AF043FA284699
:104490000121184A0AF062FD28460121164A0AF055
:1044A00066FD28464FF4807201210AF011FD28466E
:1044B0004FF4806201210AF0FFFC602228460121AE
:1044C0000AF065FD284601210AF00EFD284601216B
:1044D0000AF013FD284601210AF02EFD2046BDE812
:1044E00038400AF095BA00BF0024014000000240A5
:1044F000542C00204C240140942B0020884205DDE0
:10450000914208DC9042A8BF10467047904203DCFD
:104510009142A8BF11460846704737B56D460468FA
:1045200004F13003F03433F8102C33F8201C33F846
:10453000300CFFF7E3FF3033A34225F8020BF2D132
:10454000BDF80230BDF800001844BDF8043018442E
:10455000BDF806301844C0F38F0003B030BD000032
:1045600008B50D4B98420BD003F5806398420BD0F1
:10457000A3F5006398420BD1072909DCC8B208BD36
:10458000012905DC0831F9E7052901DC0A31F5E7E5
:104590000AF0B6F91020F2E7000C0140012370B5D3
:1045A00093400C4615460022064611469BB2204613
:1045B0000AF028FE29462046FFF7D2FF3368034A57
:1045C0009B1A034AC3F34F03D05470BD942B0020B1
:1045D000542C00200D4B0E4A991C13600D4A11609B
:1045E0000D4A191D11600D4A991D11600C4A03F105
:1045F000080111600B4A03F10A0111600A4A03F134
:104600000C011160094A0E3313607047942B00208F
:10461000902B00208C2B0020882B0020842B002046
:10462000802B00207C2B0020782B0020742B002076
:10463000114A124B30B553F8213052F82140194637
:10464000A342A8BF2146026802F1C8058D4206DBDD
:10465000A342B8BF234603F1C804A24202DD0160B1
:10466000002030BD8A4202DA01600120F9E79A4257
:10467000FBDD0360F9E700BF942D00208C2D0020A6
:10468000012970B516D80C4B53F821500B4B53F839
:104690002160B5420ED0401B0CF0CEF90446701BD1
:1046A0000CF0CAF9014620460CF0CEFA04490CF091
:1046B00017FA70BD0020FCE7942D00208C2D0020FF
:1046C0000000C842F8B5264B04461D68014628463E
:1046D0000CF0C2FB00B12546224B29461C6820463F
:1046E0000CF09CFB00B12C461F4D21462E68304635
:1046F0000CF09EFB98B1002120460CF0ADFB60B1A0
:104700001A4B304619680CF0E3F8214606460CF0C7
:10471000A3FB00B1264634461EE0154BF1E7002707
:10472000204639460CF08EFBB0B9394630460CF0C5
:1047300093FB00B12F602E68214630460CF06EFBD3
:1047400050B90B4B304619680CF0C0F821460646AC
:104750000CF064FB0028DED020462C60F8BD00BFC2
:10476000782D0020702D0020402D0020642D002089
:10477000682D0020F8B5054684200F461646FEF742
:10478000F7FF3946044628460CF052FBE8B94FF0D3
:10479000804138460CF09CF829460CF05DFBB0B126
:1047A000A1B2842041F01001FFF702F8114C3568E6
:1047B000002128460CF046FB58B1214628460CF053
:1047C0002DFB00B925462F460BE00B4CEFE70024EC
:1047D000EDE704F10047394628460CF03DFB002880
:1047E000F1D12046044937600CF018FB003818BF9F
:1047F0000120F8BD000048420000C8422DE9F843FE
:10480000064628200C46FEF7BBFF2F4FDFF8BC8082
:1048100038602920FEF7B4FFC8F800008420FEF7B6
:10482000A7FF4FF6FC75D7F80090054000214846D9
:104830000CF012FBE0B1002130680CF003FB244FB8
:1048400020B3494620460CF041F822490CF048F9C3
:10485000002104460CF0E2FA00B100243C60376805
:10486000214638460CF0F8FA40B145F001053460B5
:104870002946BDE8F8438420FEF79ABF2146384612
:104880000CF0CCFA0028F2D03C46F0E72046D8F8ED
:1048900000100CF01BF80F490CF022F9002104461F
:1048A0000CF0DAFA00B100243C6037682146384643
:1048B0000CF0B4FA10B145F00205D8E721463846AD
:1048C0000CF0CAFADEE700BF602D00205C2D00204E
:1048D000482D0020000060402DE9F8430D46354C7E
:1048E0003549064620680CF0FBF829460BF0F0FF2E
:1048F0004FF076510CF0F4F820602A20FEF740FFCC
:104900002E4FDFF8BC8038602B20FEF739FFC8F847
:1049100000008420FEF72CFF4FF6F375D7F80090C7
:104920000540002148460CF097FAD0B100213068CC
:104930000CF088FA2468234F08B3214648460BF050
:10494000C5FF002104460CF069FA00B100243C6068
:104950003768214638460CF07FFA40B145F008052B
:1049600034602946BDE8F8438420FEF721BF214684
:1049700038460CF053FA0028F2D03C46F0E72046C7
:10498000D8F800100BF0A4FF002104460CF064FAE4
:1049900000B100243C603768214638460CF03EFAEE
:1049A00010B145F00405DBE7214638460CF054FA17
:1049B000E1E700BF602C002000007041542D002072
:1049C000582D0020442D0020104B70B51A68066841
:1049D00001EB0214A41A24110546002130461C6084
:1049E0000CF03AFA88B10A4B1B681B1B48BF033313
:1049F0009B1023EAE3700CF01FF804460146304692
:104A00000CF02AFA00B126462E6070BD5C2C002006
:104A1000502D0020F8B50D4A054613780C4F013390
:104A2000DBB2322B28BF00230A4E386856F8231019
:104A300013701C460BF04AFF29460BF049FF06494C
:104A4000386046F824500CF0FFF8F8BD642C0020C4
:104A5000302D0020682C002000004842000000009B
:104A60002DE9F74F0646A02091468846FEF780FEC6
:104A70000446A920FEF77CFE074684EAE470A0EB1A
:104A8000E4700BF0D9FFDFF8F8B10446DBF8005012
:104A900029460BF01BFF002101900CF0BFF9019B90
:104AA00008B103F10043774A1946D2F800A05046F6
:104AB0000CF0B4F950B1294620460CF0CDF951461E
:104AC00000283DD028460BF003FF0446CBF80040F9
:104AD000002F00F0CF8020460CF0DEF90546B9F13A
:104AE000000F31D0632840F3C5800BF0A5FF664B63
:104AF0000646D3F8008041460CF090F9002840F0BB
:104B0000B980624B30461F68614B39461C680CF017
:104B100085F988B140460CF0BFF9064620460CF0F6
:104B2000BBF9AD1B454338460CF0B6F9801B95FB2D
:104B3000F0F00BF081FF0446204603B0BDE8F08F93
:104B400028460BF0C3FEC0E741463046FFF798FD0C
:104B5000504B04461E68014630460CF07DF9002893
:104B600076D1314620460BF0B1FE314604464A4824
:104B70000BF0ACFE014648480CF066F821460BF0FD
:104B8000AFFF0646454B30461E60FFF743FF014628
:104B9000044630460BF09AFE414980460CF03EF93F
:104BA00030B94FF07E5140460CF056F900B9264618
:104BB000632D4FDD28460BF03FFF334B8046D3F883
:104BC00000A051460CF02AF9002843D12F4B404653
:104BD000D3F80090334B49461C680CF01FF998B18C
:104BE00050460CF059F9804620460CF055F9A5EBDB
:104BF0000805454348460CF04FF9A0EB080095FB2B
:104C0000F0F00BF019FF0446274D012F2C6023D143
:104C1000204626490BF064FF04462449244B1868BB
:104C20000BF05EFF21460BF051FE31460BF058FFB2
:104C300019490CF009F821460BF04AFE0BF040FB35
:104C40000DA3D3E900230BF093FB0BF0EBFD72E710
:104C5000002697E70024D7E72720FEF789FD08B94B
:104C600000232B60114928680BF03AFF0F490446D6
:104C7000104BD4E700245FE79A9999999999B93F25
:104C80003C2D00204C2D0020842D0020882D00205C
:104C90007C2D00206C2D00200000C842342D002007
:104CA000000080BF802D0020382D00200000204112
:104CB000782D0020742D00202DE9F341DFF8748059
:104CC00005462C201E460C461746CDF80480FEF7FC
:104CD00057FD01AA01463846FFF74CFD2D20FEF78F
:104CE0004FFD01AA01463046FFF744FD294601A8C1
:104CF000FFF784FD214601A8FFF7EEFD089901A802
:104D0000FFF762FE414601980BF09EFF4FF07E5187
:104D100004460CF0A1F848B9002120460CF07EF8BA
:104D200000B10024204602B0BDE8F0814FF07E546F
:104D3000F8E700BF0000C842F7B51E461C4B054609
:104D40002C2001930C461746FEF71AFD01AA0146D6
:104D50003846FFF70FFD2D20FEF712FD01AA014690
:104D60003046FFF707FD294601A8FFF747FD21461A
:104D700001A8FFF7B1FD089901A8FFF725FE0198EA
:104D80000C4900F100400BF05FFF4FF07E510446EC
:104D90000CF062F840B9002120460CF03FF800B159
:104DA0000024204603B0F0BD4FF07E54F9E700BF69
:104DB0000000C8C20000C842024B00BF013BFCD14A
:104DC000704700BF00127A0010B50446002240F27E
:104DD000215102F0ACFA002240F22251204602F0AA
:104DE000A6FA002240F22351204602F0A0FA002247
:104DF00040F22451204602F09AFA002240F2255156
:104E0000204602F094FA002240F22651204602F099
:104E10008EFA002240F22751204602F088FA2046FE
:104E2000BDE8104000224FF4A56102F080BA0000F6
:104E3000002313B5054A40F21141CDE90023036870
:104E40006A465C680823A04702B010BD3400010028
:104E50003222002313B5CDE9002303686A465C685B
:104E600040F211410823A04702B010BD002313B542
:104E7000054A40F21141CDE9002303686A465C68A7
:104E80000823A04702B010BD340101002DE9F7430B
:104E90000026174B04461E702025FFF7C9FF4FF070
:104EA0004209FFF789FF4FF4C848236801966A4614
:104EB00040F2114120465F688DF8005008238DF8BC
:104EC0000190ADF802800135B847EDB22046FFF7FA
:104ED00073FFFFF7BDFFFFF76FFF292DE5D12046D8
:104EE000FFF7C4FFFFF768FF03B0BDE8F08300BF22
:104EF000E81C0020D0F80220014B1A60704700BF68
:104F0000B82D0020D0F80220014B1A60704700BF76
:104F1000A82D0020D0F80220014B1A60704700BF76
:104F2000A42D0020D0F80220014B1A60704700BF6A
:104F3000A02D0020054A1388013313800A22D0F8DF
:104F4000023093FBF2F3024A13607047BC2D00203D
:104F50009C2D0020D0F80220014B1A60704700BF42
:104F6000B02D0020D0F80220014B1A60704700BF1E
:104F7000B42D0020D0F80220014B1A60704700BF0A
:104F8000AC2D002003466FF4A46213440846072B9F
:104F900015D8DFE803F00406080A0C0E1012FFF71C
:104FA000A9BFFFF7AFBFFFF7B5BFFFF7BBBFFFF765
:104FB000C1BFFFF7CFBFFFF7D5BFFFF7DBBF70471C
:104FC0000161704741617047007A7047007A70470D
:104FD0000023C372704710B5044600226160084682
:104FE0004FF4987102F0A3F900224FF43F7160680A
:104FF00002F09DF900224FF49061606802F097F989
:1050000060680022BDE810404FF4D07102F08FB903
:105010002DE9F0410025BCB00F46F02268460F494B
:105020000BF0DAFF6C461426A84620680BF004FD4E
:1050300039460BF0FDFE08B1D4E90185013E04F1CB
:105040000C04F2D141467320FEF7B2FB29467420CE
:105050003CB0BDE8F041FEF7ABBB00BF902B0108B0
:1050600010B404686468A44610BC6047037E73B53E
:105070000446002B50D0A920FEF77AFB324B0028C3
:105080004CD10321314A20731170E1221A701B7830
:105090002F4D8DF800300C238DF801308F238DF8C3
:1050A00002302B7860688DF80330F0238DF80430DF
:1050B00003686A464FF4E9715E680523B0472B78B0
:1050C0003B201033DBB2ED2B08BF0D232B70FEF716
:1050D0004FFB204BC0B21A78824215D04FF40952D0
:1050E000ADF8002000228DF802204FF0FF3201922F
:1050F00030BB30228DF8032018706A46082340F236
:1051000092516068FFF7ACFF236894201D6AFEF798
:1051100037FB01462046A84702B070BD421C06D1AD
:10512000012202212273094A1170D222AEE701281E
:10513000ADD1032208212273044A11707822A5E719
:105140000828D9D13122D5E7EE1C0020ED1C002023
:10515000C42D0020BE2D00200B7803F00103437204
:105160000B78C3F3800303720B78C3F300138372CD
:105170008B78C3F3C0034376704700000000000043
:1051800008B54B7808781B0203F4706318440BF0E1
:1051900085F809A3D3E900230BF0EAF80BF042FBF2
:1051A00007490BF09DFCBDE808400146A120FEF731
:1051B0000DBB00BFAFF300809A9999999999B93FB7
:1051C0002B121F3F0B78842B03D10121E420FEF723
:1051D000EFBA812B01D10021F8E770474B78323BC1
:1051E00018BF0123037670470B46B3F53F7F114686
:1051F0000FD006DCB3F5987F07D0B3F5D07F06D08B
:105200007047B3F5906F06D07047FFF7A5BFFFF763
:10521000B7BFFFF7D7BFFFF7E1BF000003682DE975
:10522000F74F5B6B04460D469847644E002800F02C
:10523000BE80A020FEF79CFA40F2ED23984240F396
:10524000B380A020FEF794FA800080B20721942357
:10525000327842F0500200278DF80120AA328DF8F2
:10526000021011448DF806300B44ADF8040003EB36
:105270001023C0B203449AB202EB2323AA216A4648
:1052800060688DF8003008238DF807708DF8037082
:10529000FFF7E6FEBD420CBF04226422DFF820A126
:1052A0004FF00F0B9AF80000DFF8189100F5FC732F
:1052B000D11801EB11238DF800304EF22103ADF827
:1052C000023041F62173A8218DF80100ADF80430B9
:1052D000606808238DF807206A46DFF8EC808DF8B7
:1052E00006B0FFF7BDFE99F800306A468DF8003031
:1052F00098F80030A9218DF801304DF67973ADF89A
:105300000230324B606801930823FFF7A9FE304D4D
:10531000304B297818788DF8061043188DF8000066
:10532000FF2003F5E47202EB1223BA216A468DF8DE
:1053300001008DF8053060680723ADF802B08DF8E4
:105340000470FFF78DFE33782349013333700B78F7
:10535000224A01330B709AF80030287801338AF81A
:10536000003099F800300130013389F8003098F8A6
:1053700000302870013388F8003013780133DBB235
:105380005C2B13700DD1BE230B70E92389F800301C
:105390004D231370802337708AF8007088F80070EE
:1053A0002B7003B0BDE8F08F40F6B8304EE732788E
:1053B000FE21842342F030024DE700BFBF2D0020C4
:1053C000C12D0020EB1C0020C02D00201DC7E021B6
:1053D000E91C0020ED1C0020EC1C0020EA1C002031
:1053E000037E10B5044643B1B520FEF7D7F9014658
:1053F0002046BDE81040FFF711BF10BD73B506464B
:105400007F20FEF7B5F9012815BF00239C231A461B
:105410009E224FF08E0014BF1D4660258DF804308B
:105420008DF80520FEF7ACF9014622480BF04EFA44
:10543000214904460BF010FD002836D120460BF020
:105440002BFD64234FF4FA72434393FBF2F303F111
:1054500032000BF0F1FA19490BF03AFA3C23184CE0
:105460008DF800300BF03EFD23786A461D43C323C0
:105470008DF8033048F2CD234FF4E8718DF8010028
:10548000ADF80630706808238DF80250FFF7E8FD8C
:105490000C4A217813788B4209D10133DBB20F2BF0
:1054A00008BF0023237002B070BD0748D6E7117013
:1054B000F9E700BF0000C84200400344000040423A
:1054C000C32D0020C22D002000001643037E73B5BB
:1054D0000446A3B148F261230093C37A63B903255C
:1054E00060686A46036840F232315E680223B04762
:1054F000013DF5D10123E3722046FFF77FFF02B0A3
:1055000070BD0161704741617047007A7047007A51
:1055100070470023C372704710B5044600226160D3
:1055200008464FF4987101F002FF00224FF43F71DA
:10553000606801F0FCFE00224FF49061606801F0A9
:10554000F6FE00224FF4D071606801F0F0FE606852
:105550000022BDE8104040F2FE3101F0E8BE00003C
:105560002DE9F0472A4D0E460024AA4628680BF084
:1055700063FA3146A1460746D5F8088001340BF09E
:1055800057FC00283DD040460BF056FA3146804685
:105590000BF058FC002834D00AEBC909D9F80400F4
:1055A0000BF04AFA05460AEBC40460680BF044FAB3
:1055B00029460BF08BF93946044630460BF086F944
:1055C0003946064640460BF081F9014630460BF05D
:1055D0003BFB014620460BF083FA29460BF078F995
:1055E0004FF07C510BF074F90BF056FC0446214649
:1055F0007320FEF7DDF82146BDE8F0477420FEF782
:10560000D7B8072C05F10805B0D1FF24EFE700BF9C
:10561000C82C0108037E73B50446002B50D0A92086
:10562000FEF7A6F8324B00284CD10321314A2073F3
:105630001170E1221A701B782F4D8DF800300C2369
:105640008DF801308F238DF802302B7860688DF84B
:105650000330F0238DF8043003686A464FF4E97193
:105660005E680523B0472B783B201033DBB2ED2B6F
:1056700008BF0D232B70FEF77BF8204BC0B21A78C1
:10568000824215D04FF40952ADF8002000228DF867
:1056900002204FF0FF32019230BB30228DF8032000
:1056A00018706A46082340F292516068FFF7D8FCF0
:1056B000236894201D6AFEF763F801462046A84738
:1056C00002B070BD421C06D1012202212273094A98
:1056D0001170D222AEE70128ADD103220821227336
:1056E000044A11707822A5E70828D9D13122D5E7DC
:1056F000F41C0020F31C0020D22D0020CC2D002013
:105700000B7803F0010343720B78C3F38003037239
:105710000B78C3F3001383728B78C3F3C003437613
:10572000704700000000000008B54B7808781B02A5
:1057300003F4706318440AF0B1FD07A3D3E9002312
:105740000AF016FE0BF06EF8BDE808400146A120F5
:10575000FEF73CB8AFF300809A9999999999B93FAF
:1057600010B50B780C46842B0BD10121E420FEF7F9
:105770001FF86178E520BDE8104001F00101FEF757
:1057800017B8812BF5D10021F0E74B78323B18BFD9
:1057900001230376704708B5B1F900000BF04CF90E
:1057A0004FF074510BF09CF9BDE808400146A3206E
:1057B000FEF70CB80978BB208B1E59425941FDF702
:1057C000F7BF0B46B3F53F7F114615D008DCB3F5A4
:1057D000987F0DD0B3F5D07F0CD0B62B10D070478A
:1057E00040F2FE3293420DD0B3F5906F06D0704771
:1057F000FFF786BFFFF798BFFFF7B2BFFFF7C5BF40
:10580000FFF7C9BFFFF7D6BF03682DE9F74F5B6B02
:1058100004460D469847644E002800F0BE80A02044
:10582000FDF7A6FF40F2ED23984240F3B380A0209D
:10583000FDF79EFF800080B207219423327842F06A
:10584000500200278DF80120AA328DF80210114471
:105850008DF806300B44ADF8040003EB1023C0B202
:1058600003449AB202EB2323AA216A4660688DF8AA
:10587000003008238DF807708DF80370FFF7F0FBF8
:10588000BD420CBF04226422DFF820A14FF00F0BB1
:105890009AF80000DFF8189100F5FC73D11801EBBD
:1058A00011238DF800304EF22103ADF8023041F69D
:1058B0002173A8218DF80100ADF804306068082339
:1058C0008DF807206A46DFF8EC808DF806B0FFF708
:1058D000C7FB99F800306A468DF8003098F8003020
:1058E000A9218DF801304DF67973ADF80230324BB5
:1058F000606801930823FFF7B3FB304D304B2978E4
:1059000018788DF8061043188DF80000FF2003F575
:10591000E47202EB1223BA216A468DF801008DF879
:10592000053060680723ADF802B08DF80470FFF70A
:1059300097FB33782349013333700B78224A0133C4
:105940000B709AF80030287801338AF8003099F803
:1059500000300130013389F8003098F800302870A9
:10596000013388F8003013780133DBB25C2B1370FD
:105970000DD1BE230B70E92389F800304D2313703D
:10598000802337708AF8007088F800702B7003B09D
:10599000BDE8F08F40F6B8304EE73278FE21842320
:1059A00042F030024DE700BFCD2D0020CF2D00206A
:1059B000F11C0020CE2D00201DC7E021EF1C00208F
:1059C000F31C0020F21C0020F01C0020037E10B508
:1059D000044643B1B520FDF7E1FE01462046BDE88F
:1059E0001040FFF711BF10BD2DE9F3470746AA206D
:1059F000FDF7C6FE0446AB20FDF7C2FE4D49054645
:105A000020460AF065FF002104460BF007FA002843
:105A10007ED1204648490BF01FFA00287AD1204653
:105A20000BF060FAC6B2434928460AF051FF002144
:105A300004460BF0F3F900286ED120463E490BF0E6
:105A40000BFA00286AD120460BF04CFAC5B27F2031
:105A5000FDF78EFE01284FF00004DFF8E08061D1F1
:105A60003D20FDF78DFE36490BF0EEF882468A2088
:105A7000FDF786FE214681460BF0D0F900284FD075
:105A8000304909F100400BF02BF851460BF0DCF8DF
:105A90002D490BF025F8D8F800100AF019FF4FF047
:105AA0008F4104460BF0CEF928B120464FF08F41CC
:105AB0000AF00CFF04462046C8F800400BF012FA2A
:105AC0006023ADF80400214C4FF4E8712278786827
:105AD00013438DF80230C3238DF8033049F2CD63B0
:105AE0006A46ADF8063008238DF800608DF8015045
:105AF000FFF7B6FA164A217813788B4218D1013392
:105B0000DBB20F2B08BF0023237002B0BDE8F08783
:105B1000002688E7CF2686E7002598E7CF2596E779
:105B20002046B2E70023C8F80040ADF80430CAE7C9
:105B30001170EAE70000404200004F43C82D0020EA
:105B400000007C425304E93700247449D12D002021
:105B5000D02D0020037E73B50446A3B148F2612323
:105B60000093C37A63B9032560686A46036840F20C
:105B700032315E680223B047013DF5D10123E37263
:105B80002046FFF731FF02B070BD4069704708B58D
:105B9000B0F908000AF050FF08BD08B5B0F90C00D4
:105BA0000AF04AFF08BD0000014B1878704700BF9B
:105BB000642E00200000000038B51D48FEF7ADFC43
:105BC00005461C48FEF7A9FC044628460AF066FB79
:105BD00013A3D3E900230AF0CBFB13A3D3E90023DB
:105BE0000AF010FA0AF01EFE054620460AF056FB9F
:105BF0000BA3D3E900230AF0BBFB0BA3D3E90023DB
:105C00000AF000FA0AF00EFE0446014628460BF0A0
:105C100023F900B12C46204638BD00BFAFF3008009
:105C20001213371BE91495BF988F7B2556484C40BB
:105C30007C2B0020782B002070B506460D461A4CB0
:105C40000721204609F00EF920460721174A09F0DE
:105C500085F932462046072109F089F9AAB2204683
:105C6000072109F094F92046072109F05CF9204644
:105C7000072109F039F920460022072109F028F907
:105C800020460022072109F017F920464FF48052E0
:105C9000072109F005F92046072109F04DF9BDE873
:105CA0007040034809F088BF0000024004440040EF
:105CB0000044004038B50546194C0621204609F03D
:105CC000D1F820460621174A09F048F92046062156
:105CD000154A09F04CF9AAB22046062109F057F9F5
:105CE0002046062109F016F92046062109F0FCF8A5
:105CF00020460022062109F0EBF82046002206216A
:105D000009F0DAF820460022062109F0C9F82046F9
:105D1000062109F011F9BDE83840044809F047BFF1
:105D20000000024004440040D32D00200044004005
:105D300038B504463420FDF71BFD00B20228E0818F
:105D40001ED1344D344A2B78002B33D141F65831D3
:105D5000B4F90C00884201DD0121117011782F4A3D
:105D60008B4249D0012313702D4B93F900002D4B2A
:105D700010B91878013018701878042823D1E181FF
:105D8000B4F90E30012B08D12748FBF7B1FD2748A5
:105D9000FBF7AEFD2648FBF7ABFDB4F90E30C3B9F7
:105DA0002148FBF7A5FD2148FBF79EFD2048FBF7A6
:105DB0009BFD0EE0012BD1D1B4F90C10B1F5FA6FB7
:105DC000CCDA0021C9E7052803D129700021197018
:105DD0001170B4F90E30032B0DD1A920FDF7C8FCCA
:105DE000013011480CD1FBF783FD1048FBF77CFD17
:105DF0000F48FBF779FD38BDE38100231370BFE73F
:105E0000FBF776FD0948FBF773FD0948FBF770FDCA
:105E1000F1E700BF612E0020602E0020632E0020DD
:105E2000622E00205F2E0020DC2A0020EC2A0020B9
:105E3000E42A0020000000002DE9F84F054612205A
:105E40000F46FDF795FC8C4BC4B21B78012B40F03C
:105E5000B9802846FFF76CFF384688490AF040FEB3
:105E600087490AF0F1FE0BF017F8864EDFF818822A
:105E700096F900A0A8F8000050460AF0DDFD39466A
:105E80000AF02EFE0AF01CFA79A3D3E900230AF0E7
:105E90006FFA0AF0C7FC7D4907460AF021FE7849EF
:105EA0000AF0D2FE0AF0F8FF794BDFF8E8911A7891
:105EB0002862A9F80000D2B1BAF1000F1BDD24203E
:105EC000FDF75EFC834696F900000AF0B5FD7249C5
:105ED000824658460AF004FE014650460AF0F6FC97
:105EE0000AF0DAFF40B20028694B2CDB307096F9DB
:105EF0000020632A29DDB5F90E30002B3CD10021AA
:105F000038460AF08BFF002836D0B9F900000AF0B5
:105F1000C5F90022614B0AF02BFA0AF03BFCA9F804
:105F20000000B8F900000AF0B9F900225B4B0AF052
:105F30001FFA0AF02FFCA8F80000032C2AD8DFE88B
:105F400004F021262430002232701B78002BD2D19D
:105F50002420FDF715FC824696F900000AF06CFD3E
:105F600051460AF0B5FC0AF097FF40B26428CABF58
:105F7000642330703370BEE7032C0BD8DFE804F0E5
:105F80000207050C2B6A002B04DA3F4B00E0414B63
:105F900000221A80BDE8F88F384641490AF05CFFBC
:105FA00018B90023A8F80030F4E738460AF074FF67
:105FB00041F2171332385843322390FBF3F0A8F81C
:105FC0000000E7E7022B1ED1304938460AF088FD71
:105FD0002B490AF039FE0AF05FFF2E4A03B2138004
:105FE00013EB8303284948BF03339B1028620B80BF
:105FF0000CB90028C8E7012C02D100231380C9E79F
:10600000022CC7D1C1E7032BC4D1204938460AF07E
:1060100067FD1B490AF018FE0AF03EFF1D4A03B255
:10602000138013EB8303286248BF0333164D9B1084
:106030002B80032CAED801A353F824F0F35F0008A3
:106040008F5F00088B5F00084D60000838461449D8
:106050000AF002FF08B928809CE738460AF01CFFC6
:1060600041F2171332385843322390FBF3F0F2E732
:106070007B14AE47E17A843F6F2E002000B888453C
:106080000000C842622E0020682E002000C05A4541
:10609000632E0020662E00200000A0400000E03F9C
:1060A0000000484210B57F20FDF762FB08B902F0FE
:1060B000A9FF7F20FDF75CFB012842D12148FBF7B7
:1060C000F9FB0146BC20FDF773FB1F48FBF7F2FB11
:1060D0000146BD20FDF76CFB1C48FBF7EBFB0146BE
:1060E000BE20FDF765FB1948FBF7E4FB04461648A4
:1060F000FBF7E0FB84F0010380F001046400114829
:1061000044EA8304FBF7D6FB64B280F0010044EA62
:1061100000035BB20E4C062B237003D10021C1207B
:10612000FDF746FB2378052B03D10121C120FDF7A4
:106130003FFB3520FDF71CFBBDE8104080B202F0AC
:1061400061BF10BDD42A0020CC2A0020C42A002020
:106150006A2E0020034B1B78012B01D1FFF7A2BF51
:10616000704700BF6F2E002000220B4870B5134609
:1061700005468C1E944209DC294411F8012C285D47
:1061800040EA0220C31A5842584170BD10F8016B12
:10619000013233449BB2EDE7D32D0020002070B5CF
:1061A000084C034622468D1E854205DC53550A44A1
:1061B0001B0A02F8013C70BD14F8016B0130334436
:1061C0009BB2F1E727220020F8B5B64D04462B78A4
:1061D0000E2B3ED8DFE813F00F0016003B003E0008
:1061E0007600BB00BD00DC00DE000A0180018C01EE
:1061F000A501A701D1016420FFF75CFDAA48FBF7C8
:1062000077FB1EE0A94CA848FBF76EFB23787BB90F
:1062100002220721A64808F03AFE90B10721022287
:10622000A34808F02FFE5021A248FFF705FD08E023
:106230005021A148FFF700FDA04B5B7823B9012353
:1062400023702B78013303E02378013BF8E7032325
:106250002B70F8BD6421FFF787FF984E984F38B92F
:106260000021B1206181A1813970FDF7A1FA23E0FD
:10627000022206218E4808F00AFE0028F0D00222F1
:1062800006218B4808F0FEFD01233B70B6F8523022
:10629000053B03EBD3735B10238196F92A000AF0C8
:1062A000CBFB606196F956000AF0C6FBF388A0614B
:1062B0006381B6F81F30A381002386F8623086F828
:1062C0006330BEE77F4EA220B6F90010FDF770FAEA
:1062D0006189A289774B0A44712112B292FBF1F2D3
:1062E00079491A70B1F900200978880083F84B00C9
:1062F00090115242C2F307229A711A7332884942AE
:10630000120ADA7683F82120782283F83F20EC22E3
:1063100083F840206C2283F841206B22C9B2597166
:10632000D972317883F84C00997683F82010204692
:10633000502183F84220FFF731FF644A1388642B11
:106340008EBF002301339BB21380002380E77820A7
:1063500052E7564C5448FBF7C7FA2378052B0ED961
:1063600002220721524808F092FD00283FF469AF4D
:10637000072102224E4808F085FD642154E764217C
:10638000534801FB0300FFF757FC2378013357E71D
:1063900008235DE77821FFF7E7FE484E484F0028C5
:1063A0003FF45EAF02220621414808F070FD00284C
:1063B0003FF456AF022206213D4808F063FD012359
:1063C0003B70B6F86430053B03EBD3735B1023815D
:1063D00096F914000AF030FB6061B6F856000AF036
:1063E0002BFBF388A0616381F38C64E7354EA22018
:1063F000B6F90010FDF7DCF9334A2E4B11785278CC
:10640000307859719A71D9721A733188B6F90020AF
:10641000266A090A002E9877D97738DD02EBD27206
:1064200052101A77C2F307229876D9765A777521D7
:1064300083F84A10122183F84B106021402283F820
:106440004C10252183F84820042283F84D10522156
:1064500083F8492083F84F20892283F84E101D4984
:1064600083F8562083F858200A7820460132D2B2A9
:106470000A70D20748BF93F85E204FF0640144BF12
:10648000013283F85E20FFF789FE0523E0E6CED0D7
:1064900002EBD27252109A76C2F30722187759771C
:1064A000DA76C4E76E2E0020BC2A0020902200205D
:1064B00000000240272200200D2E0108D32D0020CD
:1064C000642E0020662E0020682E00206C2E0020F6
:1064D0006B1F00206B2E00207F20FDF749F901285B
:1064E0001CBF00223D4B4FF08C0018BF1A7083E692
:1064F0003A4C3B48FBF7F8F92378062B0ED90222D9
:106500000721384808F0C3FC00283FF49AAE072161
:106510000222344808F0B6FC692185E66921324838
:106520002FE70D2394E68C21FFF71EFE2F4E08B3B4
:10653000022206212B4808F0AAFCD8B1022206212B
:10654000284808F09FFC01233370294EB6F87530B7
:106550005B10238196F914000AF06EFA6061B6F8B8
:1065600019000AF069FA7389A0616381B6F82B30CB
:10657000A38166E60023337063E61E4EA220B6F9BF
:106580000010FDF715F91C4B2046B3F900201B4BFA
:106590005242D1B2C2F307229A711A73B6F900209F
:1065A0005971DA77121283F820209A7ED97283F813
:1065B0002520DA7E692183F82620782283F84F206F
:1065C000EC2283F85020102283F85120272283F8F0
:1065D0005220FFF7E3FD0A233AE600BF9022002095
:1065E000BC2A002000000240F51C0020642E002080
:1065F000D32D0020662E0020682E002027220020A8
:1066000038B5037F04468B420D460AD051B15F2056
:10661000FDF7AEF808B9FCF74FFEFCF783FE012347
:10662000237738BD4FF0804009F006F92577F8E769
:1066300008B50121FFF7E4FF0B4B1A78042A04D8B0
:1066400005221A700022094B1A7000230849094AD2
:1066500011F8010B0133642B02F8010BF8D102226F
:10666000054B1A7008BD00BF6E2E0020902200203E
:10667000402D0108272200206F2E002008B501219F
:10668000FFF7BEFF064B1A78042A04D900221A70BD
:106690000122044B1A700122034B1A7008BD00BF7F
:1066A0006E2E0020902200206F2E0020012108B5C0
:1066B000FFF7A6FF0A4B0B491A78092A9CBF0A224A
:1066C0001A700022084B1A706923084A11F8010B4E
:1066D000013B02F8010BF9D10322054B1A7008BDEA
:1066E0006E2E0020A42D01089022002027220020D9
:1066F0006F2E00200021FFF783BF0181704700004B
:1067000008B508460AF0C8FBA622A0F10F035343C0
:10671000412293FBF2F3024A5833138008BD00BFB5
:10672000702E0020B420FDF739B810B504460022C1
:106730006160084640F2531100F0F9FD60680022E4
:10674000BDE8104040F2F31100F0F1BD40F25313E8
:10675000994210B5044610D1B2F80100A0F5B0700E
:106760000AF06AF94FF076510AF0BAF90146A12011
:10677000FDF72CF80123E37203E040F2F313994292
:10678000F8D010BD10B50446C07A10B90348FBF725
:1067900091F800232073E37210BD00BF7C2A002013
:1067A00008B50248FBF786F808BD00BF7C2A002028
:1067B00007B540F2EE22038940F21631934238BF0A
:1067C00013460522ADF8002041F65832934228BF07
:1067D00013460A229B01B3FBF2F3ADF8023000230B
:1067E0006A46019340680823FEF73AFC03B05DF85F
:1067F00004FB000007B5154A154913788DF80030E1
:10680000144B1B888DF80130C523ADF802300023EE
:1068100001930B780133DBB2162B28BF00230B70DA
:106820005BB91123137008236A4640F2293140688E
:10683000FEF716FC03B05DF804FB082B01D186239C
:10684000F0E70F2BEFD1D923ECE700BF742E002027
:10685000752E0020702E0020462313B5ADF80430AD
:10686000002340688DF80630036840F23B415C68C5
:1068700001AA0323A04702B010BD000007B50D4ACE
:1068800040F245511388406801339BB213800022C7
:106890008DF801301B0A8DF80230074B8DF800206F
:1068A0008DF8032001936A460823FEF7D9FB03B055
:1068B0005DF804FB722E00207E10001807B5D1B1E0
:1068C00001291AD001310CBF072308238DF80130AC
:1068D0004FF6FF738122ADF80230094B8DF800208E
:1068E00001936A46082340F23F414068FEF7B8FB37
:1068F00003B05DF804FB0623E8E70523E6E700BFE5
:106900000080FFFF037B10B50446BBB1FFF750FFCB
:106910002046FFF76FFF2046FFF7B0FF2046FFF746
:106920009BFF0320FCF73AFF40B1A920FCF720FFB2
:1069300041B22046BDE81040FFF7C0BF10BD018145
:1069400070477047B420FCF729BF000008B5084B1A
:10695000186899889B792BB108F093FCB0FA80F005
:10696000400908BD08F08DFC003818BF0120F8E789
:106970007C2A002030B51F4A1F4B89B0CDE9012386
:106980001E491F4B1F4CCDE903131F4B1F4D059391
:106990000023ADF8193023784FF4B06163F07F0322
:1069A0008DF818302B68406820336B4413F81C2C8A
:1069B0008DF81B2013F8182C8DF81C2013F8142CBC
:1069C0008DF81D2013F8102C13F80C3C8DF81E20A8
:1069D0008DF81F3006AA0823FEF742FB2B6801330F
:1069E00003F003032B602378013303F00F032370BC
:1069F00009B030BD0F287F281E1000107056F056C9
:106A00000C48A748762E002046902890782E00202B
:106A100037B540F2EE2203890025934238BF134672
:106A200041F65832934228BF1346044603819A0028
:106A30009B09CDE900554FF420718DF803308DF896
:106A4000042008236A464068FEF70AFB08236A46CA
:106A50004FF4227160688DF803508DF80450FEF7F2
:106A6000FFFA03B030BD000008B5034BB3F90000D6
:106A700009F0E2FF08BD00BF882E002008B5034BD7
:106A8000B3F9000009F0D8FF08BD00BF8A2E00202E
:106A900008B5024B188809F0CBFF08BD8E2E0020E8
:106AA00008B5034BB3F9000009F0C6FF08BD00BFED
:106AB0008C2E0020064B1A78064B0AB91A7001E09A
:106AC000012AFBD0044A126802B91A70187870477C
:106AD000842E0020852E0020802E002010B5044634
