:020000040800F2
:101000000050002061FC00085DFC00085BFC00084B
:101010005BFC00085BFC00085BFC000800000000B3
:101020000000000000000000000000005DFC00085F
:101030005DFC0008000000005DFC00085DFC00088D
:101040005BFC00085BFC00085BFC0008A1280008B2
:101050005BFC00085BFC00085BFC00085BFC000814
:101060005BFC00085BFC00085BFC00085BFC000804
:101070005BFC00085BFC00085BFC00085BFC0008F4
:101080005BFC00085BFC00085BFC00085D8300085B
:101090003D8300084D8300085BFC00085BFC0008F2
:1010A0005BFC00085BFC00085BFC00085BFC0008C4
:1010B0005BFC00085BFC0008512800085BFC000892
:1010C0005BFC00085BFC00085BFC00085BFC0008A4
:1010D0005BFC00085BFC00085BFC00085BFC000894
:1010E0005D2800085BFC00085BFC00085BFC000856
:1010F0005BFC00085BFC00085BFC00085BFC000874
:101100005BFC00085BFC00085BFC00085BFC000863
:101110005BFC00085BFC00085BFC00085BFC000853
:101120005BFC00085BFC00085BFC00085BFC000843
:101130005BFC00085BFC00085BFC0008898300087E
:1011400069830008798300085BFC00085BFC0008E9
:1011500010B404466468084611461A46234610BC7B
:101160001847836818477047704770477047704743
:1011700041607047704770477047704770477047CD
:1011800070470020704700207047000000487047FB
:101190000000484200207047416070477047704728
:1011A0007047704770470020704741607047704734
:1011B0007047704770477047002070477047416024
:1011C00070470020704770477047704770477047FE
:1011D000002070477047416070477047002070479B
:1011E00070474160704770470846704770477047C6
:1011F0007047704700487047003C1C46416070478C
:10120000704770477047704770474160704770473C
:101210000020704700207047002070470020704772
:101220000020704770477047104B10B5186803686E
:101230001B6898470E4B186803681B6898470D4B4E
:10124000186803681B6898470B4B186803681B688D
:1012500098470A4B186803681B689847BDE8104018
:10126000074B186803689B68184700BF24000020DC
:101270002000002018000020140000201000002092
:101280000800002010B5174C206803689B69984738
:10129000052002F091FA062818D8DFE800F0040AC9
:1012A0000C0E1012200000220F4B1A700F4B2360FF
:1012B0000CE00F4BFBE70F4BF9E70F4BF7E70F4B3A
:1012C000F5E701220E4B23600E4B1A700E4C20687E
:1012D00005F0F0FF6068BDE8104005F0EBBF0B4B78
:1012E000E5E700BF18000020822A002060290020C6
:1012F000582900205029002080290020782900202A
:1013000038290020582A0020742A00207029002043
:1013100010B5114C20680368DB699847042002F07F
:101320004BFA042806D8DFE800F003100E12140070
:101330000A4B23600A4C206805F0BCFF6068BDE8DA
:10134000104005F0B7BF074BF3E7074BF1E7074B3A
:10135000EFE7074BEDE700BF1400002068290020ED
:10136000742A00203029002028290020202900206C
:101370001829002010B5124C206803685B68984754
:10138000062002F019FA0138052815D8DFE800F028
:10139000160E0E0310120B4B23600B4C206805F049
:1013A00089FF6068BDE8104005F084BF074BF3E794
:1013B000074BF1E7074BEFE7074BEDE7074BEBE791
:1013C0000C0000203C270020742A00200C2700205D
:1013D000D0260020842600206427002044270020F7
:1013E00010B50B4C206803685B689847492002F0F1
:1013F000E3F9084A084B012808BF13462360074C4D
:10140000206805F057FF6068BDE8104005F052BF46
:10141000080000206C2600207C260020742A002072
:10142000022010B502F0C8F90138032815D8DFE80A
:1014300000F0020E10120A4B0A4C0B4A206813608F
:1014400005F038FF6068BDE8104005F033BF074B7A
:10145000F2E7074BF0E7074BEEE7074BECE700BF7F
:10146000B4270020742A0020100000209C270020B0
:1014700090270020A82700206026002010B501201A
:1014800002F09AF909280FD8DFE800F0171C2B0E9C
:1014900005091F222528144B144A1A6004E0124A39
:1014A000134B136000229A72124C206805F002FF61
:1014B0006068BDE8104005F0FDBE0B4A0C4B1360A0
:1014C0000122F0E7084B0C4AE7E7074B0B4AE4E739
:1014D000054B0B4AE1E7044B0A4ADEE7024B0A4A96
:1014E000DBE7014B094AD8E72000002078270020DD
:1014F000E8290020742A0020142A0020DC2900207A
:10150000C4290020302A0020F82900206C27002060
:10151000036810B59B6898470FF0F8FC002401465B
:101520009B2002F069F92146962002F073F92146CA
:10153000972002F06FF92146992002F06BF92146BD
:10154000BDE810409A2002F065B9000010B51C4CAF
:10155000206803689B6A9847002002F02DF909284B
:101560000FD8DFE800F005080A0E271C2117292BE9
:10157000144B236005E0144BFBE71448206005F092
:1015800031F8134C206805F095FE6068BDE8104006
:1015900005F090BE0D48206005F03CF8F1E70B48DF
:1015A000206004F0F9FFECE70A4B012223600A4BAC
:1015B0001A70E6E7094BDCE7094BF6E7094BD8E779
:1015C000240000200829002088290020A0290020CC
:1015D000742A0020E8280020582A00201029002022
:1015E000402600200C26002010B5144C206803680B
:1015F0001B699847512002F0DFF8032805D8DFE87F
:1016000000F0020D0F160E4B23600E4C206805F003
:1016100051FE6068BDE8104005F04CBE0A4BF3E790
:101620000A4B0B48196820600BF0B6F9EDE7012270
:10163000084B2360084B1A70E7E700BF1C0000202E
:10164000E0280020742A0020D4280020082600204A
:1016500080270020C8280020582A0020B52002F04A
:10166000C1B800002DE9F74F082002F0A5F8484C5A
:1016700054F820100920019102F09EF854F82060DF
:101680000A2002F099F854F820500B2002F094F848
:1016900054F820A00C2002F08FF854F820B00D2050
:1016A00002F08AF854F820900E2002F085F854F8E1
:1016B0002070102002F080F854F82080112002F0F1
:1016C0007BF854F8203001990093324B1868036876
:1016D000DB6A9847304B314618680368DB6B9847E4
:1016E0002E4B594618680368DB6998472C4B5146C6
:1016F000186803681B6A98472A4B494618680368AC
:101700001B699847284B4146186803685B699847EE
:10171000264B3146186803689B6998473946244828
:1017200009F062FF234B0099186803685B699847CA
:10173000072002F041F8012802D1284603F05CFBA3
:10174000072002F039F8022802D1284609F0D4F81F
:10175000072002F031F8032802D1284609F022FBC5
:10176000072002F029F8042802D128460DF084F859
:10177000002240F20161606805F07FFD002240F226
:101780000161206803B0BDE8F04F05F076BD00BFF1
:10179000742A0020240000202000002018000020CF
:1017A000140000200C000020080000201000002081
:1017B000682600201C00002038B540F2DF739842F4
:1017C00004460D4606D10A460146314809F014FF89
:1017D000002038BD072001F0EFFF012803D1294682
:1017E000204603F0E7FB072001F0E6FF022803D1C3
:1017F0002946204609F0C0F8072001F0DDFF032844
:1018000003D12946204609F0FDFA072001F0D4FF54
:10181000042803D1294620460DF050F81D4B2A46D6
:10182000186821460368DB6898471B4B2A461868EE
:10183000214603681B699847184B2A4618682146B9
:1018400003681B699847164B2A46186821460368A7
:101850001B699847134B2A461868214603681B6882
:101860009847114B2A461868214603681B68984719
:101870000E4B2A461868214603681B6998470C4B93
:101880002A461868214603681B689847A0E700BFEE
:1018900068260020240000202000002018000020DE
:1018A000140000200C000020080000201000002080
:1018B0001C00002008B5034699889B7900682BB16D
:1018C0000DF01BFDB0FA80F0400908BD0DF015FDCC
:1018D000003818BF0120F8E708B50248FFF7EAFF13
:1018E00008BD00BF842B0020818800680DF000BD7A
:1018F000818800680DF0FEBC2DE9F8439F4BA04C99
:10190000998818680DF0FCFC0DF004FD9D4B9E4F6E
:10191000186801F01EFF0FF0C9F89C490FF0CEF9CE
:101920000146DF2001F076FF06F08CFA01468220A6
:1019300001F062FF802001F03FFF39680546206812
:1019400006F0ECFE072001F037FF2068904E036898
:101950009B6A98470146B32001F04EFF2068036858
:10196000DB6A98470146B12001F054FF07F08EF979
:10197000306803689B689847206803689B689847AD
:10198000844B186803689B689847834B1868036802
:10199000DB689847814B186803681B69984738686B
:1019A00003689B6898477E4B186803689B69984753
:1019B0007C4B186805F0CCFC0CF064FF7A4B1B786C
:1019C0000BB10BF051FDAA2001F0F6FE0346774C57
:1019D000002B606A80F2A180FFF786FFE62001F00D
:1019E000EBFE002800F09C80AA2001F0E5FE022812
:1019F00000F09680AA2001F0DFFE002800F0908021
:101A00006069FFF771FFBC2001F0D6FE0346606CF1
:101A1000002B00F08980FFF767FF012D206940F05F
:101A20008680FFF761FF3068614F0368DFF88481CB
:101A30009B6998470146AB2001F0ECFE30680368D3
:101A40005B6998470146AC2001F0E4FE306803680A
:101A50005B6A98470FF02AF80146C12001F0DAFED0
:101A600030680368DB69984701468A2001F0D2FE9E
:101A7000514BAE20196801F0BFFE504B1B78012B73
:101A800003D0042B01D03B7823B1D8F800000368C1
:101A90009B689847D8F80000DFF82491036899F80C
:101AA00000105B6998470646002843D0012D1EBFF1
:101AB0000122444B1A7001233B70A06A424B9842AA
:101AC00005D0FFF7F7FE0146D82001F095FE0BF098
:101AD00079FC0BF093FC042D01D0012D7AD1AB20C1
:101AE00001F072FE0646DB2001F06EFE0146304634
:101AF0000FF0ECF988B3AB2001F066FE06467620C5
:101B000001F062FE31460FF0C3F940B3E06BFFF71E
:101B1000EBFE206CFFF7E8FE62E0FFF7E9FE5DE711
:101B20006069FFF7E5FE6EE7FFF7E2FE75E7FFF796
:101B3000DFFE78E73B7833B10146812001F05CFE9F
:101B4000204B3E701E70D8F8000099F80010036812
:101B50009B6998471D4B1870AFE7DB20CCE77620D8
:101B600001F032FE1A490EF0EBFE31460FF0AEF9ED
:101B70000028CED0E06BFFF7BBFECAE7442C002064
:101B800020000020842A00201000002000002041B6
:101B900024000020180000200C0000200800002075
:101BA0001C000020702A0020582A00206C300020E1
:101BB000812A002014000020A42E00206E2A00207C
:101BC0006C2A0020822A0020742B00205B2A00202F
:101BD0000000A040E06BFFF78BFE206CFFF788FE53
:101BE000002001F0E9FD092816D1012D14D1AA2009
:101BF00001F0E2FD094B0A4C1A68824209D0052225
:101C00001860226007480CF04BFD2368013B2360FD
:101C100002E02368002BF5DCBDE8F88304260020F1
:101C2000002600200C2600202DE9F04FA12085B0D1
:101C300001F0C2FD8246802001F0BEFD8F4B0446BC
:101C4000002840F0ED801F68003F18BF0127AA2040
:101C50001C6001F0B1FD81460DF030FD06F0BEF8CC
:101C6000874B884E186803685B689847802001F0AE
:101C7000A3FD0128054640F0DB800FFA8AFA8AEAC4
:101C8000EA70A0EBEA7080B206F01AFF00218046ED
:101C90000FF0FEF898B1002001F08EFD04280ED060
:101CA000232001F089FD002840F0BC80BAF1000F2C
:101CB000B8BF4FF0FF354D4518BF08F10048484602
:101CC0000EF0F4FE41460EF045FF0546306803680D
:101CD0005B689847306829460368DFF8AC811B6968
:101CE0009847B92001F07EFD002840F0A580D8F883
:101CF0002000FFF7FDFD3068DFF890A10368DFF8F2
:101D000090911B6A98470FF001F905B22946A1206E
:101D100001F072FD082001F04FFD5AF8200006F096
:101D2000F7FB012C01D0042C09D1D9F8000085EA79
:101D3000E5710368A1EBE5719B6989B29847D9F811
:101D400000B0AB20DBF80030DB69019301F03CFD13
:101D5000019B014658469847D9F8000003685B6824
:101D600098474C4B18680368DB6898474A4B1868DB
:101D700003685B689847042C69D1484B186803686E
:101D80005B689847284606F047FD8346A52001F08A
:101D900013FD0390182001F00FFD0546392001F0D6
:101DA00013FD0190292001F00FFD59460FF08EF828
:101DB000B0FA80F35B095946DB00019802930FF0FB
:101DC00071F8039AB0FA80F0AA42D4BF002201222F
:101DD000029B400943EA8003872043EA821501F011
:101DE000F3FC8346282001F0EFFC014658460FF033
:101DF0006DF8002808BF45F001058320294601F051
:101E0000FBFC172001F0D8FC0190052C00F2A28009
:101E1000DFE814F046008601C1003A015601C30113
:101E2000002714E7BAF1000FA8BF4FF0FF3542E7D3
:101E300006F014FF00254DE7B62001F0D3FC002882
:101E40007FF455AFD8F82000FFF74EFD53E705208B
:101E500001F0B2FC032804D1104B186803685B68DA
:101E60009847012C8ED1DE2001F0A6FC411C01F028
:101E70000F01DE2001F0C0FC84E700BF000000205D
:101E800014000020240000206C300020742A002060
:101E90002000002008000020100000201800002072
:101EA0000023924A924E934833701370FFF720FD3F
:101EB000D8F81800FFF71CFD1FB10221AA2001F07D
:101EC0009BFCD9F800008C4F0368DFF830B25B69E7
:101ED000984700233B70BBF80030002B54D1884852
:101EE000FFF706FDD8F81C00FFF702FD8548FFF755
:101EF000FFFC15F0410F01D0019BB3B1D9F80000F0
:101F000003689B6B984780B1D9F8000003685B6B4E
:101F1000984750B101233B7033701923ABF8003060
:101F20000DF0CCFB0224784B1860784B1B786BB11A
:101F300015F0480F0AD11923ABF800300DF0BEFBA5
:101F4000714B022418600123684A137021468020D7
:101F500001F052FCD9F800006D4D03685B6B9847A7
:101F6000002840F04281694B1B78002B40F03D81F6
:101F7000002C40F03A812B88002B40F08F81D8F85C
:101F80004800FFF7B5FC37E1013B9BB2ABF80030EE
:101F9000002BAED1A3E75D4F3B78002B53D13268C5
:101FA0005C4B9A4202D05348FFF79EFCD8F81C00C5
:101FB000524EFFF799FCD8F81800FFF795FC3388CC
:101FC000002B4AD14F48FFF78FFCDFF82CB19BF86C
:101FD000003053B115F0450107D1192385208BF846
:101FE00000103380012401F007FC3B784BB115F061
:101FF0004C0106D14FF4FA7385203380042401F09C
:10200000FBFB3A4B1B781BB13B78002B08BF00242D
:10201000374D2B783BBB022C98D10DF04FFB074678
:10202000152001F0C9FB384B1B6803449F428DD932
:10203000019B0BB32B78FBB100238BF800301923E5
:102040000124338082E7072001F0B6FB0028ADD1E0
:102050003268314B9A42A9D1A5E7013B9BB233804C
:10206000002BB2D1AEE7D9F8000003685B6B98474C
:102070000028D0D1002469E72248FFF739FC0B2063
:1020800005F0B2FE032461E700221B4B1D481A70C5
:10209000FFF72EFC154B1B7823B11C4B1B78002B34
:1020A00008BF0024124B1B78002B3FF44FAFD9F828
:1020B000000003685B6B9847002808BF002445E7D1
:1020C0000E4A138853B90E48FFF70EFC0F4B1B78CE
:1020D0004BB99622114B05241A8004E0013B9BB2B8
:1020E0001380002BEFD005F0A1FE2FE7592A002026
:1020F0005A2A0020FC2B00205C2A00202800002007
:102100004C2C0020042C0020FC250020822A0020DA
:10211000F82500201029002088290020442A0020CA
:102120006B4A13884BBB6B48FFF7DEFB6A48FFF72F
:10213000DBFB8020012101F05FFB05F077FED9F881
:10214000000003685B6B984700287FF4FFAEA12076
:1021500001F032FB00284FF0A10014DA01F02CFB53
:10216000404231283FF7F2AEAA2001F025FB68B9C2
:1021700096225A4B05241A80E8E6013B9BB2138055
:10218000002BD6D1CFE701F017FBEAE7AA2001F038
:1021900013FB02287FF4DAAEEAE74E48FFF7A4FB10
:1021A0004D48FFF7A5FB0221AA2001F025FB4B4A71
:1021B00013887BB98F2001F0FFFA002811DA8F20F5
:1021C00001F0FAFA404204283FF7C0AEFA22404B31
:1021D0001A804FE7013B9BB21380002B7FF4B6AE11
:1021E000E8E78F2001F0E8FAEDE74FF496732B80D3
:1021F000D8F84800FFF778FB2988C020003918BFBD
:10220000012101F0F9FA012C354D53D1522001F092
:10221000D3FA012849D1D8F80C00FFF765FB2E68E6
:10222000552033689F6801F0C7FA0EF03FFC014665
:102230003046B8472D6853202B68DE6801F0BCFAA1
:10224000012281B22846B047072001F0B5FA0228E2
:1022500007D10A2001F0B0FA5AF82010204608F001
:102260009DFB072001F0A8FA032807D10A2001F0FE
:10227000A3FA5AF82010204608F000FE072001F0CB
:102280009BFA042821D10A2001F096FA5AF820106E
:10229000204605B0BDE8F04F0CF018BB013B9BB2E7
:1022A0002B80002B3FF46BAEA2E7D82001F09AFA06
:1022B0000028B0D1D8F80C00FFF71AFB00222868DC
:1022C00011460368DB689847BEE705B0BDE8F08FAC
:1022D000280000204C2C0020FC2B0020442A002049
:1022E0001C0000202DE9F047802001F065FA05462A
:1022F0009C4BDFF8748218680368DB689847042DEC
:1023000004D1D8F800000368DB68984706F04CFD5C
:10231000964BDFF85CA21968D320DFF8589201F0E1
:102320006BFAD420DAF8001001F066FAD520D9F85B
:10233000001001F061FA904B904E1968D620904F32
:1023400001F05AFAD720318801F056FA3B788D4CCB
:10235000022B32D18C4B1B787BBB042D1DD1DFF8B7
:102360002CA2DFF82C92DAF80030002B44D10023A5
:102370005C20237001F020FA4FF496735843CAF89A
:102380000000D9F80030B3F5967F16D10023C9F8C4
:1023900000303388013B33800FE07E4ADAF80030AA
:1023A00012789A4226D17C4AD9F8003012789A42A3
:1023B00020D13388F3B1012323703B783BBB724BB0
:1023C0001B780BB9012323706F2001F0F5F9012868
:1023D00021D1712001F0F0F9704B8146586802F06C
:1023E000B4F806460146E02001F006FAB1452CDAC1
:1023F000002331E00023DFE7D9F80020013B013260
:10240000CAF80030C9F80020002BBAD1AFE7012B81
:10241000DAD10023D7E7702001F0CEF90128D8D017
:10242000D8F800005E4A036812785B692178984703
:1024300008B1012D12D15B4B1E78AEB93146812017
:1024400001F0DAF9584B1E700EE03B78012BE7D112
:102450004D4A1278002AE3D12370E1E70121524B63
:102460008120197001F0C8F9504E3378022B07D142
:102470004C4B1B7823B14E4B18680368DB689847B8
:102480003378012B02D9033B012B0AD8484F386817
:102490000368DB68984733781BB938680368DB68E2
:1024A0009847042D3CD13F4B1E78002E33D1862017
:1024B00001F082F905463E2001F07EF98542A1BF78
:1024C0000122314B26701A703A4B186803689B68DA
:1024D000984700210EF0D2FC68B1374A1368002BF0
:1024E000DFBF002301212370274BCEBF03F1FF3351
:1024F00019700A231360314B586B314B98420AD044
:10250000FFF7D8F938B1E52001F056F918B90122E2
:102510001D4B20701A70294B986BFFF7E9F956E0B4
:10252000012DF8D10022184B6F201A7001F044F9E8
:10253000022847D1722001F03FF90646732001F0CE
:102540003BF9164B0546986801F0FFFF014604462B
:10255000E12001F051F9AE423BDCA642DBDCA542B2
:1025600035DA3AE02000002018000020542A00202C
:10257000502A00204C2A0020482A0020682A0020E7
:102580006D2A00206C2A0020802A0020642A002066
:10259000602A00206B2A00206A2A00206030002078
:1025A0005B2A0020812A0020822A00206E2A002037
:1025B000140000200C000020040000206C300020DB
:1025C000742B0020702001F0F7F80228B2D0BDE88B
:1025D000F087A6429FDBA542F9DD024B986BFFF71F
:1025E00083F9F4E76C300020FEE700000C2838B5D2
:1025F00010D80C2819D8DFE810F0D000D300E5007F
:102600001800D900D600DF001800E800E800E80054
:10261000E800E800512800F0CC8000F2B2803C28AD
:1026200000F0DB80492800F0CA80232001F0C4F8C4
:1026300040B1002001F0C0F8082803D00021232079
:1026400001F0DAF8182001F0B7F8664D664C286002
:10265000192001F0B1F820601A2001F0ADF868608F
:102660001B2001F0A9F860601C2001F0ADF85F4D5F
:102670005F4C28601D2001F0A7F82060332001F096
:10268000A3F85C4B2168186028680EF001FC50B17B
:1026900059491C202960594D256001F0BBF8294695
:1026A0001D2001F0B7F81E2001F08EF8544B554C58
:1026B00018602E2001F088F8534B18602F2001F08D
:1026C00083F8524B1860312001F07EF8504B1860AF
:1026D000262001F071F84F4B1860202001F074F8AB
:1026E0004D4B1860242001F06FF84C4B18603020DF
:1026F00001F06AF84A4B18601F2001F065F8494B59
:102700001860052001F058F8042001F055F8464BF8
:1027100018702378012B22D1592001F04DF8434B3A
:102720001860582001F048F8414B1860572001F01C
:1027300043F8404B1860562001F03EF83E4B1860BD
:102740005A2001F039F83D4B18705B2001F034F845
:102750003B4B18705C2001F02FF83A4B1880452055
:1027600001F02AF820705C2001F026F84FF49673EF
:102770005843354B186008F055F8BDE8384008F06C
:102780008FB8692805D866287FF64FAF00F030FE75
:102790004BE779380428F9D947E7FEF7D7FE44E735
:1027A000FEF76CFE41E7FEF76DFD3EE7FEF7B0FD7C
:1027B0003BE7FEF719FF38E7FEF7DCFD35E7FEF7EC
:1027C0000FFE32E7FEF72CFE2FE7204C206804F0C6
:1027D00071FD606804F06EFD27E704F057FB04F01C
:1027E00043FB22E79C2E0020942E0020902E0020F8
:1027F0008C2E0020542E00200080BB440000C842D4
:10280000882E00206D2A0020802E0020782E0020A7
:10281000742E0020582E0020702E00206C2E0020D8
:102820007C2E0020842E00206E2A0020482A0020C2
:102830004C2A0020502A0020542A00206B2A002015
:102840006A2A0020682A0020642A0020742A0020B6
:10285000014B186800F046BF842A002000B589B0FB
:1028600003A804F093FB28B1DDF815300193DDF8DF
:102870001930029304F005FB4FF400400CF0F6FB16
:102880000499A1F58473012B05D8044B01AA18689B
:1028900003681B69984709B05DF804FB1400002029
:1028A00008B500200CF046FF104B1A6801323B2A95
:1028B0001A600F4A05D911680131116019683C3955
:1028C000196013683B2B0B4B05D91968013119604E
:1028D00011683C3911601A68172A06D906490A6836
:1028E00001320A601A68183A1A6008BD482A0020A6
:1028F0004C2A0020502A0020542A00202DE9F043C1
:10290000ADF68C2D00F0C0FB00F0E8FC0022C449BD
:10291000C44801F05BFE0122C149C34801F056FEE4
:102920000122C249C24801F051FE0222BC49C148FD
:1029300001F04CFE0322BA49BF4801F047FE0522D0
:10294000B749BE4801F042FE0422B549BC4801F037
:102950003DFE0B22B249BB4801F038FE0423202281
:10296000B949BA4801F0A3FB04238022B649B8480C
:1029700001F09DFB04234FF40042B649B64801F034
:1029800096FB04231022A949B44801F090FB0423CC
:102990000822A649B24801F08AFB012507238022BC
:1029A0009F49B04801F083FB07230422AE49AF489A
:1029B00001F07DFB07234FF40042A349AC4801F02E
:1029C00076FB07234FF480429F49AA4801F06FFB32
:1029D00007234FF400529C49A74801F068FB0723E6
:1029E0004FF400729849A54801F061FB07234FF4AA
:1029F00080729549A24801F05AFB07234FF4806288
:102A00009149A04801F053FB07234FF400628E491F
:102A10009D4801F04CFB0723402281499B4801F06F
:102A200046FB07234FF480728A49994801F03FFB27
:102A300007234FF400727A49964801F038FB0723C8
:102A40004FF480727649944801F031FB07234FF42C
:102A500080527D49914801F02AFB052308228249D2
:102A60008F4801F024FB052310227F498D4801F097
:102A70001EFB052320227C498B4801F018FB07230D
:102A800040227949894801F012FB072308226E4948
:102A9000874801F00CFB072304226B49854801F0AD
:102AA00006FB07234FF480526049834801F0FFFA88
:102AB00007234FF480426C49804801F0F8FA07235D
:102AC00001225A497E4801F0F2FA07238022614927
:102AD0007C4801F0ECFA072340225E497A4801F075
:102AE000E6FA042340225849784801F0E0FA04232A
:102AF00010225549764801F0DAFA002380225A491B
:102B0000744801F0D4FA01F0B3FC73494FF000703F
:102B10000CF0E4FB00F072FB00F0A0FB05F030F9D4
:102B200000F012FB00F03CFB00F062FCE720FFF736
:102B30005DFD5748FEF7DCFE6048FEF7D9FEC4ACE9
:102B40000023664A6649009539A800F005FF0DF29A
:102B50006C58002302222046624905F047FB0222FE
:102B600061492B46404605F041FB604B0F20049322
:102B70005F4B0DF5F96705935E4B0DF16409069304
:102B800000F01AFE2A46002814BF41462146384666
:102B900005F06CF83A462146484608F003FE564ECA
:102BA0000321484608F01AFE204604A9C6E9004859
:102BB00004F054FB04A9404604F050FB4F4B0A209C
:102BC0001F604F4B07AC1F6000F0F6FD56F82070F9
:102BD0000E2000F0F1FD56F820104A4808F004FDE0
:102BE00004F054F904F040F94FF496424649204667
:102BF00009F048FD454B1C600FACFEF7A7FCFEF743
:102C00003DFCFEF73FFBFEF783FBFEF7B3FBFEF751
:102C1000EBFCFEF7E5FBFEF703FC3D49204679E0BF
:102C200000100140982C0020942C0020000C014042
:102C3000902C00208C2C0020882C0020842C00203C
:102C4000802C00207C2C002000140140742C0020DB
:102C50006C2C002000080140642C00205C2C00201B
:102C6000542C00204C2C002000180140442C002043
:102C70003C2C0020342C00202C2C0020242C002064
:102C80001C2C0020142C00200C2C0020042C0020D4
:102C9000FC2B0020F42B0020EC2B0020E42B002048
:102CA000DC2B0020D42B0020CC2B0020C42B0020B8
:102CB000BC2B0020B42B0020AC2B0020A42B002028
:102CC0009C2B0020942B00208C2B0020842B002098
:102CD0007C2B0020742B0020C0004000582B0108E2
:102CE00000480040006400400068004034110108C2
:102CF000B917000865160008742A0020D42F002098
:102D0000702A002068260020003801400826002094
:102D10000008004000F090FC1B4B2A4620461B494F
:102D20001C6000F0A9FC0A222046194900F0A4FC0E
:102D300064222046174900F09FFCC822204616490D
:102D400000F09AFC782000F037FDA84202D1384606
:102D500002F0B4F804217F2000F04EFD0021802015
:102D600000F04AFD4FF0000439A88DF80F4000F044
:102D7000ABFFD9F81430002BF6D10DF10F011AA8D2
:102D800006F0E6F9F0E700BF842A002029120008C7
:102D9000291C0008F9180008E522000810B50024D5
:102DA000624B634A1C741A60624B634A1C721A605D
:102DB000DC721C73614A624B62481A601C72DC72DE
:102DC0001C73614A614B1A60614B624A1A6007F0DA
:102DD0001FFD614B614A1C621A601C77604A614B9F
:102DE00061481A60614B624A1A60624B624A1A601B
:102DF000624B634A1A60634B634A1A60634B644ACE
:102E00001A60644B644A1A60644B654A1A60654BE9
:102E1000654A5C751A60DC82644A654B1A60654BD2
:102E2000654A1A60654B664A1A60664B664A1A60C4
:102E3000664B674A1A60674B674A1A6004F0F2F9FA
:102E4000664B674A67481A6007F010FB664B674A93
:102E500067491A60674B684A68481A60684B694A54
:102E60001A60694B694A1A60694B6A4A1A606A4B70
:102E70006A4A1A606A4B6B4A1C721A606A4B6B4A48
:102E80001A606B4B6B4A1A606B4B6C4A1A606C4A47
:102E90006C4BC2E9024413600023136153619361D8
:102EA000D361694A1160694A6949C2E90444116001
:102EB000C2E90644136253629362D3626549664A6B
:102EC00011606649C2E90244C2E904441483D36133
:102ED000136253629362D362136353639163604AD4
:102EE0006049C2E9044411605F49D3609361D361D2
:102EF000148453629362D362136353639363D36303
:102F00001364536493649160584B594A1A60594B47
:102F1000594A1C731A60594B594A1A6009F0ACFBA4
:102F2000BDE8104057480BF0ABBB00BF302A002073
:102F3000D0330108142A0020EC2B0108242D0108AD
:102F4000F8290020C4290020182F0108E8290020B2
:102F5000DC290020602F0108A0290020AC2D0108E9
:102F60004831010888290020E82800208029002015
:102F7000A832010878290020D432010870290020E5
:102F800068340108682900206811010860290020C0
:102F9000941101085829002000330108502900200D
:102FA000FC3101083829002064330108AC310108E4
:102FB0003029002028290020803101082029002004
:102FC0003C34010818290020C835010810290020C8
:102FD000A82F01080829002044120108E028002039
:102FE000C0110108D4280020C8280020203701087B
:102FF000A0360108C0280020201201084026002029
:10300000B427002018340108A82700207C360108C6
:103010009C27002020350108902700204435010816
:1030200080270020FC340108782700207C1201084A
:103030006C270020BC36010864270020E411010839
:1030400044270020483301083C2700200C2700209B
:103050002C33010804370108D02600200000FA4371
:10306000842600204C3701080000C8427C2600203E
:10307000001201086C260020B033010860260020F1
:10308000441101080C26002008B50CF051FA02206A
:103090000CF026FA4FF0E0232A4A40F20230C3F83F
:1030A0000C2D0CF089FA40F203300CF085FA4FF445
:1030B00041700CF081FA40F205300CF07DFA40F2DC
:1030C00006300CF079FA40F292300CF075FA40F2CA
:1030D00091300CF071FA40F20E300CF06DFA40F2C3
:1030E0000B300CF069FA4FF460700CF065FA40F2A6
:1030F00081300CF061FA40F282300CF05DFA4FF44E
:1031000020700CF059FA40F209300CF055FA40F2F8
:1031100086200CF051FA4FF440700CF04DFA40F25A
:1031200099300CF049FA40F29A300CF045FA40F22E
:103130008E300CF041FABDE8084040F28F300CF0C0
:103140003BBA00BF0003FA0513B500242021234633
:103150002246CDE9004410480CF062FB21460E489F
:103160000CF056FB0C480CF045FB0B480CF04BFBED
:103170004FF420430222032108480CF079F84FF461
:1031800080430122214605480CF072F8024802B043
:10319000BDE810400CF022BB00380040000C01409C
:1031A00013B500244FF080514FF000700CF096F8EA
:1031B000234622462021CDE900440E480CF030FB86
:1031C0000C480CF017FB0B480CF01DFB4FF4A05300
:1031D0000222032108480CF04BF84FF4006301224F
:1031E000214605480CF044F8024802B0BDE8104002
:1031F0000CF0F4BA003C00400010014008B5022277
:103200000423032112480CF033F808230122002183
:103210000F480CF02DF80F490F480CF0BFFC0821A7
:103220000D480CF0CDFC00210B480CF0D2FC0C2119
:1032300009480CF0DAFC002107480CF0D0FC0648E5
:1032400000210CF0D8FCBDE8084003480CF0D9BCC4
:103250000008014020A107000044004008B51120EB
:103260000CF06AFDF02111200CF072FD10200CF022
:1032700063FDF02110200CF06BFD1E200CF05CFDB6
:1032800000211E200CF064FD14200CF055FDE021FF
:1032900014200CF05DFD13200CF04EFDE0211320F6
:1032A0000CF056FD28200CF047FD4FF400400BF0C9
:1032B000CFFE01214FF400400BF0A6FE06494FF46B
:1032C00000400BF0D9FE03200CF036FDBDE80840AD
:1032D000202103200CF03CBD0018014008B54FF23E
:1032E000234103200CF060FA00200CF0F1F90020DB
:1032F0000CF020FABDE8084000200CF0F9B90000FD
:10330000022208B511464FF4007316480BF0B0FFC7
:1033100015480CF0CDFA00232022194612480CF073
:10332000A0FA202110480CF0C8FA072200210E480C
:103330000CF0C7FA00210C480CF0C8FB0A480CF04E
:103340001FFC4FF4C872002107480CF009FC064826
:103350004FF488610CF0B3FABDE8084002480CF065
:10336000A2BA00BF00180140002C014008B502239A
:1033700003211A461D480BF07BFF4FF080400CF0F4
:1033800097FA00234FF080401A4619460CF069FA6C
:1033900000214FF080400CF090FA4FF080400CF08C
:1033A00069FA4FF080400CF079FA8F214FF080409D
:1033B0000CF085FA02214FF080400CF0ACFB0622A5
:1033C00002214FF080400CF07CFA02214FF0804047
:1033D0000CF07CFB4FF08040482202210CF0C0FB37
:1033E000BDE808404FF080400CF05DBA0008014095
:1033F000692038B500F0E0F9132808D10222012332
:10340000114687480BF034FF002425460DE0692063
:1034100000F0D2F9142840F09280022201231146D4
:103420007F480BF025FF00240125682000F0C4F937
:10343000132840F0998002228023114679480BF02E
:1034400017FF672000F0B8F9132840F0AE80022281
:103450004023114673480BF00BFF73480CF028FA19
:10346000002171480CF00BFA6F480CF003FA0622A9
:1034700000216D480CF025FA062202216A480CF062
:1034800020FA0622042168480CF01BFA0021664845
:103490000CF0DDFA022164480CF0D9FA04216248EC
:1034A0000CF0D5FA002160480CF0EBFA02215E48DE
:1034B0000CF0E7FA04215C480CF0E3FA00215A48CA
:1034C0000CF004FB022158480CF000FB0421564884
:1034D0000CF0FCFA002D40F08980002C40F0868032
:1034E0007A2000F069F901464F480CF0E8F97B209A
:1034F00000F062F9214602464B480CF031FB7C207B
:1035000000F05AF90221024647480CF029FB7D20C1
:1035100000F052F90421024643480CF021FB01213E
:1035200041480CF032FB792000F046F901463E4854
:103530000CF0C3F9BDE838403B480CF0B4B9692041
:1035400000F03AF9152808D1022201231146344827
:103550000BF08EFE0124002567E707230122304986
:10356000324800F0A4FD4FE7682000F025F9142848
:1035700007D10222802311462A480BF079FE01254B
:103580005FE7682000F018F9152807D10222802390
:10359000114624480BF06CFE012452E707238022D9
:1035A0002049234800F083FD4BE7672000F004F931
:1035B000142807D10222402311461A480BF058FE66
:1035C00001254AE7672000F0F7F8152807D1022205
:1035D0004023114613480BF04BFE01243DE707231F
:1035E00040221049134800F062FD36E741F68C1185
:1035F0000D480CF064F9012200210B480CF0B0FAE0
:103600000122022108480CF0ABFA012204210648ED
:103610000CF0A6FA012104480CF0B7FA0A2186E75B
:10362000000C014000080140000400409C2B0020D9
:10363000942B00208C2B002038B50C4605460162E7
:1036400008460CF017F920460CF023F9084B2046E9
:103650001968084BB1FBF3F101390CF02EF9204643
:103660004FF6FF710CF02BF9002328466B6238BD32
:10367000C8240020A0860100F8B5436A0446032B45
:103680000E4615462ADC006A0CF012F9144F636AE4
:103690000122F95C206A0CF014F9636A0022F95CDB
:1036A000206A0CF05DFA0221636A05EB850505EBE3
:1036B000850503F10802AD0044F82360994024F821
:1036C0001250206A0CF0C0F80021206A0CF063FA56
:1036D000206A0CF0E8F8636A01336362F8BD00BF4A
:1036E000BC1201082DE9F843044600254FF00208FA
:1036F00000F11006636A08FA05F7AB420ADC3946A6
:10370000206A0CF0ABF80135042D06F10206F1D168
:10371000BDE8F8833946206A0CF09AF8A8B1206A0F
:103720000CF037FA236A3188343353F82520814668
:103730000A4443F8252054F825309847206A0CF0B5
:1037400028FAA0EB09003081D9E7636AAB42DADCE2
:10375000D5E7002170B500F10E03446A4FF47A7585
:1037600008468C4200DC70BD5A8933F8026F6A4308
:10377000B2FBF6F201311044F3E7000010B51C244F
:10378000084A04FB0022D4688C4209DC12698A4290
:1037900006DB054A42F82010FEF728FF002010BD86
:1037A000FF20FCE7C80300202C000020014B53F849
:1037B000200070472C000020024B53F820004011DD
:1037C000704700BF2C00002008B5054B53F82000BF
:1037D0000DF06CF94FF074510DF0BCF908BD00BF4D
:1037E0002C000020034B53F820004011431E584288
:1037F000584170472C000020024B490143F820102B
:10380000704700BF2C000020014B43F82010704788
:103810002C00002010B5044608464FF084410DF0FE
:1038200099F90DF073FB024B43F8240010BD00BF63
:103830002C00002070B506460024074D314668680C
:1038400000F090FB08B9E0B270BD0134E72C05F13F
:103850001C05F3D1E820F7E7C80300200023064A3F
:10386000118B814201D1D8B270470133E72B02F1AD
:103870001C02F5D1E8207047C80300201C22024B2F
:1038800002FB0030704700BFC80300200023064A37
:103890000649108B10B1506941F823000133E72B22
:1038A00002F11C02F5D17047C80300202C00002053
:1038B000014B1954704700BF882A0020024B1A5C44
:1038C00011431954704700BF882A0020024A135C34
:1038D00023EA010313547047882A0020014B185C27
:1038E000704700BF882A00201C22024B02FB0033D5
:1038F000987E7047C803002000487047AA6A0300FA
:10390000024B1A68024BC3F8402E7047B8230020C0
:10391000C8030020202180680CF099B980680CF061
:103920008EB910B504464368597A58680BF043FBCA
:10393000636804F12A02597A58680BF04EFB6368F9
:103940008022597A58680BF058FB6368BDE8104034
:10395000597A58680BF026BB70B5026140F201122B
:103960000D464B498282016001210022817580F859
:10397000281004460421C0E9062280F82020426273
:103980009DF81020856080F82920424A0373426028
:103990001068A84203D01C3201396260F8D13E4958
:1039A0000C60002B70D05069138B022203210BF0A6
:1039B0005FFC28464FF4E1310CF0F0F8284608216E
:1039C0000CF0FEF828464FF400510CF002F928469E
:1039D0000C210CF00AF9284600210CF000F9002116
:1039E00028460CF008F928460CF01BF928460CF084
:1039F0001DF963682E1D197A58680BF069FA63681F
:103A0000197A58680BF0C5FA63683246197A586813
:103A10000BF0DAFA63680022197A58680BF08EFA14
:103A200063680022197A58680BF07CFA6368197A87
:103A300058680BF08FFA6368597A58680BF048FAA7
:103A400063683246597A58680BF0BEFA6368002200
:103A5000597A58680BF072FA63680022597A5868EC
:103A60000BF060FA6368597A58680BF073FA636870
:103A70005868597A0BF096FA2046FFF752FF28460D
:103A80000CF0BFF8204670BDD068138A8DE700BFE8
:103A9000E42A0108E82A0108702B002038B5437D8C
:103AA0000D4604691BB90024204638BD083421683E
:103AB00021B1284600F056FA0028F7D12368002BE0
:103AC000F2D1F0E738B504460D4663680222197A50
:103AD00058680BF012FA18B994F82830002BF4D07B
:103AE0006368197A58680BF066FA6368AAB2197AA3
:103AF00058680BF082FA94F82020636804EBC21235
:103B0000197A5868AA320BF068FA63680222197AA7
:103B100058680BF0EDF96368197A58680BF042FAAF
:103B200094F82030B3FA83F35B0984F82030002343
:103B300084F8283038BD837D10B50A46044623B981
:103B4000BDE8104080680CF061B894F82030406AFD
:103B5000DB01234403440A2A00F1010183F8AA206F
:103B600001D07F2805D12046FFF7ACFF0023636218
:103B700010BD6162FCE7802A30B428BF80220C4669
:103B80000021914202D130BCFFF79CBF90F8203059
:103B9000655C00EBC3130B4483F8AA500131F0E7D6
:103BA00038B5054608460C4600F0F3F921460246B2
:103BB0002846BDE83840FFF7DEBF000010B50446D8
:103BC000084600F039FA00F01EFA217D227B81427E
:103BD000636811D1012161755AB158691B8B0321AA
:103BE00002220BF045FB2046BDE810400949FFF7D3
:103BF000D7BFD8681B8AF2E7002161753AB15869CE
:103C00001B8B0122BDE8104000210BF031BBD868AE
:103C10001B8AF6E7DE23010830B5044685B0084666
:103C200000F00AFA0378302B26D0322B144D18BF3F
:103C30004FF46125637DA3B10A22294601A800F053
:103C4000B7F920460F49FFF7ABFF20460E49FFF7B3
:103C5000A7FF204601A9FFF7A3FF20460B49FFF766
:103C60009FFF2946A0680BF099FF0021A06805B0CE
:103C7000BDE830400BF0ADBF4FF4E135DAE700BFEF
:103C800010552200DD230108E3230108792A0108E9
:103C900010B50446084600F0CFF9037823B1303B55
:103CA00018BF012384F8293094F829302BB1044936
:103CB0002046BDE81040FFF773BF0249F8E700BF98
:103CC000F2230108FC2301082DE9F0414368044672
:103CD000597A58680BF08AF90546C0F1800710B987
:103CE0002046FFF71EFE94F82930A06813B1E3695F
:103CF000BB4254DB08210BF0AAFF10B1A0680BF007
:103D00009EFF002F40F39280651B95F8A9300A2B87
:103D100001D00D2B77D16368597A58680BF04BF9B5
:103D2000012F37D00022E31904F12A0683F82A2054
:103D300020213046E26100F033F990F8008005461A
:103D4000B8F1000F33D10A21304600F029F90546B9
:103D500084F8AA812B7823B90D21304600F020F990
:103D60000546002330462B703149A36100F0FAF874
:103D700018BB204604F5D571FFF720FF0027A36983
:103D8000BBB3A0680BF05FFFA36920465B6804F536
:103D9000D57198472046BDE8F041FFF7C2BD5A1CD7
:103DA000E261234493F82A100BF030FF9BE7411C9B
:103DB00004F5D57000F0E4F8CCE730461D4900F07A
:103DC000D1F828B9204604F5D571FFF725FFD5E7CE
:103DD0003046194900F0C6F828B9204604F5D571D7
:103DE000FFF756FFCAE731462046FFF757FEA061AE
:103DF000C5E7012FCEDD637D002BCBD020460F49D8
:103E0000FFF7CEFEC6E794F82A30212B0ED1A36926
:103E100063B12046FFF785FD0023E361A3692046D7
:103E200004F5D5715B68BDE8F0411847BDE8F08145
:103E300007240108122401081B240108202401087A
:103E4000034BC1B21B681A6818461268104700BFBE
:103E5000702B002004F012B807B50749D1F8F027FD
:103E6000D1F8EC37D1F8E8170091044900F0F2FAE4
:103E700003B05DF804FB00BF00F0FF1F3B24010806
:103E800005F066B973B5144800F0D2FA134800F093
:103E9000CFFA0025EEB23046FFF7F0FC044630467C
:103EA000FFF722FD68B93046FFF718FDC3070DD4B0
:103EB00063690B4800936168D4E9032300F0B8FA02
:103EC00004E03046FFF710FD0128ECD00135E72D66
:103ED000E0D102B070BD00BF442401085B2401089A
:103EE0007724010870B50B4900F0B4FA0024E6B25B
:103EF0003046FFF7C3FC05463046FFF7EFFCC3072B
:103F000004D4D5E90112044800F092FA0134E72CF8
:103F1000EDD170BD8A240108AC240108F8B505462E
:103F20000024E6B23046FFF7A9FC47683046FFF7A9
:103F30003DFC013403463A462846034900F08AFA1C
:103F4000E72CEED1F8BD00BFB624010810B5044639
:103F5000FFF79CFC2046BDE81040014900F07ABA0A
:103F6000BF240108431E013913F8010F11F8012F76
:103F700010B10AB19042F7D0801A18BF01207047E3
:103F8000013911F8013F0BB90370704700F8013B8C
:103F9000F7E7034600201A5C02B970470130FAE7E0
:103FA0000346184613F8012B0AB18A42F9D170472B
:103FB000002970B518DA2D23012400F8013B49428D
:103FC000034691FBF2F602FB161130311970311ED7
:103FD0001D4603F10103F4DC00221A700246AA42D6
:103FE0000AD3241A181904E004D130234170037055
:103FF000012070BD0024E3E711782E7802F8016BF0
:1040000005F80119EBE730B503782D2B11D14FF0EE
:10401000FF34013000210A25431E01E005FB012188
:1040200013F8012F303AD0B20928F7D904FB01F078
:1040300030BD0124EEE7000010B5134C014610F826
:10404000012BA2F10A03DBB2162B19D824FA03F3D1
:10405000DA07F3D40846FFF79CFF01380844814291
:1040600004460AD2237801380A3BDBB2162B04D867
:10407000054A22FA03F3DB07F1D40023637001E061
:10408000002AE7D1084610BD09004000002310B502
:10409000934200D110BD51F8234040F82340013332
:1040A000F6E7013A00D2704740F8041BF9E72DE922
:1040B000F041174682800022013B0E46016082716A
:1040C000082B0BD8DFE803F0080E0C181505242682
:1040D0001A000024002513E0012383710224F9E76C
:1040E0000123837102240025394630460BF000F984
:1040F00006E001248471EDE70124EBE702240325A7
:104100003B46224629463046BDE8F0410BF0B0B8A8
:104110000024F4E701240325E6E770B50C1EACBFCC
:1041200001234FF0FF335C430133064608BF2D23C4
:104130004FF0640208BF06F8013B611104F01F0450
:104140000546544330460A22FFF732FF2E226411FF
:10415000092C3254D8BF302206EB0003D8BF5A7066
:1041600021464FF00A02CCBF581C981CFFF720FFD5
:10417000284670BDF0B503782D2B17D14FF0FF36D0
:10418000013000244FF00A0C02E018460CFB0454E6
:10419000034613F8012BA2F13005EFB2092FF4D931
:1041A000AAB98C40144406FB04F0F0BD0126E8E7F0
:1041B0008B4003EB650393FBF5F30CFB05F51A4409
:1041C00010F8013F303BDFB2092FF1D9E9E70A25AA
:1041D0000022AC46F4E72DE9F047141E05460F46D1
:1041E00016DC4FF02008DB0720D50026B94626E074
:1041F0000132B95C0029FBD1A242ACBF0C46A41A23
:1042000013F0020F14BF4FF030084FF02008EAE718
:104210000022EEE72B68494628461B689847013E76
:10422000002EF7DC24EAE476A41BDFE726465FFADB
:1042300088F9F5E72B6828461B689847D146CA4697
:104240001AF8011B0029F5D1A2465FFA88F8BAF1E5
:10425000000F06DCF01B4844002CA8BF0019BDE885
:10426000F0872B68414628461B6898470AF1FF3AB9
:10427000EDE72DE9FF470746DDE90C8A15461C46A8
:1042800051B930234246ADF8003069465346FFF736
:10429000A2FF04B0BDE8F08723B10A2A2DD100297E
:1042A0002BDA494200230E9A8DF80D303A3A0DF17F
:1042B0000D03B1FBF5F005FB1016092E88BFB618EB
:1042C00030368D4203F1FF3903F8016C17D964B120
:1042D000B8F1000F16D01AF0020F13D03B682D2151
:1042E00038461B68984708F1FF385346424649460E
:1042F0003846FFF770FF2044CBE70024D2E70146A1
:104300004B46D6E72D22002409F8012CA3F102091F
:10431000EBE70846FFF794BD2DE9F04107460E464E
:10432000144600254FF00A088CB0317819B9284698
:104330000CB0BDE8F081252972D171780029F6D042
:10434000252906F101026AD02D290ABF0123002385
:10435000B21C164612F8011B302915D00022304637
:1043600010F8011BA1F1300C5FFA8CFEBEF1090FB1
:104370000DD966293FD00ED8632947D064291AD0B9
:1043800058292ED00136D0E743F00203E1E7064674
:1043900008FB02C2E3E7752926D0782919D07329D2
:1043A000F0D1216821480434002908BF014638466D
:1043B000FFF711FF0BE061202146CDE90130012319
:1043C00000920A22384609680434FFF752FF054478
:1043D000D8E721466120CDE9013000920023102268
:1043E000F0E721464120F6E761202146CDE9013082
:1043F00000920023E5E7216808A8CDE904230434EE
:10440000FFF78BFEDDE9042308A9D0E72168043417
:104410008DF81C1000218DF81D1007A9C7E716465E
:104420003B6838461B6898470135ABE719250108FA
:104430000FB407B504AA52F8041B054B6846CDE932
:104440000032FFF769FF03B05DF804EB04B070477A
:10445000E02B01080EB403B503AA52F8041B019225
:10446000FFF75AFF02B05DF804EB03B0704700009D
:1044700008B529480AF0C0FA27480AF0C2FA2648C7
:104480000AF0C9FA24480AF0C1FA012122480AF0C8
:104490009EFA21480AF062FA1F480AF07BFA1E4889
:1044A0000AF08BFA1D4A08211B480AF0B9FA1A488B
:1044B0000AF0EEFA4FF4602117480AF061FA012180
:1044C000174A18480AF080FD0121174A15480AF0DA
:1044D00084FD4FF48072012112480AF02FFD4FF441
:1044E000806201210F480AF01DFD602201210D4864
:1044F0000AF083FD01210B480AF02CFD0121094837
:104500000AF031FD074801210AF04CFDBDE80840E2
:1045100001480AF0B3BA00BF002401405C2D00201E
:104520004C240140000002409C2C0020884205DD04
:10453000914208DC9042A8BF10467047904203DCCD
:104540009142A8BF11460846704737B56D460468CA
:1045500004F13003F03433F8102C33F8201C33F816
:10456000300CFFF7E3FF3033A34225F8020BF2D102
:10457000BDF80230BDF800001844BDF804301844FE
:10458000BDF806301844C0F38F0003B030BD000002
:1045900008B50D4B98420BD003F5806398420BD0C1
:1045A000A3F5006398420BD1072909DCC8B208BD06
:1045B000012905DC0831F9E7052901DC0A31F5E7B5
:1045C0000AF0D4F91020F2E7000C0140012370B585
:1045D00093400C4615460022064611469BB22046E3
:1045E0000AF046FE29462046FFF7D2FF3368034A09
:1045F0009B1A034AC3F34F03D05470BD9C2C002078
:104600005C2D00200D4B0E4A991C13600D4A116061
:104610000D4A191D11600D4A991D11600C4A03F1D4
:10462000080111600B4A03F10A0111600A4A03F103
:104630000C011160094A0E33136070479C2C002056
:10464000982C0020942C0020902C00208C2C0020F2
:10465000882C0020842C0020802C00207C2C002022
:10466000114A124B30B553F8213052F82140194607
:10467000A342A8BF2146026802F1C8058D4206DBAD
:10468000A342B8BF234603F1C804A24202DD016081
:10469000002030BD8A4202DA01600120F9E79A4227
:1046A000FBDD0360F9E700BF9C2E0020942E002064
:1046B000012970B516D80C4B53F821500B4B53F809
:1046C0002160B5420ED0401B0CF0F0F90446701B7F
:1046D0000CF0ECF9014620460CF0F0FA04490CF01D
:1046E00039FA70BD0020FCE79C2E0020942E00209B
:1046F0000000C842F8B5224B05461C68014620461A
:104700000CF0E4FB00B12C461E4B21461E683046DF
:104710000CF0BEFB00B126461B4D31462F683446D7
:1047200038460CF0BFFB002198B130460CF0CEFBB0
:1047300068B1164B196838460CF004F93146044646
:104740000CF0C4FB00B1344620462C60F8BD104B81
:10475000F0E730460CF0B0FB0028F5D100213846D8
:104760000CF0B4FB48B10020094B19680CF0E8F8D4
:10477000314604460CF08CFBE4E73846F4E700BF12
:10478000802E0020782E0020482E00206C2E002045
:10479000702E0020F8B5054685200E461746FFF717
:1047A0000BF83146044628460CF07CFBE0B94FF08C
:1047B000804130460CF0C6F829460CF087FBA8B1C2
:1047C000A1B2852041F01001FFF716F8124D3E68A6
:1047D000002130460CF070FBA0B1294630460CF0A9
:1047E00057FB28B1344604E00C4DF0E70025EEE716
:1047F0002C46284609493C600CF04AFB003818BF9B
:104800000120F8BD05F10044214630460CF05EFB66
:104810000028EED0E6E700BF000048420000C84292
:104820002DE9F843064628200C46FEF7CDFF2D4F14
:10483000DFF8B48038602920FEF7C6FFC8F8000012
:104840008520FEF7B9FF4FF6FC75D7F800900540BC
:10485000002148460CF03AFB10B3002130680CF000
:104860002BFB224F10B3494620460CF069F8204933
:104870000CF070F9002104460CF00AFB00B1002492
:104880003C603768214638460CF020FB08B145F003
:104890000105214638460CF0FBFA00B13C46346075
:1048A0002946BDE8F8438520FEF7A6BF2046D8F884
:1048B00000100CF045F80E490CF04CF900210446AC
:1048C0000CF004FB00B100243C60376821463846F8
:1048D0000CF0DEFA08B145F00205214638460CF02E
:1048E000F5FADAE7682E0020642E0020502E002012
:1048F000000060402DE9F8430D46334C334906462D
:1049000020680CF027F929460CF01CF84FF076517E
:104910000CF020F920602A20FEF756FF2C4FDFF81C
:10492000B48038602B20FEF74FFFC8F800008520C8
:10493000FEF742FF4FF6F375D7F8009005400021CF
:1049400048460CF0C3FA00B3002130680CF0B4FA0A
:104950002468214FF8B1214648460BF0F1FF0021B1
:1049600004460CF095FA00B100243C6037682146FB
:1049700038460CF0ABFA08B145F008052146384638
:104980000CF086FA00B13C4634602946BDE8F84395
:104990008520FEF731BF2046D8F800100BF0D2FF7B
:1049A000002104460CF092FA00B100243C60376804
:1049B000214638460CF06CFA08B145F00405214652
:1049C00038460CF083FADDE7682D002000007041C6
:1049D0005C2E0020602E00204C2E0020104B70B565
:1049E0001A68066801EB0214A41A24110546002176
:1049F00030461C600CF06AFA88B10A4B1B681B1B1E
:104A000048BF03339B1023EAE3700CF04FF80446D1
:104A1000014630460CF05AFA00B126462E6070BDB1
:104A2000642D0020582E0020F8B50E4A0546147853
:104A30000D4F0134E4B2312C8ABF002323461C46BB
:104A40000A4E386856F8241013700BF079FF294687
:104A50000BF078FF0649386046F824500CF02EF928
:104A6000F8BD00BF6C2D0020382E0020702D0020D6
:104A700000004842000000002DE9F74F0646A12043
:104A800091468846FEF798FE0446AA20FEF794FE5B
:104A9000074684EAE470A0EBE4700CF007F8DFF856
:104AA000F8B10446DBF8005029460BF049FF00211D
:104AB00001900CF0EDF9019B08B103F10043774A36
:104AC0001946D2F800A050460CF0E2F950B1294640
:104AD00020460CF0FBF9514600283DD028460BF04B
:104AE00031FF0446CBF80040002F00F0CF80204675
:104AF0000CF00CFA0546B9F1000F31D0632840F3F1
:104B0000C5800BF0D3FF664B0646D3F800804146C4
:104B10000CF0BEF9002840F0B980624B30461F68A7
:104B2000614B39461C680CF0B3F988B140460CF073
:104B3000EDF9064620460CF0E9F9AD1B4543384631
:104B40000CF0E4F9801B95FBF0F00BF0AFFF04468E
:104B5000204603B0BDE8F08F28460BF0F1FEC0E719
:104B600041463046FFF7A4FD504B04461E680146FF
:104B700030460CF0ABF9002876D1314620460BF0D8
:104B8000DFFE314604464A480BF0DAFE014648484B
:104B90000CF094F821460BF0DDFF0646454B3046FD
:104BA0001E60FFF741FF0146044630460BF0C8FE89
:104BB000414980460CF06CF930B94FF07E514046C7
:104BC0000CF084F900B92646632D4FDD28460BF022
:104BD0006DFF334B8046D3F800A051460CF058F9D6
:104BE000002843D12F4B4046D3F80090334B494621
:104BF0001C680CF04DF998B150460CF087F98046CE
:104C000020460CF083F9A5EB0805454348460CF017
:104C10007DF9A0EB080095FBF0F00BF047FF044690
:104C2000274D012F2C6023D1204626490BF092FFFF
:104C300004462449244B18680BF08CFF21460BF0E6
:104C40007FFE31460BF086FF19490CF037F82146FC
:104C50000BF078FE0BF06EFB0DA3D3E900230BF0F5
:104C6000C1FB0BF019FE72E7002697E70024D7E797
:104C70002720FEF7A1FD08B900232B601149286801
:104C80000BF068FF0F490446104BD4E700245FE7A0
:104C90009A9999999999B93F442E0020542E002051
:104CA0008C2E0020902E0020842E0020742E0020B8
:104CB0000000C8423C2E0020000080BF882E00204B
:104CC000402E002000002041802E00207C2E00205D
:104CD0002DE9F341DFF8808005462C201E460C4666
:104CE0001746CDF80480FEF76FFD01AA014638464D
:104CF000FFF750FD2D20FEF767FD01AA0146304663
:104D0000FFF748FD294601A8FFF78AFD214601A8C3
:104D1000FFF7F0FD089901A8FFF760FE41460198F2
:104D20000BF0CCFF4FF07E5104460CF0CFF820B9C9
:104D3000002120460CF0ACF860B94FF07E512046BF
:104D40000CF0C4F820B14FF07E5002B0BDE8F08105
:104D50002046FAE70020F8E70000C842F7B51E46F3
:104D60001F4B05462C2001930C461746FEF72CFDE1
:104D700001AA01463846FFF70DFD2D20FEF724FD60
:104D800001AA01463046FFF705FD294601A8FFF7B5
:104D900047FD214601A8FFF7ADFD089901A8FFF7DF
:104DA0001DFE01980F4900F100400BF087FF4FF006
:104DB0007E5104460CF08AF820B9002120460CF000
:104DC00067F858B94FF07E5120460CF07FF818B1C3
:104DD0004FF07E5003B0F0BD2046FBE70020F9E71E
:104DE0000000C8C20000C842024B00BF013BFCD11A
:104DF000704700BF00127A0010B50446002240F24E
:104E0000215102F03AFA002240F22251204602F0EB
:104E100034FA002240F22351204602F02EFA0022FA
:104E200040F22451204602F028FA002240F2255197
:104E3000204602F022FA002240F22651204602F0DB
:104E40001CFA002240F22751204602F016FA2046B2
:104E5000BDE8104000224FF4A56102F00EBA000038
:104E6000002313B5054A40F21141CDE90023036840
:104E70006A465C680823A04702B010BD34000100F8
:104E80003222002313B5CDE9002303686A465C682B
:104E900040F211410823A04702B010BD002313B512
:104EA000054A40F21141CDE9002303686A465C6877
:104EB0000823A04702B010BD340101002DE9F743DB
:104EC0000026174B04461E702025FFF7C9FF4FF040
:104ED0004209FFF789FF4FF4C848236801966A46E4
:104EE00040F2114120465F688DF8005008238DF88C
:104EF0000190ADF802800135B847EDB22046FFF7CA
:104F000073FFFFF7BDFFFFF76FFF292DE5D12046A7
:104F1000FFF7C4FFFFF768FF03B0BDE8F08300BFF1
:104F20000C1D0020D0F80220014B1A60704700BF12
:104F3000C02E0020D0F80220014B1A60704700BF3D
:104F4000B02E0020D0F80220014B1A60704700BF3D
:104F5000AC2E0020D0F80220014B1A60704700BF31
:104F6000A82E0020054A1388013313800A22D0F8A6
:104F7000023093FBF2F3024A13607047C42E002004
:104F8000A42E0020D0F80220014B1A60704700BF09
:104F9000B82E0020D0F80220014B1A60704700BFE5
:104FA000BC2E0020D0F80220014B1A60704700BFD1
:104FB000B42E002003466FF4A46213440846072B66
:104FC00015D8DFE803F00406080A0C0E1012FFF7EC
:104FD000A9BFFFF7AFBFFFF7B5BFFFF7BBBFFFF735
:104FE000C1BFFFF7CFBFFFF7D5BFFFF7DBBF7047EC
:104FF0000161704741617047007A7047007A7047DD
:105000000023C372704710B5044600226160084651
:105010004FF4987102F031F900224FF43F7160684B
:1050200002F02BF900224FF49061606802F025F93C
:1050300060680022BDE810404FF4D07102F01DB945
:105040002DE9F0410025BCB00F46F02268460F491B
:105050000BF0A2FF6C461426A84620680BF026FD34
:1050600039460BF01FFF08B1D4E90185013E04F178
:105070000C04F2D141467420FEF7BEFB2946752090
:105080003CB0BDE8F041FEF7B7BB00BF2C2C0108D7
:1050900010B404686468A44610BC6047037E73B50E
:1050A0000446002B50D0AA20FEF786FB324B002886
:1050B0004CD10321314A20731170E1221A701B7800
:1050C0002F4D8DF800300C238DF801308F238DF893
:1050D00002302B7860688DF80330F0238DF80430AF
:1050E00003686A464FF4E9715E680523B0472B7880
:1050F0003B201033DBB2ED2B08BF0D232B70FEF7E6
:105100005BFB204BC0B21A78824215D04FF4095293
:10511000ADF8002000228DF802204FF0FF320192FE
:1051200030BB30228DF8032018706A46082340F205
:1051300092516068FFF7ACFF236895201D6AFEF767
:1051400043FB01462046A84702B070BD421C06D171
:10515000012202212273094A1170D222AEE70128EE
:10516000ADD1032208212273044A11707822A5E7E9
:105170000828D9D13122D5E7121D0020111D0020A9
:10518000CC2E0020C62E00200B7803F001034372C2
:105190000B78C3F3800303720B78C3F3001383729D
:1051A0008B78C3F3C0034376704700000000000013
:1051B00008B54B7808781B0203F4706318440BF0B1
:1051C000A7F809A3D3E900230BF00CF90BF064FB5B
:1051D00007490BF0BFFCBDE808400146A220FEF7DE
:1051E00019BB00BFAFF300809A9999999999B93F7B
:1051F0002B121F3F0B78842B03D10121E520FEF7F2
:10520000FBBA812B01D10021F8E770474B78323B84
:1052100018BF0123037670470B46B3F53F7F114655
:105220000FD006DCB3F5987F07D0B3F5D07F06D05A
:105230007047B3F5906F06D07047FFF7A5BFFFF733
:10524000B7BFFFF7D7BFFFF7E1BF000003682DE945
:10525000F74F5B6B04460D469847644E002800F0FC
:10526000BE80A120FEF7A8FA40F2ED23984240F359
:10527000B380A120FEF7A0FA800080B2072294211B
:10528000337843F0500300278DF802200A44AA32F5
:1052900002EB10228DF80130ADF804001344C0B2C7
:1052A00003449AB202EB232360686A468DF8061025
:1052B0008DF80030AA2108238DF807708DF803704F
:1052C000FFF7E6FEBD420CBF04226422DFF820A1F6
:1052D0004FF00F0B9AF80000DFF8189100F5FC73FF
:1052E000D11801EB11238DF800304EF22103ADF8F7
:1052F000023041F62173A8218DF80100ADF8043089
:10530000606808238DF807206A46DFF8EC808DF886
:1053100006B0FFF7BDFE99F800306A468DF8003000
:1053200098F80030A9218DF801304DF67973ADF869
:105330000230324B606801930823FFF7A9FE304D1D
:10534000304B297818788DF8061043188DF8000036
:10535000FF2003F5E47202EB1223BA216A468DF8AE
:1053600001008DF8053060680723ADF802B08DF8B4
:105370000470FFF78DFE33782349013333700B78C7
:10538000224A01330B709AF80030287801338AF8EA
:10539000003099F800300130013389F8003098F876
:1053A00000302870013388F8003013780133DBB205
:1053B0005C2B13700DD1BE230B70E92389F80030EC
:1053C0004D231370802337708AF8007088F80070BE
:1053D0002B7003B0BDE8F08F40F6B8304EE733785D
:1053E000FE22842143F030034DE700BFC72E00208A
:1053F000C92E00200F1D0020C82E00201DC7E0214F
:105400000D1D0020111D0020101D00200E1D00206C
:10541000037E10B5044643B1B620FEF7E3F901461A
:105420002046BDE81040FFF711BF10BD73B506461A
:105430008020FEF7C1F9012815BF00239C231A46DE
:105440009E224FF08F0014BF1D4660258DF804305A
:105450008DF80520FEF7B8F9014622480BF070FAE6
:10546000214904460BF032FD002836D120460BF0CE
:105470004DFD64234FF4FA72434393FBF2F303F1BF
:1054800032000BF013FB19490BF05CFA3C23184C6B
:105490008DF800300BF060FD23786A461D43C3236E
:1054A0008DF8033048F2CD234FF4E8718DF80100F8
:1054B000ADF80630706808238DF80250FFF7E8FD5C
:1054C0000C4A217813788B4209D10133DBB20F2BC0
:1054D00008BF0023237002B070BD0748D6E71170E3
:1054E000F9E700BF0000C84200400344000040420A
:1054F000CB2E0020CA2E002000001643037E73B579
:105500000446A3B148F261230093C37A63B903252B
:1055100060686A46036840F232315E680223B04731
:10552000013DF5D10123E3722046FFF77FFF02B072
:1055300070BD0161704741617047007A7047007A21
:1055400070470023C372704710B5044600226160A3
:1055500008464FF4987101F090FE00224FF43F711D
:10556000606801F08AFE00224FF49061606801F0EB
:1055700084FE00224FF4D071606801F07EFE606806
:105580000022BDE8104040F2FE3101F076BE00007E
:105590002DE9F84F00260D463446DFF8A48030464A
:1055A0000BF084FAA34629460134074658F83460C4
:1055B00008EBC40A0BF076FC00283CD030460BF018
:1055C00075FA294681460BF077FC002833D008EBAA
:1055D000CB0BDBF804000BF069FA0446DAF80400A0
:1055E0000BF064FA21460BF0ABF939460646284623
:1055F0000BF0A6F93946054648460BF0A1F90146DD
:1056000028460BF05BFB014630460BF0A3FA21461F
:105610000BF098F94FF07C510BF094F90BF076FCFD
:10562000044621467420FEF7E7F82146BDE8F84F0E
:105630007520FEF7E1B8072CB1D1FF24F1E700BFD8
:10564000642D0108037E37B504462BB33B20FEF7DB
:10565000B3F8144BC0B21A78824215D04FF40952F5
:10566000ADF8002000228DF802204FF0FF320192A9
:10567000A0B930228DF8032018706A46082340F242
:1056800092516068FFF704FD236895201D6AFEF7BC
:105690009BF801462046A84703B030BD0828EBD14F
:1056A0003122E7E7D42E00200B7803F00103437288
:1056B0000B78C3F3800303720B78C3F30013837278
:1056C0008B78C3F3C00343767047000000000000EE
:1056D00008B54B7808781B0203F4706318440AF08D
:1056E00017FE07A3D3E900230AF07CFE0BF0D4F8E1
:1056F000BDE808400146A220FEF78CB8AFF3008059
:105700009A9999999999B93F10B50B780C46842BC1
:105710000BD10121E520FEF76FF86178E620BDE8A6
:10572000104001F00101FEF767B8812BF5D100218F
:10573000F0E74B78323B18BF01230376704708B57A
:10574000B1F900000BF0B2F94FF074510BF002FA0E
:10575000BDE808400146A420FEF75CB80978BC20EB
:105760008B1E59425941FEF747B80B46B3F53F7FB0
:10577000114615D008DCB3F5987F0DD0B3F5D07F76
:105780000CD0B62B10D0704740F2FE3293420DD0B1
:10579000B3F5906F06D07047FFF786BFFFF798BF4D
:1057A000FFF7B2BFFFF7C5BFFFF7C9BFFFF7D6BF0F
:1057B00003682DE9F7435B6B04460D469847534E4B
:1057C000002800F09D80A120FDF7F6FF40F2ED23B8
:1057D000984240F39280A120FDF7EEFF800080B256
:1057E00007229421337843F0500300278DF80220DC
:1057F0000A44AA3202EB10228DF80130ADF8040001
:105800001344C0B203449AB202EB232360686A4691
:105810008DF806108DF80030AA2108238DF8077046
:105820008DF80370FFF734FCBD420CBF04226422E4
:10583000DFF8DC90DFF8DC8099F800008DF80720B5
:1058400000F5FC73D11801EB11238DF800304EF2F6
:105850002103ADF8023041F62173ADF804300F2377
:105860006A46A8218DF801008DF80630606808238B
:10587000FFF70EFC284D98F8003060688DF8003076
:105880002B786A468DF801304DF67973ADF8023009
:10589000224BA92101930823FFF7FAFB3378204814
:1058A0000133337003781F490133037099F80030D6
:1058B0001D4A013389F8003098F80030147801331C
:1058C00088F800302B78013401332B700B7814707A
:1058D0000133DBB25C2B0B700CD1BE230370E923C8
:1058E00088F800304D230B708023377089F80070E2
:1058F0002F70137003B0BDE8F08340F6B8306FE747
:105900003378FE22842143F030036EE7D52E002049
:10591000D72E0020151D0020D62E00201DC7E02107
:10592000161D0020141D0020131D0020037E10B53D
:10593000044643B1B620FDF755FF01462046BDE8B9
:105940001040FFF735BF10BD2DE9F3470746AB20E8
:10595000FDF73AFF0446AC20FDF736FF4D490546FA
:1059600020460AF0EFFF002104460BF091FA0028D0
:105970007ED1204648490BF0A9FA00287AD120466A
:105980000BF0EAFAC6B2434928460AF0DBFF0021D1
:1059900004460BF07DFA00286ED120463E490BF0FC
:1059A00095FA00286AD120460BF0D6FAC5B28020BD
:1059B000FDF702FF01284FF00004DFF8E08061D11D
:1059C0003D20FDF701FF36490BF078F982468B2028
:1059D000FDF7FAFE214681460BF05AFA00284FD017
:1059E000304909F100400BF0B5F851460BF066F96B
:1059F0002D490BF0AFF8D8F800100AF0A3FF4FF0D4
:105A00008F4104460BF058FA28B120464FF08F41E1
:105A10000AF096FF04462046C8F800400BF09CFAB6
:105A20006023ADF80400214C4FF4E87122787868C7
:105A300013438DF80230C3238DF8033049F2CD6350
:105A40006A46ADF8063008238DF800608DF80150E5
:105A5000FFF71EFB164A217813788B4218D10133C9
:105A6000DBB20F2B08BF0023237002B0BDE8F08724
:105A7000002688E7CF2686E7002598E7CF2596E71A
:105A80002046B2E70023C8F80040ADF80430CAE76A
:105A90001170EAE70000404200004F43D02E002082
:105AA00000007C425304E93700247449D92E0020B9
:105AB000D82E0020037E73B50446A3B148F26123BB
:105AC0000093C37A63B9032560686A46036840F2AD
:105AD00032315E680223B047013DF5D10123E37204
:105AE0002046FFF731FF02B070BD4069704708B52E
:105AF000B0F908000AF0DAFF08BD08B5B0F90C00EB
:105B00000AF0D4FF08BD0000014B1878704700BFB1
:105B10006B2F00200000000038B51D48FEF715FD72
:105B200005461C48FEF711FD044628460AF0F0FB26
:105B300013A3D3E900230AF055FC13A3D3E90023F0
:105B40000AF09AFA0AF0A8FE054620460AF0E0FBA1
:105B50000BA3D3E900230AF045FC0BA3D3E90023F0
:105B60000AF08AFA0AF098FE0446014628460BF02D
:105B7000ADF908B1284638BD2046FCE7AFF30080F8
:105B80001213371BE91495BF988F7B2556484C405C
:105B9000842C0020802C002038B505460C461A487D
:105BA000072109F095F90721184A174809F00CFA5E
:105BB0002A460721144809F010FAA2B20721124818
:105BC00009F01BFA0721104809F0E3F907210E48F4
:105BD00009F0C0F9002207210B4809F0AFF90022B3
:105BE0000721094809F09EF94FF480520721064821
:105BF00009F08CF90448072109F0D4F9BDE83840D0
:105C000003480AF013B800BF0000024004440040FB
:105C10000044004010B504460621194809F058F91F
:105C20000621184A164809F0CFF90621164A1448E9
:105C300009F0D3F9A2B20621114809F0DEF90621D4
:105C40000F4809F09DF906210D4809F083F900225B
:105C500006210B4809F072F900220621084809F0D4
:105C600061F900220621064809F050F9044806218E
:105C700009F098F9BDE81040044809F0D2BF00BF10
:105C80000000024004440040DA2E0020004400409E
:105C900038B504463420FDF78FFD03B2022BE381B3
:105CA0001FD1344D344A2B78002B32D141F6583174
:105CB000B4F90C00884201DD0121117011782F4ADE
:105CC0008B4248D0012313702D4B93F900002D4BCC
:105CD00010B91878013018701878042822D10BB246
:105CE000E381012B08D12848FBF702FE2748FBF788
:105CF000FFFD2748FBF7FCFDB4F90E30C3B922487D
:105D0000FBF7F6FD2148FBF7EFFD2148FBF7ECFD23
:105D10000EE0012BD2D1B4F90C10B1F5FA6FCDDA47
:105D20000021CAE7052803D12970002119701170DC
:105D3000B4F90E30032B0DD1AA20FDF73DFD013043
:105D400011480DD1FBF7D4FD1048FBF7CDFD1048ED
:105D5000FBF7CAFD38BD00211BB2E3811170C0E71B
:105D6000FBF7C6FD0948FBF7C3FD0948FBF7C0FD7B
:105D7000F0E700BF682F0020672F00206A2F002067
:105D8000692F0020662F0020E42B0020F42B002038
:105D9000EC2B0020000000002DE9F84F05461220F2
:105DA0000E46FDF709FD8E4BC4B21B78012B40F067
:105DB000B6802846FFF76CFF30468A490AF0CAFED3
:105DC00089490AF07BFF0BF0A1F8884FDFF82082A9
:105DD00097F900A0A8F8000050460AF067FE314687
:105DE0000AF0B8FE0AF0A6FA7BA3D3E900230AF072
:105DF000F9FA0AF051FD7F4906460AF0ABFE7A49EE
:105E00000AF05CFF0BF082F87B4BDFF8F0911A7818
:105E10002862A9F80000002A00F0D880BAF1000F2B
:105E20002EDD2420FDF7D0FC834697F900000AF010
:105E30003DFE7349824658460AF08CFE01465046A4
:105E40000AF07EFD0BF062F840B200286A4B3DDBA1
:105E50006328387014DC1B7893B92420FDF7B4FC58
:105E6000824697F900000AF021FE51460AF06AFDC9
:105E70000BF04CF840B26428CABF642338703B7002
:105E8000B5F90E302BBB002130460BF001F800B302
:105E9000B9F900000AF03CFA00225A4B0AF0A2FAC3
:105EA0000AF0B2FCA9F80000B8F900000AF030FAD4
:105EB0000022544B0AF096FA0AF0A6FCA8F800005B
:105EC000032C14D8DFE804F00B100E1A00223A70ED
:105ED000C1E7032C0BD8DFE804F00207050C2B6A9E
:105EE000002B04DA424B00E0444B00221A80BDE84C
:105EF000F88F304644490AF0E9FF18B90023A8F8A2
:105F00000030F4E730460BF001F841F21713323855
:105F10005843322390FBF3F0A8F80000E7E7022B88
:105F20001ED1344930460AF015FE2F490AF0C6FE4C
:105F30000AF0ECFF314A03B2138013EB83032C49C0
:105F400048BF03339B1028620B800CB90028C8E7B8
:105F5000012C02D100231380C9E7022CC7D1C1E76D
:105F6000032BC4D1234930460AF0F4FD1E490AF040
:105F7000A5FE0AF0CBFF214A03B2138013EB830383
:105F8000286248BF03331A4D9B102B80032CAED8D8
:105F900001A353F824F000BF4D5F0008E95E00083C
:105FA000E55E0008A95F0008304617490AF08EFF39
:105FB00008B928809BE730460AF0A8FF41F2171382
:105FC00032385843322390FBF3F0F2E7BAF1630F13
:105FD0003FF756AF41E700BF7B14AE47E17A843FFD
:105FE000752F002000B888450000C842692F0020A6
:105FF0006E2F002000C05A456A2F00206C2F002011
:106000000000A0400000E03F0000484210B58020A2
:10601000FDF7D2FB08B902F06DFF8020FDF7CCFB45
:10602000012842D12148FBF745FC0146BD20FDF780
:10603000E3FB1F48FBF73EFC0146BE20FDF7DCFBFF
:106040001C48FBF737FC0146BF20FDF7D5FB19487C
:10605000FBF730FC04461648FBF72CFC84F00103E8
:1060600080F001046400114844EA8304FBF722FC39
:1060700064B280F0010044EA00035BB20E4C062BD0
:10608000237003D10021C220FDF7B6FB2378052B36
:1060900003D10121C220FDF7AFFB3520FDF78CFBBA
:1060A000BDE8104080B202F025BF10BDDC2B0020FF
:1060B000D42B0020CC2B0020702F0020034B1B780A
:1060C000012B01D1FFF7A2BF704700BF752F002041
:1060D00000220B4870B5134605468C1E944209DC1D
:1060E000294411F8012C285D40EA0220C31A5842C5
:1060F000584170BD10F8016B013233449BB2EDE79B
:10610000DA2E0020002070B5084C034622468D1E72
:10611000854205DC53550A441B0A02F8013C70BD58
:1061200014F8016B013033449BB2F1E7492200209F
:10613000F8B5B64D04462B780E2B3ED8DFE813F0A9
:106140000F0016003B003E007600BB00BD00DC00E7
:10615000DE000A0180018C01A501A701D1016420A4
:10616000FFF758FDAA48FBF7C3FB1EE0A94CA8485F
:10617000FBF7BAFB23787BB902220721A64808F077
:10618000BCFE90B107210222A34808F0B1FE5021C5
:10619000A248FFF701FD08E05021A148FFF7FCFCF1
:1061A000A04B5B7823B9012323702B78013303E0E4
:1061B0002378013BF8E703232B70F8BD6421FFF738
:1061C00087FF984E984F38B90021B2206181A18194
:1061D0003970FDF711FB23E0022206218E4808F0FA
:1061E0008CFE0028F0D0022206218B4808F080FEA9
:1061F00001233B70B6F85230053B03EBD3735B10C1
:10620000238196F92A000AF051FC606196F9560044
:106210000AF04CFCF388A0616381B6F81F30A381BB
:10622000002386F8623086F86330BEE77F4EA320F5
:10623000B6F90010FDF7E0FA6189A289774B0A44AC
:10624000712112B292FBF1F279491A70B1F9002072
:106250000978880083F84B0090115242C2F307225C
:106260009A711A7332884942120ADA7683F8212029
:10627000782283F83F20EC2283F840206C2283F8B8
:1062800041206B22C9B25971D972317883F84C0020
:10629000997683F820102046502183F84220FFF79A
:1062A00031FF644A1388642B8EBF002301339BB2F5
:1062B0001380002380E7782052E7564C5448FBF7C0
:1062C00013FB2378052B0ED902220721524808F030
:1062D00014FE00283FF469AF072102224E4808F05F
:1062E00007FE642154E76421534801FB0300FFF7D4
:1062F00053FC2378013357E708235DE77821FFF744
:10630000E7FE484E484F00283FF45EAF02220621C8
:10631000414808F0F2FD00283FF456AF0222062162
:106320003D4808F0E5FD01233B70B6F86430053BBD
:1063300003EBD3735B10238196F914000AF0B6FBCC
:106340006061B6F856000AF0B1FBF388A061638182
:10635000F38C64E7354EA320B6F90010FDF74CFA34
:10636000334A2E4B11785278307859719A71D9721C
:106370001A733188B6F90020266A090A002E987728
:10638000D97738DD02EBD27252101A77C2F30722A6
:106390009876D9765A77752183F84A10122183F8B6
:1063A0004B106021402283F84C10252183F84820AF
:1063B000042283F84D10522183F8492083F84F209E
:1063C000892283F84E101D4983F8562083F85820FF
:1063D0000A7820460132D2B20A70D20748BF93F839
:1063E0005E204FF0640144BF013283F85E20FFF766
:1063F00089FE0523E0E6CED002EBD27252109A76E7
:10640000C2F3072218775977DA76C4E7742F002091
:10641000C42B0020B22200200000024049220020AC
:10642000A92E0108DA2E00206B2F00206C2F0020EF
:106430006E2F0020722F00208D1F0020712F002052
:106440008020FDF7B9F901281CBF00223D4B4FF019
:106450008C0018BF1A7083E63A4C3B48FBF744FAAD
:106460002378062B0ED902220721384808F045FD73
:1064700000283FF49AAE07210222344808F038FD84
:10648000692185E6692132482FE70D2394E68C21A6
:10649000FFF71EFE2F4E08B3022206212B4808F0FC
:1064A0002CFDD8B102220621284808F021FD012345
:1064B0003370294EB6F875305B10238196F91400BD
:1064C0000AF0F4FA6061B6F819000AF0EFFA73897D
:1064D000A0616381B6F82B30A38166E60023337098
:1064E00063E61E4EA320B6F90010FDF785F91C4B9C
:1064F0002046B3F900201B4B5242D1B2C2F307220F
:106500009A711A73B6F900205971DA77121283F86A
:1065100020209A7ED97283F82520DA7E692183F8BB
:106520002620782283F84F20EC2283F85020102276
:1065300083F85120272283F85220FFF7E3FD0A2336
:106540003AE600BFB2220020C42B00200000024027
:10655000171D00206B2F0020DA2E00206C2F00204A
:106560006E2F00204922002038B5037F04468B425D
:106570000D460AD051B16020FDF71EF908B9FCF7AD
:10658000BFFEFCF7F3FE0123237738BD4FF08040B8
:1065900009F08EF92577F8E708B50121FFF7E4FF48
:1065A0000B4B1A78042A04D805221A700022094BD2
:1065B0001A7000230849094A11F8010B0133642BB2
:1065C00002F8010BF8D10222054B1A7008BD00BF7A
:1065D000742F0020B2220020DC2D01084922002067
:1065E000752F002008B50121FFF7BEFF064B1A7872
:1065F000042A04D900221A700122044B1A700122C5
:10660000034B1A7008BD00BF742F0020B222002077
:10661000752F0020012108B5FFF7A6FF0A4B0B4993
:106620001A78092A9CBF0A221A700022084B1A7095
:106630006923084A11F8010B013B02F8010BF9D15B
:106640000322054B1A7008BD742F0020402E01084C
:10665000B222002049220020752F00200021FFF7E0
:1066600083BF01817047000008B508460AF04EFC60
:10667000A622A0F10F035343412293FBF2F3024AF7
:106680005833138008BD00BF762F0020B520FDF7DA
:10669000A9B810B5044600226160084640F25311C3
:1066A00000F0EBFD60680022BDE8104040F2F311FD
:1066B00000F0E3BD40F25313994210B5044610D1E7
:1066C000B2F80100A0F5B0700AF0F0F94FF0765181
:1066D0000AF040FA0146A220FDF79CF80123E3727C
:1066E00003E040F2F3139942F8D010BD10B5044610
:1066F000C07A10B90348FBF7DDF800232073E3727A
:1067000010BD00BF842B002008B50248FBF7D2F86B
:1067100008BD00BF842B002007B540F2EE2203899C
:1067200040F21631934238BF13460522ADF80020DF
:1067300041F65832934228BF13460A229B01B3FB0D
:10674000F2F3ADF8023000236A4601934068082353
:10675000FEF79EFC03B05DF804FB000013B5154A7C
:106760000024137814498DF80030144B01941B88D1
:106770008DF80130C523ADF802300B780133DBB260
:10678000152B0CD80B7063B91123137008236A46BC
:1067900040F229314068FEF77BFC02B010BD0C705E
:1067A000F2E7082B01D18623EFE70F2BEED1D92397
:1067B000EBE700BF7A2F00207B2F0020762F0020F0
:1067C000462313B5ADF80430002340688DF8063039
:1067D000036840F23B415C6801AA0323A04702B072
:1067E00010BD000007B50D4A40F2455113884068BE
:1067F00001339BB2138000228DF801301B0A8DF803
:106800000230074B8DF800208DF8032001936A4673
:106810000823FEF73DFC03B05DF804FB782F002051
:106820007E10001807B5D1B101291AD001310CBF73
:10683000072308238DF801304FF6FF738122ADF84E
:106840000230094B8DF8002001936A46082340F27C
:106850003F414068FEF71CFC03B05DF804FB0623D3
:10686000E8E70523E6E700BF0080FFFF037B10B5E4
:106870000446BBB1FFF750FF2046FFF76FFF2046ED
:10688000FFF7B0FF2046FFF79BFF0320FCF7AAFFAE
:1068900040B1AA20FCF790FF41B22046BDE810406D
:1068A000FFF7C0BF10BD018170477047B520FCF7EE
:1068B00099BF000008B5084B186899889B792BB1DF
:1068C00008F01BFDB0FA80F0400908BD08F015FD86
:1068D000003818BF0120F8E7842B002030B51F4A8C
:1068E0001F4B89B0CDE901231E491F4B1F4CCDE939
:1068F00003131F4B1F4D05930023ADF81930237868
:106900004FF4B06163F07F038DF818302B68406856
:1069100020336B4413F81C2C8DF81B2013F8182C13
:106920008DF81C2013F8142C8DF81D2013F8102C52
:1069300013F80C3C8DF81E208DF81F3006AA082392
:10694000FEF7A6FB2B68013303F003032B602378CB
:10695000013303F00F03237009B030BD0F287F28E7
:106960001E1000107056F0560C48A7487C2F0020CF
:1069700046902890802F002037B540F2EE22038900
:106980000025934238BF134641F65832934228BF40
:106990001346044603819A009B09CDE900554FF444
:1069A00020718DF803308DF8042008236A46406872
:1069B000FEF76EFB08236A464FF4227160688DF87B
:1069C00003508DF80450FEF763FB03B030BD0000A8
:1069D00008B5034BB3F900000AF068F808BD00BF22
:1069E000902F002008B5034BB3F900000AF05EF8C1
:1069F00008BD00BF922F002008B5024B18880AF08E
:106A000051F808BD962F002008B5034BB3F90000DC
:106A10000AF04CF808BD00BF942F0020064B1A78EE
:106A2000064B0AB91A7001E0012AFBD0044A126829
:106A300002B91A70187870478C2F00208D2F002013
:106A4000882F002010B504460022616008464FF4EC
:106A5000C87100F012FC00224FF4CD71606800F0A4
:106A60000CFC00224FF4D271606800F006FC6068F4
:106A70000022BDE810404FF4D77100F0FEBB0000CB
:106A80002DE9F3410646084634490AF063F80AF056
:106A90003DFA334B01B2A3201980FCF7ADFE8020F4
:106AA000FCF78AFE0546B720FCF79CFE044618B1A9
:106AB0006B1E5C425C41E400B820FCF793FE18B109
:106AC000012D04BF1034E4B2B620FCF78BFE012D7B
:106AD00004EB8004E4B23AD1224A13881BB1013B93
