:020000040800F2
:101000000050002029F9000825F9000823F90008FC
:1010100023F9000823F9000823F900080000000064
:1010200000000000000000000000000025F900089A
:1010300025F900080000000025F9000825F900083E
:1010400023F9000823F9000823F90008F527000810
:1010500023F9000823F9000823F9000823F9000800
:1010600023F9000823F9000823F9000823F90008F0
:1010700023F9000823F9000823F9000823F90008E0
:1010800023F9000823F9000823F90008E182000889
:10109000C1820008D182000823F9000823F9000862
:1010A00023F9000823F9000823F9000823F90008B0
:1010B00023F9000823F90008A527000823F90008F0
:1010C00023F9000823F9000823F9000823F9000890
:1010D00023F9000823F9000823F9000823F9000880
:1010E000B127000823F9000823F9000823F90008B4
:1010F00023F9000823F9000823F9000823F9000860
:1011000023F9000823F9000823F9000823F900084F
:1011100023F9000823F9000823F9000823F900083F
:1011200023F9000823F9000823F9000823F900082F
:1011300023F9000823F9000823F900080D830008AB
:10114000ED820008FD82000823F9000823F9000859
:1011500010B404466468084611461A46234610BC7B
:101160001847836818477047704770477047704743
:1011700041607047704770477047704770477047CD
:1011800070470020704700207047000000487047FB
:101190000000484200207047416070477047704728
:1011A0007047704770470020704741607047704734
:1011B0007047704770477047002070477047416024
:1011C00070470020704770477047704770477047FE
:1011D000002070477047416070477047002070479B
:1011E00070474160704770470846704770477047C6
:1011F0007047704700487047003C1C46416070478C
:10120000704770477047704770474160704770473C
:101210000020704700207047002070470020704772
:101220000020704770477047104B10B5186803686E
:101230001B6898470E4B186803681B6898470D4B4E
:10124000186803681B6898470B4B186803681B688D
:1012500098470A4B186803681B689847BDE8104018
:10126000074B186803689B68184700BF20000020E0
:101270001C00002014000020100000200C000020A2
:101280000400002010B5174C206803689B6998473C
:10129000052002F031FA062818D8DFE800F0040A29
:1012A0000C0E1012200000220F4B1A700F4B2360FF
:1012B0000CE00F4BFBE70F4BF9E70F4BF7E70F4B3A
:1012C000F5E701220E4B23600E4B1A700E4C20687E
:1012D00005F0B8FF6068BDE8104005F0B3BF0B4BE8
:1012E000E5E700BF140000200E2A0020F0280020AF
:1012F000E8280020E02800201029002008290020EC
:10130000C8280020E4290020002A0020002900200D
:1013100010B5114C20680368DB699847042002F07F
:10132000EBF9042806D8DFE800F003100E121400D1
:101330000A4B23600A4C206805F084FF6068BDE812
:10134000104005F07FBF074BF3E7074BF1E7074B72
:10135000EFE7074BEDE700BF10000020F828002062
:10136000002A0020C0280020B8280020B028002033
:10137000A828002010B5124C206803685B689847C5
:10138000062002F0B9F90138052815D8DFE800F089
:10139000160E0E0310120B4B23600B4C206805F049
:1013A00051FF6068BDE8104005F04CBF074BF3E704
:1013B000074BF1E7074BEFE7074BEDE7074BEBE791
:1013C00008000020CC260020002A00209C260020B7
:1013D0006026002014260020F4260020D4260020B9
:1013E00010B50B4C206803685B689847482002F0F2
:1013F00083F9084A084B012808BF13462360074CAD
:10140000206805F01FFF6068BDE8104005F01ABFB6
:1014100004000020FC2500200C260020002A0020CB
:10142000022010B502F068F90138032815D8DFE86A
:1014300000F0020E10120A4B0A4C0B4A206813608F
:1014400005F000FF6068BDE8104005F0FBBE074BEB
:10145000F2E7074BF0E7074BEEE7074BECE700BF7F
:1014600044270020002A00200C0000202C27002008
:101470002027002038270020F025002010B501206B
:1014800002F03AF909280FD8DFE800F0171C2B0EFC
:1014900005091F222528144B144A1A6004E0124A39
:1014A000134B136000229A72124C206805F0CAFE9A
:1014B0006068BDE8104005F0C5BE0B4A0C4B1360D8
:1014C0000122F0E7084B0C4AE7E7074B0B4AE4E739
:1014D000054B0B4AE1E7044B0A4ADEE7024B0A4A96
:1014E000DBE7014B094AD8E71C0000200827002051
:1014F00078290020002A0020A42900206C2900203F
:1015000054290020C029002088290020FC26002022
:10151000036810B59B6898470FF07CFB00240146D8
:10152000982002F009F92146932002F013F9214690
:10153000942002F00FF92146962002F00BF9214683
:10154000BDE81040972002F005B9000010B51C4C12
:10155000206803689B6A9847002002F0CDF80928AC
:101560000FD8DFE800F005080A0E271C2117292BE9
:10157000144B236005E0144BFBE71448206005F092
:1015800003F8134C206805F05DFE6068BDE810406C
:1015900005F058BE0D48206005F00EF8F1E70B4845
:1015A000206004F0CBFFECE70A4B012223600A4BDA
:1015B0001A70E6E7094BDCE7094BF6E7094BD8E779
:1015C0002000002098280020182900203029002021
:1015D000002A002078280020E4290020A0280020EC
:1015E000D0250020A025002010B5144C20680368E9
:1015F0001B699847502002F07FF8032805D8DFE8E0
:1016000000F0020D0F160E4B23600E4C206805F003
:1016100019FE6068BDE8104005F014BE0A4BF3E700
:101620000A4B0B48196820600BF0ECF8EDE701223B
:10163000084B2360084B1A70E7E700BF1800002032
:1016400070280020002A0020642800209C2500200B
:101650001027002058280020E4290020B22002F0A2
:1016600061B800002DE9F74F082002F045F8484C1A
:1016700054F820100920019102F03EF854F820603F
:101680000A2002F039F854F820500B2002F034F808
:1016900054F820A00C2002F02FF854F820B00D20B0
:1016A00002F02AF854F820900E2002F025F854F8A1
:1016B0002070102002F020F854F82080112002F051
:1016C0001BF854F8203001990093324B18680368D6
:1016D000DB6A9847304B314618680368DB6B9847E4
:1016E0002E4B594618680368DB6998472C4B5146C6
:1016F000186803681B6A98472A4B494618680368AC
:101700001B699847284B4146186803685B699847EE
:10171000264B3146186803689B6998473946244828
:1017200009F0EAFE234B0099186803685B69984743
:10173000072001F0E1FF012802D1284603F0FEFA5C
:10174000072001F0D9FF022802D1284609F096F8B7
:10175000072001F0D1FF032802D1284609F0B2FA90
:10176000072001F0C9FF042802D128460CF012FF1F
:10177000002240F20161606805F047FD002240F25E
:101780000161206803B0BDE8F04F05F03EBD00BF29
:10179000002A0020200000201C000020140000204F
:1017A0001000002008000020040000200C00002091
:1017B000F82500201800002038B540F2DF73984269
:1017C00004460D4606D10A460146314809F09CFE02
:1017D000002038BD072001F08FFF012803D12946E2
:1017E000204603F089FB072001F086FF022803D181
:1017F0002946204609F082F8072001F07DFF0328E2
:1018000003D12946204609F08FFA072001F074FF22
:10181000042803D1294620460CF0DEFE1D4B2A4643
:10182000186821460368DB6898471B4B2A461868EE
:10183000214603681B699847184B2A4618682146B9
:1018400003681B699847164B2A46186821460368A7
:101850001B699847134B2A461868214603681B6882
:101860009847114B2A461868214603681B68984719
:101870000E4B2A461868214603681B6998470C4B93
:101880002A461868214603681B689847A0E700BFEE
:10189000F8250020200000201C000020140000205B
:1018A0001000002008000020040000200C00002090
:1018B0001800002008B5034699889B7900682BB171
:1018C0000DF085FBB0FA80F0400908BD0DF07FFBFC
:1018D000003818BF0120F8E708B50248FFF7EAFF13
:1018E00008BD00BF0C2B0020818800680DF06ABB8A
:1018F000818800680DF068BB2DE9F843A44BA54C26
:10190000998818680DF066FB0DF06EFBA24BA34D95
:10191000186801F0BEFE0EF04DFFA1490FF052F81D
:101920000146DC2001F016FF06F04EFA0146802049
:1019300001F002FF7E2001F0DFFE216806462868E4
:1019400006F0B0FE072001F0D7FE08B107F062F9FB
:101950002868944F03689B6A98470146B02001F0BD
:10196000EBFE28680368DB6A98470146AE2001F069
:10197000F1FE07F083F9386803689B689847286888
:1019800003689B689847884B186803689B6898476A
:10199000864B18680368DB689847854B18680368AE
:1019A0001B699847206803689B689847814B1868B3
:1019B00003689B699847804B186805F08FFC0CF012
:1019C000EFFD7E4B1B780BB10BF07CFCA72001F0E8
:1019D00093FE7B4C0028606A80F2A980FFF784FFA9
:1019E000E32001F089FE002800F0A480A72001F088
:1019F00083FE022800F09E80A72001F07DFE0028D3
:101A000000F098806069FFF76FFFB92001F074FE65
:101A10000346606C002B00F09180FFF765FF012EFC
:101A2000206940F08E80FFF75FFF3868DFF894810F
:101A300003689B6998470146A82001F08BFE38682F
:101A400003685B6998470146A92001F083FE386866
:101A500003685B6A98470EF0ADFE0146BE2001F0B8
:101A600079FE38680368DB6998470146882001F0F1
:101A700071FE2868544D03685B6B98470146BD2092
:101A800001F05AFE514BAB20196801F055FE504B46
:101A90001B78012B03D0042B01D02B7823B1D8F86D
:101AA000000003689B689847D8F80000DFF824918D
:101AB000036899F800105B6998470746002843D0EF
:101AC000012E1EBF0122444B1A7001232B70A06A05
:101AD000424B984205D0FFF7EDFE0146D52001F0BC
:101AE0002BFE0BF0A5FB0BF0BBFB042E01D0012E4F
:101AF0007AD1A82001F008FE0546D82001F004FEA6
:101B0000014628460FF066F888B3A82001F0FCFDD6
:101B10000546742001F0F8FD29460FF03DF840B36A
:101B2000E06BFFF7E1FE206CFFF7DEFE62E0FFF7FF
:101B3000DFFE55E76069FFF7DBFE66E7FFF7D8FEDB
:101B40006DE7FFF7D5FE70E72B7833B101467F20B4
:101B500001F0F2FD204B2F701F70D8F8000099F8AB
:101B6000001003689B6998471D4B1870AFE7D82099
:101B7000CCE7742001F0C8FD1A490EF065FD294636
:101B80000FF028F80028CED0E06BFFF7B1FECAE7CF
:101B9000CC2B00200C000020102A00201C0000206C
:101BA0000000204120000020140000200800002038
:101BB0000400002018000020FC290020E429002057
:101BC000F82F0020100000200D2A00202C2E0020CD
:101BD000FA290020F82900200E2A0020FC2A0020E3
:101BE000E72900200000A040E06BFFF781FE206C99
:101BF000FFF77EFE002001F07FFD092816D1012E9F
:101C000014D1A72001F078FD094B0A4C1A688242D2
:101C100009D005221860226007480CF08DFC23686B
:101C2000013B236002E02368002BF5DCBDE8F8836C
:101C30009825002094250020A02500202DE9F74FAD
:101C40009E2001F059FD80467E2001F055FD04469E
:101C5000A72001F051FD81460DF0A0FB06F080F8B1
:101C60008A4B8B4F186803685B6898477E2001F0A9
:101C700043FD0128054640F0E4800FFA88F888EA21
:101C8000E870A0EBE87080B206F0DEFE00210646A8
:101C90000EF082FF90B1002001F02EFD04280DD03F
:101CA000222001F029FD002840F0C5808045B8BF02
:101CB0004FF0FF354D4518BF06F1004648460EF07F
:101CC00079FD31460EF0CAFD0546386803685B6849
:101CD00098473868294603686E4D1B699847B620B7
:101CE00001F020FD002840F0B080286AFFF700FED8
:101CF0003868DFF8A4810368684E1B6A98470EF0C5
:101D000089FF0FFA80F949469E2001F015FD082051
:101D100001F0F2FC58F8200006F0BEFB012C01D0C7
:101D2000042C08D1306889EAE9710368A1EBE971F4
:101D30009B6989B29847D6F800A0A820DAF800304D
:101D4000D3F81CB001F0E0FC01465046D84730689B
:101D500003685B689847524B18680368DB689847CC
:101D6000504B186803685B689847042C77D14E4B3A
:101D7000186803685B689847484606F011FD82467C
:101D8000A22001F0B9FC8146172001F0B5FC0090BB
:101D9000382001F0B9FC0190282001F0B5FC514633
:101DA0000EF018FFB0FA80F351465B0901984FEA34
:101DB000C30B0EF0FBFE009AB0FA80F09145D4BF41
:101DC0004FF000094FF0010940094BEA80038520DC
:101DD00043EA891A01F098FC0090272001F094FC56
:101DE00083469D2001F090FC81464F2001F08CFC41
:101DF000014648460EF0EEFEB0FA80F04009594622
:101E00004FEA402900980EF0E5FE002808BF49F08F
:101E1000010949EA0A094946812001F08DFCDFF8F1
:101E20008CA0042C00F2A780DFE814F04200C4016B
:101E3000BB009401AF01B8F1000FA8BF4FF0FF3510
:101E400038E706F0CFFE002543E7B32001F06AFC37
:101E500000287FF44AAF286AFFF746FD48E70520CF
:101E600001F04AFC032804D10F4B186803685B6833
:101E70009847012C80D1DB2001F03EFC411C01F091
:101E80000F01DB2001F058FC76E700BF10000020B6
:101E900020000020F82F0020002A00201C00002035
:101EA000040000200C000020140000201800002076
:101EB0004FF0000B9B4B9C4883F800B09B4B9C4F12
:101EC00083F800B0FFF714FDA869FFF711FD0221A8
:101ED000A72001F031FC306803685B69984787F8F8
:101EE00000B0DFF850B2BBF80030002B4FD1924861
:101EF000FFF7FEFCE869FFF7FBFC9048FFF7F8FCF2
:101F0000BD2001F0F9FB0346A86C002B46D18C4B99
:101F10001B78002B42D1FFF7EBFC19F0410F15D1D4
:101F2000306803689B6B984780B1306803685B6BCF
:101F3000984758B101237B4A3B7013701923ABF8C3
:101F400000300DF02BFA02247E4B18607C4B1B787E
:101F50006BB119F0480F0AD11923ABF800300DF01E
:101F60001DFA784B022418600123704A1370214631
:101F70007E2001F0E1FBE868FFF7BAFC0022DAF806
:101F80000000114603682646DB68984783E0013B62
:101F90009BB2ABF80030002BB2D1A8E7FFF7A4FC4E
:101FA000BBE7DFF89CB19BF80030002B40F09E802F
:101FB0003A68654B9A4202D05B48FFF795FCE869A6
:101FC0005C4FFFF791FCA869FFF78EFC3B88002B64
:101FD00040F098805948FFF787FC554B1A784AB172
:101FE00019F0450106D11970192383203B80012483
:101FF00001F0A2FB9BF800304BB119F04C0106D167
:102000004FF4FA7383203B80042401F095FB474B87
:102010001B7823B19BF80030002B08BF0024414BF4
:102020001B78002B75D1022C11D10DF0B7F90646A3
:10203000152001F061FB434B1B681844864206D90A
:102040003E48FFF755FC0A2005F090FE0324214688
:102050007E2001F071FB012C8DD1512001F04CFB51
:102060000128064687D1E868FFF73EFCDAF8000051
:10207000364903689B689847DAF800405220236885
:10208000DD6801F039FB0746D52001F04BFBB9B202
:1020900002462046A847072001F02EFB022807D160
:1020A0000A2001F029FB58F82010304608F038FCCF
:1020B000072001F021FB032807D10A2001F01CFBB7
:1020C00058F82010304608F061FE072001F014FB9C
:1020D000042840F09E800A2001F00EFB58F82010E2
:1020E000304603B0BDE8F04F0CF07EBA072001F097
:1020F00003FB00287FF463AF3A68154B9A427FF4E4
:102100005EAF59E7013B9BB23B80002B7FF465AF8C
:1021100060E7306803685B6B9847002883D1002430
:1021200095E700BFE6290020842B0020E529002048
:10213000E829002024000020D42B00208C2B002034
:102140000E2A002090250020A028002000004842F0
:10215000182900200022304B30481A70FFF7C8FBC6
:102160002F4B1B7823B12F4B1B78002B08BF00246B
:102170002D4B1B78002B3FF4FAAE306803685B6B85
:102180009847002808BF0024F1E6284E33884BB951
:102190002748FFF7A9FB234B1B7843B9FA221C46BB
:1021A000328004E0013B9BB23380002BF0D005F07D
:1021B000FFFDDCE61D4F3B8813BB1D48FFF794FB7A
:1021C0001C48FFF791FB7E20012101F0B5FA05F0D4
:1021D000EFFD306803685B6B984700287FF437AFEA
:1021E0009E2001F089FA00284FF09E000EDA01F0DF
:1021F00083FA404263283FF72AAFFA233B808EE7F9
:10220000013B9BB23B80002BDDD1D6E701F074FA95
:10221000F0E703B0BDE8F08FE82900208C2B002008
:10222000E52900200E2A0020E629002024000020B5
:10223000D42B0020842B00202DE9F0477E2001F0D4
:102240005BFA0546894BDFF8289218680368DB685B
:102250009847042D04D1D9F800000368DB6898473B
:1022600006F09AFD834BDFF810A21968D020834F47
:1022700001F062FAD120DAF8001001F05DFAD22004
:10228000396801F059FA7E4B7E4E1968D320DFF889
:10229000F88101F051FAD420318801F04DFA98F814
:1022A00000307A4C022B2DD1794B1B7853BB042D77
:1022B00019D1DFF8E0A1784FDAF80030002B41D1D6
:1022C0005A20237001F018FA4FF496735843CAF855
:1022D00000003B68B3F5967F14D100233B60338840
:1022E000013B33800EE06D4ADAF8003012789A42F2
:1022F00026D16B4A3B6812789A4221D13388FBB1D0
:102300000123237098F800302BBB614B1B780BB96D
:10231000012323706D2001F0EFF901281FD16F20F8
:1023200001F0EAF95F4B0746586802F0A7F8064645
:102330000146DD2001F000FAB7422ADA002330E03E
:102340000023DEE73A68013B0132CAF800303A6008
:10235000002BBED1B4E7012BDCD10023D9E76E20DE
:1023600001F0CAF90128DAD0D9F800004E4A036812
:1023700012785B692178984708B1012D13D14B4B36
:102380001E78B6B931467F2001F0D6F9484B1E7051
:102390000FE098F80030012BE6D13D4A1278002A70
:1023A000E2D12370E0E70121414B7F20197001F059
:1023B000C3F9404E3378022B07D13C4B1B7823B135
:1023C0003D4B18680368DB6898473378012B02D9C6
:1023D000033B012B0AD8384F38680368DB689847FD
:1023E00033781BB938680368DB689847042D6DD1D2
:1023F0002E4B1D78002D33D1842001F07DF9064647
:102400003D2001F079F98642A1BF0122204B2570C1
:102410001A702A4B186803689B68984700210EF0D1
:10242000B1FB68B1264A1368002BDFBF00230121EE
:102430002370174BCEBF03F1FF3319700A231360CB
:10244000204B586B204B98420AD0FFF733FA38B133
:10245000E22001F051F918B901220D4B20701A70D9
:10246000184B986BFFF744FA57E000BF1C000020A0
:1024700014000020E0290020DC290020D8290020B9
:10248000D4290020F4290020F9290020F82900206F
:102490000C2A0020F0290020EC290020F729002038
:1024A000F6290020EC2F0020E72900200D2A00202B
:1024B0000E2A0020FA290020100000200800002029
:1024C00000000020F82F0020FC2A0020012DC7D199
:1024D0000022174B6D201A7001F00EF9022817D157
:1024E000702001F009F90646712001F005F9114B41
:1024F0000546986801F0C2FF01460446DE2001F05F
:102500001BF9AE420BDCA642AADCA54205DA0AE0C2
:102510006E2001F0F1F80228E2D0BDE8F087A64273
:102520009EDBA542F9DD044B986BFFF7DDF9F4E77C
:102530000C2A0020EC2F0020F82F0020FEE70000DE
:102540000C2838B510D80C2819D8DFE810F0D000C6
:10255000D300E5001800D900D600DF001800E8001D
:10256000E800E800E800E800502800F0CC8000F225
:10257000B2803B2800F0DB80482800F0CA8022208F
:1025800001F0BAF840B1002001F0B6F8082803D0F5
:102590000021222001F0D0F8172001F0ADF8664D9F
:1025A000664C2860182001F0A7F82060192001F07F
:1025B000A3F868601A2001F09FF860601B2001F00A
:1025C000A3F85F4D5F4C28601C2001F09DF820604F
:1025D000322001F099F85C4B2168186028680EF0F1
:1025E000DBFA50B159491B202960594D256001F093
:1025F000B1F829461C2001F0ADF81D2001F084F847
:10260000544B554C18602D2001F07EF8534B186048
:102610002E2001F079F8524B1860302001F074F848
:10262000504B1860252001F067F84F4B18601F20B1
:1026300001F06AF84D4B1860232001F065F84C4B0F
:1026400018602F2001F060F84A4B18601E2001F03E
:102650005BF8494B1860052001F04EF8042001F0AA
:102660004BF8464B18702378012B22D1572001F0EC
:1026700043F8434B1860562001F03EF8414B186078
:10268000552001F039F8404B1860542001F034F81F
:102690003E4B1860582001F02FF83D4B1870592020
:1026A00001F02AF83B4B18705A2001F025F83A4BFC
:1026B0001880442001F020F820705A2001F01CF806
:1026C0004FF496735843354B186008F07FF8BDE817
:1026D000384008F0A7B8672805D864287FF64FAFC0
:1026E00000F028FE4BE777380428F9D947E7FEF7D2
:1026F0002DFF44E7FEF7C2FE41E7FEF7C3FD3EE7CC
:10270000FEF706FE3BE7FEF76FFF38E7FEF732FE07
:1027100035E7FEF765FE32E7FEF782FE2FE7204C35
:10272000206804F08FFD606804F08CFD27E704F05A
:1027300079FB04F065FB22E7242E00201C2E0020EC
:10274000182E0020142E0020DC2D00200080BB4419
:102750000000C842102E0020F9290020082E002079
:10276000002E0020FC2D0020E02D0020F82D002060
:10277000F42D0020042E00200C2E0020FA29002029
:10278000D4290020D8290020DC290020E0290020BD
:10279000F7290020F6290020F4290020F029002044
:1027A000002A0020014B186800F03CBF102A0020CE
:1027B00000B589B003A804F0B5FB28B1DDF81530E9
:1027C0000193DDF81930029304F027FB4FF4004029
:1027D0000CF0BEFA0499A1F58473012B05D8044BC3
:1027E00001AA186803681B69984709B000BD00BFBB
:1027F0001000002008B500200CF006FE104B1A68EF
:1028000001323B2A1A600F4A05D911680131116063
:1028100019683C39196013683B2B0B4B05D91968B3
:102820000131196011683C3911601A68172A06D9FC
:1028300006490A6801320A601A68183A1A6008BD27
:10284000D4290020D8290020DC290020E0290020FC
:102850002DE9F043ADF68C2D00F0B8FB00F0E0FC64
:102860000022C349C34801F049FE0122C049C248C1
:1028700001F044FE0122C149C14801F03FFE02229D
:10288000BB49C04801F03AFE0322B949BE4801F0F5
:1028900035FE0522B649BD4801F030FE0422B44998
:1028A000BB4801F02BFE0B22B149BA4801F026FECD
:1028B00004232022B849B94801F099FB042380225F
:1028C000B549B74801F093FB04234FF40042B549E2
:1028D000B54801F08CFB04231022A849B34801F04D
:1028E00086FB04230822A549B14801F080FB01259D
:1028F000072380229E49AF4801F079FB0723042279
:10290000AD49AE4801F073FB07234FF40042A249E2
:10291000AB4801F06CFB07234FF480429E49A94865
:1029200001F065FB07234FF400529B49A64801F0D4
:102930005EFB07234FF400729749A44801F057FB50
:1029400007234FF480729449A14801F050FB0723FC
:102950004FF4806290499F4801F049FB07234FF4F0
:1029600000628D499C4801F042FB072340228049C8
:102970009A4801F03CFB07234FF48072894998483C
:1029800001F035FB07234FF400727949954801F0B7
:102990002EFB07234FF480727549934801F027FB03
:1029A00007234FF480527C49904801F020FB052317
:1029B000082281498E4801F01AFB052310227E4926
:1029C0008C4801F014FB052320227B498A4801F042
:1029D0000EFB072340227849884801F008FB0723B3
:1029E00008226D49864801F002FB072304226A4948
:1029F000844801F0FCFA07234FF480525F49824873
:102A000001F0F5FA07234FF480426B497F4801F04B
:102A1000EEFA0723012259497D4801F0E8FA07231D
:102A2000802260497B4801F0E2FA072340225D4999
:102A3000794801F0DCFA042340225749774801F035
:102A4000D6FA042310225449754801F0D0FA002325
:102A500080225949734801F0CAFA01F0A3FC724977
:102A60004FF000700CF0A4FA00F06AFB00F098FB45
:102A700005F048F900F00AFB00F034FB00F05AFCC6
:102A8000E420FFF75DFD5648FEF732FF5F48FEF792
:102A90002FFFC4AC0023654A6549009539A800F0B2
:102AA000FBFE0DF26C58002302222046614905F01E
:102AB0005FFB022260492B46404605F059FB5F4B05
:102AC0000F2004935E4B0DF5F96705935D4B5E4E49
:102AD000069300F011FE2A46002814BF4146214605
:102AE000384605F08BF83A46214619A808F0DEFD75
:102AF000032119A808F0F6FD204604A9C6E90048FC
:102B000004F074FB04A9404604F070FB4F4B0A200C
:102B10001F604F4B07AC1F6000F0EEFD56F82070B1
:102B20000E2000F0E9FD56F820104A4808F0E4FCB9
:102B300004F078F904F064F94FF4964246492046CF
:102B400009F0D6FC454B1C600FACFEF7FFFCFEF70E
:102B500095FCFEF797FBFEF7DBFBFEF70BFCFEF7A1
:102B600043FDFEF73DFCFEF75BFC3D49204679E066
:102B700000100140202C00201C2C0020000C0140E3
:102B8000182C0020142C0020102C00200C2C0020CD
:102B9000082C0020042C002000140140FC2B0020F5
:102BA000F42B002000080140EC2B0020E42B002037
:102BB000DC2B0020D42B002000180140CC2B00205F
:102BC000C42B0020BC2B0020B42B0020AC2B0020F9
:102BD000A42B00209C2B0020942B00208C2B002069
:102BE000842B00207C2B0020742B00206C2B0020D9
:102BF000642B00205C2B0020542B00204C2B002049
:102C0000442B00203C2B0020342B00202C2B0020B8
:102C1000242B00201C2B0020142B00200C2B002028
:102C2000042B0020FC2A0020C0004000F8270108E7
:102C3000004800400064004000680040200E010889
:102C4000B917000865160008002A0020602F002030
:102C5000FC290020F8250020003801409C25002098
:102C60000008004000F08AFC1A4B2A4620461A4908
:102C70001C6000F0A3FC0A222046184900F09EFCCC
:102C800064222046164900F099FCC82220461549C6
:102C900000F094FC762000F02FFDA84202D13846C7
:102CA00002F0AEF804217D2000F046FD00217E20D8
:102CB00000F042FD4FF0000439A88DF80F4000F0FD
:102CC0009FFF1E9B002BF7D10DF10F011AA806F0F4
:102CD00035FAF1E7102A0020291200083D1C0008EF
:102CE000F91800083922000810B50024614B624A27
:102CF0001C741A60614B624A1C721A60DC721C738D
:102D0000604A614B61481A601C72DC721C73604A35
:102D1000604B1A60604B614A1A6007F04DFD604BD2
:102D2000604A1C621A601C775F4A604B60481A60F8
:102D3000604B614A1A60614B614A1A60614B624A9A
:102D40001A60624B624A1A60624B634A1A60634BB4
:102D5000634A1A60634B644A1A60644B644A5C7548
:102D60001A60DC82634A644B1A60644B644A1A60DE
:102D7000644B654A1A60654B654A1A60654B664A42
:102D80001A60664B664A1A6004F014FA654B664A8C
:102D900066481A6007F03EFB654B664A66491A6052
:102DA000664B674A67481A60674B684A1A60684B07
:102DB000684A1A60684B694A1A60694B694A1A6026
:102DC000694B6A4A1C721A60694B6A4A1A606A4BFC
:102DD0006A4A1A606A4B6B4A1A606B4A6B4BC2E9CB
:102DE000024413600023136153619361D361684A05
:102DF0001160684A6849C2E904441160C2E90644A6
:102E0000136253629362D3626449654A11606549F3
:102E1000C2E90244C2E904441483D36113625362D9
:102E20009362D3621363536391635F4A5F49C2E95C
:102E300004449360D3609361D361148453629362BA
:102E4000D362136353639363D363136453649364D0
:102E50001160574B574A1A60574B584A1C731A60F7
:102E6000574B584A1A6009F03DFBBDE810405648E0
:102E70000BF056BBC029002020320108A4290020F5
:102E80008C280108C4290108882900205429002021
:102E9000682C0108782900206C290020B02C01083A
:102EA00030290020FC2A0108982E0108182900204A
:102EB0007828002010290020F82F01080829002078
:102EC0002430010800290020B8330108F828002028
:102ED000540E0108F0280020800E0108E828002088
:102EE00050300108E02800204C2F0108C82800209D
:102EF000B4310108FC2E0108C0280020B8280020A9
:102F0000D02E0108B02800208C330108A82800200A
:102F100018350108A0280020F82C01089828002066
:102F2000300F010870280020AC0E01086428002032
:102F30005828002070360108F0350108502800207C
:102F40000C0F0108D025002044270020683201081A
:102F500038270020CC3501082C27002070340108C8
:102F60002027002094340108102700204C34010849
:102F700008270020680F0108FC2600200C360108F5
:102F8000F4260020D00E0108D42600209831010834
:102F9000CC2600209C2600207C31010854360108F4
:102FA000602600200000FA43142600209C36010809
:102FB0000C260020EC0E0108FC2500200032010840
:102FC000F0250020300E0108A025002008B50CF0E7
:102FD00023F902200CF0F8F84FF0E0232A4A40F2DF
:102FE0000230C3F80C2D0CF05DF940F203300CF008
:102FF00059F94FF441700CF055F940F205300CF0DE
:1030000051F940F206300CF04DF940F292300CF0DC
:1030100049F940F291300CF045F940F20E300CF0D5
:1030200041F940F20B300CF03DF94FF460700CF0B8
:1030300039F940F281300CF035F940F282300CF071
:1030400031F94FF420700CF02DF940F209300CF0FA
:1030500029F940F286200CF025F94FF440700CF06D
:1030600021F940F299300CF01DF940F29A300CF041
:1030700019F940F28E300CF015F9BDE8084040F225
:103080008F300CF00FB900BF0003FA0513B5002410
:10309000202123462246CDE9004410480CF022FAB4
:1030A00021460E480CF016FA0C480CF005FA0B48B5
:1030B0000CF00BFA4FF420430222032108480BF0D6
:1030C00047FF4FF480430122214605480BF040FFA3
:1030D000024802B0BDE810400CF0E2B900380040F0
:1030E000000C014013B500244FF080514FF00070E8
:1030F0000BF05EFF234622462021CDE900440E4816
:103100000CF0F0F90C480CF0D7F90B480CF0DDF995
:103110004FF4A0530222032108480BF019FF4FF48B
:1031200000630122214605480BF012FF024802B05D
:10313000BDE810400CF0B4B9003C00400010014064
:1031400008B502220423032112480BF001FF0823D3
:10315000012200210F480BF0FBFE0F490F480CF035
:103160007FFB08210D480CF08FFB00210B480CF071
:1031700094FB0C2109480CF09CFB002107480CF043
:1031800092FB064800210CF09AFBBDE8084003487A
:103190000CF09BBB0008014020A107000044004048
:1031A00008B511200CF02AFCF02111200CF034FCA1
:1031B00010200CF023FCF02110200CF02DFC1E2020
:1031C0000CF01CFC00211E200CF026FC14200CF03E
:1031D00015FCE02114200CF01FFC13200CF00EFC59
:1031E000E02113200CF018FC28200CF007FC4FF411
:1031F00000400BF0A3FD01214FF400400BF082FDD5
:1032000006494FF400400BF0A9FD03200CF0F6FB3B
:10321000BDE80840202103200CF0FEBB001801404F
:1032200008B54FF2234103200CF020F900200CF0E8
:10323000BFF800200CF0E8F8BDE8084000200CF0D2
:10324000C5B80000022208B511464FF400731648B5
:103250000BF07EFE15480CF08DF900232022194654
:1032600012480CF060F9202110480CF088F9072270
:1032700000210E480CF087F900210C480CF088FA68
:103280000A480CF0DFFA4FF4C872002107480CF02E
:10329000C9FA06484FF488610CF073F9BDE808409C
:1032A00002480CF062B900BF00180140002C014038
:1032B00008B5022303211A461D480BF049FE4FF0C2
:1032C00080400CF057F900234FF080401A46194611
:1032D0000CF029F900214FF080400CF050F94FF02C
:1032E00080400CF029F94FF080400CF039F98F2123
:1032F0004FF080400CF045F902214FF080400CF077
:103300006CFA062202214FF080400CF03CF90221B9
:103310004FF080400CF03CFA4FF0804048220221F0
:103320000CF080FABDE808404FF080400CF01DB969
:1033300000080140672038B500F0DEF9132808D1F5
:1033400002220123114687480BF002FE0024254685
:103350000DE0672000F0D0F9142840F0928002229E
:10336000012311467F480BF0F3FD00240125662060
:1033700000F0C2F9132840F0998002228023114600
:1033800079480BF0E5FD652000F0B6F9132840F010
:10339000AE8002224023114673480BF0D9FD7348DA
:1033A0000CF0E8F8002171480CF0CBF86F480CF0F5
:1033B000C3F8062200216D480CF0E5F80622022130
:1033C0006A480CF0E0F80622042168480CF0DBF8AB
:1033D000002166480CF09DF9022164480CF099F92F
:1033E000042162480CF095F9002160480CF0ABF91B
:1033F00002215E480CF0A7F904215C480CF0A3F907
:1034000000215A480CF0C4F9022158480CF0C0F9C8
:10341000042156480CF0BCF9002D40F08980002CA6
:1034200040F08680782000F067F901464F480CF0A4
:10343000A8F8792000F060F9214602464B480CF0CC
:10344000F1F97A2000F058F90221024647480CF0C1
:10345000E9F97B2000F050F90421024643480CF0C2
:10346000E1F9012141480CF0F2F9772000F044F92C
:1034700001463E480CF083F8BDE838403B480CF06C
:1034800074B8672000F038F9152808D1022201230A
:10349000114634480BF05CFD0124002567E7072343
:1034A00001223049324800F0A2FD4FE7662000F0CB
:1034B00023F9142807D10222802311462A480BF051
:1034C00047FD01255FE7662000F016F9152807D1B2
:1034D00002228023114624480BF03AFD012452E7D2
:1034E000072380222049234800F081FD4BE7652017
:1034F00000F002F9142807D10222402311461A488D
:103500000BF026FD01254AE7652000F0F5F81528A7
:1035100007D102224023114613480BF019FD012464
:103520003DE7072340221049134800F060FD36E7CD
:1035300041F68C110D480CF024F8012200210B48B3
:103540000CF070F90122022108480CF06BF90122FD
:10355000042106480CF066F9012104480CF077F9C3
:103560000A2186E7000C01400008014000040040E9
:10357000242B00201C2B0020142B002038B50C46D7
:103580000546016208460BF0D7FF20460BF0E3FF2B
:10359000084B20461968084BB1FBF3F101390BF0D9
:1035A000EEFF20464FF6FF710BF0EBFF002328469D
:1035B0006B6238BD88230020A0860100F8B5436AFD
:1035C0000446032B0F462ADC006A02EB8205144EE8
:1035D0000BF0D0FF636A0122F15C206A0BF0D3FF8D
:1035E000636A0022F15C206A0CF01CF90221636A14
:1035F00005EB850503F10802AD0044F823709940FE
:1036000024F81250206A0BF081FF0021206A0CF090
:1036100024F9206A0BF0A9FF636A01336362F8BDE5
:10362000A80F01082DE9F843044600254FF00208D1
:1036300000F11006636A08FA05F7AB420ADC394666
:10364000206A0BF06DFF0135042D06F10206F1D161
:10365000BDE8F8833946206A0BF05CFFA8B1206A08
:103660000CF0F9F8236A3188343353F82520814669
:103670000A4443F8252054F825309847206A0CF076
:10368000EAF8A0EB09003081D9E7636AAB42DADCE3
:10369000D5E7002170B500F10E03446A4FF47A7546
:1036A00008468C4200DC70BD5A8933F8026F6A43C9
:1036B000B2FBF6F201311044F3E7000010B51C2410
:1036C000084B04FB0033DC688C4209DC1B698B422D
:1036D00006DB054B43F82010FEF732FF002010BD3B
:1036E000FF20FCE7B803002028000020014B53F81E
:1036F0002000704728000020024B53F820004011A2
:10370000704700BF2800002008B5054B53F8200083
:103710000DF050F84FF074510DF0A0F808BD00BF47
:1037200028000020034B53F820004011431E58424C
:103730005841704728000020024B490143F82010EF
:10374000704700BF28000020014B43F8201070474D
:103750002800002010B5044608464FF084410DF0C3
:103760007DF80DF057FA024B43F8240010BD00BF5E
:103770002800002070B506460024074D31466868D1
:1037800000F08EFB08B9E0B270BD0134E42C05F105
:103790001C05F3D1E520F7E7B80300200023064A13
:1037A000118B814201D1D8B270470133E42B02F171
:1037B0001C02F5D1E5207047B80300201C22024B03
:1037C00002FB0030704700BFB80300200023064A08
:1037D0000649108B10B1506941F823000133E42BE6
:1037E00002F11C02F5D17047B80300202800002028
:1037F000014B1954704700BF142A0020024B1A5C79
:1038000011431954704700BF142A0020024A135C68
:1038100023EA010313547047142A0020014B185C5B
:10382000704700BF142A00201C22024B02FB003309
:10383000987E7047B8030020004870473A61030043
:10384000024B1A68024BC3F8082E704778220020FA
:10385000B8030020202180680CF05DB880680CF06F
:1038600052B810B504464368597A58680BF021FAEB
:10387000636804F12A02597A58680BF02CFA6368DD
:103880008022597A58680BF036FA6368BDE8104018
:10389000597A58680BF004BA70B5026140F201120F
:1038A0000D464A498282016001210022817580F81B
:1038B000281004460421C0E9062280F82020426234
:1038C0009DF81020856080F82920414A03734260EA
:1038D0001068A84203D01C3201396260F8D13D491A
:1038E0000C60002B6FD05069138B022203210BF068
:1038F0002FFB28464FF4E1310BF0B2FF2846082198
:103900000BF0C2FF28464FF400510BF0C6FF2846CB
:103910000C210BF0CEFF284600210BF0C4FF002144
:1039200028460BF0CCFF28460BF0DFFF28460BF0B3
:10393000E1FF6368197A58680BF042F96368197AF5
:1039400058680BF0A4F963682A1D197A58680BF0BF
:10395000B9F963680022197A58680BF06CF963684A
:103960000022197A58680BF059F96368197A586877
:103970000BF06EF96368597A58680BF021F96368A7
:103980002A1D597A58680BF09DF963680022597A0C
:1039900058680BF050F963680022597A58680BF0A8
:1039A0003DF96368597A58680BF052F963685868B2
:1039B000597A0BF075F92046FFF753FF28460BF0B4
:1039C00084FF204670BDD068138A8EE784270108E3
:1039D00088270108F82A002038B5437D0D4643B1F9
:1039E0000469216819B1284600F05AFA20B9236801
:1039F00003B90024204638BD0834F2E738B5044640
:103A00000D4663680222197A58680BF0F0F818B96D
:103A100094F82830002BF4D06368197A58680BF0BA
:103A200048F96368AAB2197A58680BF064F994F8F7
:103A30002020636804EBC212197A5868AA320BF08E
:103A40004AF963680222197A58680BF0CAF8636869
:103A5000197A58680BF024F994F82030B3FA83F3FC
:103A60005B0984F82030002384F8283038BD10B575
:103A70000446A37D084623B9A068BDE810400BF0BA
:103A800029BF94F82030626A04EBC31313440A2858
:103A900002F1010183F8AA0001D07F2A05D1204656
:103AA000FFF7ACFF0023636210BD6162FCE7802A70
:103AB00028BF8022002330B4934203D130BC194682
:103AC000FFF79CBF90F82040CD5C00EBC4141C4471
:103AD00084F8AA500133EFE738B5054608460C468E
:103AE00000F0F5F9214602462846BDE83840FFF7C8
:103AF000DEBF000010B50446084600F03BFA00F0B7
:103B000020FA217D227B8142636811D101216175F8
:103B10005AB158691B8B032102220BF019FA204677
:103B2000BDE810400949FFF7D7BFD8681B8AF2E704
:103B3000002161753AB158691B8B0122BDE8104024
:103B400000210BF005BAD8681B8AF6E7942001081B
:103B500030B5044685B0084600F00CFA0378302BE7
:103B600026D0322B144D18BF4FF46125637DA3B1CD
:103B70000A22294601A800F0BAF920460F49FFF7AA
:103B8000ABFF20460E49FFF7A7FF204601A9FFF72C
:103B9000A3FF20460B49FFF79FFF2946A0680BF0C3
:103BA0005FFE0021A06805B0BDE830400BF075BE97
:103BB0004FF4E135DAE700BF1055220093200108E9
:103BC000992001081927010810B50446084600F09D
:103BD000D1F9037823B1303B18BF012384F8293091
:103BE00094F829302BB104492046BDE81040FFF776
:103BF00073BF0249F8E700BFA8200108B2200108FE
:103C00002DE9F04143680446597A58680BF06CF886
:103C10000546C0F1800710B92046FFF722FE94F850
:103C20002930A06813B1E369BB4257DB08210BF0D0
:103C300072FE10B1A0680BF066FE7F2D00F3988035
:103C4000631B93F8A9300A2B01D00D2B7DD163683B
:103C5000597A58680BF02DF87F2D3AD00022E319DD
:103C600083F82A202021E26104F12A0000F036F9CD
:103C700090F800800546B8F1000F37D10A2104F111
:103C80002A0000F02BF9054684F8AA812B782BB97D
:103C90000D2104F12A0000F021F9054600233549E1
:103CA0002B7004F12A00A36100F0FAF820BB204633
:103CB00004F5D571FFF71EFF0027A369002B3AD04A
:103CC000A0680BF024FEA36920465B6804F5D5715B
:103CD00098472046BDE8F041FFF7C3BD5A1CE2619A
:103CE000234493F82A100BF0F5FD98E7411C04F5E6
:103CF000D57000F0E3F8C9E71F4904F12A0000F08D
:103D0000CFF828B9204604F5D571FFF721FFD3E796
:103D10001A4904F12A0000F0C3F828B9204604F536
:103D2000D571FFF751FFC7E7204604F12A01FFF7DD
:103D300053FEA061C1E7012FCBDD637D002BC8D00E
:103D400020460F49FFF7C8FEC3E794F82A30212B1D
:103D50000ED1A36963B12046FFF783FD0023E36121
:103D6000A369204604F5D5715B68BDE8F0411847AA
:103D7000BDE8F081BD200108C8200108D12001085C
:103D8000D6200108034BC1B21B681A681846126896
:103D9000104700BFF82A002004F032B807B50649E2
:103DA000D1F8F027D1F8EC37D1F8E81700910349A2
:103DB00000F0EAFA03B000BD00F0FF1FF120010897
:103DC00005F0BCB973B5144800F0CCFA134800F004
:103DD000C9FA0024E6B23046FFF7F0FC054630464B
:103DE000FFF722FD68B93046FFF718FDC3070DD471
:103DF0006B690B4800936968D5E9032300F0B2FAB8
:103E000004E03046FFF710FD0128ECD00134E42C2B
:103E1000E0D102B070BD00BFFA20010811210108F5
:103E20002D21010870B50B4900F0AEFA0024E0B274
:103E3000FFF7C4FC0546E0B2FFF7F0FCC30704D46B
:103E4000D5E90112044800F08DFA0134E42CEED1DA
:103E500070BD00BF4021010862210108F8B5064687
:103E60000024E0B2FFF7AAFC4768E0B2FFF73EFC8F
:103E7000013403463A463046024900F085FAE42C04
:103E8000EFD1F8BD6C21010810B50446FFF79EFC88
:103E90002046BDE81040014900F076BA75210108BE
:103EA000431E013913F8010F11F8012F10B10AB1A7
:103EB0009042F7D0801A18BF01207047013911F8DD
:103EC000013F0BB90370704700F8013BF7E700238F
:103ED000C25C0AB9184670470133F9E703461A78FD
:103EE00018461AB18A4203F10103F8D1704700293C
:103EF00070B51EDA2D23012400F8013B4942064625
:103F000091FBF2F302FB131130313170191E35466B
:103F100006F10106F4DC00220346201A3044327018
:103F2000AB420BD21A78297803F8011B05F8012956
:103F3000F6E704D1302341700370012070BD0024E6
:103F4000DDE730B503782D2B11D14FF0FF34013070
:103F500000210A25431E01E005FB012113F8012F72
:103F6000303AD0B20928F7D904FB01F030BD012462
:103F7000EEE7000010B5144C02780146A2F10A03E6
:103F8000DBB2162B1BD824FA03F3DA0700F1010089
:103F9000F2D40846FFF79BFF0138084481420446EB
:103FA0000AD203780A3BDBB2162B05D8064A013841
:103FB00022FA03F3DB07F1D40023637001E0002A47
:103FC000E7D1084610BD00BF09004000002310B52E
:103FD000934200D110BD51F8234040F823400133F3
:103FE000F6E702B97047013A40F8041BF9E72DE9FA
:103FF000F041174682800022013B0E46016082712B
:10400000082B0BD8DFE803F0080E0C181505242642
:104010001A000024002513E0012383710224F9E72C
:104020000123837102240025394630460AF0CAFF75
:1040300006E001248471EDE70124EBE70224032567
:104040003B46224629463046BDE8F0410AF080BF93
:104050000024F4E701240325E6E770B50C1EACBF8D
:1040600001234FF0FF335C430133064608BF2D2385
:104070004FF0640208BF06F8013B611104F01F0411
:104080000546544330460A22FFF731FF2E226411C1
:10409000092C3254D8BF302206EB0003D8BF5A7027
:1040A00021464FF00A02CCBF581C981CFFF71FFF97
:1040B000284670BDF0B5027803462D2A13D14FF083
:1040C000FF30013300250A2702E007FB05250133F5
:1040D0001C78A4F13002D6B2092EF6D9A4B98D40CD
:1040E00025446843F0BD0120ECE78A4002EB6602FC
:1040F00092FBF6F20CFB06F6144413F8012F303A4B
:10410000D7B2092FF1D9EAE70A260024B446F4E72A
:104110002DE9F843141E0646894614DC2027DB07E8
:104120001FD50025C84626E0013219F802100029E3
:10413000FAD1A242ACBF0C46A41A13F0020F14BF6E
:1041400030272027EBE70022EFE73368414630466F
:104150001B689847013D002DF7DC24EAE475641BD9
:10416000E0E725465FFA87F8F5E7336830461B68D5
:1041700008F10108984798F800100029F5D1A5EB3F
:1041800009054544A046FFB2B8F1000F05DC002C3C
:10419000ACBF2819281CBDE8F8833368394630467F
:1041A0001B68984708F1FF38EEE72DE9F04385B02A
:1041B0008046DDE90C691C460D4651B93023324674
:1041C000ADF8003069464B46FFF7A2FF05B0BDE8E9
:1041D000F08323B10A2A2DD100292BDA4D42002386
:1041E0008DF80D300E9B0DF10D0C3A3BB5FBF2F046
:1041F00002FB1051CF18092988BF3946AA4201F1A4
:1042000030010CF1FF370CF8011C15D954B1B6B1CF
:1042100019F0020F13D0D8F800302D2140461B684A
:104220009847013E4B46324639464046FFF770FFFD
:104230002044CBE70024D2E70546BC46D6E72D2331
:10424000002407F8013CACF10207EBE70846FFF752
:1042500099BD00002DE9F04380460E461446002526
:104260004FF00A098DB0317819B928460DB0BDE874
:10427000F08325296DD171780029F6D0252906F122
:10428000010065D02D290ABF01270027B01C037843
:10429000302B14D0002203780646A3F130015FFAD8
:1042A00081FCBCF1090F0ED9662B3DD00FD8632BD2
:1042B00044D0642B1CD0582B2ED00136D3E70130CC
:1042C00047F00207E3E709FB02120130E3E7752B31
:1042D00024D0782B19D0732BEFD1216820483B468E
:1042E000002908BF014604344046FFF711FF0AE0E9
:1042F0006123CDE90173012300920A22216840461F
:104300000434FFF752FF0544D7E76123CDE9017379
:10431000009200231022F1E74123F7E76123009286
:10432000CDE901730023E8E7216808A80592043469
:10433000FFF793FE3B46059A08A9D5E7236807A92E
:104340008DF81C30002304348DF81D303B46CBE73C
:104350000646D8F8003040461B6898470135ACE760
:10436000CF2101080FB407B504AA52F8041B054B6E
:104370006846CDE90032FFF76DFF03B05DF804EB4E
:1043800004B07047802801080EB403B503AA52F8A0
:10439000041B0192FFF75EFF02B05DF804EB03B06F
:1043A0007047000008B529480AF09EF927480AF02E
:1043B000A0F926480AF0A7F924480AF09FF901213C
:1043C00022480AF07CF921480AF042F91F480AF015
:1043D00059F91E480AF069F91D4A08211B480AF0DC
:1043E00097F91A480AF0D7F94FF4602117480AF0F4
:1043F0003FF90121174A18480AF064FC0121174AC5
:1044000015480AF068FC4FF48072012112480AF046
:1044100012FC4FF4806201210F480AF0FFFB60227A
:1044200001210D480AF067FC01210B480AF010FC3D
:10443000012109480AF015FC074801210AF030FC67
:10444000BDE8084001480AF09CB900BF00240140C3
:10445000E42C00204C24014000000240242C0020C9
:10446000884207DD914203DC01469142A8BF114614
:10447000084670479042F8DD0146F9E737B56D46CA
:10448000046804F13003F03433F8102C33F8201CA6
:1044900033F8300CFFF7E4FF3033A34225F8020B6A
:1044A000F2D1BDF80230BDF800001844BDF8043068
:1044B0001844BDF806301844C0F38F0003B030BD77
:1044C00008B50D4B98420BD003F5806398420BD092
:1044D000A3F5006398420BD1072909DCC8B208BDD7
:1044E000012905DC0831F9E7052901DC0A31F5E786
:1044F0000AF0B6F81020F2E7000C0140012370B575
:1045000093400C4615460022064611469BB22046B3
:104510000AF01EFD29462046FFF7D2FF3368034A02
:104520009B1A034AC3F34F03D05470BD242C0020C0
:10453000E42C00200D4B0E4A991C13600D4A1160AB
:104540000D4A191D11600D4A991D11600C4A03F1A5
:10455000080111600B4A03F10A0111600A4A03F1D4
:104560000C011160094A0E3313607047242C00209F
:10457000202C00201C2C0020182C0020142C0020A3
:10458000102C00200C2C0020082C0020042C0020D3
:10459000114A124B30B553F8213052F821401946D8
:1045A000A342A8BF2146026802F1C8058D4206DB7E
:1045B000A342B8BF234603F1C804A24202DD016052
:1045C000002030BD8A4202DA01600120F9E79A42F8
:1045D000FBDD0360F9E700BF242E00201C2E002025
:1045E000012970B516D80C4B53F821400B4B53F8EA
:1045F0002150AC420ED0001B0CF0DCF80646281B04
:104600000CF0D8F8014630460CF0DCF904490CF007
:1046100025F970BD0020FCE7242E00201C2E002070
:104620000000C842F8B5224B05461C6801462046EA
:104630000CF0D0FA00B12C461E4B21461E683046C5
:104640000CF0AAFA00B126461B4D31462F683446BD
:1046500038460CF0ABFA002198B130460CF0BAFAAB
:1046600068B1164B196838460BF0F0FF3146044626
:104670000CF0B0FA00B1344620462C60F8BD104B67
:10468000F0E730460CF09CFA0028F5D100213846BE
:104690000CF0A0FA48B10020094B19680BF0D4FFC8
:1046A000314604460CF078FAE4E73846F4E700BFF8
:1046B000082E0020002E0020D02D0020F42D0020F8
:1046C000F82D0020F8B5054683200E461746FFF763
:1046D00013F83146044628460CF068FAE0B94FF06A
:1046E000804130460BF0B2FF29460CF073FAA8B1B6
:1046F00044F01001832089B2FFF71EF8124D3E6886
:10470000002130460CF05CFAA0B1294630460CF08E
:1047100043FA28B1344604E00C4DF0E70025EEE7FB
:104720002C46284609493C600CF036FA003818BF80
:104730000120F8BD05F10044214630460CF04AFA4C
:104740000028EED0E6E700BF000048420000C84263
:104750002DE9F843064627200D46FEF7D5FF304FDA
:10476000DFF8C08038602820FEF7CEFFC8F80000D0
:104770008320FEF7C1FFD7F8009020F0030400214A
:104780004846A4B20CF026FA28B3002130680CF099
:1047900017FA254F28B3494628460BF055FF234901
:1047A0000CF05CF8002105460CF0F6F900B100258C
:1047B0003D603768294638460CF00CFA44F0010396
:1047C0009BB2002818BF1C46294638460CF0E4F975
:1047D00000B13D4635602146BDE8F8438320FEF731
:1047E000ABBF2846D8F800100BF02EFF0F490CF095
:1047F00035F8002105460CF0EDF900B100253D60CB
:104800003768294638460CF0C7F944F002039BB2DA
:10481000002818BF1C46294638460CF0DBF9D7E7BC
:10482000F02D0020EC2D0020D82D0020000060404D
:104830002DE9F8430C46364D3649064628680CF0FB
:104840000DF821460BF002FF4FF076510CF006F800
:1048500028602920FEF758FF2F4FDFF8C08038600E
:104860002A20FEF751FFC8F800008320FEF744FF1E
:10487000D7F8009020F00C0400214846A4B20CF0B8
:10488000A9F918B3002130680CF09AF92D68244F6B
:1048900010B3294648460BF0D7FE002105460CF020
:1048A0007BF900B100253D603768294638460CF099
:1048B00091F944F008039BB2002818BF1C46294612
:1048C00038460CF069F900B13D4635602146BDE837
:1048D000F8438320FEF730BF2846D8F800100BF0CD
:1048E000B5FE002105460CF075F900B100253D60CC
:1048F0003768294638460CF04FF944F004039BB260
:10490000002818BF1C46294638460CF063F9DAE740
:10491000F02C002000007041E42D0020E82D002044
:10492000D42D0020104B70B51A68066801EB0214F4
:10493000A41A24110546002130461C600CF04AF9E7
:1049400088B10A4B1868001B48BF0330801020EA6A
:10495000E0700BF02FFF0446014630460CF03AF9A8
:1049600000B126462E6070BDEC2C0020E02D00200A
:10497000F8B50E4A064614780D4F0134E4B2312CD6
:104980008ABF002323461C460A4D386855F8241078
:1049900013700BF059FE31460BF058FE0649386093
:1049A00045F824600CF00EF8F8BD00BFF42C002090
:1049B000C02D0020F82C002000004842000000001C
:1049C0002DE9F74F80469E2092468946FEF794FED9
:1049D0000446A720FEF790FE074684EAE470A0EBA9
:1049E000E4700BF0E7FEDFF8F8B10446DBF80050A6
:1049F00029460BF029FE002101900CF0CDF8019B17
:104A000008B103F10043774A1946166830460CF0A6
:104A1000C3F850B1294620460CF0DCF83146002896
:104A20003CD028460BF012FE0446CBF80040002F85
:104A300000F0CE8020460CF0EDF80546BAF1000FEC
:104A400030D0632840F3C4800BF0B4FE664B804640
:104A50001E6831460CF0A0F8002840F0B980634B86
:104A600040461F68624B39461C680CF095F888B1C7
:104A700030460CF0CFF8064620460CF0CBF8AD1BC4
:104A8000454338460CF0C6F8801B95FBF0F00BF060
:104A900091FE0446204603B0BDE8F08F28460BF097
:104AA000D3FDC1E749464046FFF79AFD514B064604
:104AB0001C68014620460CF08DF8002876D121466E
:104AC00030460BF0C1FD214606464B480BF0BCFDBD
:104AD000014649480BF076FF31460BF0BFFE044615
:104AE000464B20461C60FFF743FF01460646204622
:104AF0000BF0AAFD424980460CF04EF830B94FF059
:104B00007E5140460CF066F800B93446632D4FDD07
:104B100028460BF04FFE344B8246D3F800804146C6
:104B20000CF03AF8002843D1304B5046D3F80090AF
:104B3000344B49461E680CF02FF898B140460CF0F3
:104B400069F8804630460CF065F8A5EB080545434A
:104B500048460CF05FF8A0EB080095FBF0F00BF076
:104B600029FE0646284D012F2E6023D127493046C5
:104B70000BF074FE05462549254B18680BF06EFEB8
:104B800029460BF061FD21460BF068FE1A490BF037
:104B900019FF29460BF05AFD0BF050FA0EA3D3E98A
:104BA00000230BF0A3FA0BF0FBFC72E7002497E75D
:104BB0000026D7E72620FEF79FFD08B900232B60CB
:104BC000124928680BF04AFE10490546114BD4E7FC
:104BD00000245FE7AFF300809A9999999999B93FBA
:104BE000CC2D0020DC2D0020142E0020182E0020BB
:104BF0000C2E0020FC2D00200000C842C42D0020F7
:104C0000000080BF102E0020C82D00200000204191
:104C1000082E0020042E00202DE9F3411F4C0646EB
:104C20002B201F460D4690460194FEF76DFD01AA0C
:104C300001464046FFF746FD2C20FEF765FD01AA20
:104C400001463846FFF73EFD314601A8FFF780FDDB
:104C5000294601A8FFF7ECFD089901A8FFF762FEBD
:104C6000214601980BF0AEFE4FF07E5104460BF04A
:104C7000B1FF20B9002120460BF08EFF60B94FF044
:104C80007E5120460BF0A6FF20B14FF07E5002B0BF
:104C9000BDE8F0812046FAE70020F8E70000C842AE
:104CA000F7B51E461F4B05462B2001930C461746B1
:104CB000FEF72AFD01AA01463846FFF703FD2C2026
:104CC000FEF722FD01AA01463046FFF7FBFC29460C
:104CD00001A8FFF73DFD214601A8FFF7A9FD0899AE
:104CE00001A8FFF71FFE01980F4900F100400BF0EB
:104CF00069FE4FF07E5104460BF06CFF20B9002195
:104D000020460BF049FF58B94FF07E5120460BF07A
:104D100061FF18B14FF07E5003B0F0BD2046FBE7B5
:104D20000020F9E70000C8C20000C842024B00BFE3
:104D3000013BFCD1704700BF00127A0010B5044659
:104D4000002240F2215102F060FA002240F222518A
:104D5000204602F05AFA002240F22351204602F087
:104D600054FA002240F22451204602F04EFA00226A
:104D700040F22551204602F048FA002240F2265126
:104D8000204602F042FA002240F22751204602F06B
:104D90003CFA2046BDE8104000224FF4A56102F025
:104DA00034BA0000002313B5054A40F21141CDE9A1
:104DB000002303686A465C680823A04702B010BD60
:104DC000340001003222002313B5CDE9002303682B
:104DD0006A465C6840F211410823A04702B010BD4A
:104DE000002313B5054A40F21141CDE900230368C1
:104DF0006A465C680823A04702B010BD3401010078
:104E00002DE9F7430026174B05461E702024FFF7B7
:104E1000C9FF4FF04209FFF789FF4FF4C8482B68DC
:104E200001966A4640F2114128465F688DF80040BD
:104E300008238DF80190ADF802800134B847E4B240
:104E40002846FFF773FFFFF7BDFFFFF76FFF292C21
:104E5000E5D12846FFF7C4FFFFF768FF03B0BDE8C0
:104E6000F08300BFA81C0020D0F80220014B1A607C
:104E7000704700BF482E0020D0F80220014B1A6076
:104E8000704700BF382E0020D0F80220014B1A6076
:104E9000704700BF342E0020D0F80220014B1A606A
:104EA000704700BF302E0020054A1388013313805D
:104EB0000A22D0F8023093FBF2F3024A13607047E3
:104EC0004C2E00202C2E0020D0F80220014B1A601E
:104ED000704700BF402E0020D0F80220014B1A601E
:104EE000704700BF442E0020D0F80220014B1A600A
:104EF000704700BF3C2E00206FF4A463C31808461F
:104F0000072B15D8DFE803F00406080A0C0E101270
:104F1000FFF7AABFFFF7B0BFFFF7B6BFFFF7BCBFF1
:104F2000FFF7C2BFFFF7D0BFFFF7D6BFFFF7DCBF69
:104F300070470161704741617047007A7047007A9D
:104F400070470023C372704710B5044600226160A9
:104F500008464FF4987102F058F900224FF43F715F
:104F6000606802F052F900224FF49061606802F02C
:104F70004CF960680022BDE810404FF4D07102F097
:104F800044B900002DE9F0410025BCB08846F0226C
:104F900068460F490BF0CAFE6C4614262F4620685F
:104FA0000BF008FC41460BF001FE08B1D4E9017595
:104FB000013E04F10C04F2D139467220FEF7BCFB2D
:104FC000294673203CB0BDE8F041FEF7B5BB00BFF9
:104FD000CC28010810B404686468A44610BC60477B
:104FE000037E73B50446002B50D0A720FEF784FB48
:104FF000324B00284CD10321314A20731170E12239
:105000001A701B782F4D8DF800300C238DF801306D
:105010008F238DF802302B7860688DF80330F023F1
:105020008DF8043003686A464FF4E9715E68052321
:10503000B0472B783A201033DBB2ED2B08BF0D239D
:105040002B70FEF759FB204BC0B21A78824215D064
:105050004FF40952ADF8002000228DF802204FF0E5
:10506000FF32019230BB30228DF8032018706A465F
:10507000082340F292516068FFF7ACFF236892204A
:105080001D6AFEF741FB01462046A84702B070BDED
:10509000421C06D1012202212273094A1170D22238
:1050A000AEE70128ADD1032208212273044A117012
:1050B0007822A5E70828D9D13122D5E7AE1C0020F7
:1050C000AD1C0020542E00204E2E00200B7803F043
:1050D000010343720B78C3F3800303720B78C3F3AD
:1050E000001383728B78C3F3C003437670470000CC
:1050F00008B54B7808781B0203F4706318440AF073
:105100008BFF09A3D3E900230AF0F0FF0BF048FA64
:1051100007490BF0A3FBBDE8084001469F20FEF7BE
:1051200019BB00BFAFF300809A9999999999B93F3B
:105130002B121F3F0B78842B03D10121E220FEF7B5
:10514000FBBA812B01D10021F8E770474B78323B45
:1051500018BF0123037670470B46B3F53F7F114616
:105160000FD006DCB3F5987F07D0B3F5D07F06D01B
:105170007047B3F5906F06D07047FFF7A7BFFFF7F2
:10518000B7BFFFF7D7BFFFF7E1BF000003682DE906
:10519000F74F5B6B05460E469847634C002800F0BE
:1051A000BD809E20FEF7A8FA40F2ED23984240F31E
:1051B000B2809E20FEF7A0FA800080B207229421E0
:1051C000237843F0500300278DF802200A44AA32C6
:1051D00002EB10228DF80130ADF804001344C0B288
:1051E000034403EB23236A4668688DF806108DF8A4
:1051F0000030AA2108238DF807708DF80370FFF79F
:10520000E9FEBE420CBF04226422DFF820A14FF069
:105210000F0B9AF80010DFF8189101F5FC73134496
:1052200003EB13238DF800304EF22103ADF802306A
:1052300041F6217368688DF80110ADF80430A8219B
:1052400008238DF807206A46DFF8E8808DF806B05D
:10525000FFF7C0FE99F800306A468DF8003098F8E4
:105260000030A9218DF801304DF67973ADF8023088
:10527000314B686801930823FFF7ACFE2F4E304B8B
:105280003278197868688B188DF80010FF2103F5C3
:10529000E47303EB13238DF801108DF80530BA2168
:1052A00007238DF806206A46ADF802B08DF8047029
:1052B000FFF790FE23782349013323700B78224AAD
:1052C00001330B709AF80030307801338AF80030DF
:1052D00099F800300130013389F8003098F8003037
:1052E0003070013388F8003013780133DBB25C2B67
:1052F00013700DD1BE230B70E92389F800304D23C4
:105300001370802327708AF8007088F8007033705B
:1053100003B0BDE8F08F40F6B8304FE72378FE22A7
:10532000842143F030034EE74F2E0020512E002001
:10533000AB1C0020502E00201DC7E021A91C00201E
:10534000AD1C0020AC1C0020AA1C0020037E10B560
:10535000044643B1B320FEF7E5F901462046BDE817
:105360001040FFF713BF10BD73B506467E20FEF751
:10537000C3F9012815BF00239C231A469E224FF033
:105380008C0014BF1D4660258DF804308DF8052073
:10539000FEF7BAF9014621480BF056F920490446B8
:1053A0000BF018FC002835D120460BF033FC6423A9
:1053B00058434FF4FA7390FBF3F032300BF0FAF9E4
:1053C00018490BF043F93C23174C8DF800300BF0D3
:1053D00047FC23786A461D43C3238DF8033048F207
:1053E000CD234FF4E8718DF80100ADF806307068F8
:1053F00008238DF80250FFF7EDFD0C4A2178137851
:105400008B4209D10133DBB20F2B08BF002323707D
:1054100002B070BD0648D6E71170F9E70000C84237
:105420000040034400004042532E0020522E002032
:1054300000001643037E73B50446A3B148F261230E
:105440000093C37A63B9032560686A46036840F233
:1054500032315E680223B047013DF5D10123E3728A
:105460002046FFF781FF02B070BD016170474161C6
:105470007047007A7047007A70470023C372704704
:1054800010B504460022616008464FF4987101F09F
:10549000BCFE00224FF43F71606801F0B6FE0022AE
:1054A0004FF49061606801F0B0FE00224FF4D071BB
:1054B000606801F0AAFE60680022BDE8104040F27A
:1054C000FE3101F0A2BE00002DE9F0410025BCB084
:1054D0008846F02268460F490BF028FC6C461426DB
:1054E0002F4620680BF066F941460BF05FFB08B1D0
:1054F000D4E90175013E04F10C04F2D13946722061
:10550000FEF71AF9294673203CB0BDE8F041FEF7DA
:1055100013B900BF042A0108037E73B50446002BAB
:1055200050D0A720FEF7E8F8324B00284CD10321D9
:10553000314A20731170E1221A701B782F4D8DF8BB
:1055400000300C238DF801308F238DF802302B783A
:1055500060688DF80330F0238DF8043003686A46E4
:105560004FF4E9715E680523B0472B783A20103379
:10557000DBB2ED2B08BF0D232B70FEF7BDF8204BDF
:10558000C0B21A78824215D04FF40952ADF800200B
:1055900000228DF802204FF0FF32019230BB302202
:1055A0008DF8032018706A46082340F29251606813
:1055B000FFF710FD236892201D6AFEF7A5F801464B
:1055C0002046A84702B070BD421C06D1012202212C
:1055D0002273094A1170D222AEE70128ADD103220D
:1055E00008212273044A11707822A5E70828D9D12E
:1055F0003122D5E7B41C0020B31C0020622E00200D
:105600005C2E00200B7803F0010343720B78C3F388
:10561000800303720B78C3F3001383728B78C3F398
:10562000C00343767047000008B54B7808781B022A
:1056300003F4706318440AF0EFFC07A3D3E90023D6
:105640000AF054FD0AF0ACFFBDE8084001469F2077
:10565000FEF780B8AFF300809A9999999999B93F6C
:1056600010B50B780C46842B0BD10121E220FEF7FC
:1056700063F86178E320BDE8104001F00101FEF716
:105680005BB8812BF5D10021F0E74B78323B18BF96
:1056900001230376704708B5B1F900000BF08AF8D2
:1056A0004FF074510BF0DAF8BDE808400146A12034
:1056B000FEF750B80978B9208B1E59425941FEF7C0
:1056C0003BB80B46B3F53F7F114615D008DCB3F568
:1056D000987F0DD0B3F5D07F0CD0B62B10D070478B
:1056E00040F2FE3293420DD0B3F5906F06D0704772
:1056F000FFF788BFFFF798BFFFF7B2BFFFF7C5BF3F
:10570000FFF7C9BFFFF7D6BF03682DE9F74F5B6B03
:1057100005460E469847634C002800F0BD809E2049
:10572000FDF7EAFF40F2ED23984240F3B2809E205D
:10573000FDF7E2FF800080B207229421237843F036
:10574000500300278DF802200A44AA3202EB1022EF
:105750008DF80130ADF804001344C0B2034403EBEC
:1057600023236A4668688DF806108DF80030AA2158
:1057700008238DF807708DF80370FFF72BFCBE42ED
:105780000CBF04226422DFF820A14FF00F0B9AF81F
:105790000010DFF8189101F5FC73134403EB132399
:1057A0008DF800304EF22103ADF8023041F621733E
:1057B00068688DF80110ADF80430A82108238DF831
:1057C00007206A46DFF8E8808DF806B0FFF702FC94
:1057D00099F800306A468DF8003098F80030A92119
:1057E0008DF801304DF67973ADF80230314B6868B1
:1057F00001930823FFF7EEFB2F4E304B32781978D8
:1058000068688B188DF80010FF2103F5E47303EB33
:1058100013238DF801108DF80530BA2107238DF878
:1058200006206A46ADF802B08DF80470FFF7D2FB8F
:1058300023782349013323700B78224A01330B70FC
:105840009AF80030307801338AF8003099F8003047
:105850000130013389F8003098F80030307001339E
:1058600088F8003013780133DBB25C2B13700DD154
:10587000BE230B70E92389F800304D231370802379
:1058800027708AF8007088F80070337003B0BDE8A4
:10589000F08F40F6B8304FE72378FE22842143F0A2
:1058A00030034EE75D2E00205F2E0020B11C00204B
:1058B0005E2E00201DC7E021AF1C0020B31C00207D
:1058C000B21C0020B01C0020037E10B5044643B17A
:1058D000B320FDF727FF01462046BDE81040FFF743
:1058E00013BF10BD2DE9F3470646A820FDF70CFFB6
:1058F0000446A920FDF708FF5549054620460AF051
:10590000A5FE002104460BF047F9002840F08B80EB
:10591000204650490BF05EF9002840F08680204672
:105920000BF09EF907464A4928460AF08FFE0021EF
:1059300004460BF031F9002879D1204645490BF097
:1059400049F9002875D120460BF08AF905467E20DA
:10595000FDF7D2FE01284FF00004DFF8FC806FD184
:105960003C20FDF7D1FE81461620FDF7CDFE2146F5
:1059700082460BF02FF900285DD0514648460BF0C7
:1059800021F804468920FDF7BFFE002181460BF077
:1059900003F9002852D0314909F100400AF05EFFB6
:1059A00021460BF00FF82E490AF058FFD8F80010E6
:1059B0000AF04CFE4FF08F4104460BF001F928B17C
:1059C00020464FF08F410AF03FFE04462046C8F8BB
:1059D00000400BF045F96023ADF80400214C4FF472
:1059E000E8712278706813438DF80230C3238DF874
:1059F000033049F2CD636A46ADF8063008238DF8CE
:105A000000708DF80150FFF7E5FA174A21781378F6
:105A10008B421BD10133DBB20F2B08BF0023237055
:105A200002B0BDE8F08700277DE7CF277BE70025A0
:105A30008DE7CF258BE74FF07E54A3E70020AFE73B
:105A40000023C8F80040ADF80430C7E71170E7E75D
:105A50000000404200004F43582E00205304E93715
:105A600000247449612E0020602E0020037E73B54F
:105A70000446A3B148F261230093C37A63B90325B6
:105A800060686A46036840F232315E680223B047BC
:105A9000013DF5D10123E3722046FFF723FF02B059
:105AA00070BD4069704708B5B0F908000AF082FE81
:105AB00008BD08B5B0F90C000AF07CFE08BD000076
:105AC000014B1878704700BFF42E00200000000042
:105AD00038B51D48FEF7D2FC05461C48FEF7CEFC43
:105AE000044628460AF098FA13A3D3E900230AF0E3
:105AF000FDFA13A3D3E900230AF042F90AF050FD9E
:105B0000054620460AF088FA0BA3D3E900230AF0E1
:105B1000EDFA0BA3D3E900230AF032F90AF040FDB5
:105B20000446014628460BF055F808B1284638BD12
:105B30002046FCE7AFF300801213371BE91495BF32
:105B4000988F7B2556484C400C2C0020082C0020B8
:105B500038B505460C461A48072109F031F80721E7
:105B6000184A174809F0AEF82A460721144809F0E8
:105B7000B2F8A2B20721124809F0BDF80721104877
:105B800009F085F807210E4809F062F80022072184
:105B90000B4809F050F800220721094809F03EF8A7
:105BA0004FF480520721064809F02BF804480721DA
:105BB00009F076F8BDE83840034809F09BBE00BF05
:105BC00000000240044400400044004010B5044678
:105BD0000621194808F0F4FF0621184A164809F072
:105BE00071F80621164A144809F075F8A2B2062188
:105BF000114809F080F806210F4809F03FF8062106
:105C00000D4809F025F8002206210B4809F013F889
:105C100000220621084809F001F800220621064862
:105C200008F0EFFF0448062109F03AF8BDE81040FB
:105C3000044809F05ABE00BF00000240044400407E
:105C4000632E00200044004038B504463320FDF7A1
:105C500053FD00B20228E0811FD1344D344B287827
:105C6000002832D141F65832B4F90C10914201DDCE
:105C700001221A7019782F4A884248D001231370E4
:105C80002D4B93F900002D4B10B918780130187086
:105C90001878042822D108B2E081012808D12848C8
:105CA000FBF726FE2748FBF723FE2748FBF720FEDD
:105CB000B4F90E30C3B92248FBF71AFE2148FBF7AE
:105CC00013FE2148FBF710FE0EE00128D2D1B4F9F3
:105CD0000C20B2F5FA6FCDDA0022CAE7052803D10D
:105CE0002970002119701170B4F90E30032B0DD1F9
:105CF000A720FDF701FD013011480DD1FBF7F8FD9C
:105D00001048FBF7F1FD1048FBF7EEFD38BD00230E
:105D100000B2E0811370C0E7FBF7EAFD0948FBF72A
:105D2000E7FD0948FBF7E4FDF0E700BFF12E002096
:105D3000F02E0020F32E0020F22E0020EF2E002067
:105D40006C2B00207C2B0020742B00200000000016
:105D50002DE9F74F064612208846FDF7CDFC8E4B05
:105D6000C4B21B78012B40F0B4803046FFF76CFFC3
:105D700040468A490AF072FD89490AF023FE0AF07A
:105D800049FF884D884F95F900A0388050460AF0A9
:105D900011FD41460AF062FD0AF050F97CA3D3E9F7
:105DA00000230AF0A3F90AF0FBFB804981460AF0C0
:105DB00055FD7B490AF006FE0AF02CFFDFF8F0B132
:105DC000DFF8F0819BF800203062A8F80000002A7C
:105DD00000F0D880BAF1000F2EDD2320FDF794FCEF
:105DE000019095F900000AF0E5FC7349824601989C
:105DF0000AF034FD014650460AF026FC0AF00AFF7C
:105E000040B200283DDB6328287015DC9BF8003089
:105E100093B92320FDF778FC824695F900000AF03B
:105E2000C9FC51460AF012FC0AF0F4FE40B26428A4
:105E3000CABF642328702B70B6F90E3023BB002133
:105E400048460AF0A9FEF8B1B8F900000AF0E4F8F3
:105E500000225A4B0AF04AF90AF05AFBA8F800004F
:105E6000B7F900000AF0D8F80022544B0AF03EF9C6
:105E70000AF04EFB3880032C14D8DFE804F00B1036
:105E80000E1B00222A70C1E7032C0BD8DFE804F0B8
:105E90000207050D336A002B04DA434B00E0454B43
:105EA00000221A8003B0BDE8F08F484644490AF04A
:105EB00091FE10B900233B80F4E748460AF0AAFEA1
:105EC00041F2171332385843322390FBF3F03880F5
:105ED000E8E7022B1ED1354940460AF0BFFC3049A5
:105EE0000AF070FD0AF096FE324A03B2138013EBFB
:105EF00083032D4948BF03339B1030620B800CB9DC
:105F0000A042C9E7012C02D100231380CAE7022C6A
:105F1000C8D1C2E7032BC5D1244940460AF09EFCF4
:105F20001F490AF04FFD0AF075FE224A03B21380A2
:105F300013EB83031C4D48BF03339B1030622B804F
:105F4000032CAFD801A353F824F000BF5D5F000815
:105F50009F5E00089B5E0008615F000800289BE7C9
:105F6000404617490AF036FE08B928809AE74046AD
:105F70000AF050FE41F2171332385843322390FB97
:105F8000F3F0F2E7BAF1630F3FF756AF41E700BF16
:105F90007B14AE47E17A843FFF2E002000B888458D
:105FA0000000C842F22E0020F82E002000C05A4502
:105FB000F32E0020F62E00200000A0400000E03F5D
:105FC0000000484210B57E20FDF796FB08B902F0AC
:105FD00087FF7E20FDF790FB012841D12148FBF788
:105FE00069FC0146BA20FDF7A7FB1F48FBF762FCDE
:105FF0000146BB20FDF7A0FB1C48FBF75BFC0146FC
:10600000BC20FDF799FB1948FBF754FC04461648E1
:10601000FBF750FC84F0010380F001046400114898
:1060200044EA8304FBF746FC80F0010044EA0003E5
:106030005BB20F4C062B237003D10021BF20FDF76C
:106040007BFB2378052B03D10121BF20FDF774FBD7
:106050003420FDF751FBBDE8104080B202F040BF94
:1060600010BD00BF642B00205C2B0020542B0020AF
:10607000FA2E0020034B1B78012B01D1FFF7A2BFA2
:10608000704700BFFF2E002000220B4870B513465A
:1060900005468C1E944209DC294411F8012C285D28
:1060A00040EA0220C31A5842584170BD10F8016BF3
:1060B000013233449BB2EDE7632E0020002070B51F
:1060C000084C034622468D1E854205DC53550A4482
:1060D0001B0A02F8013C70BD14F8016B0130334417
:1060E000F2E700BFE7210020F8B5B94D04462B7850
:1060F0000E2B3ED8DFE813F00F0016003B003E00E9
:106100007600B800BA00D900DB0007016001860103
:106110009F01A101CA016420FFF758FDAD48FBF7BC
:10612000E7FB1EE0AC4CAB48FBF7DEFB23787BB90A
:1061300002220721A94808F05AFD90B10721022246
:10614000A64808F04EFD5021A548FFF701FD08E0E4
:106150005021A448FFF7FCFCA34B5B7823B9012333
:1061600023702B78013303E02378013BF8E7032306
:106170002B70F8BD6421FFF787FF9B4E9B4F38B90A
:10618000014638706081A081AF20FDF7D5FA23E089
:1061900002220621914808F02AFD0028F0D00222B0
:1061A00006218E4808F01DFD01233B70B6F85230E1
:1061B000053B03EBD3735B10238196F92A000AF0A9
:1061C000F9FA606196F956000AF0F4FAF388A061D2
:1061D0006381B6F81F30A381002386F8623086F809
:1061E0006330BEE7824EA020B6F90010FDF7A4FA96
:1061F0006189A2897A4B0A44712112B292FBF1F2B1
:106200007C491A70B1F900200978880083F84B00A6
:106210009011524212129A711A73B6F90020494233
:106220005971D9729A76110A83F82020782283F85E
:106230003F20EC2283F840206C2283F841206B221F
:1062400083F84C00D97683F821102046502183F83A
:106250004220FFF733FF684A1388642B8CBF00236A
:1062600001331380002383E7782055E75A4C5948BF
:10627000FBF73AFB2378052B0ED90222072157485A
:1062800008F0B5FC00283FF46CAF07210222534808
:1062900008F0A7FC642157E76421584801FB03007C
:1062A000FFF756FC237801335AE7082360E778218B
:1062B000FFF7EAFE4C4E4D4F00283FF461AF02223B
:1062C0000621464808F093FC00283FF459AF02220B
:1062D0000621424808F085FC01233B70B6F8643083
:1062E000053B03EBD3735B10238196F914000AF08E
:1062F00061FA6061B6F856000AF05CFAF388A061B2
:106300006381F38C67E73A4EA020B6F90010FDF7E1
:1063100013FA384B206AB3F90020314B11125A712D
:10632000DA72B6F900209971197300284FEA122128
:106330009A77D97736DD9A7602EBD27252101A77B5
:10634000120AD9765A77752183F84A10122183F8F8
:106350004B106021402283F84C10252183F84820FF
:10636000042283F84D10522183F8492083F84F20EE
:10637000892283F84E10224983F8562083F858204A
:106380000A78204601320A70D20748BF93F85E208F
:106390004FF0640144BF013283F85E20FFF78EFEA8
:1063A0000523E5E6CFD01A7702EBD27252109A7627
:1063B000120A5977DA76C6E77E20FDF79DF90128A3
:1063C0001CBF0022044B4FF08C0018BF1A70A3E6CC
:1063D000FE2E00204C2B0020502200200000024006
:1063E000E7210020F92B0108632E0020F42E002065
:1063F000F62E0020F82E0020FC2E00202B1F00205F
:10640000FB2E0020384C3948FBF76EFA2378062B18
:106410000ED902220721364808F0E9FB00283FF494
:10642000A0AE07210222324808F0DBFB69218BE68F
:106430006921304832E70D239AE68C21FFF724FECC
:106440002D4E08B302220621294808F0D0FBD8B10E
:1064500002220621264808F0C4FB01233370274E90
:10646000B6F875305B10238196F914000AF0A2F992
:106470006061B6F819000AF09DF97389A061638123
:10648000B6F82B30A3816CE630706AE61C4EA02073
:10649000B6F90010FDF750F91A4B2046B3F9002069
:1064A000194B524211125A71DA72B6F900209971E1
:1064B000DA77121283F820209A7E197383F8252048
:1064C000DA7E692183F82620782283F84F20EC2297
:1064D00083F85020102283F85120272283F852207D
:1064E000FFF7ECFD0A2343E6502200204C2B00204E
:1064F00000000240B51C0020F42E0020632E002076
:10650000F62E0020F82E0020E721002038B5037F6A
:1065100004468B420D460AD051B15E20FDF7ECF8DF
:1065200008B9FCF78FFEFCF7C3FE0123237738BDC3
:106530004FF0804009F01EF82577F8E708B50121F3
:10654000FFF7E4FF0B4B1A78042A04D805221A70CF
:106550000022094B1A7000230849094A11F8010B5F
:106560000133642B02F8010BF8D10222054B1A709B
:1065700008BD00BFFE2E0020502200202C2B010859
:10658000E7210020FF2E002008B50121FFF7BEFF04
:10659000064B1A78042A04D900221A700122044BEF
:1065A0001A700122034B1A7008BD00BFFE2E002096
:1065B00050220020FF2E0020012108B5FFF7A6FF82
:1065C0000A4B0B491A78092A9CBF0A221A7000222A
:1065D000084B1A706923084A11F8010B013B02F8B5
:1065E000010BF9D10322054B1A7008BDFE2E0020C5
:1065F000902B010850220020E7210020FF2E0020D0
:106600000021FFF783BF01817047000008B50846ED
:106610000AF000FBA622A0F10F035343412293FB93
:10662000F2F3024A5833138008BD00BF002F002048
:10663000B220FDF777B810B5044600226160084625
:1066400040F2531100F0E1FD60680022BDE8104007
:1066500040F2F31100F0D9BD40F25313994210B546
:10666000044610D1B2F80100A0F5B0700AF0A2F80B
:106670004FF076510AF0F2F801469F20FDF76AF8D4
:106680000123E37203E040F2F3139942F8D010BD06
:1066900010B50446C07A10B90348FBF70BF9002384
:1066A0002073E37210BD00BF0C2B002008B5024818
:1066B000FBF700F908BD00BF0C2B002007B540F226
:1066C000EE22038940F21631934238BF1346052269
:1066D000ADF8002041F65832934228BF13460A22F3
:1066E0009B01B3FBF2F3ADF8023000236A4601933D
:1066F00040680823FEF76EFC03B000BD13B5154AD1
:106700000024137814498DF80030144B01941B8831
:106710008DF80130C523ADF802300B780133DBB2C0
:10672000152B0CD80B7063B91123137008236A461C
:1067300040F229314068FEF74DFC02B010BD0C70EC
:10674000F2E7082B01D18623EFE70F2BEED1D923F7
:10675000EBE700BF042F0020052F0020002F0020B2
:10676000462313B5ADF80430002340688DF8063099
:10677000036840F23B415C6801AA0323A04702B0D2
:1067800010BD000007B50C4A40F24551138840681F
:106790000133138000228DF801301B0A8DF802307E
:1067A000064B8DF800208DF8032001936A460823DC
:1067B000FEF710FC03B000BD022F00207E10001871
:1067C00007B5C9B1012919D001310CBF072308232E
:1067D0008DF801304FF6FF738122ADF80230084B7F
:1067E0008DF8002001936A46082340F23F4140683B
:1067F000FEF7F0FB03B000BD0623E9E70523E7E75A
:106800000080FFFF037B10B50446BBB1FFF756FFC6
:106810002046FFF773FF2046FFF7B4FF2046FFF73F
:106820009FFF0320FCF77EFF40B1A720FCF764FF29
:1068300041B22046BDE81040FFF7C2BF10BD018144
:1068400070477047B220FCF76DBF000008B5084BD9
:10685000186899889B792BB108F0B9FBB0FA80F0E1
:10686000400908BD08F0B3FB003818BF0120F8E765
:106870000C2B002030B51F4A1F4B89B0CDE90123F6
:106880001E491F4B1F4CCDE903131F4B1F4D059392
:106890000023ADF8193023784FF4B06163F07F0323
:1068A0008DF818302B68406820336B4413F81C2C8B
:1068B0008DF81B2013F8182C8DF81C2013F8142CBD
:1068C0008DF81D2013F8102C13F80C3C8DF81E20A9
:1068D0008DF81F3006AA0823FEF77CFB2B680133D6
:1068E00003F003032B602378013303F00F032370BD
:1068F00009B030BD0F287F281E1000107056F056CA
:106900000C48A748062F002046902890082F00200A
:1069100037B540F2EE2203890025934238BF134673
:1069200041F65832934228BF1346044603819A0029
:106930009B09CDE900554FF420718DF803308DF897
:10694000042008236A464068FEF744FB08236A4691
:106950004FF4227160688DF803508DF80450FEF7F3
:1069600039FB03B030BD000008B5034BB3F900009C
:1069700009F020FF08BD00BF182F002008B5034B09
:10698000B3F9000009F016FF08BD00BF1A2F002060
:1069900008B5024B188809F009FF08BD1E2F00201A
:1069A00008B5034BB3F9000009F004FF08BD00BFB0
:1069B0001C2F0020064B1A78064B0AB91A7001E00A
:1069C000012AFBD0044A126802B91A70187870477D
:1069D000142F0020152F0020102F002010B5044682
:1069E0000022616008464FF4C87100F00EFC0022DE
:1069F0004FF4CD71606800F008FC00224FF4D271B2
:106A0000606800F002FC60680022BDE810404FF4AE
:106A1000D77100F0FABB00002DE9F34106460846A5
:106A2000354909F01BFF0AF0F5F8344B01B2A020FC
:106A30001980FCF781FE7E20FCF75EFE0546B4203F
:106A4000FCF770FE00284DD06B1E5C425C41E400F8
:106A5000B520FCF767FE28B104F11003DBB2012D6D
:106A600008BF1C46B320FCF75DFE012D04EB80043B
:106A70003AD1234A138813B1013B13800234A22078
:106A8000FCF73AFEC0F30B05A320FCF735FE804669
:106A9000DB20FCF731FE00F00307AF20FCF72CFEF3
:106AA000184B45EA046503EA08331D43C0F30D00A3
:106AB00040EA873045EA87750190009508F05EF856
:106AC0000221684608F068F8019B6A4643EA0063C1
:106AD0007068019303683F215C680823A04702B0F7
