:020000040800F2
:1010000000500020B5F80008B1F80008AFF800085B
:10101000AFF80008AFF80008AFF8000800000000C3
:10102000000000000000000000000000B1F800080F
:10103000B1F8000800000000B1F80008B1F800089D
:10104000AFF80008AFF80008AFF800082127000843
:10105000AFF80008AFF80008AFF80008AFF80008D4
:10106000AFF80008AFF80008AFF80008AFF80008C4
:10107000AFF80008AFF80008AFF80008AFF80008B4
:10108000AFF80008AFF80008AFF80008F9830008CF
:10109000D9830008E9830008AFF80008AFF800081A
:1010A000AFF80008AFF80008AFF80008AFF8000884
:1010B000AFF80008AFF80008D1260008AFF8000824
:1010C000AFF80008AFF80008AFF80008AFF8000864
:1010D000AFF80008AFF80008AFF80008AFF8000854
:1010E000DD260008AFF80008AFF80008AFF80008E8
:1010F000AFF80008AFF80008AFF80008AFF8000834
:10110000AFF80008AFF80008AFF80008AFF8000823
:10111000AFF80008AFF80008AFF80008AFF8000813
:10112000AFF80008AFF80008AFF80008AFF8000803
:10113000AFF80008AFF80008AFF8000825840008F1
:101140000584000815840008AFF80008AFF800080F
:1011500010B404466468084611461A46234610BC7B
:101160001847836818477047704770477047704743
:1011700041607047704770477047704770477047CD
:1011800070470020704700207047000000487047FB
:101190000000484200207047416070477047704728
:1011A0007047704770470020704741607047704734
:1011B0007047704770477047002070477047416024
:1011C00070470020704770477047704770477047FE
:1011D000002070477047416070477047002070479B
:1011E00070474160704770470846704770477047C6
:1011F0007047704700487047003C1C46416070478C
:10120000704770477047704770474160704770473C
:101210000020704700207047002070470020704772
:101220000020704770477047104B10B5186803686E
:101230001B6898470E4B186803681B6898470D4B4E
:10124000186803681B6898470B4B186803681B688D
:1012500098470A4B186803681B689847BDE8104018
:10126000074B186803689B68184700BF18000020E8
:10127000140000200C0000201C00002010000020A2
:101280000400002010B5174C206803689B6998473C
:10129000052002F0D5F92346062818D8DFE800F02B
:1012A000040A0C0E1012200000210F4A11700F4A80
:1012B0001A600CE00E4AFBE70E4AF9E70E4AF7E720
:1012C0000E4AF5E70E4A0F4B226001221A700E4CAF
:1012D000206806F043F86068BDE8104006F03EB8AC
:1012E0000A4AE5E70C000020AC260020242A002052
:1012F000982A0020402A0020B026002098270020AD
:101300004C2A0020B8280020C82800209027002060
:1013100010B5114C20680368DB699847042002F07F
:101320008FF92346042806D8DFE800F003100E12D8
:1013300014000A4A1A600A4C206806F00FF8606828
:10134000BDE8104006F00AB8064AF3E7064AF1E79E
:10135000064AEFE7064AEDE71C000020382A002085
:10136000C8280020042B0020182A00202C2A002046
:10137000FC2A002010B5134C206803685B6898476E
:10138000062002F05DF901382346052817D8DFE86A
:1013900000F00310100E12140B4A0C4C1A60206857
:1013A00005F0DCFF6068BDE8104005F0D7BF084AD3
:1013B000F3E7084AF1E7084AEFE7084AEDE7084A89
:1013C000EBE700BF00000020742A0020C82800209E
:1013D000642A00200C290020C82900204027002072
:1013E0006C2A002010B50B4C206803685B68984796
:1013F000452002F025F9012814BF074B074B236055
:10140000074C206805F0AAFF6068BDE8104005F0B1
:10141000A5BF00BF04000020CC2A0020EC2A002039
:10142000C8280020022010B502F00AF901380D4B3F
:10143000032803D8DFE800F00D0F11130A4A0B4C04
:101440001A60206805F08AFF6068BDE8104005F06A
:1014500085BF074AF3E7074AF1E7074AEFE7074A7C
:10146000EDE700BF1000002038270020C82800202A
:10147000AC2700208C26002098260020A0270020E2
:1014800010B5012002F0DCF809280FD8DFE800F0E1
:10149000171C2B0E05091F222528144B144A1A600D
:1014A00004E0124A134B136000229A72124C206817
:1014B00005F054FF6068BDE8104005F04FBF0B4ACF
:1014C0000C4B13600122F0E7084B0C4AE7E7074B8F
:1014D0000B4AE4E7054B0B4AE1E7044B0A4ADEE717
:1014E000024B0A4ADBE7014B094AD8E71400002007
:1014F0002C270020CC260020C8280020DC26002035
:101500001427002090290020B8260020F82600206B
:10151000D8280020036810B59B6898470FF02EFB71
:1015200000240146922002F0ABF821468D2002F003
:10153000B5F821468E2002F0B1F82146902002F045
:10154000ADF82146BDE81040912002F0A7B8000098
:1015500010B51D4C206803689B6A9847002002F074
:101560006FF8234609280FD8DFE800F005080A0EB7
:10157000271C2117292B154A1A6005E0144AFBE79E
:101580001448206005F06EF8134C206805F0E6FE64
:101590006068BDE8104005F0E1BE0E48206005F02F
:1015A00079F8F1E70B48206005F038F8ECE70B4AD2
:1015B0001A6001220A4B1A70E6E70A4ADCE70A4A77
:1015C000F6E70A4AD8E700BF18000020A42600204A
:1015D000A02A00206C290020C8280020E82800202C
:1015E000B8280020BC2A0020A8290020402900207B
:1015F00010B5144C206803681B6998474D2002F011
:101600001FF82346032805D8DFE800F0020D0F1667
:101610000D4A1A600D4C206805F0A0FE6068BDE818
:10162000104005F09BBE0A4AF3E70A4B0A481968C6
:1016300020600BF047F9EDE7084A094B22600122D0
:101640001A70E7E70800002084260020C828002040
:10165000BC280020102A0020D82A0020042A0020BC
:10166000B8280020AA2002F001B800002DE9F74FA9
:10167000082001F0E5FF484C54F8201009200191A2
:1016800001F0DEFF54F820600A2001F0D9FF54F881
:1016900020500B2001F0D4FF54F820B00C2001F0B2
:1016A000CFFF54F820200D20009201F0C9FF54F81C
:1016B00020A00E2001F0C4FF54F82080102001F07B
:1016C000BFFF54F82090112001F0BAFF334B54F8BB
:1016D0002070186801990368DB6A9847304B3146DF
:1016E00018680368DB6B98472E4B009A1868114600
:1016F0000368DB6998472C4B5946186803681B6AD6
:1017000098472A4B5146186803681B699847284B2D
:101710004946186803685B699847264B3146186844
:1017200003689B6998474146234809F063FF234BB0
:101730003946186803685B699847072001F080FF05
:10174000012802D1284603F00FFB072001F078FFA3
:10175000022802D1284609F055F9072001F070FF50
:10176000032802D1284609F01FFB072001F068FF7B
:10177000042802D128460CF0F5FE002240F2016157
:10178000606805F0CEFD002240F20161206803B0E0
:10179000BDE8F04F05F0C5BDC828002018000020A6
:1017A000140000200C0000201C000020000000207D
:1017B0000400002010000020942A002008000020CF
:1017C00038B540F2DF73984204460D4606D10A460A
:1017D0000146314809F016FF002038BD072001F00E
:1017E0002FFF012803D12946204603F09BFB072049
:1017F00001F026FF022803D12946204609F042F9CC
:10180000072001F01DFF032803D12946204609F0D7
:10181000FBFA072001F014FF042803D129462046D3
:101820000CF0A5FE1D4B2A46186821460368DB68AC
:1018300098471B4B2A461868214603681B6998473E
:10184000184B2A461868214603681B699847164BAF
:101850002A461868214603681B699847134B2A4695
:101860001868214603681B689847114B2A46186878
:10187000214603681B6898470E4B2A461868214684
:1018800003681B6998470C4B2A4618682146036871
:101890001B689847A0E700BF942A0020180000208A
:1018A000140000200C0000201C000020000000207C
:1018B00004000020100000200800002008B50346A6
:1018C00099889B7900682BB10DF047FBB0FA80F046
:1018D000400908BD0DF041FB003818BF0120F8E7B2
:1018E00008B50248FFF7EAFF08BD00BFFC2C002046
:1018F000818800680DF02CBB818800680DF02ABB40
:101900002DE9F843A74BA84D998818680DF028FBDE
:101910000DF030FBA54BA64E186801F05DFE0EF0F1
:10192000FDFEA4490FF002F80146D32001F0B6FEF7
:1019300006F0D4FA01467C2001F0A2FE7A2001F0E4
:101940007FFE29680446306806F030FF072001F06A
:1019500077FE08B107F0CAF93068974F03689B6AB1
:1019600098470146A82001F08BFE30680368DB6AC7
:1019700098470146A62001F091FE07F0EBF9386880
:1019800003689B689847306803689B6898478B4B4F
:10199000186803689B689847894B18680368DB6878
:1019A0009847884B186803681B699847286803683C
:1019B0009B689847844B186803689B699847834BDA
:1019C000186805F019FD0CF0D3FD814B1B780BB1A5
:1019D0000BF0EAFCA02001F033FE7E4D0028686A7F
:1019E00080F2A980FFF784FF012C286940F0A680CF
:1019F000FFF77EFF3868DFF808820368DFF804929B
:101A00009B6998470146A12001F048FE38680368A9
:101A10005B6998470146A22001F040FE38680368E0
:101A20005B6A98470EF07AFE0146B52001F036FE5B
:101A300038680368DB6998470146842001F02EFE70
:101A4000306803685B6B98470146B42001F018FECC
:101A5000614BA320196801F013FE604B1B78012B2A
:101A600004D0042B02D098F8003023B1D9F800003C
:101A700003689B689847D9F80000594F0368397884
:101A80005B699847064600285BD0012C1EBF0122E7
:101A9000544B1A70012388F80030A86A524B9842C0
:101AA00005D0FFF70BFF0146CC2001F0E9FD0BF05C
:101AB00031FC0BF047FC042C01D0012C66D1A12095
:101AC00001F0C6FD0646CF2001F0C2FD01463046BA
:101AD0000FF034F8002848D0A12001F0B9FD0646E7
:101AE000702001F0B5FD31460FF00AF800283ED015
:101AF000A86BFFF7FDFE042C01D0012C49D1E86B47
:101B0000FFF7F6FE002001F09BFD092848D1012CCB
:101B100046D1A02001F094FD344B354C1A68824226
:101B20003BD005221860226032480CF0EDFC23689F
:101B3000013B236034E0FFF7DFFE55E7FFF7DCFEF3
:101B400058E798F800303BB101467B2001F098FD42
:101B5000244B88F800601E70D9F8000039780368BB
:101B60009B699847244B187097E7CF20B5E7702002
:101B700001F06EFD21490EF01BFD31460EF0DEFF37
:101B80000028B8D0A86BFFF7B7FEB4E7A86BFFF743
:101B9000B3FEE86BFFF7B0FEB4E72368002BC3DCAD
:101BA000BDE8F8836C2C0020100000200C2B0020D6
:101BB0001400002000002041180000200C0000202C
:101BC000000000200400002008000020482A002017
:101BD000B82800200C310020482F002008290020C0
:101BE000362A0020AC260020A42C0020182B002030
:101BF000142B002040290020E82A00200000A040EB
:101C0000D42800201C0000202DE9F74F982001F077
:101C100017FD80467A2001F013FD0446A02001F054
:101C20000FFD07460DF080FB06F024F9AA4BDFF804
:101C3000E0A2186803685B6898477A2001F000FD0D
:101C40000128054640F0C1800FFA88F888EAE8705C
:101C5000A0EBE87080B206F077FF002106460EF098
:101C60004FFF98B1002001F0EBFC04280ED01F209C
:101C700001F0E6FC002840F0A280B8F1000FB8BFE8
:101C80004FF0FF35BD4218BF06F1004638460EF052
:101C900045FD31460EF096FD0546DAF80000036872
:101CA0005B689847DAF80000294603688B4E1B6989
:101CB00098479F2001F0C4FC05462E2001F0C0FC8F
:101CC0008542306A80F28580FFF712FEDAF8000064
:101CD000834D0368A8461B6A98470EF04FFF07B272
:101CE0003946982001F0CCFC082001F0A9FC55F8F9
:101CF000200006F05BFC012C7A4D01D0042C08D1A9
:101D0000286887EAE7710368A1EBE7719B6989B2EC
:101D10009847D5F80090A120D9F80030D3F81CB02E
:101D200001F096FC01464846D847286803685B687E
:101D300098476D4B18680368DB6898476B4B1868C9
:101D400003685B689847042C46D1694B18680368A0
:101D50005B689847384606F0A7FD81469B2001F056
:101D60006FFC0746142001F06BFC8742CCBF402774
:101D70000027352001F06CFC49460EF0CBFE002810
:101D800014BF002004200743252001F061FC4946D0
:101D90000EF0D4FE002814BF002008200743394667
:101DA0007D2001F06DFCDFF86CB1042C00F2828024
:101DB000DFE814F02800AF01B6007D019801B8F10A
:101DC000000FA8BF4FF0FF355CE706F077FF002556
:101DD00068E7FFF791FD79E7052001F031FC032862
:101DE00004D1434B186803685B689847012CB1D154
:101DF000D22001F025FC411C01F00F01D22001F09E
:101E00003FFCA7E70027DFF81091DFF810A1394861
:101E100089F800708AF80070FFF76EFDB069FFF76F
:101E20006BFD3946A02001F02BFC286803685B6934
:101E30009847314A1770314F00923B88002B45D1AB
:101E40002F48FFF759FDF069FFF756FD2D48FFF7C2
:101E500053FD9B2001F0F4FB0190142001F0F0FBF6
:101E6000019B834215DA286803689B6B984780B111
:101E7000286803685B6B984758B10124009B1C706D
:101E800019233B800DF050FA89F8004002241E4BC4
:101E900018601E4B1B784BB119233B800DF044FAA0
:101EA000194B0224186001238AF8003021467A2059
:101EB00001F0E6FBF068FFF71FFD0022DBF80000F1
:101EC000114603682546DB689847A4E0013B9BB2B6
:101ED0003B80002BBDD1B3E71C0000200C3100205B
:101EE000C82800201400002004000020100000205A
:101EF0000C000020642C0020D42A002020000020A8
:101F00009C2C0020DC2C0020102B0020AC26002074
:101F1000180000200800002034270020E4280020BA
:101F20008D4B1A780093002A40F09F80DAF8002049
:101F30008A4B9A4202D08A48FFF7DAFCF069FFF731
:101F4000D7FCB069FFF7D4FC864A13889246002B71
:101F500040F098808448FFF7CBFC6FB9834B1A7828
:101F6000002A00F096801F70192339467F20AAF8B6
:101F70000030012401F084FB7D4B1B7823B1009BD2
:101F80001B78002B08BF00247A4B1B7833B12868DC
:101F900003685B6B9847002808BF0024352001F0D8
:101FA0004FFB0EF0BBFB49460EF0C8FD68B10DF0CB
:101FB000BBF9714B1B680533984206D96A48FFF795
:101FC0009BFC092005F05CFF032421467A2001F0E8
:101FD00057FB012C7FF46EAF4E2001F031FB01283E
:101FE00005467FF467AFF068FFF782FCDBF800007E
:101FF000624903689B689847DBF800604F203368AC
:10200000DF6801F01DFB0446CC2001F02FFBA1B2DC
:1020100002463046B847072001F012FB022807D1DC
:102020000A2001F00DFB58F82010284608F03CFD6E
:10203000072001F005FB032807D10A2001F000FB6F
:1020400058F82010284608F019FF072001F0F8FA88
:1020500004287ED10A2001F0F3FA58F8201028460F
:1020600003B0BDE8F04F0CF085BA072001F0E8FAA4
:1020700000287FF463AFDAF80020414B9A427FF4E6
:102080005DAF58E7013B9BB21380002B7FF465AF37
:1020900060E7009B1B78002B3FF46EAF1923394695
:1020A0007F20AAF80030042401F0EAFA64E7002255
:1020B0002E4B2D481A70FFF71FFC2D4B1B7823B1B8
:1020C000254B1B78002B08BF00242A4B1B78002BC4
:1020D0003FF47BAF286803685B6B9847002808BF14
:1020E000002472E71F4D2B886BB92648FFF700FCD0
:1020F00005F0E8FE184B1B78002B7FF4D7AEFA22D0
:102100001C462A80D2E6013B9BB22B80002BEFD1EC
:10211000EBE7144F3B88B3B91A48FFF7E9FB1048C7
:10212000FFF7E6FB7A20012101F0AAFA05F0CAFECA
:10213000286803685B6B984700287FF446AFFA2352
:1021400004463B8041E7013B9BB23B80002BE9D139
:10215000E2E703B0BDE8F08FAC260020BC2A0020E7
:10216000642C002020000020DC2C0020D42A002039
:10217000E428002034270020102B002000004842D3
:10218000A02A00209C2C00202DE9F84F7A2001F095
:1021900057FA05469E4BDFF8C08218680368DB6873
:1021A0009847042D04D1D8F800000368DB689847ED
:1021B00006F05EFE974B984F1968C720DFF89CB277
:1021C00001F05EFAC820396801F05AFAC920DBF83C
:1021D000001001F055FA914BDFF884921968CA207B
:1021E0008F4E01F04DFACB20B9F8001001F048FAFB
:1021F0003378CA46022B8B4C40F0E9808A4B1B781F
:10220000002B40F0E480042D00F0BE8087493A683E
:10221000097891420AD18649DBF800200978914279
:1022200004D1B9F80030003B18BF01232370CEE081
:10223000012B40F0D5800023D1E06A2001F000FAA4
:10224000012800F0D380D8F800007A4A0368127899
:102250005B692178984708B1012D12D1764B1E7821
:10226000AEB931467B2001F00BFA744B1E700EE0C4
:102270003378012BE7D16C4A1278002AE3D123701E
:10228000E1E701216D4B7B20197001F0F9F96C4EEB
:102290003378022B07D1684B1B7823B1694B186840
:1022A0000368DB6898473378012B02D9033B012B85
:1022B0000AD8644F38680368DB68984733781BB9DD
:1022C00038680368DB689847042D2BD15A4B1E7879
:1022D0001EBB802001F0B4F905463A2001F0B0F9A8
:1022E00085420CDB882001F0ABF905463C2001F06B
:1022F000A7F98542DFBF01224B4B26701A70524B63
:10230000186803689B68984700210EF0EFFB20B126
:10231000002301222370444B1A704C4B586BFFF77B
:10232000EBFA26E0012DF8D100223F4B69201A700C
:1023300001F086F9022817D16C2001F081F90646D8
:102340006D2001F07DF9424B0546986802F04DF88A
:1023500001460446D52001F093F9AE420BDCA642BB
:10236000DBDCA54205DA0AE06A2001F069F90228FF
:10237000E2D0BDE8F88FA642CFDBA542F9DD334BB2
:10238000586BFFF7B5FAF4E7324FDFF8D8903B68A7
:102390003BB1D9F80020013B01323B60C9F8002075
:1023A00043B900235720237001F04AF94FF4967384
:1023B00043433B60D9F80030B3F5967F07D1002343
:1023C000C9F80030BAF80030013BAAF80030337881
:1023D000002B7FF42DAF144B1B780BB90123237016
:1023E000692001F02DF901287FF427AF6B2001F05F
:1023F00027F9174B8146586801F0F7FF0746014659
:10240000D42001F03DF9B945BFF632AF002336E7DD
:1024100014000020142A0020202A0020C42A0020B2
:10242000352A0020362A0020342A00208226002067
:1024300020270020E82A0020D4280020AC260020F5
:10244000082900201C000020000000200C31002082
:1024500058310020C82A00200C000020B82A002093
:10246000802600203C290020FEE700000C2838B51B
:1024700010D80C2819D8DFE810F0D000D300E50000
:102480001800D900D600DF001800E800E800E800D6
:10249000E800E8004D2800F0CC8000F2B280382837
:1024A00000F0DB80452800F0CA801F2001F0C8F84A
:1024B00040B1002001F0C4F8082803D000211F20FB
:1024C00001F0DEF8142001F0BBF8664D664C286080
:1024D000152001F0B5F82060162001F0B1F8686011
:1024E000172001F0ADF86060182001F0B1F85F4DE1
:1024F0005F4C2860192001F0ABF820602F2001F01C
:10250000A7F85C4B2168186028680EF0F9FA50B102
:10251000594918202960594D256001F0BFF8294616
:10252000192001F0BBF81A2001F092F8544B554CD9
:1025300018602A2001F08CF8534B18602B2001F012
:1025400087F8524B18602D2001F082F8504B18602C
:10255000222001F075F84F4B18601C2001F078F82C
:102560004D4B1860202001F073F84C4B18602C2064
:1025700001F06EF84A4B18601B2001F069F8494BD6
:102580001860052001F05CF8042001F059F8464B72
:1025900018702378012B22D1542001F051F8434BBD
:1025A0001860532001F04CF8414B1860522001F0A4
:1025B00047F8404B1860512001F042F83E4B18603C
:1025C000552001F03DF83D4B1870562001F038F8C9
:1025D0003B4B1870572001F033F83A4B18804120DC
:1025E00001F02EF82070572001F02AF84FF496736E
:1025F0004343354A136008F0A3F9BDE8384008F0BA
:10260000D5B9632805D860287FF64FAF00F032FEB9
:102610004BE773380428F9D947E7FEF799FF44E7F9
:10262000FEF72EFF41E7FEF72DFE3EE7FEF770FEB8
:102630003BE7FEF7DDFF38E7FEF79CFE35E7FEF7E8
:10264000D1FE32E7FEF7EEFE2FE7204C206804F0C3
:1026500085FE606804F082FE27E704F067FC04F062
:1026600053FC22E70C2F0020042F0020202F0020F5
:10267000E82E0020F02E00200080BB440000C8425D
:10268000242F0020352A00202C2F0020302F00205E
:102690003C2F0020E02E0020382F0020F42E0020B8
:1026A000EC2E0020DC2E002008290020C42A002067
:1026B000B82A0020202A0020142A00208226002088
:1026C0002027002080260020C82A0020C8280020BB
:1026D000014B186800F048BF0C2B002000B589B0F2
:1026E00003A804F0A3FC28B1DDF815300193DDF850
:1026F0001930029304F015FC4FF400400CF0EEFA90
:102700000499A1F58473012B05D8044B01AA18681C
:1027100003681B69984709B05DF804FB1C000020A2
:1027200008B500200CF036FE104B1A6801323B2A27
:102730001A600F4A05D911680131116019683C39D6
:10274000196013683B2B0B4B05D9196801311960CF
:1027500011683C3911601A68172A06D906490A68B7
:1027600001320A601A68183A1A6008BDC42A0020AB
:10277000B82A0020202A0020142A0020F0B5ADF647
:102780008C2D00F0BDFB00F0EBFC0022C349C448D7
:1027900001F06CFE0122C149C24801F067FE01222E
:1027A000C149C24801F062FE0222BC49C04801F0A2
:1027B0005DFE0322B949BF4801F058FE0522B74922
:1027C000BD4801F053FE0422B449BC4801F04EFE5E
:1027D0000B22B249BA4801F049FE04232022B9492C
:1027E000B94801F0B2FB04238022B649B74801F092
:1027F000ACFB04234FF40042B549B64801F0A5FBF9
:1028000004231022A849B44801F09FFB04230822A6
:10281000A549B24801F099FB0125072380229F4971
:10282000AF4801F092FB07230422AE49AE4801F005
:102830008CFB07234FF40042A249AC4801F085FB12
:1028400007234FF480429F49A94801F07EFB0723EC
:102850004FF400529B49A74801F077FB07234FF440
:1028600000729849A44801F070FB07234FF480726E
:102870009449A24801F069FB07234FF48062914913
:102880009F4801F062FB07234FF400628D499D4889
:1028900001F05BFB0723402280499B4801F055FB78
:1028A00007234FF480728A49984801F04EFB0723B2
:1028B0004FF400727949964801F047FB07234FF423
:1028C00080727649934801F040FB07234FF4805211
:1028D0007C49914801F039FB0523082281498F4842
:1028E00001F033FB052310227E498D4801F02DFBBA
:1028F000052320227B498B4801F027FB0723402238
:102900007849894801F021FB072308226D4987484F
:1029100001F01BFB072304226A49854801F015FBDF
:1029200007234FF480526049824801F00EFB0723D1
:102930004FF480426B49804801F007FB07230122D6
:1029400059497E4801F001FB0723802260497C48F9
:1029500001F0FBFA072340225D497A4801F0F5FABD
:10296000042340225749784801F0EFFA042310224B
:102970005449764801F0E9FA002380225949744805
:1029800001F0E3FA01F0C0FC72494FF000700CF066
:10299000D5FA00F073FB00F0A3FB05F03DFA00F060
:1029A0000FFB00F03BFB00F065FCDA20FFF75EFD5B
:1029B0005648FEF7A1FF6048FEF79EFFC4AC002317
:1029C000654A6649009539A800F00AFF0DF26C5778
:1029D000002302222046624905F056FC022261498A
:1029E0002B46384605F050FC5F4B0F2004935F4B9D
:1029F0005F4E05935F4B069300F022FE2A460028A7
:102A00000CBF214639460DF5F96005F089F90DF541
:102A1000F962214619A808F0CBFE032119A808F095
:102A2000E5FE204604A9C6E9004704F06BFC04A9B2
:102A3000384604F067FC504B0DF5F9621A604F4BB5
:102A40000A201A6000F0FCFD56F820700E2000F0FD
:102A5000F7FD07AC56F82010494808F0CBFD04F00C
:102A600065FA04F051FA4FF496424649204609F0BF
:102A70009FFD454B1C600FACFEF76AFDFEF700FDA5
:102A8000FEF700FCFEF744FCFEF774FCFEF7B0FD19
:102A9000FEF7A8FCFEF7C6FC78E000BF001001407E
:102AA000E42D0020E82D0020000C0140142D002012
:102AB000042D0020082D0020D82D0020DC2D002022
:102AC000E02D002000140140142C0020E42C0020F4
:102AD00000080140942C0020242C0020342C0020DD
:102AE0009C2C0020001801406C2C00204C2C002055
:102AF000542C00205C2C0020EC2C0020F42C002016
:102B0000D42C0020CC2C0020DC2C0020642C0020B5
:102B10003C2C0020442C00201C2C0020AC2C00203D
:102B2000B42C0020BC2C00208C2C00207C2C0020FD
:102B3000842C00202C2C0020742C00200C2C002035
:102B4000042C0020FC2B0020FC2C0020C42C002096
:102B5000A42C0020C00040002C20010800480040A8
:102B60000064004000680040BC0C0108C117000868
:102B7000C82800206D1600087C300020482A00205C
:102B8000942A002000380140102A00201C492046C9
:102B900000F094FC1B4B2A4620461B491C6000F0A9
:102BA000ADFC0A222046194900F0A8FC6422204608
:102BB000174900F0A3FCC8222046164900F09EFCED
:102BC000722000F03DFDA84202D1384602F02EF9F5
:102BD0000421792000F054FD00217A2000F050FDFE
:102BE0004FF0000439A88DF80F4000F0AFFF1E9B96
:102BF000002BF7D10DF10F011AA806F011FBF1E738
:102C0000000800400C2B002029120008091C0008B5
:102C1000011900088921000810B50024624B634A9D
:102C20001C741A60624B634A1C721A60DC721C735B
:102C3000614A624B62481A601C72DC721C73614A02
:102C4000614B1A60614B624A1A6007F06FFE614B7C
:102C5000614A1C621A601C77604A614B61481A60C5
:102C6000614B624A1A60624B624A1A60624B634A65
:102C70001A60634B634A1A60634B644A1A60644B80
:102C8000644A1A60644B654A1A60654B654A5C7514
:102C90001A60DC82644A654B1A60654B654A1A60AB
:102CA000654B664A1A60664B664A1A60664B674A0D
:102CB0001A60674B674A1A6004F008FB664B674A64
:102CC00067481A6007F064FC664B674A67491A60F8
:102CD000674B684A68481A60684B694A1A60694BD2
:102CE000694A1A60694B6A4A1A606A4B6A4A1A60F2
:102CF0006A4B6B4A1C721A606A4B6B4A1A606B4BC8
:102D00006B4A1A606B4B6C4A1A606C4A6C4BC2E996
:102D1000024413600023136153619361D361694AD4
:102D20001160694A6949C2E904441160C2E9064474
:102D3000136253629362D3626549664A11606649C1
:102D4000C2E90244C2E904441483D36113625362AA
:102D50009362D362136353639163604A6049C2E92B
:102D600004449360D3609361D361136253629362AE
:102D7000D362136353639363D363136453649364A1
:102D8000D3641160574B584A1A60584B584A1C7309
:102D90001A60584B584A1A6009F004FCBDE810400C
:102DA00056480BF0A7BB00BFB8260020FC2C01083A
:102DB000DC260020C820010810210108F826002088
:102DC00090290020C4220108CC26002014270020CE
:102DD0000C2301086C2900208C220108C026010860
:102DE000A02A0020E8280020B0260020C02B0108DF
:102DF00098270020EC2B010890270020942D010833
:102E0000382A0020F00C0108242A00201C0D01089B
:102E1000982A0020182C0108402A0020182B0108AD
:102E20004C2A0020902C0108C82A0108042B0020FD
:102E3000182A00209C2A01082C2A0020682D01084D
:102E4000FC2A00207C2F0108BC2A00205423010802
:102E5000A4260020CC0D010884260020480D01087E
:102E6000BC280020042A00204C300108CC2F010887
:102E700024270020A80D0108A8290020AC27002045
:102E8000442D0108A0270020A82F01088C2600202F
:102E90004C2E010898260020D02E0108D82A0020A8
:102EA000282E01082C270020040E0108D828002015
:102EB000E82F01086C2A00206C0D0108742A0020FC
:102EC000742C0108642A00200C290020582C0108C9
:102ED00030300108C82900200000FA4340270020B4
:102EE00080300108CC2A0020880D0108EC2A00203F
:102EF000DC2C010838270020CC0C010840290020D8
:102F000008B50CF04FF902200CF024F92A4B2B4A9B
:102F100040F202301A600CF08BF940F203300CF0F2
:102F200087F94FF441700CF083F940F205300CF052
:102F30007FF940F206300CF07BF940F292300CF051
:102F400077F940F291300CF073F940F20E300CF04A
:102F50006FF940F20B300CF06BF94FF460700CF02D
:102F600067F940F281300CF063F940F282300CF0E6
:102F70005FF94FF420700CF05BF940F209300CF06F
:102F800057F940F286200CF053F94FF440700CF0E2
:102F90004FF940F299300CF04BF940F29A300CF0B6
:102FA00047F940F28E300CF043F9BDE8084040F29A
:102FB0008F300CF03DB900BF0CED00E00003FA05C6
:102FC00073B50024134D2346224620212846CDE91F
:102FD00000440CF04DFA214628460CF041FA0E4E02
:102FE00028460CF02FFA28460CF035FA30464FF4FC
:102FF0002043022203210BF071FF30464FF480433F
:10300000012221460BF06AFF284602B0BDE870405D
:103010000CF00CBA00380040000C014073B50024DD
:10302000144D4FF080514FF000700BF087FF234696
:10303000224620212846CDE900440CF019FA0E4E14
:1030400028460CF0FFF928460CF005FA30464FF4FC
:10305000A053022203210BF041FF30464FF40063DE
:10306000012221460BF03AFF284602B0BDE870402D
:103070000CF0DCB9003C00400010014010B5164CCB
:1030800004232046022203210BF028FF08230122FB
:1030900020460021A4F544440BF020FF20460F49B0
:1030A0000CF0A4FB204608210CF0B4FB20460021C4
:1030B0000CF0B9FB20460C210CF0C1FB204600218E
:1030C0000CF0B7FB204600210CF0BFFB2046BDE80A
:1030D00010400CF0C0BB00BF0008014020A1070059
:1030E00008B511200CF050FCF02111200CF05AFC16
:1030F00010200CF049FCF02110200CF053FC1E2095
:103100000CF042FC00211E200CF04CFC14200CF0B2
:103110003BFCE02114200CF045FC13200CF034FCA7
:10312000E02113200CF03EFC28200CF02DFC4FF485
:1031300000400BF0C9FD01214FF400400BF0A8FD49
:1031400006494FF400400BF0CFFD03200CF01CFCAF
:10315000BDE80840202103200CF024BC00180140E9
:1031600008B54FF2234103200CF046F900200CF083
:10317000E5F800200CF00EF9BDE8084000200CF046
:10318000EBB80000022210B5174C11464FF4007343
:1031900016480BF0A3FE20460CF0B2F900232022C3
:1031A000194620460CF085F9204620210CF0ADF997
:1031B0000722204600210CF0ACF9002120460CF03B
:1031C000ADFA20460CF004FB20464FF4C8720021F3
:1031D0000CF0EEFA20464FF488610CF098F9204686
:1031E000BDE810400CF087B9002C014000180140E8
:1031F00008B5022303211A461D480BF06FFE4FF05D
:1032000080400CF07DF900234FF080401A461946AB
:103210000CF04FF900214FF080400CF076F94FF0A0
:1032200080400CF04FF94FF080400CF05FF98F2197
:103230004FF080400CF06BF902214FF080400CF011
:1032400092FA062202214FF080400CF062F902212E
:103250004FF080400CF062FA4FF08040482202218B
:103260000CF0A6FABDE808404FF080400CF043B9DE
:1032700000080140632038B500F0E2F9102808D1B9
:1032800002220123114687480BF028FE0024254620
:103290000DE0632000F0D4F9112840F09280022262
:1032A000012311467F480BF019FE002401256220FE
:1032B00000F0C6F9102840F09980022280231146C0
:1032C00079480BF00BFE612000F0BAF9102840F0AD
:1032D000AE8002224023114673480BF0FFFD734875
:1032E0000CF00EF9002171480CF0F1F86F480CF069
:1032F000E9F8062200216D480CF00BF906220221A4
:103300006A480CF006F90622042168480CF001F91D
:10331000002166480CF0C3F9022164480CF0BFF9A3
:10332000042162480CF0BBF9002160480CF0D1F98F
:1033300002215E480CF0CDF904215C480CF0C9F97B
:1033400000215A480CF0EAF9022158480CF0E6F93D
:10335000042156480CF0E2F9002D40F08980002C41
:1033600040F08680742000F06BF901464F480CF065
:10337000CEF8752000F064F9214602464B480CF067
:1033800017FA762000F05CF90221024647480CF05B
:103390000FFA772000F054F90421024643480CF05C
:1033A00007FA012141480CF018FA732000F048F99F
:1033B00001463E480CF0A9F8BDE838403B480CF007
:1033C0009AB8632000F03CF9122808D102220123A8
:1033D000114634480BF082FD0124002567E70723DE
:1033E00001223049324800F0B0FD4FE7622000F082
:1033F00027F9112807D10222802311462A480BF011
:103400006DFD01255FE7622000F01AF9122807D14F
:1034100002228023114624480BF060FD012452E76C
:10342000072380222049234800F08FFD4BE76120CD
:1034300000F006F9112807D10222402311461A484C
:103440000BF04CFD01254AE7612000F0F9F8122845
:1034500007D102224023114613480BF03FFD0124FF
:103460003DE7072340221049134800F06EFD36E780
:1034700041F68C110D480CF04AF8012200210B484E
:103480000CF096F90122022108480CF091F9012272
:10349000042106480CF08CF9012104480CF09DF938
:1034A0000A2186E7000C01400008014000040040AA
:1034B0000C2C0020042C0020FC2B002038B50C46DE
:1034C0000546016208460BF0FDFF20460CF009F8A6
:1034D000084B20461968084BB1FBF3F101390CF099
:1034E00014F820464FF6FF710CF011F8002328461F
:1034F0006B6238BD44220020A0860100F8B5436A03
:103500000446032B0E4615462ADC006A0BF0F8FF32
:10351000144F636A0122F95C206A0BF0FAFF636AB8
:103520000022F95C206A0CF043F90221636A05EB82
:10353000850505EB850503F10802AD0044F823601D
:10354000994024F81250206A0BF0A6FF0021206A4F
:103550000CF049F9206A0BF0CEFF636A0133636215
:10356000F8BD00BF440E01082DE9F04704460025D0
:10357000022700F1100800F11809636A07FA05F63E
:10358000AB4208DC3146206A0BF090FF0135042D78
:10359000F3D1BDE8F0873146206A0BF081FFB8B166
:1035A000206A0CF01EF9236A38F81510343353F8EA
:1035B000252082460A4443F8252054F825309847B0
:1035C000206A0CF00EF9A0EB0A0029F81500D9E7E3
:1035D000636AAB42DADCD5E7002170B500F1100375
:1035E000466A4FF47A7508468E4209DD1C461A89F0
:1035F00024886A43B2FBF4F2023310440131F3E74A
:1036000070BD00001C2210B5084C02FB0042D468BB
:103610008C4209DC12698A4206DB054A42F8201016
:10362000FEF724FF002010BDFF20FCE78C030020E4
:1036300024000020014B53F8200070472400002094
:10364000024B53F820004011704700BF24000020B7
:1036500008B5054B53F820000DF060F84FF0745199
:103660000DF0B0F808BD00BF24000020034B53F854
:1036700020004011431E584258417047240000204A
:10368000024B490143F82010704700BF240000207E
:10369000014B43F8201070472400002010B5044669
:1036A00008464FF084410DF08DF80DF067FA024B9B
:1036B00043F8240010BD00BF2400002070B506466A
:1036C0000024074D3146686800F098FB08B9E0B265
:1036D00070BD0134DA2C05F11C05F3D1DB20F7E7CE
:1036E0008C0300200023064A118B814201D1D8B2FD
:1036F00070470133DA2B02F11C02F5D1DB20704751
:103700008C0300201C22024B02FB0030704700BFDC
:103710008C0300200023064A0649108B10B1506923
:1037200041F823000133DA2B02F11C02F5D1704776
:103730008C03002024000020014B1954704700BF67
:103740001C2B0020024B1A5C11431954704700BF18
:103750001C2B0020024A135C23EA01031354704718
:103760001C2B0020014B185C704700BF1C2B002055
:103770001C22024B02FB0030807E70478C0300202D
:1037800000487047692D0300024B1A68024BC3F8CA
:10379000982D7047342100208C0300202021806860
:1037A0000CF07FB880680CF074B810B5044643681C
:1037B000597A58680BF043FA636804F12A02597A7F
:1037C00058680BF04EFA63688022597A58680BF0FB
:1037D00058FA6368BDE81040597A58680BF026BA69
:1037E00070B5026140F201120D464C4982820160BF
:1037F00001210022817580F8281004460421C0E9C7
:10380000062280F8202042629DF81020856080F812
:103810002920434A0373426062681068A84206D1B7
:10382000404A146062683BB9D068138A06E01C32D3
:1038300001396260F0D1F3E75069138B0222032152
:103840000BF04CFB28464FF4E1310BF0CFFF28463C
:1038500008210BF0DFFF28464FF400510BF0E3FF87
:1038600028460C210BF0EBFF284600210BF0E1FF6E
:10387000002128460BF0E9FF28460BF0FCFF284604
:103880000BF0FEFF63682E1D197A58680BF05EF985
:103890006368197A58680BF0C0F963683246197A80
:1038A00058680BF0D5F963680022197A58680BF054
:1038B00088F963680022197A58680BF075F9636813
:1038C000197A58680BF08AF96368597A58680BF0CE
:1038D0003DF963683246597A58680BF0B9F9636864
:1038E0000022597A58680BF06CF963680022597A03
:1038F00058680BF059F96368597A58680BF06EF9FB
:1039000063685868597A0BF091F92046FFF74DFF2C
:1039100028460BF0A0FF204670BD00BF481F0108DD
:10392000D01E0108F82B002038B5437D0D460469F0
:103930004BB1216839B1284600F060FA08B108346B
:10394000F7E7236803B90024204638BD38B504469C
:103950000D4663680222197A58680BF00EF918B9FF
:1039600094F82830002BF4D06368197A58680BF06B
:1039700066F96368AAB2197A58680BF082F994F86C
:103980002020636804EBC212197A5868AA320BF03F
:1039900068F963680222197A58680BF0E8F86368DE
:1039A000197A58680BF042F994F82030B3FA83F38F
:1039B0005B0984F82030002384F8283038BD837DEB
:1039C00010B5044623B9BDE8104080680BF048BF2D
:1039D00090F82030426ADB01234413440A2902F1A3
:1039E000010083F8AA1001D07F2A06D101462046A3
:1039F000FFF7ACFF0023636210BD6062FCE7802A22
:103A000030B428BF80220C460021914209D090F8A2
:103A10002030655C00EBC3130B4483F8AA500131DE
:103A2000F3E730BCFFF792BF38B5054608460C46B1
:103A300000F0FBF9214602462846BDE83840FFF772
:103A4000DEBF000010B50446084600F043FA00F05F
:103A500028FA237D227B8342636811D1012161759D
:103A60005AB158691B8B032102220BF037FA20460A
:103A7000BDE810400949FFF7D7BFD8681B8AF2E7B5
:103A8000002161753AB158691B8B0122BDE81040D5
:103A900000210BF023BAD8681B8AF6E7721E0108D2
:103AA00030B5044685B0084600F014FA0378302B90
:103AB00025D0322B134D18BF4FF46125637DA3B180
:103AC0000A22294601A800F0BFF920460E49FFF757
:103AD000ABFF20460D49FFF7A7FF204601A9FFF7DE
:103AE000A3FF20460A49FFF79FFF2946A0680BF075
:103AF0007DFE0021A0680BF096FE05B030BD4FF4AE
:103B0000E135DBE710552200711E0108771E010820
:103B1000412A010810B50446084600F0DBF9037895
:103B200023B1303B18BF012384F8293094F82930A1
:103B30002BB104492046BDE81040FFF775BF02498C
:103B4000F8E700BF861E0108901E01082DE9F0412C
:103B500043680446597A58680BF08CF80546C0F162
:103B6000800710B92046FFF720FE94F82930A0689E
:103B700053B1E369BB4207DA5A1CE261234493F86C
:103B80002A100BF06DFEF0E708210BF08AFE10B151
:103B9000A0680BF07EFE002F40F38D80651B95F82A
:103BA000A9300A2B01D00D2B72D16368597A58685D
:103BB0000BF045F8012F37D00022E31904F12A0653
:103BC00083F82A2020213046E26100F035F990F890
:103BD00000800546B8F1000F2BD10A21304600F0D5
:103BE0002BF9054684F8AA812B7823B90D2130469C
:103BF00000F022F90546002330462B702F49A361BF
:103C000000F0FCF80546D0B9204604F5D571FFF761
:103C100019FFA36993B3A0680BF03FFEA369204688
:103C20005B6804F5D57198472046BDE8F041FFF781
:103C3000BCBD411C04F5D57000F0EEF8D4E7304669
:103C40001F4900F0DBF8054628B9204604F5D57178
:103C5000FFF726FFDDE730461A4900F0CFF80546AA
:103C600028B9204604F5D571FFF754FFD1E7314656
:103C70002046FFF759FE3D46A061CAE7012DD3DD7E
:103C8000637D002BD0D020460F49FFF7CDFECBE758
:103C900094F82A30212B0ED1A36963B12046FFF797
:103CA00084FD0023E361A369204604F5D5715B68B8
:103CB000BDE8F0411847BDE8F08100BF9B1E010838
:103CC000A61E0108AF1E0108B41E0108034BC1B2B5
:103CD0001B681A6818461268104700BFF82B0020AE
:103CE00004F018B907B5064B06491A68043B1B686F
:103CF00009680091044900F0F9FA03B05DF804FB8B
:103D0000F0F7FF1FE8F7FF1F4C1F010805F088BA06
:103D1000F7B5144800F0D8FA134800F0D5FA00259A
:103D2000124FEEB23046FFF7EDFC04463046FFF787
:103D30001FFD68B93046FFF715FDC3070DD4636951
:103D4000384600936168D4E9032300F0BDFA04E02B
:103D50003046FFF70DFD0128ECD00135DA2DE0D11A
:103D600003B0F0BD551F01086C1F0108881F010832
:103D7000F8B50C4900F0BAFA00240B4FE6B2304611
:103D8000FFF7C0FC05463046FFF7ECFCC30704D440
:103D9000D5E90112384600F097FA0134DA2CEDD15A
:103DA000F8BD00BF9B1F0108BD1F01082DE9F041B0
:103DB000054600240A4FE6B23046FFF7A3FCD0F8D0
:103DC00004803046FFF736FC01340346424639464C
:103DD000284600F08BFADA2CEDD1BDE8F08100BF67
:103DE000C71F010810B50446FFF794FC2046BDE844
:103DF0001040014900F07ABAD01F0108431E013972
:103E000013F8010F11F8012F10B10AB19042F7D049
:103E1000801A18BF01207047013911F8013F0BB912
:103E20000370704700F8013BF7E7034600201A5C77
:103E300002B970470130FAE70346184613F8012B20
:103E40000AB18A42F9D1704700290346F0B520DA59
:103E50002D2003F8010B012049421D46C71A91FB92
:103E6000F2FC02FB1C11303129702C46BCF1000120
:103E700005F101051E4605EB0700F0DC00232B7061
:103E8000B4420BD93378227806F8012B04F80139B3
:103E9000F6E704D13022417002700120F0BD00200D
:103EA000DBE730B503782D2B11D14FF0FF34013013
:103EB00000210A25431E01E005FB012113F8012F13
:103EC000303AD0B20928F7D904FB01F030BD012403
:103ED000EEE7000010B5134C02780146A2F10A0388
:103EE000DBB2162B00F1010017D9A2B10846FFF78B
:103EF0009CFF0C4C013808448142024609D21378D9
:103F000001380A3BDBB2162B03D824FA03F3DB0794
:103F1000F2D400235370084610BD24FA03F3DA07E5
:103F2000DAD4E3E709004000002310B5934200D142
:103F300010BD51F8234040F823400133F6E7013A21
:103F400000D2704740F8041BF9E72DE9F0411C4608
:103F500000238371631E0E46174601608280082B82
:103F600012D8DFE803F00F161327180C1B052500E5
:103F700001240325394630460AF0EAFF10E0002408
:103F800000250DE0012383710224F9E701230224B7
:103F900083710025EEE701248471F1E700240325F5
:103FA0003B46224629463046BDE8F0410AF096BF1E
:103FB0000224F4E70124E3E70029B4BF4FF0FF3205
:103FC000012270B5642401FB02F3591103F01F03B1
:103FD000634301324FEA6314054604BF2D2305F8FD
:103FE000013B06460A222846FFF72EFF2E23092C06
:103FF0002B54D8BF302305EB0002CEBF501C5370AA
:10400000901C21460A22FFF71FFF304670BDF0B515
:1040100003782D2B17D14FF0FF36013000244FF0DD
:104020000A0C02E018460CFB0454034613F8012B5B
:10403000A2F13005EFB2092FF4D9AAB98C4022447D
:1040400006FB02F0F0BD0126E8E78B4003EB6503B9
:1040500093FBF5F30CFB05F51A4410F8013F303BD8
:10406000DFB2092FF1D9E9E70A250022AC46F4E7CF
:104070002DE9F843141E06460D4624DD0022A95CF6
:1040800009B10132FBE7A242ACBF0C46A41A13F0FF
:10409000020F0CBF20273027DB071ED4A0465FFA93
:1040A00087F9B8F1000F10DC24EAE473E41AA3EBFB
:1040B000050808EB050915F8011B81B13368304686
:1040C0001B689847F5E72027E6E7336849463046FE
:1040D0001B68984708F1FF38E3E70023E7E7254628
:1040E000FFB2002D06DD3368394630461B6898471D
:1040F000013DF6E7002CACBF09EB040009F100001C
:10410000BDE8F8832DE9FF470746DDE90C8A15462F
:104110001C4651B930234246ADF80030694653463B
:10412000FFF7A6FF04B0BDE8F08723B10A2A2DD11E
:1041300000292BDA494200238DF80D300E9B0DF13A
:104140000D023A3BB1FBF5F005FB1016092E88BFB6
:10415000F61830368D4202F1FF3902F8016C17D99A
:1041600064B1B8F1000F16D01AF0020F13D03B68FB
:104170002D2138461B68984708F1FF3853464246C0
:1041800049463846FFF774FF2044CBE70024D2E7C6
:1041900001464A46D6E72D23002409F8013CA2F146
:1041A0000209EBE70846FFF791BD00002DE9F04357
:1041B00007460E46144600254FF00A08DFF8049122
:1041C0008DB03378002B78D0252B6FD17378002BEE
:1041D00073D0252B06F1010267D02D2B0ABF0123D6
:1041E0000023B21C164612F8011B302902D143F0FD
:1041F0000203F7E70022304610F8011BA1F1300C52
:104200005FFA8CFEBEF1090F03D8064608FB02C216
:10421000F1E7732908D121680434002908BF494611
:104220003846FFF725FF0DE064290ED161202146B5
:10423000CDE90130012300920A223846096804348E
:10424000FFF760FF05440136BBE7782907D1214617
:104250006120CDE90130009200231022EDE75829BA
:1042600002D121464120F4E7752906D1612021467B
:10427000CDE9013000920023DEE766290AD12168EA
:1042800008A8CDE904230434FFF796FEDDE90423F2
:1042900008A9C5E76329D6D1216804348DF81C101C
:1042A00000218DF81D1007A9BAE716463B6838466D
:1042B0001B68317898470135C5E728460DB0BDE841
:1042C000F08300BFAC2001080FB407B504AA52F870
:1042D000041B054B6846CDE90032FFF767FF03B0CA
:1042E0005DF804EB04B07047BC2001080EB403B5C0
:1042F00003AA52F8041B0192FFF758FF02B05DF8C1
:1043000004EB03B07047000038B52A4C2A4D204614
:104310000AF0B0F920460AF0B2F920460AF0B9F9DD
:1043200020460AF0B1F9012120460AF08EF9204614
:104330000AF054F920460AF06BF920460AF07BF99E
:104340001E4A082120460AF0A9F920460AF0E9F998
:1043500020464FF460210AF051F928460121184AFD
:104360000AF076FC28460121164A0AF07AFC284613
:104370004FF4807201210AF024FC28464FF4806239
:1043800001210AF011FC6022284601210AF079FC83
:10439000284601210AF022FC284601210AF027FCC8
:1043A000284601210AF042FC2046BDE838400AF0C8
:1043B000AEB900BF00240140000002400C2D0020D7
:1043C0004C240140182D002003468B42084606DD90
:1043D000914203DC9342A8BF1346184670479342AC
:1043E000FBDC9142A8BF1046704773B56E46056866
:1043F00005F13004F03534F8102C34F8201C34F872
:10440000300CFFF7E1FF3034AC4226F8020BF2D15A
:10441000BDF80230BDF800001844BDF8043018445F
:10442000BDF806301844C0F38F0002B070BD000024
:1044300008B50D4B98420BD003F5806398420BD022
:10444000A3F5006398420BD1072909DCC8B208BD67
:10445000012905DC0831F9E7052901DC0A31F5E716
:104460000AF0C4F81020F2E7000C0140012370B5F7
:1044700093400C4615460022064611469BB2204644
:104480000AF02CFD29462046FFF7D2FF3368034A85
:104490009B1A034AC3F34F03D05470BD182D00205C
:1044A0000C2D00200D4B0E4A991C13600D4A116013
:1044B0000D4A191D11600D4A991D11600C4A03F136
:1044C000080111600B4A03F10A0111600A4A03F165
:1044D0000C011160094A0E3313607047182D00203B
:1044E000E42D0020E82D0020142D0020042D0020B4
:1044F000082D0020D82D0020DC2D0020E02D0020EC
:10450000114A124B30B553F8213052F82140194668
:10451000A342A8BF2146026802F1C8058D4206DB0E
:10452000A342B8BF234603F1C804A24202DD0160E2
:10453000002030BD8A4202DA01600120F9E79A4288
:10454000C8BF0360F9E700BF0C2F0020042F002034
:10455000012970B516D80C4B53F821500B4B53F86A
:104560002160B5420ED0401B0CF0D8F80446701BF9
:104570000CF0D4F8014620460CF0D8F904490CF0B0
:1045800021F970BD0020FCE70C2F0020042F002033
:104590000000C8422E4B2DE9F0411D68044601463B
:1045A00028460CF0CBFA00B92C462A4B21461D6850
:1045B00028460CF0A5FA00B92C46DFF8A480214665
:1045C000D8F80050464628460CF0A4FAE8B100217D
:1045D00020460CF0B3FA214680B128460CF0AEFA22
:1045E00050B91D4B284619680BF0E4FF21460546DB
:1045F0000CF0A4FA00B92C4634600EE028460CF00A
:104600009DFA0028F8D1154BECE7002720463946E3
:104610000CF08AFA20B1C8F800402046BDE8F081CD
:10462000394628460CF08AFA08B1C8F80070356897
:10463000214628460CF064FA0028DDD1074B2846B5
:1046400019680BF0B5FF214605460CF059FAD1E781
:104650002C2F0020302F0020F42E0020382F002097
:10466000D02E002038B5114A114B1468196804FA8D
:1046700001F318440F4B001B1B6808411060181A07
:104680000CF04CF80C4B19680CF09CF80B490446E4
:104690000CF054FA00B1094C094B21461D6828461C
:1046A0000CF04CFA00B12C46204638BDF82E002004
:1046B000282F0020E42E00201C2F00200000C842DC
:1046C000342F0020F8B505467F200F461646FEF72A
:1046D000B7FF3946044628460CF01CFA20BB4FF0C1
:1046E000804138460BF066FF29460CF027FAE8B106
:1046F000A1B27F2041F01001FEF7C2FF114D3468D6
:10470000002120460CF010FA90B1294620460CF00A
:10471000F7F900B92C4628460B4934600CF0F0F943
:10472000003818BF0120F8BD074DE8E70025E6E78F
:1047300005F10047394620460CF000FA0028EAD17E
:104740003C46E8E7000048420000C8422DE9F04737
:10475000064624200C46FEF77BFF4F4DDFF85091B4
:1047600028602520FEF774FFC9F800007F20FEF7BF
:1047700067FFD5F800A00746002150460CF0DEF98F
:10478000002837D0002130680CF0CEF9DFF8248102
:10479000424DBFB2002842D0514620460BF008FFE0
:1047A0003F490CF00FF8002104460CF0A9F900B1C4
:1047B0000024C8F80040D5F80080214640460CF09F
:1047C000BDF9C8B1214640460CF09AF950B9354BB5
:1047D000404619680BF0ECFE214680460CF090F93B
:1047E00000B944462C6047F001017F20FEF748FFE6
:1047F0002B683360BDE8F0873768404639460CF0D7
:104800007FF950B1274B404619680BF0D3FE214683
:1048100007460CF093F900B127462F60E8E72046E1
:10482000D9F800100BF0C4FE1F490BF0CBFF00219C
:1048300004460CF083F900B10024C8F80040D5F814
:104840000080214640460CF05BF998B12146404675
:104850000CF074F950B9154B404619680BF0AAFEDC
:10486000214680460CF06AF900B944462C6047F0B6
:104870000201BAE73768404639460CF05FF9002874
:10488000CBD00A4B404619680BF092FE21460746F2
:104890000CF036F9BFE700BF182F0020F42D0020E0
:1048A0000000A040F42E002000006040382F0020BF
:1048B000142F0020F82D00202DE9F0470D465A4C0A
:1048C0005A49064620680BF07DFF29460BF072FE20
:1048D0004FF076510BF076FF20602620FEF7B8FEF1
:1048E000534DDFF85C9128602720FEF7B1FEC9F830
:1048F00000007F20FEF7A4FED5F800A007460021A7
:1049000050460CF01BF9002848D0002130680CF00C
:104910000BF92468DFF82C81464DBFB200283FD048
:10492000214650460BF044FE002104460CF0E8F806
:1049300000B10024C8F80040D5F800802146404668
:104940000CF0FCF8B0B1214640460CF0D9F850B953
:10495000394B404619680BF02BFE214680460CF07F
:10496000CFF800B944462C6047F008017F20FEF7DD
:1049700087FE11E03768404639460CF0C1F850B167
:104980002D4B404619680BF015FE214607460CF0EA
:10499000D5F800B127462F602B683360BDE8F0875B
:1049A0002046D9F800100BF005FE002104460CF05B
:1049B000C5F800B10024C8F80040D6F800902146A0
:1049C00048460CF09DF8D5F80080414690B120464D
:1049D0000CF096F850B9194B404619680BF0EAFDF7
:1049E000214680460CF0AAF800B944462C6047F0F6
:1049F0000401BBE748460CF083F888B141462046E5
:104A00000CF09CF850B90D4B404619680BF0D0FDE6
:104A1000214607460CF074F800B93C462C60BBE711
:104A2000C5F80090B8E700BF402F0020000070419B
:104A3000FC2E0020EC2D0020F42E0020382F00202A
:104A4000002F0020F02D002070B505460F4B2E687A
:104A5000186801EB0014241A2411002130461C6050
:104A60000CF06CF888B10A4B1B681C1B48BF033460
:104A7000A41024EAE4700BF051FE044601463046CF
:104A80000CF05CF800B934462C6070BD442F002057
:104A9000E02E0020F8B50D4B04461A780C4F013279
:104AA000D2B2312A88BF00221A701E78094D3868A8
:104AB00055F826100BF07CFD21460BF07BFD0649D6
:104AC000386045F826400BF031FFF8BDC42E0020B9
:104AD000C82E0020FC2D00200000484200000000ED
:104AE0002DE9F74F8046982089460192FEF7A8FDF0
:104AF0000446A020FEF7A4FD064684EAE470A0EB7D
:104B0000E4700BF00BFE864C0746D4F800B0594613
:104B10000BF04EFD002105460BF0F2FF08B105F148
:104B20000045804B2946D3F800A050460BF0E8FF23
:104B3000002846D0594638460CF000F85146002867
:104B40003BD058460BF036FD2060002E00F0E1808F
:104B500020680CF013F8019B0446002B33D0632827
:104B600040F3D7800BF0DAFD6F4B0646D3F8008098
:104B700041460BF0C5FF002840F0CB806B4B304620
:104B80001F686B4B39461D680BF0BAFF88B1404671
:104B90000BF0F4FF064628460BF0F0FFA41B44433D
:104BA00038460BF0EBFF801B94FBF0F00BF0B6FDEA
:104BB0000546284603B0BDE8F08F58460BF0F8FCD8
:104BC000C2E72760C1E749464046FFF7C1FC594BA1
:104BD00005461F68014638460BF0B0FF00285CD13F
:104BE000394628460BF0E4FC3946054652480BF09E
:104BF000DFFC014650480BF099FE29460BF0E2FD20
:104C000005464E4B28461D60FFF744FF0146074608
:104C100028460BF0CDFC4A4980460BF071FF30B9B5
:104C20004FF07E5140460BF089FF00B93D46632CA2
:104C3000444F0ADD20460BF071FD3B4B8046D3F814
:104C400000B059460BF05CFF48B300233B60284698
:104C50000BF094FF012E044644D13B4938680BF019
:104C6000B1FD0BF08BFF394B0546374918680BF047
:104C7000A9FD0BF083FF431B5C43642094FBF0F021
:104C800028440BF04BFD0BF08DF923A3D3E900234F
:104C90000BF0E0F90BF038FC8AE70025B1E7234B75
:104CA0004046D3F800A02A4B5146D3F800900BF0B1
:104CB00027FFA0B158460BF061FF804648460BF035
:104CC0005DFFA4EB0804444350460BF057FFA0EBF4
:104CD000080094FBF0F00BF021FD3860B7E7C7F84F
:104CE0000090B4E72320FEF7ABFC08B900233B603B
:104CF000154938680BF066FD0BF040FF154B054673
:104D0000114918680BF05EFD0BF038FF401B44435F
:104D1000B3E700254DE700BF9A9999999999B93F52
:104D2000CC2E0020F02E0020E82E0020202F002086
:104D3000DC2E00203C2F00200000C842D42E002092
:104D4000000080BFD82E0020000020412C2F002022
:104D5000242F0020EC2E0020024B00BF013BFCD191
:104D6000704700BF00127A0010B50446002240F2DE
:104D7000215102F0D6FA002240F22251204602F0E0
:104D8000D0FA002240F22351204602F0CAFA002253
:104D900040F22451204602F0C4FA002240F225518C
:104DA000204602F0BEFA002240F22651204602F0D0
:104DB000B8FA002240F22751204602F0B2FA20460B
:104DC000BDE8104000224FF4A56102F0AABA00002D
:104DD000002313B5054A40F21141CDE900230368D1
:104DE0006A465C680823A04702B010BD3400010089
:104DF0003222002313B5CDE9002303686A465C68BC
:104E000040F211410823A04702B010BD002313B5A2
:104E1000054A40F21141CDE9002303686A465C6807
:104E20000823A04702B010BD340101002DE9F7436B
:104E30000026174B04461E702025FFF7C9FF4FF0D0
:104E40004209FFF789FF4FF4C84823688DF80050E6
:104E50008DF8019001966A4640F2114120465F6844
:104E6000ADF8028008230135B847EDB2FFF774FFB3
:104E70002046FFF7BDFFFFF76FFF292DE5D1204644
:104E8000FFF7C4FFFFF768FF03B0BDE8F08300BF82
:104E9000641B0020D0F80220014B1A60704700BF4D
:104EA000582F0020D0F80220014B1A60704700BF35
:104EB0005C2F0020D0F80220014B1A60704700BF21
:104EC000602F0020D0F80220014B1A60704700BF0D
:104ED000642F0020054A1388013313800A22D0F87A
:104EE000023093FBF2F3024A13607047682F0020F0
:104EF000482F0020D0F80220014B1A60704700BFF5
:104F0000502F0020D0F80220014B1A60704700BFDC
:104F10004C2F0020D0F80220014B1A60704700BFD0
:104F2000542F002003466FF4A46213440846072B55
:104F300015D8DFE803F00406080A0C0E1012FFF77C
:104F4000A9BFFFF7AFBFFFF7B5BFFFF7BBBFFFF7C5
:104F5000C1BFFFF7CFBFFFF7D5BFFFF7DBBF70477C
:104F60000161704741617047007A7047007A70476D
:104F70000023C372704710B50446002261600846E2
:104F80004FF4987102F0CDF900224FF43F71606840
:104F900002F0C7F900224FF49061606802F0C1F995
:104FA00060680022BDE810404FF4D07102F0B9B93A
:104FB0002DE9F041052301200E460A21BCB0022252
:104FC000CDE90030CDE903100590089014200F259D
:104FD000CDE9090219270320CDE90652CDE90C706D
:104FE0004FF01E0C0B920E92119004222320CDE95B
:104FF0000FC2CDE912021492282017922D2200240C
:10500000CDE91503CDE918234FF0320E07224FF0FA
:1050100037081A9306233C20CDE91BE31D93029425
:10502000CDE91E8220932392082341224625CDE913
:105030002423CDE9210326930923CDE9275329937E
:105040004B235027CDE92A310B234FF0550CCDE9E6
:105050002D732F930C234FF05A0ECDE930C33293AA
:105060000E234FF05F08CDE933E33593112310226F
:10507000CDE936836423CDE9382313236D462746D3
:10508000A046CDE93A332C9128680BF047FB314616
:105090000BF040FD08B1D5E901870134142C05F16E
:1050A0000C05F1D141466E20FEF7EAFA39466F2031
:1050B0003CB0BDE8F041FEF7E3BA10B404686468A0
:1050C000A44610BC60470000037E73B50446002B65
:1050D00050D0A020FEF7B4FA324B00284CD1032167
:1050E000314A20731170E1221A701B782F4D8DF810
:1050F00000300C238DF801308F238DF802302B788F
:1051000060688DF80330F0238DF8043003686A4638
:105110004FF4E9715E680523B0472B7837201033D0
:10512000DBB2ED2B08BF0D232B70FEF789FA204B65
:10513000C0B21A78824215D04FF40952ADF800205F
:1051400000228DF802204FF0FF32019230BB302256
:105150008DF8032018706A46082340F29251606867
:10516000FFF7ABFF23688C201D6AFEF771FA01463A
:105170002046A84702B070BD421C06D10122022180
:105180002273094A1170D222AEE70128ADD1032261
:1051900008212273044A11707822A5E70828D9D182
:1051A0003122D5E76A1B0020691B00206F2F0020E9
:1051B000702F00200B7803F0010343720B78C3F3C8
:1051C000800303720B78C3F3001383728B78C3F3ED
:1051D000C00343767047000008B54B7808781B027F
:1051E00003F4706318440AF0CBFE09A3D3E900234B
:1051F0000AF030FF0BF088F907490BF0E3FABDE83D
:10520000084001469920FEF749BA00BFAFF300807D
:105210009A9999999999B93F2B121F3F0B78842B32
:1052200003D10121D920FEF72BBA812B01D1002116
:10523000F8E770474B78323B18BF0123037670477D
:105240000B46B3F53F7F11460FD006DCB3F5987FD0
:1052500007D0B3F5D07F06D07047B3F5906F06D076
:105260007047FFF7A7BFFFF7B7BFFFF7D7BFFFF73D
:10527000E1BF000003682DE9F74F5B6B04460F4662
:1052800098476A4E002800F0C7809820FEF7D8F9AA
:1052900040F2ED23984240F3BC809820FEF7D0F90D
:1052A000800080B2337843F050038DF8013007233B
:1052B0008DF8023094239DF80120ADF806309DF85A
:1052C0000230AA321A449DF80630ADF804001344A7
:1052D000C2B203EB1020831818460025DBB203EBA3
:1052E0002020AA2108236A468DF8000060688DF806
:1052F0000350FFF7E2FEAF4214BF64210421DFF840
:1053000044A14FF00F0B9AF80000DFF83C9100F534
:10531000FC7253181A46DBB203EB12238DF80030EF
:105320004EF22103ADF8023041F621736A468DF842
:105330000100ADF80430606808238DF80710A8213B
:10534000DFF808818DF806B0FFF7B7FE99F8003056
:105350006A468DF8003098F80030A9218DF80130A8
:105360004DF67973ADF80230314B60680193082334
:10537000FFF7A3FE2F4F304B397818788DF80610C1
:10538000421802F5E4731A468DF80000FF20DBB2E4
:1053900003EB1223BA216A468DF801008DF805301F
:1053A00060680723ADF802B08DF80450FFF785FE62
:1053B0003378224A01333370137821480133137054
:1053C0009AF80030397801338AF8003099F80030C3
:1053D0000131013389F8003098F800303970013319
:1053E00088F8003003780133DBB25C2B03700DD1F9
:1053F000BE231370E92389F800304D230370802306
:1054000035708AF8005088F800503B7003B0BDE852
:10541000F08F40F6B83045E7337843F030038DF82D
:105420000130FE238DF80230842344E76C2F0020E6
:105430001DC7E021681B0020691B0020651B0020A0
:10544000671B00206A2F0020661B00206B2F0020A6
:10545000037E10B5044643B1AB20FEF707F90146C1
:105460002046BDE81040FFF705BF10BD73B50646E6
:105470007A20FEF7E5F801280CBF49F69C6300246A
:105480004FF0880006BF6024ADF80430ADF804404A
:10549000FEF7DEF8014621480BF08AF82049054660
:1054A0000BF04CFB002835D128460BF067FB64233A
:1054B00043434FF4FA7093FBF0F032300BF02EF9C7
:1054C00018490BF077F83C23174D8DF800300BF09E
:1054D0007BFB2B786A461C43C3238DF8033048F2CC
:1054E000CD234FF4E8718DF80100ADF806307068F7
:1054F00008238DF80240FFF7E0FD0C4A2978137865
:105500008B4209D10133DBB20F2B08BF00232B7074
:1055100002B070BD0648D6E71170F9E70000C84236
:1055200000400344000040426D2F00206E2F0020F9
:1055300000001643037E73B50446A3B148F261230D
:105540000093C37A63B9032560686A46036840F232
:1055500032315E680223B047013DF5D10123E37289
:105560002046FFF783FF02B070BD016170474161C3
:105570007047007A7047007A70470023C372704703
:1055800010B504460022616008464FF4987101F09E
:10559000C8FE00224FF43F71606801F0C2FE002295
:1055A0004FF49061606801F0BCFE60680022BDE8C5
:1055B00010404FF4D07101F0B4BE2DE9F041052345
:1055C00001200E460A21BCB00222CDE90030CDE90F
:1055D00003100590089014200F25CDE90902192722
:1055E0000320CDE90652CDE90C704FF01E0C0B9252
:1055F0000E92119004222320CDE90FC2CDE91202B0
:105600001492282017922D220024CDE91503CDE90C
:1056100018234FF0320E07224FF037081A93062353
:105620003C20CDE91BE31D930294CDE91E8220931B
:105630002392082341224625CDE92423CDE92103E5
:1056400026930923CDE9275329934B235027CDE9EE
:105650002A310B234FF0550CCDE92D732F930C23DA
:105660004FF05A0ECDE930C332930E234FF05F084E
:10567000CDE933E3359311231022CDE9368364233A
:10568000CDE9382313236D462746A046CDE93A33AA
:105690002C9128680BF042F831460BF03BFA08B128
:1056A000D5E901870134142C05F10C05F1D14146EF
:1056B0006E20FDF7E5FF39466F203CB0BDE8F041B4
:1056C000FDF7DEBF037E73B50446002B50D0A0204B
:1056D000FDF7B6FF324B00284CD10321314A20732D
:1056E0001170E1221A701B782F4D8DF800300C23B9
:1056F0008DF801308F238DF802302B7860688DF89B
:105700000330F0238DF8043003686A464FF4E971E2
:105710005E680523B0472B7837201033DBB2ED2BC2
:1057200008BF0D232B70FDF78BFF204BC0B21A78FA
:10573000824215D04FF40952ADF8002000228DF8B6
:1057400002204FF0FF32019230BB30228DF803204F
:1057500018706A46082340F292516068FFF7ADFC6A
:1057600023688C201D6AFDF773FF01462046A84779
:1057700002B070BD421C06D1012202212273094AE7
:105780001170D222AEE70128ADD103220821227385
:10579000044A11707822A5E70828D9D13122D5E72B
:1057A000701B00206F1B0020772F0020712F00201E
:1057B0000B7803F0010343720B78C3F38003037289
:1057C0000B78C3F3001383728B78C3F3C003437663
:1057D000704700000000000008B54B7808781B02F5
:1057E00003F4706318440AF0CBFB09A3D3E9002348
:1057F0000AF030FC0AF088FE07490AF0E3FFBDE832
:10580000084001469920FDF749BF00BFAFF3008073
:105810009A9999999999B93F2B121F3F0B78842B2C
:1058200003D10121D920FDF72BBF812B01D100210C
:10583000F8E770474B78323B18BF01230376704777
:105840000B46B3F53F7F11460FD006DCB3F5987FCA
:1058500007D0B3F5D07F06D07047B3F5906F06D070
:105860007047FFF7A5BFFFF7B7BFFFF7D7BFFFF739
:10587000E1BF000003682DE9F74F5B6B04460F465C
:1058800098476A4E002800F0C7809820FDF7D8FEA0
:1058900040F2ED23984240F3BC809820FDF7D0FE03
:1058A000800080B2337843F050038DF80130072335
:1058B0008DF8023094239DF80120ADF806309DF854
:1058C0000230AA321A449DF80630ADF804001344A1
:1058D000C2B203EB1020831818460025DBB203EB9D
:1058E0002020AA2108236A468DF8000060688DF800
:1058F0000350FFF7E2FBAF4214BF64210421DFF83D
:1059000044A14FF00F0B9AF80000DFF83C9100F52E
:10591000FC7253181A46DBB203EB12238DF80030E9
:105920004EF22103ADF8023041F621736A468DF83C
:105930000100ADF80430606808238DF80710A82135
:10594000DFF808818DF806B0FFF7B7FB99F8003053
:105950006A468DF8003098F80030A9218DF80130A2
:105960004DF67973ADF80230314B6068019308232E
:10597000FFF7A3FB2F4F304B397818788DF80610BE
:10598000421802F5E4731A468DF80000FF20DBB2DE
:1059900003EB1223BA216A468DF801008DF8053019
:1059A00060680723ADF802B08DF80450FFF785FB5F
:1059B0003378224A0133337013782148013313704E
:1059C0009AF80030397801338AF8003099F80030BD
:1059D0000131013389F8003098F800303970013313
:1059E00088F8003003780133DBB25C2B03700DD1F3
:1059F000BE231370E92389F800304D230370802300
:105A000035708AF8005088F800503B7003B0BDE84C
:105A1000F08F40F6B83045E7337843F030038DF827
:105A20000130FE238DF80230842344E7742F0020D8
:105A30001DC7E0216E1B00206F1B00206B1B002088
:105A40006D1B0020722F00206C1B0020732F002084
:105A5000037E10B5044643B1AB20FDF707FE0146B7
:105A60002046BDE81040FFF705BF10BD73B50646E0
:105A70007A20FDF7E5FD01280CBF49F69C63002460
:105A80004FF0880006BF6024ADF80430ADF8044044
:105A9000FDF7DEFD014621480AF08AFD2049054652
:105AA0000BF04CF8002835D128460BF067F864233A
:105AB00043434FF4FA7093FBF0F032300AF02EFEBD
:105AC00018490AF077FD3C23174D8DF800300BF094
:105AD0007BF82B786A461C43C3238DF8033048F2C9
:105AE000CD234FF4E8718DF80100ADF806307068F1
:105AF00008238DF80240FFF7E0FA0C4A2978137862
:105B00008B4209D10133DBB20F2B08BF00232B706E
:105B100002B070BD0648D6E71170F9E70000C84230
:105B20000040034400004042752F0020762F0020E3
:105B300000001643037E73B50446A3B148F2612307
:105B40000093C37A63B9032560686A46036840F22C
:105B500032315E680223B047013DF5D10123E37283
:105B60002046FFF783FF02B070BD4069704708B55B
:105B7000B0F908000AF0D2FD08BD08B5B0F90C0074
:105B80000AF0CCFD08BD0000014B1878704700BF3B
:105B9000113000200000000038B51D48FEF725FC3C
:105BA00004461C48FEF721FC054620460AF0E8F9A9
:105BB00013A3D3E900230AF04DFA13A3D3E900237A
:105BC0000AF092F80AF0A0FC044628460AF0D8F938
:105BD0000BA3D3E900230AF03DFA0BA3D3E900237A
:105BE0000AF082F80AF090FC0546014620460AF0C9
:105BF000A5FF00B92C46204638BD00BFAFF300809A
:105C00001213371BE91495BF988F7B2556484C40DB
:105C1000D82D0020DC2D002070B506460D461A4C0C
:105C20000721204608F092FF20460721174A09F075
:105C30000FF832462046072109F013F8AAB2204691
:105C4000072109F01EF82046072108F0E6FF20464C
:105C5000072108F0C3FF20460022072108F0B1FF0A
:105C600020460022072108F09FFF20464FF4805273
:105C7000072108F08CFF2046072108F0D7FFBDE878
:105C80007040034809F0FCBD00000240044400409D
:105C90000044004038B50546194C0621204608F05E
:105CA00055FF20460621174A08F0D2FF204606215C
:105CB000154A08F0D6FFAAB22046062108F0E1FFF7
:105CC0002046062108F0A0FF2046062108F086FFA6
:105CD00020460022062108F074FF204600220621FB
:105CE00008F062FF20460022062108F050FF2046FF
:105CF000062108F09BFFBDE83840044809F0BBBD11
:105D00000000024004440040822F00200044004074
:105D100038B504463020FDF793FC00B20228E0813C
:105D20001ED1344D344A2B78002B33D141F65831F3
:105D3000B4F90C00884201DD0121117011782F4A5D
:105D40008B4249D0012313702D4B93F900002D4B4A
:105D500010B91878013018701878042823D1E1811F
:105D6000B4F90E30012B08D12748FBF7C5FD2748B1
:105D7000FBF7C2FD2648FBF7BFFDB4F90E30C3B9EF
:105D80002148FBF7B9FD2148FBF7B2FD2048FBF79E
:105D9000AFFD0EE0012BD1D1B4F90C10B1F5FA6FC3
:105DA000CCDA0021C9E7052803D129700021197038
:105DB0001170B4F90E30032B0DD1A020FDF740FC7B
:105DC000013011480CD1FBF797FD1048FBF790FD0F
:105DD0000F48FBF78DFD38BDE38100231370BFE74B
:105DE000FBF78AFD0948FBF787FD0948FBF784FDAF
:105DF000F1E700BF7F2F0020802F00200F30002010
:105E00007D2F0020812F00201C2C00203C2C002006
:105E1000442C0020000000002DE9F74F0746122017
:105E20000E46FDF70DFC864BC4B21B78012B40F0EB
:105E3000B1803846FFF76CFF304682490AF0C2FC59
:105E400081490AF073FD0AF099FE804DDFF8149243
:105E500095F900A0A9F8000050460AF05FFC314611
:105E60000AF0B0FC0AF09EF873A3D3E900230AF00D
:105E7000F1F80AF049FB764980460AF0A3FC724922
:105E80000AF054FD0AF07AFE724B734A19784E46B6
:105E90009B46914638621080D1B1BAF1000F17DDF0
:105EA0002020FDF7D5FB019095F900000AF036FCA3
:105EB000019B8246694918460AF084FC0146504617
:105EC0000AF076FB0AF05AFE40B200282DDB28705B
:105ED00095F90030632B2ADDB7F90E30DBB90021CC
:105EE00040460AF00DFEB0B1B9F900000AF048F8DA
:105EF00000225B4B0AF0AEF80AF0BEFAA9F80000E7
:105F0000B6F900000AF03CF80022554B0AF0A2F85E
:105F10000AF0B2FA308014BB3B6A002B02DA514B14
:105F200000221A8003B0BDE8F08F00232B709BF88D
:105F30000030002BD0D12020FDF78AFB824695F956
:105F400000000AF0EBFB51460AF034FB0AF016FEA3
:105F500040B26428CABF642328702B70BCE7012CB0
:105F600001D13D4BDCE7022CD9D0032CDAD14046DD
:105F70003D490AF0E3FD08B93080D3E740460AF016
:105F8000FDFDA0F1320341F217105843322390FB7C
:105F9000F3F0F1E7022B1BD12D4930460AF012FC39
:105FA00029490AF0C3FC0AF0E9FD2B4A03B2138029
:105FB00013EB83032B4A48BF03339B1038621380D3
:105FC0000CB90028AAE7012CCBD0022CAAD1A6E755
:105FD000032BA7D11E4930460AF0F4FB1A490AF0F8
:105FE000A5FC0AF0CBFD1C4A03B2138013EB83031C
:105FF0001C4A48BF03339B10154638621380002C9F
:10600000DFD0012CADD0022C89D0032C8AD13046B0
:1060100015490AF093FD08B9288083E730460AF055
:10602000ADFDA0F1320341F217105843322390FB2B
:10603000F3F0F1E7AFF300807B14AE47E17A843FE1
:106040000E30002000B888450000C8427D2F002097
:1060500000C05A450F3000207A2F00200000A040D9
:106060000000E03F782F00200000484210B57A2061
:10607000FDF7E6FA08B902F0A1FF7A20FDF7E0FA91
:10608000012843D12248FBF719FC0146B120FDF756
:10609000F7FA2048FBF712FC0146B220FDF7F0FAB0
:1060A0001D48FBF70BFC0146B320FDF7E9FA1A483F
:1060B000FBF704FC04461748FBF700FC84F00104DE
:1060C000E3B280F00104E4B21148640044EA8304BE
:1060D000FBF7F4FB64B280F00100204340B20F4CA8
:1060E0000628207003D10021B620FDF7C9FA2378D5
:1060F000052B03D10121B620FDF7C2FA3120FDF7AF
:106100009FFABDE8104080B202F058BF10BD00BF3A
:10611000AC2C0020B42C0020BC2C00207E2F0020B2
:10612000034B1B78012B01D1FFF7A0BF704700BFC5
:106130000E300020002270B50A4C134626468D1EF4
:10614000954205DD14F8010B013203449BB2F7E7D9
:10615000314411F8012C705D40EA0220C31A584204
:10616000584170BD822F0020002070B5084C0346B6
:1061700022468D1E854205DD14F8016B0130334443
:106180009BB2F7E753550A441B1202F8013C70BD5D
:10619000721B0020F8B5BA4D04462B780E2B3ED862
:1061A000DFE813F00F0016003B003E007C00C0004B
:1061B000C200E100E300150188019401AD01AF01C7
:1061C000E0016420FFF766FDAE48FBF795FB21E098
:1061D000AD4CAC48FBF78CFB23787BB9022207213E
:1061E000AA4808F0CAFCA8B107210222A74808F073
:1061F000BEFC5021A648FFF70FFD0BE05021A5483B
:10620000FFF70AFDA44B5B78002B00F0DB812378BD
:10621000013B23702B78013300E003232B70F8BD82
:106220006421FFF787FF9C4E9C4F38B90021A720BF
:106230006181A1813970FDF723FA29E0022206214C
:10624000924808F09AFC0028F0D0022206218F48DC
:1062500008F08DFC01233B70B6F85230053B03EB90
:10626000D3735B10238196F92A000AF057FA606114
:1062700096F956000AF052FAA061F279B37943EA2E
:106280000223638196F82020F37F43EA0223A3814F
:10629000002386F8623086F86330BBE7804E9A2090
:1062A000B6F90010FDF7ECF96189A289784B0A4430
:1062B000712112B292FBF1F27A491A70B1F9002001
:1062C0000978880083F84B0090115242C2F30722EC
:1062D0009A711A7372784942DA7683F8212078220B
:1062E00083F83F20EC2283F840206C2283F8412081
:1062F0006B22C9B25971D972317883F84C00997602
:1063000083F820102046502183F84220FFF72CFF0D
:10631000654A1388642B8EBF002301339BB2138020
:1063200000237BE778204DE7574C5648FBF7E0FA0F
:106330002378052B0ED902220721544808F01DFCB2
:1063400000283FF467AF07210222504808F00FFCF5
:1063500064214FE76421554801FB0300FFF75CFC13
:106360002378013355E7082358E77821FFF7E2FE49
:10637000494E4A4F00283FF459AF022206214348B4
:1063800008F0FBFB00283FF451AF022206213F48F2
:1063900008F0EDFB01233B70B6F86430053B03EBDE
:1063A000D3735B10238196F914000AF0B7F960618A
:1063B000B6F856000AF0B2F9A061F279B37943EA6F
:1063C0000223638196F8272096F826305DE7344E45
:1063D0009A20B6F90010FDF753F9324A2C4B117888
:1063E000307852785971D97271789A711A73987796
:1063F000D977B6F90020266A002E37DD02EBD2727B
:1064000052101A7712129876D9765A77752183F836
:106410004A10122183F84B106021402283F84C105F
:10642000252183F84820042283F84D10522183F857
:10643000492083F84F20892283F84E101C4983F8A5
:10644000562083F858200A7820460132D2B20A70CA
:10645000D20748BF93F85E204FF0640144BF013279
:1064600083F85E20FFF780FE0523D7E6CED002EB4F
:10647000D27252109A76121218775977DA76C5E7E7
:10648000103000208C2C0020711B002000000240E6
:10649000721B0020B4210108822F0020113000203F
:1064A0007A2F0020782F002012300020511E00206B
:1064B0007C2F00207A20FDF7C3F801281CBF0022A2
:1064C000414B4FF08C0018BF1A707BE63E4C3F48A2
:1064D000FBF70EFA2378062B0ED9022207213C483F
:1064E00008F04BFB00283FF495AE07210222384804
:1064F00008F03DFB69217DE6692136482CE70D2334
:106500008CE68C21FFF716FE334E40B302220621A3
:106510002F4808F032FB10B3022206212C4808F065
:1065200026FB012333702D4EB6F875305B102381A6
:1065300096F914000AF0F2F86061B6F819000AF052
:10654000EDF8A061F27AB37A43EA0223638196F808
:106550002C2096F82B3043EA0223A3815AE600232D
:10656000337057E61E4E9A20B6F90010FDF788F8F2
:106570001C4B2046B3F900201B4B5242D1B2C2F350
:1065800007229A711A73B6F900205971DA7712123C
:1065900083F820209A7ED97283F82520DA7E69213B
:1065A00083F82620782283F84F20EC2283F85020AD
:1065B000102283F85120272283F85220FFF7D4FDC0
:1065C0000A232BE6012324E6711B00208C2C0020DB
:1065D00000000240DB1B002011300020822F002031
:1065E0007A2F0020782F0020721B002038B5037FFF
:1065F00004468B420D460AD051B15B20FDF720F8CE
:1066000008B9FCF7BFFDFCF7F3FD0123237738BD84
:106610004FF0804008F074FF2577F8E708B50121B6
:10662000FFF7E4FF0A4B1A78042A04D805221A70EF
:106630000022084B1A7064230749084A11F8010B1D
:10664000013B02F8010BF9D10222054B1A7008BD7B
:1066500010300020711B002050210108721B002007
:106660000E30002008B50121FFF7C0FF064B1A7855
:10667000042A04D900221A700122044B1A70012244
:10668000034B1A7008BD00BF10300020711B0020A2
:106690000E300020012108B5FFF7A8FF0A4B0B4977
:1066A0001A78092A9CBF0A221A700022084B1A7015
:1066B0006923084A11F8010B013B02F8010BF9D1DB
:1066C0000322054B1A7008BD103000201822010863
:1066D000711B0020721B00200E3000200021FFF7EC
:1066E00085BF01817047000008B508460AF046FAE8
:1066F000A6230F384343412093FBF0F3014A58335C
:10670000138008BD18300020AA20FCF7AFBF10B5D9
:10671000044600226160084640F2531100F001FE79
:1067200060680022BDE8104040F2F31100F0F9BDAE
:1067300040F25313994210B5044610D1B2F801004B
:10674000A0F5B07009F0EAFF4FF076510AF03AF880
:1067500001469920FCF7A2FF0123E37203E040F217
:10676000F3139942F8D010BD10B50446C07A10B9A1
:106770000348FBF7A3F800232073E37210BD00BFAA
:10678000FC2C002008B50248FBF798F808BD00BFB4
:10679000FC2C002007B540F2EE22038940F21631AE
:1067A000934238BF13460522ADF8002041F6583217
:1067B000934228BF13460A229B01B3FBF2F3ADF8C4
:1067C000023000236A46019340680823FEF775FCF7
:1067D00003B05DF804FB000013B5154B00241A78D4
:1067E00001948DF80020134A12888DF80120C522EB
:1067F000ADF80220104A11780131C9B2152994BFB1
:1068000011701470127812B911221A7003E0082A5C
:106810000AD00F2A0AD008236A4640F2293140687C
:10682000FEF74BFC02B010BD8622EEE7D922ECE762
:10683000173000201830002016300020462313B5F2
:10684000ADF80430002340688DF80630036840F24C
:106850003B415C6801AA0323A04702B010BD0000C1
:1068600007B50D4A40F245511388406801339BB289
:10687000138000228DF801301B128DF80230074B77
:106880008DF800208DF8032001936A460823FEF757
:1068900014FC03B05DF804FB143000207E100018D7
:1068A000812307B58DF80030B1B1012916D001312F
:1068B00016D107238DF801304FF6FF73ADF8023083
:1068C000084B6A46019340F23F4108234068FEF7B7
:1068D000F4FB03B05DF804FB0623EBE70523E9E7CF
:1068E0000823E7E70080FFFF037B10B50446BBB138
:1068F000FFF750FF2046FFF76FFF2046FFF7B0FF7E
:106900002046FFF79BFF0320FCF7B0FE40B1A0201C
:10691000FCF796FE41B22046BDE81040FFF7C0BF2D
:1069200010BD018170477047AA20FCF79FBE000090
:1069300008B5084B186899889B792BB108F00DFBB6
:10694000B0FA80F0400908BD08F007FB003818BF16
:106950000120F8E7FC2C002030B51F4A1F4B89B0FE
:10696000CDE901231E491F4B1F4CCDE903131F4BDB
:106970001F4D05930023ADF81930237808AA63F062
:106980007F038DF818302B684FF4B061134413F86F
:106990001C2C40688DF81B2013F8182C8DF81C2037
:1069A00013F8142C8DF81D2013F8102C13F80C3C40
:1069B0008DF81E208DF81F3006AA0823FEF77DFBF8
:1069C0002B68013303F003032B602378013303F0BA
:1069D0000F03237009B030BD0F287F281E10001050
:1069E0007056F0560C48A7481A3000204690289060
:1069F0001C30002037B540F2EE2203890025934277
:106A000038BF134641F65832934228BF1346044616
:106A100003819A009B09CDE900554FF420718DF850
:106A200003308DF8042008236A464068FEF745FBD2
:106A300008236A464FF4227160688DF803508DF880
:106A40000450FEF73AFB03B030BD000008B5034B1D
:106A5000B3F9000009F062FE08BD00BF2430002039
:106A600008B5034BB3F9000009F058FE08BD00BF9C
:106A70002C30002008B5024B188809F04BFE08BDE9
:106A80002A30002008B5034BB3F9000009F046FE98
:106A900008BD00BF28300020064B1A78064B0AB903
:106AA0001A7001E0012AFBD0044A126802B91A7078
:106AB000187870472230002023300020303000202A
:106AC00010B504460022616008464FF4C87100F01A
:106AD00028FC00224FF4CD71606800F022FC0022F7
