:020000040800F2
:10100000005000203DFA000839FA000837FA0008BD
:1010100037FA000837FA000837FA00080000000025
:1010200000000000000000000000000039FA000885
:1010300039FA00080000000039FA000839FA0008FF
:1010400037FA000837FA000837FA0008292800089C
:1010500037FA000837FA000837FA000837FA0008AC
:1010600037FA000837FA000837FA000837FA00089C
:1010700037FA000837FA000837FA000837FA00088C
:1010800037FA000837FA000837FA0008A982000882
:10109000898200089982000837FA000837FA0008A8
:1010A00037FA000837FA000837FA000837FA00085C
:1010B00037FA000837FA0008D927000837FA00087D
:1010C00037FA000837FA000837FA000837FA00083C
:1010D00037FA000837FA000837FA000837FA00082C
:1010E000E527000837FA000837FA000837FA000841
:1010F00037FA000837FA000837FA000837FA00080C
:1011000037FA000837FA000837FA000837FA0008FB
:1011100037FA000837FA000837FA000837FA0008EB
:1011200037FA000837FA000837FA000837FA0008DB
:1011300037FA000837FA000837FA0008D5820008A5
:10114000B5820008C582000837FA000837FA00089F
:1011500010B404466468084611461A46234610BC7B
:101160001847836818477047704770477047704743
:1011700041607047704770477047704770477047CD
:1011800070470020704700207047000000487047FB
:101190000000484200207047416070477047704728
:1011A0007047704770470020704741607047704734
:1011B0007047704770477047002070477047416024
:1011C00070470020704770477047704770477047FE
:1011D000002070477047416070477047002070479B
:1011E00070474160704770470846704770477047C6
:1011F0007047704700487047003C1C46416070478C
:10120000704770477047704770474160704770473C
:101210000020704700207047002070470020704772
:101220000020704770477047104B10B5186803686E
:101230001B6898470E4B186803681B6898470D4B4E
:10124000186803681B6898470B4B186803681B688D
:1012500098470A4B186803681B689847BDE8104018
:10126000074B186803689B68184700BF20000020E0
:101270001C00002014000020100000200C000020A2
:101280000400002010B5174C206803689B6998473C
:10129000052002F04FFA062818D8DFE800F0040A0B
:1012A0000C0E1012200000220F4B1A700F4B2360FF
:1012B0000CE00F4BFBE70F4BF9E70F4BF7E70F4B3A
:1012C000F5E701220E4B23600E4B1A700E4C20687E
:1012D00005F09CFF6068BDE8104005F097BF0B4B20
:1012E000E5E700BF14000020762A002054290020E2
:1012F0004C29002044290020742900206C2900205A
:101300002C2900204C2A0020682A00206429002073
:1013100010B5114C20680368DB699847042002F07F
:1013200009FA042806D8DFE800F003100E121400B2
:101330000A4B23600A4C206805F068FF6068BDE82E
:10134000104005F063BF074BF3E7074BF1E7074B8E
:10135000EFE7074BEDE700BF100000205C290020FD
:10136000682A0020242900201C290020142900209C
:101370000C29002010B5124C206803685B68984760
:10138000062002F0D7F90138052815D8DFE800F06B
:10139000160E0E0310120B4B23600B4C206805F049
:1013A00035FF6068BDE8104005F030BF074BF3E73C
:1013B000074BF1E7074BEFE7074BEDE7074BEBE791
:1013C0000800002030270020682A00200027002085
:1013D000C426002078260020582700203827002027
:1013E00010B50B4C206803685B689847492002F0F1
:1013F000A1F9084A084B012808BF13462360074C8F
:10140000206805F003FF6068BDE8104005F0FEBEEF
:10141000040000206026002070260020682A00209A
:10142000022010B502F086F90138032815D8DFE84C
:1014300000F0020E10120A4B0A4C0B4A206813608F
:1014400005F0E4FE6068BDE8104005F0DFBE074B24
:10145000F2E7074BF0E7074BEEE7074BECE700BF7F
:10146000A8270020682A00200C00002090270020D8
:10147000842700209C2700205426002010B501203E
:1014800002F058F909280FD8DFE800F0171C2B0EDE
:1014900005091F222528144B144A1A6004E0124A39
:1014A000134B136000229A72124C206805F0AEFEB6
:1014B0006068BDE8104005F0A9BE0B4A0C4B1360F4
:1014C0000122F0E7084B0C4AE7E7074B0B4AE4E739
:1014D000054B0B4AE1E7044B0A4ADEE7024B0A4A96
:1014E000DBE7014B094AD8E71C0000206C270020ED
:1014F000DC290020682A0020082A0020D0290020AA
:10150000B8290020242A0020EC2900206027002090
:10151000036810B59B6898470FF006FC002401464D
:101520009B2002F027F92146962002F031F921464E
:10153000972002F02DF92146992002F029F9214641
:10154000BDE810409A2002F023B9000010B51C4CF1
:10155000206803689B6A9847002002F0EBF809288E
:101560000FD8DFE800F005080A0E271C2117292BE9
:10157000144B236005E0144BFBE71448206004F093
:10158000E7FF134C206805F041FE6068BDE810409D
:1015900005F03CBE0D48206004F0F2FFF1E70B4877
:1015A000206004F0AFFFECE70A4B012223600A4BF6
:1015B0001A70E6E7094BDCE7094BF6E7094BD8E779
:1015C00020000020FC2800207C29002094290020F5
:1015D000682A0020DC2800204C2A00200429002052
:1015E000342600200026002010B5144C2068036823
:1015F0001B699847512002F09DF8032805D8DFE8C1
:1016000000F0020D0F160E4B23600E4C206805F003
:10161000FDFD6068BDE8104005F0F8BD0A4BF3E73A
:101620000A4B0B48196820600BF020F9EDE7012206
:10163000084B2360084B1A70E7E700BF1800002032
:10164000D4280020682A0020C8280020FC2500207B
:1016500074270020BC2800204C2A0020B52002F06E
:101660007FB800002DE9F74F082002F063F8484CDE
:1016700054F820100920019102F05CF854F8206021
:101680000A2002F057F854F820500B2002F052F8CC
:1016900054F820A00C2002F04DF854F820B00D2092
:1016A00002F048F854F820900E2002F043F854F865
:1016B0002070102002F03EF854F82080112002F033
:1016C00039F854F8203001990093324B18680368B8
:1016D000DB6A9847304B314618680368DB6B9847E4
:1016E0002E4B594618680368DB6998472C4B5146C6
:1016F000186803681B6A98472A4B494618680368AC
:101700001B699847284B4146186803685B699847EE
:10171000264B3146186803689B6998473946244828
:1017200009F0FAFE234B0099186803685B69984733
:10173000072001F0FFFF012802D1284603F01AFB21
:10174000072001F0F7FF022802D1284609F098F897
:10175000072001F0EFFF032802D1284609F0C2FA62
:10176000072001F0E7FF042802D128460CF088FF8B
:10177000002240F20161606805F02BFD002240F27A
:101780000161206803B0BDE8F04F05F022BD00BF45
:10179000682A0020200000201C00002014000020E7
:1017A0001000002008000020040000200C00002091
:1017B0005C2600201800002038B540F2DF73984204
:1017C00004460D4606D10A460146314809F0ACFEF2
:1017D000002038BD072001F0ADFF012803D12946C4
:1017E000204603F0A5FB072001F0A4FF022803D147
:1017F0002946204609F084F8072001F09BFF0328C2
:1018000003D12946204609F09FFA072001F092FFF4
:10181000042803D1294620460CF054FF1D4B2A46CC
:10182000186821460368DB6898471B4B2A461868EE
:10183000214603681B699847184B2A4618682146B9
:1018400003681B699847164B2A46186821460368A7
:101850001B699847134B2A461868214603681B6882
:101860009847114B2A461868214603681B68984719
:101870000E4B2A461868214603681B6998470C4B93
:101880002A461868214603681B689847A0E700BFEE
:101890005C260020200000201C00002014000020F6
:1018A0001000002008000020040000200C00002090
:1018B0001800002008B5034699889B7900682BB171
:1018C0000DF00FFCB0FA80F0400908BD0DF009FCE6
:1018D000003818BF0120F8E708B50248FFF7EAFF13
:1018E00008BD00BF782B0020818800680DF0F4BB94
:1018F000818800680DF0F2BB2DE9F843A44BA54C9C
:10190000998818680DF0F0FB0DF0F8FBA24BA34D81
:10191000186801F0DCFE0EF0D7FFA1490FF0DCF8EB
:101920000146DF2001F034FF06F032FA0146822042
:1019300001F020FF802001F0FDFE216806462868A6
:1019400006F094FE072001F0F5FE08B107F046F915
:101950002868944F03689B6A98470146B32001F0BA
:1019600009FF28680368DB6A98470146B12001F047
:101970000FFF07F067F9386803689B689847286885
:1019800003689B689847884B186803689B6898476A
:10199000864B18680368DB689847854B18680368AE
:1019A0001B699847206803689B689847814B1868B3
:1019B00003689B699847804B186805F073FC0CF02E
:1019C00065FE7E4B1B780BB10BF0B8FCAA2001F032
:1019D000B1FE7B4C0028606A80F2A980FFF784FF8B
:1019E000E62001F0A7FE002800F0A480AA2001F064
:1019F000A1FE022800F09E80AA2001F09BFE002894
:101A000000F098806069FFF76FFFBC2001F092FE44
:101A10000346606C002B00F09180FFF765FF012EFC
:101A2000206940F08E80FFF75FFF3868DFF894810F
:101A300003689B6998470146AB2001F0A9FE38680E
:101A400003685B6998470146AC2001F0A1FE386845
:101A500003685B6A98470EF037FF0146C12001F02A
:101A600097FE38680368DB69984701468A2001F0D1
:101A70008FFE2868544D03685B6B98470146C02071
:101A800001F078FE514BAE20196801F073FE504B07
:101A90001B78012B03D0042B01D02B7823B1D8F86D
:101AA000000003689B689847D8F80000DFF824918D
:101AB000036899F800105B6998470746002843D0EF
:101AC000012E1EBF0122444B1A7001232B70A06A05
:101AD000424B984205D0FFF7EDFE0146D82001F0B9
:101AE00049FE0BF0D9FB0BF0F3FB042E01D0012EC5
:101AF0007AD1AB2001F026FE0546DB2001F022FE64
:101B0000014628460FF0F0F888B3AB2001F01AFE2A
:101B10000546762001F016FE29460FF0C7F840B3BF
:101B2000E06BFFF7E1FE206CFFF7DEFE62E0FFF7FF
:101B3000DFFE55E76069FFF7DBFE66E7FFF7D8FEDB
:101B40006DE7FFF7D5FE70E72B7833B101468120B2
:101B500001F010FE204B2F701F70D8F8000099F88C
:101B6000001003689B6998471D4B1870AFE7DB2096
:101B7000CCE7762001F0E6FD1A490EF0EFFD29468C
:101B80000FF0B2F80028CED0E06BFFF7B1FECAE745
:101B9000382C00200C000020782A00201C00002097
:101BA0000000204120000020140000200800002038
:101BB0000400002018000020642A00204C2A002085
:101BC0006030002010000020752A0020982E002090
:101BD000622A0020602A0020762A0020682B00203C
:101BE0004F2A00200000A040E06BFFF781FE206C30
:101BF000FFF77EFE002001F09DFD092816D1012E81
:101C000014D1AA2001F096FD094B0A4C1A688242B1
:101C100009D005221860226007480CF031FC2368C7
:101C2000013B236002E02368002BF5DCBDE8F8836C
:101C3000F8250020F4250020002600202DE9F74F8C
:101C4000A12001F077FD8046802001F073FD04465D
:101C5000AA2001F06FFD81460DF02AFC06F064F821
:101C6000814B824F186803685B689847802001F0B9
:101C700061FD0128054640F0D3800FFA88F888EA14
:101C8000E870A0EBE87080B206F0C2FE00210646C4
:101C90000FF00CF890B1002001F04CFD04280DD09D
:101CA000232001F047FD002840F0B4808045B8BFF4
:101CB0004FF0FF354D4518BF06F1004648460EF07F
:101CC00003FE31460EF054FE0546386803685B6833
:101CD0009847386829460368654D1B699847B920BD
:101CE00001F03EFD002840F09F80286AFFF700FECB
:101CF0003868DFF880B103685F4E1B6A98470FF0C1
:101D000013F80FFA80F84146A12001F033FD0820B6
:101D100001F010FD5BF8200006F0A2FB012C01D0C1
:101D2000042C08D1306888EAE8710368A1EBE871F7
:101D30009B6989B29847D6F80090AB20D9F800305B
:101D4000D3F81CA001F0FEFC01464846D04730689D
:101D500003685B689847494B18680368DB689847D5
:101D6000474B186803685B689847042C66D1454B5D
:101D7000186803685B689847404606F0F5FC8146A2
:101D8000A52001F0D7FC8046182001F0D3FC00907C
:101D9000392001F0D7FC0190292001F0D3FC4946FD
:101DA0000EF0A2FFB0FA80F349465B0901984FEAB2
:101DB000C30A0EF085FF009AB0FA80F09045D4BFB8
:101DC0004FF000084FF0010840094AEA80038720DD
:101DD00043EA881801F0B6FC8146282001F0B2FCE5
:101DE000014648460EF080FF002808BF48F0010871
:101DF0008320414601F0BEFC172001F09BFC0090BF
:101E0000042C00F2A480DFE814F03F00E501B600E6
:101E1000A901C401B8F1000FA8BF4FF0FF3549E791
:101E200006F0C4FE002554E7B62001F099FC002816
:101E30007FF45BAF286AFFF757FD59E7052001F0F3
:101E400079FC032804D10F4B186803685B68984736
:101E5000012C91D1DE2001F06DFC411C01F00F013D
:101E6000DE2001F087FC87E7100000202000002022
:101E700060300020682A00201C00002004000020A0
:101E80000C000020140000200027A74BA7481F705B
:101E9000A74B1F70FFF72CFDA869FFF729FD022152
:101EA000AA2001F067FC306803685B699847A14B82
:101EB0001F70A14F3B88002B54D1A048FFF718FD9D
:101EC000E869FFF715FD9E48FFF712FDC02001F0FD
:101ED00031FC0346DFF86C92A86C002B48D199F8CE
:101EE0000030002B44D1FFF703FD18F0410F01D063
:101EF000009BC3B1306803689B6B984798B130680A
:101F000003685B6B984770B1A86CFFF7EDFC012389
:101F1000884A02241370844A137019233B800DF001
:101F2000C7FA894B186099F8003063B118F0480F70
:101F300009D119233B800DF0BBFA834B02241860B2
:101F400001237B4A13702146802001F013FCE868CE
:101F5000FFF7CEFC00227D4B114618680368DB6852
:101F6000984791E0013B9BB23B80002BAED1A4E7A8
:101F7000FFF7BAFCB9E7DFF8CC9199F80030002BF5
:101F800040F0AD803A68724B9A4202D06748FFF742
:101F9000ABFCE869684FFFF7A7FCA869FFF7A4FC52
:101FA0003B88002B40F0A7806548FFF79DFCDFF8D9
:101FB00084A19AF8003053B118F0450107D11923D4
:101FC00085208AF800103B80012401F0D3FB99F8AA
:101FD000003063B118F04C0109D14FF4FA73C822F4
:101FE0003B805C4B85201A80042401F0C3FB504BDE
:101FF0001B7823B199F80030002B08BF0024DFF8CC
:10200000288198F80030002B7CD1022C17D10DF0DC
:102010004FFA0646152001F08DFB4B4B1B68184408
:1020200086420CD9009B002B75D098F80030002B0D
:1020300071D000238AF80030192301243B80214607
:10204000802001F097FB012C81D1522001F072FB1E
:10205000012840F0EE803D4FE868FFF745FC3D6801
:1020600055202B689E6801F065FB0EF02DFC0146A3
:102070002846B0473D6853202B68DE6801F05AFBC4
:10208000012281B22846B047072001F053FB022805
:1020900007D10A2001F04EFB5BF82010204608F023
:1020A00041FC072001F046FB032807D10A2001F07C
:1020B00041FB5BF82010204608F078FE072001F075
:1020C00039FB042840F0BC800A2001F033FB5BF8A8
:1020D0002010204603B0BDE8F04F0CF0FBBA0720FB
:1020E00001F028FB00287FF454AF3A681A4B9A425B
:1020F0007FF44FAF4AE7013B9BB23B80002B7FF45C
:1021000056AF51E7306803685B6B984700287FF44F
:102110007CAF002493E70A48FFF7EAFB0A2005F0AA
:1021200009FE03248BE700BF4E2A0020F02B00207D
:102130004D2A0020502A002024000020402C00209E
:10214000F82B0020762A0020F0250020180000201F
:1021500004290020382A00207C29002000223A4B44
:102160003A481A70FFF7C4FB394B1B7823B1394B3F
:102170001B78002B08BF0024374B1B78002B3FF443
:10218000E2AE306803685B6B9847002808BF002404
:10219000D9E6324E338863B93148FFF7A5FB2D4BA2
:1021A000304A1B789BB913885BB9FA23002433802B
:1021B00004E0013B9BB23380002BEDD005F0DCFD49
:1021C000C1E6013B9BB21380002BF7D1EDE7C8239A
:1021D0001380F3E7214F3B8813BB2148FFF784FBB3
:1021E0002148FFF781FB8020012101F0C3FA05F0AF
:1021F000C3FD306803685B6B984700287FF41FAF0E
:10220000A12001F097FA00284FF0A1000EDA01F0AA
:1022100091FA404263283FF712AFFA233B8078E7F8
:10222000013B9BB23B80002BDDD1D6E701F082FA67
:10223000F0E7D82001F094FA00287FF40CAF86E68E
:1022400003B0BDE8F08F00BF502A0020F82B00201B
:102250004D2A0020762A00204E2A0020240000204B
:10226000402C0020382A0020F02B00202DE9F047D8
:10227000802001F05FFA0546894BDFF82892186844
:102280000368DB689847042D04D1D9F8000003687F
:10229000DB68984706F064FD834BDFF810A21968ED
:1022A000D320834F01F066FAD420DAF8001001F051
:1022B00061FAD520396801F05DFA7E4B7E4E1968CF
:1022C000D620DFF8F88101F055FAD720318801F0E7
:1022D00051FA98F800307A4C022B2DD1794B1B78AB
:1022E00053BB042D19D1DFF8E0A1784FDAF80030A4
:1022F000002B41D15C20237001F01CFA4FF496733F
:102300005843CAF800003B68B3F5967F14D1002308
:102310003B603388013B33800EE06D4ADAF80030D1
:1023200012789A4226D16B4A3B6812789A4221D1A0
:102330003388FBB10123237098F800302BBB614B2D
:102340001B780BB9012323706F2001F0F3F90128EA
:102350001FD1712001F0EEF95F4B0746586802F07B
:10236000ABF806460146E02001F004FAB7422ADA4B
:10237000002330E00023DEE73A68013B0132CAF86F
:1023800000303A60002BBED1B4E7012BDCD1002332
:10239000D9E7702001F0CEF90128DAD0D9F8000091
:1023A0004E4A036812785B692178984708B1012D7D
:1023B00013D14B4B1E78B6B93146812001F0DAF9C2
:1023C000484B1E700FE098F80030012BE6D13D4AD3
:1023D0001278002AE2D12370E0E70121414B8120ED
:1023E000197001F0C7F9404E3378022B07D13C4BEE
:1023F0001B7823B13D4B18680368DB689847337836
:10240000012B02D9033B012B0AD8384F38680368E7
:10241000DB68984733781BB938680368DB689847EE
:10242000042D6DD12E4B1D78002D33D1862001F067
:1024300081F906463E2001F07DF98642A1BF0122C6
:10244000204B25701A702A4B186803689B689847C0
:1024500000210EF021FC68B1264A1368002BDFBF73
:10246000002301212370174BCEBF03F1FF331970F6
:102470000A231360204B586B204B98420AD0FFF779
:1024800019FA38B1E52001F055F918B901220D4BC0
:1024900020701A70184B986BFFF72AFA57E000BFAC
:1024A0001C00002014000020482A0020442A00209C
:1024B000402A00203C2A00205C2A0020612A0020BB
:1024C000602A0020742A0020582A0020542A002064
:1024D0005F2A00205E2A0020543000204F2A00206E
:1024E000752A0020762A0020622A00201000002091
:1024F000080000200000002060300020682B002031
:10250000012DC7D10022174B6F201A7001F012F96C
:10251000022817D1722001F00DF90646732001F050
:1025200009F9114B0546986801F0C6FF01460446BB
:10253000E12001F01FF9AE420BDCA642AADCA54265
:1025400005DA0AE0702001F0F5F80228E2D0BDE8D3
:10255000F087A6429EDBA542F9DD044B986BFFF79E
:10256000C3F9F4E7742A00205430002060300020C2
:10257000FEE700000C2838B510D80C2819D8DFE881
:1025800010F0D000D300E5001800D900D600DF001D
:102590001800E800E800E800E800E800512800F032
:1025A000CC8000F2B2803C2800F0DB80492800F0AB
:1025B000CA80232001F0BEF840B1002001F0BAF833
:1025C000082803D00021232001F0D4F8182001F0BE
:1025D000B1F8664D664C2860192001F0ABF8206018
:1025E0001A2001F0A7F868601B2001F0A3F86060D2
:1025F0001C2001F0A7F85F4D5F4C28601D2001F002
:10260000A1F82060332001F09DF85C4B2168186030
:1026100028680EF04BFB50B159491C202960594DD8
:10262000256001F0B5F829461D2001F0B1F81E2003
:1026300001F088F8544B554C18602E2001F082F8B8
:10264000534B18602F2001F07DF8524B1860312059
:1026500001F078F8504B1860262001F06BF84F4BD2
:102660001860202001F06EF84D4B1860242001F016
:1026700069F84C4B1860302001F064F84A4B186040
:102680001F2001F05FF8494B1860052001F052F857
:10269000042001F04FF8464B18702378012B22D10B
:1026A000592001F047F8434B1860582001F042F8D8
:1026B000414B1860572001F03DF8404B1860562000
:1026C00001F038F83E4B18605A2001F033F83D4BCA
:1026D00018705B2001F02EF83B4B18705C2001F065
:1026E00029F83A4B1880452001F024F820705C202E
:1026F00001F020F84FF496735843354B186008F0FA
:1027000067F8BDE8384008F08FB8692805D8662812
:102710007FF64FAF00F02CFE4BE779380428F9D94B
:1027200047E7FEF713FF44E7FEF7A8FE41E7FEF791
:10273000A9FD3EE7FEF7ECFD3BE7FEF755FF38E766
:10274000FEF718FE35E7FEF74BFE32E7FEF768FEB0
:102750002FE7204C206804F059FD606804F056FD16
:1027600027E704F043FB04F02FFB22E7902E002024
:10277000882E0020842E0020802E0020482E00204D
:102780000080BB440000C8427C2E0020612A00204B
:10279000742E00206C2E0020682E00204C2E00206D
:1027A000642E0020602E0020702E0020782E002045
:1027B000622A00203C2A0020402A0020442A0020CF
:1027C000482A00205F2A00205E2A00205C2A002080
:1027D000582A0020682A0020014B186800F040BFEA
:1027E000782A002000B589B003A804F07FFB28B147
:1027F000DDF815300193DDF81930029304F0F1FA99
:102800004FF400400CF02EFB0499A1F58473012BCA
:1028100005D8044B01AA186803681B69984709B0DA
:1028200000BD00BF1000002008B500200CF076FEAF
:10283000104B1A6801323B2A1A600F4A05D91168F9
:102840000131116019683C39196013683B2B0B4B3F
:1028500005D919680131196011683C3911601A688D
:10286000172A06D906490A6801320A601A68183A16
:102870001A6008BD3C2A0020402A0020442A00207B
:10288000482A00202DE9F043ADF68C2D00F0BCFB6A
:1028900000F0E4FC0022C349C34801F04DFE0122D0
:1028A000C049C24801F048FE0122C149C14801F0B7
:1028B00043FE0222BB49C04801F03EFE0322B94953
:1028C000BE4801F039FE0522B649BD4801F034FE8C
:1028D0000422B449BB4801F02FFE0B22B149BA488B
:1028E00001F02AFE04232022B849B94801F09DFBDB
:1028F00004238022B549B74801F097FB04234FF425
:102900000042B549B54801F090FB04231022A849C4
:10291000B34801F08AFB04230822A549B14801F01D
:1029200084FB0125072380229E49AF4801F07DFBEF
:1029300007230422AD49AE4801F077FB07234FF48B
:102940000042A249AB4801F070FB07234FF48042DC
:102950009E49A94801F069FB07234FF400529B49A7
:10296000A64801F062FB07234FF400729749A44880
:1029700001F05BFB07234FF480729449A14801F0FA
:1029800054FB07234FF4806290499F4801F04DFBB0
:1029900007234FF400628D499C4801F046FB072352
:1029A000402280499A4801F040FB07234FF480728F
:1029B0008949984801F039FB07234FF4007279499F
:1029C000954801F032FB07234FF480727549934814
:1029D00001F02BFB07234FF480527C49904801F013
:1029E00024FB0523082281498E4801F01EFB0523A4
:1029F00010227E498C4801F018FB052320227B49D8
:102A00008A4801F012FB072340227849884801F0E8
:102A10000CFB072308226D49864801F006FB0723BB
:102A200004226A49844801F000FB07234FF48052D6
:102A30005F49824801F0F9FA07234FF480426B495D
:102A40007F4801F0F2FA0723012259497D4801F03D
:102A5000ECFA0723802260497B4801F0E6FA07235D
:102A600040225D49794801F0E0FA042340225749A9
:102A7000774801F0DAFA042310225449754801F02E
:102A8000D4FA002380225949734801F0CEFA01F0AC
:102A9000A7FC72494FF000700CF014FB00F06EFBC5
:102AA00000F09CFB05F012F900F00EFB00F038FB83
:102AB00000F05EFCE720FFF75DFD5648FEF718FFCB
:102AC0005F48FEF715FFC4AC0023654A65490095D1
:102AD00039A800F0FFFE0DF26C58002302222046B8
:102AE000614905F029FB022260492B46404605F06A
:102AF00023FB5F4B0F2004935E4B0DF5F9670593A5
:102B00005D4B5E4E069300F015FE2A46002814BF6A
:102B100041462146384605F055F83A46214619A85F
:102B200008F0D4FD032119A808F0ECFD204604A903
:102B3000C6E9004804F03EFB04A9404604F03AFB15
:102B40004F4B0A201F604F4B07AC1F6000F0F2FD97
:102B500056F820700E2000F0EDFD56F820104A487F
:102B600008F0DAFC04F042F904F02EF94FF4964232
:102B70004649204609F0F0FC454B1C600FACFEF7BF
:102B8000E5FCFEF77BFCFEF77DFBFEF7C1FBFEF7E5
:102B9000F1FBFEF729FDFEF723FCFEF741FC3D4962
:102BA000204679E0001001408C2C0020882C002069
:102BB000000C0140842C0020802C00207C2C002064
:102BC000782C0020742C0020702C00200014014070
:102BD000682C0020602C002000080140582C0020A8
:102BE000502C0020482C0020402C002000180140D0
:102BF000382C0020302C0020282C0020202C0020F5
:102C0000182C0020102C0020082C0020002C002064
:102C1000F82B0020F02B0020E82B0020E02B0020D8
:102C2000D82B0020D02B0020C82B0020C02B002048
:102C3000B82B0020B02B0020A82B0020A02B0020B8
:102C4000982B0020902B0020882B0020802B002028
:102C5000782B0020702B0020682B0020C000400043
:102C6000342901080048004000640040006800402A
:102C7000340F0108B917000865160008682A0020FB
:102C8000C82F0020642A00205C2600200038014064
:102C9000FC2500200008004000F08EFC1A4B2A465C
:102CA00020461A491C6000F0A7FC0A222046184959
:102CB00000F0A2FC64222046164900F09DFCC822C8
:102CC0002046154900F098FC782000F033FDA8421A
:102CD00002D1384602F0B0F804217F2000F04AFD0E
:102CE0000021802000F046FD4FF0000439A88DF847
:102CF0000F4000F0A3FF1E9B002BF7D10DF10F0139
:102D00001AA806F0FFF9F1E7782A00202912000836
:102D10003D1C0008F91800086D22000810B50024B9
:102D2000624B634A1C741A60624B634A1C721A60DD
:102D3000DC721C73614A624B62481A601C72DC725E
:102D40001C73614A614B1A60614B624A1A6007F05A
:102D500035FD614B614A1C621A601C77604A614B09
:102D600061481A60614B624A1A60624B624A1A609B
:102D7000624B634A1A60634B634A1A60634B644A4E
:102D80001A60644B644A1A60644B654A1A60654B6A
:102D9000654A5C751A60DC82644A654B1A60654B53
:102DA000654A1A60654B664A1A60664B664A1A6045
:102DB000664B674A1A60674B674A1A6004F0DEF98F
:102DC000664B674A67481A6007F026FB664B674AFE
:102DD00067491A60674B684A68481A60684B694AD5
:102DE0001A60694B694A1A60694B6A4A1A606A4BF1
:102DF0006A4A1A606A4B6B4A1C721A606A4B6B4AC9
:102E00001A606B4B6B4A1A606B4B6C4A1A606C4AC7
:102E10006C4BC2E902441360002313615361936158
:102E2000D361694A1160694A6949C2E90444116081
:102E3000C2E90644136253629362D3626549664AEB
:102E400011606649C2E90244C2E904441483D361B3
:102E5000136253629362D362136353639163604A54
:102E60006049C2E9044411605F49D3609361D36152
:102E7000148453629362D362136353639363D36383
:102E80001364536493649160584B594A1A60594BC8
:102E9000594A1C731A60594B594A1A6009F056FB7B
:102EA000BDE8104057480BF0DFBA00BF242A0020CD
:102EB000AC320108082A0020C8290108002B0108AB
:102EC000EC290020B8290020F42C0108DC2900207E
:102ED000D02900203C2D010894290020882B0108CE
:102EE000242F01087C290020DC28002074290020E0
:102EF000843001086C290020B030010864290020CA
:102F0000443401085C290020680F0108542900207E
:102F1000940F01084C290020DC30010844290020CE
:102F2000D82F01082C29002040320108882F0108E1
:102F3000242900201C2900205C2F010814290020CE
:102F4000183401080C290020A435010804290020A8
:102F5000842D0108FC28002044100108D4280020FA
:102F6000C00F0108C8280020BC280020FC3601083A
:102F70007C360108B42800202010010834260020E7
:102F8000A8270020F43201089C27002058360108A9
:102F900090270020FC3401088427002020350108F8
:102FA00074270020D83401086C2700207C10010809
:102FB000602700209836010858270020E40F0108F8
:102FC0003827002024320108302700200027002065
:102FD00008320108E0360108C42600200000FA4348
:102FE00078260020283701080000C84270260020FB
:102FF00000100108602600208C32010854260020B1
:10300000440F01080026002008B50CF08FF90220BB
:103010000CF064F94FF0E0232A4A40F20230C3F882
:103020000C2D0CF0C9F940F203300CF0C5F94FF447
:1030300041700CF0C1F940F205300CF0BDF940F2DE
:1030400006300CF0B9F940F292300CF0B5F940F2CC
:1030500091300CF0B1F940F20E300CF0ADF940F2C5
:103060000B300CF0A9F94FF460700CF0A5F940F2A8
:1030700081300CF0A1F940F282300CF09DF94FF450
:1030800020700CF099F940F209300CF095F940F2FB
:1030900086200CF091F94FF440700CF08DF940F25D
:1030A00099300CF089F940F29A300CF085F940F231
:1030B0008E300CF081F9BDE8084040F28F300CF002
:1030C0007BB900BF0003FA0513B500242021234675
:1030D0002246CDE9004410480CF08EFA21460E48F5
:1030E0000CF082FA0C480CF071FA0B480CF077FAED
:1030F0004FF420430222032108480BF0B3FF4FF4A2
:1031000080430122214605480BF0ACFF024802B083
:10311000BDE810400CF04EBA00380040000C0140F1
:1031200013B500244FF080514FF000700BF0CAFF30
:10313000234622462021CDE900440E480CF05CFADB
:103140000C480CF043FA0B480CF049FA4FF4A0532A
:103150000222032108480BF085FF4FF4006301228F
:10316000214605480BF07EFF024802B0BDE8104042
:103170000CF020BA003C00400010014008B50222CB
:103180000423032112480BF06DFF082301220021C4
:103190000F480BF067FF0F490F480CF0EBFB0821BD
:1031A0000D480CF0FBFB00210B480CF000FC0C213F
:1031B00009480CF008FC002107480CF0FEFB06480B
:1031C00000210CF006FCBDE8084003480CF007BCE9
:1031D0000008014020A107000044004008B511206C
:1031E0000CF096FCF02111200CF0A0FC10200CF04B
:1031F0008FFCF02110200CF099FC1E200CF088FCB4
:1032000000211E200CF092FC14200CF081FCE02127
:1032100014200CF08BFC13200CF07AFCE02113201E
:103220000CF084FC28200CF073FC4FF400400BF0F1
:103230000FFE01214FF400400BF0EEFD06494FF464
:1032400000400BF015FE03200CF062FCBDE80840C6
:10325000202103200CF06ABC0018014008B54FF291
:10326000234103200CF08CF900200CF02BF90020F6
:103270000CF054F9BDE8084000200CF031B9000012
:10328000022208B511464FF4007316480BF0EAFE0F
:1032900015480CF0F9F900232022194612480CF0C9
:1032A000CCF9202110480CF0F4F9072200210E4837
:1032B0000CF0F3F900210C480CF0F4FA0A480CF079
:1032C0004BFB4FF4C872002107480CF035FB064851
:1032D0004FF488610CF0DFF9BDE8084002480CF0BB
:1032E000CEB900BF00180140002C014008B50223F0
:1032F00003211A461D480BF0B5FE4FF080400CF03C
:10330000C3F900234FF080401A4619460CF095F996
:1033100000214FF080400CF0BCF94FF080400CF0E1
:1033200095F94FF080400CF0A5F98F214FF08040C7
:103330000CF0B1F902214FF080400CF0D8FA0622CF
:1033400002214FF080400CF0A8F902214FF080409C
:103350000CF0A8FA4FF08040482202210CF0ECFA61
:10336000BDE808404FF080400CF089B900080140EA
:10337000692038B500F0DEF9132808D102220123B4
:10338000114687480BF06EFE002425460DE06920AB
:1033900000F0D0F9142840F0928002220123114657
:1033A0007F480BF05FFE00240125682000F0C2F981
:1033B000132840F0998002228023114679480BF0AF
:1033C00051FE672000F0B6F9132840F0AE800222CB
:1033D0004023114673480BF045FE73480CF054F936
:1033E000002171480CF037F96F480CF02FF90622D4
:1033F00000216D480CF051F9062202216A480CF0B8
:103400004CF90622042168480CF047F9002166486F
:103410000CF009FA022164480CF005FA0421624814
:103420000CF001FA002160480CF017FA02215E4806
:103430000CF013FA04215C480CF00FFA00215A48F2
:103440000CF030FA022158480CF02CFA04215648AE
:103450000CF028FA002D40F08980002C40F0868086
:103460007A2000F067F901464F480CF014F97B20F0
:1034700000F060F9214602464B480CF05DFA7C20D2
:1034800000F058F90221024647480CF055FA7D2019
:1034900000F050F90421024643480CF04DFA012196
:1034A00041480CF05EFA792000F044F901463E48AC
:1034B0000CF0EFF8BDE838403B480CF0E0B869206C
:1034C00000F038F9152808D10222012311463448AA
:1034D0000BF0C8FD0124002567E7072301223049CE
:1034E000324800F0A2FD4FE7682000F023F91428CD
:1034F00007D10222802311462A480BF0B3FD012593
:103500005FE7682000F016F9152807D10222802312
:10351000114624480BF0A6FD012452E70723802220
:103520002049234800F081FD4BE7672000F002F9B5
:10353000142807D10222402311461A480BF092FDAD
:1035400001254AE7672000F0F5F8152807D1022287
:103550004023114613480BF085FD01243DE7072366
:1035600040221049134800F060FD36E741F68C1107
:103570000D480CF090F8012200210B480CF0DCF90A
:103580000122022108480CF0D7F901220421064843
:103590000CF0D2F9012104480CF0E3F90A2186E786
:1035A000000C01400008014000040040902B002066
:1035B000882B0020802B002038B50C460546016280
:1035C00008460CF043F820460CF04FF8084B204614
:1035D0001968084BB1FBF3F101390CF05AF8204699
:1035E0004FF6FF710CF057F8002328466B6238BD88
:1035F000E4230020A0860100F8B5436A0446032BAB
:103600000F462ADC006A02EB8205144E0CF03CF8EF
:10361000636A0122F15C206A0CF03FF8636A0022C1
:10362000F15C206A0CF088F90221636A05EB8505DC
:1036300003F10802AD0044F82370994024F81250B9
:10364000206A0BF0EDFF0021206A0CF090F9206A4F
:103650000CF015F8636A01336362F8BDBC10010811
:103660002DE9F843044600254FF0020800F110064A
:10367000636A08FA05F7AB420ADC3946206A0BF0A8
:10368000D9FF0135042D06F10206F1D1BDE8F8831A
:103690003946206A0BF0C8FFA8B1206A0CF065F922
:1036A000236A3188343353F8252081460A4443F88D
:1036B000252054F825309847206A0CF056F9A0EBE5
:1036C00009003081D9E7636AAB42DADCD5E7002133
:1036D00070B500F10E03446A4FF47A7508468C42C7
:1036E00000DC70BD5A8933F8026F6A43B2FBF6F210
:1036F00001311044F3E7000010B51C24084B04FB13
:103700000033DC688C4209DC1B698B4206DB054B0D
:1037100043F82010FEF72EFF002010BDFF20FCE72D
:10372000C403002028000020014B53F820007047FC
:1037300028000020024B53F820004011704700BFC2
:103740002800002008B5054B53F820000DF0BCF808
:103750004FF074510DF00CF908BD00BF2800002097
:10376000034B53F820004011431E58425841704704
:1037700028000020024B490143F82010704700BF89
:1037800028000020014B43F820107047280000203B
:1037900010B5044608464FF084410DF0E9F80DF0ED
:1037A000C3FA024B43F8240010BD00BF28000020DC
:1037B00070B506460024074D3146686800F08EFB60
:1037C00008B9E0B270BD0134E72C05F11C05F3D156
:1037D000E820F7E7C40300200023064A118B81424A
:1037E00001D1D8B270470133E72B02F11C02F5D1A9
:1037F000E8207047C40300201C22024B02FB00306B
:10380000704700BFC40300200023064A0649108BFE
:1038100010B1506941F823000133E72B02F11C027B
:10382000F5D17047C403002028000020014B195433
:10383000704700BF7C2A0020024B1A5C11431954C8
:10384000704700BF7C2A0020024A135C23EA010370
:10385000135470477C2A0020014B185C704700BF4E
:103860007C2A00201C22024B02FB0033987E70470A
:10387000C403002000487047AA6A0300024B1A687C
:10388000024BC3F8402E7047D4220020C40300200E
:10389000202180680CF0C9B880680CF0BEB810B563
:1038A00004464368597A58680BF08DFA636804F14E
:1038B0002A02597A58680BF098FA63688022597A7C
:1038C00058680BF0A2FA6368BDE81040597A58684E
:1038D0000BF070BA70B5026140F201120D464A4910
:1038E0008282016001210022817580F8281004463F
:1038F0000421C0E9062280F8202042629DF81020B1
:10390000856080F82920414A037342601068A8420C
:1039100003D01C3201396260F8D13D490C60002BA4
:103920006FD05069138B022203210BF09BFB2846BA
:103930004FF4E1310CF01EF8284608210CF02EF867
:1039400028464FF400510CF032F828460C210CF0B8
:103950003AF8284600210CF030F8002128460CF0F7
:1039600038F828460CF04BF828460CF04DF8636800
:10397000197A58680BF0AEF96368197A58680BF039
:1039800010FA63682A1D197A58680BF025FA6368E3
:103990000022197A58680BF0D8F963680022197A66
:1039A00058680BF0C5F96368197A58680BF0DAF9B2
:1039B0006368597A58680BF08DF963682A1D597A43
:1039C00058680BF009FA63680022597A58680BF0BE
:1039D000BCF963680022597A58680BF0A9F963684A
:1039E000597A58680BF0BEF963685868597A0BF039
:1039F000E1F92046FFF753FF28460BF0F0FF204681
:103A000070BDD068138A8EE7C0280108C428010859
:103A1000642B002038B5437D0D4643B1046921680D
:103A200019B1284600F05AFA20B9236803B90024D6
:103A3000204638BD0834F2E738B504460D466368C1
:103A40000222197A58680BF05CF918B994F82830FA
:103A5000002BF4D06368197A58680BF0B4F96368E6
:103A6000AAB2197A58680BF0D0F994F8202063684C
:103A700004EBC212197A5868AA320BF0B6F96368DF
:103A80000222197A58680BF036F96368197A586877
:103A90000BF090F994F82030B3FA83F35B0984F8C3
:103AA0002030002384F8283038BD10B50446A37DAB
:103AB000084623B9A068BDE810400BF095BF94F804
:103AC0002030626A04EBC31313440A2802F1010197
:103AD00083F8AA0001D07F2A05D12046FFF7ACFF6A
:103AE0000023636210BD6162FCE7802A28BF802248
:103AF000002330B4934203D130BC1946FFF79CBF7A
:103B000090F82040CD5C00EBC4141C4484F8AA500B
:103B10000133EFE738B5054608460C4600F0F5F9E5
:103B2000214602462846BDE83840FFF7DEBF0000C8
:103B300010B50446084600F03BFA00F020FA217D5B
:103B4000227B8142636811D1012161755AB15869A4
:103B50001B8B032102220BF085FA2046BDE81040A2
:103B60000949FFF7D7BFD8681B8AF2E700216175C2
:103B70003AB158691B8B0122BDE8104000210BF0BF
:103B800071BAD8681B8AF6E7CF21010830B5044620
:103B900085B0084600F00CFA0378302B26D0322B83
:103BA000144D18BF4FF46125637DA3B10A22294645
:103BB00001A800F0BAF920460F49FFF7ABFF2046F5
:103BC0000E49FFF7A7FF204601A9FFF7A3FF2046F4
:103BD0000B49FFF79FFF2946A0680BF0CBFE0021A1
:103BE000A06805B0BDE830400BF0E1BE4FF4E13510
:103BF000DAE700BF10552200CE210108D4210108C8
:103C00005428010810B50446084600F0D1F903789D
:103C100023B1303B18BF012384F8293094F82930B0
:103C20002BB104492046BDE81040FFF773BF02499D
:103C3000F8E700BFE3210108ED2101082DE9F0417B
:103C400043680446597A58680BF0D8F80546C0F125
:103C5000800710B92046FFF722FE94F82930A068AB
:103C600013B1E369BB4257DB08210BF0DEFE10B154
:103C7000A0680BF0D2FE7F2D00F39880631B93F8B1
:103C8000A9300A2B01D00D2B7DD16368597A586871
:103C90000BF099F87F2D3AD00022E31983F82A20FF
:103CA0002021E26104F12A0000F036F990F800804A
:103CB0000546B8F1000F37D10A2104F12A0000F0BF
:103CC0002BF9054684F8AA812B782BB90D2104F134
:103CD0002A0000F021F90546002335492B7004F134
:103CE0002A00A36100F0FAF820BB204604F5D57144
:103CF000FFF71EFF0027A369002B3AD0A0680BF046
:103D000090FEA36920465B6804F5D571984720466C
:103D1000BDE8F041FFF7C3BD5A1CE261234493F8AC
:103D20002A100BF061FE98E7411C04F5D57000F0F5
:103D3000E3F8C9E71F4904F12A0000F0CFF828B9D9
:103D4000204604F5D571FFF721FFD3E71A4904F1A6
:103D50002A0000F0C3F828B9204604F5D571FFF712
:103D600051FFC7E7204604F12A01FFF753FEA06187
:103D7000C1E7012FCBDD637D002BC8D020460F4962
:103D8000FFF7C8FEC3E794F82A30212B0ED1A369B0
:103D900063B12046FFF783FD0023E361A36920465A
:103DA00004F5D5715B68BDE8F0411847BDE8F081C6
:103DB000F8210108032201080C2201081122010840
:103DC000034BC1B21B681A6818461268104700BF3F
:103DD000642B002003F0F8BF07B50649D1F8F0279F
:103DE000D1F8EC37D1F8E8170091034900F0EAFA6E
:103DF00003B000BD00F0FF1F2C22010805F082B9BE
:103E000073B5144800F0CCFA134800F0C9FA002446
:103E1000E6B23046FFF7F0FC05463046FFF722FDDC
:103E200068B93046FFF718FDC3070DD46B690B481E
:103E300000936968D5E9032300F0B2FA04E0304644
:103E4000FFF710FD0128ECD00134E72CE0D102B0DF
:103E500070BD00BF352201084C220108682201080C
:103E600070B50B4900F0AEFA0024E0B2FFF7C4FCD5
:103E70000546E0B2FFF7F0FCC30704D4D5E9011210
:103E8000044800F08DFA0134E72CEED170BD00BF7C
:103E90007B2201089D220108F8B506460024E0B205
:103EA000FFF7AAFC4768E0B2FFF73EFC0134034687
:103EB0003A463046024900F085FAE72CEFD1F8BDCA
:103EC000A722010810B50446FFF79EFC2046BDE876
:103ED0001040014900F076BAB0220108431E0139B2
:103EE00013F8010F11F8012F10B10AB19042F7D069
:103EF000801A18BF01207047013911F8013F0BB932
:103F00000370704700F8013BF7E70023C25C0AB971
:103F1000184670470133F9E703461A7818461AB174
:103F20008A4203F10103F8D17047002970B51EDA07
:103F30002D23012400F8013B4942064691FBF2F390
:103F400002FB131130313170191E354606F101069E
:103F5000F4DC00220346201A30443270AB420BD20C
:103F60001A78297803F8011B05F80129F6E704D12E
:103F7000302341700370012070BD0024DDE730B5AF
:103F800003782D2B11D14FF0FF34013000210A2589
:103F9000431E01E005FB012113F8012F303AD0B296
:103FA0000928F7D904FB01F030BD0124EEE7000039
:103FB00010B5144C02780146A2F10A03DBB2162BAD
:103FC0001BD824FA03F3DA0700F10100F2D4084603
:103FD000FFF79BFF01380844814204460AD2037868
:103FE0000A3BDBB2162B05D8064A013822FA03F346
:103FF000DB07F1D40023637001E0002AE7D1084613
:1040000010BD00BF09004000002310B5934200D14D
:1040100010BD51F8234040F823400133F6E702B9C0
:104020007047013A40F8041BF9E72DE9F0411746C3
:1040300082800022013B0E4601608271082B0BD862
:10404000DFE803F0080E0C18150524261A000024DA
:10405000002513E0012383710224F9E70123837112
:1040600002240025394630460BF036F806E00124DC
:104070008471EDE70124EBE7022403253B46224649
:1040800029463046BDE8F0410AF0ECBF0024F4E7D1
:1040900001240325E6E770B50C1EACBF01234FF0E9
:1040A000FF335C430133064608BF2D234FF0640203
:1040B00008BF06F8013B611104F01F040546544394
:1040C00030460A22FFF731FF2E226411092C3254A8
:1040D000D8BF302206EB0003D8BF5A7021464FF0FC
:1040E0000A02CCBF581C981CFFF71FFF284670BD62
:1040F000F0B5027803462D2A13D14FF0FF3001337B
:1041000000250A2702E007FB052501331C78A4F1EE
:104110003002D6B2092EF6D9A4B98D4025446843A1
:10412000F0BD0120ECE78A4002EB660292FBF6F25A
:104130000CFB06F6144413F8012F303AD7B2092FBE
:10414000F1D9EAE70A260024B446F4E72DE9F8435A
:10415000141E0646894614DC2027DB071FD50025E0
:10416000C84626E0013219F802100029FAD1A2420D
:10417000ACBF0C46A41A13F0020F14BF302720273F
:10418000EBE70022EFE73368414630461B6898476B
:10419000013D002DF7DC24EAE475641BE0E72546C9
:1041A0005FFA87F8F5E7336830461B6808F10108C5
:1041B000984798F800100029F5D1A5EB090545446A
:1041C000A046FFB2B8F1000F05DC002CACBF2819E7
:1041D000281CBDE8F8833368394630461B68984789
:1041E00008F1FF38EEE72DE9F04385B08046DDE9C0
:1041F0000C691C460D4651B930233246ADF80030EB
:1042000069464B46FFF7A2FF05B0BDE8F08323B136
:104210000A2A2DD100292BDA4D4200238DF80D30CA
:104220000E9B0DF10D0C3A3BB5FBF2F002FB105169
:10423000CF18092988BF3946AA4201F130010CF193
:10424000FF370CF8011C15D954B1B6B119F0020FA3
:1042500013D0D8F800302D2140461B689847013E06
:104260004B46324639464046FFF770FF2044CBE7C5
:104270000024D2E70546BC46D6E72D23002407F8E4
:10428000013CACF10207EBE70846FFF799BD0000DF
:104290002DE9F04380460E46144600254FF00A09EA
:1042A0008DB0317819B928460DB0BDE8F0832529C5
:1042B0006DD171780029F6D0252906F1010065D06D
:1042C0002D290ABF01270027B01C0378302B14D0FA
:1042D000002203780646A3F130015FFA81FCBCF1AD
:1042E000090F0ED9662B3DD00FD8632B44D0642B19
:1042F0001CD0582B2ED00136D3E7013047F00207EF
:10430000E3E709FB02120130E3E7752B24D0782B99
:1043100019D0732BEFD1216820483B46002908BFF4
:10432000014604344046FFF711FF0AE06123CDE95E
:104330000173012300920A22216840460434FFF7EA
:1043400052FF0544D7E76123CDE9017300920023B2
:104350001022F1E74123F7E761230092CDE90173D1
:104360000023E8E7216808A805920434FFF793FECC
:104370003B46059A08A9D5E7236807A98DF81C30A4
:10438000002304348DF81D303B46CBE70646D8F8B1
:10439000003040461B6898470135ACE70A23010806
:1043A0000FB407B504AA52F8041B054B6846CDE9C3
:1043B0000032FFF76DFF03B05DF804EB04B0704707
:1043C000BC2901080EB403B503AA52F8041B0192DC
:1043D000FFF75EFF02B05DF804EB03B0704700002A
:1043E00008B529480AF00AFA27480AF00CFA2648C4
:1043F0000AF013FA24480AF00BFA012122480AF0C5
:10440000E8F921480AF0AEF91F480AF0C5F91E483C
:104410000AF0D5F91D4A08211B480AF003FA1A4888
:104420000AF043FA4FF4602117480AF0ABF9012172
:10443000174A18480AF0D0FC0121174A15480AF01B
:10444000D4FC4FF48072012112480AF07EFC4FF434
:10445000806201210F480AF06BFC602201210D48A7
:104460000AF0D3FC01210B480AF07CFC0121094829
:104470000AF081FC074801210AF09CFCBDE80840D5
:1044800001480AF008BA00BF00240140502D002066
:104490004C24014000000240902C0020884207DD9F
:1044A000914203DC01469142A8BF1146084670477D
:1044B0009042F8DD0146F9E737B56D46046804F12E
:1044C0003003F03433F8102C33F8201C33F8300C60
:1044D000FFF7E4FF3033A34225F8020BF2D1BDF819
:1044E0000230BDF800001844BDF804301844BDF88F
:1044F00006301844C0F38F0003B030BD08B50D4B33
:1045000098420BD003F5806398420BD0A3F500636B
:1045100098420BD1072909DCC8B208BD012905DC86
:104520000831F9E7052901DC0A31F5E70AF022F93B
:104530001020F2E7000C0140012370B593400C46B7
:1045400015460022064611469BB220460AF08AFD17
:1045500029462046FFF7D2FF3368034A9B1A034AD5
:10456000C3F34F03D05470BD902C0020502D002079
:104570000D4B0E4A991C13600D4A11600D4A191D0E
:1045800011600D4A991D11600C4A03F10801116078
:104590000B4A03F10A0111600A4A03F10C01116090
:1045A000094A0E3313607047902C00208C2C002099
:1045B000882C0020842C0020802C00207C2C0020C3
:1045C000782C0020742C0020702C0020114A124BF3
:1045D00030B553F8213052F821401946A342A8BF04
:1045E0002146026802F1C8058D4206DBA342B8BF2E
:1045F000234603F1C804A24202DD0160002030BD61
:104600008A4202DA01600120F9E79A42FBDD036089
:10461000F9E700BF902E0020882E0020012970B5F8
:1046200016D80C4B53F821400B4B53F82150AC4299
:104630000ED0001B0CF048F90646281B0CF044F97C
:10464000014630460CF048FA04490CF091F970BD6F
:104650000020FCE7902E0020882E00200000C84299
:10466000F8B5224B05461C68014620460CF03CFB81
:1046700000B12C461E4B21461E6830460CF016FB3E
:1046800000B126461B4D31462F68344638460CF0A3
:1046900017FB002198B130460CF026FB68B1164B91
:1046A000196838460CF05CF8314604460CF01CFBE7
:1046B00000B1344620462C60F8BD104BF0E7304680
:1046C0000CF008FB0028F5D1002138460CF00CFB5B
:1046D00048B10020094B19680CF040F831460446F7
:1046E0000CF0E4FAE4E73846F4E700BF742E00204B
:1046F0006C2E00203C2E0020602E0020642E002016
:10470000F8B5054685200E461746FFF713F83146E3
:10471000044628460CF0D4FAE0B94FF08041304608
:104720000CF01EF829460CF0DFFAA8B144F0100195
:10473000852089B2FFF71EF8124D3E6800213046F1
:104740000CF0C8FAA0B1294630460CF0AFFA28B1F7
:10475000344604E00C4DF0E70025EEE72C462846F1
:1047600009493C600CF0A2FA003818BF0120F8BDDE
:1047700005F10044214630460CF0B6FA0028EED090
:10478000E6E700BF000048420000C8422DE9F843B8
:10479000064628200D46FEF7D5FF304FDFF8C080D3
:1047A00038602920FEF7CEFFC8F800008520FEF70C
:1047B000C1FFD7F8009020F0030400214846A4B2BE
:1047C0000CF092FA28B3002130680CF083FA254FE0
:1047D00028B3494628460BF0C1FF23490CF0C8F81E
:1047E000002105460CF062FA00B100253D603768F3
:1047F000294638460CF078FA44F001039BB20028B1
:1048000018BF1C46294638460CF050FA00B13D4608
:1048100035602146BDE8F8438520FEF7ABBF28464A
:10482000D8F800100BF09AFF0F490CF0A1F8002106
:1048300005460CF059FA00B100253D60376829465D
:1048400038460CF033FA44F002039BB2002818BF3C
:104850001C46294638460CF047FAD7E75C2E002064
:10486000582E0020442E0020000060402DE9F8431F
:104870000C46364D3649064628680CF079F8214634
:104880000BF06EFF4FF076510CF072F828602A2082
:10489000FEF758FF2F4FDFF8C08038602B20FEF75F
:1048A00051FFC8F800008520FEF744FFD7F80090BC
:1048B00020F00C0400214846A4B20CF015FA18B3FD
:1048C000002130680CF006FA2D68244F10B32946F9
:1048D00048460BF043FF002105460CF0E7F900B114
:1048E00000253D603768294638460CF0FDF944F054
:1048F00008039BB2002818BF1C46294638460CF016
:10490000D5F900B13D4635602146BDE8F843852024
:10491000FEF730BF2846D8F800100BF021FF002129
:1049200005460CF0E1F900B100253D6037682946E5
:1049300038460CF0BBF944F004039BB2002818BFC2
:104940001C46294638460CF0CFF9DAE75C2D0020EA
:1049500000007041502E0020542E0020402E0020D8
:10496000104B70B51A68066801EB0214A41A2411E2
:104970000546002130461C600CF0B6F988B10A4BA0
:104980001868001B48BF0330801020EAE0700BF06D
:104990009BFF0446014630460CF0A6F900B12646BE
:1049A0002E6070BD582D00204C2E0020F8B50E4A08
:1049B000064614780D4F0134E4B2312C8ABF00232F
:1049C00023461C460A4D386855F8241013700BF026
:1049D000C5FE31460BF0C4FE0649386045F8246038
:1049E0000CF07AF8F8BD00BF602D00202C2E0020BE
:1049F000642D0020000048422DE9F74F8046A12099
:104A000092468946FEF796FE0446AA20FEF792FEDD
:104A1000074684EAE470A0EBE4700BF055FFDFF882
:104A2000F8B10446DBF8005029460BF097FE002150
:104A300001900CF03BF9019B08B103F10043774A68
:104A40001946166830460CF031F950B12946204617
:104A50000CF04AF9314600283CD028460BF080FE85
:104A60000446CBF80040002F00F0CE8020460CF02A
:104A70005BF90546BAF1000F30D0632840F3C480DB
:104A80000BF022FF664B80461E6831460CF00EF993
:104A9000002840F0B980634B40461F68624B39469E
:104AA0001C680CF003F988B130460CF03DF906465D
:104AB00020460CF039F9AD1B454338460CF034F96B
:104AC000801B95FBF0F00BF0FFFE0446204603B080
:104AD000BDE8F08F28460BF041FEC1E7494640464D
:104AE000FFF79CFD514B06461C68014620460CF022
:104AF000FBF8002876D1214630460BF02FFE2146E8
:104B000006464B480BF02AFE014649480BF0E4FFED
:104B100031460BF02DFF0446464B20461C60FFF744
:104B200045FF0146064620460BF018FE42498046E6
:104B30000CF0BCF830B94FF07E5140460CF0D4F880
:104B400000B93446632D4FDD28460BF0BDFE344BD3
:104B50008246D3F8008041460CF0A8F8002843D1E3
:104B6000304B5046D3F80090344B49461E680CF049
:104B70009DF898B140460CF0D7F8804630460CF0CE
:104B8000D3F8A5EB0805454348460CF0CDF8A0EB5B
:104B9000080095FBF0F00BF097FE0646284D012F1C
:104BA0002E6023D1274930460BF0E2FE0546254909
:104BB000254B18680BF0DCFE29460BF0CFFD214693
:104BC0000BF0D6FE1A490BF087FF29460BF0C8FD03
:104BD0000BF0BEFA0EA3D3E900230BF011FB0BF090
:104BE00069FD72E7002497E70026D7E72720FEF744
:104BF000A1FD08B900232B60124928680BF0B8FE0C
:104C000010490546114BD4E700245FE7AFF300805D
:104C10009A9999999999B93F382E0020482E0020E9
:104C2000802E0020842E0020782E0020682E002068
:104C30000000C842302E0020000080BF7C2E0020E3
:104C4000342E002000002041742E0020702E002001
:104C50002DE9F3411F4C06462C201F460D46904679
:104C60000194FEF76FFD01AA01464046FFF748FD9B
:104C70002D20FEF767FD01AA01463846FFF740FDEB
:104C8000314601A8FFF782FD294601A8FFF7EEFD96
:104C9000089901A8FFF764FE214601980BF01CFF5C
:104CA0004FF07E5104460CF01FF820B90021204639
:104CB0000BF0FCFF60B94FF07E5120460CF014F869
:104CC00020B14FF07E5002B0BDE8F0812046FAE7F7
:104CD0000020F8E70000C842F7B51E461F4B054606
:104CE0002C2001930C461746FEF72CFD01AA014625
:104CF0003846FFF705FD2D20FEF724FD01AA0146E9
:104D00003046FFF7FDFC294601A8FFF73FFD21468D
:104D100001A8FFF7ABFD089901A8FFF721FE019854
:104D20000F4900F100400BF0D7FE4FF07E510446D2
:104D30000BF0DAFF20B9002120460BF0B7FF58B97D
:104D40004FF07E5120460BF0CFFF18B14FF07E5050
:104D500003B0F0BD2046FBE70020F9E70000C8C221
:104D60000000C842024B00BF013BFCD1704700BFAE
:104D700000127A0010B50446002240F2215102F0E0
:104D800028FA002240F22251204602F022FA0022A4
:104D900040F22351204602F01CFA002240F2245136
:104DA000204602F016FA002240F22551204602F079
:104DB00010FA002240F22651204602F00AFA0022A0
:104DC00040F22751204602F004FA2046BDE8104088
:104DD00000224FF4A56102F0FCB90000002313B5D6
:104DE000054A40F21141CDE9002303686A465C6838
:104DF0000823A04702B010BD340001003222002376
:104E000013B5CDE9002303686A465C6840F211419E
:104E10000823A04702B010BD002313B5054A40F295
:104E20001141CDE9002303686A465C680823A04766
:104E300002B010BD340101002DE9F7430026174BE5
:104E400005461E702024FFF7C9FF4FF04209FFF707
:104E500089FF4FF4C8482B6801966A4640F2114119
:104E600028465F688DF8004008238DF80190ADF862
:104E700002800134B847E4B22846FFF773FFFFF71A
:104E8000BDFFFFF76FFF292CE5D12846FFF7C4FFD0
:104E9000FFF768FF03B0BDE8F08300BF081D0020E6
:104EA000D0F80220014B1A60704700BFB42E0020DA
:104EB000D0F80220014B1A60704700BFA42E0020DA
:104EC000D0F80220014B1A60704700BFA02E0020CE
:104ED000D0F80220014B1A60704700BF9C2E0020C2
:104EE000054A1388013313800A22D0F8023093FB5D
:104EF000F2F3024A13607047B82E0020982E00206B
:104F0000D0F80220014B1A60704700BFAC2E002081
:104F1000D0F80220014B1A60704700BFB02E00206D
:104F2000D0F80220014B1A60704700BFA82E002065
:104F30006FF4A463C3180846072B15D8DFE803F005
:104F40000406080A0C0E1012FFF7AABFFFF7B0BF45
:104F5000FFF7B6BFFFF7BCBFFFF7C2BFFFF7D0BF79
:104F6000FFF7D6BFFFF7DCBF7047016170474161B3
:104F70007047007A7047007A70470023C372704709
:104F800010B504460022616008464FF4987102F0A3
:104F900020F900224FF43F71606802F01AF90022F4
:104FA0004FF49061606802F014F960680022BDE877
:104FB00010404FF4D07102F00CB900002DE9F0411F
:104FC0000025BCB08846F02268460F490BF038FF38
:104FD0006C4614262F4620680BF076FC41460BF0F9
:104FE0006FFE08B1D4E90175013E04F10C04F2D161
:104FF00039467420FEF7BEFB294675203CB0BDE85B
:10500000F041FEF7B7BB00BF082A010810B40468DE
:105010006468A44610BC6047037E73B50446002B49
:1050200050D0AA20FEF786FB324B00284CD103213A
:10503000314A20731170E1221A701B782F4D8DF8C0
:1050400000300C238DF801308F238DF802302B783F
:1050500060688DF80330F0238DF8043003686A46E9
:105060004FF4E9715E680523B0472B783B2010337D
:10507000DBB2ED2B08BF0D232B70FEF75BFB204B43
:10508000C0B21A78824215D04FF40952ADF8002010
:1050900000228DF802204FF0FF32019230BB302207
:1050A0008DF8032018706A46082340F29251606818
:1050B000FFF7ACFF236895201D6AFEF743FB01460E
:1050C0002046A84702B070BD421C06D10122022131
:1050D0002273094A1170D222AEE70128ADD1032212
:1050E00008212273044A11707822A5E70828D9D133
:1050F0003122D5E70E1D00200D1D0020C02E0020FE
:10510000BA2E00200B7803F0010343720B78C3F32F
:10511000800303720B78C3F3001383728B78C3F39D
:10512000C00343767047000008B54B7808781B022F
:1051300003F4706318440AF0F9FF09A3D3E90023CC
:105140000BF05EF80BF0B6FA07490BF011FCBDE866
:1051500008400146A220FEF71BBB00BFAFF3008052
:105160009A9999999999B93F2B121F3F0B78842BE3
:1051700003D10121E520FEF7FDBA812B01D10021E9
:10518000F8E770474B78323B18BF0123037670472E
:105190000B46B3F53F7F11460FD006DCB3F5987F81
:1051A00007D0B3F5D07F06D07047B3F5906F06D027
:1051B0007047FFF7A7BFFFF7B7BFFFF7D7BFFFF7EE
:1051C000E1BF000003682DE9F74F5B6B05460E4613
:1051D0009847634C002800F0BD80A120FEF7AAFA92
:1051E00040F2ED23984240F3B280A120FEF7A2FAEC
:1051F000800080B207229421237843F050030027D7
:105200008DF802200A44AA3202EB10228DF80130F8
:10521000ADF804001344C0B2034403EB23236A46F1
:1052200068688DF806108DF80030AA2108238DF8E3
:1052300007708DF80370FFF7E9FEBE420CBF042231
:105240006422DFF820A14FF00F0B9AF80010DFF86E
:10525000189101F5FC73134403EB13238DF8003010
:105260004EF22103ADF8023041F6217368688DF8E3
:105270000110ADF80430A82108238DF807206A46F4
:10528000DFF8E8808DF806B0FFF7C0FE99F800302F
:105290006A468DF8003098F80030A9218DF8013069
:1052A0004DF67973ADF80230314B686801930823ED
:1052B000FFF7ACFE2F4E304B3278197868688B18A8
:1052C0008DF80010FF2103F5E47303EB13238DF831
:1052D00001108DF80530BA2107238DF806206A46A3
:1052E000ADF802B08DF80470FFF790FE23782349E3
:1052F000013323700B78224A01330B709AF8003087
:10530000307801338AF8003099F8003001300133E9
:1053100089F8003098F800303070013388F8003098
:1053200013780133DBB25C2B13700DD1BE230B70ED
:10533000E92389F800304D231370802327708AF801
:10534000007088F80070337003B0BDE8F08F40F64D
:10535000B8304FE72378FE22842143F030034EE734
:10536000BB2E0020BD2E00200B1D0020BC2E0020D7
:105370001DC7E021091D00200D1D00200C1D00206F
:105380000A1D0020037E10B5044643B1B620FEF787
:10539000E7F901462046BDE81040FFF713BF10BDF6
:1053A00073B506468020FEF7C5F9012815BF002316
:1053B0009C231A469E224FF08F0014BF1D46602585
:1053C0008DF804308DF80520FEF7BCF90146214820
:1053D0000BF0C4F9204904460BF086FC002835D1B7
:1053E00020460BF0A1FC642358434FF4FA7390FB62
:1053F000F3F032300BF068FA18490BF0B1F93C23A6
:10540000174C8DF800300BF0B5FC23786A461D432D
:10541000C3238DF8033048F2CD234FF4E8718DF8A3
:105420000100ADF80630706808238DF80250FFF7D0
:10543000EDFD0C4A217813788B4209D10133DBB2A0
:105440000F2B08BF0023237002B070BD0648D6E7BB
:105450001170F9E70000C8420040034400004042D8
:10546000BF2E0020BE2E002000001643037E73B521
:105470000446A3B148F261230093C37A63B90325BC
:1054800060686A46036840F232315E680223B047C2
:10549000013DF5D10123E3722046FFF781FF02B001
:1054A00070BD0161704741617047007A7047007AB2
:1054B00070470023C372704710B504460022616034
:1054C00008464FF4987101F084FE00224FF43F71BA
:1054D000606801F07EFE00224FF49061606801F088
:1054E00078FE00224FF4D071606801F072FE6068AF
:1054F0000022BDE8104040F2FE3101F06ABE00001B
:105500002DE9F84F00250F462C46284E28460BF073
:10551000DBF9A04639460134814656F8345006EB93
:10552000C40B0BF0CDFB00283CD028460BF0CCF987
:10553000394682460BF0CEFB002833D006EBC80874
:10554000D8F804000BF0C0F90446DBF804000BF0B7
:10555000BBF921460BF002F94946054638460BF0E7
:10556000FDF84946064650460BF0F8F8014630462D
:105570000BF0B2FA014628460BF0FAF921460BF07F
:10558000EFF84FF07C510BF0EBF80BF0CDFB04463D
:1055900021467420FEF7EEF82146BDE8F84F75204D
:1055A000FEF7E8B8072CB1D1FF24F1E7402B010842
:1055B000037E37B504462BB33B20FEF7BBF8144BF4
:1055C000C0B21A78824215D04FF40952ADF80020CB
:1055D00000228DF802204FF0FF320192A0B9302254
:1055E0008DF8032018706A46082340F292516068D3
:1055F000FFF70CFD236895201D6AFEF7A3F801460E
:105600002046A84703B030BD0828EBD13122E7E798
:10561000C82E00200B7803F0010343720B78C3F30C
:10562000800303720B78C3F3001383728B78C3F388
:10563000C00343767047000008B54B7808781B021A
:1056400003F4706318440AF071FD07A3D3E9002343
:105650000AF0D6FD0BF02EF8BDE808400146A22066
:10566000FEF796B8AFF300809A9999999999B93F46
:1056700010B50B780C46842B0BD10121E520FEF7E9
:1056800079F86178E620BDE8104001F00101FEF7ED
:1056900071B8812BF5D10021F0E74B78323B18BF70
:1056A00001230376704708B5B1F900000BF00CF93F
:1056B0004FF074510BF05CF9BDE808400146A4209E
:1056C000FEF766B80978BC208B1E59425941FEF797
:1056D00051B80B46B3F53F7F114615D008DCB3F542
:1056E000987F0DD0B3F5D07F0CD0B62B10D070477B
:1056F00040F2FE3293420DD0B3F5906F06D0704762
:10570000FFF788BFFFF798BFFFF7B2BFFFF7C5BF2E
:10571000FFF7C9BFFFF7D6BF03682DE9F74F5B6BF3
:105720000646884698475C4D002800F0B080A120CE
:10573000FEF700F840F2ED23984240F3A580A12047
:10574000FDF7F8FF8400A4B22B7843F05003002744
:10575000A9208DF801308DF80770FDF7F3FF4F4950
:1057600083460BF0B9F90BF005FB0021C0F30729C4
:10577000ADF802005FFA80FA5846ADF804400BF02D
:10578000B3FAB84214BF942280229DF807109DF806
:10579000013070680B44AA3303EB1423E4B21C44B9
:1057A000A144D14402EB090303EB2323AA218DF882
:1057B00006208DF800306A460823FFF727FCA32057
:1057C000FDF7C0FF4FF084410BF0D2F80BF0ACFABC
:1057D00000B242BAADF802201F22B8450CBF042423
:1057E00064248DF805200F22C0F307238DF80100F3
:1057F000C0B28DF804308DF807400344D63404EB72
:105800004304A821082370688DF8062004EB2424A3
:105810006A468DF80040FFF7F9FBA320FDF792FFE1
:105820004FF084410BF0A4F80BF07EFAC0F307238D
:105830008DF80100C0B28DF802300344184A03F21B
:10584000712303EB2323A921706801928DF80030A6
:105850006A4608238DF80370FFF7D8FB2B781149AF
:105860000133114A2B700B7810780133DBB2013011
:105870005C2B0B70107004D14D230B7080232F70A4
:10588000137003B0BDE8F08F40F6B8345CE72B78B6
:10589000044643F030035AE7C92E00200AD7233DBF
:1058A00000C7E021101D00200F1D0020037E10B551
:1058B000044643B1B620FDF753FF01462046BDE83C
:1058C0001040FFF729BF10BD2DE9F3470746AB2075
:1058D000FDF738FF0446AC20FDF734FF4D4905467F
:1058E00020460AF03DFF002104460BF0DFF90028B6
:1058F0007ED1204648490BF0F7F900287AD120469E
:105900000BF038FA0646434928460AF029FF0021E1
:1059100004460BF0CBF900286ED120463E490BF02F
:10592000E3F900286AD120460BF024FA05468020CE
:10593000FDF700FF01284FF00004DFF8E08061D19F
:105940003D20FDF7FFFE36490BF0C6F881468B205F
:10595000FDF7F8FE214682460BF0A8F900284FD04B
:1059600030490AF100400BF003F849460BF0B4F857
:105970002D490AF0FDFFD8F800100AF0F1FE4FF0B3
:105980008F4104460BF0A6F928B120464FF08F4115
:105990000AF0E4FE04462046C8F800400BF0EAF99D
:1059A0006023ADF80400214C4FF4E8712278786848
:1059B00013438DF80230C3238DF8033049F2CD63D1
:1059C0006A46ADF8063008238DF800608DF8015066
:1059D000FFF71CFB164A217813788B4218D101334C
:1059E000DBB20F2B08BF0023237002B0BDE8F087A5
:1059F000002688E7CF2686E7002598E7CF2596E79B
:105A00002046B2E70023C8F80040ADF80430CAE7EA
:105A10001170EAE70000404200004F43C42E00200E
:105A200000007C425304E93700247449CB2E002047
:105A3000CA2E0020037E73B50446A3B148F2612349
:105A40000093C37A63B9032560686A46036840F22D
:105A500032315E680223B047013DF5D10123E37284
:105A60002046FFF731FF02B070BD4069704708B5AE
:105A7000B0F908000AF028FF08BD08B5B0F90C001D
:105A80000AF022FF08BD0000014B1878704700BFE4
:105A90005D2F00200000000038B51D48FEF70CFD0A
:105AA00005461C48FEF708FD044628460AF03EFB62
:105AB00013A3D3E900230AF0A3FB13A3D3E9002324
:105AC0000AF0E8F90AF0F6FD054620460AF02EFB3A
:105AD0000BA3D3E900230AF093FB0BA3D3E9002324
:105AE0000AF0D8F90AF0E6FD0446014628460BF014
:105AF000FBF808B1284638BD2046FCE7AFF300802C
:105B00001213371BE91495BF988F7B2556484C40DC
:105B1000782C0020742C002038B505460C461A4815
:105B2000072109F0D7F80721184A174809F054F956
:105B30002A460721144809F058F9A2B20721124851
:105B400009F063F90721104809F02BF907210E48E5
:105B500009F008F9002207210B4809F0F6F80022A5
:105B60000721094809F0E4F84FF48052072106485C
:105B700009F0D1F80448072109F01CF9BDE83840C4
:105B8000034809F041BF00BF000002400444004048
:105B90000044004010B504460621194809F09AF85F
:105BA0000621184A164809F017F90621164A144822
:105BB00009F01BF9A2B20621114809F026F90621C5
:105BC0000F4809F0E5F806210D4809F0CBF800224E
:105BD00006210B4809F0B9F800220621084809F00F
:105BE000A7F800220621064809F095F80448062186
:105BF00009F0E0F8BDE81040044809F000BF00BF1C
:105C00000000024004440040CC2E0020004400402C
:105C100038B504463420FDF78DFD00B20228E0813E
:105C20001FD1344D344B2878002832D141F65832F8
:105C3000B4F90C10914201DD01221A7019782F4A33
:105C4000884248D0012313702D4B93F900002D4B4F
:105C500010B91878013018701878042822D108B2C9
:105C6000E081012808D12848FBF742FE2748FBF7CE
:105C70003FFE2748FBF73CFEB4F90E30C3B922487B
:105C8000FBF736FE2148FBF72FFE2148FBF72CFEE1
:105C90000EE00128D2D1B4F90C20B2F5FA6FCDDABA
:105CA0000022CAE7052803D129700021197011705C
:105CB000B4F90E30032B0DD1AA20FDF73BFD0130C6
:105CC00011480DD1FBF714FE1048FBF70DFE1048EC
:105CD000FBF70AFE38BD002300B2E0811370C0E775
:105CE000FBF706FE0948FBF703FE0948FBF700FE39
:105CF000F0E700BF5A2F0020592F00205C2F002012
:105D00005B2F0020582F0020D82B0020E82B0020EC
:105D1000E02B0020000000002DE9F74F064612207E
:105D20008846FDF707FD8E4BC4B21B78012B40F06F
:105D3000B4803046FFF76CFF40468A490AF018FEEF
:105D400089490AF0C9FE0AF0EFFF884D884F95F99E
:105D500000A0388050460AF0B7FD41460AF008FE20
:105D60000AF0F6F97CA3D3E900230AF049FA0AF015
:105D7000A1FC804981460AF0FBFD7B490AF0ACFE9C
:105D80000AF0D2FFDFF8F0B1DFF8F0819BF80020D5
:105D90003062A8F80000002A00F0D880BAF1000FA5
:105DA0002EDD2420FDF7CEFC019095F900000AF0CD
:105DB0008BFD7349824601980AF0DAFD0146504690
:105DC0000AF0CCFC0AF0B0FF40B200283DDB6328AB
:105DD000287015DC9BF8003093B92420FDF7B2FC45
:105DE000824695F900000AF06FFD51460AF0B8FCB2
:105DF0000AF09AFF40B26428CABF642328702B704F
:105E0000B6F90E3023BB002148460AF04FFFF8B127
:105E1000B8F900000AF08AF900225A4B0AF0F0F9AA
:105E20000AF000FCA8F80000B7F900000AF07EF9BB
:105E30000022544B0AF0E4F90AF0F4FB3880032CFA
:105E400014D8DFE804F00B100E1B00222A70C1E703
:105E5000032C0BD8DFE804F00207050D336A002B92
:105E600004DA434B00E0454B00221A8003B0BDE842
:105E7000F08F484644490AF037FF10B900233B80B1
:105E8000F4E748460AF050FF41F2171332385843FE
:105E9000322390FBF3F03880E8E7022B1ED135491E
:105EA00040460AF065FD30490AF016FE0AF03CFF54
:105EB000324A03B2138013EB83032D4948BF0333E7
:105EC0009B1030620B800CB9A042C9E7012C02D1B3
:105ED00000231380CAE7022CC8D1C2E7032BC5D127
:105EE000244940460AF044FD1F490AF0F5FD0AF036
:105EF0001BFF224A03B2138013EB83031C4D48BFE0
:105F000003339B1030622B80032CAFD801A353F8CE
:105F100024F000BF255F0008675E0008635E00088C
:105F2000295F000800289BE7404617490AF0DCFE7D
:105F300008B928809AE740460AF0F6FE41F21713A6
:105F400032385843322390FBF3F0F2E7BAF1630F93
:105F50003FF756AF41E700BF7B14AE47E17A843F7D
:105F6000672F002000B888450000C8425B2F002042
:105F7000602F002000C05A455C2F00205E2F0020BB
:105F80000000A0400000E03F0000484210B5802023
:105F9000FDF7D0FB08B902F087FF8020FDF7CAFBB0
:105FA000012841D12148FBF785FC0146BD20FDF7C2
:105FB000E1FB1F48FBF77EFC0146BE20FDF7DAFB44
:105FC0001C48FBF777FC0146BF20FDF7D3FB1948BF
:105FD000FBF770FC04461648FBF76CFC84F00103E9
:105FE00080F001046400114844EA8304FBF762FC7A
:105FF00080F0010044EA00035BB20F4C062B2370D3
:1060000003D10021C220FDF7B5FB2378052B03D176
:106010000121C220FDF7AEFB3520FDF78BFBBDE86B
:10602000104080B202F040BF10BD00BFD02B002056
:10603000C82B0020C02B0020622F0020034B1B78B0
:10604000012B01D1FFF7A2BF704700BF672F0020CF
:1060500000220B4870B5134605468C1E944209DC9D
:10606000294411F8012C285D40EA0220C31A584245
:10607000584170BD10F8016B013233449BB2EDE71B
:10608000CC2E0020002070B5084C034622468D1E01
:10609000854205DC53550A441B0A02F8013C70BDD9
:1060A00014F8016B01303344F2E700BF43220020B3
:1060B000F8B5B94D04462B780E2B3ED8DFE813F027
:1060C0000F0016003B003E007600B800BA00D90071
:1060D000DB000701600186019F01A101CA01642064
:1060E000FFF758FDAD48FBF703FC1EE0AC4CAB4896
:1060F000FBF7FAFB23787BB902220721A94808F0B5
:1061000000FE90B107210222A64808F0F4FD5021BC
:10611000A548FFF701FD08E05021A448FFF7FCFC6B
:10612000A34B5B7823B9012323702B78013303E061
:106130002378013BF8E703232B70F8BD6421FFF7B8
:1061400087FF9B4E9B4F38B9014638706081A08114
:10615000B220FDF70FFB23E002220621914808F050
:10616000D0FD0028F0D0022206218E4808F0C3FDA1
:1061700001233B70B6F85230053B03EBD3735B1041
:10618000238196F92A000AF09FFB606196F9560078
:106190000AF09AFBF388A0616381B6F81F30A381EF
:1061A000002386F8623086F86330BEE7824EA32073
:1061B000B6F90010FDF7DEFA6189A2897A4B0A442C
:1061C000712112B292FBF1F27C491A70B1F90020F0
:1061D0000978880083F84B009011524212129A718C
:1061E0001A73B6F9002049425971D9729A76110A88
:1061F00083F82020782283F83F20EC2283F8402087
:106200006C2283F841206B2283F84C00D97683F806
:1062100021102046502183F84220FFF733FF684ABF
:106220001388642B8CBF002301331380002383E782
:10623000782055E75A4C5948FBF756FB2378052B35
:106240000ED902220721574808F05BFD00283FF4D1
:106250006CAF07210222534808F04DFD642157E737
:106260006421584801FB0300FFF756FC23780133F3
:106270005AE7082360E77821FFF7EAFE4C4E4D4FBE
:1062800000283FF461AF02220621464808F039FD9C
:1062900000283FF459AF02220621424808F02BFDA6
:1062A00001233B70B6F86430053B03EBD3735B10FE
:1062B000238196F914000AF007FB6061B6F85600D6
:1062C0000AF002FBF388A0616381F38C67E73A4E22
:1062D000A320B6F90010FDF74DFA384B206AB3F948
:1062E0000020314B11125A71DA72B6F900209971FF
:1062F000197300284FEA12219A77D97736DD9A76FA
:1063000002EBD27252101A77120AD9765A77752197
:1063100083F84A10122183F84B106021402283F841
:106320004C10252183F84820042283F84D10522177
:1063300083F8492083F84F20892283F84E102249A0
:1063400083F8562083F858200A78204601320A70D4
:10635000D20748BF93F85E204FF0640144BF01327A
:1063600083F85E20FFF78EFE0523E5E6CFD01A778F
:1063700002EBD27252109A76120A5977DA76C6E791
:106380008020FDF7D7F901281CBF0022044B4FF0F5
:106390008C0018BF1A70A3E6662F0020B82B0020CF
:1063A000AC2200200000024043220020852C01087E
:1063B000CC2E00205D2F00205E2F0020602F0020BB
:1063C000642F0020871F0020632F0020384C39489D
:1063D000FBF78AFA2378062B0ED9022207213648CA
:1063E00008F08FFC00283FF4A0AE072102223248BB
:1063F00008F081FC69218BE66921304832E70D23E2
:106400009AE68C21FFF724FE2D4E08B302220621C6
:10641000294808F076FCD8B102220621264808F067
:106420006AFC01233370274EB6F875305B10238168
:1064300096F914000AF048FA6061B6F819000AF0FB
:1064400043FA7389A0616381B6F82B30A3816CE6AF
:1064500030706AE61C4EA320B6F90010FDF78AF9E9
:106460001A4B2046B3F90020194B524211125A71AF
:10647000DA72B6F900209971DA77121283F82020C7
:106480009A7E197383F82520DA7E692183F8262005
:10649000782283F84F20EC2283F85020102283F8D2
:1064A0005120272283F85220FFF7ECFD0A2343E610
:1064B000AC220020B82B002000000240111D00205B
:1064C0005D2F0020CC2E00205E2F0020602F0020AA
:1064D0004322002038B5037F04468B420D460AD084
:1064E00051B16020FDF726F908B9FCF7C9FEFCF7A9
:1064F000FDFE0123237738BD4FF0804009F0C4F83A
:106500002577F8E708B50121FFF7E4FF0B4B1A7870
:10651000042A04D805221A700022094B1A7000239D
:106520000849094A11F8010B0133642B02F8010BE9
:10653000F8D10222054B1A7008BD00BF662F00205B
:10654000AC220020B82B010843220020672F002036
:1065500008B50121FFF7BEFF064B1A78042A04D9BB
:1065600000221A700122044B1A700122034B1A7088
:1065700008BD00BF662F0020AC220020672F00203E
:10658000012108B5FFF7A6FF0A4B0B491A78092A23
:106590009CBF0A221A700022084B1A706923084A0D
:1065A00011F8010B013B02F8010BF9D10322054B55
:1065B0001A7008BD662F00201C2C0108AC22002098
:1065C00043220020672F00200021FFF783BF0181B5
:1065D0007047000008B508460AF0A6FBA622A0F105
:1065E0000F035343412293FBF2F3024A58331380C3
:1065F00008BD00BF682F0020B520FDF7B1B810B569
:10660000044600226160084640F2531100F0E1FDAB
:1066100060680022BDE8104040F2F31100F0D9BDDF
:1066200040F25313994210B5044610D1B2F801005C
:10663000A0F5B0700AF048F94FF076510AF098F9D9
:106640000146A220FDF7A4F80123E37203E040F223
:10665000F3139942F8D010BD10B50446C07A10B9B2
:106660000348FBF727F900232073E37210BD00BF36
:10667000782B002008B50248FBF71CF908BD00BFC5
:10668000782B002007B540F2EE22038940F2163144
:10669000934238BF13460522ADF8002041F6583228
:1066A000934228BF13460A229B01B3FBF2F3ADF8D5
:1066B000023000236A46019340680823FEF7A6FCD7
:1066C00003B000BD13B5154A0024137814498DF8A2
:1066D0000030144B01941B888DF80130C523ADF8B0
:1066E00002300B780133DBB2152B0CD80B7063B979
:1066F0001123137008236A4640F229314068FEF7DF
:1067000085FC02B010BD0C70F2E7082B01D1862386
:10671000EFE70F2BEED1D923EBE700BF6C2F002062
:106720006D2F0020682F0020462313B5ADF80430EC
:10673000002340688DF80630036840F23B415C68F6
:1067400001AA0323A04702B010BD000007B50C4A00
:1067500040F24551138840680133138000228DF8C0
:1067600001301B0A8DF80230064B8DF800208DF8A1
:10677000032001936A460823FEF748FC03B000BDDE
:106780006A2F00207E10001807B5C9B1012919D061
:1067900001310CBF072308238DF801304FF6FF733A
:1067A0008122ADF80230084B8DF8002001936A4633
:1067B000082340F23F414068FEF728FC03B000BDCB
:1067C0000623E9E70523E7E70080FFFF037B10B519
:1067D0000446BBB1FFF756FF2046FFF773FF204684
:1067E000FFF7B4FF2046FFF79FFF0320FCF7B8FF39
:1067F00040B1AA20FCF79EFF41B22046BDE8104000
:10680000FFF7C2BF10BD018170477047B520FCF78C
:10681000A7BF000008B5084B186899889B792BB171
:1068200008F05FFCB0FA80F0400908BD08F059FCA0
:10683000003818BF0120F8E7782B002030B51F4A38
:106840001F4B89B0CDE901231E491F4B1F4CCDE9D9
:1068500003131F4B1F4D05930023ADF81930237808
:106860004FF4B06163F07F038DF818302B684068F7
:1068700020336B4413F81C2C8DF81B2013F8182CB4
:106880008DF81C2013F8142C8DF81D2013F8102CF3
:1068900013F80C3C8DF81E208DF81F3006AA082333
:1068A000FEF7B4FB2B68013303F003032B6023785E
:1068B000013303F00F03237009B030BD0F287F2888
:1068C0001E1000107056F0560C48A7486E2F00207E
:1068D00046902890702F002037B540F2EE220389B1
:1068E0000025934238BF134641F65832934228BFE1
:1068F0001346044603819A009B09CDE900554FF4E5
:1069000020718DF803308DF8042008236A46406812
:10691000FEF77CFB08236A464FF4227160688DF80D
:1069200003508DF80450FEF771FB03B030BD00003A
:1069300008B5034BB3F9000009F0C6FF08BD00BF5E
:10694000802F002008B5034BB3F9000009F0BCFF0D
:1069500008BD00BF822F002008B5024B188809F03F
:10696000AFFF08BD862F002008B5034BB3F9000028
:1069700009F0AAFF08BD00BF842F0020064B1A783B
:10698000064B0AB91A7001E0012AFBD0044A1268CA
:1069900002B91A70187870477C2F00207D2F0020D4
:1069A000782F002010B504460022616008464FF49D
:1069B000C87100F00EFC00224FF4CD71606800F049
:1069C00008FC00224FF4D271606800F002FC60689D
:1069D0000022BDE810404FF4D77100F0FABB000070
:1069E0002DE9F34106460846354909F0C1FF0AF092
:1069F0009BF9344B01B2A3201980FCF7BBFE802029
:106A0000FCF798FE0546B720FCF7AAFE00284DD0FB
:106A10006B1E5C425C41E400B820FCF7A1FE28B18B
:106A200004F11003DBB2012D08BF1C46B620FCF7B1
:106A300097FE012D04EB80043AD1234A138813B149
:106A4000013B13800234A520FCF774FEC0F30B0554
:106A5000A620FCF76FFE8046DE20FCF76BFE00F000
:106A60000307B220FCF766FE184B45EA046503EA0B
:106A700008331D43C0F30D0040EA873045EA8775AF
:106A80000190009508F004F90221684608F00EF91B
:106A9000019B6A4643EA00637068019303683F21E3
:106AA0005C680823A04702B0BDE8F0810446B3E764
:106AB000002DC8D14FF49672034B1A80C3E700BF74
:106AC000000020417E2F0020742F002000F0FF00E6
:106AD000B1F5D27F06D113880A22B3FBF2F30E4A36
