:020000040800F2
:1010000000500020B1F90008ADF90008ABF9000864
:10101000ABF90008ABF90008ABF9000800000000CC
:10102000000000000000000000000000ADF9000812
:10103000ADF9000800000000ADF90008ADF90008A6
:10104000ABF90008ABF90008ABF900084528000827
:10105000ABF90008ABF90008ABF90008ABF90008E0
:10106000ABF90008ABF90008ABF90008ABF90008D0
:10107000ABF90008ABF90008ABF90008ABF90008C0
:10108000ABF90008ABF90008ABF9000801830008D0
:10109000E1820008F1820008ABF90008ABF9000812
:1010A000ABF90008ABF90008ABF90008ABF9000890
:1010B000ABF90008ABF90008F5270008ABF9000808
:1010C000ABF90008ABF90008ABF90008ABF9000870
:1010D000ABF90008ABF90008ABF90008ABF9000860
:1010E00001280008ABF90008ABF90008ABF90008CB
:1010F000ABF90008ABF90008ABF90008ABF9000840
:10110000ABF90008ABF90008ABF90008ABF900082F
:10111000ABF90008ABF90008ABF90008ABF900081F
:10112000ABF90008ABF90008ABF90008ABF900080F
:10113000ABF90008ABF90008ABF900082D830008F3
:101140000D8300081D830008ABF90008ABF9000807
:1011500010B404466468084611461A46234610BC7B
:101160001847836818477047704770477047704743
:1011700041607047704770477047704770477047CD
:1011800070470020704700207047000000487047FB
:101190000000484200207047416070477047704728
:1011A0007047704770470020704741607047704734
:1011B0007047704770477047002070477047416024
:1011C00070470020704770477047704770477047FE
:1011D000002070477047416070477047002070479B
:1011E00070474160704770470846704770477047C6
:1011F0007047704700487047003C1C46416070478C
:10120000704770477047704770474160704770473C
:101210000020704700207047002070470020704772
:101220000020704770477047104B10B5186803686E
:101230001B6898470E4B186803681B6898470D4B4E
:10124000186803681B6898470B4B186803681B688D
:1012500098470A4B186803681B689847BDE8104018
:10126000074B186803689B68184700BF20000020E0
:101270001C00002014000020100000200C000020A2
:101280000400002010B5174C206803689B6998473C
:10129000052002F059FA062818D8DFE800F0040A01
:1012A0000C0E1012200000220F4B1A700F4B2360FF
:1012B0000CE00F4BFBE70F4BF9E70F4BF7E70F4B3A
:1012C000F5E701220E4B23600E4B1A700E4C20687E
:1012D00005F0C8FF6068BDE8104005F0C3BF0B4BC8
:1012E000E5E700BF140000204E2A0020302900202E
:1012F00028290020202900205029002048290020EA
:1013000008290020242A0020402A0020402900200B
:1013100010B5114C20680368DB699847042002F07F
:1013200013FA042806D8DFE800F003100E121400A8
:101330000A4B23600A4C206805F094FF6068BDE802
:10134000104005F08FBF074BF3E7074BF1E7074B62
:10135000EFE7074BEDE700BF100000203829002021
:10136000402A002000290020F8280020F028002032
:10137000E828002010B5124C206803685B68984785
:10138000062002F0E1F90138052815D8DFE800F061
:10139000160E0E0310120B4B23600B4C206805F049
:1013A00061FF6068BDE8104005F05CBF074BF3E7E4
:1013B000074BF1E7074BEFE7074BEDE7074BEBE791
:1013C000080000200C270020402A0020DC260020F6
:1013D000A0260020542600203427002014270020B7
:1013E00010B50B4C206803685B689847492002F0F1
:1013F000ABF9084A084B012808BF13462360074C85
:10140000206805F02FFF6068BDE8104005F02ABF96
:10141000040000203C2600204C260020402A00200A
:10142000022010B502F090F90138032815D8DFE842
:1014300000F0020E10120A4B0A4C0B4A206813608F
:1014400005F010FF6068BDE8104005F00BBF074BCA
:10145000F2E7074BF0E7074BEEE7074BECE700BF7F
:1014600084270020402A00200C0000206C27002048
:1014700060270020782700203026002010B50120AA
:1014800002F062F909280FD8DFE800F0171C2B0ED4
:1014900005091F222528144B144A1A6004E0124A39
:1014A000134B136000229A72124C206805F0DAFE8A
:1014B0006068BDE8104005F0D5BE0B4A0C4B1360C8
:1014C0000122F0E7084B0C4AE7E7074B0B4AE4E739
:1014D000054B0B4AE1E7044B0A4ADEE7024B0A4A96
:1014E000DBE7014B094AD8E71C0000204827002011
:1014F000B8290020402A0020E4290020AC2900203F
:1015000094290020002A0020C82900203C27002020
:10151000036810B59B6898470FF0C0FB0024014694
:101520009A2002F031F92146952002F03BF921463C
:10153000962002F037F92146982002F033F921462F
:10154000BDE81040992002F02DB9000010B51C4CE8
:10155000206803689B6A9847002002F0F5F8092884
:101560000FD8DFE800F005080A0E271C2117292BE9
:10157000144B236005E0144BFBE71448206005F092
:1015800013F8134C206805F06DFE6068BDE810404C
:1015900005F068BE0D48206005F01EF8F1E70B4825
:1015A000206004F0DBFFECE70A4B012223600A4BCA
:1015B0001A70E6E7094BDCE7094BF6E7094BD8E779
:1015C00020000020D8280020582900207029002061
:1015D000402A0020B8280020242A0020E0280020EB
:1015E00010260020E025002010B5144C2068036868
:1015F0001B699847512002F0A7F8032805D8DFE8B7
:1016000000F0020D0F160E4B23600E4C206805F003
:1016100029FE6068BDE8104005F024BE0A4BF3E7E0
:101620000A4B0B48196820600BF028F9EDE70122FE
:10163000084B2360084B1A70E7E700BF1800002032
:10164000B0280020402A0020A4280020DC2500200B
:101650005027002098280020242A0020B42002F0DF
:1016600089B800002DE9F74F082002F06DF8484CCA
:1016700054F820100920019102F066F854F8206017
:101680000A2002F061F854F820500B2002F05CF8B8
:1016900054F820A00C2002F057F854F820B00D2088
:1016A00002F052F854F820900E2002F04DF854F851
:1016B0002070102002F048F854F82080112002F029
:1016C00043F854F8203001990093324B18680368AE
:1016D000DB6A9847304B314618680368DB6B9847E4
:1016E0002E4B594618680368DB6998472C4B5146C6
:1016F000186803681B6A98472A4B494618680368AC
:101700001B699847284B4146186803685B699847EE
:10171000264B3146186803689B6998473946244828
:1017200009F026FF234B0099186803685B69984706
:10173000072002F009F8012802D1284603F026FB11
:10174000072002F001F8022802D1284609F0C8F863
:10175000072001F0F9FF032802D1284609F0ECFA2E
:10176000072001F0F1FF042802D128460CF056FFB3
:10177000002240F20161606805F057FD002240F24E
:101780000161206803B0BDE8F04F05F04EBD00BF19
:10179000402A0020200000201C000020140000200F
:1017A0001000002008000020040000200C00002091
:1017B000382600201800002038B540F2DF73984228
:1017C00004460D4606D10A460146314809F0D8FEC6
:1017D000002038BD072001F0B7FF012803D12946BA
:1017E000204603F0B1FB072001F0AEFF022803D131
:1017F0002946204609F0B4F8072001F0A5FF032888
:1018000003D12946204609F0C9FA072001F09CFFC0
:10181000042803D1294620460CF022FF1D4B2A46FE
:10182000186821460368DB6898471B4B2A461868EE
:10183000214603681B699847184B2A4618682146B9
:1018400003681B699847164B2A46186821460368A7
:101850001B699847134B2A461868214603681B6882
:101860009847114B2A461868214603681B68984719
:101870000E4B2A461868214603681B6998470C4B93
:101880002A461868214603681B689847A0E700BFEE
:1018900038260020200000201C000020140000201A
:1018A0001000002008000020040000200C00002090
:1018B0001800002008B5034699889B7900682BB171
:1018C0000DF0C9FBB0FA80F0400908BD0DF0C3FB74
:1018D000003818BF0120F8E708B50248FFF7EAFF13
:1018E00008BD00BF502B0020818800680DF0AEBB02
:1018F000818800680DF0ACBB2DE9F843A44BA54CE2
:10190000998818680DF0AAFB0DF0B2FBA24BA34D0D
:10191000186801F0E6FE0EF091FFA1490FF096F86D
:101920000146DE2001F03EFF06F05EFA014681200E
:1019300001F02AFF7F2001F007FF21680646286892
:1019400006F0C0FE072001F0FFFE08B107F072F9B3
:101950002868944F03689B6A98470146B22001F0BB
:1019600013FF28680368DB6A98470146B02001F03E
:1019700019FF07F093F9386803689B68984728684F
:1019800003689B689847884B186803689B6898476A
:10199000864B18680368DB689847854B18680368AE
:1019A0001B699847206803689B689847814B1868B3
:1019B00003689B699847804B186805F09FFC0CF002
:1019C00033FE7E4B1B780BB10BF0C0FCA92001F05D
:1019D000BBFE7B4C0028606A80F2A980FFF784FF81
:1019E000E52001F0B1FE002800F0A480A92001F05C
:1019F000ABFE022800F09E80A92001F0A5FE002881
:101A000000F098806069FFF76FFFBB2001F09CFE3B
:101A10000346606C002B00F09180FFF765FF012EFC
:101A2000206940F08E80FFF75FFF3868DFF894810F
:101A300003689B6998470146AA2001F0B3FE386805
:101A400003685B6998470146AB2001F0ABFE38683C
:101A500003685B6A98470EF0F1FE0146C02001F072
:101A6000A1FE38680368DB6998470146892001F0C8
:101A700099FE2868544D03685B6B98470146BF2068
:101A800001F082FE514BAD20196801F07DFE504BF4
:101A90001B78012B03D0042B01D02B7823B1D8F86D
:101AA000000003689B689847D8F80000DFF824918D
:101AB000036899F800105B6998470746002843D0EF
:101AC000012E1EBF0122444B1A7001232B70A06A05
:101AD000424B984205D0FFF7EDFE0146D72001F0BA
:101AE00053FE0BF0E1FB0BF0FBFB042E01D0012EAB
:101AF0007AD1AA2001F030FE0546DA2001F02CFE52
:101B0000014628460FF0AAF888B3AA2001F024FE67
:101B10000546752001F020FE29460FF081F840B3FC
:101B2000E06BFFF7E1FE206CFFF7DEFE62E0FFF7FF
:101B3000DFFE55E76069FFF7DBFE66E7FFF7D8FEDB
:101B40006DE7FFF7D5FE70E72B7833B101468020B3
:101B500001F01AFE204B2F701F70D8F8000099F882
:101B6000001003689B6998471D4B1870AFE7DA2097
:101B7000CCE7752001F0F0FD1A490EF0A9FD2946C9
:101B80000FF06CF80028CED0E06BFFF7B1FECAE78B
:101B9000102C00200C000020502A00201C000020E7
:101BA0000000204120000020140000200800002038
:101BB00004000020180000203C2A0020242A0020D5
:101BC0003C300020100000204D2A0020702E002004
:101BD0003A2A0020382A00204E2A0020402B0020DC
:101BE000272A00200000A040E06BFFF781FE206C58
:101BF000FFF77EFE002001F0A7FD092816D1012E77
:101C000014D1A92001F0A0FD094B0A4C1A688242A8
:101C100009D005221860226007480CF0D1FC236827
:101C2000013B236002E02368002BF5DCBDE8F8836C
:101C3000D8250020D4250020E02500202DE9F74FED
:101C4000A02001F081FD07467F2001F07DFD0446C4
:101C5000A92001F079FD81460DF0E4FB06F090F833
:101C60008A4BDFF82C82186803685B6898477F20EE
:101C700001F06AFD0128054640F0E4803FB287EAA2
:101C8000E770A0EBE77080B206F0EEFE002106469A
:101C90000EF0C6FF90B1002001F056FD04280DD0D3
:101CA000232001F051FD002840F0C7808742B8BFD3
:101CB0004FF0FF354D4518BF06F1004648460EF07F
:101CC000BDFD31460EF00EFE0546D8F80000036853
:101CD0005B689847D8F80000294603686D4E1B6979
:101CE0009847B82001F046FD002840F0AF80306AE8
:101CF000FFF7FEFDD8F80000674F03681B6A98479E
:101D00000EF0CCFF05B22946A02001F03DFD0820D1
:101D100001F01AFD614B53F8200006F0CDFB012CB9
:101D200001D0042C08D1386885EAE5710368A1EB7D
:101D3000E5719B6989B29847D7F80090AA20D9F835
:101D40000030D3F81CA001F007FD01464846D047FB
:101D5000386803685B689847514B18680368DB680C
:101D60009847504B186803685B689847042C77D1F4
:101D70004D4B186803685B689847284606F020FDBD
:101D80008146A42001F0E0FC0546182001F0DCFCAF
:101D900085424FF03900D4BF0025012501F0DCFC5D
:101DA0000190292001F0D8FC49460EF057FFB0FA07
:101DB00080F349465B0901984FEAC30B0EF03AFFE6
:101DC000B0FA80F040094BEA8003862043EA85158B
:101DD00001F0C2FC8146282001F0BEFC82469F2013
:101DE00001F0BAFC8346502001F0B6FC014658468B
:101DF0000EF034FFB0FA80F0400951464FEA402B14
:101E000048460EF02BFF002808BF4BF0010B4BEAB1
:101E100005052946822001F0B7FC172001F094FC4B
:101E2000DFF888900190042C00F2AD80DFE814F018
:101E30004000EA01C100BA01D501002FA8BF4FF050
:101E4000FF3537E706F0DEFE002543E7B52001F059
:101E500091FC00287FF44BAF306AFFF745FD49E75E
:101E6000052001F071FC032804D10F4B18680368AA
:101E70005B689847012C80D1DD2001F065FC411C96
:101E800001F00F01DD2001F07FFC76E7100000205B
:101E9000200000203C3000201C000020402A0020B0
:101EA000040000200C000020140000201800002076
:101EB0004FF00008AE4BAF4883F80080AE4B83F87C
:101EC0000080FFF715FDB069FFF712FD0221A92080
:101ED00001F05AFC386803685B699847A74B83F8A0
:101EE0000080DFF89C82B8F80030002B57D1A5485D
:101EF000FFF7FEFCF069FFF7FBFCA348FFF7F8FCD7
:101F0000BF2001F021FC0346DFF880A2B06C002B5B
:101F10004CD19AF80030002B48D1FFF7E9FC15F0BE
:101F2000410F01D0019BCBB1386803689B6B984788
:101F3000A0B1386803685B6B984778B1B06CFFF765
:101F4000D3FC01238D4A02241370894A137019238C
:101F5000A8F800300DF066FA8D4B18609AF8003042
:101F60006BB115F0480F0AD11923A8F800300DF015
:101F700059FA874B0224186001237F4A13702146C7
:101F80007F2001F001FCF068FFF7B2FC0022D9F8D5
:101F90000000114603682546DB68984794E0013B42
:101FA0009BB2A8F80030002BAAD1A0E7FFF79CFC59
:101FB000B5E7DFF8D8A19AF80030002B40F0B280E6
:101FC000D8F80020734B9A4202D06A48FFF78CFC85
:101FD000F069DFF8AC81FFF787FCB069FFF784FC9C
:101FE000B8F80030002B40F0AA806748FFF77CFC6F
:101FF000DFF888B19BF800305BB115F0450108D1DE
:10200000192384208BF80010A8F80030012401F077
:10201000BBFB9AF8003053B115F04C0107D14FF4D7
:10202000FA738420A8F80030042401F0ADFB524B71
:102030001B7823B19AF80030002B08BF00244C4DC8
:102040002B78002B40F08380022C17D10DF0EAF999
:102050000746152001F078FB4D4B1B68184487425A
:102060000CD9019B002B7BD02B78002B78D0002340
:102070008BF8003019230124A8F8003021467F2076
:1020800001F082FB012C7FF47EAF522001F05CFB5B
:10209000012805467FF477AFF068FFF725FCD9F8F3
:1020A00000003D4903689B689847D9F800405320D9
:1020B0002368DE6801F048FB0746D72001F05AFB91
:1020C000B9B202462046B047072001F03DFB022886
:1020D00008D10A2001F038FB304B53F82010284675
:1020E00008F050FC072001F02FFB032808D10A203C
:1020F00001F02AFB294B53F82010284608F080FEF7
:10210000072001F021FB042840F0AB800A2001F0F9
:102110001BFB224B53F82010284603B0BDE8F04FBC
:102120000CF0A6BA072001F00FFB00287FF450AF97
:10213000D8F800201A4B9A427FF44AAF45E7013B9A
:102140009BB2A8F80030002B7FF452AF4DE73868FF
:1021500003685B6B984700287FF476AF00248DE717
:102160000948FFF7C5FB0A2005F010FE032485E7A8
:10217000262A0020C82B0020252A0020282A0020FB
:1021800024000020182C0020D02B00204E2A0020F4
:10219000D0250020E028002000004842402A0020EE
:1021A000582900200022304B30481A70FFF7A0FB5E
:1021B0002F4B1B7823B12F4B1B78002B08BF00241B
:1021C0002D4B1B78002B3FF4DAAE386803685B6B4D
:1021D0009847002808BF0024D1E6284D2B884BB92A
:1021E0002748FFF781FB234B1B7843B9FA221C4693
:1021F0002A8004E0013B9BB22B80002BF0D005F03D
:10220000E7FDBCE61D4D2B8813BB1D48FFF76CFB9B
:102210001C48FFF769FB7F20012101F0B5FA05F0AA
:10222000D7FD386803685B6B984700287FF426AFBA
:10223000A02001F089FA00284FF0A0000EDA01F08A
:1022400083FA404263283FF719AFFA232B8085E7D2
:10225000013B9BB22B80002BDDD1D6E701F074FA55
:10226000F0E703B0BDE8F08F282A0020D02B002033
:10227000252A00204E2A0020262A002024000020A3
:10228000182C0020C82B00202DE9F0477F2001F0FA
:102290005BFA0546894BDFF8289218680368DB680B
:1022A0009847042D04D1D9F800000368DB689847EB
:1022B00006F082FD834BDFF810A21968D220834F0D
:1022C00001F062FAD320DAF8001001F05DFAD420B0
:1022D000396801F059FA7E4B7E4E1968D520DFF837
:1022E000F88101F051FAD620318801F04DFA98F8C2
:1022F00000307A4C022B2DD1794B1B7853BB042D27
:1023000019D1DFF8E0A1784FDAF80030002B41D185
:102310005B20237001F018FA4FF496735843CAF803
:1023200000003B68B3F5967F14D100233B603388EF
:10233000013B33800EE06D4ADAF8003012789A42A1
:1023400026D16B4A3B6812789A4221D13388FBB17F
:102350000123237098F800302BBB614B1B780BB91D
:10236000012323706E2001F0EFF901281FD17020A6
:1023700001F0EAF95F4B0746586802F0A7F80646F5
:102380000146DF2001F000FAB7422ADA002330E0EC
:102390000023DEE73A68013B0132CAF800303A60B8
:1023A000002BBED1B4E7012BDCD10023D9E76F208D
:1023B00001F0CAF90128DAD0D9F800004E4A0368C2
:1023C00012785B692178984708B1012D13D14B4BE6
:1023D0001E78B6B93146802001F0D6F9484B1E7000
:1023E0000FE098F80030012BE6D13D4A1278002A20
:1023F000E2D12370E0E70121414B8020197001F008
:10240000C3F9404E3378022B07D13C4B1B7823B1E4
:102410003D4B18680368DB6898473378012B02D975
:10242000033B012B0AD8384F38680368DB689847AC
:1024300033781BB938680368DB689847042D6DD181
:102440002E4B1D78002D33D1852001F07DF90646F5
:102450003E2001F079F98642A1BF0122204B257070
:102460001A702A4B186803689B68984700210EF081
:10247000CDFB68B1264A1368002BDFBF0023012182
:102480002370174BCEBF03F1FF3319700A2313607B
:10249000204B586B204B98420AD0FFF70BFA38B10B
:1024A000E42001F051F918B901220D4B20701A7087
:1024B000184B986BFFF71CFA57E000BF1C00002078
:1024C00014000020202A00201C2A0020182A0020A6
:1024D000142A0020342A0020392A0020382A00201B
:1024E0004C2A0020302A00202C2A0020372A0020E5
:1024F000362A002030300020272A00204D2A0020D4
:102500004E2A00203A2A0020100000200800002057
:10251000000000203C300020402B0020012DC7D1BE
:102520000022174B6E201A7001F00EF9022817D105
:10253000712001F009F90646722001F005F9114BEE
:102540000546986801F0C2FF01460446E02001F00C
:102550001BF9AE420BDCA642AADCA54205DA0AE072
:102560006F2001F0F1F80228E2D0BDE8F087A64222
:102570009EDBA542F9DD044B986BFFF7B5F9F4E754
:102580004C2A0020303000203C300020FEE70000C4
:102590000C2838B510D80C2819D8DFE810F0D00076
:1025A000D300E5001800D900D600DF001800E800CD
:1025B000E800E800E800E800512800F0CC8000F2D4
:1025C000B2803C2800F0DB80492800F0CA8023203C
:1025D00001F0BAF840B1002001F0B6F8082803D0A5
:1025E0000021232001F0D0F8182001F0ADF8664D4D
:1025F000664C2860192001F0A7F820601A2001F02D
:10260000A3F868601B2001F09FF860601C2001F0B7
:10261000A3F85F4D5F4C28601D2001F09DF82060FD
:10262000332001F099F85C4B2168186028680EF09F
:10263000F7FA50B159491C202960594D256001F025
:10264000B1F829461D2001F0ADF81E2001F084F8F4
:10265000544B554C18602E2001F07EF8534B1860F7
:102660002F2001F079F8524B1860312001F074F8F6
:10267000504B1860262001F067F84F4B186020205F
:1026800001F06AF84D4B1860242001F065F84C4BBE
:102690001860302001F060F84A4B18601F2001F0EC
:1026A0005BF8494B1860052001F04EF8042001F05A
:1026B0004BF8464B18702378012B22D1582001F09B
:1026C00043F8434B1860572001F03EF8414B186027
:1026D000562001F039F8404B1860552001F034F8CD
:1026E0003E4B1860592001F02FF83D4B18705A20CE
:1026F00001F02AF83B4B18705B2001F025F83A4BAB
:102700001880452001F020F820705B2001F01CF8B3
:102710004FF496735843354B186008F089F8BDE8BC
:10272000384008F0B1B8682805D865287FF64FAF63
:1027300000F028FE4BE778380428F9D947E7FEF780
:1027400005FF44E7FEF79AFE41E7FEF79BFD3EE7F3
:10275000FEF7DEFD3BE7FEF747FF38E7FEF70AFE30
:1027600035E7FEF73DFE32E7FEF75AFE2FE7204C35
:10277000206804F077FD606804F074FD27E704F03A
:1027800061FB04F04DFB22E7682E0020602E002044
:102790005C2E0020582E0020202E00200080BB44FC
:1027A0000000C842542E0020392A00204C2E002060
:1027B000442E0020402E0020242E00203C2E0020FD
:1027C000382E0020482E0020502E00203A2A0020CB
:1027D000142A0020182A00201C2A0020202A002069
:1027E000372A0020362A0020342A0020302A0020F0
:1027F000402A0020014B186800F03CBF502A0020FE
:1028000000B589B003A804F09DFB28B1DDF81530B0
:102810000193DDF81930029304F00FFB4FF40040F0
:102820000CF0DAFA0499A1F58473012B05D8044B56
:1028300001AA186803681B69984709B000BD00BF6A
:102840001000002008B500200CF022FE104B1A6882
:1028500001323B2A1A600F4A05D911680131116013
:1028600019683C39196013683B2B0B4B05D9196863
:102870000131196011683C3911601A68172A06D9AC
:1028800006490A6801320A601A68183A1A6008BDD7
:10289000142A0020182A00201C2A0020202A0020A8
:1028A0002DE9F043ADF68C2D00F0B8FB00F0E0FC14
:1028B0000022C349C34801F049FE0122C049C24871
:1028C00001F044FE0122C149C14801F03FFE02224D
:1028D000BB49C04801F03AFE0322B949BE4801F0A5
:1028E00035FE0522B649BD4801F030FE0422B44948
:1028F000BB4801F02BFE0B22B149BA4801F026FE7D
:1029000004232022B849B94801F099FB042380220E
:10291000B549B74801F093FB04234FF40042B54991
:10292000B54801F08CFB04231022A849B34801F0FC
:1029300086FB04230822A549B14801F080FB01254C
:10294000072380229E49AF4801F079FB0723042228
:10295000AD49AE4801F073FB07234FF40042A24992
:10296000AB4801F06CFB07234FF480429E49A94815
:1029700001F065FB07234FF400529B49A64801F084
:102980005EFB07234FF400729749A44801F057FB00
:1029900007234FF480729449A14801F050FB0723AC
:1029A0004FF4806290499F4801F049FB07234FF4A0
:1029B00000628D499C4801F042FB07234022804978
:1029C0009A4801F03CFB07234FF4807289499848EC
:1029D00001F035FB07234FF400727949954801F067
:1029E0002EFB07234FF480727549934801F027FBB3
:1029F00007234FF480527C49904801F020FB0523C7
:102A0000082281498E4801F01AFB052310227E49D5
:102A10008C4801F014FB052320227B498A4801F0F1
:102A20000EFB072340227849884801F008FB072362
:102A300008226D49864801F002FB072304226A49F7
:102A4000844801F0FCFA07234FF480525F49824822
:102A500001F0F5FA07234FF480426B497F4801F0FB
:102A6000EEFA0723012259497D4801F0E8FA0723CD
:102A7000802260497B4801F0E2FA072340225D4949
:102A8000794801F0DCFA042340225749774801F0E5
:102A9000D6FA042310225449754801F0D0FA0023D5
:102AA00080225949734801F0CAFA01F0A3FC724927
:102AB0004FF000700CF0C0FA00F06AFB00F098FBD9
:102AC00005F030F900F00AFB00F034FB00F05AFC8E
:102AD000E620FFF75DFD5648FEF70AFF5F48FEF768
:102AE00007FFC4AC0023654A6549009539A800F08A
:102AF000FBFE0DF26C58002302222046614905F0CE
:102B000047FB022260492B46404605F041FB5F4BE4
:102B10000F2004935E4B0DF5F96705935D4B5E4EF8
:102B2000069300F011FE2A46002814BF41462146B4
:102B3000384605F073F83A46214619A808F0F2FD28
:102B4000032119A808F00AFE204604A9C6E9004896
:102B500004F05CFB04A9404604F058FB4F4B0A20EC
:102B60001F604F4B07AC1F6000F0EEFD56F8207061
:102B70000E2000F0E9FD56F820104A4808F0F8FC55
:102B800004F060F904F04CF94FF4964246492046AF
:102B900009F0EAFC454B1C600FACFEF7D7FCFEF7D2
:102BA0006DFCFEF76FFBFEF7B3FBFEF7E3FBFEF7F2
:102BB0001BFDFEF715FCFEF733FC3D49204679E08E
:102BC00000100140642C0020602C0020000C01400B
:102BD0005C2C0020582C0020542C0020502C00206D
:102BE0004C2C0020482C002000140140402C0020D8
:102BF000382C002000080140302C0020282C002018
:102C0000202C0020182C002000180140102C00203F
:102C1000082C0020002C0020F82B0020F02B002096
:102C2000E82B0020E02B0020D82B0020D02B002008
:102C3000C82B0020C02B0020B82B0020B02B002078
:102C4000A82B0020A02B0020982B0020902B0020E8
:102C5000882B0020802B0020782B0020702B002058
:102C6000682B0020602B0020582B0020502B0020C8
:102C7000482B0020402B0020C0004000982801086D
:102C8000004800400064004000680040A80E0108B1
:102C9000B917000865160008402A0020A42F00205C
:102CA0003C2A00203826002000380140DC25002086
:102CB0000008004000F08AFC1A4B2A4620461A49B8
:102CC0001C6000F0A3FC0A222046184900F09EFC7C
:102CD00064222046164900F099FCC8222046154976
:102CE00000F094FC772000F02FFDA84202D1384676
:102CF00002F0AEF804217E2000F046FD00217F2086
:102D000000F042FD4FF0000439A88DF80F4000F0AC
:102D10009FFF1E9B002BF7D10DF10F011AA806F0A3
:102D20001DFAF1E7502A0020291200083D1C000876
:102D3000F91800088922000810B50024614B624A86
:102D40001C741A60614B624A1C721A60DC721C733C
:102D5000604A614B61481A601C72DC721C73604AE5
:102D6000604B1A60604B614A1A6007F057FD604B78
:102D7000604A1C621A601C775F4A604B60481A60A8
:102D8000604B614A1A60614B614A1A60614B624A4A
:102D90001A60624B624A1A60624B634A1A60634B64
:102DA000634A1A60634B644A1A60644B644A5C75F8
:102DB0001A60DC82634A644B1A60644B644A1A608E
:102DC000644B654A1A60654B654A1A60654B664AF2
:102DD0001A60664B664A1A6004F0FCF9654B664A55
:102DE00066481A6007F048FB654B664A66491A60F8
:102DF000664B674A67481A60674B684A1A60684BB7
:102E0000684A1A60684B694A1A60694B694A1A60D5
:102E1000694B6A4A1C721A60694B6A4A1A606A4BAB
:102E20006A4A1A606A4B6B4A1A606B4A6B4BC2E97A
:102E3000024413600023136153619361D361684AB4
:102E40001160684A6849C2E904441160C2E9064455
:102E5000136253629362D3626449654A11606549A3
:102E6000C2E90244C2E904441483D3611362536289
:102E70009362D3621363536391635F4A5F49C2E90C
:102E800004449360D3609361D3611484536293626A
:102E9000D362136353639363D36313645364936480
:102EA0001160574B574A1A60574B584A1C731A60A7
:102EB000574B584A1A6009F051FBBDE8104056487C
:102EC0000BF072BB002A0020D0310108E429002059
:102ED0002C290108642A0108C8290020942900200F
:102EE000182C0108B8290020AC290020602C01080A
:102EF00070290020AC2A0108482E0108582900201A
:102F0000B828002050290020A82F010848290020B7
:102F1000D42F0108402900206833010838290020F7
:102F2000DC0E010830290020080F010828290020A4
:102F30000030010820290020FC2E0108082900206B
:102F400064310108AC2E010800290020F828002077
:102F5000802E0108F02800203C330108E8280020DA
:102F6000C8340108E0280020A82C0108D828002037
:102F7000B80F0108B0280020340F0108A428002051
:102F80009828002020360108A0350108902800204C
:102F9000940F010810260020842700201832010811
:102FA000782700207C3501086C2700202034010898
:102FB000602700204434010850270020FC3301081A
:102FC00048270020F00F01083C270020BC350108ED
:102FD00034270020580F0108142700204831010829
:102FE0000C270020DC2600202C31010804360108C3
:102FF000A02600200000FA43542600204C36010889
:103000004C260020740F01083C260020B031010836
:1030100030260020B80E0108E025002008B50CF08D
:103020003FF902200CF014F94FF0E0232A4A40F255
:103030000230C3F80C2D0CF079F940F203300CF09B
:1030400075F94FF441700CF071F940F205300CF055
:103050006DF940F206300CF069F940F292300CF054
:1030600065F940F291300CF061F940F20E300CF04D
:103070005DF940F20B300CF059F94FF460700CF030
:1030800055F940F281300CF051F940F282300CF0E9
:103090004DF94FF420700CF049F940F209300CF072
:1030A00045F940F286200CF041F94FF440700CF0E5
:1030B0003DF940F299300CF039F940F29A300CF0B9
:1030C00035F940F28E300CF031F9BDE8084040F29D
:1030D0008F300CF02BB900BF0003FA0513B50024A4
:1030E000202123462246CDE9004410480CF03EFA48
:1030F00021460E480CF032FA0C480CF021FA0B482D
:103100000CF027FA4FF420430222032108480BF069
:1031100063FF4FF480430122214605480BF05CFF1A
:10312000024802B0BDE810400CF0FEB90038004083
:10313000000C014013B500244FF080514FF0007097
:103140000BF07AFF234622462021CDE900440E48A9
:103150000CF00CFA0C480CF0F3F90B480CF0F9F9F0
:103160004FF4A0530222032108480BF035FF4FF41F
:1031700000630122214605480BF02EFF024802B0F1
:10318000BDE810400CF0D0B9003C004000100140F8
:1031900008B502220423032112480BF01DFF082367
:1031A000012200210F480BF017FF0F490F480CF0C8
:1031B0009BFB08210D480CF0ABFB00210B480CF0E9
:1031C000B0FB0C2109480CF0B8FB002107480CF0BB
:1031D000AEFB064800210CF0B6FBBDE808400348F2
:1031E0000CF0B7BB0008014020A1070000440040DC
:1031F00008B511200CF046FCF02111200CF050FC19
:1032000010200CF03FFCF02110200CF049FC1E2097
:103210000CF038FC00211E200CF042FC14200CF0B5
:1032200031FCE02114200CF03BFC13200CF02AFCB4
:10323000E02113200CF034FC28200CF023FC4FF488
:1032400000400BF0BFFD01214FF400400BF09EFD4C
:1032500006494FF400400BF0C5FD03200CF012FCB2
:10326000BDE80840202103200CF01ABC00180140E2
:1032700008B54FF2234103200CF03CF900200CF07C
:10328000DBF800200CF004F9BDE8084000200CF049
:10329000E1B80000022208B511464FF40073164849
:1032A0000BF09AFE15480CF0A9F9002320221946CC
:1032B00012480CF07CF9202110480CF0A4F90722E8
:1032C00000210E480CF0A3F900210C480CF0A4FAE0
:1032D0000A480CF0FBFA4FF4C872002107480CF0C2
:1032E000E5FA06484FF488610CF08FF9BDE8084014
:1032F00002480CF07EB900BF00180140002C0140CC
:1033000008B5022303211A461D480BF065FE4FF055
:1033100080400CF073F900234FF080401A461946A4
:103320000CF045F900214FF080400CF06CF94FF0A3
:1033300080400CF045F94FF080400CF055F98F219A
:103340004FF080400CF061F902214FF080400CF00A
:1033500088FA062202214FF080400CF058F9022131
:103360004FF080400CF058FA4FF080404822022184
:103370000CF09CFABDE808404FF080400CF039B9E1
:1033800000080140682038B500F0DEF9132808D1A4
:1033900002220123114687480BF01EFE0024254619
:1033A0000DE0682000F0D0F9142840F0928002224D
:1033B000012311467F480BF00FFE002401256720F2
:1033C00000F0C2F9132840F09980022280231146B0
:1033D00079480BF001FE662000F0B6F9132840F0A2
:1033E000AE8002224023114673480BF0F5FD73486E
:1033F0000CF004F9002171480CF0E7F86F480CF06C
:10340000DFF8062200216D480CF001F906220221A6
:103410006A480CF0FCF80622042168480CF0F7F822
:10342000002166480CF0B9F9022164480CF0B5F9A6
:10343000042162480CF0B1F9002160480CF0C7F992
:1034400002215E480CF0C3F904215C480CF0BFF97E
:1034500000215A480CF0E0F9022158480CF0DCF940
:10346000042156480CF0D8F9002D40F08980002C3A
:1034700040F08680792000F067F901464F480CF053
:10348000C4F87A2000F060F9214602464B480CF05F
:103490000DFA7B2000F058F90221024647480CF053
:1034A00005FA7C2000F050F90421024643480CF054
:1034B000FDF9012141480CF00EFA782000F044F9A2
:1034C00001463E480CF09FF8BDE838403B480CF000
:1034D00090B8682000F038F9152808D1022201239D
:1034E000114634480BF078FD0124002567E70723D7
:1034F00001223049324800F0A2FD4FE7672000F07A
:1035000023F9142807D10222802311462A480BF000
:1035100063FD01255FE7672000F016F9152807D144
:1035200002228023114624480BF056FD012452E765
:10353000072380222049234800F081FD4BE76620C5
:1035400000F002F9142807D10222402311461A483C
:103550000BF042FD01254AE7662000F0F5F815283A
:1035600007D102224023114613480BF035FD0124F8
:103570003DE7072340221049134800F060FD36E77D
:1035800041F68C110D480CF040F8012200210B4847
:103590000CF08CF90122022108480CF087F9012275
:1035A000042106480CF082F9012104480CF093F93B
:1035B0000A2186E7000C0140000801400004004099
:1035C000682B0020602B0020582B002038B50C46BB
:1035D0000546016208460BF0F3FF20460BF0FFFFA3
:1035E000084B20461968084BB1FBF3F101390CF088
:1035F0000AF820464FF6FF710CF007F80023284622
:103600006B6238BDC8230020A0860100F8B5436A6C
:103610000446032B0F462ADC006A02EB8205144E97
:103620000BF0ECFF636A0122F15C206A0BF0EFFF04
:10363000636A0022F15C206A0CF038F90221636AA7
:1036400005EB850503F10802AD0044F823709940AD
:1036500024F81250206A0BF09DFF0021206A0CF024
:1036600040F9206A0BF0C5FF636A01336362F8BD5D
:10367000301001082DE9F843044600254FF00208F8
:1036800000F11006636A08FA05F7AB420ADC394616
:10369000206A0BF089FF0135042D06F10206F1D1F5
:1036A000BDE8F8833946206A0BF078FFA8B1206A9C
:1036B0000CF015F9236A3188343353F825208146FC
:1036C0000A4443F8252054F825309847206A0CF026
:1036D00006F9A0EB09003081D9E7636AAB42DADC76
:1036E000D5E7002170B500F10E03446A4FF47A75F6
:1036F00008468C4200DC70BD5A8933F8026F6A4379
:10370000B2FBF6F201311044F3E7000010B51C24BF
:10371000084B04FB0033DC688C4209DC1B698B42DC
:1037200006DB054B43F82010FEF732FF002010BDEA
:10373000FF20FCE7C003002028000020014B53F8C5
:103740002000704728000020024B53F82000401151
:10375000704700BF2800002008B5054B53F8200033
:103760000DF06CF84FF074510DF0BCF808BD00BFBF
:1037700028000020034B53F820004011431E5842FC
:103780005841704728000020024B490143F820109F
:10379000704700BF28000020014B43F820107047FD
:1037A0002800002010B5044608464FF084410DF073
:1037B00099F80DF073FA024B43F8240010BD00BFD6
:1037C0002800002070B506460024074D3146686881
:1037D00000F08EFB08B9E0B270BD0134E62C05F1B3
:1037E0001C05F3D1E720F7E7C00300200023064AB9
:1037F000118B814201D1D8B270470133E62B02F11F
:103800001C02F5D1E7207047C00300201C22024BA8
:1038100002FB0030704700BFC00300200023064AAF
:103820000649108B10B1506941F823000133E62B93
:1038300002F11C02F5D17047C003002028000020CF
:10384000014B1954704700BF542A0020024B1A5CE8
:1038500011431954704700BF542A0020024A135CD8
:1038600023EA010313547047542A0020014B185CCB
:10387000704700BF542A00201C22024B02FB003379
:10388000987E7047C003002000487047146A030008
:10389000024B1A68024BC3F8242E7047B82200204E
:1038A000C0030020202180680CF079B880680CF0FB
:1038B0006EB810B504464368597A58680BF03DFA63
:1038C000636804F12A02597A58680BF048FA636871
:1038D0008022597A58680BF052FA6368BDE81040AC
:1038E000597A58680BF020BA70B5026140F20112A3
:1038F0000D464A498282016001210022817580F8CB
:10390000281004460421C0E9062280F820204262E3
:103910009DF81020856080F82920414A0373426099
:103920001068A84203D01C3201396260F8D13D49C9
:103930000C60002B6FD05069138B022203210BF017
:103940004BFB28464FF4E1310BF0CEFF284608210F
:103950000BF0DEFF28464FF400510BF0E2FF284643
:103960000C210BF0EAFF284600210BF0E0FF0021BC
:1039700028460BF0E8FF28460BF0FBFF28460BF02B
:10398000FDFF6368197A58680BF05EF96368197A6D
:1039900058680BF0C0F963682A1D197A58680BF053
:1039A000D5F963680022197A58680BF088F96368C2
:1039B0000022197A58680BF075F96368197A58680B
:1039C0000BF08AF96368597A58680BF03DF963681F
:1039D0002A1D597A58680BF0B9F963680022597AA0
:1039E00058680BF06CF963680022597A58680BF03C
:1039F00059F96368597A58680BF06EF9636858682A
:103A0000597A0BF091F92046FFF753FF28460BF047
:103A1000A0FF204670BDD068138A8EE724280108D5
:103A2000282801083C2B002038B5437D0D4643B1C2
:103A30000469216819B1284600F05AFA20B92368B0
:103A400003B90024204638BD0834F2E738B50446EF
:103A50000D4663680222197A58680BF00CF918B900
:103A600094F82830002BF4D06368197A58680BF06A
:103A700064F96368AAB2197A58680BF080F994F86F
:103A80002020636804EBC212197A5868AA320BF03E
:103A900066F963680222197A58680BF0E6F86368E1
:103AA000197A58680BF040F994F82030B3FA83F390
:103AB0005B0984F82030002384F8283038BD10B525
:103AC0000446A37D084623B9A068BDE810400BF06A
:103AD00045BF94F82030626A04EBC31313440A28EC
:103AE00002F1010183F8AA0001D07F2A05D1204606
:103AF000FFF7ACFF0023636210BD6162FCE7802A20
:103B000028BF8022002330B4934203D130BC194631
:103B1000FFF79CBF90F82040CD5C00EBC4141C4420
:103B200084F8AA500133EFE738B5054608460C463D
:103B300000F0F5F9214602462846BDE83840FFF777
:103B4000DEBF000010B50446084600F03BFA00F066
:103B500020FA217D227B8142636811D101216175A8
:103B60005AB158691B8B032102220BF035FA20460B
:103B7000BDE810400949FFF7D7BFD8681B8AF2E7B4
:103B8000002161753AB158691B8B0122BDE81040D4
:103B900000210BF021BAD8681B8AF6E7342101080E
:103BA00030B5044685B0084600F00CFA0378302B97
:103BB00026D0322B144D18BF4FF46125637DA3B17D
:103BC0000A22294601A800F0BAF920460F49FFF75A
:103BD000ABFF20460E49FFF7A7FF204601A9FFF7DC
:103BE000A3FF20460B49FFF79FFF2946A0680BF073
:103BF0007BFE0021A06805B0BDE830400BF091BE0F
:103C00004FF4E135DAE700BF1055220033210108F7
:103C100039210108B927010810B50446084600F00B
:103C2000D1F9037823B1303B18BF012384F8293040
:103C300094F829302BB104492046BDE81040FFF725
:103C400073BF0249F8E700BF48210108522101086B
:103C50002DE9F04143680446597A58680BF088F81A
:103C60000546C0F1800710B92046FFF722FE94F800
:103C70002930A06813B1E369BB4257DB08210BF080
:103C80008EFE10B1A0680BF082FE7F2D00F39880AD
:103C9000631B93F8A9300A2B01D00D2B7DD16368EB
:103CA000597A58680BF049F87F2D3AD00022E31971
:103CB00083F82A202021E26104F12A0000F036F97D
:103CC00090F800800546B8F1000F37D10A2104F1C1
:103CD0002A0000F02BF9054684F8AA812B782BB92D
:103CE0000D2104F12A0000F021F905460023354991
:103CF0002B7004F12A00A36100F0FAF820BB2046E3
:103D000004F5D571FFF71EFF0027A369002B3AD0F9
:103D1000A0680BF040FEA36920465B6804F5D571EE
:103D200098472046BDE8F041FFF7C3BD5A1CE26149
:103D3000234493F82A100BF011FE98E7411C04F578
:103D4000D57000F0E3F8C9E71F4904F12A0000F03C
:103D5000CFF828B9204604F5D571FFF721FFD3E746
:103D60001A4904F12A0000F0C3F828B9204604F5E6
:103D7000D571FFF751FFC7E7204604F12A01FFF78D
:103D800053FEA061C1E7012FCBDD637D002BC8D0BE
:103D900020460F49FFF7C8FEC3E794F82A30212BCD
:103DA0000ED1A36963B12046FFF783FD0023E361D1
:103DB000A369204604F5D5715B68BDE8F04118475A
:103DC000BDE8F0815D210108682101087121010829
:103DD00076210108034BC1B21B681A6818461268A5
:103DE000104700BF3C2B002004F01AB807B5064965
:103DF000D1F8F027D1F8EC37D1F8E8170091034952
:103E000000F0EAFA03B000BD00F0FF1F91210108A5
:103E100005F0A4B973B5144800F0CCFA134800F0CB
:103E2000C9FA0024E6B23046FFF7F0FC05463046FA
:103E3000FFF722FD68B93046FFF718FDC3070DD420
:103E40006B690B4800936968D5E9032300F0B2FA67
:103E500004E03046FFF710FD0128ECD00134E62CD9
:103E6000E0D102B070BD00BF9A210108B121010864
:103E7000CD21010870B50B4900F0AEFA0024E0B284
:103E8000FFF7C4FC0546E0B2FFF7F0FCC30704D41B
:103E9000D5E90112044800F08DFA0134E62CEED188
:103EA00070BD00BFE021010802220108F8B50646F6
:103EB0000024E0B2FFF7AAFC4768E0B2FFF73EFC3F
:103EC000013403463A463046024900F085FAE62CB2
:103ED000EFD1F8BD0C22010810B50446FFF79EFC97
:103EE0002046BDE81040014900F076BA15220108CD
:103EF000431E013913F8010F11F8012F10B10AB157
:103F00009042F7D0801A18BF01207047013911F88C
:103F1000013F0BB90370704700F8013BF7E700233E
:103F2000C25C0AB9184670470133F9E703461A78AC
:103F300018461AB18A4203F10103F8D170470029EB
:103F400070B51EDA2D23012400F8013B49420646D4
:103F500091FBF2F302FB131130313170191E35461B
:103F600006F10106F4DC00220346201A30443270C8
:103F7000AB420BD21A78297803F8011B05F8012906
:103F8000F6E704D1302341700370012070BD002496
:103F9000DDE730B503782D2B11D14FF0FF34013020
:103FA00000210A25431E01E005FB012113F8012F22
:103FB000303AD0B20928F7D904FB01F030BD012412
:103FC000EEE7000010B5144C02780146A2F10A0396
:103FD000DBB2162B1BD824FA03F3DA0700F1010039
:103FE000F2D40846FFF79BFF01380844814204469B
:103FF0000AD203780A3BDBB2162B05D8064A0138F1
:1040000022FA03F3DB07F1D40023637001E0002AF6
:10401000E7D1084610BD00BF09004000002310B5DD
:10402000934200D110BD51F8234040F823400133A2
:10403000F6E702B97047013A40F8041BF9E72DE9A9
:10404000F041174682800022013B0E4601608271DA
:10405000082B0BD8DFE803F0080E0C1815052426F2
:104060001A000024002513E0012383710224F9E7DC
:104070000123837102240025394630460AF0E6FF09
:1040800006E001248471EDE70124EBE70224032517
:104090003B46224629463046BDE8F0410AF09CBF27
:1040A0000024F4E701240325E6E770B50C1EACBF3D
:1040B00001234FF0FF335C430133064608BF2D2335
:1040C0004FF0640208BF06F8013B611104F01F04C1
:1040D0000546544330460A22FFF731FF2E22641171
:1040E000092C3254D8BF302206EB0003D8BF5A70D7
:1040F00021464FF00A02CCBF581C981CFFF71FFF47
:10410000284670BDF0B5027803462D2A13D14FF032
:10411000FF30013300250A2702E007FB05250133A4
:104120001C78A4F13002D6B2092EF6D9A4B98D407C
:1041300025446843F0BD0120ECE78A4002EB6602AB
:1041400092FBF6F20CFB06F6144413F8012F303AFA
:10415000D7B2092FF1D9EAE70A260024B446F4E7DA
:104160002DE9F843141E0646894614DC2027DB0798
:104170001FD50025C84626E0013219F80210002993
:10418000FAD1A242ACBF0C46A41A13F0020F14BF1E
:1041900030272027EBE70022EFE73368414630461F
:1041A0001B689847013D002DF7DC24EAE475641B89
:1041B000E0E725465FFA87F8F5E7336830461B6885
:1041C00008F10108984798F800100029F5D1A5EBEF
:1041D00009054544A046FFB2B8F1000F05DC002CEC
:1041E000ACBF2819281CBDE8F8833368394630462F
:1041F0001B68984708F1FF38EEE72DE9F04385B0DA
:104200008046DDE90C691C460D4651B93023324623
:10421000ADF8003069464B46FFF7A2FF05B0BDE898
:10422000F08323B10A2A2DD100292BDA4D42002335
:104230008DF80D300E9B0DF10D0C3A3BB5FBF2F0F5
:1042400002FB1051CF18092988BF3946AA4201F153
:1042500030010CF1FF370CF8011C15D954B1B6B17F
:1042600019F0020F13D0D8F800302D2140461B68FA
:104270009847013E4B46324639464046FFF770FFAD
:104280002044CBE70024D2E70546BC46D6E72D23E1
:10429000002407F8013CACF10207EBE70846FFF702
:1042A00099BD00002DE9F04380460E4614460025D6
:1042B0004FF00A098DB0317819B928460DB0BDE824
:1042C000F08325296DD171780029F6D0252906F1D2
:1042D000010065D02D290ABF01270027B01C0378F3
:1042E000302B14D0002203780646A3F130015FFA88
:1042F00081FCBCF1090F0ED9662B3DD00FD8632B82
:1043000044D0642B1CD0582B2ED00136D3E701307B
:1043100047F00207E3E709FB02120130E3E7752BE0
:1043200024D0782B19D0732BEFD1216820483B463D
:10433000002908BF014604344046FFF711FF0AE098
:104340006123CDE90173012300920A2221684046CE
:104350000434FFF752FF0544D7E76123CDE9017329
:10436000009200231022F1E74123F7E76123009236
:10437000CDE901730023E8E7216808A80592043419
:10438000FFF793FE3B46059A08A9D5E7236807A9DE
:104390008DF81C30002304348DF81D303B46CBE7EC
:1043A0000646D8F8003040461B6898470135ACE710
:1043B0006F2201080FB407B504AA52F8041B054B7D
:1043C0006846CDE90032FFF76DFF03B05DF804EBFE
:1043D00004B07047202901080EB403B503AA52F8AF
:1043E000041B0192FFF75EFF02B05DF804EB03B01F
:1043F0007047000008B529480AF0BAF927480AF0C2
:10440000BCF926480AF0C3F924480AF0BBF9012197
:1044100022480AF098F921480AF05EF91F480AF08C
:1044200075F91E480AF085F91D4A08211B480AF053
:10443000B3F91A480AF0F3F94FF4602117480AF06B
:104440005BF90121174A18480AF080FC0121174A3C
:1044500015480AF084FC4FF48072012112480AF0DA
:104460002EFC4FF4806201210F480AF01BFC6022F1
:1044700001210D480AF083FC01210B480AF02CFCB5
:10448000012109480AF031FC074801210AF04CFCDF
:10449000BDE8084001480AF0B8B900BF0024014057
:1044A000282D00204C24014000000240682C0020F0
:1044B000884207DD914203DC01469142A8BF1146C4
:1044C000084670479042F8DD0146F9E737B56D467A
:1044D000046804F13003F03433F8102C33F8201C56
:1044E00033F8300CFFF7E4FF3033A34225F8020B1A
:1044F000F2D1BDF80230BDF800001844BDF8043018
:104500001844BDF806301844C0F38F0003B030BD26
:1045100008B50D4B98420BD003F5806398420BD041
:10452000A3F5006398420BD1072909DCC8B208BD86
:10453000012905DC0831F9E7052901DC0A31F5E735
:104540000AF0D2F81020F2E7000C0140012370B508
:1045500093400C4615460022064611469BB2204663
:104560000AF03AFD29462046FFF7D2FF3368034A96
:104570009B1A034AC3F34F03D05470BD682C00202C
:10458000282D00200D4B0E4A991C13600D4A116016
:104590000D4A191D11600D4A991D11600C4A03F155
:1045A000080111600B4A03F10A0111600A4A03F184
:1045B0000C011160094A0E3313607047682C00200B
:1045C000642C0020602C00205C2C0020582C002043
:1045D000542C0020502C00204C2C0020482C002073
:1045E000114A124B30B553F8213052F82140194688
:1045F000A342A8BF2146026802F1C8058D4206DB2E
:10460000A342B8BF234603F1C804A24202DD016001
:10461000002030BD8A4202DA01600120F9E79A42A7
:10462000FBDD0360F9E700BF682E0020602E00204C
:10463000012970B516D80C4B53F821400B4B53F899
:104640002150AC420ED0001B0CF0F8F80646281B97
:104650000CF0F4F8014630460CF0F8F904490CF07F
:1046600041F970BD0020FCE7682E0020602E00207C
:104670000000C842F8B5224B05461C68014620469A
:104680000CF0ECFA00B12C461E4B21461E68304659
:104690000CF0C6FA00B126461B4D31462F68344651
:1046A00038460CF0C7FA002198B130460CF0D6FA23
:1046B00068B1164B196838460CF00CF831460446C0
:1046C0000CF0CCFA00B1344620462C60F8BD104BFB
:1046D000F0E730460CF0B8FA0028F5D10021384652
:1046E0000CF0BCFA48B10020094B19680BF0F0FF40
:1046F000314604460CF094FAE4E73846F4E700BF8C
:104700004C2E0020442E0020142E0020382E002095
:104710003C2E0020F8B5054684200E461746FFF7CC
:1047200013F83146044628460CF084FAE0B94FF0FD
:10473000804130460BF0CEFF29460CF08FFAA8B12D
:1047400044F01001842089B2FFF71EF8124D3E6834
:10475000002130460CF078FAA0B1294630460CF022
:104760005FFA28B1344604E00C4DF0E70025EEE78F
:104770002C46284609493C600CF052FA003818BF14
:104780000120F8BD05F10044214630460CF066FAE0
:104790000028EED0E6E700BF000048420000C84213
:1047A0002DE9F843064628200D46FEF7D5FF304F89
:1047B000DFF8C08038602920FEF7CEFFC8F800007F
:1047C0008420FEF7C1FFD7F8009020F003040021F9
:1047D0004846A4B20CF042FA28B3002130680CF02D
:1047E00033FA254F28B3494628460BF071FF234979
:1047F0000CF078F8002105460CF012FA00B1002503
:104800003D603768294638460CF028FA44F0010329
:104810009BB2002818BF1C46294638460CF000FA07
:1048200000B13D4635602146BDE8F8438420FEF7DF
:10483000ABBF2846D8F800100BF04AFF0F490CF028
:1048400051F8002105460CF009FA00B100253D6041
:104850003768294638460CF0E3F944F002039BB26E
:10486000002818BF1C46294638460CF0F7F9D7E750
:10487000342E0020302E00201C2E0020000060402E
:104880002DE9F8430C46364D3649064628680CF0AB
:1048900029F821460BF01EFF4FF076510CF022F85C
:1048A00028602A20FEF758FF2F4FDFF8C0803860BD
:1048B0002B20FEF751FFC8F800008420FEF744FFCC
:1048C000D7F8009020F00C0400214846A4B20CF068
:1048D000C5F918B3002130680CF0B6F92D68244FE3
:1048E00010B3294648460BF0F3FE002105460CF0B4
:1048F00097F900B100253D603768294638460CF02D
:10490000ADF944F008039BB2002818BF1C462946A5
:1049100038460CF085F900B13D4635602146BDE8CA
:10492000F8438420FEF730BF2846D8F800100BF07B
:10493000D1FE002105460CF091F900B100253D6043
:104940003768294638460CF06BF944F004039BB2F3
:10495000002818BF1C46294638460CF07FF9DAE7D4
:10496000342D002000007041282E00202C2E002025
:10497000182E0020104B70B51A68066801EB02145F
:10498000A41A24110546002130461C600CF066F97B
:1049900088B10A4B1868001B48BF0330801020EA1A
:1049A000E0700BF04BFF0446014630460CF056F920
:1049B00000B126462E6070BD302D0020242E002030
:1049C000F8B50E4A064614780D4F0134E4B2312C86
:1049D0008ABF002323461C460A4D386855F8241028
:1049E00013700BF075FE31460BF074FE064938600B
:1049F00045F824600CF02AF8F8BD00BF382D0020DF
:104A0000042E00203C2D0020000048420000000041
:104A10002DE9F74F8046A02092468946FEF794FE86
:104A20000446A920FEF790FE074684EAE470A0EB56
:104A3000E4700BF003FFDFF8F8B10446DBF8005038
:104A400029460BF045FE002101900CF0E9F8019B8E
:104A500008B103F10043774A1946166830460CF056
:104A6000DFF850B1294620460CF0F8F8314600280E
:104A70003CD028460BF02EFE0446CBF80040002F19
:104A800000F0CE8020460CF009F90546BAF1000F7F
:104A900030D0632840F3C4800BF0D0FE664B8046D4
:104AA0001E6831460CF0BCF8002840F0B980634B1A
:104AB00040461F68624B39461C680CF0B1F888B15B
:104AC00030460CF0EBF8064620460CF0E7F8AD1B3C
:104AD000454338460CF0E2F8801B95FBF0F00BF0F4
:104AE000ADFE0446204603B0BDE8F08F28460BF02B
:104AF000EFFDC1E749464046FFF79AFD514B064698
:104B00001C68014620460CF0A9F8002876D1214601
:104B100030460BF0DDFD214606464B480BF0D8FD34
:104B2000014649480BF092FF31460BF0DBFE04468C
:104B3000464B20461C60FFF743FF014606462046D1
:104B40000BF0C6FD424980460CF06AF830B94FF0D0
:104B50007E5140460CF082F800B93446632D4FDD9B
:104B600028460BF06BFE344B8246D3F8008041465A
:104B70000CF056F8002843D1304B5046D3F8009043
:104B8000344B49461E680CF04BF898B140460CF087
:104B900085F8804630460CF081F8A5EB08054543C2
:104BA00048460CF07BF8A0EB080095FBF0F00BF00A
:104BB00045FE0646284D012F2E6023D12749304659
:104BC0000BF090FE05462549254B18680BF08AFE30
:104BD00029460BF07DFD21460BF084FE1A490BF0AF
:104BE00035FF29460BF076FD0BF06CFA0EA3D3E9E6
:104BF00000230BF0BFFA0BF017FD72E7002497E7D4
:104C00000026D7E72720FEF79FFD08B900232B6079
:104C1000124928680BF066FE10490546114BD4E78F
:104C200000245FE7AFF300809A9999999999B93F69
:104C3000102E0020202E0020582E00205C2E002058
:104C4000502E0020402E00200000C842082E0020D8
:104C5000000080BF542E00200C2E002000002041B8
:104C60004C2E0020482E00202DE9F3411F4C064613
:104C70002C201F460D4690460194FEF76DFD01AABB
:104C800001464046FFF746FD2D20FEF765FD01AACF
:104C900001463846FFF73EFD314601A8FFF780FD8B
:104CA000294601A8FFF7ECFD089901A8FFF762FE6D
:104CB000214601980BF0CAFE4FF07E5104460BF0DE
:104CC000CDFF20B9002120460BF0AAFF60B94FF0BC
:104CD0007E5120460BF0C2FF20B14FF07E5002B053
:104CE000BDE8F0812046FAE70020F8E70000C8425E
:104CF000F7B51E461F4B05462C2001930C46174660
:104D0000FEF72AFD01AA01463846FFF703FD2D20D4
:104D1000FEF722FD01AA01463046FFF7FBFC2946BB
:104D200001A8FFF73DFD214601A8FFF7A9FD08995D
:104D300001A8FFF71FFE01980F4900F100400BF09A
:104D400085FE4FF07E5104460BF088FF20B900210C
:104D500020460BF065FF58B94FF07E5120460BF00E
:104D60007DFF18B14FF07E5003B0F0BD2046FBE749
:104D70000020F9E70000C8C20000C842024B00BF93
:104D8000013BFCD1704700BF00127A0010B5044609
:104D9000002240F2215102F048FA002240F2225152
:104DA000204602F042FA002240F22351204602F04F
:104DB0003CFA002240F22451204602F036FA00224A
:104DC00040F22551204602F030FA002240F22651EE
:104DD000204602F02AFA002240F22751204602F033
:104DE00024FA2046BDE8104000224FF4A56102F0ED
:104DF0001CBA0000002313B5054A40F21141CDE969
:104E0000002303686A465C680823A04702B010BD0F
:104E1000340001003222002313B5CDE900230368DA
:104E20006A465C6840F211410823A04702B010BDF9
:104E3000002313B5054A40F21141CDE90023036870
:104E40006A465C680823A04702B010BD3401010027
:104E50002DE9F7430026174B05461E702024FFF767
:104E6000C9FF4FF04209FFF789FF4FF4C8482B688C
:104E700001966A4640F2114128465F688DF800406D
:104E800008238DF80190ADF802800134B847E4B2F0
:104E90002846FFF773FFFFF7BDFFFFF76FFF292CD1
:104EA000E5D12846FFF7C4FFFFF768FF03B0BDE870
:104EB000F08300BFE81C0020D0F80220014B1A60EC
:104EC000704700BF8C2E0020D0F80220014B1A60E2
:104ED000704700BF7C2E0020D0F80220014B1A60E2
:104EE000704700BF782E0020D0F80220014B1A60D6
:104EF000704700BF742E0020054A138801331380C9
:104F00000A22D0F8023093FBF2F3024A1360704792
:104F1000902E0020702E0020D0F80220014B1A6045
:104F2000704700BF842E0020D0F80220014B1A6089
:104F3000704700BF882E0020D0F80220014B1A6075
:104F4000704700BF802E00206FF4A463C31808468A
:104F5000072B15D8DFE803F00406080A0C0E101220
:104F6000FFF7AABFFFF7B0BFFFF7B6BFFFF7BCBFA1
:104F7000FFF7C2BFFFF7D0BFFFF7D6BFFFF7DCBF19
:104F800070470161704741617047007A7047007A4D
:104F900070470023C372704710B504460022616059
:104FA00008464FF4987102F040F900224FF43F7127
:104FB000606802F03AF900224FF49061606802F0F4
:104FC00034F960680022BDE810404FF4D07102F05F
:104FD0002CB900002DE9F0410025BCB08846F02234
:104FE00068460F490BF0E6FE6C4614262F462068F3
:104FF0000BF024FC41460BF01DFE08B1D4E901750D
:10500000013E04F10C04F2D139467320FEF7BCFBDB
:10501000294674203CB0BDE8F041FEF7B5BB00BFA7
:105020006C29010810B404686468A44610BC604789
:10503000037E73B50446002B50D0A920FEF784FBF5
:10504000324B00284CD10321314A20731170E122E8
:105050001A701B782F4D8DF800300C238DF801301D
:105060008F238DF802302B7860688DF80330F023A1
:105070008DF8043003686A464FF4E9715E680523D1
:10508000B0472B783B201033DBB2ED2B08BF0D234C
:105090002B70FEF759FB204BC0B21A78824215D014
:1050A0004FF40952ADF8002000228DF802204FF095
:1050B000FF32019230BB30228DF8032018706A460F
:1050C000082340F292516068FFF7ACFF23689420F8
:1050D0001D6AFEF741FB01462046A84702B070BD9D
:1050E000421C06D1012202212273094A1170D222E8
:1050F000AEE70128ADD1032208212273044A1170C2
:105100007822A5E70828D9D13122D5E7EE1C002066
:10511000ED1C0020982E0020922E00200B7803F02A
:10512000010343720B78C3F3800303720B78C3F35C
:10513000001383728B78C3F3C0034376704700007B
:1051400008B54B7808781B0203F4706318440AF022
:10515000A7FF09A3D3E900230BF00CF80BF064FAC6
:1051600007490BF0BFFBBDE808400146A120FEF750
:1051700019BB00BFAFF300809A9999999999B93FEB
:105180002B121F3F0B78842B03D10121E420FEF763
:10519000FBBA812B01D10021F8E770474B78323BF5
:1051A00018BF0123037670470B46B3F53F7F1146C6
:1051B0000FD006DCB3F5987F07D0B3F5D07F06D0CB
:1051C0007047B3F5906F06D07047FFF7A7BFFFF7A2
:1051D000B7BFFFF7D7BFFFF7E1BF000003682DE9B6
:1051E000F74F5B6B05460E469847634C002800F06E
:1051F000BD80A020FEF7A8FA40F2ED23984240F3CC
:10520000B280A020FEF7A0FA800080B2072294218D
:10521000237843F0500300278DF802200A44AA3275
:1052200002EB10228DF80130ADF804001344C0B237
:10523000034403EB23236A4668688DF806108DF853
:105240000030AA2108238DF807708DF80370FFF74E
:10525000E9FEBE420CBF04226422DFF820A14FF019
:105260000F0B9AF80010DFF8189101F5FC73134446
:1052700003EB13238DF800304EF22103ADF802301A
:1052800041F6217368688DF80110ADF80430A8214B
:1052900008238DF807206A46DFF8E8808DF806B00D
:1052A000FFF7C0FE99F800306A468DF8003098F894
:1052B0000030A9218DF801304DF67973ADF8023038
:1052C000314B686801930823FFF7ACFE2F4E304B3B
:1052D0003278197868688B188DF80010FF2103F573
:1052E000E47303EB13238DF801108DF80530BA2118
:1052F00007238DF806206A46ADF802B08DF80470D9
:10530000FFF790FE23782349013323700B78224A5C
:1053100001330B709AF80030307801338AF800308E
:1053200099F800300130013389F8003098F80030E6
:105330003070013388F8003013780133DBB25C2B16
:1053400013700DD1BE230B70E92389F800304D2373
:105350001370802327708AF8007088F8007033700B
:1053600003B0BDE8F08F40F6B8304FE72378FE2257
:10537000842143F030034EE7932E0020952E002029
:10538000EB1C0020942E00201DC7E021E91C00200A
:10539000ED1C0020EC1C0020EA1C0020037E10B550
:1053A000044643B1B520FEF7E5F901462046BDE8C5
:1053B0001040FFF713BF10BD73B506467F20FEF700
:1053C000C3F9012815BF00239C231A469E224FF0E3
:1053D0008E0014BF1D4660258DF804308DF8052021
:1053E000FEF7BAF9014621480BF072F9204904464C
:1053F0000BF034FC002835D120460BF04FFC642321
:1054000058434FF4FA7390FBF3F032300BF016FA76
:1054100018490BF05FF93C23174C8DF800300BF066
:1054200063FC23786A461D43C3238DF8033048F29A
:10543000CD234FF4E8718DF80100ADF806307068A7
:1054400008238DF80250FFF7EDFD0C4A2178137800
:105450008B4209D10133DBB20F2B08BF002323702D
:1054600002B070BD0648D6E71170F9E70000C842E7
:105470000040034400004042972E0020962E00205A
:1054800000001643037E73B50446A3B148F26123BE
:105490000093C37A63B9032560686A46036840F2E3
:1054A00032315E680223B047013DF5D10123E3723A
:1054B0002046FFF781FF02B070BD01617047416176
:1054C0007047007A7047007A70470023C3727047B4
:1054D00010B504460022616008464FF4987101F04F
:1054E000A4FE00224FF43F71606801F09EFE00228E
:1054F0004FF49061606801F098FE00224FF4D07183
:10550000606801F092FE60680022BDE8104040F241
:10551000FE3101F08ABE08B51620FEF715F90146E6
:105520007320FEF731F91620FEF70EF9BDE80840AA
:1055300001467420FEF728B9037E73B50446002B9C
:1055400050D0A920FEF700F9324B00284CD103219E
:10555000314A20731170E1221A701B782F4D8DF89B
:1055600000300C238DF801308F238DF802302B781A
:1055700060688DF80330F0238DF8043003686A46C4
:105580004FF4E9715E680523B0472B783B20103358
:10559000DBB2ED2B08BF0D232B70FEF7D5F8204BA7
:1055A000C0B21A78824215D04FF40952ADF80020EB
:1055B00000228DF802204FF0FF32019230BB3022E2
:1055C0008DF8032018706A46082340F292516068F3
:1055D000FFF728FD236894201D6AFEF7BDF80146F9
:1055E0002046A84702B070BD421C06D1012202210C
:1055F0002273094A1170D222AEE70128ADD10322ED
:1056000008212273044A11707822A5E70828D9D10D
:105610003122D5E7F41C0020F31C0020A62E002028
:10562000A02E00200B7803F0010343720B78C3F324
:10563000800303720B78C3F3001383728B78C3F378
:10564000C00343767047000008B54B7808781B020A
:1056500003F4706318440AF023FD07A3D3E9002381
:105660000AF088FD0AF0E0FFBDE808400146A120ED
:10567000FEF798B8AFF300809A9999999999B93F34
:1056800010B50B780C46842B0BD10121E420FEF7DA
:105690007BF86178E520BDE8104001F00101FEF7DC
:1056A00073B8812BF5D10021F0E74B78323B18BF5E
:1056B00001230376704708B5B1F900000BF0BEF87E
:1056C0004FF074510BF00EF9BDE808400146A320DD
:1056D000FEF768B80978BB208B1E59425941FEF786
:1056E00053B80B46B3F53F7F114615D008DCB3F530
:1056F000987F0DD0B3F5D07F0CD0B62B10D070476B
:1057000040F2FE3293420DD0B3F5906F06D0704751
:10571000FFF788BFFFF798BFFFF7B2BFFFF7C5BF1E
:10572000FFF7C9BFFFF7D6BF03682DE9F74F5B6BE3
:1057300005460E469847634C002800F0BD80A02027
:10574000FEF702F840F2ED23984240F3B280A02029
:10575000FDF7FAFF800080B207229421237843F0FE
:10576000500300278DF802200A44AA3202EB1022CF
:105770008DF80130ADF804001344C0B2034403EBCC
:1057800023236A4668688DF806108DF80030AA2138
:1057900008238DF807708DF80370FFF743FCBE42B5
:1057A0000CBF04226422DFF820A14FF00F0B9AF8FF
:1057B0000010DFF8189101F5FC73134403EB132379
:1057C0008DF800304EF22103ADF8023041F621731E
:1057D00068688DF80110ADF80430A82108238DF811
:1057E00007206A46DFF8E8808DF806B0FFF71AFC5C
:1057F00099F800306A468DF8003098F80030A921F9
:105800008DF801304DF67973ADF80230314B686890
:1058100001930823FFF706FC2F4E304B327819789E
:1058200068688B188DF80010FF2103F5E47303EB13
:1058300013238DF801108DF80530BA2107238DF858
:1058400006206A46ADF802B08DF80470FFF7EAFB57
:1058500023782349013323700B78224A01330B70DC
:105860009AF80030307801338AF8003099F8003027
:105870000130013389F8003098F80030307001337E
:1058800088F8003013780133DBB25C2B13700DD134
:10589000BE230B70E92389F800304D231370802359
:1058A00027708AF8007088F80070337003B0BDE884
:1058B000F08F40F6B8304FE72378FE22842143F082
:1058C00030034EE7A12E0020A32E0020F11C002063
:1058D000A22E00201DC7E021EF1C0020F31C002099
:1058E000F21C0020F01C0020037E10B5044643B1DA
:1058F000B520FDF73FFF01462046BDE81040FFF709
:1059000013BF10BD2DE9F3470646AA20FDF724FF7B
:105910000446AB20FDF720FF5549054620460AF016
:10592000D9FE002104460BF07BF9002840F08B8063
:10593000204650490BF092F9002840F0868020461E
:105940000BF0D2F907464A4928460AF0C3FE002167
:1059500004460BF065F9002879D1204645490BF043
:105960007DF9002875D120460BF0BEF905467F2051
:10597000FDF7EAFE01284FF00004DFF8FC806FD14C
:105980003D20FDF7E9FE81461620FDF7E5FE2146A4
:1059900082460BF063F900285DD0514648460BF073
:1059A00055F804468A20FDF7D7FE002181460BF00A
:1059B00037F9002852D0314909F100400AF092FF2E
:1059C00021460BF043F82E490AF08CFFD8F800105E
:1059D0000AF080FE4FF08F4104460BF035F928B1F4
:1059E00020464FF08F410AF073FE04462046C8F867
:1059F00000400BF079F96023ADF80400214C4FF41E
:105A0000E8712278706813438DF80230C3238DF853
:105A1000033049F2CD636A46ADF8063008238DF8AD
:105A200000708DF80150FFF7FDFA174A21781378BE
:105A30008B421BD10133DBB20F2B08BF0023237035
:105A400002B0BDE8F08700277DE7CF277BE7002580
:105A50008DE7CF258BE74FF07E54A3E70020AFE71B
:105A60000023C8F80040ADF80430C7E71170E7E73D
:105A70000000404200004F439C2E00205304E937B1
:105A800000247449A52E0020A42E0020037E73B5A7
:105A90000446A3B148F261230093C37A63B9032596
:105AA00060686A46036840F232315E680223B0479C
:105AB000013DF5D10123E3722046FFF723FF02B039
:105AC00070BD4069704708B5B0F908000AF0B6FE2D
:105AD00008BD08B5B0F90C000AF0B0FE08BD000022
:105AE000014B1878704700BF382F002000000000DD
:105AF00038B51D48FEF7EAFC05461C48FEF7E6FCF3
:105B0000044628460AF0CCFA13A3D3E900230AF08E
:105B100031FB13A3D3E900230AF076F90AF084FDE0
:105B2000054620460AF0BCFA0BA3D3E900230AF08D
:105B300021FB0BA3D3E900230AF066F90AF074FDF8
:105B40000446014628460BF089F808B1284638BDBE
:105B50002046FCE7AFF300801213371BE91495BF12
:105B6000988F7B2556484C40502C00204C2C002010
:105B700038B505460C461A48072109F065F8072193
:105B8000184A174809F0E2F82A460721144809F094
:105B9000E6F8A2B20721124809F0F1F807211048EF
:105BA00009F0B9F807210E4809F096F800220721FC
:105BB0000B4809F084F800220721094809F072F81F
:105BC0004FF480520721064809F05FF80448072186
:105BD00009F0AAF8BDE83840034809F0CFBE00BF7D
:105BE00000000240044400400044004010B5044658
:105BF0000621194809F028F80621184A164809F024
:105C0000A5F80621164A144809F0A9F8A2B20621FF
:105C1000114809F0B4F806210F4809F073F806217D
:105C20000D4809F059F8002206210B4809F047F801
:105C300000220621084809F035F80022062106480E
:105C400009F023F80448062109F06EF8BDE8104079
:105C5000044809F08EBE00BF00000240044400402A
:105C6000A72E00200044004038B504463420FDF73C
:105C70006BFD00B20228E0811FD1344D344B2878EF
:105C8000002832D141F65832B4F90C10914201DDAE
:105C900001221A7019782F4A884248D001231370C4
:105CA0002D4B93F900002D4B10B918780130187066
:105CB0001878042822D108B2E081012808D12848A8
:105CC000FBF716FE2748FBF713FE2748FBF710FEED
:105CD000B4F90E30C3B92248FBF70AFE2148FBF79E
:105CE00003FE2148FBF700FE0EE00128D2D1B4F9F3
:105CF0000C20B2F5FA6FCDDA0022CAE7052803D1ED
:105D00002970002119701170B4F90E30032B0DD1D8
:105D1000A920FDF719FD013011480DD1FBF7E8FD71
:105D20001048FBF7E1FD1048FBF7DEFD38BD00230E
:105D300000B2E0811370C0E7FBF7DAFD0948FBF71A
:105D4000D7FD0948FBF7D4FDF0E700BF352F002051
:105D5000342F0020372F0020362F0020332F002033
:105D6000B02B0020C02B0020B82B0020000000002A
:105D70002DE9F74F064612208846FDF7E5FC8E4BCD
:105D8000C4B21B78012B40F0B4803046FFF76CFFA3
:105D900040468A490AF0A6FD89490AF057FE0AF0F2
:105DA0007DFF884D884F95F900A0388050460AF055
:105DB00045FD41460AF096FD0AF084F97CA3D3E93B
:105DC00000230AF0D7F90AF02FFC804981460AF037
:105DD00089FD7B490AF03AFE0AF060FFDFF8F0B176
:105DE000DFF8F0819BF800203062A8F80000002A5C
:105DF00000F0D880BAF1000F2EDD2420FDF7ACFCB6
:105E0000019095F900000AF019FD73498246019846
:105E10000AF068FD014650460AF05AFC0AF03EFFBF
:105E200040B200283DDB6328287015DC9BF8003069
:105E300093B92420FDF790FC824695F900000AF002
:105E4000FDFC51460AF046FC0AF028FF40B26428E7
:105E5000CABF642328702B70B6F90E3023BB002113
:105E600048460AF0DDFEF8B1B8F900000AF018F96A
:105E700000225A4B0AF07EF90AF08EFBA8F80000C7
:105E8000B7F900000AF00CF90022544B0AF072F93D
:105E90000AF082FB3880032C14D8DFE804F00B10E2
:105EA0000E1B00222A70C1E7032C0BD8DFE804F098
:105EB0000207050D336A002B04DA434B00E0454B23
:105EC00000221A8003B0BDE8F08F484644490AF02A
:105ED000C5FE10B900233B80F4E748460AF0DEFE19
:105EE00041F2171332385843322390FBF3F03880D5
:105EF000E8E7022B1ED1354940460AF0F3FC304951
:105F00000AF0A4FD0AF0CAFE324A03B2138013EB72
:105F100083032D4948BF03339B1030620B800CB9BB
:105F2000A042C9E7012C02D100231380CAE7022C4A
:105F3000C8D1C2E7032BC5D1244940460AF0D2FCA0
:105F40001F490AF083FD0AF0A9FE224A03B213801A
:105F500013EB83031C4D48BF03339B1030622B802F
:105F6000032CAFD801A353F824F000BF7D5F0008D5
:105F7000BF5E0008BB5E0008815F000800289BE749
:105F8000404617490AF06AFE08B928809AE7404659
:105F90000AF084FE41F2171332385843322390FB43
:105FA000F3F0F2E7BAF1630F3FF756AF41E700BFF6
:105FB0007B14AE47E17A843F432F002000B8884528
:105FC0000000C842362F00203C2F002000C05A4558
:105FD000372F00203A2F00200000A0400000E03FB3
:105FE0000000484210B57F20FDF7AEFB08B902F073
:105FF00087FF7F20FDF7A8FB012841D12148FBF74F
:1060000059FC0146BC20FDF7BFFB1F48FBF752FCC3
:106010000146BD20FDF7B8FB1C48FBF74BFC0146D1
:10602000BE20FDF7B1FB1948FBF744FC04461648B7
:10603000FBF740FC84F0010380F001046400114888
:1060400044EA8304FBF736FC80F0010044EA0003D5
:106050005BB20F4C062B237003D10021C120FDF74A
:1060600093FB2378052B03D10121C120FDF78CFB85
:106070003520FDF769FBBDE8104080B202F040BF5B
:1060800010BD00BFA82B0020A02B0020982B0020C3
:106090003E2F0020034B1B78012B01D1FFF7A2BF3D
:1060A000704700BF432F002000220B4870B51346F5
:1060B00005468C1E944209DC294411F8012C285D08
:1060C00040EA0220C31A5842584170BD10F8016BD3
:1060D000013233449BB2EDE7A72E0020002070B5BB
:1060E000084C034622468D1E854205DC53550A4462
:1060F0001B0A02F8013C70BD14F8016B01303344F7
:10610000F2E700BF27220020F8B5B94D04462B78EE
:106110000E2B3ED8DFE813F00F0016003B003E00C8
:106120007600B800BA00D900DB00070160018601E3
:106130009F01A101CA016420FFF758FDAD48FBF79C
:10614000D7FB1EE0AC4CAB48FBF7CEFB23787BB90A
:1061500002220721A94808F08EFD90B107210222F2
:10616000A64808F082FD5021A548FFF701FD08E090
:106170005021A448FFF7FCFCA34B5B7823B9012313
:1061800023702B78013303E02378013BF8E70323E6
:106190002B70F8BD6421FFF787FF9B4E9B4F38B9EA
:1061A000014638706081A081B120FDF7EDFA23E04F
:1061B00002220621914808F05EFD0028F0D002225C
:1061C00006218E4808F051FD01233B70B6F852308D
:1061D000053B03EBD3735B10238196F92A000AF089
:1061E0002DFB606196F956000AF028FBF388A06148
:1061F0006381B6F81F30A381002386F8623086F8E9
:106200006330BEE7824EA220B6F90010FDF7BCFA5B
:106210006189A2897A4B0A44712112B292FBF1F290
:106220007C491A70B1F900200978880083F84B0086
:106230009011524212129A711A73B6F90020494213
:106240005971D9729A76110A83F82020782283F83E
:106250003F20EC2283F840206C2283F841206B22FF
:1062600083F84C00D97683F821102046502183F81A
:106270004220FFF733FF684A1388642B8CBF00234A
:1062800001331380002383E7782055E75A4C59489F
:10629000FBF72AFB2378052B0ED90222072157484A
:1062A00008F0E9FC00283FF46CAF072102225348B4
:1062B00008F0DBFC642157E76421584801FB030028
:1062C000FFF756FC237801335AE7082360E778216B
:1062D000FFF7EAFE4C4E4D4F00283FF461AF02221B
:1062E0000621464808F0C7FC00283FF459AF0222B7
:1062F0000621424808F0B9FC01233B70B6F864302F
:10630000053B03EBD3735B10238196F914000AF06D
:1063100095FA6061B6F856000AF090FAF388A06129
:106320006381F38C67E73A4EA220B6F90010FDF7BF
:106330002BFA384B206AB3F90020314B11125A71F5
:10634000DA72B6F900209971197300284FEA122108
:106350009A77D97736DD9A7602EBD27252101A7795
:10636000120AD9765A77752183F84A10122183F8D8
:106370004B106021402283F84C10252183F84820DF
:10638000042283F84D10522183F8492083F84F20CE
:10639000892283F84E10224983F8562083F858202A
:1063A0000A78204601320A70D20748BF93F85E206F
:1063B0004FF0640144BF013283F85E20FFF78EFE88
:1063C0000523E5E6CFD01A7702EBD27252109A7607
:1063D000120A5977DA76C6E77F20FDF7B5F901286A
:1063E0001CBF0022044B4FF08C0018BF1A70A3E6AC
:1063F000422F0020902B002090220020000002401D
:1064000027220020A92B0108A72E0020382F0020CA
:106410003A2F00203C2F0020402F00206B1F00202F
:106420003F2F0020384C3948FBF75EFA2378062BC3
:106430000ED902220721364808F01DFC00283FF43F
:10644000A0AE07210222324808F00FFC69218BE63A
:106450006921304832E70D239AE68C21FFF724FEAC
:106460002D4E08B302220621294808F004FCD8B1B9
:1064700002220621264808F0F8FB01233370274E3C
:10648000B6F875305B10238196F914000AF0D6F93E
:106490006061B6F819000AF0D1F97389A0616381CF
:1064A000B6F82B30A3816CE630706AE61C4EA22051
:1064B000B6F90010FDF768F91A4B2046B3F9002031
:1064C000194B524211125A71DA72B6F900209971C1
:1064D000DA77121283F820209A7E197383F8252028
:1064E000DA7E692183F82620782283F84F20EC2277
:1064F00083F85020102283F85120272283F852205D
:10650000FFF7ECFD0A2343E690220020902B0020A9
:1065100000000240F51C0020382F0020A72E00208C
:106520003A2F00203C2F00202722002038B5037F7F
:1065300004468B420D460AD051B15F20FDF704F9A5
:1065400008B9FCF7A7FEFCF7DBFE0123237738BD73
:106550004FF0804009F052F82577F8E708B501219F
:10656000FFF7E4FF0B4B1A78042A04D805221A70AF
:106570000022094B1A7000230849094A11F8010B3F
:106580000133642B02F8010BF8D10222054B1A707B
:1065900008BD00BF422F002090220020DC2A010805
:1065A00027220020432F002008B50121FFF7BEFF5E
:1065B000064B1A78042A04D900221A700122044BCF
:1065C0001A700122034B1A7008BD00BF422F002031
:1065D00090220020432F0020012108B5FFF7A6FFDD
:1065E0000A4B0B491A78092A9CBF0A221A7000220A
:1065F000084B1A706923084A11F8010B013B02F895
:10660000010BF9D10322054B1A7008BD422F00205F
:10661000402B01089022002027220020432F002039
:106620000021FFF783BF01817047000008B50846CD
:106630000AF034FBA622A0F10F035343412293FB3F
:10664000F2F3024A5833138008BD00BF442F0020E4
:10665000B420FDF78FB810B50446002261600846EB
:1066600040F2531100F0E1FD60680022BDE81040E7
:1066700040F2F31100F0D9BD40F25313994210B526
:10668000044610D1B2F80100A0F5B0700AF0D6F8B7
:106690004FF076510AF026F90146A120FDF782F865
:1066A0000123E37203E040F2F3139942F8D010BDE6
:1066B00010B50446C07A10B90348FBF7FBF8002375
:1066C0002073E37210BD00BF502B002008B50248B4
:1066D000FBF7F0F808BD00BF502B002007B540F2D3
:1066E000EE22038940F21631934238BF1346052249
:1066F000ADF8002041F65832934228BF13460A22D3
:106700009B01B3FBF2F3ADF8023000236A4601931C
:1067100040680823FEF786FC03B000BD13B5154A98
:106720000024137814498DF80030144B01941B8811
:106730008DF80130C523ADF802300B780133DBB2A0
:10674000152B0CD80B7063B91123137008236A46FC
:1067500040F229314068FEF765FC02B010BD0C70B4
:10676000F2E7082B01D18623EFE70F2BEED1D923D7
:10677000EBE700BF482F0020492F0020442F0020C6
:10678000462313B5ADF80430002340688DF8063079
:10679000036840F23B415C6801AA0323A04702B0B2
:1067A00010BD000007B50C4A40F2455113884068FF
:1067B0000133138000228DF801301B0A8DF802305E
:1067C000064B8DF800208DF8032001936A460823BC
:1067D000FEF728FC03B000BD462F00207E100018F5
:1067E00007B5C9B1012919D001310CBF072308230E
:1067F0008DF801304FF6FF738122ADF80230084B5F
:106800008DF8002001936A46082340F23F4140681A
:10681000FEF708FC03B000BD0623E9E70523E7E720
:106820000080FFFF037B10B50446BBB1FFF756FFA6
:106830002046FFF773FF2046FFF7B4FF2046FFF71F
:106840009FFF0320FCF796FF40B1A920FCF77CFFD7
:1068500041B22046BDE81040FFF7C2BF10BD018124
:1068600070477047B420FCF785BF000008B5084B9F
:10687000186899889B792BB108F0EDFBB0FA80F08D
:10688000400908BD08F0E7FB003818BF0120F8E711
:10689000502B002030B51F4A1F4B89B0CDE9012392
:1068A0001E491F4B1F4CCDE903131F4B1F4D059372
:1068B0000023ADF8193023784FF4B06163F07F0303
:1068C0008DF818302B68406820336B4413F81C2C6B
:1068D0008DF81B2013F8182C8DF81C2013F8142C9D
:1068E0008DF81D2013F8102C13F80C3C8DF81E2089
:1068F0008DF81F3006AA0823FEF794FB2B6801339E
:1069000003F003032B602378013303F00F0323709C
:1069100009B030BD0F287F281E1000107056F056A9
:106920000C48A7484A2F0020469028904C2F002062
:1069300037B540F2EE2203890025934238BF134653
:1069400041F65832934228BF1346044603819A0009
:106950009B09CDE900554FF420718DF803308DF877
:10696000042008236A464068FEF75CFB08236A4659
:106970004FF4227160688DF803508DF80450FEF7D3
:1069800051FB03B030BD000008B5034BB3F9000064
:1069900009F054FF08BD00BF5C2F002008B5034B71
:1069A000B3F9000009F04AFF08BD00BF5E2F0020C8
:1069B00008B5024B188809F03DFF08BD622F002082
:1069C00008B5034BB3F9000009F038FF08BD00BF5C
:1069D000602F0020064B1A78064B0AB91A7001E0A6
:1069E000012AFBD0044A126802B91A70187870475D
:1069F000582F0020592F0020542F002010B5044696
:106A00000022616008464FF4C87100F00EFC0022BD
:106A10004FF4CD71606800F008FC00224FF4D27191
:106A2000606800F002FC60680022BDE810404FF48E
:106A3000D77100F0FABB00002DE9F3410646084685
:106A4000354909F04FFF0AF029F9344B01B2A22071
:106A50001980FCF799FE7F20FCF776FE0546B620EC
:106A6000FCF788FE00284DD06B1E5C425C41E400C0
:106A7000B720FCF77FFE28B104F11003DBB2012D33
:106A800008BF1C46B520FCF775FE012D04EB800401
:106A90003AD1234A138813B1013B13800234A42056
:106AA000FCF752FEC0F30B05A520FCF74DFE804617
:106AB000DD20FCF749FE00F00307B120FCF744FE9F
:106AC000184B45EA046503EA08331D43C0F30D0083
:106AD00040EA873045EA87750190009508F092F802
