:020000040800F2
:101000000050002079FC000875FC000873FC000803
:1010100073FC000873FC000873FC0008000000006B
:1010200000000000000000000000000075FC000847
:1010300075FC00080000000075FC000875FC000845
:1010400073FC000873FC000873FC0008A12800086A
:1010500073FC000873FC000873FC000873FC0008B4
:1010600073FC000873FC000873FC000873FC0008A4
:1010700073FC000873FC000873FC000873FC000894
:1010800073FC000873FC000873FC00080983000867
:10109000E9820008F982000873FC000873FC00086C
:1010A00073FC000873FC000873FC000873FC000864
:1010B00073FC000873FC00085128000873FC00084A
:1010C00073FC000873FC000873FC000873FC000844
:1010D00073FC000873FC000873FC000873FC000834
:1010E0005D28000873FC000873FC000873FC00080E
:1010F00073FC000873FC000873FC000873FC000814
:1011000073FC000873FC000873FC000873FC000803
:1011100073FC000873FC000873FC000873FC0008F3
:1011200073FC000873FC000873FC000873FC0008E3
:1011300073FC000873FC000873FC0008358300088A
:10114000158300082583000873FC000873FC000861
:1011500010B404466468084611461A46234610BC7B
:101160001847836818477047704770477047704743
:1011700041607047704770477047704770477047CD
:1011800070470020704700207047000000487047FB
:101190000000484200207047416070477047704728
:1011A0007047704770470020704741607047704734
:1011B0007047704770477047002070477047416024
:1011C00070470020704770477047704770477047FE
:1011D000002070477047416070477047002070479B
:1011E00070474160704770470846704770477047C6
:1011F0007047704700487047003C1C46416070478C
:10120000704770477047704770474160704770473C
:101210000020704700207047002070470020704772
:101220000020704770477047104B10B5186803686E
:101230001B6898470E4B186803681B6898470D4B4E
:10124000186803681B6898470B4B186803681B688D
:1012500098470A4B186803681B689847BDE8104018
:10126000074B186803689B68184700BF24000020DC
:101270002000002018000020140000201000002092
:101280000800002010B5174C206803689B69984738
:10129000052002F08BFA062818D8DFE800F0040ACF
:1012A0000C0E1012200000220F4B1A700F4B2360FF
:1012B0000CE00F4BFBE70F4BF9E70F4BF7E70F4B3A
:1012C000F5E701220E4B23600E4B1A700E4C20687E
:1012D00005F0CCFF6068BDE8104005F0C7BF0B4BC0
:1012E000E5E700BF18000020622B0020402A002004
:1012F000382A0020302A0020602A0020582A0020A6
:10130000182A0020382B0020542B0020502A0020BF
:1013100010B5114C20680368DB699847042002F07F
:1013200045FA042806D8DFE800F003100E12140076
:101330000A4B23600A4C206805F098FF6068BDE8FE
:10134000104005F093BF074BF3E7074BF1E7074B5E
:10135000EFE7074BEDE700BF14000020482A00200C
:10136000542B0020102A0020082A0020002A0020E8
:10137000F829002010B5124C206803685B68984774
:10138000062002F013FA0138052815D8DFE800F02E
:10139000160E0E0310120B4B23600B4C206805F049
:1013A00065FF6068BDE8104005F060BF074BF3E7DC
:1013B000074BF1E7074BEFE7074BEDE7074BEBE791
:1013C0000C0000201C280020542B0020EC270020BB
:1013D000B027002064270020442800202428002073
:1013E00010B50B4C206803685B689847492002F0F1
:1013F000DDF9084A084B012808BF13462360074C53
:10140000206805F033FF6068BDE8104005F02EBF8E
:10141000080000204C2700205C270020542B0020CF
:10142000022010B502F0C2F90138032815D8DFE810
:1014300000F0020E10120A4B0A4C0B4A206813608F
:1014400005F014FF6068BDE8104005F00FBF074BC2
:10145000F2E7074BF0E7074BEEE7074BECE700BF7F
:1014600094280020542B0020100000207C2800200D
:1014700070280020882800204027002010B5012077
:1014800002F094F909280FD8DFE800F0171C2B0EA2
:1014900005091F222528144B144A1A6004E0124A39
:1014A000134B136000229A72124C206805F0DEFE86
:1014B0006068BDE8104005F0D9BE0B4A0C4B1360C4
:1014C0000122F0E7084B0C4AE7E7074B0B4AE4E739
:1014D000054B0B4AE1E7044B0A4ADEE7024B0A4A96
:1014E000DBE7014B094AD8E72000002058280020FC
:1014F000C82A0020542B0020F42A0020BC2A0020F7
:10150000A42A0020102B0020D82A00204C280020DC
:10151000036810B59B6898470FF024FD002401462E
:101520009B2002F063F92146962002F06DF92146D6
:10153000972002F069F92146992002F065F92146C9
:10154000BDE810409A2002F05FB9000010B51C4CB5
:10155000206803689B6A9847002002F027F9092851
:101560000FD8DFE800F005080A0E271C2117292BE9
:10157000144B236005E0144BFBE71448206005F092
:1015800017F8134C206805F071FE6068BDE8104044
:1015900005F06CBE0D48206005F022F8F1E70B481D
:1015A000206004F0DFFFECE70A4B012223600A4BC6
:1015B0001A70E6E7094BDCE7094BF6E7094BD8E779
:1015C00024000020E8290020682A0020802A00202A
:1015D000542B0020C8290020382B0020F02900209F
:1015E00020270020EC26002010B5144C206803684A
:1015F0001B699847512002F0D9F8032805D8DFE885
:1016000000F0020D0F160E4B23600E4C206805F003
:101610002DFE6068BDE8104005F028BE0A4BF3E7D8
:101620000A4B0B48196820600BF0E4F9EDE7012242
:10163000084B2360084B1A70E7E700BF1C0000202E
:10164000C0290020542B0020B4290020E8260020C7
:1016500060280020A8290020382B0020B52002F0A7
:10166000BBB800002DE9F74F082002F09FF8484C66
:1016700054F820100920019102F098F854F82060E5
:101680000A2002F093F854F820500B2002F08EF854
:1016900054F820A00C2002F089F854F820B00D2056
:1016A00002F084F854F820900E2002F07FF854F8ED
:1016B0002070102002F07AF854F82080112002F0F7
:1016C00075F854F8203001990093324B186803687C
:1016D000DB6A9847304B314618680368DB6B9847E4
:1016E0002E4B594618680368DB6998472C4B5146C6
:1016F000186803681B6A98472A4B494618680368AC
:101700001B699847284B4146186803685B699847EE
:10171000264B3146186803689B6998473946244828
:1017200009F0AAFF234B0099186803685B69984782
:10173000072002F03BF8012802D1284603F056FBAF
:10174000072002F033F8022802D1284609F024F9D4
:10175000072002F02BF8032802D1284609F072FB7B
:10176000072002F023F8042802D128460DF0A6F83D
:10177000002240F20161606805F05BFD002240F24A
:101780000161206803B0BDE8F04F05F052BD00BF15
:10179000542B0020240000202000002018000020EE
:1017A000140000200C000020080000201000002081
:1017B000482700201C00002038B540F2DF73984213
:1017C00004460D4606D10A460146314809F05CFF41
:1017D000002038BD072001F0E9FF012803D1294688
:1017E000204603F0E1FB072001F0E0FF022803D1CF
:1017F0002946204609F010F9072001F0D7FF0328F9
:1018000003D12946204609F04FFB072001F0CEFF07
:10181000042803D1294620460DF072F81D4B2A46B4
:10182000186821460368DB6898471B4B2A461868EE
:10183000214603681B699847184B2A4618682146B9
:1018400003681B699847164B2A46186821460368A7
:101850001B699847134B2A461868214603681B6882
:101860009847114B2A461868214603681B68984719
:101870000E4B2A461868214603681B6998470C4B93
:101880002A461868214603681B689847A0E700BFEE
:1018900048270020240000202000002018000020FD
:1018A000140000200C000020080000201000002080
:1018B0001C00002008B5034699889B7900682BB16D
:1018C0000DF02DFDB0FA80F0400908BD0DF027FDA8
:1018D000003818BF0120F8E708B50248FFF7EAFF13
:1018E00008BD00BF642C0020818800680DF012BD87
:1018F000818800680DF010BD2DE9F8439F4BA04C86
:10190000998818680DF00EFD0DF016FD9D4B9E4F49
:10191000186801F018FF0FF0F5F89C490FF0FAF97C
:101920000146DF2001F070FF06F062FA01468220D6
:1019300001F05CFF802001F039FF3968064620681D
:1019400006F0C4FE072001F031FF2068904D0368C7
:101950009B6A98470146B32001F048FF206803685E
:10196000DB6A98470146B12001F04EFF07F066F9A7
:10197000286803689B689847206803689B689847B5
:10198000844B186803689B689847834B1868036802
:10199000DB689847814B186803681B69984738686B
:1019A00003689B6898477E4B186803689B69984753
:1019B0007C4B186805F0A6FC0CF086FF7A4B1B7870
:1019C0000BB10BF07FFDAA2001F0F0FE774C002850
:1019D000606A80F2A180FFF787FFE62001F0E6FE53
:1019E000002800F09C80AA2001F0E0FE022800F010
:1019F0009680AA2001F0DAFE002800F0908060694D
:101A0000FFF772FFBC2001F0D1FE0346606C002B93
:101A100000F08980FFF768FF012E206940F0868082
:101A2000FFF762FF2868DFF8888103689B699847A1
:101A30000146AB2001F0E8FE286803685B6998471F
:101A40000146AC2001F0E0FE286803685B6A984715
:101A50000FF058F80146C12001F0D6FE2868554D18
:101A60000368DB69984701468A2001F0CDFE524B9E
:101A7000AE20196801F0BAFE504B1B78012B03D041
:101A8000042B01D02B7823B1D8F8000003689B68A1
:101A90009847D8F80000DFF82891036899F80010FB
:101AA0005B6998470746002843D0012E1EBF0122DC
:101AB000444B1A7001232B70A06A434B984205D007
:101AC000FFF7F8FE0146D82001F090FE0BF0A8FCCD
:101AD0000BF0C2FC042E01D0012E7BD1AB2001F013
:101AE0006DFE0546DB2001F069FE014628460FF039
:101AF00019FA88B3AB2001F061FE0546762001F0AB
:101B00005DFE29460FF0F0F940B3E06BFFF7ECFE05
:101B1000206CFFF7E9FE63E0FFF7EAFE5DE760692E
:101B2000FFF7E6FE6EE7FFF7E3FE75E7FFF7E0FE7F
:101B300078E72B7833B10146812001F057FE214B25
:101B40002F701F70D8F8000099F8001003689B6987
:101B500098471E4B1870AFE7DB20CCE7762001F0EA
:101B60002DFE1B490EF018FF29460FF0DBF9002867
:101B7000CED0E06BFFF7BCFECAE700BF242D0020EB
:101B800020000020642B00201000002000002041D5
:101B900024000020180000200C0000200800002075
:101BA0001C000020502B0020382B00204C3100203E
:101BB00014000020612B0020842F00204E2B0020D9
:101BC0004C2B0020622B0020542C00203B2B0020AB
:101BD0000000A040E06BFFF78BFE206CFFF788FE53
:101BE000002001F0E3FD092816D1012E14D1AA200E
:101BF00001F0DCFD094B0A4C1A68824209D005222B
:101C00001860226007480CF06DFD2368013B2360DB
:101C100002E02368002BF5DCBDE8F883E426002011
:101C2000E0260020EC2600202DE9F04FA12085B011
:101C300001F0BCFD8146802001F0B8FD8E4B0446CA
:101C4000002840F0EC801A68B2EB000A18BF4FF091
:101C5000010AAA201C6001F0A9FD07460DF046FD0F
:101C600006F092F8854BDFF81882186803685B6805
:101C70009847802001F09AFD0128054640F0D88061
:101C80000FFA89F989EAE970A0EBE97080B206F0F1
:101C9000EFFE002106460FF027F990B1002001F079
:101CA00085FD04280DD0232001F080FD002840F0A0
:101CB000B9808145B8BF4FF0FF35BD4218BF06F16E
:101CC000004638460EF01EFF31460EF06FFF054607
:101CD000D8F8000003685B689847D8F800002946E8
:101CE0000368684E1B699847B92001F075FD00280C
:101CF00040F0A280306AFFF7FBFDD8F80000DFF863
:101D000088910368614F1B6A98470FF02BF905B261
:101D10002946A12001F06AFD082001F047FD59F88D
:101D2000200006F0CDFB012C01D0042C08D138682E
:101D300085EAE5710368A1EBE5719B6989B2984773
:101D4000D7F800B0AB20DBF80030DB69019301F07D
:101D500035FD019B014658469847386803685B6823
:101D600098474B4B18680368DB689847494B1868DD
:101D700003685B689847042C68D1474B1868036870
:101D80005B689847284606F01FFD8346A52001F0B2
:101D90000DFD0190182001F009FD0290392001F09D
:101DA0000DFD0390292001F009FD59460FF0BAF806
:101DB000B0FA80F359465B090398DD000FF09EF8F6
:101DC000DDE90132B0FA80F09342D4BF0023012351
:101DD000400945EA8005872045EA831501F0EEFCBD
:101DE0008346282001F0EAFC014658460FF09AF895
:101DF000002808BF45F001058320294601F0F6FCC4
:101E0000172001F0D3FC0190052C00F2A080DFE840
:101E100014F045008B01BD003F015A01C7014FF08E
:101E2000000A16E7B9F1000FA8BF4FF0FF3544E7ED
:101E300006F0ECFE002550E7B62001F0CDFC0028AE
:101E40007FF458AF306AFFF74FFD56E7052001F0E9
:101E5000ADFC032804D1104B186803685B689847F1
:101E6000012C8FD1DE2001F0A1FC411C01F00F01FB
:101E7000DE2001F0BBFC85E70000002014000020FC
:101E8000240000204C310020542B00202000002092
:101E90000800002010000020180000200023954AB0
:101EA00095481370954A1370FFF722FDB069FFF74C
:101EB0001FFDBAF1000F03D00221AA2001F096FC09
:101EC0003868DFF83C8203685B69984700238D4AD5
:101ED0001370B8F80030002B51D18B48FFF708FD84
:101EE000F069FFF705FD8948FFF702FD15F0410F86
:101EF00001D0019BB3B1386803689B6B984788B1E8
:101F0000386803685B6B984760B101237D4A0224FF
:101F10001370784A13701923A8F800300DF0E6FB0F
:101F20007B4B18607B4B1B786BB115F0480F0AD1C7
:101F30001923A8F800300DF0D9FB754B0224186066
:101F400001236E4A13702146802001F04FFC38684F
:101F5000714D03685B6B9847002840F049816D4BD9
:101F60001B78002B40F04481002C40F041812B88ED
:101F7000002B40F09481B06CFFF7BAFC3EE1013BCE
:101F80009BB2A8F80030002BB0D1A6E7DFF884B1EF
:101F90009BF80030002B59D1D8F800205F4B9A42B3
:101FA00002D05548FFF7A0FCF069DFF85481FFF735
:101FB0009BFCB069FFF798FCB8F80030002B50D1BB
:101FC0005248FFF791FCDFF83CA19AF800305BB172
:101FD00015F0450108D1192385208AF80010A8F8CA
:101FE0000030012401F002FC9BF8003053B115F0E1
:101FF0004C0107D14FF4FA738520A8F8003004246F
:1020000001F0F4FB3D4B1B7823B19BF80030002B13
:1020100008BF0024374D2B7853BB022C93D10DF011
:1020200065FB8346152001F0C1FB394B1B68184442
:10203000834588D9019B1BB32B780BB300238AF807
:10204000003019230124A8F800307CE7072001F0B4
:10205000ADFB0028A8D1D8F80020314B9A42A3D17B
:102060009FE7013B9BB2A8F80030002BABD1A7E75C
:10207000386803685B6B98470028CED1002462E77C
:102080002248FFF735FC0B2005F084FE03245AE7B5
:1020900000221C4B1D481A70FFF72AFC174B1B78B7
:1020A00023B11C4B1B78002B08BF0024114B1B785D
:1020B000002B3FF448AF386803685B6B98470028F3
:1020C00008BF00243FE70E4A138853B90E48FFF7B4
:1020D0000BFC104B1B784BB99622124B05241A802F
:1020E00004E0013B9BB21380002BEFD005F074FE9F
:1020F00029E700BF3A2B0020DC2C0020392B0020E0
:10210000280000203C2B00202C2D0020E42C002057
:10211000DC260020622B0020D8260020F029002099
:10212000682A0020242B0020694A138843BB694891
:10213000FFF7DAFB6848FFF7D7FB8020012101F0A9
:1021400055FB05F049FE386803685B6B984700282B
:102150007FF4F9AEA12001F029FB00284FF0A10087
:1021600014DA01F023FB404231283FF7ECAEAA20FD
:1021700001F01CFB68B99622584B05241A80E2E650
:10218000013B9BB21380002BD7D1D0E701F00EFBAF
:10219000EAE7AA2001F00AFB02287FF4D4AEEAE7BE
:1021A0004C48FFF7A1FB4C48FFF7A2FB0221AA20F5
:1021B00001F01CFB494A13887BB98F2001F0F6FA25
:1021C000002811DA8F2001F0F1FA404204283FF78D
:1021D000BAAEFA223E4B1A8050E7013B9BB2138005
:1021E000002B7FF4B0AEE8E78F2001F0DFFAEDE7D7
:1021F0004FF496732B80B06CFFF776FB2988C020D4
:10220000003918BF012101F0F1FA012C344D52D1EF
:10221000522001F0CBFA012848D1F068FFF764FBA7
:102220002E68552033689F6801F0C0FA0EF06AFCF2
:1022300001463046B8472D6853202B68DE6801F010
:10224000B5FA012281B22846B047072001F0AEFA64
:10225000022807D10A2001F0A9FA59F820102046D7
:1022600008F0ECFB072001F0A1FA032807D10A20AF
:1022700001F09CFA59F82010204608F047FE07208C
:1022800001F094FA042820D10A2001F08FFA59F8BD
:102290002010204605B0BDE8F04F0CF039BB013BE3
:1022A0009BB22B80002B3FF466AEA4E7D82001F050
:1022B00093FA0028B1D1F068FFF71AFB00222868D2
:1022C00011460368DB689847BFE705B0BDE8F08FAB
:1022D000280000202C2D0020DC2C0020242B0020A6
:1022E0001C0000202DE9F047802001F05FFA054630
:1022F000894BDFF8289218680368DB689847042D3B
:1023000004D1D9F800000368DB68984706F024FD83
:10231000834BDFF810A21968D320834F01F066FACF
:10232000D420DAF8001001F061FAD520396801F004
:102330005DFA7E4B7E4E1968D620DFF8F88101F0F9
:1023400055FAD720318801F051FA98F800307A4CCC
:10235000022B2DD1794B1B7853BB042D19D1DFF8FB
:10236000E0A1784FDAF80030002B41D15C202370D7
:1023700001F01CFA4FF496735843CAF800003B680A
:10238000B3F5967F14D100233B603388013B338043
:102390000EE06D4ADAF8003012789A4226D16B4A84
:1023A0003B6812789A4221D13388FBB10123237014
:1023B00098F800302BBB614B1B780BB901232370BD
:1023C0006F2001F0F3F901281FD1712001F0EEF91F
:1023D0005F4B0746586802F0ABF806460146E0201E
:1023E00001F004FAB7422ADA002330E00023DEE7E6
:1023F0003A68013B0132CAF800303A60002BBED186
:10240000B4E7012BDCD10023D9E7702001F0CEF92D
:102410000128DAD0D9F800004E4A036812785B69C7
:102420002178984708B1012D13D14B4B1E78B6B9CE
:102430003146812001F0DAF9484B1E700FE098F820
:102440000030012BE6D13D4A1278002AE2D12370F8
:10245000E0E70121414B8120197001F0C7F9404E9E
:102460003378022B07D13C4B1B7823B13D4B1868C6
:102470000368DB6898473378012B02D9033B012BB3
:102480000AD8384F38680368DB68984733781BB937
:1024900038680368DB689847042D6DD12E4B1D7892
:1024A000002D33D1862001F081F906463E2001F04F
:1024B0007DF98642A1BF0122204B25701A702A4B5C
:1024C000186803689B68984700210EF003FD68B107
:1024D000264A1368002BDFBF002301212370174B0E
:1024E000CEBF03F1FF3319700A231360204B586BE2
:1024F000204B98420AD0FFF7DDF938B1E52001F012
:1025000055F918B901220D4B20701A70184B986BB1
:10251000FFF7EEF957E000BF200000201800002070
:10252000342B0020302B00202C2B0020282B0020C7
:10253000482B00204D2B00204C2B0020602B00202E
:10254000442B0020402B00204B2B00204A2B002046
:10255000403100203B2B0020612B0020622B00200B
:102560004E2B0020140000200C000020040000204E
:102570004C310020542C0020012DC7D10022174BD4
:102580006F201A7001F012F9022817D1722001F0A1
:102590000DF90646732001F009F9114B05469868BC
:1025A00001F0C6FF01460446E12001F01FF9AE42EA
:1025B0000BDCA642AADCA54205DA0AE0702001F095
:1025C000F5F80228E2D0BDE8F087A6429EDBA542DE
:1025D000F9DD044B986BFFF787F9F4E7602B0020D7
:1025E000403100204C310020FEE700000C2838B5B7
:1025F00010D80C2819D8DFE810F0D000D300E5007F
:102600001800D900D600DF001800E800E800E80054
:10261000E800E800512800F0CC8000F2B2803C28AD
:1026200000F0DB80492800F0CA80232001F0BEF8CA
:1026300040B1002001F0BAF8082803D0002123207F
:1026400001F0D4F8182001F0B1F8664D664C28600E
:10265000192001F0ABF820601A2001F0A7F868609B
:102660001B2001F0A3F860601C2001F0A7F85F4D6B
:102670005F4C28601D2001F0A1F82060332001F09C
:102680009DF85C4B2168186028680EF02DFC50B155
:1026900059491C202960594D256001F0B5F829469B
:1026A0001D2001F0B1F81E2001F088F8544B554C64
:1026B00018602E2001F082F8534B18602F2001F093
:1026C0007DF8524B1860312001F078F8504B1860BB
:1026D000262001F06BF84F4B1860202001F06EF8B7
:1026E0004D4B1860242001F069F84C4B18603020E5
:1026F00001F064F84A4B18601F2001F05FF8494B65
:102700001860052001F052F8042001F04FF8464B04
:1027100018702378012B22D1592001F047F8434B40
:102720001860582001F042F8414B1860572001F022
:102730003DF8404B1860562001F038F83E4B1860C9
:102740005A2001F033F83D4B18705B2001F02EF851
:102750003B4B18705C2001F029F83A4B188045205B
:1027600001F024F820705C2001F020F84FF49673FB
:102770005843354B186008F0B7F8BDE8384008F00A
:10278000DFB8692805D866287FF64FAF00F02CFE29
:102790004BE779380428F9D947E7FEF7D7FE44E735
:1027A000FEF76CFE41E7FEF76DFD3EE7FEF7B0FD7C
:1027B0003BE7FEF719FF38E7FEF7DCFD35E7FEF7EC
:1027C0000FFE32E7FEF72CFE2FE7204C206804F0C6
:1027D0004DFD606804F04AFD27E704F037FB04F084
:1027E00023FB22E77C2F0020742F0020702F002075
:1027F0006C2F0020342F00200080BB440000C84212
:10280000682F00204D2B0020602F0020582F002023
:10281000542F0020382F0020502F00204C2F002054
:102820005C2F0020642F00204E2B0020282B00203E
:102830002C2B0020302B0020342B00204B2B002091
:102840004A2B0020482B0020442B0020542B002032
:10285000014B186800F040BF642B002000B589B020
:1028600003A804F073FB28B1DDF815300193DDF8FF
:102870001930029304F0E5FA4FF400400CF010FC1C
:102880000499A1F58473012B05D8044B01AA18689B
:1028900003681B69984709B000BD00BF1400002001
:1028A00008B500200CF058FF104B1A6801323B2A83
:1028B0001A600F4A05D911680131116019683C3955
:1028C000196013683B2B0B4B05D91968013119604E
:1028D00011683C3911601A68172A06D906490A6836
:1028E00001320A601A68183A1A6008BD282B0020C5
:1028F0002C2B0020302B0020342B00202DE9F0431E
:10290000ADF68C2D00F0BCFB00F0E4FC0022C349C6
:10291000C34801F04DFE0122C049C24801F048FE03
:102920000122C149C14801F043FE0222BB49C0480F
:1029300001F03EFE0322B949BE4801F039FE0522EE
:10294000B649BD4801F034FE0422B449BB4801F049
:102950002FFE0B22B149BA4801F02AFE042320229F
:10296000B849B94801F09DFB04238022B549B74816
:1029700001F097FB04234FF40042B549B54801F03C
:1029800090FB04231022A849B34801F08AFB0423DA
:102990000822A549B14801F084FB012507238022C4
:1029A0009E49AF4801F07DFB07230422AD49AE48A4
:1029B00001F077FB07234FF40042A249AB4801F036
:1029C00070FB07234FF480429E49A94801F069FB40
:1029D00007234FF400529B49A64801F062FB0723EE
:1029E0004FF400729749A44801F05BFB07234FF4B2
:1029F00080729449A14801F054FB07234FF4806290
:102A000090499F4801F04DFB07234FF400628D4928
:102A10009C4801F046FB0723402280499A4801F078
:102A200040FB07234FF480728949984801F039FB35
:102A300007234FF400727949954801F032FB0723D0
:102A40004FF480727549934801F02BFB07234FF434
:102A500080527C49904801F024FB052308228149DB
:102A60008E4801F01EFB052310227E498C4801F0A0
:102A700018FB052320227B498A4801F012FB07231B
:102A800040227849884801F00CFB072308226D4951
:102A9000864801F006FB072304226A49844801F0B6
:102AA00000FB07234FF480525F49824801F0F9FA96
:102AB00007234FF480426B497F4801F0F2FA072365
:102AC000012259497D4801F0ECFA07238022604930
:102AD0007B4801F0E6FA072340225D49794801F07E
:102AE000E0FA042340225749774801F0DAFA042338
:102AF00010225449754801F0D4FA00238022594924
:102B0000734801F0CEFA01F0A7FC72494FF0007053
:102B10000CF0F6FB00F06EFB00F09CFB05F006F9F4
:102B200000F00EFB00F038FB00F05EFCE720FFF742
:102B30005DFD5648FEF7DCFE5F48FEF7D9FEC4ACEB
:102B40000023654A6549009539A800F0FFFE0DF2A3
:102B50006C58002302222046614905F01DFB022229
:102B600060492B46404605F017FB5F4B0F2004934E
:102B70005E4B0DF5F96705935D4B5E4E069300F0D5
:102B800015FE2A46002814BF41462146384605F066
:102B900049F83A46214619A808F048FE032119A829
:102BA00008F060FE204604A9C6E9004804F032FBA4
:102BB00004A9404604F02EFB4F4B0A201F604F4BE8
:102BC00007AC1F6000F0F2FD56F820700E2000F0F8
:102BD000EDFD56F820104A4808F04EFD04F036F995
:102BE00004F022F94FF496424649204609F078FD58
:102BF000454B1C600FACFEF7A9FCFEF73FFCFEF74F
:102C000041FBFEF785FBFEF7B5FBFEF7EDFCFEF79B
:102C1000E7FBFEF705FC3D49204679E00010014046
:102C2000782D0020742D0020000C0140702D002014
:102C30006C2D0020682D0020642D0020602D0020C8
:102C40005C2D002000140140542D00204C2D00204C
:102C500000080140442D00203C2D0020342D002090
:102C60002C2D002000180140242D00201C2D0020B8
:102C7000142D00200C2D0020042D0020FC2C002001
:102C8000F42C0020EC2C0020E42C0020DC2C002074
:102C9000D42C0020CC2C0020C42C0020BC2C0020E4
:102CA000B42C0020AC2C0020A42C00209C2C002054
:102CB000942C00208C2C0020842C00207C2C0020C4
:102CC000742C00206C2C0020642C00205C2C002034
:102CD000542C0020C0004000942B01080048004004
:102CE000006400400068004070110108B917000836
:102CF00065160008542B0020B4300020502B002013
:102D00004827002000380140E82600200008004045
:102D100000F08EFC1A4B2A4620461A491C6000F02F
:102D2000A7FC0A222046184900F0A2FC6422204693
:102D3000164900F09DFCC8222046154900F098FC79
:102D4000782000F033FDA84202D1384602F0B0F8F6
:102D500004217F2000F04AFD0021802000F046FD84
:102D60004FF0000439A88DF80F4000F0A3FF1E9B20
:102D7000002BF7D10DF10F011AA806F0BFF9F1E70A
:102D8000642B002029120008291C0008F9180008EB
:102D9000E522000810B50024624B634A1C741A60D7
:102DA000624B634A1C721A60DC721C73614A624B8C
:102DB00062481A601C72DC721C73614A614B1A60B3
:102DC000614B624A1A6007F085FD614B614A1C62E3
:102DD0001A601C77604A614B61481A60614B624A15
:102DE0001A60624B624A1A60624B634A1A60634B14
:102DF000634A1A60634B644A1A60644B644A1A60FF
:102E0000644B654A1A60654B654A5C751A60DC82E2
:102E1000644A654B1A60654B654A1A60654B664AA1
:102E20001A60664B664A1A60664B674A1A60674BBF
:102E3000674A1A6004F0D2F9664B674A67481A601D
:102E400007F076FB664B674A67491A60674B684A2A
:102E500068481A60684B694A1A60694B694A1A6087
:102E6000694B6A4A1A606A4B6A4A1A606A4B6B4A33
:102E70001C721A606A4B6B4A1A606B4B6B4A1A6081
:102E80006B4B6C4A1A606C4A6C4BC2E9024413608B
:102E90000023136153619361D361694A1160694AE8
:102EA0006949C2E904441160C2E9064413625362ED
:102EB0009362D3626549664A11606649C2E9024479
:102EC000C2E904441483D361136253629362D362F0
:102ED000136353639163604A6049C2E9044411601B
:102EE0005F49D3609361D361148453629362D36268
:102EF000136353639363D363136453649364916064
:102F0000584B594A1A60594B594A1C731A60594B0D
:102F1000594A1A6009F0DEFBBDE8104057480BF033
:102F2000D1BB00BF102B002014350108F42A00206B
:102F3000282C0108602D0108D82A0020A42A00208E
:102F4000542F0108C82A0020BC2A00209C2F010809
:102F5000802A0020E82D01088C310108682A002011
:102F6000C8290020602A0020EC320108582A0020DD
:102F700018330108502A0020AC360108482A0020E6
:102F8000A4110108402A0020D0110108382A00208D
:102F900044330108302A002040320108182A00205A
:102FA000A8340108F0310108102A0020082A002066
:102FB000C4310108002A002080360108F8290020C9
:102FC0000C380108F0290020E42F0108E82900202E
:102FD00080120108C0290020FC110108B42900203A
:102FE000A829002064390108E4380108A02900203C
:102FF0005C12010820270020942800205C3501087D
:1030000088280020C03801087C2800206437010887
:103010007028002088370108602800204037010808
:1030200058280020B81201084C2800200039010857
:103030004428002020120108242800208C34010894
:103040001C280020EC2700207034010848390108B2
:10305000B02700200000FA436427002090390108BF
:103060000000C8425C2700203C1201084C270020C9
:10307000F43401084027002080110108EC260020CC
:1030800008B50CF071FA02200CF046FA4FF0E0237C
:103090002A4A40F20230C3F80C2D0CF0ABFA40F291
:1030A00003300CF0A7FA4FF441700CF0A3FA40F291
:1030B00005300CF09FFA40F206300CF09BFA40F21B
:1030C00092300CF097FA40F291300CF093FA40F203
:1030D0000E300CF08FFA40F20B300CF08BFA4FF4FC
:1030E00060700CF087FA40F281300CF083FA40F205
:1030F00082300CF07FFA4FF420700CF07BFA40F233
:1031000009300CF077FA40F286200CF073FA4FF495
:1031100040700CF06FFA40F299300CF06BFA40F20C
:103120009A300CF067FA40F28E300CF063FABDE88A
:10313000084040F28F300CF05DBA00BF0003FA0582
:1031400013B50024202123462246CDE9004410482F
:103150000CF070FB21460E480CF064FB0C480CF0A0
:1031600053FB0B480CF059FB4FF420430222032180
:1031700008480CF095F84FF4804301222146054899
:103180000CF08EF8024802B0BDE810400CF030BBE5
:1031900000380040000C014013B500244FF080516E
:1031A0004FF000700CF0ACF8234622462021CDE908
:1031B00000440E480CF03EFB0C480CF025FB0B487D
:1031C0000CF02BFB4FF4A0530222032108480CF013
:1031D00067F84FF400630122214605480CF060F8BF
:1031E000024802B0BDE810400CF002BB003C0040B9
:1031F0000010014008B502220423032112480CF0FC
:103200004FF80823012200210F480CF049F80F491C
:103210000F480CF0CDFC08210D480CF0DDFC00211E
:103220000B480CF0E2FC0C2109480CF0EAFC0021F0
:1032300007480CF0E0FC064800210CF0E8FCBDE873
:10324000084003480CF0E9BC0008014020A1070039
:103250000044004008B511200CF078FDF021112049
:103260000CF082FD10200CF071FDF02110200CF00C
:103270007BFD1E200CF06AFD00211E200CF074FD69
:1032800014200CF063FDE02114200CF06DFD1320E0
:103290000CF05CFDE02113200CF066FD28200CF002
:1032A00055FD4FF400400BF0F1FE01214FF40040BA
:1032B0000BF0D0FE06494FF400400BF0F7FE032060
:1032C0000CF044FDBDE80840202103200CF04CBD6B
:1032D0000018014008B54FF2234103200CF06EFAAC
:1032E00000200CF00DFA00200CF036FABDE8084082
:1032F00000200CF013BA0000022208B511464FF46A
:10330000007316480BF0CCFF15480CF0DBFA0023D5
:103310002022194612480CF0AEFA202110480CF079
:10332000D6FA072200210E480CF0D5FA00210C48ED
:103330000CF0D6FB0A480CF02DFC4FF4C8720021AB
:1033400007480CF017FC06484FF488610CF0C1FAEE
:10335000BDE8084002480CF0B0BA00BF00180140B8
:10336000002C014008B5022303211A461D480BF02A
:1033700097FF4FF080400CF0A5FA00234FF08040FB
:103380001A4619460CF077FA00214FF080400CF0F5
:103390009EFA4FF080400CF077FA4FF080400CF02E
:1033A00087FA8F214FF080400CF093FA02214FF002
:1033B00080400CF0BAFB062202214FF080400CF056
:1033C0008AFA02214FF080400CF08AFB4FF08040D7
:1033D000482202210CF0CEFBBDE808404FF08040AF
:1033E0000CF06BBA00080140692038B500F0DEF936
:1033F000132808D102220123114687480BF050FF01
:10340000002425460DE0692000F0D0F9142840F092
:1034100092800222012311467F480BF041FF0024D5
:103420000125682000F0C2F9132840F0998002229B
:103430008023114679480BF033FF672000F0B6F97E
:10344000132840F0AE8002224023114673480BF04F
:1034500027FF73480CF036FA002171480CF019FA76
:103460006F480CF011FA062200216D480CF033FA77
:10347000062202216A480CF02EFA0622042168482E
:103480000CF029FA002166480CF0EBFA022164489E
:103490000CF0E7FA042162480CF0E3FA00216048DE
:1034A0000CF0F9FA02215E480CF0F5FA04215C48B0
:1034B0000CF0F1FA00215A480CF012FB0221584896
:1034C0000CF00EFB042156480CF00AFB002D40F0D6
:1034D0008980002C40F086807A2000F067F9014650
:1034E0004F480CF0F6F97B2000F060F921460246C7
:1034F0004B480CF03FFB7C2000F058F902210246BB
:1035000047480CF037FB7D2000F050F904210246BB
:1035100043480CF02FFB012141480CF040FB79207F
:1035200000F044F901463E480CF0D1F9BDE83840BE
:103530003B480CF0C2B9692000F038F9152808D1D1
:1035400002220123114634480BF0AAFE0124002573
:1035500067E7072301223049324800F0A2FD4FE718
:10356000682000F023F9142807D102228023114695
:103570002A480BF095FE01255FE7682000F016F958
:10358000152807D102228023114624480BF088FE1B
:10359000012452E7072380222049234800F081FDBF
:1035A0004BE7672000F002F9142807D102224023DC
:1035B00011461A480BF074FE01254AE7672000F017
:1035C000F5F8152807D102224023114613480BF0C5
:1035D00067FE01243DE7072340221049134800F00D
:1035E00060FD36E741F68C110D480CF072F90122AE
:1035F00000210B480CF0BEFA0122022108480CF011
:10360000B9FA0122042106480CF0B4FA0121044859
:103610000CF0C5FA0A2186E7000C014000080140C1
:10362000000400407C2C0020742C00206C2C002016
:1036300038B50C460546016208460CF025F92046CF
:103640000CF031F9084B20461968084BB1FBF3F137
:1036500001390CF03CF920464FF6FF710CF039F9B6
:10366000002328466B6238BDCC240020A0860100D0
:10367000F8B5436A0446032B0F462ADC006A02EBC6
:103680008205144E0CF01EF9636A0122F15C206A77
:103690000CF021F9636A0022F15C206A0CF06AFAEE
:1036A0000221636A05EB850503F10802AD0044F8C9
:1036B0002370994024F81250206A0CF0CFF80021B2
:1036C000206A0CF072FA206A0CF0F7F8636A013392
:1036D0006362F8BDF81201082DE9F843044600259D
:1036E0004FF0020800F11006636A08FA05F7AB42D2
:1036F0000ADC3946206A0CF0BBF80135042D06F1CE
:103700000206F1D1BDE8F8833946206A0CF0AAF828
:10371000A8B1206A0CF047FA236A3188343353F891
:10372000252081460A4443F8252054F8253098473F
:10373000206A0CF038FAA0EB09003081D9E7636AFF
:10374000AB42DADCD5E7002170B500F10E03446A24
:103750004FF47A7508468C4200DC70BD5A8933F804
:10376000026F6A43B2FBF6F201311044F3E7000046
:1037700010B51C24084B04FB0033DC688C4209DCC8
:103780001B698B4206DB054B43F82010FEF72EFF2A
:10379000002010BDFF20FCE7C80300202C00002003
:1037A000014B53F8200070472C000020024B53F8C7
:1037B00020004011704700BF2C00002008B5054BC9
:1037C00053F820000DF09EF94FF074510DF0EEF912
:1037D00008BD00BF2C000020034B53F8200040110F
:1037E000431E5842584170472C000020024B4901AB
:1037F00043F82010704700BF2C000020014B43F815
:10380000201070472C00002010B5044608464FF0E9
:1038100084410DF0CBF90DF0A5FB024B43F82400D9
:1038200010BD00BF2C00002070B506460024074DD7
:103830003146686800F08EFB08B9E0B270BD013413
:10384000E72C05F11C05F3D1E820F7E7C8030020B9
:103850000023064A118B814201D1D8B2704701334F
:10386000E72B02F11C02F5D1E8207047C8030020C5
:103870001C22024B02FB0030704700BFC80300202F
:103880000023064A0649108B10B1506941F8230005
:103890000133E72B02F11C02F5D17047C803002069
:1038A0002C000020014B1954704700BF682B0020EA
:1038B000024B1A5C11431954704700BF682B00205B
:1038C000024A135C23EA010313547047682B00205B
:1038D000014B185C704700BF682B00201C22024B74
:1038E00002FB0033987E7047C803002000487047F1
:1038F000AA6A0300024B1A68024BC3F8402E7047B5
:10390000B8230020C8030020202180680CF0ABB948
:1039100080680CF0A0B910B504464368597A58681D
:103920000BF06FFB636804F12A02597A58680BF0B8
:103930007AFB63688022597A58680BF084FB6368CD
:10394000BDE81040597A58680BF052BB70B502615F
:1039500040F201120D464A49828201600121002293
:10396000817580F8281004460421C0E9062280F8F9
:10397000202042629DF81020856080F82920414A6D
:10398000037342601068A84203D01C3201396260A0
:10399000F8D13D490C60002B6FD05069138B022287
:1039A00003210BF07DFC28464FF4E1310CF000F9C7
:1039B000284608210CF010F928464FF400510CF06D
:1039C00014F928460C210CF01CF9284600210CF0B3
:1039D00012F9002128460CF01AF928460CF02DF9AE
:1039E00028460CF02FF96368197A58680BF090FAA2
:1039F0006368197A58680BF0F2FA63682A1D197A1D
:103A000058680BF007FB63680022197A58680BF0BE
:103A1000BAFA63680022197A58680BF0A7FA63684B
:103A2000197A58680BF0BCFA6368597A58680BF039
:103A30006FFA63682A1D597A58680BF0EBFA6368CD
:103A40000022597A58680BF09EFA63680022597A6E
:103A500058680BF08BFA6368597A58680BF0A0FA33
:103A600063685868597A0BF0C3FA2046FFF753FF92
:103A700028460CF0D2F8204670BDD068138A8EE735
:103A8000202B0108242B0108502C002038B5437D41
:103A90000D4643B10469216819B1284600F05AFA6D
:103AA00020B9236803B90024204638BD0834F2E762
:103AB00038B504460D4663680222197A58680BF03F
:103AC0003EFA18B994F82830002BF4D06368197ABC
:103AD00058680BF096FA6368AAB2197A58680BF026
:103AE000B2FA94F82020636804EBC212197A58687D
:103AF000AA320BF098FA63680222197A58680BF020
:103B000018FA6368197A58680BF072FA94F8203042
:103B1000B3FA83F35B0984F82030002384F828305B
:103B200038BD10B50446A37D084623B9A068BDE89A
:103B300010400CF077B894F82030626A04EBC3139D
:103B400013440A2802F1010183F8AA0001D07F2A58
:103B500005D12046FFF7ACFF0023636210BD616210
:103B6000FCE7802A28BF8022002330B4934203D18F
:103B700030BC1946FFF79CBF90F82040CD5C00EBAD
:103B8000C4141C4484F8AA500133EFE738B5054645
:103B900008460C4600F0F5F9214602462846BDE8E5
:103BA0003840FFF7DEBF000010B50446084600F0BD
:103BB0003BFA00F020FA217D227B8142636811D11B
:103BC000012161755AB158691B8B032102220BF048
:103BD00067FB2046BDE810400949FFF7D7BFD8680A
:103BE0001B8AF2E7002161753AB158691B8B0122EB
:103BF000BDE8104000210BF053BBD8681B8AF6E7E4
:103C00001A24010830B5044685B0084600F00CFAC5
:103C10000378302B26D0322B144D18BF4FF461257A
:103C2000637DA3B10A22294601A800F0BAF9204613
:103C30000F49FFF7ABFF20460E49FFF7A7FF2046CD
:103C400001A9FFF7A3FF20460B49FFF79FFF294675
:103C5000A0680BF0ADFF0021A06805B0BDE83040C2
:103C60000BF0C3BF4FF4E135DAE700BF1055220077
:103C7000192401081F240108B52A010810B50446BB
:103C8000084600F0D1F9037823B1303B18BF012377
:103C900084F8293094F829302BB104492046BDE836
:103CA0001040FFF773BF0249F8E700BF2E24010858
:103CB000382401082DE9F04143680446597A5868D0
:103CC0000BF0BAF90546C0F1800710B92046FFF79E
:103CD00022FE94F82930A06813B1E369BB4257DB98
:103CE00008210BF0C0FF10B1A0680BF0B4FF7F2DCE
:103CF00000F39880631B93F8A9300A2B01D00D2B99
:103D00007DD16368597A58680BF07BF97F2D3AD0E2
:103D10000022E31983F82A202021E26104F12A001D
:103D200000F036F990F800800546B8F1000F37D161
:103D30000A2104F12A0000F02BF9054684F8AA8133
:103D40002B782BB90D2104F12A0000F021F905464A
:103D5000002335492B7004F12A00A36100F0FAF822
:103D600020BB204604F5D571FFF71EFF0027A3698D
:103D7000002B3AD0A0680BF072FFA36920465B6865
:103D800004F5D57198472046BDE8F041FFF7C3BD63
:103D90005A1CE261234493F82A100BF043FF98E782
:103DA000411C04F5D57000F0E3F8C9E71F4904F1A0
:103DB0002A0000F0CFF828B9204604F5D571FFF7A6
:103DC00021FFD3E71A4904F12A0000F0C3F828B90B
:103DD000204604F5D571FFF751FFC7E7204604F1EF
:103DE0002A01FFF753FEA061C1E7012FCBDD637D00
:103DF000002BC8D020460F49FFF7C8FEC3E794F850
:103E00002A30212B0ED1A36963B12046FFF783FD31
:103E10000023E361A369204604F5D5715B68BDE822
:103E2000F0411847BDE8F081432401084E24010801
:103E3000572401085C240108034BC1B21B681A68AF
:103E400018461268104700BF502C002003F0ECBF4A
:103E500007B50649D1F8F027D1F8EC37D1F8E817C3
:103E60000091034900F0EAFA03B000BD00F0FF1F23
:103E70007724010805F042B973B5144800F0CCFA74
:103E8000134800F0C9FA0024E6B23046FFF7F0FC10
:103E900005463046FFF722FD68B93046FFF718FDAA
:103EA000C3070DD46B690B4800936968D5E90323F8
:103EB00000F0B2FA04E03046FFF710FD0128ECD024
:103EC0000134E72CE0D102B070BD00BF80240108AE
:103ED00097240108B324010870B50B4900F0AEFA2D
:103EE0000024E0B2FFF7C4FC0546E0B2FFF7F0FCA7
:103EF000C30704D4D5E90112044800F08DFA013457
:103F0000E72CEED170BD00BFC6240108E8240108EB
:103F1000F8B506460024E0B2FFF7AAFC4768E0B215
:103F2000FFF73EFC013403463A463046024900F0B2
:103F300085FAE72CEFD1F8BDF224010810B504464C
:103F4000FFF79EFC2046BDE81040014900F076BA1C
:103F5000FB240108431E013913F8010F11F8012F4A
:103F600010B10AB19042F7D0801A18BF01207047F3
:103F7000013911F8013F0BB90370704700F8013B9C
:103F8000F7E70023C25C0AB9184670470133F9E726
:103F900003461A7818461AB18A4203F10103F8D190
:103FA0007047002970B51EDA2D23012400F8013B6B
:103FB0004942064691FBF2F302FB13113031317096
:103FC000191E354606F10106F4DC00220346201ACC
:103FD00030443270AB420BD21A78297803F8011BB7
:103FE00005F80129F6E704D1302341700370012060
:103FF00070BD0024DDE730B503782D2B11D14FF0D3
:10400000FF34013000210A25431E01E005FB012198
:1040100013F8012F303AD0B20928F7D904FB01F088
:1040200030BD0124EEE7000010B5144C02780146C3
:10403000A2F10A03DBB2162B1BD824FA03F3DA072A
:1040400000F10100F2D40846FFF79BFF0138084455
:10405000814204460AD203780A3BDBB2162B05D80C
:10406000064A013822FA03F3DB07F1D40023637018
:1040700001E0002AE7D1084610BD00BF090040005A
:10408000002310B5934200D110BD51F8234040F8F1
:1040900023400133F6E702B97047013A40F8041BA8
:1040A000F9E72DE9F041174682800022013B0E46D8
:1040B00001608271082B0BD8DFE803F0080E0C18A2
:1040C000150524261A000024002513E0012383711E
:1040D0000224F9E701238371022400253946304682
:1040E0000BF018F906E001248471EDE70124EBE7F9
:1040F000022403253B46224629463046BDE8F041CE
:104100000BF0CEB80024F4E701240325E6E770B5F0
:104110000C1EACBF01234FF0FF335C430133064656
:1041200008BF2D234FF0640208BF06F8013B611160
:1041300004F01F040546544330460A22FFF731FFBE
:104140002E226411092C3254D8BF302206EB000312
:10415000D8BF5A7021464FF00A02CCBF581C981C99
:10416000FFF71FFF284670BDF0B5027803462D2AE1
:1041700013D14FF0FF30013300250A2702E007FB7F
:10418000052501331C78A4F13002D6B2092EF6D9E8
:10419000A4B98D4025446843F0BD0120ECE78A4076
:1041A00002EB660292FBF6F20CFB06F6144413F8DF
:1041B000012F303AD7B2092FF1D9EAE70A260024B5
:1041C000B446F4E72DE9F843141E0646894614DC8C
:1041D0002027DB071FD50025C84626E0013219F845
:1041E00002100029FAD1A242ACBF0C46A41A13F067
:1041F000020F14BF30272027EBE70022EFE73368D8
:10420000414630461B689847013D002DF7DC24EA03
:10421000E475641BE0E725465FFA87F8F5E7336845
:1042200030461B6808F10108984798F800100029EB
:10423000F5D1A5EB09054544A046FFB2B8F1000F42
:1042400005DC002CACBF2819281CBDE8F8833368B6
:10425000394630461B68984708F1FF38EEE72DE9EC
:10426000F04385B08046DDE90C691C460D4651B926
:1042700030233246ADF8003069464B46FFF7A2FFC7
:1042800005B0BDE8F08323B10A2A2DD100292BDA2D
:104290004D4200238DF80D300E9B0DF10D0C3A3B75
:1042A000B5FBF2F002FB1051CF18092988BF39463F
:1042B000AA4201F130010CF1FF370CF8011C15D9AD
:1042C00054B1B6B119F0020F13D0D8F800302D2137
:1042D00040461B689847013E4B46324639464046A9
:1042E000FFF770FF2044CBE70024D2E70546BC4629
:1042F000D6E72D23002407F8013CACF10207EBE7D9
:104300000846FFF799BD00002DE9F04380460E46B0
:10431000144600254FF00A098DB0317819B92846A6
:104320000DB0BDE8F08325296DD171780029F6D054
:10433000252906F1010065D02D290ABF0127002794
:10434000B01C0378302B14D0002203780646A3F16A
:1043500030015FFA81FCBCF1090F0ED9662B3DD00C
:104360000FD8632B44D0642B1CD0582B2ED0013691
:10437000D3E7013047F00207E3E709FB02120130FF
:10438000E3E7752B24D0782B19D0732BEFD121685C
:1043900020483B46002908BF014604344046FFF749
:1043A00011FF0AE06123CDE90173012300920A2283
:1043B000216840460434FFF752FF0544D7E76123E4
:1043C000CDE90173009200231022F1E74123F7E7C2
:1043D00061230092CDE901730023E8E7216808A872
:1043E00005920434FFF793FE3B46059A08A9D5E7EA
:1043F000236807A98DF81C30002304348DF81D3084
:104400003B46CBE70646D8F8003040461B68984745
:104410000135ACE7552501080FB407B504AA52F8D9
:10442000041B054B6846CDE90032FFF76DFF03B072
:104430005DF804EB04B070471C2C01080EB403B502
:1044400003AA52F8041B0192FFF75EFF02B05DF869
:1044500004EB03B07047000008B529480AF0ECFAF5
:1044600027480AF0EEFA26480AF0F5FA24480AF03E
:10447000EDFA012122480AF0CAFA21480AF090FA1E
:104480001F480AF0A7FA1E480AF0B7FA1D4A082189
:104490001B480AF0E5FA1A480AF025FB4FF46021A0
:1044A00017480AF08DFA0121174A18480AF0B2FDA0
:1044B0000121174A15480AF0B6FD4FF48072012118
:1044C00012480AF060FD4FF4806201210F480AF0A3
:1044D0004DFD602201210D480AF0B5FD01210B4878
:1044E0000AF05EFD012109480AF063FD0748012139
:1044F0000AF07EFDBDE8084001480AF0EABA00BFB4
:10450000002401403C2E00204C24014000000240C9
:104510007C2D0020884207DD914203DC0146914258
:10452000A8BF1146084670479042F8DD0146F9E7FA
:1045300037B56D46046804F13003F03433F8102CBD
:1045400033F8201C33F8300CFFF7E4FF3033A3427C
:1045500025F8020BF2D1BDF80230BDF80000184476
:10456000BDF804301844BDF806301844C0F38F007D
:1045700003B030BD08B50D4B98420BD003F58063F6
:1045800098420BD0A3F5006398420BD1072909DCB0
:10459000C8B208BD012905DC0831F9E7052901DCAD
:1045A0000A31F5E70AF004FA1020F2E7000C0140A6
:1045B000012370B593400C4615460022064611466D
:1045C0009BB220460AF06CFE29462046FFF7D2FF38
:1045D0003368034A9B1A034AC3F34F03D05470BD98
:1045E0007C2D00203C2E00200D4B0E4A991C1360A0
:1045F0000D4A11600D4A191D11600D4A991D116077
:104600000C4A03F1080111600B4A03F10A01116021
:104610000A4A03F10C011160094A0E331360704716
:104620007C2D0020782D0020742D0020702D00207E
:104630006C2D0020682D0020642D0020602D0020AE
:104640005C2D0020114A124B30B553F8213052F83E
:1046500021401946A342A8BF2146026802F1C805BD
:104660008D4206DBA342B8BF234603F1C804A24231
:1046700002DD0160002030BD8A4202DA01600120C3
:10468000F9E79A42FBDD0360F9E700BF7C2F0020C9
:10469000742F0020012970B516D80C4B53F8214017
:1046A0000B4B53F82150AC420ED0001B0CF02AFAF1
:1046B0000646281B0CF026FA014630460CF02AFB71
:1046C00004490CF073FA70BD0020FCE77C2F002039
:1046D000742F00200000C842F8B5224B05461C6824
:1046E000014620460CF01EFC00B12C461E4B214614
:1046F0001E6830460CF0F8FB00B126461B4D3146D3
:104700002F68344638460CF0F9FB002198B130464A
:104710000CF008FC68B1164B196838460CF03EF9ED
:10472000314604460CF0FEFB00B1344620462C60B6
:10473000F8BD104BF0E730460CF0EAFB0028F5D14D
:10474000002138460CF0EEFB48B10020094B1968F7
:104750000CF022F9314604460CF0C6FBE4E738467B
:10476000F4E700BF602F0020582F0020282F0020E2
:104770004C2F0020502F0020F8B5054685200E460E
:104780001746FFF713F83146044628460CF0B6FBEF
:10479000E0B94FF0804130460CF000F929460CF0AA
:1047A000C1FBA8B144F01001852089B2FFF71EF8C3
:1047B000124D3E68002130460CF0AAFBA0B12946FC
:1047C00030460CF091FB28B1344604E00C4DF0E784
:1047D0000025EEE72C46284609493C600CF084FB96
:1047E000003818BF0120F8BD05F1004421463046CD
:1047F0000CF098FB0028EED0E6E700BF000048422E
:104800000000C8422DE9F843064628200D46FEF771
:10481000D5FF304FDFF8C08038602920FEF7CEFF8B
:10482000C8F800008520FEF7C1FFD7F8009020F0FF
:10483000030400214846A4B20CF074FB28B3002105
:1048400030680CF065FB254F28B3494628460CF02C
:10485000A3F823490CF0AAF9002105460CF044FB0B
:1048600000B100253D603768294638460CF05AFBF8
:1048700044F001039BB2002818BF1C462946384665
:104880000CF032FB00B13D4635602146BDE8F843EF
:104890008520FEF7ABBF2846D8F800100CF07CF856
:1048A0000F490CF083F9002105460CF03BFB00B1E9
:1048B00000253D603768294638460CF015FB44F06A
:1048C00002039BB2002818BF1C46294638460CF04C
:1048D00029FBD7E7482F0020442F0020302F00204D
:1048E000000060402DE9F8430C46364D3649064637
:1048F00028680CF05BF921460CF050F84FF0765127
:104900000CF054F928602A20FEF758FF2F4FDFF8EB
:10491000C08038602B20FEF751FFC8F800008520CA
:10492000FEF744FFD7F8009020F00C040021484621
:10493000A4B20CF0F7FA18B3002130680CF0E8FAD2
:104940002D68244F10B3294648460CF025F8002165
:1049500005460CF0C9FA00B100253D6037682946CC
:1049600038460CF0DFFA44F008039BB2002818BF69
:104970001C46294638460CF0B7FA00B13D46356072
:104980002146BDE8F8438520FEF730BF2846D8F819
:1049900000100CF003F8002105460CF0C3FA00B13A
:1049A00000253D603768294638460CF09DFA44F0F2
:1049B00004039BB2002818BF1C46294638460CF059
:1049C000B1FADAE7482E0020000070413C2F0020A9
:1049D000402F00202C2F0020104B70B51A6806685D
:1049E00001EB0214A41A24110546002130461C6074
:1049F0000CF098FA88B10A4B1868001B48BF0330C6
:104A0000801020EAE0700CF07DF804460146304644
:104A10000CF088FA00B126462E6070BD442E0020AE
:104A2000382F0020F8B50E4A064614780D4F013491
:104A3000E4B2312C8ABF002323461C460A4D386855
:104A400055F8241013700BF0A7FF31460BF0A6FFAA
:104A50000649386045F824600CF05CF9F8BD00BFE9
:104A60004C2E0020182F0020502E0020000048421D
:104A70002DE9F74F8046A12092468946FEF796FE23
:104A80000446AA20FEF792FE074684EAE470A0EBF3
:104A9000E4700CF037F8DFF8F8B10446DBF80050AA
:104AA00029460BF079FF002101900CF01DFA019BC3
:104AB00008B103F10043774A1946166830460CF0F6
:104AC00013FA50B1294620460CF02CFA3146002842
:104AD0003CD028460BF062FF0446CBF80040002F84
:104AE00000F0CE8020460CF03DFA0546BAF1000FEA
:104AF00030D0632840F3C4800CF004F8664B804645
:104B00001E6831460CF0F0F9002840F0B980634B84
:104B100040461F68624B39461C680CF0E5F988B1C5
:104B200030460CF01FFA064620460CF01BFAAD1B6F
:104B3000454338460CF016FA801B95FBF0F00BF05D
:104B4000E1FF0446204603B0BDE8F08F28460BF095
:104B500023FFC1E749464046FFF79CFD514B0646FF
:104B60001C68014620460CF0DDF9002876D121466C
:104B700030460BF011FF214606464B480BF00CFF68
:104B8000014649480CF0C6F831460CF00FF80446CF
:104B9000464B20461C60FFF745FF0146064620466F
:104BA0000BF0FAFE424980460CF09EF930B94FF006
:104BB0007E5140460CF0B6F900B93446632D4FDD06
:104BC00028460BF09FFF344B8246D3F800804146C5
:104BD0000CF08AF9002843D1304B5046D3F80090AE
:104BE000344B49461E680CF07FF998B140460CF0F2
:104BF000B9F9804630460CF0B5F9A5EB08054543F8
:104C000048460CF0AFF9A0EB080095FBF0F00BF074
:104C100079FF0646284D012F2E6023D127493046C3
:104C20000BF0C4FF05462549254B18680BF0BEFF65
:104C300029460BF0B1FE21460BF0B8FF1A490CF0E3
:104C400069F829460BF0AAFE0BF0A0FB0EA3D3E9EE
:104C500000230BF0F3FB0BF04BFE72E7002497E709
:104C60000026D7E72720FEF7A1FD08B900232B6017
:104C7000124928680BF09AFF10490546114BD4E7FA
:104C800000245FE7AFF300809A9999999999B93F09
:104C9000242F0020342F00206C2F0020702F0020A4
:104CA000642F0020542F00200000C8421C2F002039
:104CB000000080BF682F0020202F0020000020412E
:104CC000602F00205C2F00202DE9F3411F4C064689
:104CD0002C201F460D4690460194FEF76FFD01AA59
:104CE00001464046FFF748FD2D20FEF767FD01AA6B
:104CF00001463846FFF740FD314601A8FFF782FD27
:104D0000294601A8FFF7EEFD089901A8FFF764FE08
:104D1000214601980BF0FEFF4FF07E5104460CF047
:104D200001F920B9002120460CF0DEF860B94FF0FF
:104D30007E5120460CF0F6F820B14FF07E5002B0C4
:104D4000BDE8F0812046FAE70020F8E70000C842FD
:104D5000F7B51E461F4B05462C2001930C461746FF
:104D6000FEF72CFD01AA01463846FFF705FD2D2070
:104D7000FEF724FD01AA01463046FFF7FDFC294657
:104D800001A8FFF73FFD214601A8FFF7ABFD0899F9
:104D900001A8FFF721FE01980F4900F100400BF038
:104DA000B9FF4FF07E5104460CF0BCF820B9002149
:104DB00020460CF099F858B94FF07E5120460CF07F
:104DC000B1F818B14FF07E5003B0F0BD2046FBE7BC
:104DD0000020F9E70000C8C20000C842024B00BF33
:104DE000013BFCD1704700BF00127A0010B50446A9
:104DF000002240F2215102F01CFA002240F222511E
:104E0000204602F016FA002240F22351204602F01A
:104E100010FA002240F22451204602F00AFA002241
:104E200040F22551204602F004FA002240F22651B9
:104E3000204602F0FEF9002240F22751204602F0FF
:104E4000F8F92046BDE8104000224FF4A56102F0B9
:104E5000F0B90000002313B5054A40F21141CDE935
:104E6000002303686A465C680823A04702B010BDAF
:104E7000340001003222002313B5CDE9002303687A
:104E80006A465C6840F211410823A04702B010BD99
:104E9000002313B5054A40F21141CDE90023036810
:104EA0006A465C680823A04702B010BD34010100C7
:104EB0002DE9F7430026174B05461E702024FFF707
:104EC000C9FF4FF04209FFF789FF4FF4C8482B682C
:104ED00001966A4640F2114128465F688DF800400D
:104EE00008238DF80190ADF802800134B847E4B290
:104EF0002846FFF773FFFFF7BDFFFFF76FFF292C71
:104F0000E5D12846FFF7C4FFFFF768FF03B0BDE80F
:104F1000F08300BF0C1D0020D0F80220014B1A6066
:104F2000704700BFA02F0020D0F80220014B1A606C
:104F3000704700BF902F0020D0F80220014B1A606C
:104F4000704700BF8C2F0020D0F80220014B1A6060
:104F5000704700BF882F0020054A13880133138053
:104F60000A22D0F8023093FBF2F3024A1360704732
:104F7000A42F0020842F0020D0F80220014B1A60BB
:104F8000704700BF982F0020D0F80220014B1A6014
:104F9000704700BF9C2F0020D0F80220014B1A6000
:104FA000704700BF942F00206FF4A463C318084615
:104FB000072B15D8DFE803F00406080A0C0E1012C0
:104FC000FFF7AABFFFF7B0BFFFF7B6BFFFF7BCBF41
:104FD000FFF7C2BFFFF7D0BFFFF7D6BFFFF7DCBFB9
:104FE00070470161704741617047007A7047007AED
:104FF00070470023C372704710B5044600226160F9
:1050000008464FF4987102F014F900224FF43F71F2
:10501000606802F00EF900224FF49061606802F0BF
:1050200008F960680022BDE810404FF4D07102F02A
:1050300000B900002DE9F0410025BCB08846F022FF
:1050400068460F490CF01AF86C4614262F46206863
:105050000BF058FD41460BF051FF08B1D4E9017542
:10506000013E04F10C04F2D139467420FEF7BEFB78
:10507000294675203CB0BDE8F041FEF7B7BB00BF44
:10508000682C010810B404686468A44610BC60472A
:10509000037E73B50446002B50D0AA20FEF786FB92
:1050A000324B00284CD10321314A20731170E12288
:1050B0001A701B782F4D8DF800300C238DF80130BD
:1050C0008F238DF802302B7860688DF80330F02341
:1050D0008DF8043003686A464FF4E9715E68052371
:1050E000B0472B783B201033DBB2ED2B08BF0D23EC
:1050F0002B70FEF75BFB204BC0B21A78824215D0B2
:105100004FF40952ADF8002000228DF802204FF034
:10511000FF32019230BB30228DF8032018706A46AE
:10512000082340F292516068FFF7ACFF2368952096
:105130001D6AFEF743FB01462046A84702B070BD3A
:10514000421C06D1012202212273094A1170D22287
:10515000AEE70128ADD1032208212273044A117061
:105160007822A5E70828D9D13122D5E7121D0020E1
:10517000111D0020AC2F0020A62F00200B7803F07B
:10518000010343720B78C3F3800303720B78C3F3FC
:10519000001383728B78C3F3C0034376704700001B
:1051A00008B54B7808781B0203F4706318440BF0C1
:1051B000DBF809A3D3E900230BF040F90BF098FBCF
:1051C00007490BF0F3FCBDE808400146A220FEF7BA
:1051D0001BBB00BFAFF300809A9999999999B93F89
:1051E0002B121F3F0B78842B03D10121E520FEF702
:1051F000FDBA812B01D10021F8E770474B78323B93
:1052000018BF0123037670470B46B3F53F7F114665
:105210000FD006DCB3F5987F07D0B3F5D07F06D06A
:105220007047B3F5906F06D07047FFF7A7BFFFF741
:10523000B7BFFFF7D7BFFFF7E1BF000003682DE955
:10524000F74F5B6B05460E469847634C002800F00D
:10525000BD80A120FEF7AAFA40F2ED23984240F368
:10526000B280A120FEF7A2FA800080B2072294212A
:10527000237843F0500300278DF802200A44AA3215
:1052800002EB10228DF80130ADF804001344C0B2D7
:10529000034403EB23236A4668688DF806108DF8F3
:1052A0000030AA2108238DF807708DF80370FFF7EE
:1052B000E9FEBE420CBF04226422DFF820A14FF0B9
:1052C0000F0B9AF80010DFF8189101F5FC731344E6
:1052D00003EB13238DF800304EF22103ADF80230BA
:1052E00041F6217368688DF80110ADF80430A821EB
:1052F00008238DF807206A46DFF8E8808DF806B0AD
:10530000FFF7C0FE99F800306A468DF8003098F833
:105310000030A9218DF801304DF67973ADF80230D7
:10532000314B686801930823FFF7ACFE2F4E304BDA
:105330003278197868688B188DF80010FF2103F512
:10534000E47303EB13238DF801108DF80530BA21B7
:1053500007238DF806206A46ADF802B08DF8047078
:10536000FFF790FE23782349013323700B78224AFC
:1053700001330B709AF80030307801338AF800302E
:1053800099F800300130013389F8003098F8003086
:105390003070013388F8003013780133DBB25C2BB6
:1053A00013700DD1BE230B70E92389F800304D2313
:1053B0001370802327708AF8007088F800703370AB
:1053C00003B0BDE8F08F40F6B8304FE72378FE22F7
:1053D000842143F030034EE7A72F0020A92F00209F
:1053E0000F1D0020A82F00201DC7E0210D1D00204B
:1053F000111D0020101D00200E1D0020037E10B581
:10540000044643B1B620FEF7E7F901462046BDE861
:105410001040FFF713BF10BD73B506468020FEF79E
:10542000C5F9012815BF00239C231A469E224FF080
:105430008F0014BF1D4660258DF804308DF80520BF
:10544000FEF7BCF9014621480BF0A6FA20490446B4
:105450000BF068FD002835D120460BF083FD642356
:1054600058434FF4FA7390FBF3F032300BF04AFBE1
:1054700018490BF093FA3C23174C8DF800300BF0D1
:1054800097FD23786A461D43C3238DF8033048F205
:10549000CD234FF4E8718DF80100ADF80630706847
:1054A00008238DF80250FFF7EDFD0C4A21781378A0
:1054B0008B4209D10133DBB20F2B08BF00232370CD
:1054C00002B070BD0648D6E71170F9E70000C84287
:1054D0000040034400004042AB2F0020AA2F0020D0
:1054E00000001643037E73B50446A3B148F261235E
:1054F0000093C37A63B9032560686A46036840F283
:1055000032315E680223B047013DF5D10123E372D9
:105510002046FFF781FF02B070BD01617047416115
:105520007047007A7047007A70470023C372704753
:1055300010B504460022616008464FF4987101F0EE
:1055400078FE00224FF43F71606801F072FE002285
:105550004FF49061606801F06CFE00224FF4D0714E
:10556000606801F066FE60680022BDE8104040F20D
:10557000FE3101F05EBE00002DE9F84F00250F4618
:105580002C46284E28460BF0BDFAA0463946013479
:10559000814656F8345006EBC40B0BF0AFFC0028E4
:1055A0003CD028460BF0AEFA394682460BF0B0FCF0
:1055B000002833D006EBC808D8F804000BF0A2FA94
:1055C0000446DBF804000BF09DFA21460BF0E4F9E9
:1055D0004946054638460BF0DFF94946064650462F
:1055E0000BF0DAF9014630460BF094FB01462846F1
:1055F0000BF0DCFA21460BF0D1F94FF07C510BF0A7
:10560000CDF90BF0AFFC044621467420FEF7EEF80E
:105610002146BDE8F84F7520FEF7E8B8072CB1D158
:10562000FF24F1E7A02D0108037E37B504462BB314
:105630003B20FEF7BBF8144BC0B21A78824215D05B
:105640004FF40952ADF8002000228DF802204FF0EF
:10565000FF320192A0B930228DF8032018706A46FB
:10566000082340F292516068FFF70CFD23689520F3
:105670001D6AFEF7A3F801462046A84703B030BDD7
:105680000828EBD13122E7E7B42F00200B7803F094
:10569000010343720B78C3F3800303720B78C3F3E7
:1056A000001383728B78C3F3C00343767047000006
:1056B00008B54B7808781B0203F4706318440AF0AD
:1056C00053FE07A3D3E900230AF0B8FE0BF010F94C
:1056D000BDE808400146A220FEF796B8AFF300806F
:1056E0009A9999999999B93F10B50B780C46842BE2
:1056F0000BD10121E520FEF779F86178E620BDE8BD
:10570000104001F00101FEF771B8812BF5D10021A5
:10571000F0E74B78323B18BF01230376704708B59A
:10572000B1F900000BF0EEF94FF074510BF03EFAB6
:10573000BDE808400146A420FEF766B80978BC2001
:105740008B1E59425941FEF751B80B46B3F53F7FC6
:10575000114615D008DCB3F5987F0DD0B3F5D07F96
:105760000CD0B62B10D0704740F2FE3293420DD0D1
:10577000B3F5906F06D07047FFF788BFFFF798BF6B
:10578000FFF7B2BFFFF7C5BFFFF7C9BFFFF7D6BF2F
:1057900003682DE9F7435B6B05460E469847534C6B
:1057A000002800F09C80A120FEF700F840F2ED23D5
:1057B000984240F39180A120FDF7F8FF800080B26D
:1057C00007229421237843F0500300278DF802200C
:1057D0000A44AA3202EB10228DF80130ADF8040021
:1057E0001344C0B2034403EB232368686A468DF870
:1057F00006108DF80030AA2108238DF807708DF867
:105800000370FFF73FFCBE420CBF04226422DFF8A6
:10581000E090DFF8E08099F80010686801F5FC730B
:10582000134403EB13238DF800304EF22103ADF83F
:10583000023041F62173ADF804300F238DF80110CA
:105840008DF80630A82108238DF807206A46FFF757
:1058500019FC294E98F8003068688DF800303378CC
:105860006A468DF801304DF67973ADF80230234B5E
:10587000A92101930823FFF705FC23782048013371
:10588000237003781F490133037099F800301E4AD2
:10589000013389F8003098F800301578013388F822
:1058A000003033780135013333700B7815700133D4
:1058B000DBB25C2B0B700CD1BE230370E92388F89C
:1058C00000304D230B708023277089F800703770EB
:1058D000137003B0BDE8F08340F6B83070E723786A
:1058E000FE22842143F030036FE700BFB52F002074
:1058F000B72F0020151D0020B62F00201DC7E02166
:10590000161D0020141D0020131D0020037E10B55D
:10591000044643B1B620FDF75FFF01462046BDE8CF
:105920001040FFF735BF10BD2DE9F3470746AB2008
:10593000FDF744FF0446AC20FDF740FF4D49054606
:1059400020460BF02BF8002104460BF0CDFA00287E
:105950007ED1204648490BF0E5FA00287AD120464E
:105960000BF026FB0646434928460BF017F80021AA
:1059700004460BF0B9FA00286ED120463E490BF0E0
:10598000D1FA00286AD120460BF012FB0546802090
:10599000FDF70CFF01284FF00004DFF8E08061D133
:1059A0003D20FDF70BFF36490BF0B4F981468B2003
:1059B000FDF704FF214682460BF096FA00284FD0EF
:1059C00030490AF100400BF0F1F849460BF0A2F91A
:1059D0002D490BF0EBF8D8F800100AF0DFFF4FF07C
:1059E0008F4104460BF094FA28B120464FF08F41C6
:1059F0000AF0D2FF04462046C8F800400BF0D8FA5F
:105A00006023ADF80400214C4FF4E87122787868E7
:105A100013438DF80230C3238DF8033049F2CD6370
:105A20006A46ADF8063008238DF800608DF8015005
:105A3000FFF728FB164A217813788B4218D10133DF
:105A4000DBB20F2B08BF0023237002B0BDE8F08744
:105A5000002688E7CF2686E7002598E7CF2596E73A
:105A60002046B2E70023C8F80040ADF80430CAE78A
:105A70001170EAE70000404200004F43B02F0020C1
:105A800000007C425304E93700247449B92F0020F8
:105A9000B82F0020037E73B50446A3B148F26123FA
:105AA0000093C37A63B9032560686A46036840F2CD
:105AB00032315E680223B047013DF5D10123E37224
:105AC0002046FFF731FF02B070BD4069704708B54E
:105AD000B0F908000BF016F808BD08B5B0F90C00D5
:105AE0000BF010F808BD0000014B1878704700BF9C
:105AF0004B3000200000000038B51D48FEF718FDAF
:105B000005461C48FEF714FD044628460AF02CFC06
:105B100013A3D3E900230AF091FC13A3D3E90023D4
:105B20000AF0D6FA0AF0E4FE054620460AF01CFC0C
:105B30000BA3D3E900230AF081FC0BA3D3E90023D4
:105B40000AF0C6FA0AF0D4FE0446014628460BF0D5
:105B5000E9F908B1284638BD2046FCE7AFF30080DC
:105B60001213371BE91495BF988F7B2556484C407C
:105B7000642D0020602D002038B505460C461A48DB
:105B8000072109F0C5F90721184A174809F042FA18
:105B90002A460721144809F046FAA2B20721124802
:105BA00009F051FA0721104809F019FA07210E48A7
:105BB00009F0F6F9002207210B4809F0E4F9002268
:105BC0000721094809F0D2F94FF48052072106480D
:105BD00009F0BFF90448072109F00AFABDE8384086
:105BE00003480AF02FB800BF000002400444004000
:105BF0000044004010B504460621194809F088F910
:105C00000621184A164809F005FA0621164A1448D2
:105C100009F009FAA2B20621114809F014FA062186
:105C20000F4809F0D3F906210D4809F0B9F900220F
:105C300006210B4809F0A7F900220621084809F0BF
:105C400095F900220621064809F083F90448062147
:105C500009F0CEF9BDE81040044809F0EEBF00BFDE
:105C60000000024004440040BA2F002000440040DD
:105C700038B504463420FDF799FD00B20228E081D2
:105C80001FD1344D344B2878002832D141F6583298
:105C9000B4F90C10914201DD01221A7019782F4AD3
:105CA000884248D0012313702D4B93F900002D4BEF
:105CB00010B91878013018701878042822D108B269
:105CC000E081012808D12848FBF712FE2748FBF79E
:105CD0000FFE2748FBF70CFEB4F90E30C3B922487B
:105CE000FBF706FE2148FBF7FFFD2148FBF7FCFD13
:105CF0000EE00128D2D1B4F90C20B2F5FA6FCDDA5A
:105D00000022CAE7052803D12970002119701170FB
:105D1000B4F90E30032B0DD1AA20FDF747FD013059
:105D200011480DD1FBF7E4FD1048FBF7DDFD1048ED
:105D3000FBF7DAFD38BD002300B2E0811370C0E745
:105D4000FBF7D6FD0948FBF7D3FD0948FBF7D0FD6B
:105D5000F0E700BF48300020473000204A300020E4
:105D60004930002046300020C42C0020D42C0020D4
:105D7000CC2C0020000000002DE9F74F0646122031
:105D80008846FDF713FD8E4BC4B21B78012B40F003
:105D9000B4803046FFF76CFF40468A490AF006FFA0
:105DA00089490AF0B7FF0BF0DDF8884D884F95F967
:105DB00000A0388050460AF0A5FE41460AF0F6FEE3
:105DC0000AF0E4FA7CA3D3E900230AF037FB0AF0D7
:105DD0008FFD804981460AF0E9FE7B490AF09AFF6F
:105DE0000BF0C0F8DFF8F0B1DFF8F0819BF800208D
:105DF0003062A8F80000002A00F0D880BAF1000F45
:105E00002EDD2420FDF7DAFC019095F900000AF060
:105E100079FE7349824601980AF0C8FE0146504651
:105E20000AF0BAFD0BF09EF840B200283DDB632873
:105E3000287015DC9BF8003093B92420FDF7BEFCD8
:105E4000824695F900000AF05DFE51460AF0A6FD73
:105E50000BF088F840B26428CABF642328702B7006
:105E6000B6F90E3023BB002148460BF03DF8F8B1DF
:105E7000B8F900000AF078FA00225A4B0AF0DEFA6C
:105E80000AF0EEFCA8F80000B7F900000AF06CFA7E
:105E90000022544B0AF0D2FA0AF0E2FC3880032CBC
:105EA00014D8DFE804F00B100E1B00222A70C1E7A3
:105EB000032C0BD8DFE804F00207050D336A002B32
:105EC00004DA434B00E0454B00221A8003B0BDE8E2
:105ED000F08F484644490BF025F810B900233B8069
:105EE000F4E748460BF03EF841F2171332385843B6
:105EF000322390FBF3F03880E8E7022B1ED13549BE
:105F000040460AF053FE30490AF004FF0BF02AF82D
:105F1000324A03B2138013EB83032D4948BF033386
:105F20009B1030620B800CB9A042C9E7012C02D152
:105F300000231380CAE7022CC8D1C2E7032BC5D1C6
:105F4000244940460AF032FE1F490AF0E3FE0BF0F6
:105F500009F8224A03B2138013EB83031C4D48BF98
:105F600003339B1030622B80032CAFD801A353F86E
:105F700024F000BF855F0008C75E0008C35E00080C
:105F8000895F000800289BE7404617490AF0CAFFCE
:105F900008B928809AE740460AF0E4FF41F2171357
:105FA00032385843322390FBF3F0F2E7BAF1630F33
:105FB0003FF756AF41E700BF7B14AE47E17A843F1D
:105FC0005530002000B888450000C8424930002004
:105FD0004E30002000C05A454A3000204C3000208E
:105FE0000000A0400000E03F0000484210B58020C3
:105FF000FDF7DCFB08B902F053FF8020FDF7D6FB6C
:10600000012841D12148FBF755FC0146BD20FDF791
:10601000EDFB1F48FBF74EFC0146BE20FDF7E6FBFB
:106020001C48FBF747FC0146BF20FDF7DFFB194882
:10603000FBF740FC04461648FBF73CFC84F00103E8
:1060400080F001046400114844EA8304FBF732FC49
:1060500080F0010044EA00035BB20F4C062B237072
:1060600003D10021C220FDF7C1FB2378052B03D10A
:106070000121C220FDF7BAFB3520FDF797FBBDE8F3
:10608000104080B202F00CBF10BD00BFBC2C00203D
:10609000B42C0020AC2C002050300020034B1B7887
:1060A000012B01D1FFF7A2BF704700BF5530002080
:1060B00000220B4870B5134605468C1E944209DC3D
:1060C000294411F8012C285D40EA0220C31A5842E5
:1060D000584170BD10F8016B013233449BB2EDE7BB
:1060E000BA2F0020002070B5084C034622468D1EB2
:1060F000854205DC53550A441B0A02F8013C70BD79
:1061000014F8016B01303344F2E700BF492200204C
:10611000F8B5B94D04462B780E2B3ED8DFE813F0C6
:106120000F0016003B003E007600B800BA00D90010
:10613000DB000701600186019F01A101CA01642003
:10614000FFF758FDAD48FBF7D3FB1EE0AC4CAB4866
:10615000FBF7CAFB23787BB902220721A94808F084
:10616000EEFE90B107210222A64808F0E2FE50217F
:10617000A548FFF701FD08E05021A448FFF7FCFC0B
:10618000A34B5B7823B9012323702B78013303E001
:106190002378013BF8E703232B70F8BD6421FFF758
:1061A00087FF9B4E9B4F38B9014638706081A081B4
:1061B000B220FDF71BFB23E002220621914808F0E4
:1061C000BEFE0028F0D0022206218E4808F0B1FE63
:1061D00001233B70B6F85230053B03EBD3735B10E1
:1061E000238196F92A000AF08DFC606196F9560029
:1061F0000AF088FCF388A0616381B6F81F30A381A0
:10620000002386F8623086F86330BEE7824EA32012
:10621000B6F90010FDF7EAFA6189A2897A4B0A44BF
:10622000712112B292FBF1F27C491A70B1F900208F
:106230000978880083F84B009011524212129A712B
:106240001A73B6F9002049425971D9729A76110A27
:1062500083F82020782283F83F20EC2283F8402026
:106260006C2283F841206B2283F84C00D97683F8A6
:1062700021102046502183F84220FFF733FF684A5F
:106280001388642B8CBF002301331380002383E722
:10629000782055E75A4C5948FBF726FB2378052B05
:1062A0000ED902220721574808F049FE00283FF482
:1062B0006CAF07210222534808F03BFE642157E7E8
:1062C0006421584801FB0300FFF756FC2378013393
:1062D0005AE7082360E77821FFF7EAFE4C4E4D4F5E
:1062E00000283FF461AF02220621464808F027FE4D
:1062F00000283FF459AF02220621424808F019FE57
:1063000001233B70B6F86430053B03EBD3735B109D
:10631000238196F914000AF0F5FB6061B6F8560087
:106320000AF0F0FBF388A0616381F38C67E73A4ED3
:10633000A320B6F90010FDF759FA384B206AB3F9DB
:106340000020314B11125A71DA72B6F9002099719E
:10635000197300284FEA12219A77D97736DD9A7699
:1063600002EBD27252101A77120AD9765A77752137
:1063700083F84A10122183F84B106021402283F8E1
:106380004C10252183F84820042283F84D10522117
:1063900083F8492083F84F20892283F84E10224940
:1063A00083F8562083F858200A78204601320A7074
:1063B000D20748BF93F85E204FF0640144BF01321A
:1063C00083F85E20FFF78EFE0523E5E6CFD01A772F
:1063D00002EBD27252109A76120A5977DA76C6E731
:1063E0008020FDF7E3F901281CBF0022044B4FF089
:1063F0008C0018BF1A70A3E654300020A42C002093
:10640000B22200200000024049220020E52E0108AF
:10641000BA2F00204B3000204C3000204E3000209E
:10642000523000208D1F002051300020384C394858
:10643000FBF75AFA2378062B0ED902220721364899
:1064400008F07DFD00283FF4A0AE0721022232486B
:1064500008F06FFD69218BE66921304832E70D2392
:106460009AE68C21FFF724FE2D4E08B30222062166
:10647000294808F064FDD8B102220621264808F018
:1064800058FD01233370274EB6F875305B10238119
:1064900096F914000AF036FB6061B6F819000AF0AC
:1064A00031FB7389A0616381B6F82B30A3816CE660
:1064B00030706AE61C4EA320B6F90010FDF796F97D
:1064C0001A4B2046B3F90020194B524211125A714F
:1064D000DA72B6F900209971DA77121283F8202067
:1064E0009A7E197383F82520DA7E692183F82620A5
:1064F000782283F84F20EC2283F85020102283F872
:106500005120272283F85220FFF7ECFD0A2343E6AF
:10651000B2220020A42C002000000240171D002001
:106520004B300020BA2F00204C3000204E3000208D
:106530004922002038B5037F04468B420D460AD01D
:1065400051B16020FDF732F908B9FCF7D5FEFCF730
:1065500009FF0123237738BD4FF0804009F0B2F9DD
:106560002577F8E708B50121FFF7E4FF0B4B1A7810
:10657000042A04D805221A700022094B1A7000233D
:106580000849094A11F8010B0133642B02F8010B89
:10659000F8D10222054B1A7008BD00BF543000200C
:1065A000B2220020182E0108492200205530002078
:1065B00008B50121FFF7BEFF064B1A78042A04D95B
:1065C00000221A700122044B1A700122034B1A7028
:1065D00008BD00BF54300020B222002055300020FA
:1065E000012108B5FFF7A6FF0A4B0B491A78092AC3
:1065F0009CBF0A221A700022084B1A706923084AAD
:1066000011F8010B013B02F8010BF9D10322054BF4
:106610001A7008BD543000207C2E0108B2220020E0
:1066200049220020553000200021FFF783BF01815F
:106630007047000008B508460AF094FCA622A0F1B5
:106640000F035343412293FBF2F3024A5833138062
:1066500008BD00BF56300020B520FDF7BDB810B50D
:10666000044600226160084640F2531100F0E1FD4B
:1066700060680022BDE8104040F2F31100F0D9BD7F
:1066800040F25313994210B5044610D1B2F80100FC
:10669000A0F5B0700AF036FA4FF076510AF086FA9B
:1066A0000146A220FDF7B0F80123E37203E040F2B7
:1066B000F3139942F8D010BD10B50446C07A10B952
:1066C0000348FBF7F7F800232073E37210BD00BF07
:1066D000642C002008B50248FBF7ECF808BD00BFA9
:1066E000642C002007B540F2EE22038940F21631F7
:1066F000934238BF13460522ADF8002041F65832C8
:10670000934228BF13460A229B01B3FBF2F3ADF874
:10671000023000236A46019340680823FEF7B2FC6A
:1067200003B000BD13B5154A0024137814498DF841
:106730000030144B01941B888DF80130C523ADF84F
:1067400002300B780133DBB2152B0CD80B7063B918
:106750001123137008236A4640F229314068FEF77E
:1067600091FC02B010BD0C70F2E7082B01D186231A
:10677000EFE70F2BEED1D923EBE700BF5A30002013
:106780005B30002056300020462313B5ADF80430AE
:10679000002340688DF80630036840F23B415C6896
:1067A00001AA0323A04702B010BD000007B50C4AA0
:1067B00040F24551138840680133138000228DF860
:1067C00001301B0A8DF80230064B8DF800208DF841
:1067D000032001936A460823FEF754FC03B000BD72
:1067E000583000207E10001807B5C9B1012919D012
:1067F00001310CBF072308238DF801304FF6FF73DA
:106800008122ADF80230084B8DF8002001936A46D2
:10681000082340F23F414068FEF734FC03B000BD5E
:106820000623E9E70523E7E70080FFFF037B10B5B8
:106830000446BBB1FFF756FF2046FFF773FF204623
:10684000FFF7B4FF2046FFF79FFF0320FCF7C4FFCC
:1068500040B1AA20FCF7AAFF41B22046BDE8104093
:10686000FFF7C2BF10BD018170477047B520FCF72C
:10687000B3BF000008B5084B186899889B792BB105
:1068800008F04DFDB0FA80F0400908BD08F047FD62
:10689000003818BF0120F8E7642C002030B51F4AEB
:1068A0001F4B89B0CDE901231E491F4B1F4CCDE979
:1068B00003131F4B1F4D05930023ADF819302378A8
:1068C0004FF4B06163F07F038DF818302B68406897
:1068D00020336B4413F81C2C8DF81B2013F8182C54
:1068E0008DF81C2013F8142C8DF81D2013F8102C93
:1068F00013F80C3C8DF81E208DF81F3006AA0823D3
:10690000FEF7C0FB2B68013303F003032B602378F1
:10691000013303F00F03237009B030BD0F287F2827
:106920001E1000107056F0560C48A7485C3000202E
:10693000469028906030002037B540F2EE2203895F
:106940000025934238BF134641F65832934228BF80
:106950001346044603819A009B09CDE900554FF484
:1069600020718DF803308DF8042008236A464068B2
:10697000FEF788FB08236A464FF4227160688DF8A1
:1069800003508DF80450FEF77DFB03B030BD0000CE
:1069900008B5034BB3F900000AF0B4F808BD00BF16
:1069A0007030002008B5034BB3F900000AF0AAF8D4
:1069B00008BD00BF7230002008B5024B18880AF0ED
:1069C0009DF808BD7630002008B5034BB3F90000F0
:1069D0000AF098F808BD00BF74300020064B1A7802
:1069E000064B0AB91A7001E0012AFBD0044A12686A
:1069F00002B91A70187870476C3000206D30002092
:106A00006830002010B504460022616008464FF44B
:106A1000C87100F00EFC00224FF4CD71606800F0E8
:106A200008FC00224FF4D271606800F002FC60683C
:106A30000022BDE810404FF4D77100F0FABB00000F
:106A40002DE9F3410646084635490AF0AFF80AF049
:106A500089FA344B01B2A3201980FCF7C7FE8020CD
:106A6000FCF7A4FE0546B720FCF7B6FE00284DD083
:106A70006B1E5C425C41E400B820FCF7ADFE28B11F
:106A800004F11003DBB2012D08BF1C46B620FCF751
:106A9000A3FE012D04EB80043AD1234A138813B1DD
:106AA000013B13800234A520FCF780FEC0F30B05E8
:106AB000A620FCF77BFE8046DE20FCF777FE00F088
:106AC0000307B220FCF772FE184B45EA046503EA9F
:106AD00008331D43C0F30D0040EA873045EA87754F
