:020000040800F2
:10100000005000201DFB000819FB000817FB00081A
:1010100017FB000817FB000817FB00080000000082
:1010200000000000000000000000000019FB0008A4
:1010300019FB00080000000019FB000819FB00085C
:1010400017FB000817FB000817FB00084D280008D5
:1010500017FB000817FB000817FB000817FB000828
:1010600017FB000817FB000817FB000817FB000818
:1010700017FB000817FB000817FB000817FB000808
:1010800017FB000817FB000817FB00088183000806
:10109000618300087183000817FB000817FB000834
:1010A00017FB000817FB000817FB000817FB0008D8
:1010B00017FB000817FB0008FD27000817FB0008B6
:1010C00017FB000817FB000817FB000817FB0008B8
:1010D00017FB000817FB000817FB000817FB0008A8
:1010E0000928000817FB000817FB000817FB000879
:1010F00017FB000817FB000817FB000817FB000888
:1011000017FB000817FB000817FB000817FB000877
:1011100017FB000817FB000817FB000817FB000867
:1011200017FB000817FB000817FB000817FB000857
:1011300017FB000817FB000817FB0008AD83000829
:101140008D8300089D83000817FB000817FB00082B
:1011500010B404466468084611461A46234610BC7B
:101160001847836818477047704770477047704743
:1011700041607047704770477047704770477047CD
:1011800070470020704700207047000000487047FB
:101190000000484200207047416070477047704728
:1011A0007047704770470020704741607047704734
:1011B0007047704770477047002070477047416024
:1011C00070470020704770477047704770477047FE
:1011D000002070477047416070477047002070479B
:1011E00070474160704770470846704770477047C6
:1011F0007047704700487047003C1C46416070478C
:10120000704770477047704770474160704770473C
:101210000020704700207047002070470020704772
:101220000020704770477047104B10B5186803686E
:101230001B6898470E4B186803681B6898470D4B4E
:10124000186803681B6898470B4B186803681B688D
:1012500098470A4B186803681B689847BDE8104018
:10126000074B186803689B68184700BF20000020E0
:101270001C00002014000020100000200C000020A2
:101280000400002010B5174C206803689B6998473C
:10129000052002F061FA062818D8DFE800F0040AF9
:1012A0000C0E1012200000220F4B1A700F4B2360FF
:1012B0000CE00F4BFBE70F4BF9E70F4BF7E70F4B3A
:1012C000F5E701220E4B23600E4B1A700E4C20687E
:1012D00006F008F86068BDE8104006F003B80B4B54
:1012E000E5E700BF14000020562A00203429002022
:1012F0002C29002024290020542900204C290020DA
:101300000C2900202C2A0020482A002044290020F3
:1013100010B5114C20680368DB699847042002F07F
:101320001BFA042806D8DFE800F003100E121400A0
:101330000A4B23600A4C206805F0D4FF6068BDE8C2
:10134000104005F0CFBF074BF3E7074BF1E7074B22
:10135000EFE7074BEDE700BF100000203C2900201D
:10136000482A002004290020FC280020F42800201E
:10137000EC28002010B5124C206803685B68984781
:10138000062002F0E9F90138052815D8DFE800F059
:10139000160E0E0310120B4B23600B4C206805F049
:1013A000A1FF6068BDE8104005F09CBF074BF3E764
:1013B000074BF1E7074BEFE7074BEDE7074BEBE791
:1013C0000800002010270020482A0020E0260020E6
:1013D000A4260020582600203827002018270020A7
:1013E00010B50B4C206803685B689847492002F0F1
:1013F000B3F9084A084B012808BF13462360074C7D
:10140000206805F06FFF6068BDE8104005F06ABF16
:10141000040000204026002050260020482A0020FA
:10142000022010B502F098F90138032815D8DFE83A
:1014300000F0020E10120A4B0A4C0B4A206813608F
:1014400005F050FF6068BDE8104005F04BBF074B4A
:10145000F2E7074BF0E7074BEEE7074BECE700BF7F
:1014600088270020482A00200C0000207027002038
:10147000642700207C2700203426002010B501209E
:1014800002F06AF909280FD8DFE800F0171C2B0ECC
:1014900005091F222528144B144A1A6004E0124A39
:1014A000134B136000229A72124C206805F01AFF49
:1014B0006068BDE8104005F015BF0B4A0C4B136087
:1014C0000122F0E7084B0C4AE7E7074B0B4AE4E739
:1014D000054B0B4AE1E7044B0A4ADEE7024B0A4A96
:1014E000DBE7014B094AD8E71C0000204C2700200D
:1014F000BC290020482A0020E8290020B02900202B
:1015000098290020042A0020CC2900204027002010
:10151000036810B59B6898470FF076FC00240146DD
:101520009A2002F039F92146952002F043F921462C
:10153000962002F03FF92146982002F03BF921461F
:10154000BDE81040992002F035B9000010B51C4CE0
:10155000206803689B6A9847002002F0FDF809287C
:101560000FD8DFE800F005080A0E271C2117292BE9
:10157000144B236005E0144BFBE71448206005F092
:1015800053F8134C206805F0ADFE6068BDE81040CC
:1015900005F0A8BE0D48206005F05EF8F1E70B48A5
:1015A000206005F01BF8ECE70A4B012223600A4B90
:1015B0001A70E6E7094BDCE7094BF6E7094BD8E779
:1015C00020000020DC2800205C2900207429002055
:1015D000482A0020BC2800202C2A0020E4280020D3
:1015E00014260020E025002010B5144C2068036864
:1015F0001B699847512002F0AFF8032805D8DFE8AF
:1016000000F0020D0F160E4B23600E4C206805F003
:1016100069FE6068BDE8104005F064BE0A4BF3E760
:101620000A4B0B48196820600BF08CF9EDE701229A
:10163000084B2360084B1A70E7E700BF1800002032
:10164000B4280020482A0020A8280020DC250020FB
:10165000542700209C2800202C2A0020B42002F0CF
:1016600091B800002DE9F74F082002F075F8484CBA
:1016700054F820100920019102F06EF854F820600F
:101680000A2002F069F854F820500B2002F064F8A8
:1016900054F820A00C2002F05FF854F820B00D2080
:1016A00002F05AF854F820900E2002F055F854F841
:1016B0002070102002F050F854F82080112002F021
:1016C0004BF854F8203001990093324B18680368A6
:1016D000DB6A9847304B314618680368DB6B9847E4
:1016E0002E4B594618680368DB6998472C4B5146C6
:1016F000186803681B6A98472A4B494618680368AC
:101700001B699847284B4146186803685B699847EE
:10171000264B3146186803689B6998473946244828
:1017200009F066FF234B0099186803685B699847C6
:10173000072002F011F8012802D1284603F02EFB01
:10174000072002F009F8022802D1284609F004F91E
:10175000072002F001F8032802D1284609F02EFBE9
:10176000072001F0F9FF042802D128460CF0F8FF09
:10177000002240F20161606805F097FD002240F20E
:101780000161206803B0BDE8F04F05F08EBD00BFD9
:10179000482A0020200000201C0000201400002007
:1017A0001000002008000020040000200C00002091
:1017B0003C2600201800002038B540F2DF73984224
:1017C00004460D4606D10A460146314809F018FF85
:1017D000002038BD072001F0BFFF012803D12946B2
:1017E000204603F0B9FB072001F0B6FF022803D121
:1017F0002946204609F0F0F8072001F0ADFF032844
:1018000003D12946204609F00BFB072001F0A4FF75
:10181000042803D1294620460CF0C4FF1D4B2A465C
:10182000186821460368DB6898471B4B2A461868EE
:10183000214603681B699847184B2A4618682146B9
:1018400003681B699847164B2A46186821460368A7
:101850001B699847134B2A461868214603681B6882
:101860009847114B2A461868214603681B68984719
:101870000E4B2A461868214603681B6998470C4B93
:101880002A461868214603681B689847A0E700BFEE
:101890003C260020200000201C0000201400002016
:1018A0001000002008000020040000200C00002090
:1018B0001800002008B5034699889B7900682BB171
:1018C0000DF07FFCB0FA80F0400908BD0DF079FC06
:1018D000003818BF0120F8E708B50248FFF7EAFF13
:1018E00008BD00BF582B0020818800680DF064BC43
:1018F000818800680DF062BC2DE9F843A44BA54C2B
:10190000998818680DF060FC0DF068FCA24BA34D9F
:10191000186801F0EEFE0FF047F8A1490FF04CF9FE
:101920000146DE2001F046FF06F09EFA01468120C6
:1019300001F032FF7F2001F00FFF21680646286882
:1019400006F000FF072001F007FF08B107F0B2F929
:101950002868944F03689B6A98470146B22001F0BB
:101960001BFF28680368DB6A98470146B02001F036
:1019700021FF07F0D3F9386803689B689847286807
:1019800003689B689847884B186803689B6898476A
:10199000864B18680368DB689847854B18680368AE
:1019A0001B699847206803689B689847814B1868B3
:1019B00003689B699847804B186805F0DFFC0CF0C2
:1019C000D5FE7E4B1B780BB10BF024FDA92001F056
:1019D000C3FE7B4C0028606A80F2A980FFF784FF79
:1019E000E52001F0B9FE002800F0A480A92001F054
:1019F000B3FE022800F09E80A92001F0ADFE002871
:101A000000F098806069FFF76FFFBB2001F0A4FE33
:101A10000346606C002B00F09180FFF765FF012EFC
:101A2000206940F08E80FFF75FFF3868DFF894810F
:101A300003689B6998470146AA2001F0BBFE3868FD
:101A400003685B6998470146AB2001F0B3FE386834
:101A500003685B6A98470EF0A7FF0146C02001F0BB
:101A6000A9FE38680368DB6998470146892001F0C0
:101A7000A1FE2868544D03685B6B98470146BF2060
:101A800001F08AFE514BAD20196801F085FE504BE4
:101A90001B78012B03D0042B01D02B7823B1D8F86D
:101AA000000003689B689847D8F80000DFF824918D
:101AB000036899F800105B6998470746002843D0EF
:101AC000012E1EBF0122444B1A7001232B70A06A05
:101AD000424B984205D0FFF7EDFE0146D72001F0BA
:101AE0005BFE0BF045FC0BF05FFC042E01D0012ED9
:101AF0007AD1AA2001F038FE0546DA2001F034FE42
:101B0000014628460FF060F988B3AA2001F02CFEA8
:101B10000546752001F028FE29460FF037F940B33D
:101B2000E06BFFF7E1FE206CFFF7DEFE62E0FFF7FF
:101B3000DFFE55E76069FFF7DBFE66E7FFF7D8FEDB
:101B40006DE7FFF7D5FE70E72B7833B101468020B3
:101B500001F022FE204B2F701F70D8F8000099F87A
:101B6000001003689B6998471D4B1870AFE7DA2097
:101B7000CCE7752001F0F8FD1A490EF05FFE29460A
:101B80000FF022F90028CED0E06BFFF7B1FECAE7D4
:101B9000182C00200C000020582A00201C000020D7
:101BA0000000204120000020140000200800002038
:101BB0000400002018000020442A00202C2A0020C5
:101BC0004430002010000020552A0020782E0020EC
:101BD000422A0020402A0020562A0020482B0020BC
:101BE0002F2A00200000A040E06BFFF781FE206C50
:101BF000FFF77EFE002001F0AFFD092816D1012E6F
:101C000014D1A92001F0A8FD094B0A4C1A688242A0
:101C100009D005221860226007480CF0A1FC236857
:101C2000013B236002E02368002BF5DCBDE8F8836C
:101C3000D8250020D4250020E02500202DE9F74FED
:101C4000A02001F089FD07467F2001F085FD0446B4
:101C5000A92001F081FD81460DF09AFC06F0D0F834
:101C6000814BDFF80882186803685B6898477F201B
:101C700001F072FD0128054640F0D2803FB287EAAC
:101C8000E770A0EBE77080B206F02EFF0021064659
:101C90000FF07CF890B1002001F05EFD04280DD01B
:101CA000232001F059FD002840F0B5808742B8BFDD
:101CB0004FF0FF354D4518BF06F1004648460EF07F
:101CC00073FE31460EF0C4FE0546D8F800000368E6
:101CD0005B689847D8F8000029460368644E1B6982
:101CE0009847B82001F04EFD002840F09D80306AF2
:101CF000FFF7FEFDD8F800005E4F03681B6A9847A7
:101D00000FF082F805B22946A02001F045FD082019
:101D100001F022FD584B53F8200006F00DFC012C79
:101D200001D0042C08D1386885EAE5710368A1EB7D
:101D3000E5719B6989B29847D7F80090AA20D9F835
:101D40000030D3F81CA001F00FFD01464846D047F3
:101D5000386803685B689847484B18680368DB6815
:101D60009847474B186803685B689847042C65D10F
:101D7000444B186803685B689847284606F060FD86
:101D80008246A42001F0E8FC8146182001F0E4FC22
:101D900081454FF03900D4BF4FF000094FF00109E1
:101DA00001F0E2FC0190292001F0DEFC51460FF029
:101DB0000BF8B0FA80F351465B090198DD000EF094
:101DC000EFFFB0FA80F0400945EA8005862001F077
:101DD000CBFC45EA89158146282001F0C5FC014667
:101DE00048460EF0F1FF002808BF45F001058220AB
:101DF000294601F0D1FC172001F0AEFCDFF88890F5
:101E00000190042C00F2AD80DFE814F04000FE01E8
:101E1000C100C201DD01002FA8BF4FF0FF3549E727
:101E200006F030FF002555E7B52001F0ABFC002897
:101E30007FF45DAF306AFFF757FD5BE7052001F0E7
:101E40008BFC032804D10F4B186803685B68984724
:101E5000012C92D1DD2001F07FFC411C01F00F012B
:101E6000DD2001F099FC88E7100000202000002010
:101E7000443000201C000020482A002004000020DC
:101E80000C00002014000020180000204FF0000873
:101E9000AD4BAE4883F80080AD4B83F80080FFF770
:101EA00027FDB069FFF724FD0221A92001F074FC91
:101EB000386803685B699847A64B83F80080DFF8B1
:101EC0009882B8F80030002B57D1A448FFF710FDD6
:101ED000F069FFF70DFDA248FFF70AFDBF2001F0F2
:101EE0003BFC0346DFF87CA2B06C002B4CD19AF887
:101EF0000030002B48D1FFF7FBFC15F0410F01D05B
:101F0000019BCBB1386803689B6B9847A0B13868D8
:101F100003685B6B984778B1B06CFFF7E5FC012371
:101F20008C4A02241370884A13701923A8F80030D1
:101F30000DF02EFB8C4B18609AF800306BB115F049
:101F4000480F0AD11923A8F800300DF021FB864B69
:101F50000224186001237E4A137021467F2001F07D
:101F60001BFCF068FFF7C4FC0022D9F80000114602
:101F700003682546DB68984799E0013B9BB2A8F8C7
:101F80000030002BAAD1A0E7FFF7AEFCB5E7DFF8E1
:101F9000D4A19AF80030002B40F0B780D8F8002088
:101FA000724B9A4202D06948FFF79EFCF069DFF855
:101FB000A881FFF799FCB069FFF796FCB8F80030EC
:101FC000002B40F0AF806648FFF78EFCDFF884B14D
:101FD0009BF800305BB115F0450108D1192384202E
:101FE0008BF80010A8F80030012401F0D5FB9AF816
:101FF00000306BB115F04C010AD14FF4FA73C822CE
:10200000A8F800305A4B84201A80042401F0C4FB45
:102010004F4B1B7823B19AF80030002B08BF0024E7
:10202000494D2B78002B40F08580022C19D10DF002
:10203000AFFA0746152001F08FFB4B4B1B68184485
:1020400087420ED9019B002B00F09A802B78002B41
:1020500000F0968000238BF8003019230124A8F8A3
:10206000003021467F2001F097FB012C7FF479AFEF
:10207000522001F071FB012805467FF472AFF06831
:10208000FFF732FCD9F800003A4903689B6898478B
:10209000D9F8004053202368DE6801F05DFB074655
:1020A000D72001F06FFBB9B202462046B0470720A7
:1020B00001F052FB022808D10A2001F04DFB2E4B03
:1020C00053F82010284608F099FC072001F044FB43
:1020D000032808D10A2001F03FFB274B53F82010BA
:1020E000284608F0CFFE072001F036FB042840F018
:1020F000BA800A2001F030FB1F4B53F8201028460D
:1021000003B0BDE8F04F0CF055BB072001F024FBF5
:1021100000287FF44BAFD8F80020184B9A427FF488
:1021200045AF40E7013B9BB2A8F80030002B7FF49D
:102130004DAF48E7386803685B6B984700287FF429
:1021400074AF00248DE700BF2E2A0020D02B002082
:102150002D2A0020302A002024000020202C0020DE
:10216000D82B0020562A0020D0250020E42800206B
:10217000182A002000004842482A00205C2900203C
:102180003A48FFF7B5FB0A2005F040FE032468E754
:102190000022374B35481A70FFF7AAFB354B1B78E6
:1021A00023B1354B1B78002B08BF0024334B1B7821
:1021B000002B3FF4D2AE386803685B6B9847002869
:1021C00008BF0024C9E62E4D2B8863B92D48FFF7C0
:1021D0008BFB294B2C4A1B789BB913885BB9FA23DC
:1021E00000242B8004E0013B9BB22B80002BEDD020
:1021F00005F02EFEB1E6013B9BB21380002BF7D118
:10220000EDE7C8231380F3E71D4D2B8813BB1D4852
:10221000FFF76AFB1D48FFF767FB7F20012101F0F4
:10222000BBFA05F015FE386803685B6B9847002819
:102230007FF417AFA02001F08FFA00284FF0A00024
:102240000EDA01F089FA404263283FF70AAFFA2319
:102250002B8076E7013B9BB22B80002BDDD1D6E7AC
:1022600001F07AFAF0E703B0BDE8F08FD82B002038
:10227000302A00202D2A0020562A00202E2A002055
:1022800024000020202C0020182A0020D02B002021
:102290002DE9F0477F2001F05FFA0546894BDFF812
:1022A000289218680368DB689847042D04D1D9F890
:1022B00000000368DB68984706F0BEFD834BDFF83B
:1022C00010A21968D220834F01F066FAD320DAF801
:1022D000001001F061FAD420396801F05DFA7E4BFC
:1022E0007E4E1968D520DFF8F88101F055FAD62026
:1022F000318801F051FA98F800307A4C022B2DD138
:10230000794B1B7853BB042D19D1DFF8E0A1784F2E
:10231000DAF80030002B41D15B20237001F01CFA69
:102320004FF496735843CAF800003B68B3F5967FA4
:1023300014D100233B603388013B33800EE06D4AAB
:10234000DAF8003012789A4226D16B4A3B6812784C
:102350009A4221D13388FBB10123237098F80030D1
:102360002BBB614B1B780BB9012323706E2001F04E
:10237000F3F901281FD1702001F0EEF95F4B0746F9
:10238000586802F0ABF806460146DF2001F004FA77
:10239000B7422ADA002330E00023DEE73A68013B47
:1023A0000132CAF800303A60002BBED1B4E7012BED
:1023B000DCD10023D9E76F2001F0CEF90128DAD073
:1023C000D9F800004E4A036812785B692178984773
:1023D00008B1012D13D14B4B1E78B6B93146802080
:1023E00001F0DAF9484B1E700FE098F80030012B2D
:1023F000E6D13D4A1278002AE2D12370E0E70121BC
:10240000414B8020197001F0C7F9404E3378022B00
:1024100007D13C4B1B7823B13D4B18680368DB6840
:1024200098473378012B02D9033B012B0AD8384F48
:1024300038680368DB68984733781BB938680368E5
:10244000DB689847042D6DD12E4B1D78002D33D1BC
:10245000852001F081F906463E2001F07DF9864293
:10246000A1BF0122204B25701A702A4B18680368FF
:102470009B68984700210EF07FFC68B1264A1368DC
:10248000002BDFBF002301212370174BCEBF03F1C8
:10249000FF3319700A231360204B586B204B98426E
:1024A0000AD0FFF707FA38B1E42001F055F918B95E
:1024B00001220D4B20701A70184B986BFFF718FA19
:1024C00057E000BF1C00002014000020282A002034
:1024D000242A0020202A00201C2A00203C2A002038
:1024E000412A0020402A0020542A0020382A0020B7
:1024F000342A00203F2A00203E2A002038300020C5
:102500002F2A0020552A0020562A0020422A002087
:1025100010000020080000200000002044300020AF
:10252000482B0020012DC7D10022174B6E201A70B6
:1025300001F012F9022817D1712001F00DF90646B9
:10254000722001F009F9114B0546986801F0C6FFA9
:1025500001460446E02001F01FF9AE420BDCA64222
:10256000AADCA54205DA0AE06F2001F0F5F802289E
:10257000E2D0BDE8F087A6429EDBA542F9DD044B20
:10258000986BFFF7B1F9F4E7542A002038300020A7
:1025900044300020FEE700000C2838B510D80C2885
:1025A00019D8DFE810F0D000D300E5001800D900FA
:1025B000D600DF001800E800E800E800E800E800C6
:1025C000512800F0CC8000F2B2803C2800F0DB8083
:1025D000492800F0CA80232001F0BEF840B1002055
:1025E00001F0BAF8082803D00021232001F0D4F824
:1025F000182001F0B1F8664D664C2860192001F0F2
:10260000ABF820601A2001F0A7F868601B2001F0E9
:10261000A3F860601C2001F0A7F85F4D5F4C2860B4
:102620001D2001F0A1F82060332001F09DF85C4BE3
:102630002168186028680EF0A9FB50B159491C2088
:102640002960594D256001F0B5F829461D2001F09B
:10265000B1F81E2001F088F8544B554C18602E201C
:1026600001F082F8534B18602F2001F07DF8524B97
:102670001860312001F078F8504B1860262001F0E6
:102680006BF84F4B1860202001F06EF84D4B18602E
:10269000242001F069F84C4B1860302001F064F8F8
:1026A0004A4B18601F2001F05FF8494B1860052065
:1026B00001F052F8042001F04FF8464B18702378CF
:1026C000012B22D1582001F047F8434B18605720C6
:1026D00001F042F8414B1860562001F03DF8404BA4
:1026E0001860552001F038F83E4B1860592001F071
:1026F00033F83D4B18705A2001F02EF83B4B187000
:102700005B2001F029F83A4B1880452001F024F8AD
:1027100020705B2001F020F84FF496735843354B3E
:10272000186008F0C1F8BDE8384008F0E9B868283A
:1027300005D865287FF64FAF00F02CFE4BE77838C0
:102740000428F9D947E7FEF701FF44E7FEF796FEB4
:1027500041E7FEF797FD3EE7FEF7DAFD3BE7FEF7C0
:1027600043FF38E7FEF706FE35E7FEF739FE32E7AE
:10277000FEF756FE2FE7204C206804F0B3FD60689A
:1027800004F0B0FD27E704F09DFB04F089FB22E78D
:10279000702E0020682E0020642E0020602E002065
:1027A000282E00200080BB440000C8425C2E002080
:1027B000412A0020542E00204C2E0020482E0020BC
:1027C0002C2E0020442E0020402E0020502E0020D1
:1027D000582E0020422A00201C2A0020202A0020F7
:1027E000242A0020282A00203F2A00203E2A0020F8
:1027F0003C2A0020382A0020482A0020014B186873
:1028000000F040BF582A002000B589B003A804F0AA
:10281000D9FB28B1DDF815300193DDF819300293AA
:1028200004F04BFB4FF400400CF08CFB0499A1F535
:102830008473012B05D8044B01AA186803681B692F
:10284000984709B000BD00BF1000002008B5002067
:102850000CF0D4FE104B1A6801323B2A1A600F4A62
:1028600005D911680131116019683C391960136884
:102870003B2B0B4B05D919680131196011683C39A4
:1028800011601A68172A06D906490A6801320A60D7
:102890001A68183A1A6008BD1C2A0020202A002055
:1028A000242A0020282A00202DE9F043ADF68C2DA3
:1028B00000F0BCFB00F0E4FC0022C349C34801F077
:1028C0004DFE0122C049C24801F048FE0122C14923
:1028D000C14801F043FE0222BB49C04801F03EFE60
:1028E0000322B949BE4801F039FE0522B649BD4868
:1028F00001F034FE0422B449BB4801F02FFE0B2244
:10290000B149BA4801F02AFE04232022B849B94847
:1029100001F09DFB04238022B549B74801F097FBE5
:1029200004234FF40042B549B54801F090FB04235D
:102930001022A849B34801F08AFB04230822A549C4
:10294000B14801F084FB0125072380229E49AF484E
:1029500001F07DFB07230422AD49AE4801F077FB6F
:1029600007234FF40042A249AB4801F070FB072354
:102970004FF480429E49A94801F069FB07234FF4B8
:1029800000529B49A64801F062FB07234FF40072F6
:102990009749A44801F05BFB07234FF480729449E8
:1029A000A14801F054FB07234FF4806290499F48EF
:1029B00001F04DFB07234FF400628D499C4801F064
:1029C00046FB0723402280499A4801F040FB072339
:1029D0004FF480728949984801F039FB07234FF47E
:1029E00000727949954801F032FB07234FF4807259
:1029F0007549934801F02BFB07234FF480527C4923
:102A0000904801F024FB0523082281498E4801F0FB
:102A10001EFB052310227E498C4801F018FB05237C
:102A200020227B498A4801F012FB07234022784983
:102A3000884801F00CFB072308226D49864801F005
:102A400006FB072304226A49844801F000FB0723A0
:102A50004FF480525F49824801F0F9FA07234FF49E
:102A600080426B497F4801F0F2FA0723012259495D
:102A70007D4801F0ECFA0723802260497B4801F091
:102A8000E6FA072340225D49794801F0E0FA042381
:102A900040225749774801F0DAFA042310225449BA
:102AA000754801F0D4FA002380225949734801F097
:102AB000CEFA01F0A7FC72494FF000700CF072FBE7
:102AC00000F06EFB00F09CFB05F06CF900F00EFBD3
:102AD00000F038FB00F05EFCE620FFF75DFD564895
:102AE000FEF706FF5F48FEF703FFC4AC0023654A0C
:102AF0006549009539A800F0FFFE0DF26C580023DF
:102B000002222046614905F083FB022260492B46E0
:102B1000404605F07DFB5F4B0F2004935E4B0DF5A7
:102B2000F96705935D4B5E4E069300F015FE2A464D
:102B3000002814BF41462146384605F0AFF83A4612
:102B4000214619A808F02EFE032119A808F046FE18
:102B5000204604A9C6E9004804F098FB04A94046B1
:102B600004F094FB4F4B0A201F604F4B07AC1F60D3
:102B700000F0F2FD56F820700E2000F0EDFD56F842
:102B800020104A4808F034FD04F09CF904F088F95C
:102B90004FF496424649204609F04AFD454B1C60D9
:102BA0000FACFEF7D3FCFEF769FCFEF76BFBFEF7FC
:102BB000AFFBFEF7DFFBFEF717FDFEF711FCFEF79C
:102BC0002FFC3D49204679E0001001406C2C00208C
:102BD000682C0020000C0140642C0020602C002098
:102BE0005C2C0020582C0020542C0020502C00205D
:102BF00000140140482C0020402C00200008014017
:102C0000382C0020302C0020282C0020202C0020E4
:102C100000180140182C0020102C0020082C002047
:102C2000002C0020F82B0020F02B0020E82B0020A7
:102C3000E02B0020D82B0020D02B0020C82B002018
:102C4000C02B0020B82B0020B02B0020A82B002088
:102C5000A02B0020982B0020902B0020882B0020F8
:102C6000802B0020782B0020702B0020682B002068
:102C7000602B0020582B0020502B0020482B0020D8
:102C8000C0004000042A01080048004000640040E1
:102C90000068004014100108B91700086516000804
:102CA000482A0020AC2F0020442A00203C26002087
:102CB00000380140DC2500200008004000F08EFCB8
:102CC0001A4B2A4620461A491C6000F0A7FC0A222B
:102CD0002046184900F0A2FC64222046164900F064
:102CE0009DFCC8222046154900F098FC772000F092
:102CF00033FDA84202D1384602F0B2F804217E200A
:102D000000F04AFD00217F2000F046FD4FF0000456
:102D100039A88DF80F4000F0A3FF1E9B002BF7D1C0
:102D20000DF10F011AA806F059FAF1E7582A002010
:102D3000291200083D1C0008F9180008912200081B
:102D400010B50024624B634A1C741A60624B634ADC
:102D50001C721A60DC721C73614A624B62481A6012
:102D60001C72DC721C73614A614B1A60614B624ACF
:102D70001A6007F08FFD614B614A1C621A601C7774
:102D8000604A614B61481A60614B624A1A60624B4B
:102D9000624A1A60624B634A1A60634B634A1A6064
:102DA000634B644A1A60644B644A1A60644B654A18
:102DB0001A60654B654A5C751A60DC82644A654B33
:102DC0001A60654B654A1A60654B664A1A60664B25
:102DD000664A1A60664B674A1A60674B674A1A6010
:102DE00004F038FA664B674A67481A6007F080FBC0
:102DF000664B674A67491A60674B684A68481A60B9
:102E0000684B694A1A60694B694A1A60694B6A4A99
:102E10001A606A4B6A4A1A606A4B6B4A1C721A60E3
:102E20006A4B6B4A1A606B4B6B4A1A606B4B6C4A6D
:102E30001A606C4A6C4BC2E90244136000231361B0
:102E400053619361D361694A1160694A6949C2E972
:102E500004441160C2E90644136253629362D36270
:102E60006549664A11606649C2E90244C2E9044400
:102E70001483D361136253629362D3621363536307
:102E80009163604A6049C2E9044411605F49D360BC
:102E90009361D361148453629362D3621363536367
:102EA0009363D3631364536493649160584B594A9A
:102EB0001A60594B594A1C731A60594B594A1A6087
:102EC00009F0B0FBBDE8104057480BF03DBB00BF18
:102ED000042A00207C330108E8290020982A0108F0
:102EE000D02B0108CC29002098290020C42D0108EE
:102EF000BC290020B02900200C2E010874290020D4
:102F0000582C0108F42F01085C290020BC2800205F
:102F100054290020543101084C2900208031010837
:102F200044290020143501083C29002048100108DC
:102F300034290020741001082C290020AC3101082C
:102F400024290020A83001080C2900201033010892
:102F50005830010804290020FC2800202C300108EA
:102F6000F4280020E8340108EC2800207436010819
:102F7000E4280020542E0108DC2800202411010838
:102F8000B4280020A0100108A82800209C280020B8
:102F9000CC3701084C3701089428002000110108A3
:102FA0001426002088270020C43301087C27002035
:102FB0002837010870270020CC350108642700203D
:102FC000F035010854270020A83501084C270020BF
:102FD0005C110108402700206837010838270020CD
:102FE000C410010818270020F4320108102700201F
:102FF000E0260020D8320108B0370108A4260020BE
:103000000000FA4358260020F83701080000C842A3
:1030100050260020E0100108402600205C33010803
:103020003426002024100108E025002008B50CF00B
:10303000EDF902200CF0C2F94FF0E0232A4A40F2E9
:103040000230C3F80C2D0CF027FA40F203300CF0DC
:1030500023FA4FF441700CF01FFA40F205300CF0E7
:103060001BFA40F206300CF017FA40F292300CF0E6
:1030700013FA40F291300CF00FFA40F20E300CF0DF
:103080000BFA40F20B300CF007FA4FF460700CF0C2
:1030900003FA40F281300CF0FFF940F282300CF07C
:1030A000FBF94FF420700CF0F7F940F209300CF006
:1030B000F3F940F286200CF0EFF94FF440700CF079
:1030C000EBF940F299300CF0E7F940F29A300CF04D
:1030D000E3F940F28E300CF0DFF9BDE8084040F231
:1030E0008F300CF0D9B900BF0003FA0513B50024E6
:1030F000202123462246CDE9004410480CF0ECFA8A
:1031000021460E480CF0E0FA0C480CF0CFFA0B48C0
:103110000CF0D5FA4FF420430222032108480CF0AA
:1031200011F84FF480430122214605480CF00AF8BB
:10313000024802B0BDE810400CF0ACBA00380040C4
:10314000000C014013B500244FF080514FF0007087
:103150000CF028F8234622462021CDE900440E48F1
:103160000CF0BAFA0C480CF0A1FA0B480CF0A7FAD4
:103170004FF4A0530222032108480BF0E3FF4FF461
:1031800000630122214605480BF0DCFF024802B033
:10319000BDE810400CF07EBA003C00400010014039
:1031A00008B502220423032112480BF0CBFF0823A9
:1031B000012200210F480BF0C5FF0F490F480CF00A
:1031C00049FC08210D480CF059FC00210B480CF07B
:1031D0005EFC0C2109480CF066FC002107480CF04D
:1031E0005CFC064800210CF064FCBDE80840034884
:1031F0000CF065BC0008014020A10700004400401D
:1032000008B511200CF0F4FCF02111200CF0FEFCAC
:1032100010200CF0EDFCF02110200CF0F7FC1E202B
:103220000CF0E6FC00211E200CF0F0FC14200CF049
:10323000DFFCE02114200CF0E9FC13200CF0D8FC9A
:10324000E02113200CF0E2FC28200CF0D1FC4FF41C
:1032500000400BF06DFE01214FF400400BF04CFEDE
:1032600006494FF400400BF073FE03200CF0C0FC45
:10327000BDE80840202103200CF0C8BC0018014024
:1032800008B54FF2234103200CF0EAF900200CF0BE
:1032900089F900200CF0B2F9BDE8084000200CF0DC
:1032A0008FB90000022208B511464FF4007316488A
:1032B0000BF048FF15480CF057FA0023202219465E
:1032C00012480CF02AFA202110480CF052FA07227A
:1032D00000210E480CF051FA00210C480CF052FB72
:1032E0000A480CF0A9FB4FF4C872002107480CF003
:1032F00093FB06484FF488610CF03DFABDE80840A6
:1033000002480CF02CBA00BF00180140002C01400C
:1033100008B5022303211A461D480BF013FF4FF096
:1033200080400CF021FA00234FF080401A461946E5
:103330000CF0F3F900214FF080400CF01AFA4FF036
:1033400080400CF0F3F94FF080400CF003FA8F212D
:103350004FF080400CF00FFA02214FF080400CF04B
:1033600036FB062202214FF080400CF006FA0221C3
:103370004FF080400CF006FB4FF0804048220221C5
:103380000CF04AFBBDE808404FF080400CF0E7B974
:1033900000080140682038B500F0DEF9132808D194
:1033A00002220123114687480BF0CCFE002425465B
:1033B0000DE0682000F0D0F9142840F0928002223D
:1033C000012311467F480BF0BDFE00240125672034
:1033D00000F0C2F9132840F09980022280231146A0
:1033E00079480BF0AFFE662000F0B6F9132840F0E4
:1033F000AE8002224023114673480BF0A3FE7348AF
:103400000CF0B2F9002171480CF095F96F480CF0FE
:103410008DF9062200216D480CF0AFF90622022139
:103420006A480CF0AAF90622042168480CF0A5F9B4
:10343000002166480CF067FA022164480CF063FA38
:10344000042162480CF05FFA002160480CF075FA24
:1034500002215E480CF071FA04215C480CF06DFA10
:1034600000215A480CF08EFA022158480CF08AFAD2
:10347000042156480CF086FA002D40F08980002C7B
:1034800040F08680792000F067F901464F480CF043
:1034900072F97A2000F060F9214602464B480CF0A0
:1034A000BBFA7B2000F058F90221024647480CF095
:1034B000B3FA7C2000F050F90421024643480CF096
:1034C000ABFA012141480CF0BCFA782000F044F935
:1034D00001463E480CF04DF9BDE838403B480CF041
:1034E0003EB9682000F038F9152808D102220123DE
:1034F000114634480BF026FE0124002567E7072318
:1035000001223049324800F0A2FD4FE7672000F069
:1035100023F9142807D10222802311462A480BF0F0
:1035200011FE01255FE7672000F016F9152807D185
:1035300002228023114624480BF004FE012452E7A6
:10354000072380222049234800F081FD4BE76620B5
:1035500000F002F9142807D10222402311461A482C
:103560000BF0F0FD01254AE7662000F0F5F815287C
:1035700007D102224023114613480BF0E3FD01243A
:103580003DE7072340221049134800F060FD36E76D
:1035900041F68C110D480CF0EEF8012200210B4889
:1035A0000CF03AFA0122022108480CF035FA012207
:1035B000042106480CF030FA012104480CF041FACD
:1035C0000A2186E7000C0140000801400004004089
:1035D000702B0020682B0020602B002038B50C4693
:1035E0000546016208460CF0A1F820460CF0ADF843
:1035F000084B20461968084BB1FBF3F101390CF078
:10360000B8F820464FF6FF710CF0B5F800232846B5
:103610006B6238BDC8230020A0860100F8B5436A5C
:103620000446032B0F462ADC006A02EB8205144E87
:103630000CF09AF8636A0122F15C206A0CF09DF8A4
:10364000636A0022F15C206A0CF0E6F90221636AE9
:1036500005EB850503F10802AD0044F8237099409D
:1036600024F81250206A0CF04BF80021206A0CF06C
:10367000EEF9206A0CF073F8636A01336362F8BDF7
:103680009C1101082DE9F843044600254FF002087B
:1036900000F11006636A08FA05F7AB420ADC394606
:1036A000206A0CF037F80135042D06F10206F1D13D
:1036B000BDE8F8833946206A0CF026F8A8B1206AE4
:1036C0000CF0C3F9236A3188343353F8252081463E
:1036D0000A4443F8252054F825309847206A0CF016
:1036E000B4F9A0EB09003081D9E7636AAB42DADCB8
:1036F000D5E7002170B500F10E03446A4FF47A75E6
:1037000008468C4200DC70BD5A8933F8026F6A4368
:10371000B2FBF6F201311044F3E7000010B51C24AF
:10372000084B04FB0033DC688C4209DC1B698B42CC
:1037300006DB054B43F82010FEF72EFF002010BDDE
:10374000FF20FCE7C003002028000020014B53F8B5
:103750002000704728000020024B53F82000401141
:10376000704700BF2800002008B5054B53F8200023
:103770000DF01AF94FF074510DF06AF908BD00BF51
:1037800028000020034B53F820004011431E5842EC
:103790005841704728000020024B490143F820108F
:1037A000704700BF28000020014B43F820107047ED
:1037B0002800002010B5044608464FF084410DF063
:1037C00047F90DF021FB024B43F8240010BD00BF68
:1037D0002800002070B506460024074D3146686871
:1037E00000F08EFB08B9E0B270BD0134E62C05F1A3
:1037F0001C05F3D1E720F7E7C00300200023064AA9
:10380000118B814201D1D8B270470133E62B02F10E
:103810001C02F5D1E7207047C00300201C22024B98
:1038200002FB0030704700BFC00300200023064A9F
:103830000649108B10B1506941F823000133E62B83
:1038400002F11C02F5D17047C003002028000020BF
:10385000014B1954704700BF5C2A0020024B1A5CD0
:1038600011431954704700BF5C2A0020024A135CC0
:1038700023EA0103135470475C2A0020014B185CB3
:10388000704700BF5C2A00201C22024B02FB003361
:10389000987E7047C003002000487047146A0300F8
:1038A000024B1A68024BC3F8242E7047B82200203E
:1038B000C0030020202180680CF027B980680CF03C
:1038C0001CB910B504464368597A58680BF0EBFAF6
:1038D000636804F12A02597A58680BF0F6FA6368B3
:1038E0008022597A58680BF000FB6368BDE81040ED
:1038F000597A58680BF0CEBA70B5026140F20112E5
:103900000D464A498282016001210022817580F8BA
:10391000281004460421C0E9062280F820204262D3
:103920009DF81020856080F82920414A0373426089
:103930001068A84203D01C3201396260F8D13D49B9
:103940000C60002B6FD05069138B022203210BF007
:10395000F9FB28464FF4E1310CF07CF828460821A9
:103960000CF08CF828464FF400510CF090F82846E3
:103970000C210CF098F8284600210CF08EF800215C
:1039800028460CF096F828460CF0A9F828460CF0CA
:10399000ABF86368197A58680BF00CFA6368197A07
:1039A00058680BF06EFA63682A1D197A58680BF094
:1039B00083FA63680022197A58680BF036FA636854
:1039C0000022197A58680BF023FA6368197A58684C
:1039D0000BF038FA6368597A58680BF0EBF96368B2
:1039E0002A1D597A58680BF067FA63680022597AE1
:1039F00058680BF01AFA63680022597A58680BF07D
:103A000007FA6368597A58680BF01CFA63685868BB
:103A1000597A0BF03FFA2046FFF753FF28460CF087
:103A20004EF8204670BDD068138A8EE790290108B1
:103A300094290108442B002038B5437D0D4643B13D
:103A40000469216819B1284600F05AFA20B92368A0
:103A500003B90024204638BD0834F2E738B50446DF
:103A60000D4663680222197A58680BF0BAF918B942
:103A700094F82830002BF4D06368197A58680BF05A
:103A800012FA6368AAB2197A58680BF02EFA94F801
:103A90002020636804EBC212197A5868AA320BF02E
:103AA00014FA63680222197A58680BF094F9636873
:103AB000197A58680BF0EEF994F82030B3FA83F3D2
:103AC0005B0984F82030002384F8283038BD10B515
:103AD0000446A37D084623B9A068BDE810400BF05A
:103AE000F3BF94F82030626A04EBC31313440A282E
:103AF00002F1010183F8AA0001D07F2A05D12046F6
:103B0000FFF7ACFF0023636210BD6162FCE7802A0F
:103B100028BF8022002330B4934203D130BC194621
:103B2000FFF79CBF90F82040CD5C00EBC4141C4410
:103B300084F8AA500133EFE738B5054608460C462D
:103B400000F0F5F9214602462846BDE83840FFF767
:103B5000DEBF000010B50446084600F03BFA00F056
:103B600020FA217D227B8142636811D10121617598
:103B70005AB158691B8B032102220BF0E3FA20464D
:103B8000BDE810400949FFF7D7BFD8681B8AF2E7A4
:103B9000002161753AB158691B8B0122BDE81040C4
:103BA00000210BF0CFBAD8681B8AF6E7A0220108E3
:103BB00030B5044685B0084600F00CFA0378302B87
:103BC00026D0322B144D18BF4FF46125637DA3B16D
:103BD0000A22294601A800F0BAF920460F49FFF74A
:103BE000ABFF20460E49FFF7A7FF204601A9FFF7CC
:103BF000A3FF20460B49FFF79FFF2946A0680BF063
:103C000029FF0021A06805B0BDE830400BF03FBFA0
:103C10004FF4E135DAE700BF105522009F2201087A
:103C2000A52201082529010810B50446084600F020
:103C3000D1F9037823B1303B18BF012384F8293030
:103C400094F829302BB104492046BDE81040FFF715
:103C500073BF0249F8E700BFB4220108BE22010881
:103C60002DE9F04143680446597A58680BF036F95B
:103C70000546C0F1800710B92046FFF722FE94F8F0
:103C80002930A06813B1E369BB4257DB08210BF070
:103C90003CFF10B1A0680BF030FF7F2D00F398803F
:103CA000631B93F8A9300A2B01D00D2B7DD16368DB
:103CB000597A58680BF0F7F87F2D3AD00022E319B3
:103CC00083F82A202021E26104F12A0000F036F96D
:103CD00090F800800546B8F1000F37D10A2104F1B1
:103CE0002A0000F02BF9054684F8AA812B782BB91D
:103CF0000D2104F12A0000F021F905460023354981
:103D00002B7004F12A00A36100F0FAF820BB2046D2
:103D100004F5D571FFF71EFF0027A369002B3AD0E9
:103D2000A0680BF0EEFEA36920465B6804F5D57130
:103D300098472046BDE8F041FFF7C3BD5A1CE26139
:103D4000234493F82A100BF0BFFE98E7411C04F5BA
:103D5000D57000F0E3F8C9E71F4904F12A0000F02C
:103D6000CFF828B9204604F5D571FFF721FFD3E736
:103D70001A4904F12A0000F0C3F828B9204604F5D6
:103D8000D571FFF751FFC7E7204604F12A01FFF77D
:103D900053FEA061C1E7012FCBDD637D002BC8D0AE
:103DA00020460F49FFF7C8FEC3E794F82A30212BBD
:103DB0000ED1A36963B12046FFF783FD0023E361C1
:103DC000A369204604F5D5715B68BDE8F04118474A
:103DD000BDE8F081C9220108D4220108DD220108D2
:103DE000E2220108034BC1B21B681A681846126828
:103DF000104700BF442B002004F052B807B5064915
:103E0000D1F8F027D1F8EC37D1F8E8170091034941
:103E100000F0EAFA03B000BD00F0FF1FFD22010828
:103E200005F0DCB973B5144800F0CCFA134800F083
:103E3000C9FA0024E6B23046FFF7F0FC05463046EA
:103E4000FFF722FD68B93046FFF718FDC3070DD410
:103E50006B690B4800936968D5E9032300F0B2FA57
:103E600004E03046FFF710FD0128ECD00134E62CC9
:103E7000E0D102B070BD00BF062301081D23010878
:103E80003923010870B50B4900F0AEFA0024E0B206
:103E9000FFF7C4FC0546E0B2FFF7F0FCC30704D40B
:103EA000D5E90112044800F08DFA0134E62CEED178
:103EB00070BD00BF4C2301086E230108F8B506460B
:103EC0000024E0B2FFF7AAFC4768E0B2FFF73EFC2F
:103ED000013403463A463046024900F085FAE62CA2
:103EE000EFD1F8BD7823010810B50446FFF79EFC1A
:103EF0002046BDE81040014900F076BA8123010850
:103F0000431E013913F8010F11F8012F10B10AB146
:103F10009042F7D0801A18BF01207047013911F87C
:103F2000013F0BB90370704700F8013BF7E700232E
:103F3000C25C0AB9184670470133F9E703461A789C
:103F400018461AB18A4203F10103F8D170470029DB
:103F500070B51EDA2D23012400F8013B49420646C4
:103F600091FBF2F302FB131130313170191E35460B
:103F700006F10106F4DC00220346201A30443270B8
:103F8000AB420BD21A78297803F8011B05F80129F6
:103F9000F6E704D1302341700370012070BD002486
:103FA000DDE730B503782D2B11D14FF0FF34013010
:103FB00000210A25431E01E005FB012113F8012F12
:103FC000303AD0B20928F7D904FB01F030BD012402
:103FD000EEE7000010B5144C02780146A2F10A0386
:103FE000DBB2162B1BD824FA03F3DA0700F1010029
:103FF000F2D40846FFF79BFF01380844814204468B
:104000000AD203780A3BDBB2162B05D8064A0138E0
:1040100022FA03F3DB07F1D40023637001E0002AE6
:10402000E7D1084610BD00BF09004000002310B5CD
:10403000934200D110BD51F8234040F82340013392
:10404000F6E702B97047013A40F8041BF9E72DE999
:10405000F041174682800022013B0E4601608271CA
:10406000082B0BD8DFE803F0080E0C1815052426E2
:104070001A000024002513E0012383710224F9E7CC
:104080000123837102240025394630460BF094F851
:1040900006E001248471EDE70124EBE70224032507
:1040A0003B46224629463046BDE8F0410BF04AB86F
:1040B0000024F4E701240325E6E770B50C1EACBF2D
:1040C00001234FF0FF335C430133064608BF2D2325
:1040D0004FF0640208BF06F8013B611104F01F04B1
:1040E0000546544330460A22FFF731FF2E22641161
:1040F000092C3254D8BF302206EB0003D8BF5A70C7
:1041000021464FF00A02CCBF581C981CFFF71FFF36
:10411000284670BDF0B5027803462D2A13D14FF022
:10412000FF30013300250A2702E007FB0525013394
:104130001C78A4F13002D6B2092EF6D9A4B98D406C
:1041400025446843F0BD0120ECE78A4002EB66029B
:1041500092FBF6F20CFB06F6144413F8012F303AEA
:10416000D7B2092FF1D9EAE70A260024B446F4E7CA
:104170002DE9F843141E0646894614DC2027DB0788
:104180001FD50025C84626E0013219F80210002983
:10419000FAD1A242ACBF0C46A41A13F0020F14BF0E
:1041A00030272027EBE70022EFE73368414630460F
:1041B0001B689847013D002DF7DC24EAE475641B79
:1041C000E0E725465FFA87F8F5E7336830461B6875
:1041D00008F10108984798F800100029F5D1A5EBDF
:1041E00009054544A046FFB2B8F1000F05DC002CDC
:1041F000ACBF2819281CBDE8F8833368394630461F
:104200001B68984708F1FF38EEE72DE9F04385B0C9
:104210008046DDE90C691C460D4651B93023324613
:10422000ADF8003069464B46FFF7A2FF05B0BDE888
:10423000F08323B10A2A2DD100292BDA4D42002325
:104240008DF80D300E9B0DF10D0C3A3BB5FBF2F0E5
:1042500002FB1051CF18092988BF3946AA4201F143
:1042600030010CF1FF370CF8011C15D954B1B6B16F
:1042700019F0020F13D0D8F800302D2140461B68EA
:104280009847013E4B46324639464046FFF770FF9D
:104290002044CBE70024D2E70546BC46D6E72D23D1
:1042A000002407F8013CACF10207EBE70846FFF7F2
:1042B00099BD00002DE9F04380460E4614460025C6
:1042C0004FF00A098DB0317819B928460DB0BDE814
:1042D000F08325296DD171780029F6D0252906F1C2
:1042E000010065D02D290ABF01270027B01C0378E3
:1042F000302B14D0002203780646A3F130015FFA78
:1043000081FCBCF1090F0ED9662B3DD00FD8632B71
:1043100044D0642B1CD0582B2ED00136D3E701306B
:1043200047F00207E3E709FB02120130E3E7752BD0
:1043300024D0782B19D0732BEFD1216820483B462D
:10434000002908BF014604344046FFF711FF0AE088
:104350006123CDE90173012300920A2221684046BE
:104360000434FFF752FF0544D7E76123CDE9017319
:10437000009200231022F1E74123F7E76123009226
:10438000CDE901730023E8E7216808A80592043409
:10439000FFF793FE3B46059A08A9D5E7236807A9CE
:1043A0008DF81C30002304348DF81D303B46CBE7DC
:1043B0000646D8F8003040461B6898470135ACE700
:1043C000DB2301080FB407B504AA52F8041B054B00
:1043D0006846CDE90032FFF76DFF03B05DF804EBEE
:1043E00004B070478C2A01080EB403B503AA52F832
:1043F000041B0192FFF75EFF02B05DF804EB03B00F
:104400007047000008B529480AF068FA27480AF002
:104410006AFA26480AF071FA24480AF069FA01217A
:1044200022480AF046FA21480AF00CFA1F480AF01E
:1044300023FA1E480AF033FA1D4A08211B480AF0E5
:1044400061FA1A480AF0A1FA4FF4602117480AF0FD
:1044500009FA0121174A18480AF02EFD0121174ACE
:1044600015480AF032FD4FF48072012112480AF01B
:10447000DCFC4FF4806201210F480AF0C9FC602285
:1044800001210D480AF031FD01210B480AF0DAFC48
:10449000012109480AF0DFFC074801210AF0FAFC73
:1044A000BDE8084001480AF066BA00BF0024014098
:1044B000302D00204C24014000000240702C0020D0
:1044C000884207DD914203DC01469142A8BF1146B4
:1044D000084670479042F8DD0146F9E737B56D466A
:1044E000046804F13003F03433F8102C33F8201C46
:1044F00033F8300CFFF7E4FF3033A34225F8020B0A
:10450000F2D1BDF80230BDF800001844BDF8043007
:104510001844BDF806301844C0F38F0003B030BD16
:1045200008B50D4B98420BD003F5806398420BD031
:10453000A3F5006398420BD1072909DCC8B208BD76
:10454000012905DC0831F9E7052901DC0A31F5E725
:104550000AF080F91020F2E7000C0140012370B549
:1045600093400C4615460022064611469BB2204653
:104570000AF0E8FD29462046FFF7D2FF3368034AD8
:104580009B1A034AC3F34F03D05470BD702C002014
:10459000302D00200D4B0E4A991C13600D4A1160FE
:1045A0000D4A191D11600D4A991D11600C4A03F145
:1045B000080111600B4A03F10A0111600A4A03F174
:1045C0000C011160094A0E3313607047702C0020F3
:1045D0006C2C0020682C0020642C0020602C002013
:1045E0005C2C0020582C0020542C0020502C002043
:1045F000114A124B30B553F8213052F82140194678
:10460000A342A8BF2146026802F1C8058D4206DB1D
:10461000A342B8BF234603F1C804A24202DD0160F1
:10462000002030BD8A4202DA01600120F9E79A4297
:10463000FBDD0360F9E700BF702E0020682E00202C
:10464000012970B516D80C4B53F821400B4B53F889
:104650002150AC420ED0001B0CF0A6F90646281BD8
:104660000CF0A2F9014630460CF0A6FA04490CF011
:10467000EFF970BD0020FCE7702E0020682E0020AE
:104680000000C842F8B5224B05461C68014620468A
:104690000CF09AFB00B12C461E4B21461E6830469A
:1046A0000CF074FB00B126461B4D31462F68344692
:1046B00038460CF075FB002198B130460CF084FBB5
:1046C00068B1164B196838460CF0BAF83146044602
:1046D0000CF07AFB00B1344620462C60F8BD104B3C
:1046E000F0E730460CF066FB0028F5D10021384693
:1046F0000CF06AFB48B10020094B19680CF09EF8D9
:10470000314604460CF042FBE4E73846F4E700BFCC
:10471000542E00204C2E00201C2E0020402E002065
:10472000442E0020F8B5054684200E461746FFF7B4
:1047300013F83146044628460CF032FBE0B94FF03E
:10474000804130460CF07CF829460CF03DFBA8B1C6
:1047500044F01001842089B2FFF71EF8124D3E6824
:10476000002130460CF026FBA0B1294630460CF063
:104770000DFB28B1344604E00C4DF0E70025EEE7D0
:104780002C46284609493C600CF000FB003818BF55
:104790000120F8BD05F10044214630460CF014FB21
:1047A0000028EED0E6E700BF000048420000C84203
:1047B0002DE9F843064628200D46FEF7D5FF304F79
:1047C000DFF8C08038602920FEF7CEFFC8F800006F
:1047D0008420FEF7C1FFD7F8009020F003040021E9
:1047E0004846A4B20CF0F0FA28B3002130680CF06F
:1047F000E1FA254F28B3494628460CF01FF8234913
:104800000CF026F9002105460CF0C0FA00B1002595
:104810003D603768294638460CF0D6FA44F001036B
:104820009BB2002818BF1C46294638460CF0AEFA49
:1048300000B13D4635602146BDE8F8438420FEF7CF
:10484000ABBF2846D8F800100BF0F8FF0F490CF06A
:10485000FFF8002105460CF0B7FA00B100253D60D5
:104860003768294638460CF091FA44F002039BB2AF
:10487000002818BF1C46294638460CF0A5FAD7E791
:104880003C2E0020382E0020242E00200000604006
:104890002DE9F8430C46364D3649064628680CF09B
:1048A000D7F821460BF0CCFF4FF076510CF0D0F842
:1048B00028602A20FEF758FF2F4FDFF8C0803860AD
:1048C0002B20FEF751FFC8F800008420FEF744FFBC
:1048D000D7F8009020F00C0400214846A4B20CF058
:1048E00073FA18B3002130680CF064FA2D68244F75
:1048F00010B3294648460BF0A1FF002105460CF0F5
:1049000045FA00B100253D603768294638460CF06D
:104910005BFA44F008039BB2002818BF1C462946E6
:1049200038460CF033FA00B13D4635602146BDE80B
:10493000F8438420FEF730BF2846D8F800100BF06B
:104940007FFF002105460CF03FFA00B100253D60D5
:104950003768294638460CF019FA44F004039BB234
:10496000002818BF1C46294638460CF02DFADAE715
:104970003C2D002000007041302E0020342E0020FD
:10498000202E0020104B70B51A68066801EB021447
:10499000A41A24110546002130461C600CF014FABC
:1049A00088B10A4B1868001B48BF0330801020EA0A
:1049B000E0700BF0F9FF0446014630460CF004FAB3
:1049C00000B126462E6070BD382D00202C2E002010
:1049D000F8B50E4A064614780D4F0134E4B2312C76
:1049E0008ABF002323461C460A4D386855F8241018
:1049F00013700BF023FF31460BF022FF064938609D
:104A000045F824600CF0D8F8F8BD00BF402D002018
:104A10000C2E0020442D0020000048420000000021
:104A20002DE9F74F8046A02092468946FEF794FE76
:104A30000446A920FEF790FE074684EAE470A0EB46
:104A4000E4700BF0B1FFDFF8F8B10446DBF800507A
:104A500029460BF0F3FE002101900CF097F9019B21
:104A600008B103F10043774A1946166830460CF046
:104A70008DF950B1294620460CF0A6F931460028A0
:104A80003CD028460BF0DCFE0446CBF80040002F5B
:104A900000F0CE8020460CF0B7F90546BAF1000FC1
:104AA00030D0632840F3C4800BF07EFF664B804615
:104AB0001E6831460CF06AF9002840F0B980634B5B
:104AC00040461F68624B39461C680CF05FF988B19C
:104AD00030460CF099F9064620460CF095F9AD1BCE
:104AE000454338460CF090F9801B95FBF0F00BF035
:104AF0005BFF0446204603B0BDE8F08F28460BF06C
:104B00009DFEC1E749464046FFF79AFD514B0646D8
:104B10001C68014620460CF057F9002876D1214642
:104B200030460BF08BFE214606464B480BF086FEC6
:104B3000014649480CF040F831460BF089FF044625
:104B4000464B20461C60FFF743FF014606462046C1
:104B50000BF074FE424980460CF018F930B94FF062
:104B60007E5140460CF030F900B93446632D4FDDDC
:104B700028460BF019FF344B8246D3F8008041469B
:104B80000CF004F9002843D1304B5046D3F8009084
:104B9000344B49461E680CF0F9F898B140460CF0C9
:104BA00033F9804630460CF02FF9A5EB0805454354
:104BB00048460CF029F9A0EB080095FBF0F00BF04B
:104BC000F3FE0646284D012F2E6023D1274930469B
:104BD0000BF03EFF05462549254B18680BF038FFC2
:104BE00029460BF02BFE21460BF032FF1A490BF041
:104BF000E3FF29460BF024FE0BF01AFB0EA3D3E9CA
:104C000000230BF06DFB0BF0C5FD72E7002497E766
:104C10000026D7E72720FEF79FFD08B900232B6069
:104C2000124928680BF014FF10490546114BD4E7D0
:104C300000245FE7AFF300809A9999999999B93F59
:104C4000182E0020282E0020602E0020642E002028
:104C5000582E0020482E00200000C842102E0020B0
:104C6000000080BF5C2E0020142E00200000204198
:104C7000542E0020502E00202DE9F3411F4C0646F3
:104C80002C201F460D4690460194FEF76DFD01AAAB
:104C900001464046FFF746FD2D20FEF765FD01AABF
:104CA00001463846FFF73EFD314601A8FFF780FD7B
:104CB000294601A8FFF7ECFD089901A8FFF762FE5D
:104CC000214601980BF078FF4FF07E5104460CF01E
:104CD0007BF820B9002120460CF058F860B94FF05D
:104CE0007E5120460CF070F820B14FF07E5002B09B
:104CF000BDE8F0812046FAE70020F8E70000C8424E
:104D0000F7B51E461F4B05462C2001930C4617464F
:104D1000FEF72AFD01AA01463846FFF703FD2D20C4
:104D2000FEF722FD01AA01463046FFF7FBFC2946AB
:104D300001A8FFF73DFD214601A8FFF7A9FD08994D
:104D400001A8FFF71FFE01980F4900F100400BF08A
:104D500033FF4FF07E5104460CF036F820B90021A5
:104D600020460CF013F858B94FF07E5120460CF055
:104D70002BF818B14FF07E5003B0F0BD2046FBE792
:104D80000020F9E70000C8C20000C842024B00BF83
:104D9000013BFCD1704700BF00127A0010B50446F9
:104DA000002240F2215102F080FA002240F222510A
:104DB000204602F07AFA002240F22351204602F007
:104DC00074FA002240F22451204602F06EFA0022CA
:104DD00040F22551204602F068FA002240F22651A6
:104DE000204602F062FA002240F22751204602F0EB
:104DF0005CFA2046BDE8104000224FF4A56102F0A5
:104E000054BA0000002313B5054A40F21141CDE920
:104E1000002303686A465C680823A04702B010BDFF
:104E2000340001003222002313B5CDE900230368CA
:104E30006A465C6840F211410823A04702B010BDE9
:104E4000002313B5054A40F21141CDE90023036860
:104E50006A465C680823A04702B010BD3401010017
:104E60002DE9F7430026174B05461E702024FFF757
:104E7000C9FF4FF04209FFF789FF4FF4C8482B687C
:104E800001966A4640F2114128465F688DF800405D
:104E900008238DF80190ADF802800134B847E4B2E0
:104EA0002846FFF773FFFFF7BDFFFFF76FFF292CC1
:104EB000E5D12846FFF7C4FFFFF768FF03B0BDE860
:104EC000F08300BFE81C0020D0F80220014B1A60DC
:104ED000704700BF942E0020D0F80220014B1A60CA
:104EE000704700BF842E0020D0F80220014B1A60CA
:104EF000704700BF802E0020D0F80220014B1A60BE
:104F0000704700BF7C2E0020054A138801331380B0
:104F10000A22D0F8023093FBF2F3024A1360704782
:104F2000982E0020782E0020D0F80220014B1A6025
:104F3000704700BF8C2E0020D0F80220014B1A6071
:104F4000704700BF902E0020D0F80220014B1A605D
:104F5000704700BF882E00206FF4A463C318084672
:104F6000072B15D8DFE803F00406080A0C0E101210
:104F7000FFF7AABFFFF7B0BFFFF7B6BFFFF7BCBF91
:104F8000FFF7C2BFFFF7D0BFFFF7D6BFFFF7DCBF09
:104F900070470161704741617047007A7047007A3D
:104FA00070470023C372704710B504460022616049
:104FB00008464FF4987102F078F900224FF43F71DF
:104FC000606802F072F900224FF49061606802F0AC
:104FD0006CF960680022BDE810404FF4D07102F017
:104FE00064B900002DE9F0410025BCB08846F022EC
:104FF00068460F490BF094FF6C4614262F46206834
:105000000BF0D2FC41460BF0CBFE08B1D4E90175A0
:10501000013E04F10C04F2D139467320FEF7BCFBCB
:10502000294674203CB0BDE8F041FEF7B5BB00BF97
:10503000D82A010810B404686468A44610BC60470C
:10504000037E73B50446002B50D0A920FEF784FBE5
:10505000324B00284CD10321314A20731170E122D8
:105060001A701B782F4D8DF800300C238DF801300D
:105070008F238DF802302B7860688DF80330F02391
:105080008DF8043003686A464FF4E9715E680523C1
:10509000B0472B783B201033DBB2ED2B08BF0D233C
:1050A0002B70FEF759FB204BC0B21A78824215D004
:1050B0004FF40952ADF8002000228DF802204FF085
:1050C000FF32019230BB30228DF8032018706A46FF
:1050D000082340F292516068FFF7ACFF23689420E8
:1050E0001D6AFEF741FB01462046A84702B070BD8D
:1050F000421C06D1012202212273094A1170D222D8
:10510000AEE70128ADD1032208212273044A1170B1
:105110007822A5E70828D9D13122D5E7EE1C002056
:10512000ED1C0020A02E00209A2E00200B7803F00A
:10513000010343720B78C3F3800303720B78C3F34C
:10514000001383728B78C3F3C0034376704700006B
:1051500008B54B7808781B0203F4706318440BF011
:1051600055F809A3D3E900230BF0BAF80BF012FBB2
:1051700007490BF06DFCBDE808400146A120FEF791
:1051800019BB00BFAFF300809A9999999999B93FDB
:105190002B121F3F0B78842B03D10121E420FEF753
:1051A000FBBA812B01D10021F8E770474B78323BE5
:1051B00018BF0123037670470B46B3F53F7F1146B6
:1051C0000FD006DCB3F5987F07D0B3F5D07F06D0BB
:1051D0007047B3F5906F06D07047FFF7A7BFFFF792
:1051E000B7BFFFF7D7BFFFF7E1BF000003682DE9A6
:1051F000F74F5B6B05460E469847634C002800F05E
:10520000BD80A020FEF7A8FA40F2ED23984240F3BB
:10521000B280A020FEF7A0FA800080B2072294217D
:10522000237843F0500300278DF802200A44AA3265
:1052300002EB10228DF80130ADF804001344C0B227
:10524000034403EB23236A4668688DF806108DF843
:105250000030AA2108238DF807708DF80370FFF73E
:10526000E9FEBE420CBF04226422DFF820A14FF009
:105270000F0B9AF80010DFF8189101F5FC73134436
:1052800003EB13238DF800304EF22103ADF802300A
:1052900041F6217368688DF80110ADF80430A8213B
:1052A00008238DF807206A46DFF8E8808DF806B0FD
:1052B000FFF7C0FE99F800306A468DF8003098F884
:1052C0000030A9218DF801304DF67973ADF8023028
:1052D000314B686801930823FFF7ACFE2F4E304B2B
:1052E0003278197868688B188DF80010FF2103F563
:1052F000E47303EB13238DF801108DF80530BA2108
:1053000007238DF806206A46ADF802B08DF80470C8
:10531000FFF790FE23782349013323700B78224A4C
:1053200001330B709AF80030307801338AF800307E
:1053300099F800300130013389F8003098F80030D6
:105340003070013388F8003013780133DBB25C2B06
:1053500013700DD1BE230B70E92389F800304D2363
:105360001370802327708AF8007088F800703370FB
:1053700003B0BDE8F08F40F6B8304FE72378FE2247
:10538000842143F030034EE79B2E00209D2E002009
:10539000EB1C00209C2E00201DC7E021E91C0020F2
:1053A000ED1C0020EC1C0020EA1C0020037E10B540
:1053B000044643B1B520FEF7E5F901462046BDE8B5
:1053C0001040FFF713BF10BD73B506467F20FEF7F0
:1053D000C3F9012815BF00239C231A469E224FF0D3
:1053E0008E0014BF1D4660258DF804308DF8052011
:1053F000FEF7BAF9014621480BF020FA204904468D
:105400000BF0E2FC002835D120460BF0FDFC6423B4
:1054100058434FF4FA7390FBF3F032300BF0C4FAB8
:1054200018490BF00DFA3C23174C8DF800300BF0A7
:1054300011FD23786A461D43C3238DF8033048F2DB
:10544000CD234FF4E8718DF80100ADF80630706897
:1054500008238DF80250FFF7EDFD0C4A21781378F0
:105460008B4209D10133DBB20F2B08BF002323701D
:1054700002B070BD0648D6E71170F9E70000C842D7
:1054800000400344000040429F2E00209E2E00203A
:1054900000001643037E73B50446A3B148F26123AE
:1054A0000093C37A63B9032560686A46036840F2D3
:1054B00032315E680223B047013DF5D10123E3722A
:1054C0002046FFF781FF02B070BD01617047416166
:1054D0007047007A7047007A70470023C3727047A4
:1054E00010B504460022616008464FF4987101F03F
:1054F000DCFE00224FF43F71606801F0D6FE00220E
:105500004FF49061606801F0D0FE00224FF4D0713A
:10551000606801F0CAFE60680022BDE8104040F2F9
:10552000FE3101F0C2BE00002DE9F84F00250F4604
:105530002C46284E28460BF037FAA046394601344F
:10554000814656F8345006EBC40B0BF029FC0028BA
:105550003CD028460BF028FA394682460BF02AFC4C
:10556000002833D006EBC808D8F804000BF01CFA6A
:105570000446DBF804000BF017FA21460BF05EF945
:105580004946054638460BF059F949460646504605
:105590000BF054F9014630460BF00EFB014628464D
:1055A0000BF056FA21460BF04BF94FF07C510BF003
:1055B00047F90BF029FC044621467320FEF7ECF86E
:1055C0002146BDE8F84F7420FEF7E6B8072CB1D1AC
:1055D000FF24F1E7102C0108037E73B50446002B6D
:1055E00050D0A920FEF7B8F8324B00284CD1032147
:1055F000314A20731170E1221A701B782F4D8DF8FB
:1056000000300C238DF801308F238DF802302B7879
:1056100060688DF80330F0238DF8043003686A4623
:105620004FF4E9715E680523B0472B783B201033B7
:10563000DBB2ED2B08BF0D232B70FEF78DF8204B4E
:10564000C0B21A78824215D04FF40952ADF800204A
:1056500000228DF802204FF0FF32019230BB302241
:105660008DF8032018706A46082340F29251606852
:10567000FFF7E0FC236894201D6AFEF775F80146E9
:105680002046A84702B070BD421C06D1012202216B
:105690002273094A1170D222AEE70128ADD103224C
:1056A00008212273044A11707822A5E70828D9D16D
:1056B0003122D5E7F41C0020F31C0020AE2E002080
:1056C000A82E00200B7803F0010343720B78C3F37C
:1056D000800303720B78C3F3001383728B78C3F3D8
:1056E000C00343767047000008B54B7808781B026A
:1056F00003F4706318440AF089FD07A3D3E900237B
:105700000AF0EEFD0BF046F8BDE808400146A12086
:10571000FEF750B8AFF300809A9999999999B93FDB
:1057200010B50B780C46842B0BD10121E420FEF739
:1057300033F86178E520BDE8104001F00101FEF783
:105740002BB8812BF5D10021F0E74B78323B18BF05
:1057500001230376704708B5B1F900000BF024F976
:105760004FF074510BF074F9BDE808400146A320D6
:10577000FEF720B80978BB208B1E59425941FEF72D
:105780000BB80B46B3F53F7F114615D008DCB3F5D7
:10579000987F0DD0B3F5D07F0CD0B62B10D07047CA
:1057A00040F2FE3293420DD0B3F5906F06D07047B1
:1057B000FFF788BFFFF798BFFFF7B2BFFFF7C5BF7E
:1057C000FFF7C9BFFFF7D6BF03682DE9F74F5B6B43
:1057D00005460E469847634C002800F0BD80A02087
:1057E000FDF7BAFF40F2ED23984240F3B280A020CB
:1057F000FDF7B2FF800080B207229421237843F0A6
:10580000500300278DF802200A44AA3202EB10222E
:105810008DF80130ADF804001344C0B2034403EB2B
:1058200023236A4668688DF806108DF80030AA2197
:1058300008238DF807708DF80370FFF7FBFBBE425D
:105840000CBF04226422DFF820A14FF00F0B9AF85E
:105850000010DFF8189101F5FC73134403EB1323D8
:105860008DF800304EF22103ADF8023041F621737D
:1058700068688DF80110ADF80430A82108238DF870
:1058800007206A46DFF8E8808DF806B0FFF7D2FB04
:1058900099F800306A468DF8003098F80030A92158
:1058A0008DF801304DF67973ADF80230314B6868F0
:1058B00001930823FFF7BEFB2F4E304B3278197847
:1058C00068688B188DF80010FF2103F5E47303EB73
:1058D00013238DF801108DF80530BA2107238DF8B8
:1058E00006206A46ADF802B08DF80470FFF7A2FBFF
:1058F00023782349013323700B78224A01330B703C
:105900009AF80030307801338AF8003099F8003086
:105910000130013389F8003098F8003030700133DD
:1059200088F8003013780133DBB25C2B13700DD193
:10593000BE230B70E92389F800304D2313708023B8
:1059400027708AF8007088F80070337003B0BDE8E3
:10595000F08F40F6B8304FE72378FE22842143F0E1
:1059600030034EE7A92E0020AB2E0020F11C0020B2
:10597000AA2E00201DC7E021EF1C0020F31C0020F0
:10598000F21C0020F01C0020037E10B5044643B139
:10599000B520FDF7F7FE01462046BDE81040FFF7B1
:1059A00013BF10BD2DE9F3470746AA20FDF7DCFE23
:1059B0000446AB20FDF7D8FE4D49054620460AF0C7
:1059C0003FFF002104460BF0E1F900287ED120467C
:1059D00048490BF0F9F900287AD120460BF03AFA41
:1059E0000646434928460AF02BFF002104460BF0E7
:1059F000CDF900286ED120463E490BF0E5F900288C
:105A00006AD120460BF026FA05467F20FDF7A4FE5A
:105A100001284FF00004DFF8E08061D13D20FDF760
:105A2000A3FE36490BF0C8F881468A20FDF79CFE9C
:105A3000214682460BF0AAF900284FD030490AF1DE
:105A400000400BF005F849460BF0B6F82D490AF076
:105A5000FFFFD8F800100AF0F3FE4FF08F41044624
:105A60000BF0A8F928B120464FF08F410AF0E6FE6E
:105A700004462046C8F800400BF0ECF96023ADF86E
:105A80000400214C4FF4E8712278786813438DF8B4
:105A90000230C3238DF8033049F2CD636A46ADF876
:105AA000063008238DF800608DF80150FFF7C2FA28
:105AB000164A217813788B4218D10133DBB20F2BB1
:105AC00008BF0023237002B0BDE8F087002688E7F6
:105AD000CF2686E7002598E7CF2596E72046B2E750
:105AE0000023C8F80040ADF80430CAE71170EAE7B7
:105AF0000000404200004F43A42E002000007C42E2
:105B00005304E93700247449AD2E0020AC2E002048
:105B1000037E73B50446A3B148F261230093C37AB0
:105B200063B9032560686A46036840F232315E68F3
:105B30000223B047013DF5D10123E3722046FFF770
:105B400031FF02B070BD4069704708B5B0F9080078
:105B50000AF02AFF08BD08B5B0F90C000AF024FFCE
:105B600008BD0000014B1878704700BF402F00208F
:105B700038B51D48FEF7B2FC05461C48FEF7AEFCE2
:105B8000044628460AF042FB13A3D3E900230AF097
:105B9000A7FB13A3D3E900230AF0ECF90AF0FAFDFE
:105BA000054620460AF032FB0BA3D3E900230AF096
:105BB00097FB0BA3D3E900230AF0DCF90AF0EAFD16
:105BC0000446014628460BF0FFF808B1284638BDC8
:105BD0002046FCE7AFF300801213371BE91495BF92
:105BE000988F7B2556484C40582C0020542C002080
:105BF00038B505460C461A48072109F0DBF807219D
:105C0000184A174809F058F92A460721144809F09C
:105C10005CF9A2B20721124809F067F90721104880
:105C200009F02FF907210E4809F00CF9002207218D
:105C30000B4809F0FAF800220721094809F0E8F8B2
:105C40004FF480520721064809F0D5F8044807218F
:105C500009F020F9BDE83840034809F045BF00BF0E
:105C600000000240044400400044004010B50446D7
:105C70000621194809F09EF80621184A164809F02D
:105C80001BF90621164A144809F01FF9A2B2062191
:105C9000114809F02AF906210F4809F0E9F8062110
:105CA0000D4809F0CFF8002206210B4809F0BDF895
:105CB00000220621084809F0ABF800220621064818
:105CC00009F099F80448062109F0E4F8BDE810400D
:105CD000044809F004BF00BF000002400444004033
:105CE000AF2E00200044004038B504463420FDF7B4
:105CF00033FD00B20228E0811FD1344D344B2878A7
:105D0000002832D141F65832B4F90C10914201DD2D
:105D100001221A7019782F4A884248D00123137043
:105D20002D4B93F900002D4B10B9187801301870E5
:105D30001878042822D108B2E081012808D1284827
:105D4000FBF7D6FD2748FBF7D3FD2748FBF7D0FD2F
:105D5000B4F90E30C3B92248FBF7CAFD2148FBF75E
:105D6000C3FD2148FBF7C0FD0EE00128D2D1B4F9F4
:105D70000C20B2F5FA6FCDDA0022CAE7052803D16C
:105D80002970002119701170B4F90E30032B0DD158
:105D9000A920FDF7E1FC013011480DD1FBF7A8FD6A
:105DA0001048FBF7A1FD1048FBF79EFD38BD00230E
:105DB00000B2E0811370C0E7FBF79AFD0948FBF7DA
:105DC00097FD0948FBF794FDF0E700BF3D2F002049
:105DD0003C2F00203F2F00203E2F00203B2F002093
:105DE000B82B0020C82B0020C02B00200000000092
:105DF0002DE9F74F064612208846FDF7ADFC8E4B85
:105E0000C4B21B78012B40F0B4803046FFF76CFF22
:105E100040468A490AF01CFE89490AF0CDFE0AF084
:105E2000F3FF884D884F95F900A0388050460AF05E
:105E3000BBFD41460AF00CFE0AF0FAF97CA3D3E957
:105E400000230AF04DFA0AF0A5FC804981460AF0C9
:105E5000FFFD7B490AF0B0FE0AF0D6FFDFF8F0B193
:105E6000DFF8F0819BF800203062A8F80000002ADB
:105E700000F0D880BAF1000F2EDD2420FDF774FC6D
:105E8000019095F900000AF08FFD73498246019850
:105E90000AF0DEFD014650460AF0D0FC0AF0B4FFDD
:105EA00040B200283DDB6328287015DC9BF80030E9
:105EB00093B92420FDF758FC824695F900000AF0BA
:105EC00073FD51460AF0BCFC0AF09EFF40B2642804
:105ED000CABF642328702B70B6F90E3023BB002193
:105EE00048460AF053FFF8B1B8F900000AF08EF9FD
:105EF00000225A4B0AF0F4F90AF004FCA8F800005A
:105F0000B7F900000AF082F90022544B0AF0E8F9D0
:105F10000AF0F8FB3880032C14D8DFE804F00B10EB
:105F20000E1B00222A70C1E7032C0BD8DFE804F017
:105F30000207050D336A002B04DA434B00E0454BA2
:105F400000221A8003B0BDE8F08F484644490AF0A9
:105F50003BFF10B900233B80F4E748460AF054FFAA
:105F600041F2171332385843322390FBF3F0388054
:105F7000E8E7022B1ED1354940460AF069FD304959
:105F80000AF01AFE0AF040FF324A03B2138013EB04
:105F900083032D4948BF03339B1030620B800CB93B
:105FA000A042C9E7012C02D100231380CAE7022CCA
:105FB000C8D1C2E7032BC5D1244940460AF048FDA9
:105FC0001F490AF0F9FD0AF01FFF224A03B21380AD
:105FD00013EB83031C4D48BF03339B1030622B80AF
:105FE000032CAFD801A353F824F000BFFD5F0008D5
:105FF0003F5F00083B5F00080160000800289BE746
:10600000404617490AF0E0FE08B928809AE7404662
:106010000AF0FAFE41F2171332385843322390FB4C
:10602000F3F0F2E7BAF1630F3FF756AF41E700BF75
:106030007B14AE47E17A843F4B2F002000B888459F
:106040000000C8423E2F0020442F002000C05A45C7
:106050003F2F0020422F00200000A0400000E03F22
:106060000000484210B57F20FDF776FB08B902F02A
:1060700087FF7F20FDF770FB012841D12148FBF706
:1060800019FC0146BC20FDF787FB1F48FBF712FCFB
:106090000146BD20FDF780FB1C48FBF70BFC0146C9
:1060A000BE20FDF779FB1948FBF704FC04461648AF
:1060B000FBF700FC84F0010380F001046400114848
:1060C00044EA8304FBF7F6FB80F0010044EA000396
:1060D0005BB20F4C062B237003D10021C120FDF7CA
:1060E0005BFB2378052B03D10121C120FDF754FB75
:1060F0003520FDF731FBBDE8104080B202F040BF13
:1061000010BD00BFB02B0020A82B0020A02B00202A
:10611000462F0020034B1B78012B01D1FFF7A2BFB4
:10612000704700BF4B2F002000220B4870B513466C
:1061300005468C1E944209DC294411F8012C285D87
:1061400040EA0220C31A5842584170BD10F8016B52
:10615000013233449BB2EDE7AF2E0020002070B532
:10616000084C034622468D1E854205DC53550A44E1
:106170001B0A02F8013C70BD14F8016B0130334476
:10618000F2E700BF27220020F8B5B94D04462B786E
:106190000E2B3ED8DFE813F00F0016003B003E0048
:1061A0007600B800BA00D900DB0007016001860163
:1061B0009F01A101CA016420FFF758FDAD48FBF71C
:1061C00097FB1EE0AC4CAB48FBF78EFB23787BB90A
:1061D00002220721A94808F004FE90B107210222FB
:1061E000A64808F0F8FD5021A548FFF701FD08E09A
:1061F0005021A448FFF7FCFCA34B5B7823B9012393
:1062000023702B78013303E02378013BF8E7032365
:106210002B70F8BD6421FFF787FF9B4E9B4F38B969
:10622000014638706081A081B120FDF7B5FA23E006
:1062300002220621914808F0D4FD0028F0D0022265
:1062400006218E4808F0C7FD01233B70B6F8523096
:10625000053B03EBD3735B10238196F92A000AF008
:10626000A3FB606196F956000AF09EFBF388A061DB
:106270006381B6F81F30A381002386F8623086F868
:106280006330BEE7824EA220B6F90010FDF784FA13
:106290006189A2897A4B0A44712112B292FBF1F210
:1062A0007C491A70B1F900200978880083F84B0006
:1062B0009011524212129A711A73B6F90020494293
:1062C0005971D9729A76110A83F82020782283F8BE
:1062D0003F20EC2283F840206C2283F841206B227F
:1062E00083F84C00D97683F821102046502183F89A
:1062F0004220FFF733FF684A1388642B8CBF0023CA
:1063000001331380002383E7782055E75A4C59481E
:10631000FBF7EAFA2378052B0ED90222072157480A
:1063200008F05FFD00283FF46CAF072102225348BC
:1063300008F051FD642157E76421584801FB030030
:10634000FFF756FC237801335AE7082360E77821EA
:10635000FFF7EAFE4C4E4D4F00283FF461AF02229A
:106360000621464808F03DFD00283FF459AF0222BF
:106370000621424808F02FFD01233B70B6F8643037
:10638000053B03EBD3735B10238196F914000AF0ED
:106390000BFB6061B6F856000AF006FBF388A061BB
:1063A0006381F38C67E73A4EA220B6F90010FDF73F
:1063B000F3F9384B206AB3F90020314B11125A71AE
:1063C000DA72B6F900209971197300284FEA122188
:1063D0009A77D97736DD9A7602EBD27252101A7715
:1063E000120AD9765A77752183F84A10122183F858
:1063F0004B106021402283F84C10252183F848205F
:10640000042283F84D10522183F8492083F84F204D
:10641000892283F84E10224983F8562083F85820A9
:106420000A78204601320A70D20748BF93F85E20EE
:106430004FF0640144BF013283F85E20FFF78EFE07
:106440000523E5E6CFD01A7702EBD27252109A7686
:10645000120A5977DA76C6E77F20FDF77DF9012821
:106460001CBF0022044B4FF08C0018BF1A70A3E62B
:106470004A2F0020982B002090220020000002408C
:1064800027220020552D0108AF2E0020402F00208C
:10649000422F0020442F0020482F00206B1F002097
:1064A000472F0020384C3948FBF71EFA2378062B7B
:1064B0000ED902220721364808F093FC00283FF449
:1064C000A0AE07210222324808F085FC69218BE644
:1064D0006921304832E70D239AE68C21FFF724FE2C
:1064E0002D4E08B302220621294808F07AFCD8B1C3
:1064F00002220621264808F06EFC01233370274E45
:10650000B6F875305B10238196F914000AF04CFA46
:106510006061B6F819000AF047FA7389A0616381D7
:10652000B6F82B30A3816CE630706AE61C4EA220D0
:10653000B6F90010FDF730F91A4B2046B3F90020E8
:10654000194B524211125A71DA72B6F90020997140
:10655000DA77121283F820209A7E197383F82520A7
:10656000DA7E692183F82620782283F84F20EC22F6
:1065700083F85020102283F85120272283F85220DC
:10658000FFF7ECFD0A2343E690220020982B002021
:1065900000000240F51C0020402F0020AF2E0020FC
:1065A000422F0020442F00202722002038B5037FEF
:1065B00004468B420D460AD051B15F20FDF7CCF85E
:1065C00008B9FCF76FFEFCF7A3FE0123237738BD63
:1065D0004FF0804009F0C8F82577F8E708B50121A9
:1065E000FFF7E4FF0B4B1A78042A04D805221A702F
:1065F0000022094B1A7000230849094A11F8010BBF
:106600000133642B02F8010BF8D10222054B1A70FA
:1066100008BD00BF4A2F002090220020882C0108CE
:10662000272200204B2F002008B50121FFF7BEFFD5
:10663000064B1A78042A04D900221A700122044B4E
:106640001A700122034B1A7008BD00BF4A2F0020A8
:10665000902200204B2F0020012108B5FFF7A6FF54
:106660000A4B0B491A78092A9CBF0A221A70002289
:10667000084B1A706923084A11F8010B013B02F814
:10668000010BF9D10322054B1A7008BD4A2F0020D7
:10669000EC2C010890220020272200204B2F002004
:1066A0000021FFF783BF01817047000008B508464D
:1066B0000AF0AAFBA622A0F10F035343412293FB49
:1066C000F2F3024A5833138008BD00BF4C2F00205C
:1066D000B420FDF757B810B50446002261600846A3
:1066E00040F2531100F0E1FD60680022BDE8104067
:1066F00040F2F31100F0D9BD40F25313994210B5A6
:10670000044610D1B2F80100A0F5B0700AF04CF9BF
:106710004FF076510AF09CF90146A120FDF74AF8A6
:106720000123E37203E040F2F3139942F8D010BD65
:1067300010B50446C07A10B90348FBF7BBF8002334
:106740002073E37210BD00BF582B002008B502482B
:10675000FBF7B0F808BD00BF582B002007B540F28A
:10676000EE22038940F21631934238BF13460522C8
:10677000ADF8002041F65832934228BF13460A2252
:106780009B01B3FBF2F3ADF8023000236A4601939C
:1067900040680823FEF74EFC03B000BD13B5154A50
:1067A0000024137814498DF80030144B01941B8891
:1067B0008DF80130C523ADF802300B780133DBB220
:1067C000152B0CD80B7063B91123137008236A467C
:1067D00040F229314068FEF72DFC02B010BD0C706C
:1067E000F2E7082B01D18623EFE70F2BEED1D92357
:1067F000EBE700BF502F0020512F00204C2F00202E
:10680000462313B5ADF80430002340688DF80630F8
:10681000036840F23B415C6801AA0323A04702B031
:1068200010BD000007B50C4A40F24551138840687E
:106830000133138000228DF801301B0A8DF80230DD
:10684000064B8DF800208DF8032001936A4608233B
:10685000FEF7F0FB03B000BD4E2F00207E100018A5
:1068600007B5C9B1012919D001310CBF072308238D
:106870008DF801304FF6FF738122ADF80230084BDE
:106880008DF8002001936A46082340F23F4140689A
:10689000FEF7D0FB03B000BD0623E9E70523E7E7D9
:1068A0000080FFFF037B10B50446BBB1FFF756FF26
:1068B0002046FFF773FF2046FFF7B4FF2046FFF79F
:1068C0009FFF0320FCF75EFF40B1A920FCF744FFC7
:1068D00041B22046BDE81040FFF7C2BF10BD0181A4
:1068E00070477047B420FCF74DBF000008B5084B57
:1068F000186899889B792BB108F063FCB0FA80F096
:10690000400908BD08F05DFC003818BF0120F8E719
:10691000582B002030B51F4A1F4B89B0CDE9012309
:106920001E491F4B1F4CCDE903131F4B1F4D0593F1
:106930000023ADF8193023784FF4B06163F07F0382
:106940008DF818302B68406820336B4413F81C2CEA
:106950008DF81B2013F8182C8DF81C2013F8142C1C
:106960008DF81D2013F8102C13F80C3C8DF81E2008
:106970008DF81F3006AA0823FEF75CFB2B68013355
:1069800003F003032B602378013303F00F0323701C
:1069900009B030BD0F287F281E1000107056F05629
:1069A0000C48A748522F002046902890542F0020D2
:1069B00037B540F2EE2203890025934238BF1346D3
:1069C00041F65832934228BF1346044603819A0089
:1069D0009B09CDE900554FF420718DF803308DF8F7
:1069E000042008236A464068FEF724FB08236A4611
:1069F0004FF4227160688DF803508DF80450FEF753
:106A000019FB03B030BD000008B5034BB3F900001B
:106A100009F0CAFF08BD00BF642F002008B5034B72
:106A2000B3F9000009F0C0FF08BD00BF662F0020C9
:106A300008B5024B188809F0B3FF08BD6A2F002083
:106A400008B5034BB3F9000009F0AEFF08BD00BF65
:106A5000682F0020064B1A78064B0AB91A7001E01D
:106A6000012AFBD0044A126802B91A7018787047DC
:106A7000602F0020612F00205C2F002010B50446FD
:106A80000022616008464FF4C87100F00EFC00223D
:106A90004FF4CD71606800F008FC00224FF4D27111
:106AA000606800F002FC60680022BDE810404FF40E
:106AB000D77100F0FABB00002DE9F3410646084605
:106AC000354909F0C5FF0AF09FF9344B01B2A22005
:106AD0001980FCF761FE7F20FCF73EFE0546B620DC
