:020000040800F2
:10100000005000202DF7000829F7000827F70008F6
:1010100027F7000827F7000827F70008000000005E
:1010200000000000000000000000000029F7000898
:1010300029F700080000000029F7000829F7000838
:1010400027F7000827F7000827F70008E12600081F
:1010500027F7000827F7000827F7000827F70008F8
:1010600027F7000827F7000827F7000827F70008E8
:1010700027F7000827F7000827F7000827F70008D8
:1010800027F7000827F7000827F70008B1830008B2
:1010900091830008A183000827F7000827F70008BC
:1010A00027F7000827F7000827F7000827F70008A8
:1010B00027F7000827F700089126000827F70008FF
:1010C00027F7000827F7000827F7000827F7000888
:1010D00027F7000827F7000827F7000827F7000878
:1010E0009D26000827F7000827F7000827F70008C3
:1010F00027F7000827F7000827F7000827F7000858
:1011000027F7000827F7000827F7000827F7000847
:1011100027F7000827F7000827F7000827F7000837
:1011200027F7000827F7000827F7000827F7000827
:1011300027F7000827F7000827F70008DD830008D5
:10114000BD830008CD83000827F7000827F70008B3
:1011500010B404466468084611461A46234610BC7B
:101160001847836818477047704770477047704743
:1011700041607047704770477047704770477047CD
:1011800070470020704700207047000000487047FB
:101190000000484200207047416070477047704728
:1011A0007047704770470020704741607047704734
:1011B0007047704770477047002070477047416024
:1011C00070470020704770477047704770477047FE
:1011D000002070477047416070477047002070479B
:1011E00070474160704770470846704770477047C6
:1011F0007047704700487047003C1C46416070478C
:10120000704770477047704770474160704770473C
:101210000020704700207047002070470020704772
:101220000020704770477047104B10B5186803686E
:101230001B6898470E4B186803681B6898470D4B4E
:10124000186803681B6898470B4B186803681B688D
:1012500098470A4B186803681B689847BDE8104018
:10126000074B186803689B68184700BF18000020E8
:10127000140000200C0000201C00002010000020A2
:101280000400002010B5174C206803689B6998473C
:10129000052002F0B1F92346062818D8DFE800F04F
:1012A000040A0C0E1012200000210F4A11700F4A80
:1012B0001A600CE00E4AFBE70E4AF9E70E4AF7E720
:1012C0000E4AF5E70E4A0F4B226001221A700E4CAF
:1012D000206806F01FF86068BDE8104006F01AB8F4
:1012E0000A4AE5E70C0000206C260020D8290020DF
:1012F0004C2A0020F4290020702600204C270020D2
:10130000002A00206C2800207C2800204427002090
:1013100010B5114C20680368DB699847042002F07F
:101320006BF92346042806D8DFE800F003100E12FC
:1013300014000A4A1A600A4C206805F0EBFF606846
:10134000BDE8104005F0E6BF064AF3E7064AF1E7BC
:10135000064AEFE7064AEDE71C000020EC290020D2
:101360007C280020B82A0020CC290020E029002079
:10137000B02A002010B5134C206803685B689847BA
:10138000062002F039F901382346052817D8DFE88E
:1013900000F00310100E12140B4A0C4C1A60206857
:1013A00005F0B8FF6068BDE8104005F0B3BF084A1B
:1013B000F3E7084AF1E7084AEFE7084AEDE7084A89
:1013C000EBE700BF00000020282A00207C28002036
:1013D000182A0020C02800207C2900200027002097
:1013E000202A002010B50B4C206803685B689847E2
:1013F000442002F001F9012814BF074B074B23607A
:10140000074C206805F086FF6068BDE8104005F0D5
:1014100081BF00BF04000020802A0020A02A0020F5
:101420007C280020022010B502F0E6F801380D4BB0
:10143000032803D8DFE800F00D0F11130A4A0B4C04
:101440001A60206805F066FF6068BDE8104005F08E
:1014500061BF074AF3E7074AF1E7074AEFE7074AA0
:10146000EDE700BF10000020F82600207C280020B7
:10147000602700204C2600205826002054270020FA
:1014800010B5012002F0B8F809280FD8DFE800F005
:10149000171C2B0E05091F222528144B144A1A600D
:1014A00004E0124A134B136000229A72124C206817
:1014B00005F030FF6068BDE8104005F02BBF0B4A17
:1014C0000C4B13600122F0E7084B0C4AE7E7074B8F
:1014D0000B4AE4E7054B0B4AE1E7044B0A4ADEE717
:1014E000024B0A4ADBE7014B094AD8E71400002007
:1014F000EC2600208C2600207C2800209C26002042
:10150000D42600204429002078260020B826002078
:101510008C280020036810B59B6898470FF06AFA82
:1015200000240146902002F087F821468B2002F02B
:1015300091F821468C2002F08DF821468E2002F091
:1015400089F82146BDE810408F2002F083B80000E2
:1015500010B51D4C206803689B6A9847002002F074
:101560004BF8234609280FD8DFE800F005080A0EDB
:10157000271C2117292B154A1A6005E0144AFBE79E
:101580001448206005F04AF8134C206805F0C2FEAC
:101590006068BDE8104005F0BDBE0E48206005F053
:1015A00055F8F1E70B48206005F014F8ECE70B4A1A
:1015B0001A6001220A4B1A70E6E70A4ADCE70A4A77
:1015C000F6E70A4AD8E700BF18000020642600208A
:1015D000542A0020202900207C2800209C2800205C
:1015E0006C280020702A00205C290020F4280020AC
:1015F00010B5144C206803681B6998474B2001F014
:10160000FBFF2346032805D8DFE800F0020D0F1684
:101610000D4A1A600D4C206805F07CFE6068BDE83C
:10162000104005F077BE0A4AF3E70A4B0A481968EA
:1016300020600BF023F9EDE7084A094B22600122F4
:101640001A70E7E708000020442600207C280020CC
:1016500070280020C42900208C2A0020B8290020EE
:101660006C280020A82001F0DDBF00002DE9F74F15
:10167000082001F0C1FF444C54F8201009200191CA
:1016800001F0BAFF54F820600A2001F0B5FF54F8C9
:1016900020500B2001F0B0FF54F820B00C2001F0D6
:1016A000ABFF54F820200D20009201F0A5FF54F864
:1016B00020A00E2001F0A0FF54F82080102001F09F
:1016C0009BFF54F82090112001F096FF2F4B54F807
:1016D0002070186801990368DB6A98472C4B3146E3
:1016E00018680368DB6B98472A4B009A1868114604
:1016F0000368DB699847284B5946186803681B6ADA
:101700009847264B5146186803681B699847244B35
:101710004946186803685B699847224B3146186848
:1017200003689B69984741461F4809F03FFF1F4BDC
:101730003946186803685B699847072001F05CFF29
:10174000012802D1284603F0EBFA072001F054FFEC
:10175000022802D1284609F031F9072001F04CFF98
:10176000032802D1284609F0FBFA002240F2016169
:10177000606805F0B2FD002240F20161206803B00C
:10178000BDE8F04F05F0A9BD7C280020180000201E
:10179000140000200C0000201C000020000000208D
:1017A0000400002010000020482A0020080000202B
:1017B00038B540F2DF73984204460D4606D10A461A
:1017C00001462C4809F0FAFE002038BD072001F040
:1017D00013FF012803D12946204603F07FFB072091
:1017E00001F00AFF022803D12946204609F026F914
:1017F000072001F001FF032803D12946204609F004
:10180000DFFA1D4B2A46186821460368DB689847B3
:101810001A4B2A461868214603681B699847184BDB
:101820002A461868214603681B699847154B2A46C3
:101830001868214603681B699847134B2A461868A5
:10184000214603681B689847104B2A4618682146B2
:1018500003681B6898470E4B2A46186821460368A0
:101860001B6998470B4B2A461868214603681B687A
:101870009847A9E7482A00201800002014000020FB
:101880000C0000201C0000200000002004000020AC
:10189000100000200800002008B5034699889B79B5
:1018A00000682BB10DF095FAB0FA80F0400908BD40
:1018B0000DF08FFA003818BF0120F8E708B502488C
:1018C000FFF7EAFF08BD00BFAC2C0020818800684C
:1018D0000DF07ABA818800680DF078BA2DE9F843E6
:1018E000A64BA74D998818680DF076FA0DF07EFA90
:1018F000A44BA54E186801F04BFE0EF04BFEA34919
:101900000EF050FF0146D12001F0A4FE06F0C2FA0D
:1019100001467A2001F090FE782001F06DFE2968E2
:101920000446306806F01EFF072001F065FE08B18E
:1019300007F0B8F93068964F03689B6A98470146EC
:10194000A62001F079FE30680368DB6A98470146FB
:10195000A42001F07FFE07F0D9F9386803689B687E
:101960009847306803689B6898478A4B18680368F3
:101970009B689847884B18680368DB689847874BD3
:10198000186803681B699847286803689B6898472C
:10199000834B186803689B699847824B186805F069
:1019A00007FD814B1B780BB10BF0DAFC9E2001F098
:1019B00023FE7E4D0028686A80F2A980FFF786FF2B
:1019C000012C286940F0A680FFF780FF3868DFF817
:1019D00008820368DFF804929B69984701469F20BC
:1019E00001F038FE386803685B6998470146A0201B
:1019F00001F030FE386803685B6A98470EF0CAFD54
:101A00000146B32001F026FE38680368DB69984779
:101A10000146822001F01EFE306803685B6B984728
:101A20000146B22001F008FE614BA120196801F0C7
:101A300003FE604B1B78012B04D0042B02D098F8D6
:101A4000003023B1D9F8000003689B689847D9F8A3
:101A50000000594F036839785B69984706460028AB
:101A60005BD0012C1EBF0122544B1A70012388F851
:101A70000030A86A524B984205D0FFF70DFF01468F
:101A8000CA2001F0D9FD0BF021FC0BF037FC042C2F
:101A900001D0012C66D19F2001F0B6FD0646CD2075
:101AA00001F0B2FD014630460EF084FF002848D018
:101AB0009F2001F0A9FD06466E2001F0A5FD3146EC
:101AC0000EF05AFF00283ED0A86BFFF7FFFE042C53
:101AD00001D0012C49D1E86BFFF7F8FE002001F09E
:101AE0008BFD092848D1012C46D19E2001F084FDB0
:101AF000344B354C1A6882423BD005221860226074
:101B000032480CF079FC2368013B236034E0FFF796
:101B1000E1FE55E7FFF7DEFE58E798F800303BB1ED
:101B20000146792001F088FD244B88F800601E7082
:101B3000D9F80000397803689B699847244B1870DE
:101B400097E7CD20B5E76E2001F05EFD21490EF04C
:101B50006BFC31460EF02EFF0028B8D0A86BFFF7C3
:101B6000B9FEB4E7A86BFFF7B5FEE86BFFF7B2FE6E
:101B7000B4E72368002BC3DCBDE8F8831C2C0020ED
:101B800010000020C02A0020140000200000204186
:101B9000180000200C00002000000020040000209D
:101BA00008000020FC2900206C280020B430002010
:101BB000F82E0020BC280020EA2900206C260020F6
:101BC000542C0020CC2A0020C82A0020F428002011
:101BD0009C2A00200000A040882800201C00002033
:101BE0002DE9F74F962001F007FD8046782001F09F
:101BF00003FD04469E2001F0FFFC07460DF0D0FADD
:101C000006F014F9AA4BDFF8E0A2186803685B68D5
:101C10009847782001F0F0FC0128054640F0C1808B
:101C20000FFA88F888EAE870A0EBE87080B206F056
:101C300067FF002106460EF09FFE98B1002001F0DC
:101C4000DBFC04280ED01E2001F0D6FC002840F05A
:101C5000A280B8F1000FB8BF4FF0FF35BD4218BFEA
:101C600006F1004638460EF095FC31460EF0E6FCD3
:101C70000546DAF8000003685B689847DAF8000068
:101C8000294603688B4E1B6998479D2001F0B4FCE0
:101C900005462D2001F0B0FC8542306A80F2858037
:101CA000FFF714FEDAF80000834D03681B6A9847BB
:101CB0000EF0A0FE07B23946962001F0BDFC0820C8
:101CC00001F09AFC55F8200006F04CFC012C009520
:101CD0007A4D01D0042C08D1286887EAE77103689F
:101CE000A1EBE7719B6989B29847D5F800809F20E6
:101CF000D8F80030D3F81C9001F086FC014640462D
:101D0000C847286803685B6898476D4B1868036884
:101D1000DB6898476B4B186803685B689847042C2E
:101D200046D1694B186803685B689847384606F0E7
:101D300097FD8046992001F05FFC0746132001F0D3
:101D40005BFC8742CCBF40270027342001F05CFCBD
:101D500041460EF01BFE002814BF0020042007435C
:101D6000242001F051FC41460EF024FE002814BF4F
:101D700000200820074339467B2001F05DFCDFF896
:101D80006CB1042C00F28280DFE814F02800A3017B
:101D9000B60072018C01B8F1000FA8BF4FF0FF35FB
:101DA0005CE706F067FF002568E7FFF793FD79E73A
:101DB000052001F021FC032804D1434B1868036877
:101DC0005B689847012CB1D1D02001F015FC411C73
:101DD00001F00F01D02001F02FFCA7E70027DFF86A
:101DE0001081DFF810A1394888F800708AF8007077
:101DF000FFF770FDB069FFF76DFD39469E2001F0D9
:101E00001BFC286803685B699847314A1770314F9B
:101E100091463B88002B45D12F48FFF75BFDF069C9
:101E2000FFF758FD2D48FFF755FD992001F0E4FB21
:101E30000190132001F0E0FB019B834215DA286832
:101E400003689B6B984780B1286803685B6B984771
:101E500058B10124192389F800403B800DF0A0F906
:101E600088F8004002241E4B18601E4B1B784BB1B3
:101E700019233B800DF094F9194B022418600123BB
:101E80008AF800302146782001F0D6FBF068FFF791
:101E900021FD0022DBF80000114603682546DB68BF
:101EA0009847A4E0013B9BB23B80002BBDD1B3E738
:101EB0001C000020B43000207C28002014000020EA
:101EC00004000020100000200C000020142C002032
:101ED000882A0020200000204C2C00208C2C002080
:101EE000C42A00206C2600201800002008000020D2
:101EF000F426002098280020874B1A789946002A5B
:101F000040F09480DAF80020844B9A4202D0844852
:101F1000FFF7DCFCF069FFF7D9FCB069FFF7D6FCEE
:101F2000804A13889246002B40F08D807E48FFF750
:101F3000CDFC6FB97D4B1A78002A00F08B801F70A2
:101F4000192339467D20AAF80030012401F074FBE2
:101F5000774B1B7823B199F80030002B08BF002481
:101F6000744B1B7833B1286803685B6B9847002873
:101F700008BF0024342001F03FFB0EF00BFB41466C
:101F80000EF018FD68B10DF00BF96B4B1B680533B3
:101F9000984206D96448FFF79DFC032005F04CFFEA
:101FA00003242146782001F047FB012C7FF46EAF1B
:101FB0004C2001F021FB012805467FF467AFF06853
:101FC000FFF784FCDBF800005C4903689B689847D6
:101FD000DBF800604D203368DF6801F00DFB04463C
:101FE000CA2001F01FFBA1B202463046B8470720C5
:101FF00001F002FB022808D10A2001F0FDFA009B43
:1020000053F82010284608F02BFD072001F0F4FAC1
:1020100003287ED10A2001F0EFFA009B53F820102C
:10202000284603B0BDE8F04F08F004BF072001F0D8
:10203000E3FA00287FF46EAFDAF80020404B9A42B2
:102040007FF468AF63E7013B9BB21380002B7FF402
:1020500070AF6BE799F80030002B3FF479AF19238C
:1020600039467D20AAF80030042401F0E5FA6FE734
:1020700000222E4B2C481A70FFF72CFC2C4B1B789F
:1020800023B1254B1B78002B08BF0024294B1B785C
:10209000002B86D0286803685B6B9847002808BF30
:1020A00000247EE71F4D2B886BB92648FFF70EFCF6
:1020B00005F0E4FE184B1B78002B7FF4E3AEFA2208
:1020C0001C462A80DEE6013B9BB22B80002BEFD121
:1020D000EBE7144F3B88B3B91A48FFF7F7FB1048FA
:1020E000FFF7F4FB7820012101F0A6FA05F0C6FE07
:1020F000286803685B6B984700287FF452AFFA2387
:1021000004463B804DE7013B9BB23B80002BE9D16D
:10211000E2E703B0BDE8F08F6C260020702A0020B3
:10212000142C0020200000208C2C0020882A002065
:1021300098280020F4260020C42A002000004842ED
:10214000542A00204C2C00202DE9F84F782001F073
:1021500053FA05469E4BDFF8C08218680368DB68B7
:102160009847042D04D1D8F800000368DB6898472D
:1021700006F05AFE974B984F1968C520DFF89CB2BD
:1021800001F05AFAC620396801F056FAC720DBF888
:10219000001001F051FA914BDFF884921968C820C1
:1021A0008F4E01F049FAC920B9F8001001F044FA45
:1021B0003378CA46022B8B4C40F0E9808A4B1B785F
:1021C000002B40F0E480042D00F0BE8087493A687F
:1021D000097891420AD18649DBF8002009789142BA
:1021E00004D1B9F80030003B18BF01232370CEE0C2
:1021F000012B40F0D5800023D1E0682001F0FCF9EC
:10220000012800F0D380D8F800007A4A03681278D9
:102210005B692178984708B1012D12D1764B1E7861
:10222000AEB93146792001F007FA744B1E700EE00A
:102230003378012BE7D16C4A1278002AE3D123705E
:10224000E1E701216D4B7920197001F0F5F96C4E31
:102250003378022B07D1684B1B7823B1694B186880
:102260000368DB6898473378012B02D9033B012BC5
:102270000AD8644F38680368DB68984733781BB91D
:1022800038680368DB689847042D2BD15A4B1E78B9
:102290001EBB7E2001F0B0F90546392001F0ACF9F3
:1022A00085420CDB862001F0A7F905463B2001F0B2
:1022B000A3F98542DFBF01224B4B26701A70524BA7
:1022C000186803689B68984700210EF04BFB20B10B
:1022D000002301222370444B1A704C4B586BFFF7BC
:1022E000F9FA26E0012DF8D100223F4B67201A7041
:1022F00001F082F9022817D16A2001F07DF9064623
:102300006B2001F079F9424B0546986802F049F8D4
:1023100001460446D32001F08FF9AE420BDCA64201
:10232000DBDCA54205DA0AE0682001F065F9022845
:10233000E2D0BDE8F88FA642CFDBA542F9DD334BF2
:10234000586BFFF7C3FAF4E7324FDFF8D8903B68D9
:102350003BB1D9F80020013B01323B60C9F80020B5
:1023600043B900235520237001F046F94FF49673CA
:1023700043433B60D9F80030B3F5967F07D1002383
:10238000C9F80030BAF80030013BAAF800303378C1
:10239000002B7FF42DAF144B1B780BB90123237056
:1023A000672001F029F901287FF427AF692001F0A7
:1023B00023F9174B8146586801F0F3FF07460146A1
:1023C000D22001F039F9B945BFF632AF002336E724
:1023D00014000020C8290020D4290020782A0020D9
:1023E000E9290020EA290020E829002042260020CF
:1023F000E02600209C2A0020882800206C2600204F
:10240000BC2800201C00002000000020B430002068
:10241000003100207C2A00200C0000206C2A0020C3
:1024200040260020F0280020FEE700000C2838B5E8
:1024300010D80C2819D8DFE810F0D000D300E50040
:102440001800D900D600DF001800E800E800E80016
:10245000E800E8004B2800F0CC8000F2B28037287A
:1024600000F0DB80442800F0CA801E2001F0C4F890
:1024700040B1002001F0C0F8082803D000211E2040
:1024800001F0DAF8132001F0B7F8664D664C2860C9
:10249000142001F0B1F82060152001F0ADF868605B
:1024A000162001F0A9F86060172001F0ADF85F4D2B
:1024B0005F4C2860182001F0A7F820602E2001F062
:1024C000A3F85C4B2168186028680EF055FA50B1EB
:1024D000594917202960594D256001F0BBF829465C
:1024E000182001F0B7F8192001F08EF8544B554C24
:1024F0001860292001F088F8534B18602A2001F059
:1025000083F8524B18602C2001F07EF8504B186075
:10251000212001F071F84F4B18601B2001F074F876
:102520004D4B18601F2001F06FF84C4B18602B20AA
:1025300001F06AF84A4B18601A2001F065F8494B1F
:102540001860052001F058F8042001F055F8464BBA
:1025500018702378012B22D1522001F04DF8434B03
:102560001860512001F048F8414B1860502001F0EC
:1025700043F8404B18604F2001F03EF83E4B186086
:10258000532001F039F83D4B1870542001F034F815
:102590003B4B1870552001F02FF83A4B1880402023
:1025A00001F02AF82070552001F026F84FF49673B8
:1025B0004343354A136008F09FF9BDE8384008F0FE
:1025C000D1B9612805D85E287FF64FAF00F02EFE06
:1025D0004BE771380428F9D947E7FEF7B9FF44E71C
:1025E000FEF74EFF41E7FEF74DFE3EE7FEF790FE99
:1025F0003BE7FEF7FDFF38E7FEF7BCFE35E7FEF7E9
:10260000F1FE32E7FEF70EFF2FE7204C206804F0C2
:1026100081FE606804F07EFE27E704F063FC04F0AE
:102620004FFC22E7BC2E0020B42E0020D02E00202C
:10263000982E0020A02E00200080BB440000C8423D
:10264000D42E0020E9290020DC2E0020E02E0020DE
:10265000EC2E0020902E0020E82E0020A42E00203A
:102660009C2E00208C2E0020BC280020782A0020E0
:102670006C2A0020D4290020C829002042260020EE
:10268000E0260020402600207C2A00207C28002014
:10269000014B186800F044BFC02A002000B589B083
:1026A00003A804F09FFC28B1DDF815300193DDF894
:1026B0001930029304F011FC4FF400400CF04AFA78
:1026C0000499A1F58473012B05D8044B01AA18685D
:1026D00003681B69984709B05DF804FB1C000020E3
:1026E00008B500200CF092FD104B1A6801323B2A0D
:1026F0001A600F4A05D911680131116019683C3917
:10270000196013683B2B0B4B05D91968013119600F
:1027100011683C3911601A68172A06D906490A68F7
:1027200001320A601A68183A1A6008BD782A002037
:102730006C2A0020D4290020C8290020F0B5ADF66D
:102740008C2D00F0B9FB00F0E7FC0022C349C4481F
:1027500001F068FE0122C149C24801F063FE012276
:10276000C149C24801F05EFE0222BC49C04801F0E6
:1027700059FE0322B949BF4801F054FE0522B7496A
:10278000BD4801F04FFE0422B449BC4801F04AFEA6
:102790000B22B249BA4801F045FE04232022B94970
:1027A000B94801F0AEFB04238022B649B74801F0D6
:1027B000A8FB04234FF40042B549B64801F0A1FB41
:1027C00004231022A849B44801F09BFB04230822EB
:1027D000A549B24801F095FB0125072380229F49B6
:1027E000AF4801F08EFB07230422AE49AE4801F04A
:1027F00088FB07234FF40042A249AC4801F081FB5B
:1028000007234FF480429F49A94801F07AFB072330
:102810004FF400529B49A74801F073FB07234FF484
:1028200000729849A44801F06CFB07234FF48072B2
:102830009449A24801F065FB07234FF48062914957
:102840009F4801F05EFB07234FF400628D499D48CD
:1028500001F057FB0723402280499B4801F051FBC0
:1028600007234FF480728A49984801F04AFB0723F6
:102870004FF400727949964801F043FB07234FF467
:1028800080727649934801F03CFB07234FF4805255
:102890007C49914801F035FB0523082281498F4886
:1028A00001F02FFB052310227E498D4801F029FB02
:1028B000052320227B498B4801F023FB072340227C
:1028C0007849894801F01DFB072308226D49874894
:1028D00001F017FB072304226A49854801F011FB28
:1028E00007234FF480526049824801F00AFB072316
:1028F0004FF480426B49804801F003FB072301221B
:1029000059497E4801F0FDFA0723802260497C483E
:1029100001F0F7FA072340225D497A4801F0F1FA05
:10292000042340225749784801F0EBFA042310228F
:102930005449764801F0E5FA002380225949744849
:1029400001F0DFFA01F0BCFC72494FF000700CF0AE
:1029500031FA00F06FFB00F09FFB05F039FA00F050
:102960000BFB00F037FB00F061FCD820FFF75EFDA9
:102970005648FEF7AFFF6048FEF7ACFFC4AC00233B
:10298000654A6649009539A800F006FF0DF26C57BC
:10299000002302222046624905F052FC02226149CE
:1029A0002B46384605F04CFC5F4B0F2004935F4BE1
:1029B0005F4E05935F4B069300F01EFE2A460028EB
:1029C0000CBF214639460DF5F96005F085F90DF586
:1029D000F962214619A808F0C7FE032119A808F0DA
:1029E000E1FE204604A9C6E9004704F067FC04A9FB
:1029F000384604F063FC504B0DF5F9621A604F4BFA
:102A00000A201A6000F0F8FD56F820700E2000F041
:102A1000F3FD07AC56F82010494808F0C7FD04F054
:102A200061FA04F04DFA4FF496424649204609F007
:102A30009BFD454B1C600FACFEF78AFDFEF720FDA9
:102A4000FEF720FCFEF764FCFEF794FCFEF7D0FDD9
:102A5000FEF7C8FCFEF7E6FC78E000BF001001407E
:102A6000942D0020982D0020000C0140C42C002043
:102A7000B42C0020B82C0020882D00208C2D0020A4
:102A8000902D002000140140C42B0020942C002025
:102A900000080140442C0020D42B0020E42B00200F
:102AA0004C2C0020001801401C2C0020FC2B002086
:102AB000042C00200C2C00209C2C0020A42C002096
:102AC000842C00207C2C00208C2C0020142C002036
:102AD000EC2B0020F42B0020CC2B00205C2C0020C1
:102AE000642C00206C2C00203C2C00202C2C00207E
:102AF000342C0020DC2B0020242C0020BC2B0020B8
:102B0000B42B0020AC2B0020AC2C0020742C002017
:102B1000542C0020C0004000841E010800480040E2
:102B20000064004000680040340B0108B117000841
:102B30007C2800206D16000824300020FC2900208D
:102B4000482A002000380140C42900201C492046A2
:102B500000F090FC1B4B2A4620461B491C6000F0ED
:102B6000A9FC0A222046194900F0A4FC6422204650
:102B7000174900F09FFCC8222046164900F09AFC35
:102B8000702000F039FDA84202D1384602F02AF93F
:102B90000421772000F050FD0021782000F04CFD4A
:102BA0004FF0000439A88DF80F4000F0ABFF1E9BDA
:102BB000002BF7D10DF10F011AA806F00DFBF1E77C
:102BC00000080040C02A002029120008E11B00086C
:102BD000DD1800084921000810B50024604B614A47
:102BE0001C741A60604B614A1C721A60DC721C73A0
:102BF0005F4A604B60481A601C72DC721C735F4A4B
:102C00005F4B1A605F4B604A1A6007F06BFE5F4BC8
:102C10005F4A1C621A601C775E4A5F4B5F481A600D
:102C20005F4B604A1A60604B604A1A60604B614AB1
:102C30001A60614B614A1A60614B624A1A60624BCA
:102C4000624A1A60624B634A1A60634B634A5C755E
:102C50001A60DC82624A634B1A60634B634A1A60F3
:102C6000634B644A1A60644B644A1A60644B654A59
:102C70001A60654B654A1A6004F004FB644B654AB0
:102C800065481A6007F060FC644B654A65491A6044
:102C9000654B664A66481A60664B674A1A60674B1E
:102CA000674A1A60674B684A1A60684B684A1A603C
:102CB000684B694A1C721A60684B694A1A60694B12
:102CC000694A1A60694B6A4A1A606A4A6A4BC2E9E1
:102CD000024413600023136153619361D361674A17
:102CE0001160674A6749C2E904441160C2E90644B9
:102CF000136253629362D3626349644A1160644908
:102D0000C2E90244C2E904441483D36113625362EA
:102D10009362D3621363536391635E4A5E49936027
:102D2000D460136153619361D36113625362936200
:102D3000D362136353639363D36313641160574B7C
:102D4000574A1A60574B584A1C731A60574B584AD7
:102D50001A6009F003FCBDE8104056480BF042BB76
:102D600078260020942A01089C260020201F0108B4
:102D7000681F0108B8260020442900201C210108F2
:102D80008C260020D4260020642101082029002060
:102D9000E420010858240108542A00209C2800201F
:102DA00070260020582901084C270020842901089A
:102DB000442700202C2B0108EC290020680B010877
:102DC000D8290020940B01084C2A0020B0290108C2
:102DD000F4290020B0280108002A0020282A010830
:102DE00060280108B82A0020CC29002034280108D6
:102DF000E0290020002B0108B02A0020142D010832
:102E0000702A0020AC21010864260020440C01082F
:102E100044260020C00B010870280020B82900209B
:102E2000E42D0108642D0108E4260020200C01088F
:102E30005C29002060270020DC2A0108542700209C
:102E4000402D01084C260020E42B010858260020C4
:102E5000682C01088C2A0020C02B0108EC260020D9
:102E60007C0C01088C280020802D0108202A0020DD
:102E7000E40B0108282A00200C2A0108182A002047
:102E8000C0280020F0290108C82D01087C29002055
:102E90000000FA4300270020102E0108802A00209D
:102EA000000C0108A02A0020742A0108F82600203E
:102EB000440B0108F428002008B50CF0AFF80220FC
:102EC0000CF084F82A4B2B4A40F202301A600CF0C6
:102ED000EBF840F203300CF0E7F84FF441700CF0DF
:102EE000E3F840F205300CF0DFF840F206300CF069
:102EF000DBF840F292300CF0D7F840F291300CF051
:102F0000D3F840F20E300CF0CFF840F20B300CF05A
:102F1000CBF84FF460700CF0C7F840F281300CF041
:102F2000C3F840F282300CF0BFF84FF420700CF080
:102F3000BBF840F209300CF0B7F840F286200CF0F4
:102F4000B3F84FF440700CF0AFF840F299300CF049
:102F5000ABF840F29A300CF0A7F840F28E300CF04B
:102F6000A3F8BDE8084040F28F300CF09DB800BFD8
:102F70000CED00E00003FA0573B50024134D234661
:102F8000224620212846CDE900440CF0ADF9214627
:102F900028460CF0A1F90E4E28460CF08FF9284671
:102FA0000CF095F930464FF42043022203210BF038
:102FB000D1FE30464FF48043012221460BF0CAFE79
:102FC000284602B0BDE870400CF06CB900380040F3
:102FD000000C014073B50024144D4FF080514FF0A8
:102FE00000700BF0E7FE2346224620212846CDE95B
:102FF00000440CF079F90E4E28460CF05FF9284693
:103000000CF065F930464FF4A053022203210BF077
:10301000A1FE30464FF40063012221460BF09AFED8
:10302000284602B0BDE870400CF03CB9003C0040BE
:103030000010014010B5164C042320460222032143
:103040000BF088FE0823012220460021A4F5444409
:103050000BF080FE20460F490CF004FB20460821AF
:103060000CF014FB204600210CF019FB20460C212B
:103070000CF021FB204600210CF017FB204600211C
:103080000CF01FFB2046BDE810400CF020BB00BF39
:103090000008014020A1070008B511200CF0B0FB8A
:1030A000F02111200CF0BAFB10200CF0A9FBF0214C
:1030B00010200CF0B3FB1E200CF0A2FB00211E2000
:1030C0000CF0ACFB14200CF09BFBE02114200CF066
:1030D000A5FB13200CF094FBE02113200CF09EFBC9
:1030E00028200CF08DFB4FF400400BF029FD01214E
:1030F0004FF400400BF008FD06494FF400400BF080
:103100002FFD03200CF07CFBBDE8084020210320AC
:103110000CF084BB0018014008B54FF22341032096
:103120000CF0A6F800200CF045F800200CF06EF82A
:10313000BDE8084000200CF04BB80000022210B59A
:10314000174C11464FF4007316480BF003FE20464F
:103150000CF012F900232022194620460CF0E5F865
:10316000204620210CF00DF90722204600210CF00A
:103170000CF9002120460CF00DFA20460CF064FA00
:1031800020464FF4C87200210CF04EFA20464FF44E
:1031900088610CF0F8F82046BDE810400CF0E7B864
:1031A000002C01400018014008B5022303211A46F3
:1031B0001D480BF0CFFD4FF080400CF0DDF80023F0
:1031C0004FF080401A4619460CF0AFF800214FF03E
:1031D00080400CF0D6F84FF080400CF0AFF84FF084
:1031E00080400CF0BFF88F214FF080400CF0CBF8FE
:1031F00002214FF080400CF0F2F9062202214FF03C
:1032000080400CF0C2F802214FF080400CF0C2F96F
:103210004FF08040482202210CF006FABDE8084039
:103220004FF080400CF0A3B800080140612038B591
:1032300000F0E2F9102808D1022201231146874844
:103240000BF088FD002425460DE0612000F0D4F944
:10325000112840F092800222012311467F480BF092
:1032600079FD00240125602000F0C6F9102840F007
:10327000998002228023114679480BF06BFD5F2074
:1032800000F0BAF9102840F0AE8002224023114627
:1032900073480BF05FFD73480CF06EF80021714825
:1032A0000CF051F86F480CF049F8062200216D48E7
:1032B0000CF06BF8062202216A480CF066F8062230
:1032C000042168480CF061F8002166480CF023F9ED
:1032D000022164480CF01FF9042162480CF01BF92C
:1032E000002160480CF031F902215E480CF02DF904
:1032F00004215C480CF029F900215A480CF04AF9E5
:10330000022158480CF046F9042156480CF042F9C5
:10331000002D40F08980002C40F08680722000F063
:103320006BF901464F480CF02EF8732000F064F959
:10333000214602464B480CF077F9742000F05CF906
:103340000221024647480CF06FF9752000F054F94D
:103350000421024643480CF067F9012141480CF072
:1033600078F9712000F048F901463E480CF009F860
:10337000BDE838403B480BF0FABF612000F03CF953
:10338000122808D102220123114634480BF0E2FC36
:103390000124002567E7072301223049324800F065
:1033A000B0FD4FE7602000F027F9112807D1022275
:1033B000802311462A480BF0CDFC01255FE76020F1
:1033C00000F01AF9122807D102228023114624485E
:1033D0000BF0C0FC012452E7072380222049234838
:1033E00000F08FFD4BE75F2000F006F9112807D1B0
:1033F0000222402311461A480BF0ACFC01254AE793
:103400005F2000F0F9F8122807D10222402311466C
:1034100013480BF09FFC01243DE70723402210498D
:10342000134800F06EFD36E741F68C110D480BF0A5
:10343000AAFF012200210B480CF0F6F8012202211C
:1034400008480CF0F1F80122042106480CF0ECF8D1
:10345000012104480CF0FDF80A2186E7000C014028
:103460000008014000040040BC2B0020B42B0020C9
:10347000AC2B002038B50C460546016208460BF01F
:103480005DFF20460BF069FF084B20461968084B8A
:10349000B1FBF3F101390BF074FF20464FF6FF71D9
:1034A0000BF071FF002328466B6238BD0422002018
:1034B000A0860100F8B5436A0446032B0E46154664
:1034C0002ADC006A0BF058FF144F636A0122F95C92
:1034D000206A0BF05AFF636A0022F95C206A0CF044
:1034E000A3F80221636A05EB850505EB850503F169
:1034F0000802AD0044F82360994024F81250206A75
:103500000BF006FF0021206A0CF0A9F8206A0BF0EE
:103510002EFF636A01336362F8BD00BFBC0C010873
:103520002DE9F04704460025022700F1100800F1BC
:103530001809636A07FA05F6AB4208DC3146206ACF
:103540000BF0F0FE0135042DF3D1BDE8F0873146D4
:10355000206A0BF0E1FEB8B1206A0CF07EF8236A15
:1035600038F81510343353F8252082460A4443F8BE
:10357000252054F825309847206A0CF06EF8A0EB0F
:103580000A0029F81500D9E7636AAB42DADCD5E70F
:10359000002170B500F11003466A4FF47A750846B1
:1035A0008E4209DD1C461A8924886A43B2FBF4F274
:1035B000023310440131F3E770BD00001C2210B546
:1035C000084C02FB0042D4688C4209DC12698A4232
:1035D00006DB054A42F82010FEF728FF002010BD48
:1035E000FF20FCE78403002024000020014B53F857
:1035F0002000704724000020024B53F820004011A7
:10360000704700BF2400002008B5054B53F8200088
:103610000CF0C0FF4FF074510DF010F808BD00BF62
:1036200024000020034B53F820004011431E584251
:103630005841704724000020024B490143F82010F4
:10364000704700BF24000020014B43F82010704752
:103650002400002010B5044608464FF084410CF0C9
:10366000EDFF0DF0C7F9024B43F8240010BD00BF79
:103670002400002070B506460024074D31466868D6
:1036800000F098FB08B9E0B270BD0134D82C05F108
:103690001C05F3D1D920F7E7840300200023064A54
:1036A000118B814201D1D8B270470133D82B02F17E
:1036B0001C02F5D1D9207047840300201C22024B44
:1036C00002FB0030704700BF840300200023064A3D
:1036D0000649108B10B1506941F823000133D82BF3
:1036E00002F11C02F5D17047840300202400002061
:1036F000014B1954704700BFD02A0020024B1A5CBE
:1037000011431954704700BFD02A0020024A135CAD
:1037100023EA010313547047D02A0020014B185CA0
:10372000704700BFD02A00201C22024B02FB003051
:10373000807E704784030020004870474F2C0300B0
:10374000024B1A68024BC3F8602D7047F42000202A
:1037500084030020202180680BF0DFBF80680BF01D
:10376000D4BF10B504464368597A58680BF0A3F9E2
:10377000636804F12A02597A58680BF0AEF963685D
:103780008022597A58680BF0B8F96368BDE8104098
:10379000597A58680BF086B970B5026140F201128F
:1037A0000D464C498282016001210022817580F81A
:1037B000281004460421C0E9062280F82020426235
:1037C0009DF81020856080F82920434A03734260E9
:1037D00062681068A84206D1404A146062683BB92A
:1037E000D068138A06E01C3201396260F0D1F3E739
:1037F0005069138B022203210BF0ACFA28464FF4D8
:10380000E1310BF02FFF284608210BF03FFF28463F
:103810004FF400510BF043FF28460C210BF04BFFF7
:10382000284600210BF041FF002128460BF049FFFC
:1038300028460BF05CFF28460BF05EFF63682E1DE8
:10384000197A58680BF0BEF86368197A58680BF05B
:1038500020F963683246197A58680BF035F96368C5
:103860000022197A58680BF0E8F863680022197A88
:1038700058680BF0D5F86368197A58680BF0EAF8C5
:103880006368597A58680BF09DF863683246597A34
:1038900058680BF019F963680022597A58680BF0E0
:1038A000CCF863680022597A58680BF0B9F863685D
:1038B000597A58680BF0CEF863685868597A0BF05B
:1038C000F1F82046FFF74DFF28460BF000FF204699
:1038D00070BD00BFA01D0108281D0108A82B0020F5
:1038E00038B5437D0D4604694BB1216839B128468E
:1038F00000F060FA08B10834F7E7236803B9002440
:10390000204638BD38B504460D4663680222197A50
:1039100058680BF06EF818B994F82830002BF4D0E2
:103920006368197A58680BF0C6F86368AAB2197A06
:1039300058680BF0E2F894F82020636804EBC21298
:10394000197A5868AA320BF0C8F863680222197A0B
:1039500058680BF048F86368197A58680BF0A2F8B9
:1039600094F82030B3FA83F35B0984F82030002305
:1039700084F8283038BD837D10B5044623B9BDE8EE
:10398000104080680BF0A8BE90F82030426ADB013E
:10399000234413440A2902F1010083F8AA1001D03C
:1039A0007F2A06D101462046FFF7ACFF0023636261
:1039B00010BD6062FCE7802A30B428BF80220C462C
:1039C0000021914209D090F82030655C00EBC313D0
:1039D0000B4483F8AA500131F3E730BCFFF792BFE4
:1039E00038B5054608460C4600F0FBF9214602466C
:1039F0002846BDE83840FFF7DEBF000010B504469A
:103A0000084600F043FA00F028FA237D227B834227
:103A1000636811D1012161755AB158691B8B03216B
:103A200002220BF097F92046BDE810400949FFF744
:103A3000D7BFD8681B8AF2E7002161753AB158698F
:103A40001B8B0122BDE8104000210BF083B9D86820
:103A50001B8AF6E7C81C010830B5044685B0084645
:103A600000F014FA0378302B25D0322B134D18BFF9
:103A70004FF46125637DA3B10A22294601A800F015
:103A8000BFF920460E49FFF7ABFF20460D49FFF76F
:103A9000A7FF204601A9FFF7A3FF20460A49FFF729
:103AA0009FFF2946A0680BF0DDFD0021A0680BF008
:103AB000F6FD05B030BD4FF4E135DBE710552200CF
:103AC000C71C0108CD1C0108D927010810B5044600
:103AD000084600F0DBF9037823B1303B18BF01231F
:103AE00084F8293094F829302BB104492046BDE8E8
:103AF0001040FFF775BF0249F8E700BFDC1C010862
:103B0000E61C01082DE9F04143680446597A5868DB
:103B10000AF0ECFF0546C0F1800710B92046FFF718
:103B200020FE94F82930A06853B1E369BB4207DA5C
:103B30005A1CE261234493F82A100BF0CDFDF0E704
:103B400008210BF0EAFD10B1A0680BF0DEFD002F9C
:103B500040F38D80651B95F8A9300A2B01D00D2B01
:103B600072D16368597A58680AF0A5FF012F37D0DF
:103B70000022E31904F12A0683F82A202021304686
:103B8000E26100F035F990F800800546B8F1000FC9
:103B90002BD10A21304600F02BF9054684F8AA8182
:103BA0002B7823B90D21304600F022F90546002379
:103BB00030462B702F49A36100F0FCF80546D0B9C0
:103BC000204604F5D571FFF719FFA36993B3A068E8
:103BD0000BF09FFDA36920465B6804F5D5719847FB
:103BE0002046BDE8F041FFF7BCBD411C04F5D5708F
:103BF00000F0EEF8D4E730461F4900F0DBF8054648
:103C000028B9204604F5D571FFF726FFDDE73046D9
:103C10001A4900F0CFF8054628B9204604F5D571B9
:103C2000FFF754FFD1E731462046FFF759FE3D46E6
:103C3000A061CAE7012DD3DD637D002BD0D02046E3
:103C40000F49FFF7CDFECBE794F82A30212B0ED198
:103C5000A36963B12046FFF784FD0023E361A369F4
:103C6000204604F5D5715B68BDE8F0411847BDE812
:103C7000F08100BFF11C0108FC1C0108051D0108B2
:103C80000A1D0108034BC1B21B681A681846126866
:103C9000104700BFA82B002004F018B907B5064B49
:103CA00006491A68043B1B6809680091044900F042
:103CB000F9FA03B05DF804FBF0F7FF1FE8F7FF1F08
:103CC000A41D010805F088BAF7B5144800F0D8FA29
:103CD000134800F0D5FA0025124FEEB23046FFF738
:103CE000EDFC04463046FFF71FFD68B93046FFF78C
:103CF00015FDC3070DD46369384600936168D4E9A4
:103D0000032300F0BDFA04E03046FFF70DFD012863
:103D1000ECD00135D82DE0D103B0F0BDAD1D0108C8
:103D2000C41D0108E01D0108F8B50C4900F0BAFAFD
:103D300000240B4FE6B23046FFF7C0FC0546304684
:103D4000FFF7ECFCC30704D4D5E90112384600F0B4
:103D500097FA0134D82CEDD1F8BD00BFF31D01084E
:103D6000151E01082DE9F041054600240A4FE6B270
:103D70003046FFF7A3FCD0F804803046FFF736FC4E
:103D80000134034642463946284600F08BFAD82CC7
:103D9000EDD1BDE8F08100BF1F1E010810B504463B
:103DA000FFF794FC2046BDE81040014900F07ABAC4
:103DB000281E0108431E013913F8010F11F8012FC5
:103DC00010B10AB19042F7D0801A18BF0120704795
:103DD000013911F8013F0BB90370704700F8013B3E
:103DE000F7E7034600201A5C02B970470130FAE792
:103DF0000346184613F8012B0AB18A42F9D17047DD
:103E000000290346F0B520DA2D2003F8010B01202C
:103E100049421D46C71A91FBF2FC02FB1C113031CE
:103E200029702C46BCF1000105F101051E4605EB89
:103E30000700F0DC00232B70B4420BD933782278D2
:103E400006F8012B04F80139F6E704D1302241705D
:103E500002700120F0BD0020DBE730B503782D2B88
:103E600011D14FF0FF34013000210A25431E01E03B
:103E700005FB012113F8012F303AD0B20928F7D9F8
:103E800004FB01F030BD0124EEE7000010B5134C37
:103E900002780146A2F10A03DBB2162B00F1010001
:103EA00017D9A2B10846FFF79CFF0C4C0138084413
:103EB0008142024609D2137801380A3BDBB2162B45
:103EC00003D824FA03F3DB07F2D400235370084627
:103ED00010BD24FA03F3DA07DAD4E3E7090040005F
:103EE000002310B5934200D110BD51F8234040F893
:103EF00023400133F6E7013A00D2704740F8041B33
:103F0000F9E72DE9F0411C4600238371631E0E463C
:103F1000174601608280082B12D8DFE803F00F16E5
:103F20001327180C1B0525000124032539463046AC
:103F30000AF04AFF10E0002400250DE00123837100
:103F40000224F9E70123022483710025EEE701240E
:103F50008471F1E7002403253B462246294630467A
:103F6000BDE8F0410AF0F6BE0224F4E70124E3E7DD
:103F70000029B4BF4FF0FF32012270B5642401FB69
:103F800002F3591103F01F03634301324FEA631434
:103F9000054604BF2D2305F8013B06460A222846A4
:103FA000FFF72EFF2E23092C2B54D8BF302305EB0F
:103FB0000002CEBF501C5370901C21460A22FFF70E
:103FC0001FFF304670BDF0B503782D2B17D14FF091
:103FD000FF36013000244FF00A0C02E018460CFBBB
:103FE0000454034613F8012BA2F13005EFB2092F58
:103FF000F4D9AAB98C40224406FB02F0F0BD012698
:10400000E8E78B4003EB650393FBF5F30CFB05F549
:104010001A4410F8013F303BDFB2092FF1D9E9E72C
:104020000A250022AC46F4E72DE9F843141E0646A3
:104030000D4624DD0022A95C09B10132FBE7A24252
:10404000ACBF0C46A41A13F0020F0CBF2027302778
:10405000DB071ED4A0465FFA87F9B8F1000F10DC29
:1040600024EAE473E41AA3EB050808EB050915F844
:10407000011B81B1336830461B689847F5E720275C
:10408000E6E73368494630461B68984708F1FF3831
:10409000E3E70023E7E72546FFB2002D06DD33689E
:1040A000394630461B689847013DF6E7002CACBF07
:1040B00009EB040009F10000BDE8F8832DE9FF4792
:1040C0000746DDE90C8A15461C4651B930234246A5
:1040D000ADF8003069465346FFF7A6FF04B0BDE8CF
:1040E000F08723B10A2A2DD100292BDA4942002377
:1040F0008DF80D300E9B0DF10D023A3BB1FBF5F042
:1041000005FB1016092E88BFF61830368D4202F1D5
:10411000FF3902F8016C17D964B1B8F1000F16D05D
:104120001AF0020F13D03B682D2138461B689847C0
:1041300008F1FF385346424649463846FFF774FFB8
:104140002044CBE70024D2E701464A46D6E72D2398
:10415000002409F8013CA2F10209EBE70846FFF749
:1041600091BD00002DE9F04307460E461446002598
:104170004FF00A08DFF804918DB03378002B78D027
:10418000252B6FD17378002B73D0252B06F10102FC
:1041900067D02D2B0ABF01230023B21C164612F84C
:1041A000011B302902D143F00203F7E70022304619
:1041B00010F8011BA1F1300C5FFA8CFEBEF1090F63
:1041C00003D8064608FB02C2F1E7732908D121682B
:1041D0000434002908BF49463846FFF725FF0DE0A3
:1041E00064290ED161202146CDE9013001230092DE
:1041F0000A22384609680434FFF760FF0544013697
:10420000BBE7782907D121466120CDE90130009232
:1042100000231022EDE7582902D121464120F4E77E
:10422000752906D161202146CDE901300092002395
:10423000DEE766290AD1216808A8CDE90423043401
:10424000FFF796FEDDE9042308A9C5E76329D6D167
:10425000216804348DF81C1000218DF81D1007A969
:10426000BAE716463B6838461B68317898470135EF
:10427000C5E728460DB0BDE8F08300BF041F010864
:104280000FB407B504AA52F8041B054B6846CDE9E4
:104290000032FFF767FF03B05DF804EB04B070472E
:1042A000141F01080EB403B503AA52F8041B0192AF
:1042B000FFF758FF02B05DF804EB03B07047000051
:1042C00038B52A4C2A4D20460AF010F920460AF04B
:1042D00012F920460AF019F920460AF011F90121D5
:1042E00020460AF0EEF820460AF0B4F820460AF01C
:1042F000CBF820460AF0DBF81E4A082120460AF0D7
:1043000009F920460AF049F920464FF460210AF0E5
:10431000B1F828460121184A0AF0D6FB28460121A7
:10432000164A0AF0DAFB28464FF4807201210AF09F
:1043300084FB28464FF4806201210AF071FB602261
:10434000284601210AF0D9FB284601210AF082FB08
:10435000284601210AF087FB284601210AF0A2FB2A
:104360002046BDE838400AF00EB900BF00240140E5
:1043700000000240BC2C00204C240140C82C00202E
:1043800003468B42084606DD914203DC9342A8BFF8
:104390001346184670479342FBDC9142A8BF104673
:1043A000704773B56E46056805F13004F03534F892
:1043B000102C34F8201C34F8300CFFF7E1FF3034B7
:1043C000AC4226F8020BF2D1BDF80230BDF8000075
:1043D0001844BDF804301844BDF806301844C0F342
:1043E0008F0002B070BD000008B50D4B98420BD095
:1043F00003F5806398420BD0A3F5006398420BD17C
:10440000072909DCC8B208BD012905DC0831F9E734
:10441000052901DC0A31F5E70AF024F81020F2E75B
:10442000000C0140012370B593400C461546002254
:10443000064611469BB220460AF08CFC29462046CF
:10444000FFF7D2FF3368034A9B1A034AC3F34F03B3
:10445000D05470BDC82C0020BC2C00200D4B0E4A3F
:10446000991C13600D4A11600D4A191D11600D4A07
:10447000991D11600C4A03F1080111600B4A03F108
:104480000A0111600A4A03F10C011160094A0E3356
:1044900013607047C82C0020942D0020982D002018
:1044A000C42C0020B42C0020B82C0020882D002023
:1044B0008C2D0020902D0020114A124B30B553F85E
:1044C000213052F821401946A342A8BF2146026874
:1044D00002F1C8058D4206DBA342B8BF234603F1B3
:1044E000C804A24202DD0160002030BD8A4202DA27
:1044F00001600120F9E79A42C8BF0360F9E700BFF5
:10450000BC2E0020B42E0020012970B516D80C4B0B
:1045100053F821500B4B53F82160B5420ED0401B8D
:104520000CF038F80446701B0CF034F801462046B5
:104530000CF038F904490CF081F870BD0020FCE75C
:10454000BC2E0020B42E00200000C8422E4B2DE9C6
:10455000F0411D680446014628460CF02BFA00B9CC
:104560002C462A4B21461D6828460CF005FA00B956
:104570002C46DFF8A4802146D8F80050464628464D
:104580000CF004FAE8B1002120460CF013FA2146A1
:1045900080B128460CF00EFA50B91D4B2846196818
:1045A0000BF044FF214605460CF004FA00B92C46F6
:1045B00034600EE028460CF0FDF90028F8D1154BC8
:1045C000ECE70027204639460CF0EAF920B1C8F89C
:1045D00000402046BDE8F081394628460CF0EAF953
:1045E00008B1C8F800703568214628460CF0C4F9B7
:1045F0000028DDD1074B284619680BF015FF21462E
:1046000005460CF0B9F9D1E7DC2E0020E02E0020A1
:10461000A42E0020E82E0020802E002038B5114A5C
:10462000114B1468196804FA01F318440F4B001B6E
:104630001B6808411060181A0BF0ACFF0C4B19688E
:104640000BF0FCFF0B4904460CF0B4F900B1094C27
:10465000094B21461D6828460CF0ACF900B12C46E8
:10466000204638BDA82E0020D82E0020942E0020F1
:10467000CC2E00200000C842E42E0020F8B50546EC
:104680007D200F461646FEF7B7FF394604462846FA
:104690000CF07CF920BB4FF0804138460BF0C6FE91
:1046A00029460CF087F9E8B1A1B27D2041F0100154
:1046B000FEF7C2FF114D3468002120460CF070F95E
:1046C00090B1294620460CF057F900B92C462846EF
:1046D0000B4934600CF050F9003818BF0120F8BDC8
:1046E000074DE8E70025E6E705F100473946204693
:1046F0000CF060F90028EAD13C46E8E700004842A7
:104700000000C8422DE9F047064623200C46FEF77C
:104710007BFF4F4DDFF8509128602420FEF774FF97
:10472000C9F800007D20FEF767FFD5F800A0074616
:10473000002150460CF03EF9002837D000213068A7
:104740000CF02EF9DFF82481424DBFB2002842D090
:10475000514620460BF068FE3F490BF06FFF0021E9
:1047600004460CF009F900B10024C8F80040D5F85F
:104770000080214640460CF01DF9C8B12146404654
:104780000CF0FAF850B9354B404619680BF04CFE66
:10479000214680460CF0F0F800B944462C6047F002
:1047A00001017D20FEF748FF2B683360BDE8F087EC
:1047B0003768404639460CF0DFF850B1274B404689
:1047C00019680BF033FE214607460CF0F3F800B1F0
:1047D00027462F60E8E72046D9F800100BF024FEAA
:1047E0001F490BF02BFF002104460CF0E3F800B149
:1047F0000024C8F80040D5F80080214640460CF05F
:10480000BBF898B1214640460CF0D4F850B9154B8E
:10481000404619680BF00AFE214680460CF0CAF8A3
:1048200000B944462C6047F00201BAE737684046B9
:1048300039460CF0BFF80028CBD00A4B4046196827
:104840000BF0F2FD214607460CF096F8BFE700BFDB
:10485000C82E0020A42D00200000A040A42E00207F
:1048600000006040E82E0020C42E0020A82D00206B
:104870002DE9F0470D465A4C5A49064620680BF080
:10488000DDFE29460BF0D2FD4FF076510BF0D6FE3F
:1048900020602520FEF7B8FE534DDFF85C912860BC
:1048A0002620FEF7B1FEC9F800007D20FEF7A4FE29
:1048B000D5F800A00746002150460CF07BF80028F0
:1048C00048D0002130680CF06BF82468DFF82C81A8
:1048D000464DBFB200283FD0214650460BF0A4FD04
:1048E000002104460CF048F800B10024C8F800404C
:1048F000D5F80080214640460CF05CF8B0B1214666
:1049000040460CF039F850B9394B404619680BF065
:104910008BFD214680460CF02FF800B944462C60F0
:1049200047F008017D20FEF787FE11E0376840461A
:1049300039460CF021F850B12D4B404619680BF068
:1049400075FD214607460CF035F800B127462F606B
:104950002B683360BDE8F0872046D9F800100BF0D3
:1049600065FD002104460CF025F800B10024C8F8CC
:104970000040D6F80090214648460BF0FDFFD5F8E0
:104980000080414690B120460BF0F6FF50B9194B1C
:10499000404619680BF04AFD214680460CF00AF8A3
:1049A00000B944462C6047F00401BBE748460BF0D1
:1049B000E3FF88B1414620460BF0FCFF50B90D4B98
:1049C000404619680BF030FD214607460BF0D4FF36
:1049D00000B93C462C60BBE7C5F80090B8E700BFC3
:1049E000F02E002000007041AC2E00209C2D0020F5
:1049F000A42E0020E82E0020B02E0020A02D0020A4
:104A000070B505460F4B2E68186801EB0014241A88
:104A10002411002130461C600BF0CCFF88B10A4BFA
:104A20001B681C1B48BF0334A41024EAE4700BF07D
:104A3000B1FD0446014630460BF0BCFF00B93446D8
:104A40002C6070BDF42E0020902E0020F8B50D4B88
:104A500004461A780C4F0132D2B2312A88BF0022A4
:104A60001A701E78094D386855F826100BF0DCFCDA
:104A700021460BF0DBFC0649386045F826400BF078
:104A800091FEF8BD742E0020782E0020AC2D002061
:104A900000004842000000002DE9F74F80469620B4
:104AA00089460192FEF7A8FD04469E20FEF7A4FD6C
:104AB000064684EAE470A0EBE4700BF06BFD864CD4
:104AC0000746D4F800B059460BF0AEFC002105466D
:104AD0000BF052FF08B105F10045804B2946D3F891
:104AE00000A050460BF048FF002846D059463846F3
:104AF0000BF060FF514600283BD058460BF096FC67
:104B00002060002E00F0E18020680BF073FF019B15
:104B10000446002B33D0632840F3D7800BF03AFDD6
:104B20006F4B0646D3F8008041460BF025FF002866
:104B300040F0CB806B4B30461F686B4B39461D688D
:104B40000BF01AFF88B140460BF054FF064628468A
:104B50000BF050FFA41B444338460BF04BFF801B67
:104B600094FBF0F00BF016FD0546284603B0BDE8B7
:104B7000F08F58460BF058FCC2E72760C1E7494662
:104B80004046FFF7C1FC594B05461F6801463846B1
:104B90000BF010FF00285CD1394628460BF044FC8E
:104BA0003946054652480BF03FFC014650480BF091
:104BB000F9FD29460BF042FD05464E4B28461D6087
:104BC000FFF744FF0146074628460BF02DFC4A49F3
:104BD00080460BF0D1FE30B94FF07E5140460BF0CD
:104BE000E9FE00B93D46632C444F0ADD20460BF038
:104BF000D1FC3B4B8046D3F800B059460BF0BCFECD
:104C000048B300233B6028460BF0F4FE012E044617
:104C100044D13B4938680BF011FD0BF0EBFE394BEA
:104C20000546374918680BF009FD0BF0E3FE431BFE
:104C30005C43642094FBF0F028440BF0ABFC0BF0D9
:104C4000EDF823A3D3E900230BF040F90BF098FB18
:104C50008AE70025B1E7234B4046D3F800A02A4B52
:104C60005146D3F800900BF087FEA0B158460BF0E8
:104C7000C1FE804648460BF0BDFEA4EB0804444349
:104C800050460BF0B7FEA0EB080094FBF0F00BF0E1
:104C900081FC3860B7E7C7F80090B4E72220FEF740
:104CA000ABFC08B900233B60154938680BF0C6FC23
:104CB0000BF0A0FE154B0546114918680BF0BEFC21
:104CC0000BF098FE401B4443B3E700254DE700BFBF
:104CD0009A9999999999B93F7C2E0020A02E00208D
:104CE000982E0020D02E00208C2E0020EC2E0020AC
:104CF0000000C842842E0020000080BF882E0020C3
:104D000000002041DC2E0020D42E00209C2E00200C
:104D1000024B00BF013BFCD1704700BF00127A007C
:104D200010B50446002240F2215102F0D6FA0022CA
:104D300040F22251204602F0D0FA002240F22351E4
:104D4000204602F0CAFA002240F22451204602F026
:104D5000C4FA002240F22551204602F0BEFA002299
:104D600040F22651204602F0B8FA002240F22751C4
:104D7000204602F0B2FA2046BDE8104000224FF46F
:104D8000A56102F0AABA0000002313B5054A40F25B
:104D90001141CDE9002303686A465C680823A047F7
:104DA00002B010BD340001003222002313B5CDE95A
:104DB000002303686A465C6840F211410823A0475B
:104DC00002B010BD002313B5054A40F21141CDE9F0
:104DD000002303686A465C680823A04702B010BD40
:104DE000340101002DE9F7430026174B04461E70DD
:104DF0002025FFF7C9FF4FF04209FFF789FF4FF465
:104E0000C84823688DF800508DF8019001966A46D5
:104E100040F2114120465F68ADF802800823013559
:104E2000B847EDB2FFF774FF2046FFF7BDFFFFF76D
:104E30006FFF292DE5D12046FFF7C4FFFFF768FF7C
:104E400003B0BDE8F08300BF241B0020D0F802208F
:104E5000014B1A60704700BF082F0020D0F80220D5
:104E6000014B1A60704700BF0C2F0020D0F80220C1
:104E7000014B1A60704700BF102F0020D0F80220AD
:104E8000014B1A60704700BF142F0020054A138899
:104E9000013313800A22D0F8023093FBF2F3024A66
:104EA00013607047182F0020F82E0020D0F8022041
:104EB000014B1A60704700BF002F0020D0F802207D
:104EC000014B1A60704700BFFC2E0020D0F8022072
:104ED000014B1A60704700BF042F002003466FF497
:104EE000A46213440846072B15D8DFE803F0040634
:104EF000080A0C0E1012FFF7A9BFFFF7AFBFFFF7AC
:104F0000B5BFFFF7BBBFFFF7C1BFFFF7CFBFFFF7CD
:104F1000D5BFFFF7DBBF7047016170474161704744
:104F2000007A7047007A70470023C372704710B54B
:104F300004460022616008464FF4987102F0CDF9F2
:104F400000224FF43F71606802F0C7F900224FF46D
:104F50009061606802F0C1F960680022BDE810400D
:104F60004FF4D07102F0B9B92DE9F04105230120C9
:104F70000E460A21BCB00222CDE90030CDE9031073
:104F80000590089014200F25CDE909021927032068
:104F9000CDE90652CDE90C704FF01E0C0B920E922B
:104FA000119004222320CDE90FC2CDE91202149200
:104FB000282017922D220024CDE91503CDE91823CE
:104FC0004FF0320E07224FF037081A9306233C2089
:104FD000CDE91BE31D930294CDE91E822093239219
:104FE000082341224625CDE92423CDE92103269338
:104FF0000923CDE9275329934B235027CDE92A31A3
:105000000B234FF0550CCDE92D732F930C234FF04C
:105010005A0ECDE930C332930E234FF05F08CDE92D
:1050200033E3359311231022CDE936836423CDE990
:10503000382313236D462746A046CDE93A332C91F9
:1050400028680BF0A7FA31460BF0A0FC08B1D5E9AF
:1050500001870134142C05F10C05F1D141466C2077
:10506000FEF7EAFA39466D203CB0BDE8F041FEF7A4
:10507000E3BA10B404686468A44610BC604700003A
:10508000037E73B50446002B50D09E20FEF7B4FA81
:10509000324B00284CD10321314A20731170E12298
:1050A0001A701B782F4D8DF800300C238DF80130CD
:1050B0008F238DF802302B7860688DF80330F02351
:1050C0008DF8043003686A464FF4E9715E68052381
:1050D000B0472B7836201033DBB2ED2B08BF0D2301
:1050E0002B70FEF789FA204BC0B21A78824215D095
:1050F0004FF40952ADF8002000228DF802204FF045
:10510000FF32019230BB30228DF8032018706A46BE
:10511000082340F292516068FFF7ABFF23688A20B2
:105120001D6AFEF771FA01462046A84702B070BD1D
:10513000421C06D1012202212273094A1170D22297
:10514000AEE70128ADD1032208212273044A117071
:105150007822A5E70828D9D13122D5E72A1B0020DB
:10516000291B00201F2F0020202F00200B7803F088
:10517000010343720B78C3F3800303720B78C3F30C
:10518000001383728B78C3F3C0034376704700002B
:1051900008B54B7808781B0203F4706318440AF0D2
:1051A0002BFE09A3D3E900230AF090FE0BF0E8F8E8
:1051B00007490BF043FABDE8084001469720FEF787
:1051C00049BA00BFAFF300809A9999999999B93F6C
:1051D0002B121F3F0B78842B03D10121D720FEF720
:1051E0002BBA812B01D10021F8E770474B78323B75
:1051F00018BF0123037670470B46B3F53F7F114676
:105200000FD006DCB3F5987F07D0B3F5D07F06D07A
:105210007047B3F5906F06D07047FFF7A7BFFFF751
:10522000B7BFFFF7D7BFFFF7E1BF000003682DE965
:10523000F74F5B6B04460F4698476A4E002800F014
:10524000C7809620FEF7D8F940F2ED23984240F34C
:10525000BC809620FEF7D0F9800080B2337843F00E
:1052600050038DF8013007238DF8023094239DF808
:105270000120ADF806309DF80230AA321A449DF89C
:105280000630ADF804001344C2B203EB10208318BB
:1052900018460025DBB203EB2020AA2108236A462A
:1052A0008DF8000060688DF80350FFF7E2FEAF4212
:1052B00014BF64210421DFF844A14FF00F0B9AF8CA
:1052C0000000DFF83C9100F5FC7253181A46DBB27F
:1052D00003EB12238DF800304EF22103ADF80230BB
:1052E00041F621736A468DF80100ADF8043060681C
:1052F00008238DF80710A821DFF808818DF806B083
:10530000FFF7B7FE99F800306A468DF8003098F83C
:105310000030A9218DF801304DF67973ADF80230D7
:10532000314B606801930823FFF7A3FE2F4F304BEA
:10533000397818788DF80610421802F5E4731A4689
:105340008DF80000FF20DBB203EB1223BA216A467E
:105350008DF801008DF8053060680723ADF802B0C4
:105360008DF80450FFF785FE3378224A01333370FD
:1053700013782148013313709AF8003039780133DB
:105380008AF8003099F800300131013389F8003093
:1053900098F800303970013388F800300378013311
:1053A000DBB25C2B03700DD1BE231370E92389F8A7
:1053B00000304D230370802335708AF8005088F840
:1053C00000503B7003B0BDE8F08F40F6B83045E7C1
:1053D000337843F030038DF80130FE238DF802302E
:1053E000842344E71C2F00201DC7E021281B002038
:1053F000291B0020251B0020271B00201A2F00201E
:10540000261B00201B2F0020037E10B5044643B14D
:10541000A920FEF707F901462046BDE81040FFF736
:1054200005BF10BD73B506467820FEF7E5F80128E4
:105430000CBF49F69C6300244FF0860006BF602431
:10544000ADF80430ADF80440FEF7DEF8014621481F
:105450000AF0EAFF204905460BF0ACFA002835D1E6
:1054600028460BF0C7FA642343434FF4FA7093FBCA
:10547000F0F032300BF08EF818490AF0D7FF3C23D9
:10548000174D8DF800300BF0DBFA2B786A461C4381
:10549000C3238DF8033048F2CD234FF4E8718DF823
:1054A0000100ADF80630706808238DF80240FFF760
:1054B000E0FD0C4A297813788B4209D10133DBB225
:1054C0000F2B08BF00232B7002B070BD0648D6E733
:1054D0001170F9E70000C842004003440000404258
:1054E0001D2F00201E2F002000001643037E73B5E1
:1054F0000446A3B148F261230093C37A63B903253C
:1055000060686A46036840F232315E680223B04741
:10551000013DF5D10123E3722046FFF783FF02B07E
:1055200070BD0161704741617047007A7047007A31
:1055300070470023C372704710B5044600226160B3
:1055400008464FF4987101F0C8FE00224FF43F71F5
:10555000606801F0C2FE00224FF49061606801F0C3
:10556000BCFE60680022BDE810404FF4D07101F02D
:10557000B4BE2DE9F041052301200E460A21BCB03E
:105580000222CDE90030CDE90310059008901420E7
:105590000F25CDE9090219270320CDE90652CDE9EF
:1055A0000C704FF01E0C0B920E92119004222320CF
:1055B000CDE90FC2CDE912021492282017922D22B4
:1055C0000024CDE91503CDE918234FF0320E072250
:1055D0004FF037081A9306233C20CDE91BE31D93B7
:1055E0000294CDE91E82209323920823412246256E
:1055F000CDE92423CDE9210326930923CDE92753BF
:1056000029934B235027CDE92A310B234FF0550C1A
:10561000CDE92D732F930C234FF05A0ECDE930C3F3
:1056200032930E234FF05F08CDE933E33593112316
:105630001022CDE936836423CDE9382313236D4648
:105640002746A046CDE93A332C9128680AF0A2FFFC
:1056500031460BF09BF908B1D5E901870134142CD0
:1056600005F10C05F1D141466C20FDF7E5FF394607
:105670006D203CB0BDE8F041FDF7DEBF037E73B5A1
:105680000446002B50D09E20FDF7B6FF324B002879
:105690004CD10321314A20731170E1221A701B781A
:1056A0002F4D8DF800300C238DF801308F238DF8AD
:1056B00002302B7860688DF80330F0238DF80430C9
:1056C00003686A464FF4E9715E680523B0472B789A
:1056D00036201033DBB2ED2B08BF0D232B70FDF706
:1056E0008BFF204BC0B21A78824215D04FF409527A
:1056F000ADF8002000228DF802204FF0FF32019219
:1057000030BB30228DF8032018706A46082340F21F
:1057100092516068FFF7ADFC23688A201D6AFDF78F
:1057200073FF01462046A84702B070BD421C06D157
:10573000012202212273094A1170D222AEE7012808
:10574000ADD1032208212273044A11707822A5E703
:105750000828D9D13122D5E7301B00202F1B00208B
:10576000272F0020212F00200B7803F00103437224
:105770000B78C3F3800303720B78C3F300138372B7
:105780008B78C3F3C003437670470000000000002D
:1057900008B54B7808781B0203F4706318440AF0CC
:1057A0002BFB09A3D3E900230AF090FB0AF0E8FDE4
:1057B00007490AF043FFBDE8084001469720FDF77E
:1057C00049BF00BFAFF300809A9999999999B93F61
:1057D0002B121F3F0B78842B03D10121D720FDF71B
:1057E0002BBF812B01D10021F8E770474B78323B6A
:1057F00018BF0123037670470B46B3F53F7F114670
:105800000FD006DCB3F5987F07D0B3F5D07F06D074
:105810007047B3F5906F06D07047FFF7A5BFFFF74D
:10582000B7BFFFF7D7BFFFF7E1BF000003682DE95F
:10583000F74F5B6B04460F4698476A4E002800F00E
:10584000C7809620FDF7D8FE40F2ED23984240F342
:10585000BC809620FDF7D0FE800080B2337843F004
:1058600050038DF8013007238DF8023094239DF802
:105870000120ADF806309DF80230AA321A449DF896
:105880000630ADF804001344C2B203EB10208318B5
:1058900018460025DBB203EB2020AA2108236A4624
:1058A0008DF8000060688DF80350FFF7E2FBAF420F
:1058B00014BF64210421DFF844A14FF00F0B9AF8C4
:1058C0000000DFF83C9100F5FC7253181A46DBB279
:1058D00003EB12238DF800304EF22103ADF80230B5
:1058E00041F621736A468DF80100ADF80430606816
:1058F00008238DF80710A821DFF808818DF806B07D
:10590000FFF7B7FB99F800306A468DF8003098F839
:105910000030A9218DF801304DF67973ADF80230D1
:10592000314B606801930823FFF7A3FB2F4F304BE7
:10593000397818788DF80610421802F5E4731A4683
:105940008DF80000FF20DBB203EB1223BA216A4678
:105950008DF801008DF8053060680723ADF802B0BE
:105960008DF80450FFF785FB3378224A01333370FA
:1059700013782148013313709AF8003039780133D5
:105980008AF8003099F800300131013389F800308D
:1059900098F800303970013388F80030037801330B
:1059A000DBB25C2B03700DD1BE231370E92389F8A1
:1059B00000304D230370802335708AF8005088F83A
:1059C00000503B7003B0BDE8F08F40F6B83045E7BB
:1059D000337843F030038DF80130FE238DF8023028
:1059E000842344E7242F00201DC7E0212E1B002024
:1059F0002F1B00202B1B00202D1B0020222F0020FE
:105A00002C1B0020232F0020037E10B5044643B139
:105A1000A920FDF707FE01462046BDE81040FFF72C
:105A200005BF10BD73B506467820FDF7E5FD0128DA
:105A30000CBF49F69C6300244FF0860006BF60242B
:105A4000ADF80430ADF80440FDF7DEFD0146214815
:105A50000AF0EAFC204905460AF0ACFF002835D1DF
:105A600028460AF0C7FF642343434FF4FA7093FBC0
:105A7000F0F032300AF08EFD18490AF0D7FC3C23D2
:105A8000174D8DF800300AF0DBFF2B786A461C4377
:105A9000C3238DF8033048F2CD234FF4E8718DF81D
:105AA0000100ADF80630706808238DF80240FFF75A
:105AB000E0FA0C4A297813788B4209D10133DBB222
:105AC0000F2B08BF00232B7002B070BD0648D6E72D
:105AD0001170F9E70000C842004003440000404252
:105AE000252F0020262F002000001643037E73B5CB
:105AF0000446A3B148F261230093C37A63B9032536
:105B000060686A46036840F232315E680223B0473B
:105B1000013DF5D10123E3722046FFF783FF02B078
:105B200070BD4069704708B5B0F908000AF032FD51
:105B300008BD08B5B0F90C000AF02CFD08BD000046
:105B4000014B1878704700BFC12F002000000000F3
:105B500038B51D48FEF725FC04461C48FEF721FC1D
:105B6000054620460AF048F913A3D3E900230AF0BA
:105B7000ADF913A3D3E9002309F0F2FF0AF000FC0A
:105B8000044628460AF038F90BA3D3E900230AF0AB
:105B90009DF90BA3D3E9002309F0E2FF0AF0F0FB23
:105BA0000546014620460AF005FF00B92C4620466E
:105BB00038BD00BFAFF300801213371BE91495BF47
:105BC000988F7B2556484C40882D00208C2D002036
:105BD00070B506460D461A4C0721204608F0F2FE25
:105BE00020460721174A08F06FFF3246204607215A
:105BF00008F073FFAAB22046072108F07EFF204676
:105C0000072108F046FF2046072108F023FF204621
:105C10000022072108F011FF20460022072108F08A
:105C2000FFFE20464FF48052072108F0ECFE20468C
:105C3000072108F037FFBDE87040034809F05CBD5C
:105C400000000240044400400044004038B50546CE
:105C5000194C0621204608F0B5FE20460621174AB9
:105C600008F032FF20460621154A08F036FFAAB296
:105C70002046062108F041FF2046062108F000FFDB
:105C80002046062108F0E6FE20460022062108F004
:105C9000D4FE20460022062108F0C2FE2046002243
:105CA000062108F0B0FE2046062108F0FBFEBDE804
:105CB0003840044809F01BBD000002400444004085
:105CC000322F00200044004038B504462F20FDF755
:105CD00093FC00B20228E0811ED1344D344A2B7867
:105CE000002B33D141F65831B4F90C00884201DD64
:105CF0000121117011782F4A8B4249D00123137072
:105D00002D4B93F900002D4B10B918780130187005
:105D10001878042823D1E181B4F90E30012B08D181
:105D20002748FBF7D7FD2748FBF7D4FD2648FBF7AC
:105D3000D1FDB4F90E30C3B92148FBF7CBFD2148A2
:105D4000FBF7C4FD2048FBF7C1FD0EE0012BD1D1CC
:105D5000B4F90C10B1F5FA6FCCDA0021C9E70528C7
:105D600003D12970002119701170B4F90E30032B82
:105D70000DD19E20FDF740FC013011480CD1FBF7FE
:105D8000A9FD1048FBF7A2FD0F48FBF79FFD38BDAA
:105D9000E38100231370BFE7FBF79CFD0948FBF785
:105DA00099FD0948FBF796FDF1E700BF2F2F002072
:105DB000302F0020BF2F00202D2F0020312F00205A
:105DC000CC2B0020EC2B0020F42B00200000000046
:105DD0002DE9F74F074612200E46FDF70DFC864BC6
:105DE000C4B21B78012B40F0B1803846FFF76CFF3E
:105DF000304682490AF022FC81490AF0D3FC0AF0BD
:105E0000F9FD804DDFF8149295F900A0A9F8000083
:105E100050460AF0BFFB31460AF010FC09F0FEFFC5
:105E200073A3D3E900230AF051F80AF0A9FA7649DE
:105E300080460AF003FC72490AF0B4FC0AF0DAFD6D
:105E4000724B734A19784E469B46914638621080D1
:105E5000D1B1BAF1000F17DD1F20FDF7D5FB01907E
:105E600095F900000AF096FB019B824669491846A5
:105E70000AF0E4FB014650460AF0D6FA0AF0BAFDF1
:105E800040B200282DDB287095F90030632B2ADD05
:105E9000B7F90E30DBB9002140460AF06DFDB0B114
:105EA000B9F9000009F0A8FF00225B4B0AF00EF8D8
:105EB0000AF01EFAA9F80000B6F9000009F09CFFEC
:105EC0000022554B0AF002F80AF012FA308014BB97
:105ED0003B6A002B02DA514B00221A8003B0BDE866
:105EE000F08F00232B709BF80030002BD0D11F20A7
:105EF000FDF78AFB824695F900000AF04BFB5146FC
:105F00000AF094FA0AF076FD40B26428CABF64230E
:105F100028702B70BCE7012C01D13D4BDCE7022C33
:105F2000D9D0032CDAD140463D490AF043FD08B9E7
:105F30003080D3E740460AF05DFDA0F1320341F224
:105F400017105843322390FBF3F0F1E7022B1BD1DB
:105F50002D4930460AF072FB29490AF023FC0AF069
:105F600049FD2B4A03B2138013EB83032B4A48BF2E
:105F700003339B10386213800CB90028AAE7012C68
:105F8000CBD0022CAAD1A6E7032BA7D11E493046BD
:105F90000AF054FB1A490AF005FC0AF02BFD1C4AD2
:105FA00003B2138013EB83031C4A48BF03339B10D7
:105FB000154638621380002CDFD0012CADD0022CA6
:105FC00089D0032C8AD1304615490AF0F3FC08B970
:105FD000288083E730460AF00DFDA0F1320341F23C
:105FE00017105843322390FBF3F0F1E7AFF3008032
:105FF0007B14AE47E17A843FBE2F002000B888456D
:106000000000C8422D2F002000C05A45BF2F00209D
:106010002A2F00200000A0400000E03F282F002091
:106020000000484210B57820FDF7E6FA08B902F002
:10603000A1FF7820FDF7E0FA012843D12248FBF7C1
:106040002BFC0146AF20FDF7F7FA2048FBF724FCB4
:106050000146B020FDF7F0FA1D48FBF71DFC014694
:10606000B120FDF7E9FA1A48FBF716FC0446174879
:10607000FBF712FC84F00104E3B280F00104E4B207
:106080001148640044EA8304FBF706FC64B280F024
:106090000100204340B20F4C0628207003D100219C
:1060A000B420FDF7C9FA2378052B03D10121B420D0
:1060B000FDF7C2FA3020FDF79FFABDE8104080B22C
:1060C00002F058BF10BD00BF5C2C0020642C0020E3
:1060D0006C2C00202E2F0020034B1B78012B01D1AC
:1060E000FFF7A0BF704700BFBE2F0020002270B591
:1060F0000A4C134626468D1E954205DD14F8010B09
:10610000013203449BB2F7E7314411F8012C705D72
:1061100040EA0220C31A5842584170BD322F002075
:10612000002070B5084C034622468D1E854205DDD1
:1061300014F8016B013033449BB2F7E753550A441E
:106140001B1202F8013C70BD321B0020F8B5BA4D9D
:1061500004462B780E2B3ED8DFE813F00F00160014
:106160003B003E007C00C000C200E100E3001501DE
:1061700088019401AD01AF01E0016420FFF766FDE5
:10618000AE48FBF7A7FB21E0AD4CAC48FBF79EFB0C
:1061900023787BB902220721AA4808F02AFCA8B17B
:1061A00007210222A74808F01EFC5021A648FFF74D
:1061B0000FFD0BE05021A548FFF70AFDA44B5B78CB
:1061C000002B00F0DB812378013B23702B78013317
:1061D00000E003232B70F8BD6421FFF787FF9C4E7E
:1061E0009C4F38B90021A5206181A1813970FDF74C
:1061F00023FA29E002220621924808F0FAFB00283F
:10620000F0D0022206218F4808F0EDFB01233B70FD
:10621000B6F85230053B03EBD3735B10238196F93C
:106220002A000AF0B7F9606196F956000AF0B2F94F
:10623000A061F279B37943EA0223638196F82020C2
:10624000F37F43EA0223A381002386F8623086F8B5
:106250006330BBE7804E9820B6F90010FDF7ECF9EB
:106260006189A289784B0A44712112B292FBF1F242
:106270007A491A70B1F900200978880083F84B0038
:1062800090115242C2F307229A711A7372784942EE
:10629000DA7683F82120782283F83F20EC2283F8F5
:1062A00040206C2283F841206B22C9B25971D97207
:1062B000317883F84C00997683F8201020465021DD
:1062C00083F84220FFF72CFF654A1388642B8EBFAA
:1062D000002301339BB2138000237BE778204DE736
:1062E000574C5648FBF7F2FA2378052B0ED90222B9
:1062F0000721544808F07DFB00283FF467AF0721D1
:106300000222504808F06FFB64214FE76421554892
:1063100001FB0300FFF75CFC2378013355E70823FA
:1063200058E77821FFF7E2FE494E4A4F00283FF434
:1063300059AF02220621434808F05BFB00283FF4D6
:1063400051AF022206213F4808F04DFB01233B706C
:10635000B6F86430053B03EBD3735B10238196F9E9
:1063600014000AF017F96061B6F856000AF012F945
:10637000A061F279B37943EA0223638196F827207A
:1063800096F826305DE7344E9820B6F90010FDF7F8
:1063900053F9324A2C4B1178307852785971D972AE
:1063A00071789A711A739877D977B6F90020266AAE
:1063B000002E37DD02EBD27252101A771212987645
:1063C000D9765A77752183F84A10122183F84B1039
:1063D0006021402283F84C10252183F848200422B4
:1063E00083F84D10522183F8492083F84F208922E9
:1063F00083F84E101C4983F8562083F858200A78F9
:1064000020460132D2B20A70D20748BF93F85E200C
:106410004FF0640144BF013283F85E20FFF780FE35
:106420000523D7E6CED002EBD27252109A76121222
:1064300018775977DA76C5E7C02F00203C2C00206A
:10644000311B002000000240321B00200C200108FC
:10645000322F0020C12F00202A2F0020282F0020BB
:10646000C22F0020111E00202C2F00207820FDF7C5
:10647000C3F801281CBF0022414B4FF08C0018BF0D
:106480001A707BE63E4C3F48FBF720FA2378062B38
:106490000ED9022207213C4808F0ABFA00283FF44D
:1064A00095AE07210222384808F09DFA69217DE661
:1064B000692136482CE70D238CE68C21FFF716FE68
:1064C000334E40B3022206212F4808F092FA10B34F
:1064D000022206212C4808F086FA012333702D4E43
:1064E000B6F875305B10238196F914000AF052F863
:1064F0006061B6F819000AF04DF8A061F27AB37A3B
:1065000043EA0223638196F82C2096F82B3043EA65
:106510000223A3815AE60023337057E61E4E9820CB
:10652000B6F90010FDF788F81C4B2046B3F900209F
:106530001B4B5242D1B2C2F307229A711A73B6F9B9
:1065400000205971DA77121283F820209A7ED972CE
:1065500083F82520DA7E692183F82620782283F8C3
:106560004F20EC2283F85020102283F8512027225C
:1065700083F85220FFF7D4FD0A232BE6012324E6FB
:10658000311B00203C2C0020000002409B1B0020FF
:10659000C12F0020322F00202A2F0020282F00207A
:1065A000321B002038B5037F04468B420D460AD0CB
:1065B00051B15920FDF720F808B9FCF7BFFDFCF7F1
:1065C000F3FD0123237738BD4FF0804008F0D4FE5F
:1065D0002577F8E708B50121FFF7E4FF0A4B1A78A1
:1065E000042A04D805221A700022084B1A7064236A
:1065F0000749084A11F8010B013B02F8010BF9D1D8
:106600000222054B1A7008BDC02F0020311B00204C
:10661000A81F0108321B0020BE2F002008B5012151
:10662000FFF7C0FF064B1A78042A04D900221A701B
:106630000122044B1A700122034B1A7008BD00BFDF
:10664000C02F0020311B0020BE2F0020012108B5E3
:10665000FFF7A8FF0A4B0B491A78092A9CBF0A22A8
:106660001A700022084B1A706923084A11F8010BAE
:10667000013B02F8010BF9D10322054B1A7008BD4A
:10668000C02F002070200108311B0020321B002089
:10669000BE2F00200021FFF785BF01817047000059
:1066A00008B508460AF0A6F9A6230F38434341204F
:1066B00093FBF0F3014A5833138008BDC82F002024
:1066C000A820FCF7AFBF10B5044600226160084661
:1066D00040F2531100F001FE60680022BDE8104056
:1066E00040F2F31100F0F9BD40F25313994210B596
:1066F000044610D1B2F80100A0F5B07009F04AFFCD
:106700004FF0765109F09AFF01469720FCF7A2FF5F
:106710000123E37203E040F2F3139942F8D010BD75
:1067200010B50446C07A10B90348FBF7B5F800234A
:106730002073E37210BD00BFAC2C002008B50248E6
:10674000FBF7AAF808BD00BFAC2C002007B540F24B
:10675000EE22038940F21631934238BF13460522D8
:10676000ADF8002041F65832934228BF13460A2262
:106770009B01B3FBF2F3ADF8023000236A460193AC
:1067800040680823FEF775FC03B05DF804FB0000C9
:1067900013B5154B00241A7801948DF80020134A84
:1067A00012888DF80120C522ADF80220104A117818
:1067B0000131C9B2152994BF11701470127812B941
:1067C00011221A7003E0082A0AD00F2A0AD00823DF
:1067D0006A4640F229314068FEF74BFC02B010BD1A
:1067E0008622EEE7D922ECE7C72F0020C82F002031
:1067F000C62F0020462313B5ADF8043000234068AF
:106800008DF80630036840F23B415C6801AA03231F
:10681000A04702B010BD000007B50D4A40F2455137
:106820001388406801339BB2138000228DF8013039
:106830001B128DF80230074B8DF800208DF80320D5
:1068400001936A460823FEF714FC03B05DF804FBCD
:10685000C42F00207E100018812307B58DF800306A
:10686000B1B1012916D0013116D107238DF80130BD
:106870004FF6FF73ADF80230084B6A46019340F2C1
:106880003F4108234068FEF7F4FB03B05DF804FBCA
:106890000623EBE70523E9E70823E7E70080FFFF8E
:1068A000037B10B50446BBB1FFF750FF2046FFF74E
:1068B0006FFF2046FFF7B0FF2046FFF79BFF032046
:1068C000FCF7B0FE40B19E20FCF796FE41B2204698
:1068D000BDE81040FFF7C0BF10BD01817047704791
:1068E000A820FCF79FBE000008B5084B18689988DF
:1068F0009B792BB108F06DFAB0FA80F0400908BD21
:1069000008F067FA003818BF0120F8E7AC2C002027
:1069100030B51F4A1F4B89B0CDE901231E491F4BDB
:106920001F4CCDE903131F4B1F4D05930023ADF8FA
:106930001930237808AA63F07F038DF818302B688C
:106940004FF4B061134413F81C2C40688DF81B20E1
:1069500013F8182C8DF81C2013F8142C8DF81D201A
:1069600013F8102C13F80C3C8DF81E208DF81F30F6
:1069700006AA0823FEF77DFB2B68013303F003030F
:106980002B602378013303F00F03237009B030BD6F
:106990000F287F281E1000107056F0560C48A7488C
:1069A000CA2F002046902890CC2F002037B540F207
:1069B000EE2203890025934238BF134641F6583230
:1069C000934228BF1346044603819A009B09CDE9F0
:1069D00000554FF420718DF803308DF80420082302
:1069E0006A464068FEF745FB08236A464FF4227169
:1069F00060688DF803508DF80450FEF73AFB03B041
:106A000030BD000008B5034BB3F9000009F0C2FD2A
:106A100008BD00BFD42F002008B5034BB3F9000018
:106A200009F0B8FD08BD00BFDC2F002008B5024BFF
:106A3000188809F0ABFD08BDDA2F002008B5034B1C
:106A4000B3F9000009F0A6FD08BD00BFD82F002053
:106A5000064B1A78064B0AB91A7001E0012AFBD0DE
:106A6000044A126802B91A7018787047D22F0020B1
:106A7000D32F0020E02F002010B5044600226160D3
:106A800008464FF4C87100F028FC00224FF4CD7185
:106A9000606800F022FC00224FF4D271606800F0C0
:106AA0001CFC60680022BDE810404FF4D77100F074
:106AB00014BC00002DE9F34106460846344909F0AC
:106AC000BDFD09F097FF334B01B298201980FCF708
:106AD000B3FD7820FCF790FD0546AA20FCF7A2FD47
