:020000040800F2
:10100000005000206D0F0108690F0108670F0108EB
:10101000670F0108670F0108670F01080000000053
:10102000000000000000000000000000690F01083F
:10103000690F010800000000690F0108690F01082D
:10104000670F0108670F0108670F0108692800088A
:10105000670F0108670F0108670F0108670F010894
:10106000670F0108670F0108670F0108670F010884
:10107000670F0108670F0108670F0108670F010874
:10108000670F0108670F0108670F01084183000817
:101090002183000831830008670F0108670F0108EA
:1010A000670F0108670F0108670F0108670F010844
:1010B000670F0108670F010819280008670F01086A
:1010C000670F0108670F0108670F0108670F010824
:1010D000670F0108670F0108670F0108670F010814
:1010E00025280008670F0108670F0108670F01082E
:1010F000670F0108670F0108670F0108670F0108F4
:10110000670F0108670F0108670F0108670F0108E3
:10111000670F0108670F0108670F0108670F0108D3
:10112000670F0108670F0108670F0108670F0108C3
:10113000670F0108670F0108670F01086D8300083A
:101140004D8300085D830008670F0108670F0108E1
:1011500010B404466468084611461A46234610BC7B
:101160001847836818477047704770477047704743
:1011700041607047704770477047704770477047CD
:1011800070470020704700207047000000487047FB
:101190000000484200207047416070477047704728
:1011A0007047704770470020704741607047704734
:1011B0007047704770477047002070477047416024
:1011C00070470020704770477047704770477047FE
:1011D000002070477047416070477047002070479B
:1011E00070474160704770470846704770477047C6
:1011F0007047704700487047003C1C46416070478C
:10120000704770477047704770474160704770473C
:101210000020704700207047002070470020704772
:101220000020704770477047104B10B5186803686E
:101230001B6898470E4B186803681B6898470D4B4E
:10124000186803681B6898470B4B186803681B688D
:1012500098470A4B186803681B689847BDE8104018
:10126000074B186803689B68184700BF24000020DC
:101270002000002018000020140000201000002092
:101280000800002010B5174C206803689B69984738
:10129000052002F079FA062818D8DFE800F0040AE1
:1012A0000C0E1012200000220F4B1A700F4B2360FF
:1012B0000CE00F4BFBE70F4BF9E70F4BF7E70F4B3A
:1012C000F5E701220E4B23600E4B1A700E4C20687E
:1012D00005F0E8FF6068BDE8104005F0E3BF0B4B88
:1012E000E5E700BF18000020022C0020E02A0020C3
:1012F000D82A0020D02A0020002B0020F82A002025
:10130000B82A0020D82B0020F42B0020F02A00203F
:1013100010B5114C20680368DB699847042002F07F
:1013200033FA042806D8DFE800F003100E12140088
:101330000A4B23600A4C206805F0B4FF6068BDE8E2
:10134000104005F0AFBF074BF3E7074BF1E7074B42
:10135000EFE7074BEDE700BF14000020E82A00206C
:10136000F42B0020B02A0020A82A0020A02A002068
:10137000982A002010B5124C206803685B689847D3
:10138000062002F001FA0138052815D8DFE800F040
:10139000160E0E0310120B4B23600B4C206805F049
:1013A00081FF6068BDE8104005F07CBF074BF3E7A4
:1013B000074BF1E7074BEFE7074BEDE7074BEBE791
:1013C0000C000020B4280020F42B002084280020EA
:1013D00048280020FC270020DC280020BC28002012
:1013E00010B50B4C206803685B689847452002F0F5
:1013F000CBF9084A084B012808BF13462360074C65
:10140000206805F04FFF6068BDE8104005F04ABF56
:1014100008000020E4270020F4270020F42B0020FF
:10142000022010B502F0B0F90138032815D8DFE822
:1014300000F0020E10120A4B0A4C0B4A206813608F
:1014400005F030FF6068BDE8104005F02BBF074B8A
:10145000F2E7074BF0E7074BEEE7074BECE700BF7F
:101460002C290020F42B002010000020142900203B
:101470000829002020290020D827002010B50120AD
:1014800002F082F909280FD8DFE800F0171C2B0EB4
:1014900005091F222528144B144A1A6004E0124A39
:1014A000134B136000229A72124C206805F0FAFE6A
:1014B0006068BDE8104005F0F5BE0B4A0C4B1360A8
:1014C0000122F0E7084B0C4AE7E7074B0B4AE4E739
:1014D000054B0B4AE1E7044B0A4ADEE7024B0A4A96
:1014E000DBE7014B094AD8E720000020F028002064
:1014F000682B0020F42B0020942B00205C2B002074
:10150000442B0020B02B0020782B0020E428002062
:10151000036810B59B68984710F09EFE00240146B2
:101520009C2002F051F92146972002F05BF92146F8
:10153000982002F057F921469A2002F053F92146EB
:10154000BDE810409B2002F04DB9000010B51C4CC6
:10155000206803689B6A9847002002F015F9092863
:101560000FD8DFE800F005080A0E271C2117292BE9
:10157000144B236005E0144BFBE71448206005F092
:1015800033F8134C206805F08DFE6068BDE810400C
:1015900005F088BE0D48206005F03EF8F1E70B48E5
:1015A000206004F0FBFFECE70A4B012223600A4BAA
:1015B0001A70E6E7094BDCE7094BF6E7094BD8E779
:1015C00024000020882A0020082B0020202B002047
:1015D000F42B0020682A0020D82B0020902A00201D
:1015E000B82700208427002010B5154C2068036818
:1015F0001B699847522002F0C7F804280FD8DFE88B
:1016000000F0030608171D000E4B236007E00E4B89
:10161000FBE70E4B0E48196820600BF077FA0D4C73
:10162000206805F03FFE6068BDE8104005F03ABE56
:101630000122094B2360094B1A70F0E7084BE4E7DD
:101640001C000020602A0020542A0020802700204F
:10165000F8280020F42B0020482A0020D82B002056
:10166000402A0020BA2002F0A5B800002DE9F74F6B
:10167000082002F089F8484C54F820100920019104
:1016800002F082F854F820600A2002F07DF854F845
:1016900020500B2002F078F854F820A00C2002F023
:1016A00073F854F820B00D2002F06EF854F8209032
:1016B0000E2002F069F854F82070102002F064F84F
:1016C00054F82080112002F05FF854F8203001997E
:1016D0000093324B18680368DB6A9847304B3146F9
:1016E00018680368DB6B98472E4B594618680368E7
:1016F000DB6998472C4B5146186803681B6A98476A
:101700002A4B4946186803681B699847284B41468D
:10171000186803685B699847264B31461868036868
:101720009B699847394624480AF032F8234B0099C0
:10173000186803685B699847072002F025F80128BC
:1017400002D1284603F06EFB072002F01DF80228A4
:1017500002D1284609F0B0F9072002F015F8032855
:1017600002D1284609F0F8FB072002F00DF8042802
:1017700002D128460DF046F9002240F2016160686E
:1017800005F073FD002240F20161206803B0BDE85E
:10179000F04F05F06ABD00BFF42B002024000020AC
:1017A0002000002018000020140000200C00002061
:1017B0000800002010000020E02700201C0000206E
:1017C00038B540F2DF73984204460D4606D10A460A
:1017D0000146314809F0E4FF002038BD072001F040
:1017E000D3FF012803D12946204603F0F9FB072047
:1017F00001F0CAFF022803D12946204609F09CF9CE
:10180000072001F0C1FF032803D12946204609F033
:10181000D5FB072001F0B8FF042803D12946204654
:101820000DF012F91D4B2A46186821460368DB6843
:1018300098471B4B2A461868214603681B6998473E
:10184000184B2A461868214603681B699847164BAF
:101850002A461868214603681B699847134B2A4695
:101860001868214603681B689847114B2A46186878
:10187000214603681B6898470E4B2A461868214684
:1018800003681B6998470C4B2A4618682146036871
:101890001B689847A0E700BFE02700202400002035
:1018A0002000002018000020140000200C00002060
:1018B00008000020100000201C00002008B503468E
:1018C00099889B7900682BB10EF0A3FEB0FA80F0E6
:1018D000400908BD0EF09DFE003818BF0120F8E752
:1018E00008B50248FFF7EAFF08BD00BF082D002039
:1018F000818800680EF088BE818800680EF086BE80
:101900002DE9F843A44BA54C998818680EF084FE85
:101910000EF08CFEA24BA34F186801F002FF10F0EE
:101920006BFAA14910F070FB0146E42001F05AFF68
:1019300006F07AFA0146832001F046FF812001F08B
:1019400023FF39680646206806F0DCFE072001F018
:101950001BFF2068954D03689B6A98470146B82095
:1019600001F032FF20680368DB6A98470146B62021
:1019700001F038FF07F08EF9206803689B689847EC
:101980008B4B186803689B6898478A4B18680368F4
:10199000DB6898470DF066FB286803689B689847EA
:1019A000854B186803681B699847386803689B680B
:1019B0009847824B186803689B699847804B186862
:1019C00005F0BCFC0DF024F87E4B1B780BB10BF03E
:1019D00019FEAF2001F0D8FE7B4C0028606A80F22F
:1019E000A180FFF785FFEB2001F0CEFE002800F07C
:1019F0009C80AF2001F0C8FE022800F09680AF2046
:101A000001F0C2FE002800F090806069FFF770FFCF
:101A1000C12001F0B9FE0346606C002B00F0898004
:101A2000FFF766FF012E206940F08680FFF760FF18
:101A30002868DFF8988103689B6998470146B020C1
:101A400001F0D0FE286803685B6998470146B12021
:101A500001F0C8FE286803685B6A984710F0CCF96B
:101A60000146C62001F0BEFE2868594D0368DB69B7
:101A7000984701468B2001F0B5FE564BB3201968FC
:101A800001F0A2FE544B1B78012B03D0042B01D094
:101A90002B7823B1D8F8000003689B689847D8F8E2
:101AA0000000DFF83891036899F800105B699847E7
:101AB0000746002843D0012E1EBF0122484B1A7052
:101AC00001232B70A06A474B984205D0FFF7F6FE22
:101AD0000146DD2001F078FE0BF042FD0BF05CFDCD
:101AE000042E01D0012E4ED1B02001F055FE054646
:101AF000E02001F051FE0146284610F08DFB88B32E
:101B0000B02001F049FE0546772001F045FE294648
:101B100010F064FB40B3E06BFFF7EAFE206CFFF7C8
:101B2000E7FE36E0FFF7E8FE5DE76069FFF7E4FEF9
:101B30006EE7FFF7E1FE75E7FFF7DEFE78E72B784B
:101B400033B10146822001F03FFE254B2F701F70FC
:101B5000D8F8000099F8001003689B699847224B59
:101B60001870AFE7E020CCE7772001F015FE1F49A1
:101B700010F08CF8294610F04FFB0028CED0E06B17
:101B8000FFF7BAFECAE7E06BFFF7B6FE206CFFF77F
:101B9000B3FEBDE8F88300BFC82D00202000002060
:101BA000042C002010000020000020412400002010
:101BB000180000200C000020080000201C0000205D
:101BC000F02B0020D82B0020F4310020140000203E
:101BD000012C002028300020EE2B0020EC2B0020D0
:101BE000022C0020F82C0020DB2B00200000A0405D
:101BF0002DE9F04FA62085B001F0C6FD8146812079
:101C000001F0C2FD8E4B0446002840F0EC801A68BB
:101C1000B2EB000A18BF4FF0010AAF201C6001F0C0
:101C2000B3FD07460EF0DCFE06F0CAF8854BDFF880
:101C30001882186803685B689847812001F0A4FD4A
:101C40000128054640F0D8800FFA89F989EAE97041
:101C5000A0EBE97080B206F027FF0021064610F0E5
:101C6000BDFA90B1002001F08FFD04280DD0222094
:101C700001F08AFD002840F0B9808145B8BF4FF0DF
:101C8000FF35BD4218BF06F10046384610F0B4F8E3
:101C9000314610F005F90546D8F8000003685B6886
:101CA0009847D8F8000029460368684E1B69984792
:101CB000BE2001F07FFD002840F0A280306AFFF7CF
:101CC0001BFED8F80000DFF888910368614F1B6A9B
:101CD000984710F0C1FA05B22946A62001F074FD1C
:101CE000082001F051FD59F8200006F005FC012CF8
:101CF00001D0042C08D1386885EAE5710368A1EBAE
:101D0000E5719B6989B29847D7F800B0B020DBF83D
:101D10000030DB69019301F03FFD019B014658460D
:101D20009847386803685B6898474B4B18680368A6
:101D3000DB689847494B186803685B689847042C30
:101D400068D1474B186803685B689847284606F0D7
:101D500057FD8346AA2001F017FD0190172001F0DE
:101D600013FD0290372001F017FD0390282001F0A9
:101D700013FD594610F050FAB0FA80F359465B094A
:101D80000398DD0010F034FADDE90132B0FA80F09A
:101D90009342D4BF00230123400945EA80058820EF
:101DA00045EA831501F0F8FC8346272001F0F4FC96
:101DB0000146584610F030FA002808BF45F00105EA
:101DC0008420294601F000FD162001F0DDFC019081
:101DD000052C00F2A080DFE814F045008B01BD0067
:101DE0003F015A01C7014FF0000A16E7B9F1000F91
:101DF000A8BF4FF0FF3544E706F034FF002550E759
:101E0000BB2001F0D7FC00287FF458AF306AFFF701
:101E10006FFD56E7052001F0B7FC032804D1104BF5
:101E2000186803685B689847012C8FD1E32001F0A4
:101E3000ABFC411C01F00F01E32001F0C5FC85E77C
:101E4000000000201400002024000020F4310020B5
:101E5000F42B0020200000200800002010000020AB
:101E6000180000200023954A95481370954A137076
:101E7000FFF742FDB069FFF73FFDBAF1000F03D055
:101E80000221AF2001F0A0FC3868DFF83C82036833
:101E90005B69984700238D4A1370B8F80030002B17
:101EA00051D18B48FFF728FDF069FFF725FD8948E0
:101EB000FFF722FD15F0410F01D0019BB3B1386847
:101EC00003689B6B984788B1386803685B6B9847D9
:101ED00060B101237D4A02241370784A13701923DC
:101EE000A8F800300EF07CFD7B4B18607B4B1B7814
:101EF0006BB115F0480F0AD11923A8F800300EF085
:101F00006FFD754B0224186001236E4A1370214641
:101F1000812001F059FC3868714D03685B6B98476C
:101F2000002840F049816D4B1B78002B40F0448124
:101F3000002C40F041812B88002B40F09481B06C44
:101F4000FFF7DAFC3EE1013B9BB2A8F80030002B22
:101F5000B0D1A6E7DFF884B19BF80030002B59D14F
:101F6000D8F800205F4B9A4202D05548FFF7C0FCDA
:101F7000F069DFF85481FFF7BBFCB069FFF7B8FCEC
:101F8000B8F80030002B50D15248FFF7B1FCDFF811
:101F90003CA19AF800305BB115F0450108D1192336
:101FA00086208AF80010A8F80030012401F00CFC0B
:101FB0009BF8003053B115F04C0107D14FF4FA7380
:101FC0008620A8F80030042401F0FEFB3D4B1B786E
:101FD00023B19BF80030002B08BF0024374D2B782D
:101FE00053BB022C93D10EF0FBFC8346152001F06D
:101FF000CBFB394B1B681844834588D9019B1BB325
:102000002B780BB300238AF8003019230124A8F899
:1020100000307CE7072001F0B7FB0028A8D1D8F8F2
:102020000020314B9A42A3D19FE7013B9BB2A8F815
:102030000030002BABD1A7E7386803685B6B98478B
:102040000028CED1002462E72248FFF755FC0B2080
:1020500005F0BCFE03245AE700221C4B1D481A70F1
:10206000FFF74AFC174B1B7823B11C4B1B78002B46
:1020700008BF0024114B1B78002B3FF448AF386891
:1020800003685B6B9847002808BF00243FE70E4AAF
:10209000138853B90E48FFF72BFC104B1B784BB934
:1020A0009622124B05241A8004E0013B9BB2138058
:1020B000002BEFD005F0ACFE29E700BFDA2B0020A3
:1020C000802D0020D92B002028000020DC2B0020B0
:1020D000D02D0020882D00207C270020022C0020FD
:1020E00078270020902A0020082B0020C42B0020F5
:1020F000694A138843BB6948FFF7FAFB6848FFF752
:10210000F7FB8120012101F05FFB05F081FE3868BB
:1021100003685B6B984700287FF4F9AEA62001F0B6
:1021200033FB00284FF0A60014DA01F02DFB4042EB
:1021300031283FF7ECAEAF2001F026FB68B99622BC
:10214000584B05241A80E2E6013B9BB21380002B1A
:10215000D7D1D0E701F018FBEAE7AF2001F014FB7C
:1021600002287FF4D4AEEAE74C48FFF7C1FB4C48A5
:10217000FFF7C2FB0221AF2001F026FB494A13887A
:102180007BB9902001F000FB002811DA902001F0CB
:10219000FBFA404204283FF7BAAEFA223E4B1A80BF
:1021A00050E7013B9BB21380002B7FF4B0AEE8E711
:1021B000902001F0E9FAEDE74FF496732B80B06CB4
:1021C000FFF796FB2988C520003918BF012101F0CF
:1021D000FBFA012C344D52D1532001F0D5FA0128DD
:1021E00048D1F068FFF784FB2E68562033689F685B
:1021F00001F0CAFA0FF000FE01463046B8472D68DC
:1022000054202B68DE6801F0BFFA012281B2284613
:10221000B047072001F0B8FA022807D10A2001F0E0
:10222000B3FA59F82010204608F098FC072001F076
:10223000ABFA032807D10A2001F0A6FA59F82010BA
:10224000204608F0EDFE072001F09EFA042820D178
:102250000A2001F099FA59F82010204605B0BDE88F
:10226000F04F0CF0F9BB013B9BB22B80002B3FF4ED
:1022700066AEA4E7DD2001F09DFA0028B1D1F06838
:10228000FFF73AFB0022286811460368DB6898478D
:10229000BFE705B0BDE8F08F28000020D02D00205A
:1022A000802D0020C42B00201C0000202DE9F047C9
:1022B000812001F069FA0546894BDFF828921868F9
:1022C0000368DB689847042D04D1D9F8000003683F
:1022D000DB68984706F06CFD834BDFF810A21968A5
:1022E000D820834F01F070FAD920DAF8001001F0FD
:1022F0006BFADA20396801F067FA7E4B7E4E196876
:10230000DB20DFF8F88101F05FFADC20318801F092
:102310005BFA98F800307A4C022B2DD1794B1B7860
:1023200053BB042D19D1DFF8E0A1784FDAF8003063
:10233000002B41D15D20237001F026FA4FF49673F3
:102340005843CAF800003B68B3F5967F14D10023C8
:102350003B603388013B33800EE06D4ADAF8003091
:1023600012789A4226D16B4A3B6812789A4221D160
:102370003388FBB10123237098F800302BBB614BED
:102380001B780BB901232370702001F0FDF901289F
:102390001FD1722001F0F8F95F4B0746586802F030
:1023A000C3F806460146E52001F00EFAB7422ADAE4
:1023B000002330E00023DEE73A68013B0132CAF82F
:1023C00000303A60002BBED1B4E7012BDCD10023F2
:1023D000D9E7712001F0D8F90128DAD0D9F8000046
:1023E0004E4A036812785B692178984708B1012D3D
:1023F00013D14B4B1E78B6B93146822001F0E4F977
:10240000484B1E700FE098F80030012BE6D13D4A92
:102410001278002AE2D12370E0E70121414B8220AB
:10242000197001F0D1F9404E3378022B07D13C4BA3
:102430001B7823B13D4B18680368DB6898473378F5
:10244000012B02D9033B012B0AD8384F38680368A7
:10245000DB68984733781BB938680368DB689847AE
:10246000042D6DD12E4B1D78002D33D1872001F026
:102470008BF906463C2001F087F98642A1BF012274
:10248000204B25701A702A4B186803689B68984780
:1024900000210FF099FE68B1264A1368002BDFBFB8
:1024A000002301212370174BCEBF03F1FF331970B6
:1024B0000A231360204B586B204B98420AD0FFF739
:1024C000FDF938B1EA2001F05FF918B901220D4B8E
:1024D00020701A70184B986BFFF70EFA57E000BF88
:1024E0002000002018000020D42B0020D02B00203A
:1024F000CC2B0020C82B0020E82B0020ED2B002047
:10250000EC2B0020002C0020E42B0020E02B0020EE
:10251000EB2B0020EA2B0020E8310020DB2B0020F1
:10252000012C0020022C0020EE2B002014000020A3
:102530000C00002004000020F4310020F82C0020C2
:10254000012DC7D10022174B70201A7001F01CF921
:10255000022817D1732001F017F90646742001F004
:1025600013F9114B0546986801F0DEFF0146044659
:10257000E62001F029F9AE420BDCA642AADCA54216
:1025800005DA0AE0712001F0FFF80228E2D0BDE888
:10259000F087A6429EDBA542F9DD044B986BFFF75E
:1025A000A7F9F4E7002C0020E8310020F4310020E6
:1025B000FEE700000C2838B510D80C2819D8DFE841
:1025C00010F0D000D300E5001800D900D600DF00DD
:1025D0001800E800E800E800E800E800522800F0F1
:1025E000CC8000F2B2803A2800F0DB80452800F071
:1025F000CA80222001F0C8F840B1002001F0C4F8E0
:10260000082803D00021222001F0DEF8172001F075
:10261000BBF8664D664C2860182001F0B5F82060C4
:10262000192001F0B1F868601A2001F0ADF860607F
:102630001B2001F0B1F85F4D5F4C28601C2001F0B9
:10264000ABF820602F2001F0A7F85C4B21681860E0
:1026500028680FF0C3FD50B159491B202960594D1E
:10266000256001F0BFF829461C2001F0BBF81D20B1
:1026700001F092F8544B554C18602B2001F08CF867
:10268000534B18602C2001F087F8524B18602E2015
:1026900001F082F8504B1860252001F075F84F4B7F
:1026A00018601F2001F078F84D4B1860232001F0CE
:1026B00073F84C4B18602D2001F06EF84A4B1860EF
:1026C0001E2001F069F8494B1860052001F05CF804
:1026D000042001F059F8464B18702378012B22D1C1
:1026E0005A2001F051F8434B1860592001F04CF882
:1026F000414B1860582001F047F8404B18605720B4
:1027000001F042F83E4B18605B2001F03DF83D4B74
:1027100018705C2001F038F83B4B18705D2001F018
:1027200033F83A4B1880412001F02EF820705D20DC
:1027300001F02AF84FF496735843354B186008F0AF
:1027400063F9BDE8384008F08BB96A2805D86728D6
:102750007FF64FAF00F036FE4BE77A380428F9D900
:1027600047E7FEF7F3FE44E7FEF788FE41E7FEF792
:1027700089FD3EE7FEF7CCFD3BE7FEF735FF38E786
:10278000FEF7F8FD35E7FEF72BFE32E7FEF748FED1
:102790002FE7204C206804F085FD606804F082FD7E
:1027A00027E704F06FFB04F05BFB22E720300020FA
:1027B000183000201430002010300020D82F0020C6
:1027C0000080BB440000C8420C300020ED2B0020EC
:1027D00004300020FC2F0020F82F0020DC2F0020E8
:1027E000F42F0020F02F00200030002008300020BF
:1027F000EE2B0020C82B0020CC2B0020D02B00205B
:10280000D42B0020EB2B0020EA2B0020E82B00200B
:10281000E42B0020F42B0020014B186800F04ABF85
:10282000042C002000B589B003A804F0ABFB28B14C
:10283000DDF815300193DDF81930029304F01DFB2B
:102840004FF400400DF0A6FD0499A1F58473012B0F
:1028500005D8044B01AA186803681B69984709B09A
:1028600000BD00BF1400002008B500200EF0EEF8F7
:10287000104B1A6801323B2A1A600F4A05D91168B9
:102880000131116019683C39196013683B2B0B4BFF
:1028900005D919680131196011683C3911601A684D
:1028A000172A06D906490A6801320A601A68183AD6
:1028B0001A6008BDC82B0020CC2B0020D02B002094
:1028C000D42B00202DE9F043ADF68C2D00F0C6FB93
:1028D00000F0EEFC0022C349C34801F065FE01226E
:1028E000C049C24801F060FE0122C149C14801F05F
:1028F0005BFE0222BB49C04801F056FE0322B949E3
:10290000BE4801F051FE0522B649BD4801F04CFE1B
:102910000422B449BB4801F047FE0B22B149BA4832
:1029200001F042FE04232022B849B94801F0B5FB6A
:1029300004238022B549B74801F0AFFB04234FF4CC
:102940000042B549B54801F0A8FB04231022A8496C
:10295000B34801F0A2FB04230822A549B14801F0C5
:102960009CFB0125072380229E49AF4801F095FB7F
:1029700007230422AD49AE4801F08FFB07234FF433
:102980000042A249AB4801F088FB07234FF4804284
:102990009E49A94801F081FB07234FF400529B494F
:1029A000A64801F07AFB07234FF400729749A44828
:1029B00001F073FB07234FF480729449A14801F0A2
:1029C0006CFB07234FF4806290499F4801F065FB40
:1029D00007234FF400628D499C4801F05EFB0723FA
:1029E000402280499A4801F058FB07234FF4807237
:1029F0008949984801F051FB07234FF40072794947
:102A0000954801F04AFB07234FF4807275499348BB
:102A100001F043FB07234FF480527C49904801F0BA
:102A20003CFB0523082281498E4801F036FB052333
:102A300010227E498C4801F030FB052320227B497F
:102A40008A4801F02AFB072340227849884801F090
:102A500024FB072308226D49864801F01EFB07234B
:102A600004226A49844801F018FB07234FF480527E
:102A70005F49824801F011FB07234FF480426B4904
:102A80007F4801F00AFB0723012259497D4801F0E4
:102A900004FB0723802260497B4801F0FEFA0723EC
:102AA00040225D49794801F0F8FA04234022574951
:102AB000774801F0F2FA042310225449754801F0D6
:102AC000ECFA002380225949734801F0E6FA01F03C
:102AD000BFFC72494FF000700DF08CFD00F078FBE8
:102AE00000F0A6FB05F03EF900F018FB00F042FBF9
:102AF00000F068FCEC20FFF75DFD0CF005FF554889
:102B0000FEF7FAFE5E48FEF7F7FEC4AC0023644A07
:102B10006449009539A800F007FF0DF26C580023B6
:102B200002222046604905F053FB02225F492B46F2
:102B3000404605F04DFB5E4B0F2004935D4B0DF5B9
:102B4000F96705935C4B5D4E069300F01DFE2A4627
:102B5000002814BF41462146384605F07FF83A4622
:102B6000214619A808F0EEFE032119A808F006FF77
:102B7000204604A9C6E9004804F068FB04A94046C1
:102B800004F064FB4E4B0A201F604E4B07AC1F60E5
:102B900000F0FAFD56F820700E2000F0F5FD56F812
:102BA0002010494808F0F4FD04F06CF904F058F9DD
:102BB0004FF496424549204609F01EFE444B1C60E6
:102BC0000FACFEF7C3FCFEF759FCFEF75BFBFEF70C
:102BD0009FFBFEF7CFFBFEF707FDFEF701FCFEF7BC
:102BE0001FFC77E0001001401C2E0020182E002052
:102BF000000C0140142E0020102E00200C2E00206E
:102C0000082E0020042E0020002E00200014014079
:102C1000F82D0020F02D002000080140E82D0020B4
:102C2000E02D0020D82D0020D02D002000180140DC
:102C3000C82D0020C02D0020B82D0020B02D002070
:102C4000A82D0020A02D0020982D0020902D0020E0
:102C5000882D0020802D0020782D0020702D002050
:102C6000682D0020602D0020582D0020502D0020C0
:102C7000482D0020402D0020382D0020302D002030
:102C8000282D0020202D0020182D0020102D0020A0
:102C9000082D0020002D0020F82C0020C00040004E
:102CA000C83F010800480040006400400068004040
:102CB00064240108C11700086D160008F42B0020D9
:102CC00058310020F02B0020E02700200038014080
:102CD000802700201D49204600F098FC1C4B2A4606
:102CE00020461C491C6000F0B1FC0A2220461A490B
:102CF00000F0ACFC64222046184900F0A7FCC82272
:102D00002046174900F0A2FC792000F03DFDA842C2
:102D100002D1384602F0E8F80421802000F054FD8A
:102D20000021812000F050FD4FF0000439A88DF8FB
:102D30000F4000F0ADFF0CF07BF91E9B002BF5D18E
:102D40000DF10F011AA806F005FAEFE700080040A0
:102D5000042C002029120008F11B000801190008AA
:102D6000AD22000810B50024634B644A1C741A603D
:102D7000634B644A1C721A60DC721C73624A634BB8
:102D800063481A601C72DC721C73624A624B1A60E0
:102D9000624B634A1A6007F02DFE624B624A1C6266
:102DA0001A601C77614A624B62481A60624B634A40
:102DB0001A60634B634A1A60634B644A1A60644B3F
:102DC000644A1A60644B654A1A60654B654A1A602A
:102DD000654B664A1A60664B664A5C751A60DC820F
:102DE000654A664B1A60664B664A1A60664B674ACC
:102DF0001A60674B674A1A60674B684A1A60684BEB
:102E0000684A1A6004F006FA674B684A68481A6014
:102E100007F01EFC674B684A68491A60684B694AAC
:102E200069481A60694B6A4A1A606A4B6A4A1A60B2
:102E30006A4B6B4A1A606B4B6B4A1A606B4B6C4A5D
:102E40001A606C4B6C4A1C721A606C4B6C4A1A60AC
:102E50006C4B6D4A1A606D4B6D4A1A606D4A6E4B31
:102E6000C2E9024413600023136153619361D3618B
:102E70006A4A11606A4A6B49C2E904441160C2E9B6
:102E80000644136253629362D3626749674A1160D2
:102E90006749C2E90244C2E904441483D36113625E
:102EA00053629362D362136353639163614A6249CD
:102EB000C2E9044411606149D3609361D361148411
:102EC00053629362D362136353639363D363136454
:102ED0005364936491605A4B5A4A1A605A4B5B4A46
:102EE0001C731A605A4B5B4A1A6009F07FFCBDE8FC
:102EF000104059480BF06EBCB02B00205849010817
:102F0000942B00206C400108A4410108782B00207C
:102F1000442B002098430108682B00205C2B0020E4
:102F2000E0430108202B00202C420108D045010875
:102F3000082B0020682A0020002B002030470108C1
:102F4000F82A00205C470108F02A0020F04A010816
:102F5000E82A002098240108E02A0020C42401085F
:102F6000D82A002088470108D02A0020844601087A
:102F7000B82A0020EC48010834460108B02A002095
:102F8000A82A002008460108A02A0020C44A0108F7
:102F9000982A0020504C0108902A0020284401085B
:102FA000882A002074250108602A0020F0240108E6
:102FB000542A0020482A0020A84D0108284D010865
:102FC000402A002090500108B8270020382A00200D
:102FD000502501082C290020A049010820290020A3
:102FE000044D010814290020A84B010808290020DD
:102FF000CC4B0108F8280020844B0108F028002061
:10300000AC250108E4280020444D0108DC280020FC
:1030100014250108BC280020D0480108B42800204D
:1030200084280020B44801088C4D0108482800205D
:103030000000FA43FC270020D44D01080000C842DC
:10304000F427002030250108E42700203849010832
:10305000D8270020742401088427002008B50DF02B
:10306000FDFB02200DF0D2FB4FF0E0232A4A40F294
:103070000230C3F80C2D0DF037FC40F203300DF098
:1030800033FC4FF441700DF02FFC40F205300DF091
:103090002BFC40F206300DF027FC40F292300DF090
:1030A00023FC40F291300DF01FFC40F20E300DF089
:1030B0001BFC40F20B300DF017FC4FF460700DF06C
:1030C00013FC40F281300DF00FFC40F282300DF025
:1030D0000BFC4FF420700DF007FC40F209300DF0AE
:1030E00003FC40F286200DF0FFFB4FF440700DF022
:1030F000FBFB40F299300DF0F7FB40F29A300DF0F7
:10310000F3FB40F28E300DF0EFFBBDE8084040F2DB
:103110008F300DF0E9BB00BF0003FA0513B50024A2
:10312000202123462246CDE9004410480DF0FCFC46
:1031300021460E480DF0F0FC0C480DF0DFFC0B486A
:103140000DF0E5FC4FF420430222032108480DF066
:1031500021FA4FF480430122214605480DF01AFA66
:10316000024802B0BDE810400DF0BCBC0038004081
:10317000000C014013B500244FF080514FF0007057
:103180000DF038FA234622462021CDE900440E48AE
:103190000DF0CAFC0C480DF0B1FC0B480DF0B7FC6B
:1031A0004FF4A0530222032108480DF0F3F94FF425
:1031B00000630122214605480DF0ECF9024802B0F7
:1031C000BDE810400DF08EBC003C004000100140F6
:1031D00008B502220423032112480DF0DBF908236D
:1031E000012200210F480DF0D5F90F490F480DF0CD
:1031F00059FE08210D480DF069FE00210B480DF025
:103200006EFE0C2109480DF076FE002107480DF0F6
:103210006CFE064800210DF074FEBDE8084003482E
:103220000DF075BE0008014020A1070000440040D9
:1032300008B511200DF004FFF02111200DF00EFF54
:1032400010200DF0FDFEF02110200DF007FF1E20D4
:103250000DF0F6FE00211E200DF000FF14200DF0F1
:10326000EFFEE02114200DF0F9FE13200DF0E8FE32
:10327000E02113200DF0F2FE28200DF0E1FE4FF4C6
:1032800000400DF07DF801214FF400400DF05CF896
:1032900006494FF400400DF083F803200DF0D0FEF6
:1032A000BDE80840202103200DF0D8BE00180140E1
:1032B00008B54FF2234103200DF0FAFB00200DF07A
:1032C00099FB00200DF0C2FBBDE8084000200DF086
:1032D0009FBB0000022208B511464FF40073164848
:1032E0000DF058F915480DF067FC0023202219460F
:1032F00012480DF03AFC202110480DF062FC072224
:1033000000210E480DF061FC00210C480DF062FD1B
:103310000A480DF0B9FD4FF4C872002107480DF0BE
:10332000A3FD06484FF488610DF04DFCBDE8084050
:1033300002480DF03CBC00BF00180140002C0140C9
:1033400008B5022303211A461D480DF023F94FF05A
:1033500080400DF031FC00234FF080401A461946A2
:103360000DF003FC00214FF080400DF02AFC4FF0DF
:1033700080400DF003FC4FF080400DF013FC8F21D6
:103380004FF080400DF01FFC02214FF080400DF007
:1033900046FD062202214FF080400DF016FC02216E
:1033A0004FF080400DF016FD4FF080404822022182
:1033B0000DF05AFDBDE808404FF080400DF0F7BB1E
:1033C000000801406A2038B500F0DEF9132808D162
:1033D00002220123114687480DF0DCF8002425461F
:1033E0000DE06A2000F0D0F9142840F0928002220B
:1033F000012311467F480DF0CDF8002401256920F6
:1034000000F0C2F9132840F099800222802311466F
:1034100079480DF0BFF8682000F0B6F9132840F0A5
:10342000AE8002224023114673480DF0B3F8734872
:103430000DF0C2FB002171480DF0A5FB6F480DF0A7
:103440009DFB062200216D480DF0BFFB06220221E4
:103450006A480DF0BAFB0622042168480DF0B5FB5E
:10346000002166480DF077FC022164480DF073FCE2
:10347000042162480DF06FFC002160480DF085FCCE
:1034800002215E480DF081FC04215C480DF07DFCBA
:1034900000215A480DF09EFC022158480DF09AFC7C
:1034A000042156480DF096FC002D40F08980002C38
:1034B00040F086807B2000F067F901464F480DF010
:1034C00082FB7C2000F060F9214602464B480DF05B
:1034D000CBFC7D2000F058F90221024647480DF050
:1034E000C3FC7E2000F050F90421024643480DF051
:1034F000BBFC012141480DF0CCFC7A2000F044F9DE
:1035000001463E480DF05DFBBDE838403B480DF0FC
:103510004EBB6A2000F038F9152808D10222012399
:10352000114634480DF036F80124002567E70723DB
:1035300001223049324800F0B0FD4FE7692000F029
:1035400023F9142807D10222802311462A480DF0BE
:1035500021F801255FE7692000F016F9152807D149
:1035600002228023114624480DF014F8012452E76A
:10357000072380222049234800F08FFD4BE7682075
:1035800000F002F9142807D10222402311461A48FC
:103590000DF000F801254AE7682000F0F5F815283D
:1035A00007D102224023114613480CF0F3FF0124F7
:1035B0003DE7072340221049134800F06EFD36E72F
:1035C00041F68C110D480DF0FEFA012200210B4846
:1035D0000DF04AFC0122022108480DF045FC0122B1
:1035E000042106480DF040FC012104480DF051FC77
:1035F0000A2186E7000C0140000801400004004059
:10360000202D0020182D0020102D002038B50C464C
:103610000546016208460DF0B1FA20460DF0BDFAEC
:10362000084B20461968084BB1FBF3F101390DF046
:10363000C8FA20464FF6FF710DF0C5FA0023284660
:103640006B6238BD70250020A0860100F8B5436A82
:103650000446032B0F462ADC006A02EB8205144E57
:103660000DF0AAFA636A0122F15C206A0DF0ADFA4E
:10367000636A0022F15C206A0DF0F6FB0221636AA6
:1036800005EB850503F10802AD0044F8237099406D
:1036900024F81250206A0DF05BFA0021206A0DF028
:1036A000FEFB206A0DF083FA636A01336362F8BDA2
:1036B000EC2501082DE9F843044600254FF00208E7
:1036C00000F11006636A08FA05F7AB420ADC3946D6
:1036D000206A0DF047FA0135042D06F10206F1D1FA
:1036E000BDE8F8833946206A0DF036FAA8B1206AA1
:1036F0000DF0D3FB236A3188343353F825208146FB
:103700000A4443F8252054F825309847206A0DF0E4
:10371000C4FBA0EB09003081D9E7636AAB42DADC75
:10372000D5E7002170B500F10E03446A4FF47A75B5
:1037300008468C4200DC70BD5A8933F8026F6A4338
:10374000B2FBF6F201311044F3E7000010B51C247F
:10375000084B04FB0033DC688C4209DC1B698B429C
:1037600006DB054B43F82010FEF724FF002010BDB8
:10377000FF20FCE7DC0300202C000020014B53F865
:10378000200070472C000020024B53F8200040110D
:10379000704700BF2C00002008B5054B53F82000EF
:1037A0000EF02AFB4FF074510EF07AFB08BD00BFFB
:1037B0002C000020034B53F820004011431E5842B8
:1037C000584170472C000020024B490143F820105B
:1037D000704700BF2C000020014B43F820107047B9
:1037E0002C00002010B5044608464FF084410EF02E
:1037F00057FB0EF031FD024B43F8240010BD00BF13
:103800002C00002070B506460024074D314668683C
:1038100000F09CFB08B9E0B270BD0134EC2C05F15E
:103820001C05F3D1ED20F7E7DC0300200023064A56
:10383000118B814201D1D8B270470133EC2B02F1D8
:103840001C02F5D1ED207047DC0300201C22024B46
:1038500002FB0030704700BFDC0300200023064A53
:103860000649108B10B1506941F823000133EC2B4D
:1038700002F11C02F5D17047DC0300202C0000206F
:10388000014B1954704700BF082C0020024B1A5CF2
:1038900011431954704700BF082C0020024A135CE2
:1038A00023EA010313547047082C0020014B185CD5
:1038B000704700BF082C00201C22024B02FB003383
:1038C000987E7047DC03002000487047D08E0300CC
:1038D000024B1A68024BC3F85C2E70475824002034
:1038E000DC030020202180680DF037BB80680DF0DC
:1038F0002CBB10B504464368597A58680CF0FBFCA1
:10390000636804F12A02597A58680CF006FD63686E
:103910008022597A58680CF010FD6368BDE81040A9
:10392000597A58680CF0DEBC70B5026140F20112A1
:103930000D464A498282016001210022817580F88A
:10394000281004460421C0E9062280F820204262A3
:103950009DF81020856080F82920414A0373426059
:103960001068A84203D01C3201396260F8D13D4989
:103970000C60002B6FD05069138B022203210CF0D6
:1039800009FE28464FF4E1310DF08CFA2846082153
:103990000DF09CFA28464FF400510DF0A0FA28468D
:1039A0000C210DF0A8FA284600210DF09EFA002106
:1039B00028460DF0A6FA28460DF0B9FA28460DF073
:1039C000BBFA6368197A58680CF01CFC6368197AB2
:1039D00058680CF07EFC63682A1D197A58680CF050
:1039E00093FC63680022197A58680CF046FC6368FF
:1039F0000022197A58680CF033FC6368197A586809
:103A00000CF048FC6368597A58680CF0FBFB63685B
:103A10002A1D597A58680CF077FC63680022597A9D
:103A200058680CF02AFC63680022597A58680CF038
:103A300017FC6368597A58680CF02CFC6368586866
:103A4000597A0CF04FFC2046FFF753FF28460DF043
:103A50005EFA204670BDD068138A8EE7543F010895
:103A6000583F0108F42C002038B5437D0D4643B182
:103A70000469216819B1284600F068FA20B9236862
:103A800003B90024204638BD0834F2E738B50446AF
:103A90000D4663680222197A58680CF0CAFB18B9FF
:103AA00094F82830002BF4D06368197A58680CF029
:103AB00022FC6368AAB2197A58680CF03EFC94F8AC
:103AC0002020636804EBC212197A5868AA320CF0FD
:103AD00024FC63680222197A58680CF0A4FB63681E
:103AE000197A58680CF0FEFB94F82030B3FA83F38F
:103AF0005B0984F82030002384F8283038BD10B5E5
:103B00000446A37D084623B9A068BDE810400DF027
:103B100003BA94F82030626A04EBC31313440A28F2
:103B200002F1010183F8AA0001D07F2A05D12046C5
:103B3000FFF7ACFF0023636210BD6162FCE7802ADF
:103B400028BF8022002330B4934203D130BC1946F1
:103B5000FFF79CBF90F82040CD5C00EBC4141C44E0
:103B600084F8AA500133EFE738B5054608460C46FD
:103B700000F003FA214602462846BDE83840FFF728
:103B8000DEBF000010B50446084600F049FA00F018
:103B90002EFA217D227B8142636811D1012161755A
:103BA0005AB158691B8B032102220CF0F3FC20460A
:103BB000BDE810400949FFF7D7BFD8681B8AF2E774
:103BC000002161753AB158691B8B0122BDE8104094
:103BD00000210CF0DFBCD8681B8AF6E79537010896
:103BE00030B5044685B0084600F01AFA0378302B49
:103BF00026D0322B144D18BF4FF46125637DA3B13D
:103C00000A22294601A800F0C8F920460F49FFF70B
:103C1000ABFF20460E49FFF7A7FF204601A9FFF79B
:103C2000A3FF20460B49FFF79FFF2946A0680DF030
:103C300039F90021A06805B0BDE830400DF04FB95A
:103C40004FF4E135DAE700BF105522009437010840
:103C50009A3701086A3E010810B50446084600F08C
:103C6000DFF9037823B1303B18BF012384F82930F2
:103C700094F829302BB104492046BDE81040FFF7E5
:103C800073BF0249F8E700BFA9370108B33701083D
:103C90002DE9F04143680446597A58680CF046FB18
:103CA0000546C0F1800710B92046FFF722FE94F8C0
:103CB0002930A06813B1E369BB4257DB08210DF03E
:103CC0004CF910B1A0680DF040F97F2D00F39880F9
:103CD000631B93F8A9300A2B01D00D2B7DD16368AB
:103CE000597A58680CF007FB7F2D3AD00022E3196F
:103CF00083F82A202021E26104F12A0000F044F92F
:103D000090F800800546B8F1000F37D10A2104F180
:103D10002A0000F039F9054684F8AA812B782BB9DE
:103D20000D2104F12A0000F02FF905460023354942
:103D30002B7004F12A00A36100F008F920BB204693
:103D400004F5D571FFF71EFF0027A369002B3AD0B9
:103D5000A0680DF0FEF8A36920465B6804F5D571F4
:103D600098472046BDE8F041FFF7C3BD5A1CE26109
:103D7000234493F82A100DF0CFF898E7411C04F57E
:103D8000D57000F0F1F8C9E71F4904F12A0000F0EE
:103D9000DDF828B9204604F5D571FFF721FFD3E7F8
:103DA0001A4904F12A0000F0D1F828B9204604F598
:103DB000D571FFF751FFC7E7204604F12A01FFF74D
:103DC00053FEA061C1E7012FCBDD637D002BC8D07E
:103DD00020460F49FFF7C8FEC3E794F82A30212B8D
:103DE0000ED1A36963B12046FFF783FD0023E36191
:103DF000A369204604F5D5715B68BDE8F04118471A
:103E0000BDE8F081BE370108C9370108D237010883
:103E1000D7370108034BC1B21B681A6818461268ED
:103E2000104700BFF42C002010B504460BF0ACFE88
:103E30002046BDE81040014900F0FCBAF237010805
:103E400007B50649D1F8F027D1F8EC37D1F8E817D3
:103E50000091034900F0EEFA03B000BD00F0FF1F2F
:103E6000233801080BF0EABD03F0FABF05F072B980
:103E700073B5144800F0CCFA134800F0C9FA0024D6
:103E8000E6B23046FFF7E2FC05463046FFF714FD88
:103E900068B93046FFF70AFDC3070DD46B690B48BC
:103EA00000936968D5E9032300F0B2FA04E03046D4
:103EB000FFF702FD0128ECD00134EC2CE0D102B078
:103EC00070BD00BF2C380108433801085F38010875
:103ED00070B50B4900F0AEFA0024E0B2FFF7B6FC73
:103EE0000546E0B2FFF7E2FCC30704D4D5E90112AE
:103EF000044800F08DFA0134EC2CEED170BD00BF07
:103F00007238010894380108F8B506460024E0B27A
:103F1000FFF79CFC4768E0B2FFF730FC0134034632
:103F20003A463046024900F085FAEC2CEFD1F8BD54
:103F30009E38010810B50446FFF790FC2046BDE806
:103F40001040014900F076BAA7380108431E013934
:103F500013F8010F11F8012F10B10AB19042F7D0F8
:103F6000801A18BF01207047013911F8013F0BB9C1
:103F70000370704700F8013BF7E70023C25C0AB901
:103F8000184670470133F9E703461A7818461AB104
:103F90008A4203F10103F8D17047002970B51EDA97
:103FA0002D23012400F8013B4942064691FBF2F320
:103FB00002FB131130313170191E354606F101062E
:103FC000F4DC00220346201A30443270AB420BD29C
:103FD0001A78297803F8011B05F80129F6E704D1BE
:103FE000302341700370012070BD0024DDE730B53F
:103FF00003782D2B11D14FF0FF34013000210A2519
:10400000431E01E005FB012113F8012F303AD0B225
:104010000928F7D904FB01F030BD0124EEE70000C8
:1040200010B5144C02780146A2F10A03DBB2162B3C
:104030001BD824FA03F3DA0700F10100F2D4084692
:10404000FFF79BFF01380844814204460AD20378F7
:104050000A3BDBB2162B05D8064A013822FA03F3D5
:10406000DB07F1D40023637001E0002AE7D10846A2
:1040700010BD00BF09004000002310B5934200D1DD
:1040800010BD51F8234040F823400133F6E702B950
:104090007047013A40F8041BF9E72DE9F041174653
:1040A00082800022013B0E4601608271082B0BD8F2
:1040B000DFE803F0080E0C18150524261A0000246A
:1040C000002513E0012383710224F9E701238371A2
:1040D00002240025394630460CF096FA06E0012409
:1040E0008471EDE70124EBE7022403253B462246D9
:1040F00029463046BDE8F0410CF04CBA0024F4E704
:1041000001240325E6E770B50C1EACBF01234FF078
:10411000FF335C430133064608BF2D234FF0640292
:1041200008BF06F8013B611104F01F040546544323
:1041300030460A22FFF731FF2E226411092C325437
:10414000D8BF302206EB0003D8BF5A7021464FF08B
:104150000A02CCBF581C981CFFF71FFF284670BDF1
:10416000F0B5027803462D2A13D14FF0FF3001330A
:1041700000250A2702E007FB052501331C78A4F17E
:104180003002D6B2092EF6D9A4B98D402544684331
:10419000F0BD0120ECE78A4002EB660292FBF6F2EA
:1041A0000CFB06F6144413F8012F303AD7B2092F4E
:1041B000F1D9EAE70A260024B446F4E72DE9F843EA
:1041C000141E0646894614DC2027DB071FD5002570
:1041D000C84626E0013219F802100029FAD1A2429D
:1041E000ACBF0C46A41A13F0020F14BF30272027CF
:1041F000EBE70022EFE73368414630461B689847FB
:10420000013D002DF7DC24EAE475641BE0E7254658
:104210005FFA87F8F5E7336830461B6808F1010854
:10422000984798F800100029F5D1A5EB09054544F9
:10423000A046FFB2B8F1000F05DC002CACBF281976
:10424000281CBDE8F8833368394630461B68984718
:1042500008F1FF38EEE72DE9F04385B08046DDE94F
:104260000C691C460D4651B930233246ADF800307A
:1042700069464B46FFF7A2FF05B0BDE8F08323B1C6
:104280000A2A2DD100292BDA4D4200238DF80D305A
:104290000E9B0DF10D0C3A3BB5FBF2F002FB1051F9
:1042A000CF18092988BF3946AA4201F130010CF123
:1042B000FF370CF8011C15D954B1B6B119F0020F33
:1042C00013D0D8F800302D2140461B689847013E96
:1042D0004B46324639464046FFF770FF2044CBE755
:1042E0000024D2E70546BC46D6E72D23002407F874
:1042F000013CACF10207EBE70846FFF78BBD00007D
:104300002DE9F04380460E46144600254FF00A0979
:104310008DB0317819B928460DB0BDE8F083252954
:104320006DD171780029F6D0252906F1010065D0FC
:104330002D290ABF01270027B01C0378302B14D089
:10434000002203780646A3F130015FFA81FCBCF13C
:10435000090F0ED9662B3DD00FD8632B44D0642BA8
:104360001CD0582B2ED00136D3E7013047F002077E
:10437000E3E709FB02120130E3E7752B24D0782B29
:1043800019D0732BEFD1216820483B46002908BF84
:10439000014604344046FFF711FF0AE06123CDE9EE
:1043A0000173012300920A22216840460434FFF77A
:1043B00052FF0544D7E76123CDE901730092002342
:1043C0001022F1E74123F7E761230092CDE9017361
:1043D0000023E8E7216808A805920434FFF793FE5C
:1043E0003B46059A08A9D5E7236807A98DF81C3034
:1043F000002304348DF81D303B46CBE70646D8F841
:10440000003040461B6898470135ACE70A3901087F
:104410000FB407B504AA52F8041B054B6846CDE952
:104420000032FFF76DFF03B05DF804EB04B0704796
:10443000604001080EB403B503AA52F8041B0192B0
:10444000FFF75EFF02B05DF804EB03B070470000B9
:1044500008B529480BF06AFC27480BF06CFC26488D
:104460000BF073FC24480BF06BFC012122480BF08D
:1044700048FC21480BF00EFC1F480BF025FC1E48A1
:104480000BF035FC1D4A08211B480BF063FC1A4851
:104490000BF0A3FC4FF4602117480BF00BFC01213B
:1044A000174A18480BF030FF0121174A15480BF046
:1044B00034FF4FF48072012112480BF0DEFE4FF4FE
:1044C000806201210F480BF0CBFE602201210D48D4
:1044D0000BF033FF01210B480BF0DCFE01210948F2
:1044E0000BF0E1FE074801210BF0FCFEBDE808409F
:1044F00001480BF068BC00BF00240140E02E002002
:104500004C24014000000240202E0020884207DD9C
:10451000914203DC01469142A8BF1146084670470C
:104520009042F8DD0146F9E737B56D46046804F1BD
:104530003003F03433F8102C33F8201C33F8300CEF
:10454000FFF7E4FF3033A34225F8020BF2D1BDF8A8
:104550000230BDF800001844BDF804301844BDF81E
:1045600006301844C0F38F0003B030BD08B50D4BC2
:1045700098420BD003F5806398420BD0A3F50063FB
:1045800098420BD1072909DCC8B208BD012905DC16
:104590000831F9E7052901DC0A31F5E70BF082FB68
:1045A0001020F2E7000C0140012370B593400C4647
:1045B00015460022064611469BB220460BF0EAFF44
:1045C00029462046FFF7D2FF3368034A9B1A034A65
:1045D000C3F34F03D05470BD202E0020E02E0020E6
:1045E0000D4B0E4A991C13600D4A11600D4A191D9E
:1045F00011600D4A991D11600C4A03F10801116008
:104600000B4A03F10A0111600A4A03F10C0111601F
:10461000094A0E3313607047202E00201C2E002004
:10462000182E0020142E0020102E00200C2E00200A
:10463000082E0020042E0020002E0020114A124BCC
:1046400030B553F8213052F821401946A342A8BF93
:104650002146026802F1C8058D4206DBA342B8BFBD
:10466000234603F1C804A24202DD0160002030BDF0
:104670008A4202DA01600120F9E79A42FBDD036019
:10468000F9E700BF2030002018300020012970B564
:1046900016D80C4B53F821400B4B53F82150AC4229
:1046A0000ED0001B0DF0A8FB0646281B0DF0A4FB46
:1046B000014630460DF0A8FC04490DF0F1FB70BD39
:1046C0000020FCE720300020183000200000C84205
:1046D000F8B5224B05461C68014620460DF09CFDAE
:1046E00000B12C461E4B21461E6830460DF076FD6B
:1046F00000B126461B4D31462F68344638460DF032
:1047000077FD002198B130460DF086FD68B1164B5B
:10471000196838460DF0BCFA314604460DF07CFDB0
:1047200000B1344620462C60F8BD104BF0E730460F
:104730000DF068FD0028F5D1002138460DF06CFD24
:1047400048B10020094B19680DF0A0FA3146044623
:104750000DF044FDE4E73846F4E700BF04300020E4
:10476000FC2F0020CC2F0020F02F0020F42F002061
:10477000F8B5054686200E461746FFF705F8314680
:10478000044628460DF034FDE0B94FF08041304634
:104790000DF07EFA29460DF03FFDA8B144F010015E
:1047A000862089B2FFF710F8124D3E68002130468E
:1047B0000DF028FDA0B1294630460DF00FFD28B1BF
:1047C000344604E00C4DF0E70025EEE72C46284681
:1047D00009493C600DF002FD003818BF0120F8BD0A
:1047E00005F10044214630460DF016FD0028EED0BC
:1047F000E6E700BF000048420000C8422DE9F84348
:10480000064627200D46FEF7C7FF304FDFF8C08071
:1048100038602820FEF7C0FFC8F800008620FEF7A9
:10482000B3FFD7F8009020F0030400214846A4B25B
:104830000DF0F2FC28B3002130680DF0E3FC254FA9
:1048400028B3494628460DF021FA23490DF028FBEC
:10485000002105460DF0C2FC00B100253D6037681F
:10486000294638460DF0D8FC44F001039BB20028DD
:1048700018BF1C46294638460DF0B0FC00B13D4635
:1048800035602146BDE8F8438620FEF79DBF2846E7
:10489000D8F800100DF0FAF90F490DF001FB0021D6
:1048A00005460DF0B9FC00B100253D60376829468A
:1048B00038460DF093FC44F002039BB2002818BF69
:1048C0001C46294638460DF0A7FCD7E7EC2F002000
:1048D000E82F0020D42F0020000060402DE9F8438D
:1048E0000C46444D4449064628680DF0D9FA214645
:1048F0000DF0CEF94FF076510DF0D2FA28608720F6
:10490000FEF74AFF3D4904460DF068FC3C4F00238A
:1049100000283CD03B60DFF8EC808620C8F80030EF
:10492000FEF732FFD7F8009020F00C040021484633
:10493000A4B20DF071FC20B3002130680DF062FCD0
:104940002D68314F002839D0294648460DF09EF990
:10495000002105460DF042FC00B100253D6037689E
:10496000294638460DF058FC44F008039BB2002855
:1049700018BF1C46294638460DF030FC00B13D46B4
:1049800035602146BDE8F8438620FEF71DBF302084
:10499000FEF702FF1D490DF083FA21460DF034FBAE
:1049A00038603120FEF7F8FE184900F100400DF0A4
:1049B00077FA21460DF028FB0346ACE72846D8F8E5
:1049C00000100DF065F9002105460DF025FC00B141
:1049D00000253D603768294638460DF0FFFB44F05E
:1049E00004039BB2002818BF1C46294638460DF028
:1049F00013FCC3E7EC2E0020000070410000484289
:104A0000E02F0020E42F0020D02F002000007A4467
:104A1000104B70B51A68066801EB0214A41A241131
:104A20000546002130461C600DF0F6FB88B10A4BAC
:104A30001868001B48BF0330801020EAE0700DF0BA
:104A4000DBF90446014630460DF0E6FB00B1264690
:104A50002E6070BDE82E0020DC2F0020F8B50E4A35
:104A6000064614780D4F0134E4B2312C8ABF00237E
:104A700023461C460A4D386855F8241013700DF073
:104A800005F931460DF004F90649386045F824600F
:104A90000DF0BAFAF8BD00BFF02E0020BC2F0020A8
:104AA000F42E0020000048422DE9F74F8046A62052
:104AB00092468946FEF768FE0446AF20FEF764FE84
:104AC000074684EAE470A0EBE4700DF095F9DFF896
:104AD000F8B10446DBF8005029460DF0D7F8002164
:104AE00001900DF07BFB019B08B103F10043774A75
:104AF0001946166830460DF071FB50B12946204624
:104B00000DF08AFB314600283CD028460DF0C0F855
:104B10000446CBF80040002F00F0CE8020460DF078
:104B20009BFB0546BAF1000F30D0632840F3C480E8
:104B30000DF062F9664B80461E6831460DF04EFB63
:104B4000002840F0B980634B40461F68624B3946ED
:104B50001C680DF043FB88B130460DF07DFB064626
:104B600020460DF079FBAD1B454338460DF074FB34
:104B7000801B95FBF0F00DF03FF90446204603B092
:104B8000BDE8F08F28460DF081F8C1E74946404660
:104B9000FFF77CFD514B06461C68014620460DF090
:104BA0003BFB002876D1214630460DF06FF82146B8
:104BB00006464B480DF06AF8014649480DF024FAC4
:104BC00031460DF06DF90446464B20461C60FFF758
:104BD00045FF0146064620460DF058F842498046FA
:104BE0000DF0FCFA30B94FF07E5140460DF014FB49
:104BF00000B93446632D4FDD28460DF0FDF8344BE7
:104C00008246D3F8008041460DF0E8FA002843D1EF
:104C1000304B5046D3F80090344B49461E680DF097
:104C2000DDFA98B140460DF017FB804630460DF096
:104C300013FBA5EB0805454348460DF00DFBA0EB23
:104C4000080095FBF0F00DF0D7F80646284D012F2F
:104C50002E6023D1274930460DF022F9054625491B
:104C6000254B18680DF01CF929460DF00FF8214668
:104C70000DF016F91A490DF0C7F929460DF008F89C
:104C80000CF0FEFC0EA3D3E900230CF051FD0CF058
:104C9000A9FF72E7002497E70026D7E72620FEF752
:104CA00073FD08B900232B60124928680DF0F8F84D
:104CB00010490546114BD4E700245FE7AFF30080AD
:104CC0009A9999999999B93FC82F0020D82F002017
:104CD000103000201430002008300020F82F002071
:104CE0000000C842C02F0020000080BF0C30002010
:104CF000C42F00200000204104300020003000209C
:104D00002DE9F3411F4C064629201F460D469046CB
:104D10000194FEF741FD01AA01464046FFF728FD38
:104D20002A20FEF739FD01AA01463846FFF720FD8B
:104D3000314601A8FFF762FD294601A8FFF7CEFD25
:104D4000089901A8FFF764FE214601980DF05CF96F
:104D50004FF07E5104460DF05FFA20B90021204645
:104D60000DF03CFA60B94FF07E5120460DF054FA38
:104D700020B14FF07E5002B0BDE8F0812046FAE746
:104D80000020F8E70000C842F7B51E461F4B054655
:104D9000292001930C461746FEF7FEFC01AA0146A6
:104DA0003846FFF7E5FC2A20FEF7F6FC01AA01468B
:104DB0003046FFF7DDFC294601A8FFF71FFD21461D
:104DC00001A8FFF78BFD089901A8FFF721FE0198C4
:104DD0000F4900F100400DF017F94FF07E510446E5
:104DE0000DF01AFA20B9002120460DF0F7F958B954
:104DF0004FF07E5120460DF00FFA18B14FF07E5063
:104E000003B0F0BD2046FBE70020F9E70000C8C270
:104E10000000C842024B00BF013BFCD1704700BFFD
:104E200000127A0010B50446002240F2215102F02F
:104E30001CFA002240F22251204602F016FA00220B
:104E400040F22351204602F010FA002240F2245191
:104E5000204602F00AFA002240F22551204602F0D4
:104E600004FA002240F22651204602F0FEF9002208
:104E700040F22751204602F0F8F92046BDE81040E4
:104E800000224FF4A56102F0F0B90000002313B531
:104E9000054A40F21141CDE9002303686A465C6887
:104EA0000823A04702B010BD3400010032220023C5
:104EB00013B5CDE9002303686A465C6840F21141EE
:104EC0000823A04702B010BD002313B5054A40F2E5
:104ED0001141CDE9002303686A465C680823A047B6
:104EE00002B010BD340101002DE9F7430026174B35
:104EF00005461E702024FFF7C9FF4FF04209FFF757
:104F000089FF4FF4C8482B6801966A4640F2114168
:104F100028465F688DF8004008238DF80190ADF8B1
:104F200002800134B847E4B22846FFF773FFFFF769
:104F3000BDFFFFF76FFF292CE5D12846FFF7C4FF1F
:104F4000FFF768FF03B0BDE8F08300BFAC1D002091
:104F5000D0F80220014B1A60704700BF4430002097
:104F6000D0F80220014B1A60704700BF3430002097
:104F7000D0F80220014B1A60704700BF303000208B
:104F8000D0F80220014B1A60704700BF2C3000207F
:104F9000054A1388013313800A22D0F8023093FBAC
:104FA000F2F3024A13607047483000202830002096
:104FB000D0F80220014B1A60704700BF3C3000203F
:104FC000D0F80220014B1A60704700BF403000202B
:104FD000D0F80220014B1A60704700BF3830002023
:104FE0006FF4A463C3180846072B15D8DFE803F055
:104FF0000406080A0C0E1012FFF7AABFFFF7B0BF95
:10500000FFF7B6BFFFF7BCBFFFF7C2BFFFF7D0BFC8
:10501000FFF7D6BFFFF7DCBF704701617047416102
:105020007047007A7047007A70470023C372704758
:1050300010B504460022616008464FF4987102F0F2
:1050400014F900224FF43F71606802F00EF900225B
:105050004FF49061606802F008F960680022BDE8D2
:1050600010404FF4D07102F000B900002DE9F0417A
:105070000025BCB08846F02268460F490DF078F94B
:105080006C4614262F4620680CF0B6FE41460DF003
:10509000AFF808B1D4E90175013E04F10C04F2D176
:1050A00039467520FEF790FB294676203CB0BDE8D6
:1050B000F041FEF789BB00BFAC40010810B40468A2
:1050C0006468A44610BC6047037E73B50446002B99
:1050D00050D0AF20FEF758FB324B00284CD10321B3
:1050E000314A20731170E1221A701B782F4D8DF810
:1050F00000300C238DF801308F238DF802302B788F
:1051000060688DF80330F0238DF8043003686A4638
:105110004FF4E9715E680523B0472B7839201033CE
:10512000DBB2ED2B08BF0D232B70FEF72DFB204BC0
:10513000C0B21A78824215D04FF40952ADF800205F
:1051400000228DF802204FF0FF32019230BB302256
:105150008DF8032018706A46082340F29251606867
:10516000FFF7ACFF236896201D6AFEF715FB01468A
:105170002046A84702B070BD421C06D10122022180
:105180002273094A1170D222AEE70128ADD1032261
:1051900008212273044A11707822A5E70828D9D182
:1051A0003122D5E7B21D0020B11D00205030002073
:1051B0004A3000200B7803F0010343720B78C3F3ED
:1051C000800303720B78C3F3001383728B78C3F3ED
:1051D000C00343767047000008B54B7808781B027F
:1051E00003F4706318440CF039FA09A3D3E90023DF
:1051F0000CF09EFA0CF0F6FC07490CF051FEBDE8ED
:1052000008400146A720FEF7EDBA00BFAFF30080CB
:105210009A9999999999B93F2B121F3F0B78842B32
:1052200003D10121EA20FEF7CFBA812B01D1002161
:10523000F8E770474B78323B18BF0123037670477D
:105240000B46B3F53F7F11460FD006DCB3F5987FD0
:1052500007D0B3F5D07F06D07047B3F5906F06D076
:105260007047FFF7A7BFFFF7B7BFFFF7D7BFFFF73D
:10527000E1BF000003682DE9F74F5B6B05460E4662
:105280009847634C002800F0BD80A620FEF77CFA0A
:1052900040F2ED23984240F3B280A620FEF774FA64
:1052A000800080B207229421237843F05003002726
:1052B0008DF802200A44AA3202EB10228DF8013048
:1052C000ADF804001344C0B2034403EB23236A4641
:1052D00068688DF806108DF80030AA2108238DF833
:1052E00007708DF80370FFF7E9FEBE420CBF042281
:1052F0006422DFF820A14FF00F0B9AF80010DFF8BE
:10530000189101F5FC73134403EB13238DF800305F
:105310004EF22103ADF8023041F6217368688DF832
:105320000110ADF80430A82108238DF807206A4643
:10533000DFF8E8808DF806B0FFF7C0FE99F800307E
:105340006A468DF8003098F80030A9218DF80130B8
:105350004DF67973ADF80230314B6868019308233C
:10536000FFF7ACFE2F4E304B3278197868688B18F7
:105370008DF80010FF2103F5E47303EB13238DF880
:1053800001108DF80530BA2107238DF806206A46F2
:10539000ADF802B08DF80470FFF790FE2378234932
:1053A000013323700B78224A01330B709AF80030D6
:1053B000307801338AF8003099F800300130013339
:1053C00089F8003098F800303070013388F80030E8
:1053D00013780133DBB25C2B13700DD1BE230B703D
:1053E000E92389F800304D231370802327708AF851
:1053F000007088F80070337003B0BDE8F08F40F69D
:10540000B8304FE72378FE22842143F030034EE783
:105410004B3000204D300020AF1D00204C300020CC
:105420001DC7E021AD1D0020B11D0020B01D0020D2
:10543000AE1D0020037E10B5044643B1BB20FEF72D
:10544000B9F901462046BDE81040FFF713BF10BD73
:1054500073B506468120FEF797F9012815BF002392
:105460009C231A469E224FF0900014BF1D466025D3
:105470008DF804308DF80520FEF78EF9014621489D
:105480000CF004FC204904460CF0C6FE002835D17F
:1054900020460CF0E1FE642358434FF4FA7390FB6E
:1054A000F3F032300CF0A8FC18490CF0F1FB3C236F
:1054B000174C8DF800300CF0F5FE23786A461D433A
:1054C000C3238DF8033048F2CD234FF4E8718DF8F3
:1054D0000100ADF80630706808238DF80250FFF720
:1054E000EDFD0C4A217813788B4209D10133DBB2F0
:1054F0000F2B08BF0023237002B070BD0648D6E70B
:105500001170F9E70000C842004003440000404227
:105510004F3000204E30002000001643037E73B54C
:105520000446A3B148F261230093C37A63B903250B
:1055300060686A46036840F232315E680223B04711
:10554000013DF5D10123E3722046FFF781FF02B050
:1055500070BD0161704741617047007A7047007A01
:1055600070470023C372704710B504460022616083
:1055700008464FF4987101F078FE00224FF43F7115
:10558000606801F072FE00224FF49061606801F0E3
:105590006CFE00224FF4D071606801F066FE606816
:1055A0000022BDE8104040F2FE3101F05EBE000076
:1055B0002DE9F84F00250F462C46284E28460CF0C2
:1055C0001BFCA04639460134814656F8345006EBA0
:1055D000C40B0CF00DFE00283CD028460CF00CFC4F
:1055E000394682460CF00EFE002833D006EBC80880
:1055F000D8F804000CF000FC0446DBF804000CF0C2
:10560000FBFB21460CF042FB4946054638460CF0B0
:105610003DFB4946064650460CF038FB01463046F5
:105620000CF0F2FC014628460CF03AFC21460CF046
:105630002FFB4FF07C510CF02BFB0CF00DFE0446C1
:1056400021467520FEF7C0F82146BDE8F84F7620C8
:10565000FEF7BAB8072CB1D1FF24F1E7E441010805
:10566000037E37B504462BB33920FEF78DF8144B73
:10567000C0B21A78824215D04FF40952ADF800201A
:1056800000228DF802204FF0FF320192A0B93022A3
:105690008DF8032018706A46082340F29251606822
:1056A000FFF70CFD236896201D6AFEF775F801468A
:1056B0002046A84703B030BD0828EBD13122E7E7E8
:1056C000583000200B7803F0010343720B78C3F3CA
:1056D000800303720B78C3F3001383728B78C3F3D8
:1056E000C00343767047000008B54B7808781B026A
:1056F00003F4706318440BF0B1FF07A3D3E9002350
:105700000CF016F80CF06EFABDE808400146A72030
:10571000FEF768B8AFF300809A9999999999B93FC3
:1057200010B50B780C46842B0BD10121EA20FEF733
:105730004BF86178EB20BDE8104001F00101FEF765
:1057400043B8812BF5D10021F0E74B78323B18BFED
:1057500001230376704708B5B1F900000CF04CFB4B
:105760004FF074510CF09CFBBDE808400146A920A5
:10577000FEF738B80978C1208B1E59425941FEF70F
:1057800023B80B46B3F53F7F114615D008DCB3F5BF
:10579000987F0DD0B3F5D07F0CD0B62B10D07047CA
:1057A00040F2FE3293420DD0B3F5906F06D07047B1
:1057B000FFF788BFFFF798BFFFF7B2BFFFF7C5BF7E
:1057C000FFF7C9BFFFF7D6BF03682DE9F7435B6B4F
:1057D00005460E469847534C002800F09C80A620B2
:1057E000FDF7D2FF40F2ED23984240F39180A620CE
:1057F000FDF7CAFF800080B207229421237843F08E
:10580000500300278DF802200A44AA3202EB10222E
:105810008DF80130ADF804001344C0B2034403EB2B
:10582000232368686A468DF806108DF80030AA2197
:1058300008238DF807708DF80370FFF73FFCBE4218
:105840000CBF04226422DFF8E090DFF8E08099F8D2
:105850000010686801F5FC73134403EB13238DF803
:1058600000304EF22103ADF8023041F62173ADF85D
:1058700004300F238DF801108DF80630A82108237D
:105880008DF807206A46FFF719FC294E98F800307A
:1058900068688DF8003033786A468DF801304DF62F
:1058A0007973ADF80230234BA92101930823FFF748
:1058B00005FC237820480133237003781F49013306
:1058C000037099F800301E4A013389F8003098F8C7
:1058D00000301578013388F8003033780135013312
:1058E00033700B7815700133DBB25C2B0B700CD16D
:1058F000BE230370E92388F800304D230B7080230A
:10590000277089F800703770137003B0BDE8F0831A
:1059100040F6B83070E72378FE22842143F030034C
:105920006FE700BF593000205B300020B51D00201C
:105930005A3000201DC7E021B61D0020B41D0020F4
:10594000B31D0020037E10B5044643B1BB20FDF714
:1059500031FF01462046BDE81040FFF735BF10BDBE
:105960002DE9F3470746B020FDF716FF0446B120A6
:10597000FDF712FF4D49054620460CF089F900213C
:1059800004460CF02BFC00287ED1204648490CF040
:1059900043FC00287AD120460CF084FC064643499B
:1059A00028460CF075F9002104460CF017FC00287D
:1059B0006ED120463E490CF02FFC00286AD12046CB
:1059C0000CF070FC05468120FDF7DEFE01284FF04B
:1059D0000004DFF8E08061D13B20FDF7DDFE3649B1
:1059E0000CF012FB81468C20FDF7D6FE2146824644
:1059F0000CF0F4FB00284FD030490AF100400CF0C5
:105A00004FFA49460CF000FB2D490CF049FAD8F842
:105A100000100CF03DF94FF08F4104460CF0F2FB02
:105A200028B120464FF08F410CF030F90446204653
:105A3000C8F800400CF036FC6023ADF80400214C9F
:105A40004FF4E8712278786813438DF80230C3234D
:105A50008DF8033049F2CD636A46ADF8063008236D
:105A60008DF800608DF80150FFF728FB164A217869
:105A700013788B4218D10133DBB20F2B08BF002300
:105A8000237002B0BDE8F087002688E7CF2686E7BE
:105A9000002598E7CF2596E72046B2E70023C8F80F
:105AA0000040ADF80430CAE71170EAE70000404258
:105AB00000004F435430002000007C425304E9377B
:105AC000002474495D3000205C300020037E73B5F3
:105AD0000446A3B148F261230093C37A63B9032556
:105AE00060686A46036840F232315E680223B0475C
:105AF000013DF5D10123E3722046FFF731FF02B0EB
:105B000070BD4069704708B5B0F908000CF074F931
:105B100008BD08B5B0F90C000CF06EF908BD000026
:105B2000014B1878704700BFEF30002000000000E4
:105B300038B51D48FEF7F8FC05461C48FEF7F4FC96
:105B4000044628460BF08AFD13A3D3E900230BF08B
:105B5000EFFD13A3D3E900230BF034FC0CF042F863
:105B6000054620460BF07AFD0BA3D3E900230BF08A
:105B7000DFFD0BA3D3E900230BF024FC0CF032F87B
:105B80000446014628460CF047FB08B1284638BDBC
:105B90002046FCE7AFF300801213371BE91495BFD2
:105BA000988F7B2556484C40082E0020042E00205C
:105BB00038B505460C461A4807210AF023FB072191
:105BC000184A17480AF0A0FB2A46072114480AF091
:105BD000A4FBA2B2072112480AF0AFFB072110482C
:105BE0000AF077FB07210E480AF054FB0022072138
:105BF0000B480AF042FB0022072109480AF030FB5B
:105C00004FF48052072106480AF01DFB0448072183
:105C10000AF068FBBDE8384003480BF08DB900BFBF
:105C200000000240044400400044004010B5044617
:105C3000062119480AF0E6FA0621184A16480AF021
:105C400063FB0621164A14480AF067FBA2B206213C
:105C500011480AF072FB06210F480AF031FB0621B9
:105C60000D480AF017FB002206210B480AF005FB3D
:105C70000022062108480AF0F3FA0022062106480D
:105C80000AF0E1FA044806210AF02CFBBDE81040B6
:105C900004480BF04CB900BF00000240044400402F
:105CA0005E3000200044004038B504463220FDF745
:105CB0006BFD00B20228E0811FD1344D344B2878AF
:105CC000002832D141F65832B4F90C10914201DD6E
:105CD00001221A7019782F4A884248D00123137084
:105CE0002D4B93F900002D4B10B918780130187026
:105CF0001878042822D108B2E081012808D1284868
:105D0000FBF7FAFD2748FBF7F7FD2748FBF7F4FD03
:105D1000B4F90E30C3B92248FBF7EEFD2148FBF77A
:105D2000E7FD2148FBF7E4FD0EE00128D2D1B4F9EC
:105D30000C20B2F5FA6FCDDA0022CAE7052803D1AC
:105D40002970002119701170B4F90E30032B0DD198
:105D5000AF20FDF719FD013011480DD1FBF7CCFD47
:105D60001048FBF7C5FD1048FBF7C2FD38BD002306
:105D700000B2E0811370C0E7FBF7BEFD0948FBF7F6
:105D8000BBFD0948FBF7B8FDF0E700BFEC30002091
:105D9000EB300020EE300020ED300020EA30002013
:105DA000682D0020782D0020702D002000000000BC
:105DB0002DE9F74F064612208846FDF7E5FC8E4B8D
:105DC000C4B21B78012B40F0B4803046FFF76CFF63
:105DD00040468A490CF064F889490CF015F90CF03A
:105DE0003BFA884D884F95F900A0388050460CF05A
:105DF00003F841460CF054F80BF042FC7CA3D3E9C5
:105E000000230BF095FC0BF0EDFE804981460CF071
:105E100047F87B490CF0F8F80CF01EFADFF8F0B107
:105E2000DFF8F0819BF800203062A8F80000002A1B
:105E300000F0D880BAF1000F2EDD2320FDF7ACFC76
:105E4000019095F900000BF0D7FF73498246019845
:105E50000CF026F8014650460BF018FF0CF0FCF948
:105E600040B200283DDB6328287015DC9BF8003029
:105E700093B92320FDF790FC824695F900000BF0C2
:105E8000BBFF51460BF004FF0CF0E6F940B264286A
:105E9000CABF642328702B70B6F90E3023BB0021D3
:105EA00048460CF09BF9F8B1B8F900000BF0D6FBAE
:105EB00000225A4B0BF03CFC0BF04CFEA8F8000003
:105EC000B7F900000BF0CAFB0022544B0BF030FC7A
:105ED0000BF040FE3880032C14D8DFE804F00B10E0
:105EE0000E1B00222A70C1E7032C0BD8DFE804F058
:105EF0000207050D336A002B04DA434B00E0454BE3
:105F000000221A8003B0BDE8F08F484644490CF0E7
:105F100083F910B900233B80F4E748460CF09CF964
:105F200041F2171332385843322390FBF3F0388094
:105F3000E8E7022B1ED1354940460BF0B1FF30494E
:105F40000CF062F80CF088F9324A03B2138013EBBC
:105F500083032D4948BF03339B1030620B800CB97B
:105F6000A042C9E7012C02D100231380CAE7022C0A
:105F7000C8D1C2E7032BC5D1244940460BF090FF9E
:105F80001F490CF041F80CF067F9224A03B2138064
:105F900013EB83031C4D48BF03339B1030622B80EF
:105FA000032CAFD801A353F824F000BFBD5F000855
:105FB000FF5E0008FB5E0008C15F000800289BE749
:105FC000404617490CF028F908B928809AE740465E
:105FD0000CF042F941F2171332385843322390FB48
:105FE000F3F0F2E7BAF1630F3FF756AF41E700BFB6
:105FF0007B14AE47E17A843FF930002000B8884531
:106000000000C842ED300020F230002000C05A45A8
:10601000EE300020F03000200000A0400000E03F03
:106020000000484210B58120FDF7AEFB08B902F030
:1060300063FF8120FDF7A8FB012841D12148FBF730
:106040003DFC0146C220FDF7BFFB1F48FBF736FCB5
:106050000146C320FDF7B8FB1C48FBF72FFC0146A7
:10606000C420FDF7B1FB1948FBF728FC044616488D
:10607000FBF724FC84F0010380F001046400114864
:1060800044EA8304FBF71AFC80F0010044EA0003B1
:106090005BB20F4C062B237003D10021C720FDF704
:1060A00093FB2378052B03D10121C720FDF78CFB3F
:1060B0003320FDF769FBBDE8104080B202F01CBF41
:1060C00010BD00BF602D0020582D0020502D002055
:1060D000F4300020034B1B78012B01D1FFF7A2BF46
:1060E000704700BFF930002000220B4870B51346FE
:1060F00005468C1E944209DC294411F8012C285DC8
:1061000040EA0220C31A5842584170BD10F8016B92
:10611000013233449BB2EDE75E300020002070B5C1
:10612000084C034622468D1E854205DC53550A4421
:106130001B0A02F8013C70BD14F8016B01303344B6
:10614000F2E700BFE9220020F8B5B94D04462B78EC
:106150000E2B3ED8DFE813F00F0016003B003E0088
:106160007600B800BA00D900DB00070160018601A3
:106170009F01A101CA016420FFF758FDAD48FBF75C
:10618000BBFB1EE0AC4CAB48FBF7B2FB23787BB902
:1061900002220721A9480AF04CF890B107210222F7
:1061A000A6480AF040F85021A548FFF701FD08E095
:1061B0005021A448FFF7FCFCA34B5B7823B90123D3
:1061C00023702B78013303E02378013BF8E70323A6
:1061D0002B70F8BD6421FFF787FF9B4E9B4F38B9AA
:1061E000014638706081A081B720FDF7EDFA23E009
:1061F0000222062191480AF01CF80028F0D0022261
:1062000006218E480AF00FF801233B70B6F8523091
:10621000053B03EBD3735B10238196F92A000BF047
:10622000EBFD606196F956000BF0E6FDF388A06186
:106230006381B6F81F30A381002386F8623086F8A8
:106240006330BEE7824EA820B6F90010FDF7BCFA15
:106250006189A2897A4B0A44712112B292FBF1F250
:106260007C491A70B1F900200978880083F84B0046
:106270009011524212129A711A73B6F900204942D3
:106280005971D9729A76110A83F82020782283F8FE
:106290003F20EC2283F840206C2283F841206B22BF
:1062A00083F84C00D97683F821102046502183F8DA
:1062B0004220FFF733FF684A1388642B8CBF00230A
:1062C00001331380002383E7782055E75A4C59485F
:1062D000FBF70EFB2378052B0ED902220721574826
:1062E00009F0A7FF00283FF46CAF072102225348B2
:1062F00009F099FF642157E76421584801FB030026
:10630000FFF756FC237801335AE7082360E778212A
:10631000FFF7EAFE4C4E4D4F00283FF461AF0222DA
:106320000621464809F085FF00283FF459AF0222B4
:106330000621424809F077FF01233B70B6F864302C
:10634000053B03EBD3735B10238196F914000BF02C
:1063500053FD6061B6F856000BF04EFDF388A06166
:106360006381F38C67E73A4EA820B6F90010FDF779
:106370002BFA384B206AB3F90020314B11125A71B5
:10638000DA72B6F900209971197300284FEA1221C8
:106390009A77D97736DD9A7602EBD27252101A7755
:1063A000120AD9765A77752183F84A10122183F898
:1063B0004B106021402283F84C10252183F848209F
:1063C000042283F84D10522183F8492083F84F208E
:1063D000892283F84E10224983F8562083F85820EA
:1063E0000A78204601320A70D20748BF93F85E202F
:1063F0004FF0640144BF013283F85E20FFF78EFE48
:106400000523E5E6CFD01A7702EBD27252109A76C6
:10641000120A5977DA76C6E78120FDF7B5F9012827
:106420001CBF0022044B4FF08C0018BF1A70A3E66B
:10643000F8300020482D00205223002000000240A8
:10644000E9220020294301085E300020EF300020BF
:10645000F0300020F2300020F63000202D20002007
:10646000F5300020384C3948FBF742FA2378062BE8
:106470000ED902220721364809F0DBFE00283FF43E
:10648000A0AE07210222324809F0CDFE69218BE639
:106490006921304832E70D239AE68C21FFF724FE6C
:1064A0002D4E08B302220621294809F0C2FED8B1B8
:1064B00002220621264809F0B6FE01233370274E3A
:1064C000B6F875305B10238196F914000BF094FC3C
:1064D0006061B6F819000BF08FFC7389A0616381CD
:1064E000B6F82B30A3816CE630706AE61C4EA8200B
:1064F000B6F90010FDF768F91A4B2046B3F90020F1
:10650000194B524211125A71DA72B6F90020997180
:10651000DA77121283F820209A7E197383F82520E7
:10652000DA7E692183F82620782283F84F20EC2236
:1065300083F85020102283F85120272283F852201C
:10654000FFF7ECFD0A2343E652230020482D0020EC
:1065500000000240B71D0020EF3000205E30002018
:10656000F0300020F2300020E922002038B5037F0F
:1065700004468B420D460AD051B16120FDF704F963
:1065800008B9FCF7A7FEFCF7DBFE0123237738BD33
:106590004FF080400AF010FB2577F8E708B501219D
:1065A000FFF7E4FF0B4B1A78042A04D805221A706F
:1065B0000022094B1A7000230849094A11F8010BFF
:1065C0000133642B02F8010BF8D10222054B1A703B
:1065D00008BD00BFF8300020522300205C420108B3
:1065E000E9220020F930002008B50121FFF7BEFFA5
:1065F000064B1A78042A04D900221A700122044B8F
:106600001A700122034B1A7008BD00BFF830002039
:1066100052230020F9300020012108B5FFF7A6FF22
:106620000A4B0B491A78092A9CBF0A221A700022C9
:10663000084B1A706923084A11F8010B013B02F854
:10664000010BF9D10322054B1A7008BDF830002068
:10665000C042010852230020E9220020F930002026
:106660000021FFF783BF01817047000008B508468D
:106670000BF0F2FDA622A0F10F035343412293FB3E
:10668000F2F3024A5833138008BD00BFFA300020ED
:10669000BA20FDF78FB810B50446002261600846A5
:1066A00040F2531100F0E1FD60680022BDE81040A7
:1066B00040F2F31100F0D9BD40F25313994210B5E6
:1066C000044610D1B2F80100A0F5B0700BF094FBB5
:1066D0004FF076510BF0E4FB0146A720FDF782F85E
:1066E0000123E37203E040F2F3139942F8D010BDA6
:1066F00010B50446C07A10B90348FBF7DFF8002351
:106700002073E37210BD00BF082D002008B50248B9
:10671000FBF7D4F808BD00BF082D002007B540F2F4
:10672000EE22038940F21631934238BF1346052208
:10673000ADF8002041F65832934228BF13460A2292
:106740009B01B3FBF2F3ADF8023000236A460193DC
:1067500040680823FEF7B2FC03B000BD13B5154A2C
:106760000024137814498DF80030144B01941B88D1
:106770008DF80130C523ADF802300B780133DBB260
:10678000152B0CD80B7063B91123137008236A46BC
:1067900040F229314068FEF791FC02B010BD0C7048
:1067A000F2E7082B01D18623EFE70F2BEED1D92397
:1067B000EBE700BFFE300020FF300020FA30002061
:1067C000462313B5ADF80430002340688DF8063039
:1067D000036840F23B415C6801AA0323A04702B072
:1067E00010BD000007B50C4A40F2455113884068BF
:1067F0000133138000228DF801301B0A8DF802301E
:10680000064B8DF800208DF8032001936A4608237B
:10681000FEF754FC03B000BDFC3000207E100018D1
:1068200007B5C9B1012919D001310CBF07230823CD
:106830008DF801304FF6FF738122ADF80230084B1E
:106840008DF8002001936A46082340F23F414068DA
:10685000FEF734FC03B000BD0623E9E70523E7E7B4
:106860000080FFFF037B10B50446BBB1FFF756FF66
:106870002046FFF773FF2046FFF7B4FF2046FFF7DF
:106880009FFF0320FCF796FF40B1AF20FCF77CFF91
:1068900041B22046BDE81040FFF7C2BF10BD0181E4
:1068A00070477047BA20FCF785BF000008B5084B59
:1068B000186899889B792BB109F0ABFEB0FA80F08B
:1068C000400908BD09F0A5FE003818BF0120F8E70F
:1068D000082D002030B51F4A1F4B89B0CDE9012398
:1068E0001E491F4B1F4CCDE903131F4B1F4D059332
:1068F0000023ADF8193023784FF4B06163F07F03C3
:106900008DF818302B68406820336B4413F81C2C2A
:106910008DF81B2013F8182C8DF81C2013F8142C5C
:106920008DF81D2013F8102C13F80C3C8DF81E2048
:106930008DF81F3006AA0823FEF7C0FB2B68013331
:1069400003F003032B602378013303F00F0323705C
:1069500009B030BD0F287F281E1000107056F05669
:106960000C48A748003100204690289004310020B0
:1069700037B540F2EE2203890025934238BF134613
:1069800041F65832934228BF1346044603819A00C9
:106990009B09CDE900554FF420718DF803308DF837
:1069A000042008236A464068FEF788FB08236A46ED
:1069B0004FF4227160688DF803508DF80450FEF793
:1069C0007DFB03B030BD000008B5034BB3F90000F8
:1069D0000BF012FA08BD00BF1431002008B5034BBC
:1069E000B3F900000BF008FA08BD00BF1631002013
:1069F00008B5024B18880BF0FBF908BD1A310020CE
:106A000008B5034BB3F900000BF0F6F908BD00BF61
:106A100018310020064B1A78064B0AB91A7001E0AB
:106A2000012AFBD0044A126802B91A70187870471C
:106A300010310020113100200C31002010B5044627
:106A40000022616008464FF4C87100F00EFC00227D
:106A50004FF4CD71606800F008FC00224FF4D27151
:106A6000606800F002FC60680022BDE810404FF44E
:106A7000D77100F0FABB00002DE9F3410646084645
:106A800035490BF00DFA0BF0E7FB344B01B2A820AF
:106A90001980FCF799FE8120FCF776FE0546BC20A4
:106AA000FCF788FE00284DD06B1E5C425C41E40080
:106AB000BD20FCF77FFE28B104F11003DBB2012DED
:106AC00008BF1C46BB20FCF775FE012D04EB8004BB
:106AD0003AD1234A138813B1013B13800234AA2010
