:020000040800F2
:1010000000500020BDF30008B9F30008B7F3000852
:10101000B7F30008B7F30008B7F3000800000000BA
:10102000000000000000000000000000B9F300080C
:10103000B9F3000800000000B9F30008B9F3000894
:10104000B7F30008B7F30008B7F30008D926000883
:10105000B7F30008B7F30008B7F30008B7F30008C8
:10106000B7F30008B7F30008B7F30008B7F30008B8
:10107000B7F30008B7F30008B7F30008B7F30008A8
:10108000B7F30008B7F30008B7F300087983000846
:101090005983000869830008B7F30008B7F3000814
:1010A000B7F30008B7F30008B7F30008B7F3000878
:1010B000B7F30008B7F3000889260008B7F3000863
:1010C000B7F30008B7F30008B7F30008B7F3000858
:1010D000B7F30008B7F30008B7F30008B7F3000848
:1010E00095260008B7F30008B7F30008B7F3000827
:1010F000B7F30008B7F30008B7F30008B7F3000828
:10110000B7F30008B7F30008B7F30008B7F3000817
:10111000B7F30008B7F30008B7F30008B7F3000807
:10112000B7F30008B7F30008B7F30008B7F30008F7
:10113000B7F30008B7F30008B7F30008A583000869
:101140008583000895830008B7F30008B7F300080B
:1011500010B404466468084611461A46234610BC7B
:101160001847836818477047704770477047704743
:1011700041607047704770477047704770477047CD
:1011800070470020704700207047000000487047FB
:101190000000484200207047416070477047704728
:1011A0007047704770470020704741607047704734
:1011B0007047704770477047002070477047416024
:1011C00070470020704770477047704770477047FE
:1011D000002070477047416070477047002070479B
:1011E00070474160704770470846704770477047C6
:1011F0007047704700487047003C1C46416070478C
:10120000704770477047704770474160704770473C
:101210000020704700207047002070470020704772
:101220000020704770477047104B10B5186803686E
:101230001B6898470E4B186803681B6898470D4B4E
:10124000186803681B6898470B4B186803681B688D
:1012500098470A4B186803681B689847BDE8104018
:10126000074B186803689B68184700BF18000020E8
:10127000140000200C0000201C00002010000020A2
:101280000400002010B5174C206803689B6998473C
:10129000052002F097F92346062818D8DFE800F069
:1012A000040A0C0E1012200000210F4A11700F4A80
:1012B0001A600CE00E4AFBE70E4AF9E70E4AF7E720
:1012C0000E4AF5E70E4A0F4B226001221A700E4CAF
:1012D000206806F003F86068BDE8104005F0FEBF26
:1012E0000A4AE5E70C0000206C2600209429002023
:1012F000082A0020B029002070260020082700209E
:10130000BC290020282800203828002000270020A1
:1013100010B5114C20680368DB699847042002F07F
:1013200051F92346042806D8DFE800F003100E1216
:1013300014000A4A1A600A4C206805F0CFFF606862
:10134000BDE8104005F0CABF064AF3E7064AF1E7D8
:10135000064AEFE7064AEDE71C000020A829002016
:1013600038280020742A0020882900209C29002089
:101370006C2A002010B5124C206803685B689847FF
:10138000062002F01FF901382346052815D8DFE8AA
:1013900000F00310100E12120A4A0B4C1A6020685B
:1013A00005F09CFF6068BDE8104005F097BF074A54
:1013B000F3E7074AF1E7074AEFE7074AEDE700BF1F
:1013C00000000020E429002038280020D429002033
:1013D0007C28002038290020DC29002010B50B4C87
:1013E000206803685B689847442002F0EBF8012806
:1013F00014BF074B074B2360074C206805F06EFFB6
:101400006068BDE8104005F069BF00BF040000201F
:101410003C2A00205C2A002038280020022010B539
:1014200002F0D0F801380D4B032803D8DFE800F0B4
:101430000D0F11130A4A0B4C1A60206805F04EFF7D
:101440006068BDE8104005F049BF074AF3E7074A66
:10145000F1E7074AEFE7074AEDE700BF1000002079
:10146000F8260020382800201C2700204C260020C9
:10147000582600201027002010B5012002F0A2F805
:1014800009280FD8DFE800F0171C2B0E05091F22D2
:101490002528144B144A1A6004E0124A134B1360B7
:1014A00000229A72124C206805F018FF6068BDE8AF
:1014B000104005F013BF0B4A0C4B13600122F0E7FC
:1014C000084B0C4AE7E7074B0B4AE4E7054B0B4A8E
:1014D000E1E7044B0A4ADEE7024B0A4ADBE7014B2D
:1014E000094AD8E714000020EC2600208C260020B2
:1014F000382800209C260020D42600200029002027
:1015000078260020B826002048280020036810B55F
:101510009B6898470FF0B6F800240146902002F02F
:1015200071F821468B2002F07BF821468C2002F0D6
:1015300077F821468E2002F073F82146BDE810406E
:101540008F2002F06DB8000010B51D4C20680368B4
:101550009B6A9847002002F035F8234609280FD8E7
:10156000DFE800F005080A0E271C2117292B154A71
:101570001A6005E0144AFBE71448206005F032F8D1
:10158000134C206805F0AAFE6068BDE8104005F025
:10159000A5BE0E48206005F03DF8F1E70B4820603D
:1015A00004F0FCFFECE70B4A1A6001220A4B1A70A8
:1015B000E6E70A4ADCE70A4AF6E70A4AD8E700BF44
:1015C0001800002064260020102A0020DC280020BB
:1015D0003828002058280020282800202C2A002005
:1015E00018290020B028002010B5144C206803688A
:1015F0001B6998474B2001F0E5FF2346032805D8D7
:10160000DFE800F0020D0F160D4A1A600D4C20683D
:1016100005F064FE6068BDE8104005F05FBE0A4A50
:10162000F3E70A4B0A48196820600BF00BF9EDE765
:10163000084A094B226001221A70E7E708000020DF
:1016400044260020382800202C2800208029002053
:10165000482A00207429002028280020A82001F012
:10166000C7BF00002DE9F74F082001F0ABFF444C45
:1016700054F820100920019101F0A4FF54F82060D3
:101680000A2001F09FFF54F820500B2001F09AFF30
:1016900054F820B00C2001F095FF54F820200D20C4
:1016A000009201F08FFF54F820A00E2001F08AFF75
:1016B00054F82080102001F085FF54F8209011206C
:1016C00001F080FF2F4B54F82070186801990368CF
:1016D000DB6A98472C4B314618680368DB6B9847E8
:1016E0002A4B009A186811460368DB699847284B13
:1016F0005946186803681B6A9847264B5146186874
:1017000003681B699847244B4946186803685B695E
:101710009847224B3146186803689B6998474146B1
:101720001F4809F027FF1F4B3946186803685B699B
:101730009847072001F046FF012802D1284603F010
:10174000D3FA072001F03EFF022802D1284609F013
:1017500019F9072001F036FF032802D1284609F0C5
:10176000E3FA002240F20161606805F09AFD002270
:1017700040F20161206803B0BDE8F04F05F091BD73
:101780003828002018000020140000200C00002041
:101790001C00002000000020040000201000002099
:1017A000042A00200800002038B540F2DF73984278
:1017B00004460D4606D10A4601462C4809F0E2FED1
:1017C000002038BD072001F0FDFE012803D1294685
:1017D000204603F067FB072001F0F4FE022803D146
:1017E0002946204609F00EF9072001F0EBFE0328F8
:1017F00003D12946204609F0C7FA1D4B2A4618682E
:1018000021460368DB6898471A4B2A461868214628
:1018100003681B699847184B2A46186821460368D5
:101820001B699847154B2A461868214603681B69AF
:101830009847134B2A461868214603681B68984747
:10184000104B2A461868214603681B6898470E4BC0
:101850002A461868214603681B6998470B4B2A469D
:101860001868214603681B689847A9E7042A0020E6
:1018700018000020140000200C0000201C00002094
:1018800000000020040000201000002008000020BC
:1018900008B5034699889B7900682BB10DF0E1F8F3
:1018A000B0FA80F0400908BD0DF0DBF8003818BF31
:1018B0000120F8E708B50248FFF7EAFF08BD00BFBE
:1018C000682C0020818800680DF0C6B88188006807
:1018D0000DF0C4B82DE9F843A64BA74D99881868B8
:1018E0000DF0C2F80DF0CAF8A44BA54E186801F02F
:1018F00035FE0EF097FCA3490EF09CFD0146D12069
:1019000001F08EFE06F0AAFA01467A2001F07AFE76
:10191000782001F057FE29680446306806F006FF7B
:10192000072001F04FFE08B107F0A0F93068964F8C
:1019300003689B6A98470146A62001F063FE306861
:101940000368DB6A98470146A42001F069FE07F0AE
:10195000C1F9386803689B689847306803689B68DA
:1019600098478A4B186803689B689847884B1868A3
:101970000368DB689847874B186803681B699847BA
:10198000286803689B689847834B186803689B69BD
:101990009847824B186805F0EFFC814B1B780BB120
:1019A0000BF0C2FC9E2001F00DFE7E4D0028686AFF
:1019B00080F2A980FFF786FF012C286940F0A680FD
:1019C000FFF780FF3868DFF808820368DFF80492C9
:1019D0009B69984701469F2001F022FE3868036802
:1019E0005B6998470146A02001F01AFE3868036839
:1019F0005B6A98470EF016FC0146B32001F010FE1A
:101A000038680368DB6998470146822001F008FEC8
:101A1000306803685B6B98470146B22001F0F2FD25
:101A2000614BA120196801F0EDFD604B1B78012B83
:101A300004D0042B02D098F8003023B1D9F800006C
:101A400003689B689847D9F80000594F03683978B4
:101A50005B699847064600285BD0012C1EBF012217
:101A6000544B1A70012388F80030A86A524B9842F0
:101A700005D0FFF70DFF0146CA2001F0C3FD0BF0B2
:101A800009FC0BF01FFC042C01D0012C66D19F2017
:101A900001F0A0FD0646CD2001F09CFD0146304638
:101AA0000EF0D0FD002848D09F2001F093FD06469F
:101AB0006E2001F08FFD31460EF0A6FD00283ED0CD
:101AC000A86BFFF7FFFE042C01D0012C49D1E86B75
:101AD000FFF7F8FE002001F075FD092848D1012C20
:101AE00046D19E2001F06EFD344B354C1A6882427F
:101AF0003BD005221860226032480CF0C5FA2368FA
:101B0000013B236034E0FFF7E1FE55E7FFF7DEFE1F
:101B100058E798F800303BB10146792001F072FD9A
:101B2000244B88F800601E70D9F8000039780368EB
:101B30009B699847244B187097E7CD20B5E76E2036
:101B400001F048FD21490EF0B7FA31460EF07AFD5A
:101B50000028B8D0A86BFFF7B9FEB4E7A86BFFF771
:101B6000B5FEE86BFFF7B2FEB4E72368002BC3DCD9
:101B7000BDE8F883D82B0020100000207C2A00202C
:101B80001400002000002041180000200C0000205C
:101B9000000000200400002008000020B8290020D8
:101BA0002828002070300020B42E00207828002043
:101BB000A62900206C260020102C0020882A002056
:101BC000842A0020B0280020582A00200000A040CD
:101BD000442800201C0000202DE9F74F962001F03A
:101BE000F1FC8046782001F0EDFC04469E2001F0D7
:101BF000E9FC07460DF01CF906F0FCF8AA4BDFF8EB
:101C0000E0A2186803685B689847782001F0DAFC66
:101C10000128054640F0C1800FFA88F888EAE8708C
:101C2000A0EBE87080B206F04FFF002106460EF0F0
:101C3000EBFC98B1002001F0C5FC04280ED01E205A
:101C400001F0C0FC002840F0A280B8F1000FB8BF3E
:101C50004FF0FF35BD4218BF06F1004638460EF082
:101C6000E1FA31460EF032FB0546DAF8000003686F
:101C70005B689847DAF80000294603688B4E1B69B9
:101C800098479D2001F09EFC05462D2001F09AFC0E
:101C90008542306A80F28580FFF714FEDAF8000092
:101CA000834D03681B6A98470EF0ECFC07B2394677
:101CB000962001F0A7FC082001F084FC55F82000D4
:101CC00006F034FC012C00957A4D01D0042C08D18B
:101CD000286887EAE7710368A1EBE7719B6989B21D
:101CE0009847D5F800809F20D8F80030D3F81C9092
:101CF00001F070FC01464046C847286803685B68ED
:101D000098476D4B18680368DB6898476B4B1868F9
:101D100003685B689847042C46D1694B18680368D0
:101D20005B689847384606F07FFD8046992001F0B1
:101D300049FC0746132001F045FC8742CCBF4027F1
:101D40000027342001F046FC41460EF067FC0028D5
:101D500014BF002004200743242001F03BFC41462F
:101D60000EF070FC002814BF0020082007433946FD
:101D70007B2001F047FCDFF86CB1042C00F282807C
:101D8000DFE814F02800A301B60072018C01B8F15D
:101D9000000FA8BF4FF0FF355CE706F04FFF0025AE
:101DA00068E7FFF793FD79E7052001F00BFC0328B6
:101DB00004D1434B186803685B689847012CB1D184
:101DC000D02001F0FFFB411C01F00F01D02001F0F9
:101DD00019FCA7E70027DFF81081DFF810A13948C8
:101DE00088F800708AF80070FFF770FDB069FFF79F
:101DF0006DFD39469E2001F005FC286803685B698B
:101E00009847314A1770314F91463B88002B45D196
:101E10002F48FFF75BFDF069FFF758FD2D48FFF7EE
:101E200055FD992001F0CEFB0190132001F0CAFB73
:101E3000019B834215DA286803689B6B984780B141
:101E4000286803685B6B984758B10124192389F807
:101E500000403B800CF0ECFF88F8004002241E4B51
:101E600018601E4B1B784BB119233B800CF0E0FF30
:101E7000194B0224186001238AF80030214678208B
:101E800001F0C0FBF068FFF721FD0022DBF8000045
:101E9000114603682546DB689847A4E0013B9BB2E6
:101EA0003B80002BBDD1B3E71C0000207030002028
:101EB000382800201400002004000020100000201A
:101EC0000C000020D02B0020442A002020000020FD
:101ED000082C0020482C0020802A00206C2600209E
:101EE0001800002008000020F426002054280020BC
:101EF000874B1A789946002A40F09480DAF800203F
:101F0000844B9A4202D08448FFF7DCFCF069FFF76B
:101F1000D9FCB069FFF7D6FC804A13889246002BA3
:101F200040F08D807E48FFF7CDFC6FB97D4B1A786D
:101F3000002A00F08B801F70192339467D20AAF8F3
:101F40000030012401F05EFB774B1B7823B199F838
:101F50000030002B08BF0024744B1B7833B1286875
:101F600003685B6B9847002808BF0024342001F009
:101F700029FB0EF057F941460EF064FB68B10CF0F6
:101F800057FF6B4B1B680533984206D96448FFF72F
:101F90009DFC032005F034FF03242146782001F046
:101FA00031FB012C7FF46EAF4C2001F00BFB0128BC
:101FB00005467FF467AFF068FFF784FCDBF80000AC
:101FC0005C4903689B689847DBF800604D203368E4
:101FD000DF6801F0F7FA0446CA2001F009FBA1B25C
:101FE00002463046B847072001F0ECFA022808D133
:101FF0000A2001F0E7FA009B53F82010284608F069
:1020000013FD072001F0DEFA03287ED10A2001F03B
:10201000D9FA009B53F82010284603B0BDE8F04FD2
:1020200008F0ECBE072001F0CDFA00287FF46EAF77
:10203000DAF80020404B9A427FF468AF63E7013B37
:102040009BB21380002B7FF470AF6BE799F80030E0
:10205000002B3FF479AF192339467D20AAF80030D0
:10206000042401F0CFFA6FE700222E4B2C481A709F
:10207000FFF72CFC2C4B1B7823B1254B1B78002B36
:1020800008BF0024294B1B78002B86D028680368E2
:102090005B6B9847002808BF00247EE71F4D2B8804
:1020A0006BB92648FFF70EFC05F0CCFE184B1B78E9
:1020B000002B7FF4E3AEFA221C462A80DEE6013BC9
:1020C0009BB22B80002BEFD1EBE7144F3B88B3B9C9
:1020D0001A48FFF7F7FB1048FFF7F4FB78200121BF
:1020E00001F090FA05F0AEFE286803685B6B984734
:1020F00000287FF452AFFA2304463B804DE7013BB2
:102100009BB23B80002BE9D1E2E703B0BDE8F08F42
:102110006C2600202C2A0020D02B0020200000203C
:10212000482C0020442A002054280020F4260020B7
:10213000802A002000004842102A0020082C00209D
:102140002DE9F84F782001F03DFA05469E4BDFF867
:10215000C08218680368DB689847042D04D1D8F85A
:1021600000000368DB68984706F042FE974B984FE3
:102170001968C520DFF89CB201F044FAC62039681E
:1021800001F040FAC720DBF8001001F03BFA914B58
:10219000DFF884921968C8208F4E01F033FAC92005
:1021A000B9F8001001F02EFA3378CA46022B8B4C96
:1021B00040F0E9808A4B1B78002B40F0E480042D2E
:1021C00000F0BE8087493A68097891420AD1864971
:1021D000DBF800200978914204D1B9F80030003BC7
:1021E00018BF01232370CEE0012B40F0D5800023DF
:1021F000D1E0682001F0E6F9012800F0D380D8F89A
:1022000000007A4A036812785B692178984708B120
:10221000012D12D1764B1E78AEB93146792001F0EE
:10222000F1F9744B1E700EE03378012BE7D16C4A44
:102230001278002AE3D12370E1E701216D4B792068
:10224000197001F0DFF96C4E3378022B07D1684B1F
:102250001B7823B1694B18680368DB6898473378AB
:10226000012B02D9033B012B0AD8644F386803685D
:10227000DB68984733781BB938680368DB68984790
:10228000042D2BD15A4B1E781EBB7E2001F09AF9EB
:102290000546392001F096F985420CDB862001F0D5
:1022A00091F905463B2001F08DF98542DFBF0122FF
:1022B0004B4B26701A70524B186803689B689847FE
:1022C00000210EF097F920B1002301222370444B26
:1022D0001A704C4B586BFFF7F9FA26E0012DF8D134
:1022E00000223F4B67201A7001F06CF9022817D1C9
:1022F0006A2001F067F906466B2001F063F9424B52
:102300000546986802F033F801460446D32001F0F0
:1023100079F9AE420BDCA642DBDCA54205DA0AE025
:10232000682001F04FF90228E2D0BDE8F88FA642FC
:10233000CFDBA542F9DD334B586BFFF7C3FAF4E767
:10234000324FDFF8D8903B683BB1D9F80020013B11
:1023500001323B60C9F8002043B9002355202370A7
:1023600001F030F94FF4967343433B60D9F80030E5
:10237000B3F5967F07D10023C9F80030BAF80030D2
:10238000013BAAF800303378002B7FF42DAF144BBB
:102390001B780BB901232370672001F013F9012882
:1023A0007FF427AF692001F00DF9174B814658687B
:1023B00001F0DDFF07460146D22001F023F9B945BF
:1023C000BFF632AF002336E7140000208429002036
:1023D00090290020342A0020A5290020A6290020C9
:1023E000A429002042260020E0260020582A0020B0
:1023F000442800206C260020782800201C000020A3
:102400000000002070300020BC300020382A00205E
:102410000C000020282A002040260020AC280020A4
:10242000FEE700000C2838B510D80C2819D8DFE8D2
:1024300010F0D000D300E5001800D900D600DF006E
:102440001800E800E800E800E800E8004B2800F089
:10245000CC8000F2B280372800F0DB80442800F006
:10246000CA801E2001F0AEF840B1002001F0AAF8A9
:10247000082803D000211E2001F0C4F8132001F029
:10248000A1F8664D664C2860142001F09BF820608E
:10249000152001F097F86860162001F093F860604D
:1024A000172001F097F85F4D5F4C2860182001F06D
:1024B00091F820602E2001F08DF85C4B21681860A7
:1024C00028680EF0A1F850B1594917202960594DDC
:1024D000256001F0A5F82946182001F0A1F819207F
:1024E00001F078F8544B554C1860292001F072F82F
:1024F000534B18602A2001F06DF8524B18602C20C5
:1025000001F068F8504B1860212001F05BF84F4B48
:1025100018601B2001F05EF84D4B18601F2001F081
:1025200059F84C4B18602B2001F054F84A4B1860B6
:102530001A2001F04FF8494B1860052001F042F8CD
:10254000042001F03FF8464B18702378012B22D16C
:10255000522001F037F8434B1860512001F032F857
:10256000414B1860502001F02DF8404B18604F206F
:1025700001F028F83E4B1860532001F023F83D4B42
:102580001870542001F01EF83B4B1870552001F0D4
:1025900019F83A4B1880402001F014F820705520AB
:1025A00001F010F84FF496734343354A136008F076
:1025B00087F9BDE8384008F0B9B9612805D85E2828
:1025C0007FF64FAF00F018FE4BE771380428F9D9B9
:1025D00047E7FEF7B9FF44E7FEF74EFF41E7FEF796
:1025E00051FE3EE7FEF794FE3BE7FEF7FDFF38E7BE
:1025F000FEF7C0FE35E7FEF7F1FE32E7FEF70EFF0D
:102600002FE7204C206804F069FE606804F066FE45
:1026100027E704F04BFC04F037FC22E7782E00207B
:10262000702E00208C2E0020542E00205C2E0020C6
:102630000080BB440000C842902E0020A529002045
:10264000982E00209C2E0020A82E00204C2E00202A
:10265000A42E0020602E0020582E0020482E00209E
:1026600078280020342A0020282A002090290020E1
:102670008429002042260020E02600204026002059
:10268000382A002038280020014B186800F02EBF9F
:102690007C2A002000B589B003A804F087FC28B18B
:1026A000DDF815300193DDF81930029304F0F9FBE1
:1026B0004FF400400CF096F80499A1F58473012BB7
:1026C00005D8044B01AA186803681B69984709B02C
:1026D0005DF804FB1C00002008B500200CF0DEFBB8
:1026E000104B1A6801323B2A1A600F4A05D911684B
:1026F0000131116019683C39196013683B2B0B4B91
:1027000005D919680131196011683C3911601A68DE
:10271000172A06D906490A6801320A601A68183A67
:102720001A6008BD342A0020282A002090290020A1
:1027300084290020F0B5ADF68C2D00F0A3FB00F04D
:10274000D1FC0022C349C44801F052FE0122C14914
:10275000C24801F04DFE0122C149C24801F048FEC5
:102760000222BC49C04801F043FE0322B949BF48D8
:1027700001F03EFE0522B749BD4801F039FE0422B2
:10278000B449BC4801F034FE0B22B249BA4801F00A
:102790002FFE04232022B949B94801F098FB0423F5
:1027A0008022B649B74801F092FB04234FF400425F
:1027B000B549B64801F08BFB04231022A849B44860
:1027C00001F085FB04230822A549B24801F07FFBF4
:1027D0000125072380229F49AF4801F078FB07239A
:1027E0000422AE49AE4801F072FB07234FF40042C9
:1027F000A249AC4801F06BFB07234FF480429F498C
:10280000A94801F064FB07234FF400529B49A748F5
:1028100001F05DFB07234FF400729849A44801F0D2
:1028200056FB07234FF480729449A24801F04FFBF6
:1028300007234FF4806291499F4801F048FB07232A
:102840004FF400628D499D4801F041FB072340226F
:1028500080499B4801F03BFB07234FF480728A4973
:10286000984801F034FB07234FF4007279499648E9
:1028700001F02DFB07234FF480727649934801F055
:1028800026FB07234FF480527C49914801F01FFB3F
:102890000523082281498F4801F019FB05231022E6
:1028A0007E498D4801F013FB052320227B498B488C
:1028B00001F00DFB072340227849894801F007FB0E
:1028C000072308226D49874801F001FB07230422F2
:1028D0006A49854801F0FBFA07234FF480526049AA
:1028E000824801F0F4FA07234FF480426B49804894
:1028F00001F0EDFA0723012259497E4801F0E7FA79
:102900000723802260497C4801F0E1FA0723402236
:102910005D497A4801F0DBFA0423402257497848A0
:1029200001F0D5FA042310225449764801F0CFFA79
:10293000002380225949744801F0C9FA01F0A6FC2D
:1029400072494FF000700CF07DF800F059FB00F078
:1029500089FB05F021FA00F0F5FA00F021FB00F008
:102960004BFCD820FFF75EFD5648FEF7AFFF6048EE
:10297000FEF7ACFFC4AC0023654A6649009539A850
:1029800000F0F0FE0DF26C5700230222204662494F
:1029900005F03AFC022261492B46384605F034FC2A
:1029A0005F4B0F2004935F4B5F4E05935F4B069385
:1029B00000F008FE2A4600280CBF214639460DF5D6
:1029C000F96005F06DF90DF5F962214619A808F0D6
:1029D000AFFE032119A808F0C9FE204604A9C6E9E4
:1029E000004704F04FFC04A9384604F04BFC504B60
:1029F0000DF5F9621A604F4B0A201A6000F0E2FDF3
:102A000056F820700E2000F0DDFD07AC56F82010BF
:102A1000494808F0AFFD04F049FA04F035FA4FF4E4
:102A200096424649204609F083FD454B1C600FAC99
:102A3000FEF78AFDFEF720FDFEF724FCFEF768FC9A
:102A4000FEF798FCFEF7D0FDFEF7C8FCFEF7E6FCAB
:102A500078E000BF00100140502D0020542D0020D0
:102A6000000C0140802C0020702C0020742C0020D1
:102A7000442D0020482D00204C2D00200014014042
:102A8000802B0020502C002000080140002C00204A
:102A9000902B0020A02B0020082C002000180140C3
:102AA000D82B0020B82B0020C02B0020C82B0020E2
:102AB000582C0020602C0020402C0020382C0020B6
:102AC000482C0020D02B0020A82B0020B02B002069
:102AD000882B0020182C0020202C0020282C0020DF
:102AE000F82B0020E82B0020F02B0020982B002052
:102AF000E02B0020782B0020702B0020682B00207A
:102B0000682C0020302C0020102C0020C000400039
:102B1000041B0108004800400064004000680040B9
:102B2000C4070108A9170008382800206516000806
:102B3000E02F0020B8290020042A0020003801409E
:102B4000802900201C49204600F07AFC1B4B2A46B5
:102B500020461B491C6000F093FC0A2220461949BC
:102B600000F08EFC64222046174900F089FCC82240
:102B70002046164900F084FC702000F023FDA84296
:102B800002D1384602F012F90421772000F03AFD14
:102B90000021782000F036FD4FF0000439A88DF8B0
:102BA0000F4000F095FF1E9B002BF7D10DF10F0198
:102BB0001AA806F0F5FAF1E7000800407C2A002088
:102BC00029120008D91B0008D51800084121000867
:102BD00010B50024574B584A1C741A60574B584A7A
:102BE0001C721A60DC721C73564A574B57481A60A5
:102BF0001C72DC721C73564A564B1A60564B574A6D
:102C00001A6007F053FE564B564A1C621A601C7736
:102C1000554A564B56481A60564B574A1A60574BFE
:102C2000574A1A60574B584A1A60584B584A1A600C
:102C3000584B594A1A60594B594A1A60594B5A4ACB
:102C40001A605A4B5A4A5C751A60DC82594A5A4BD0
:102C50001A605A4B5A4A1A605A4B5B4A1A605B4BCD
:102C60005B4A1A605B4B5C4A1A605C4B5C4A1A60B8
:102C700004F0ECFA5B4B5C4A5C481A6007F048FCD5
:102C80005B4B5C4A5C491A605C4B5D4A5D481A606C
:102C90005D4B5E4A1A605E4B5E4A1A605E4B5F4A4D
:102CA0001A605F4B5F4A1A605F4B604A1C721A6081
:102CB0005F4B604A1A60604B604A1A60604B614A21
:102CC0001A60614A614BC2E9024413600023136138
:102CD00053619361D3615E4A11605E4A5E49C2E905
:102CE00004441160C2E90644136253629362D362E2
:102CF0005A495B4AC2E902441160C2E90444D36103
:102D0000136253629362D36213635363554B14830C
:102D10009363554B554A1A60554B564A1C731A60BB
:102D2000554B564A1A6009F0FDFBBDE81040544867
:102D30000BF0A0B978260020142701089C2600205B
:102D4000A01B0108E81B0108B8260020002900206C
:102D50009C1D01088C260020D4260020E41D0108BB
:102D6000DC280020641D0108D8200108102A00205A
:102D70005828002070260020D825010808270020A8
:102D80000426010800270020AC270108A8290020FC
:102D9000F80701089429002024080108082A0020C7
:102DA00030260108B029002030250108BC29002068
:102DB000A8260108E0240108742A002088290020A0
:102DC000B42401089C290020802701086C2A0020D7
:102DD000942901082C2A00202C1E010864260020BA
:102DE000D408010844260020500801082C2800209F
:102DF00074290020642A0108E4290108E42600203F
:102E0000B0080108182900201C2700205C270108B1
:102E100010270020C02901084C2600206428010842
:102E200058260020E8280108482A002040280108E8
:102E3000EC2600200C09010848280020002A01087F
:102E4000DC29002074080108E42900208C260108F0
:102E5000D42900207C28002070260108482A010877
:102E6000382900200000FA433C2A0020900801087D
:102E70005C2A0020F4260108F8260020D407010867
:102E8000B028002008B50BF011FF02200BF0E6FE81
:102E90002A4B2B4A40F202301A600BF04DFF40F2F1
:102EA00003300BF049FF4FF441700BF045FF40F247
:102EB00005300BF041FF40F206300BF03DFF40F2D1
:102EC00092300BF039FF40F291300BF035FF40F2B9
:102ED0000E300BF031FF40F20B300BF02DFF4FF4B2
:102EE00060700BF029FF40F281300BF025FF40F2BB
:102EF00082300BF021FF4FF420700BF01DFF40F2E9
:102F000009300BF019FF40F286200BF015FF4FF44B
:102F100040700BF011FF40F299300BF00DFF40F2C2
:102F20009A300BF009FF40F28E300BF005FFBDE840
:102F3000084040F28F300BF0FFBE00BF0CED00E008
:102F40000003FA0573B50024134D234622462021C1
:102F50002846CDE900440CF00FF8214628460CF035
:102F600003F80E4E28460BF0F1FF28460BF0F7FF52
:102F700030464FF42043022203210BF033FD30464C
:102F80004FF48043012221460BF02CFD284602B06D
:102F9000BDE870400BF0CEBF00380040000C01408F
:102FA00073B50024144D4FF080514FF000700BF0BA
:102FB00049FD2346224620212846CDE900440BF056
:102FC000DBFF0E4E28460BF0C1FF28460BF0C7FF73
:102FD00030464FF4A053022203210BF003FD30468C
:102FE0004FF40063012221460BF0FCFC284602B09E
:102FF000BDE870400BF09EBF003C00400010014057
:1030000010B5164C04232046022203210BF0EAFCE3
:103010000823012220460021A4F544440BF0E2FCE1
:1030200020460F490CF066F9204608210CF076F98D
:10303000204600210CF07BF920460C210CF083F98E
:10304000204600210CF079F9204600210CF081F98E
:103050002046BDE810400CF082B900BF00080140D6
:1030600020A1070008B511200CF012FAF021112060
:103070000CF01CFA10200CF00BFAF02110200CF0D0
:1030800015FA1E200CF004FA00211E200CF00EFA96
:1030900014200CF0FDF9E02114200CF007FA1320A5
:1030A0000CF0F6F9E02113200CF000FA28200CF0C7
:1030B000EFF94FF400400BF08BFB01214FF400407F
:1030C0000BF06AFB06494FF400400BF091FB032024
:1030D0000CF0DEF9BDE80840202103200CF0E6B931
:1030E0000018014008B54FF2234103200BF008FF00
:1030F00000200BF0A7FE00200BF0D0FEBDE808403A
:1031000000200BF0ADBE0000022210B5174C114696
:103110004FF4007316480BF065FC20460BF074FF6B
:1031200000232022194620460BF047FF204620218D
:103130000BF06FFF0722204600210BF06EFF0021ED
:1031400020460CF06FF820460CF0C6F820464FF4ED
:10315000C87200210CF0B0F820464FF488610BF0E3
:103160005AFF2046BDE810400BF049BF002C01403B
:103170000018014008B5022303211A461D480BF030
:1031800031FC4FF080400BF03FFF00234FF08040B8
:103190001A4619460BF011FF00214FF080400BF04A
:1031A00038FF4FF080400BF011FF4FF080400BF0E4
:1031B00021FF8F214FF080400BF02DFF02214FF0B7
:1031C00080400CF054F8062202214FF080400BF0B2
:1031D00024FF02214FF080400CF024F84FF0804093
:1031E000482202210CF068F8BDE808404FF080400A
:1031F0000BF005BF00080140612038B500F0E2F98E
:10320000102808D102220123114687480BF0EAFB5F
:10321000002425460DE0612000F0D4F9112840F08B
:1032200092800222012311467F480BF0DBFB002431
:103230000125602000F0C6F9102840F09980022294
:103240008023114679480BF0CDFB5F2000F0BAF9DE
:10325000102840F0AE8002224023114673480BF044
:10326000C1FB73480BF0D0FE002171480BF0B3FE98
:103270006F480BF0ABFE062200216D480BF0CDFE2F
:10328000062202216A480BF0C8FE06220421684883
:103290000BF0C3FE002166480BF085FF0221644855
:1032A0000BF081FF042162480BF07DFF0021604894
:1032B0000BF093FF02215E480BF08FFF04215C4866
:1032C0000BF08BFF00215A480BF0ACFF022158484D
:1032D0000BF0A8FF042156480BF0A4FF002D40F08E
:1032E0008980002C40F08680722000F06BF9014646
:1032F0004F480BF090FE732000F064F9214602461F
:103300004B480BF0D9FF742000F05CF90221024613
:1033100047480BF0D1FF752000F054F90421024614
:1033200043480BF0C9FF012141480BF0DAFF71203F
:1033300000F048F901463E480BF06BFEBDE838400E
:103340003B480BF05CBE612000F03CF9122808D12C
:1033500002220123114634480BF044FB01240025CE
:1033600067E7072301223049324800F0B0FD4FE7FC
:10337000602000F027F9112807D10222802311468E
:103380002A480BF02FFB01255FE7602000F01AF9B7
:10339000122807D102228023114624480BF022FB79
:1033A000012452E7072380222049234800F08FFDA3
:1033B0004BE75F2000F006F9112807D102224023D5
:1033C00011461A480BF00EFB01254AE75F2000F07A
:1033D000F9F8122807D102224023114613480BF0B6
:1033E00001FB01243DE7072340221049134800F068
:1033F0006EFD36E741F68C110D480BF00CFE0122F4
:1034000000210B480BF058FF0122022108480BF065
:1034100053FF0122042106480BF04EFF012104480E
:103420000BF05FFF0A2186E7000C01400008014015
:1034300000040040782B0020702B0020682B002017
:1034400038B50C460546016208460BF0BFFD204624
:103450000BF0CBFD084B20461968084BB1FBF3F18C
:1034600001390BF0D6FD20464FF6FF710BF0D3FD6E
:10347000002328466B6238BD04220020A08601008C
:10348000F8B5436A0446032B0E4615462ADC006A4B
:103490000BF0BAFD144F636A0122F95C206A0BF04D
:1034A000BCFD636A0022F95C206A0BF005FF022173
:1034B000636A05EB850505EB850503F10802AD00A0
:1034C00044F82360994024F81250206A0BF068FDFC
:1034D0000021206A0BF00BFF206A0BF090FD636A5D
:1034E00001336362F8BD00BF4C0901082DE9F047C4
:1034F00004460025022700F1100800F11809636A4C
:1035000007FA05F6AB4208DC3146206A0BF052FDA3
:103510000135042DF3D1BDE8F0873146206A0BF068
:1035200043FDB8B1206A0BF0E0FE236A38F81510AD
:10353000343353F8252082460A4443F8252054F8B2
:1035400025309847206A0BF0D0FEA0EB0A0029F83E
:103550001500D9E7636AAB42DADCD5E7002170B524
:1035600000F11003466A4FF47A7508468E4209DD71
:103570001C461A8924886A43B2FBF4F202331044D1
:103580000131F3E770BD00001C2210B5084C02FBAE
:103590000042D4688C4209DC12698A4206DB054A83
:1035A00042F82010FEF73EFF002010BDFF20FCE790
:1035B0008403002024000020014B53F820007047B2
:1035C00024000020024B53F820004011704700BF38
:1035D0002400002008B5054B53F820000CF022FE13
:1035E0004FF074510CF072FE08BD00BF24000020A3
:1035F000034B53F820004011431E58425841704776
:1036000024000020024B490143F82010704700BFFE
:1036100024000020014B43F82010704724000020B4
:1036200010B5044608464FF084410CF04FFE0DF0F3
:1036300029F8024B43F8240010BD00BF24000020ED
:1036400070B506460024074D3146686800F098FBC7
:1036500008B9E0B270BD0134D82C05F11C05F3D1D6
:10366000D920F7E7840300200023064A118B81420A
:1036700001D1D8B270470133D82B02F11C02F5D129
:10368000D9207047840300201C22024B02FB00302B
:10369000704700BF840300200023064A0649108BB0
:1036A00010B1506941F823000133D82B02F11C02FC
:1036B000F5D170478403002024000020014B1954E9
:1036C000704700BF8C2A0020024B1A5C114319542A
:1036D000704700BF8C2A0020024A135C23EA0103D2
:1036E000135470478C2A0020014B185C704700BFB0
:1036F0008C2A00201C22024B02FB0030807E704787
:1037000084030020004870474F2C0300024B1A68C6
:10371000024BC3F8602D7047F42000208403002082
:10372000202180680BF041BE80680BF036BE10B5DA
:1037300004464368597A58680BF005F8636804F149
:103740002A02597A58680BF010F863688022597A77
:1037500058680BF01AF86368BDE81040597A586849
:103760000AF0E8BF70B5026140F201120D464C4903
:103770008282016001210022817580F828100446B0
:103780000421C0E9062280F8202042629DF8102022
:10379000856080F82920434A03734260626810689C
:1037A000A84206D1404A146062683BB9D068138AC7
:1037B00006E01C3201396260F0D1F3E75069138BE7
:1037C000022203210BF00EF928464FF4E1310BF0F1
:1037D00091FD284608210BF0A1FD28464FF4005129
:1037E0000BF0A5FD28460C210BF0ADFD284600216D
:1037F0000BF0A3FD002128460BF0ABFD28460BF093
:10380000BEFD28460BF0C0FD63682E1D197A58686E
:103810000AF020FF6368197A58680AF082FF63682B
:103820003246197A58680AF097FF63680022197ABD
:1038300058680AF04AFF63680022197A58680AF04B
:1038400037FF6368197A58680AF04CFF6368597A41
:1038500058680AF0FFFE63683246597A58680AF0E1
:103860007BFF63680022597A58680AF02EFF63686C
:103870000022597A58680AF01BFF6368597A586821
:103880000AF030FF63685868597A0AF053FF2046FF
:10389000FFF74DFF28460BF062FD204670BD00BFCC
:1038A000201A0108A8190108642B002038B5437DAF
:1038B0000D4604694BB1216839B1284600F060FA21
:1038C00008B10834F7E7236803B90024204638BD5F
:1038D00038B504460D4663680222197A58680AF022
:1038E000D0FE18B994F82830002BF4D06368197A08
:1038F00058680AF028FF6368AAB2197A58680AF073
:1039000044FF94F82020636804EBC212197A5868C7
:10391000AA320AF02AFF63680222197A58680AF06C
:10392000AAFE6368197A58680AF004FF94F82030F8
:10393000B3FA83F35B0984F82030002384F828303D
:1039400038BD837D10B5044623B9BDE810408068BA
:103950000BF00ABD90F82030426ADB012344134487
:103960000A2902F1010083F8AA1001D07F2A06D1AA
:1039700001462046FFF7ACFF0023636210BD606282
:10398000FCE7802A30B428BF80220C4600219142F7
:1039900009D090F82030655C00EBC3130B4483F82A
:1039A000AA500131F3E730BCFFF792BF38B50546A6
:1039B00008460C4600F0FBF9214602462846BDE8C1
:1039C0003840FFF7DEBF000010B50446084600F09F
:1039D00043FA00F028FA237D227B8342636811D1E9
:1039E000012161755AB158691B8B032102220AF02B
:1039F000F9FF2046BDE810400949FFF7D7BFD86856
:103A00001B8AF2E7002161753AB158691B8B0122CC
:103A1000BDE8104000210AF0E5BFD8681B8AF6E730
:103A20004919010830B5044685B0084600F014FA7B
:103A30000378302B25D0322B134D18BF4FF461255E
:103A4000637DA3B10A22294601A800F0BFF92046F0
:103A50000E49FFF7ABFF20460D49FFF7A7FF2046B1
:103A600001A9FFF7A3FF20460A49FFF79FFF294658
:103A7000A0680BF03FFC0021A0680BF058FC05B0DB
:103A800030BD4FF4E135DBE710552200481901083D
:103A90004E1901085924010810B50446084600F0E3
:103AA000DBF9037823B1303B18BF012384F82930B8
:103AB00094F829302BB104492046BDE81040FFF7A7
:103AC00075BF0249F8E700BF5D19010867190108D1
:103AD0002DE9F04143680446597A58680AF04EFED1
:103AE0000546C0F1800710B92046FFF720FE94F884
:103AF0002930A06853B1E369BB4207DA5A1CE2617E
:103B0000234493F82A100BF02FFCF0E708210BF068
:103B10004CFC10B1A0680BF040FC002F40F38D80EE
:103B2000651B95F8A9300A2B01D00D2B72D1636863
:103B3000597A58680AF007FE012F37D00022E3199E
:103B400004F12A0683F82A2020213046E26100F0A1
:103B500035F990F800800546B8F1000F2BD10A2105
:103B6000304600F02BF9054684F8AA812B7823B95A
:103B70000D21304600F022F90546002330462B7017
:103B80002F49A36100F0FCF80546D0B9204604F5A2
:103B9000D571FFF719FFA36993B3A0680BF001FC7F
:103BA000A36920465B6804F5D57198472046BDE8B7
:103BB000F041FFF7BCBD411C04F5D57000F0EEF8F4
:103BC000D4E730461F4900F0DBF8054628B9204607
:103BD00004F5D571FFF726FFDDE730461A4900F0FE
:103BE000CFF8054628B9204604F5D571FFF754FFF4
:103BF000D1E731462046FFF759FE3D46A061CAE7AE
:103C0000012DD3DD637D002BD0D020460F49FFF777
:103C1000CDFECBE794F82A30212B0ED1A36963B1F6
:103C20002046FFF784FD0023E361A369204604F5E5
:103C3000D5715B68BDE8F0411847BDE8F08100BF71
:103C4000721901087D190108861901088B190108EC
:103C5000034BC1B21B681A6818461268104700BFB0
:103C6000642B002004F016B907B5064B06491A6804
:103C7000043B1B6809680091044900F0F9FA03B09D
:103C80005DF804FBF0F7FF1FE8F7FF1F241A010897
:103C900005F086BAF7B5144800F0D8FA134800F0DA
:103CA000D5FA0025124FEEB23046FFF7EDFC044680
:103CB0003046FFF71FFD68B93046FFF715FDC30713
:103CC0000DD46369384600936168D4E9032300F09A
:103CD000BDFA04E03046FFF70DFD0128ECD00135B8
:103CE000D82DE0D103B0F0BD2D1A0108441A010807
:103CF000601A0108F8B50C4900F0BAFA00240B4F1D
:103D0000E6B23046FFF7C0FC05463046FFF7ECFC54
:103D1000C30704D4D5E90112384600F097FA0134FC
:103D2000D82CEDD1F8BD00BF731A0108951A01080F
:103D30002DE9F041054600240A4FE6B23046FFF770
:103D4000A3FCD0F804803046FFF736FC013403466C
:103D500042463946284600F08BFAD82CEDD1BDE812
:103D6000F08100BF9F1A010810B50446FFF794FCCC
:103D70002046BDE81040014900F07ABAA81A0108AF
:103D8000431E013913F8010F11F8012F10B10AB1C8
:103D90009042F7D0801A18BF01207047013911F8FE
:103DA000013F0BB90370704700F8013BF7E703468A
:103DB00000201A5C02B970470130FAE70346184642
:103DC00013F8012B0AB18A42F9D170470029034642
:103DD000F0B520DA2D2003F8010B012049421D46E1
:103DE000C71A91FBF2FC02FB1C11303129702C46E2
:103DF000BCF1000105F101051E4605EB0700F0DCF2
:103E000000232B70B4420BD93378227806F8012BAB
:103E100004F80139F6E704D1302241700270012024
:103E2000F0BD0020DBE730B503782D2B11D14FF02A
:103E3000FF34013000210A25431E01E005FB01216A
:103E400013F8012F303AD0B20928F7D904FB01F05A
:103E500030BD0124EEE7000010B5134C0278014696
:103E6000A2F10A03DBB2162B00F1010017D9A2B1AF
:103E70000846FFF79CFF0C4C01380844814202467B
:103E800009D2137801380A3BDBB2162B03D824FA87
:103E900003F3DB07F2D400235370084610BD24FA65
:103EA00003F3DA07DAD4E3E709004000002310B592
:103EB000934200D110BD51F8234040F82340013314
:103EC000F6E7013A00D2704740F8041BF9E72DE904
:103ED000F0411C4600238371631E0E4617460160A5
:103EE0008280082B12D8DFE803F00F161327180C76
:103EF0001B05250001240325394630460AF0ACFD98
:103F000010E0002400250DE0012383710224F9E76D
:103F10000123022483710025EEE701248471F1E777
:103F2000002403253B46224629463046BDE8F041A1
:103F30000AF058BD0224F4E70124E3E70029B4BFE6
:103F40004FF0FF32012270B5642401FB02F35911D6
:103F500003F01F03634301324FEA6314054604BFB5
:103F60002D2305F8013B06460A222846FFF72EFFBF
:103F70002E23092C2B54D8BF302305EB0002CEBFD3
:103F8000501C5370901C21460A22FFF71FFF304639
:103F900070BDF0B503782D2B17D14FF0FF360130EF
:103FA00000244FF00A0C02E018460CFB04540346B0
:103FB00013F8012BA2F13005EFB2092FF4D9AAB9F9
:103FC0008C40224406FB02F0F0BD0126E8E78B405E
:103FD00003EB650393FBF5F30CFB05F51A4410F8AE
:103FE000013F303BDFB2092FF1D9E9E70A25002272
:103FF000AC46F4E72DE9F843141E06460D4624DDD1
:104000000022A95C09B10132FBE7A242ACBF0C4619
:10401000A41A13F0020F0CBF20273027DB071ED491
:10402000A0465FFA87F9B8F1000F10DC24EAE473C8
:10403000E41AA3EB050808EB050915F8011B81B18B
:10404000336830461B689847F5E72027E6E7336872
:10405000494630461B68984708F1FF38E3E70023DC
:10406000E7E72546FFB2002D06DD336839463046C6
:104070001B689847013DF6E7002CACBF09EB040034
:1040800009F10000BDE8F8832DE9FF470746DDE9A7
:104090000C8A15461C4651B930234246ADF8003013
:1040A00069465346FFF7A6FF04B0BDE8F08723B189
:1040B0000A2A2DD100292BDA494200238DF80D3030
:1040C0000E9B0DF10D023A3BB1FBF5F005FB10160E
:1040D000092E88BFF61830368D4202F1FF3902F8FA
:1040E000016C17D964B1B8F1000F16D01AF0020FA5
:1040F00013D03B682D2138461B68984708F1FF38DC
:104100005346424649463846FFF774FF2044CBE702
:104110000024D2E701464A46D6E72D23002409F8B9
:10412000013CA2F10209EBE70846FFF791BD000050
:104130002DE9F04307460E46144600254FF00A08C5
:10414000DFF804918DB03378002B78D0252B6FD118
:104150007378002B73D0252B06F1010267D02D2B2D
:104160000ABF01230023B21C164612F8011B302996
:1041700002D143F00203F7E70022304610F8011B9A
:10418000A1F1300C5FFA8CFEBEF1090F03D8064690
:1041900008FB02C2F1E7732908D121680434002921
:1041A00008BF49463846FFF725FF0DE064290ED1C8
:1041B00061202146CDE90130012300920A223846D0
:1041C00009680434FFF760FF05440136BBE778292E
:1041D00007D121466120CDE9013000920023102251
:1041E000EDE7582902D121464120F4E7752906D18F
:1041F00061202146CDE9013000920023DEE76629E7
:104200000AD1216808A8CDE904230434FFF796FEFB
:10421000DDE9042308A9C5E76329D6D12168043460
:104220008DF81C1000218DF81D1007A9BAE716465D
:104230003B6838461B68317898470135C5E7284602
:104240000DB0BDE8F08300BF841B01080FB407B5B3
:1042500004AA52F8041B054B6846CDE90032FFF76B
:1042600067FF03B05DF804EB04B07047941B0108CE
:104270000EB403B503AA52F8041B0192FFF758FFCE
:1042800002B05DF804EB03B07047000038B52A4C6B
:104290002A4D204609F072FF204609F074FF20469F
:1042A00009F07BFF204609F073FF0121204609F049
:1042B00050FF204609F016FF204609F02DFF20464A
:1042C00009F03DFF1E4A0821204609F06BFF2046F9
:1042D00009F0ABFF20464FF4602109F013FF284698
:1042E0000121184A0AF038FA28460121164A0AF034
:1042F0003CFA28464FF4807201210AF0E6F928467C
:104300004FF4806201210AF0D3F96022284601218E
:104310000AF03BFA284601210AF0E4F92846012177
:104320000AF0E9F9284601210AF004FA2046BDE81E
:10433000384009F070BF00BF002401400000024077
:10434000782C00204C240140842C002003468B4212
:10435000084606DD914203DC9342A8BF1346184687
:1043600070479342FBDC9142A8BF1046704773B57B
:104370006E46056805F13004F03534F8102C34F839
:10438000201C34F8300CFFF7E1FF3034AC4226F843
:10439000020BF2D1BDF80230BDF800001844BDF8A0
:1043A00004301844BDF806301844C0F38F0002B042
:1043B00070BD000008B50D4B98420BD003F580632B
:1043C00098420BD0A3F5006398420BD1072909DC72
:1043D000C8B208BD012905DC0831F9E7052901DC6F
:1043E0000A31F5E709F086FE1020F2E7000C0140E3
:1043F000012370B593400C4615460022064611462F
:104400009BB220460AF0EEFA29462046FFF7D2FF7B
:104410003368034A9B1A034AC3F34F03D05470BD59
:10442000842C0020782C00200D4B0E4A991C136020
:104430000D4A11600D4A191D11600D4A991D116038
:104440000C4A03F1080111600B4A03F10A011160E3
:104450000A4A03F10C011160094A0E3313607047D8
:10446000842C0020502D0020542D0020802C002072
:10447000702C0020742C0020442D0020482D00209A
:104480004C2D0020114A124B30B553F8213052F810
:1044900021401946A342A8BF2146026802F1C8057F
:1044A0008D4206DBA342B8BF234603F1C804A242F3
:1044B00002DD0160002030BD8A4202DA0160012085
:1044C000F9E79A42C8BF0360F9E700BF782E0020E1
:1044D000702E0020012970B516D80C4B53F82150CE
:1044E0000B4B53F82160B5420ED0401B0BF09AFEE7
:1044F0000446701B0BF096FE014620460BF09AFF17
:1045000004490BF0E3FE70BD0020FCE7782E00208C
:10451000702E00200000C8422E4B2DE9F0411D688E
:104520000446014628460CF08DF800B92C462A4B6B
:1045300021461D6828460CF067F800B92C46DFF8C4
:10454000A4802146D8F80050464628460CF066F86C
:10455000E8B1002120460CF075F8214680B12846CC
:104560000CF070F850B91D4B284619680BF0A6FDE9
:10457000214605460CF066F800B92C4634600EE082
:1045800028460CF05FF80028F8D1154BECE700271F
:10459000204639460CF04CF820B1C8F800402046BF
:1045A000BDE8F081394628460CF04CF808B1C8F84F
:1045B00000703568214628460CF026F80028DDD129
:1045C000074B284619680BF077FD214605460CF08D
:1045D0001BF8D1E7982E00209C2E0020602E002092
:1045E000A42E00203C2E002038B5114A114B14682F
:1045F000196804FA01F318440F4B001B1B680841AB
:104600001060181A0BF00EFE0C4B19680BF05EFED2
:104610000B4904460CF016F800B1094C094B214631
:104620001D6828460CF00EF800B12C46204638BD17
:10463000642E0020942E0020502E0020882E002072
:104640000000C842A02E0020F8B505467D200F4688
:104650001646FEF7B7FF3946044628460BF0DEFF44
:1046600020BB4FF0804138460BF028FD29460BF067
:10467000E9FFE8B1A1B27D2041F01001FEF7C2FFD1
:10468000114D3468002120460BF0D2FF90B129462D
:1046900020460BF0B9FF00B92C4628460B49346080
:1046A0000BF0B2FF003818BF0120F8BD074DE8E756
:1046B0000025E6E705F10047394620460BF0C2FF2A
:1046C0000028EAD13C46E8E7000048420000C84222
:1046D0002DE9F047064623200C46FEF77BFF4F4DA1
:1046E000DFF8509128602420FEF774FFC9F800001D
:1046F0007D20FEF767FFD5F800A007460021504651
:104700000BF0A0FF002837D0002130680BF090FF9D
:10471000DFF82481424DBFB2002842D051462046E6
:104720000BF0CAFC3F490BF0D1FD002104460BF011
:104730006BFF00B10024C8F80040D5F80080214686
:1047400040460BF07FFFC8B1214640460BF05CFFAE
:1047500050B9354B404619680BF0AEFC21468046F7
:104760000BF052FF00B944462C6047F001017D2058
:10477000FEF748FF2B683360BDE8F0873768404696
:1047800039460BF041FF50B1274B404619680BF0FA
:1047900095FC214607460BF055FF00B127462F60D8
:1047A000E8E72046D9F800100BF086FC1F490BF013
:1047B0008DFD002104460BF045FF00B10024C8F830
:1047C0000040D5F80080214640460BF01DFF98B10F
:1047D000214640460BF036FF50B9154B404619684C
:1047E0000BF06CFC214680460BF02CFF00B94446D0
:1047F0002C6047F00201BAE73768404639460BF0B3
:1048000021FF0028CBD00A4B404619680BF054FC1E
:10481000214607460BF0F8FEBFE700BF842E0020BC
:10482000602D00200000A040602E002000006040AD
:10483000A42E0020802E0020642D00202DE9F047BA
:104840000D465A4C5A49064620680BF03FFD294652
:104850000BF034FC4FF076510BF038FD2060252032
:10486000FEF7B8FE534DDFF85C9128602620FEF776
:10487000B1FEC9F800007D20FEF7A4FED5F800A027
:104880000746002150460BF0DDFE002848D00021ED
:1048900030680BF0CDFE2468DFF82C81464DBFB2A6
:1048A00000283FD0214650460BF006FC002104466C
:1048B0000BF0AAFE00B10024C8F80040D5F8008033
:1048C000214640460BF0BEFEB0B1214640460BF0FB
:1048D0009BFE50B9394B404619680BF0EDFB214661
:1048E00080460BF091FE00B944462C6047F0080169
:1048F0007D20FEF787FE11E03768404639460BF011
:1049000083FE50B12D4B404619680BF0D7FB214672
:1049100007460BF097FE00B127462F602B683360E7
:10492000BDE8F0872046D9F800100BF0C7FB002146
:1049300004460BF087FE00B10024C8F80040D6F80A
:104940000090214648460BF05FFED5F800804146B6
:1049500090B120460BF058FE50B9194B40461968EB
:104960000BF0ACFB214680460BF06CFE00B94446D0
:104970002C6047F00401BBE748460BF045FE88B1C8
:10498000414620460BF05EFE50B90D4B404619687B
:104990000BF092FB214607460BF036FE00B93C4671
:1049A0002C60BBE7C5F80090B8E700BFAC2E002034
:1049B00000007041682E0020582D0020602E00203D
:1049C000A42E00206C2E00205C2D002070B5054622
:1049D0000F4B2E68186801EB0014241A24110021D3
:1049E00030461C600BF02EFE88B10A4B1B681C1B66
:1049F00048BF0334A41024EAE4700BF013FC04460F
:104A0000014630460BF01EFE00B934462C6070BDE6
:104A1000B02E00204C2E0020F8B50D4B04461A781D
:104A20000C4F0132D2B2312A88BF00221A701E7890
:104A3000094D386855F826100BF03EFB21460BF067
:104A40003DFB0649386045F826400BF0F3FCF8BD05
:104A5000302E0020342E0020682D00200000484217
:104A60002DE9F74F8046962089460192FEF7AAFD70
:104A700004469E20FEF7A6FD064684EAE470A0EBFD
:104A8000E4700BF0CFFB864C0746D4F800B05946D3
:104A90000BF012FB002105460BF0B6FD08B105F145
:104AA0000045804B2946D3F800A050460BF0ACFDE2
:104AB000002846D0594638460BF0C4FD5146002820
:104AC0003BD058460BF0FAFA2060002E00F0E1804F
:104AD00020680BF0D7FD019B0446002B33D06328E0
:104AE00040F3D7800BF09EFB6F4B0646D3F8008057
:104AF00041460BF089FD002840F0CB806B4B3046DF
:104B00001F686B4B39461D680BF07EFD88B140462F
:104B10000BF0B8FD064628460BF0B4FDA41B444339
:104B200038460BF0AFFD801B94FBF0F00BF07AFBE6
:104B30000546284603B0BDE8F08F58460BF0BCFA96
:104B4000C2E72760C1E749464046FFF7C3FC594B1F
:104B500005461F68014638460BF074FD00285CD1FD
:104B6000394628460BF0A8FA3946054652480BF05C
:104B7000A3FA014650480BF05DFC29460BF0A6FB5A
:104B800005464E4B28461D60FFF746FF0146074687
:104B900028460BF091FA4A4980460BF035FD30B9B2
:104BA0004FF07E5140460BF04DFD00B93D46632C61
:104BB000444F0ADD20460BF035FB3B4B8046D3F8D3
:104BC00000B059460BF020FD48B300233B60284657
:104BD0000BF058FD012E044644D13B4938680BF0D8
:104BE00075FB0BF04FFD394B0546374918680BF044
:104BF0006DFB0BF047FD431B5C43642094FBF0F01E
:104C000028440BF00FFB0AF051FF23A3D3E9002344
:104C10000AF0A4FF0BF0FCF98AE70025B1E7234B6B
:104C20004046D3F800A02A4B5146D3F800900BF031
:104C3000EBFCA0B158460BF025FD804648460BF032
:104C400021FDA4EB0804444350460BF01BFDA0EBF0
:104C5000080094FBF0F00BF0E5FA3860B7E7C7F80E
:104C60000090B4E72220FEF7ADFC08B900233B60BA
:104C7000154938680BF02AFB0BF004FD154B05466F
:104C8000114918680BF022FB0BF0FCFC401B44435D
:104C9000B3E700254DE700BF9A9999999999B93FD3
:104CA000382E00205C2E0020542E00208C2E002058
:104CB000482E0020A82E00200000C842402E0020D0
:104CC000000080BF442E002000002041982E0020CC
:104CD000902E0020582E0020024B00BF013BFCD13B
:104CE000704700BF00127A0010B50446002240F25F
:104CF000215102F0D6FA002240F22251204602F061
:104D0000D0FA002240F22351204602F0CAFA0022D3
:104D100040F22451204602F0C4FA002240F225510C
:104D2000204602F0BEFA002240F22651204602F050
:104D3000B8FA002240F22751204602F0B2FA20468B
:104D4000BDE8104000224FF4A56102F0AABA0000AD
:104D5000002313B5054A40F21141CDE90023036851
:104D60006A465C680823A04702B010BD3400010009
:104D70003222002313B5CDE9002303686A465C683C
:104D800040F211410823A04702B010BD002313B523
:104D9000054A40F21141CDE9002303686A465C6888
:104DA0000823A04702B010BD340101002DE9F743EC
:104DB0000026174B04461E702025FFF7C9FF4FF051
:104DC0004209FFF789FF4FF4C84823688DF8005067
:104DD0008DF8019001966A4640F2114120465F68C5
:104DE000ADF8028008230135B847EDB2FFF774FF34
:104DF0002046FFF7BDFFFFF76FFF292DE5D12046C5
:104E0000FFF7C4FFFFF768FF03B0BDE8F08300BF02
:104E1000241B0020D0F80220014B1A60704700BF0D
:104E2000C42E0020D0F80220014B1A60704700BF4A
:104E3000C82E0020D0F80220014B1A60704700BF36
:104E4000CC2E0020D0F80220014B1A60704700BF22
:104E5000D02E0020054A1388013313800A22D0F88F
:104E6000023093FBF2F3024A13607047D42E002005
:104E7000B42E0020D0F80220014B1A60704700BF0A
:104E8000BC2E0020D0F80220014B1A60704700BFF2
:104E9000B82E0020D0F80220014B1A60704700BFE6
:104EA000C02E002003466FF4A46213440846072B6B
:104EB00015D8DFE803F00406080A0C0E1012FFF7FD
:104EC000A9BFFFF7AFBFFFF7B5BFFFF7BBBFFFF746
:104ED000C1BFFFF7CFBFFFF7D5BFFFF7DBBF7047FD
:104EE0000161704741617047007A7047007A7047EE
:104EF0000023C372704710B5044600226160084663
:104F00004FF4987102F0CDF900224FF43F716068C0
:104F100002F0C7F900224FF49061606802F0C1F915
:104F200060680022BDE810404FF4D07102F0B9B9BA
:104F30002DE9F041052301200E460A21BCB00222D2
:104F4000CDE90030CDE903100590089014200F251D
:104F5000CDE9090219270320CDE90652CDE90C70ED
:104F60004FF01E0C0B920E92119004222320CDE9DB
:104F70000FC2CDE912021492282017922D2200248C
:104F8000CDE91503CDE918234FF0320E07224FF07B
:104F900037081A9306233C20CDE91BE31D930294A6
:104FA000CDE91E8220932392082341224625CDE994
:104FB0002423CDE9210326930923CDE927532993FF
:104FC0004B235027CDE92A310B234FF0550CCDE967
:104FD0002D732F930C234FF05A0ECDE930C332932B
:104FE0000E234FF05F08CDE933E3359311231022F0
:104FF000CDE936836423CDE9382313236D46274654
:10500000A046CDE93A332C9128680BF00BF93146D4
:105010000BF004FB08B1D5E901870134142C05F12C
:105020000C05F1D141466C20FEF7ECFA39466D20B3
:105030003CB0BDE8F041FEF7E5BA10B4046864681E
:10504000A44610BC60470000037E73B50446002BE5
:1050500050D09E20FEF7B6FA324B00284CD10321E7
:10506000314A20731170E1221A701B782F4D8DF890
:1050700000300C238DF801308F238DF802302B780F
:1050800060688DF80330F0238DF8043003686A46B9
:105090004FF4E9715E680523B0472B783620103352
:1050A000DBB2ED2B08BF0D232B70FEF78BFA204BE4
:1050B000C0B21A78824215D04FF40952ADF80020E0
:1050C00000228DF802204FF0FF32019230BB3022D7
:1050D0008DF8032018706A46082340F292516068E8
:1050E000FFF7ABFF23688A201D6AFEF773FA0146BB
:1050F0002046A84702B070BD421C06D10122022101
:105100002273094A1170D222AEE70128ADD10322E1
:1051100008212273044A11707822A5E70828D9D102
:105120003122D5E72A1B0020291B0020DB2E00207E
:10513000DC2E00200B7803F0010343720B78C3F3DD
:10514000800303720B78C3F3001383728B78C3F36D
:10515000C00343767047000008B54B7808781B02FF
:1051600003F4706318440AF08FFC09A3D3E9002309
:105170000AF0F4FC0AF04CFF07490BF0A7F8BDE871
:10518000084001469720FEF74BBA00BFAFF30080FE
:105190009A9999999999B93F2B121F3F0B78842BB3
:1051A00003D10121D720FEF72DBA812B01D1002197
:1051B000F8E770474B78323B18BF012303767047FE
:1051C0000B46B3F53F7F11460FD006DCB3F5987F51
:1051D00007D0B3F5D07F06D07047B3F5906F06D0F7
:1051E0007047FFF7A7BFFFF7B7BFFFF7D7BFFFF7BE
:1051F000E1BF000003682DE9F74F5B6B04460F46E3
:1052000098476A4E002800F0C7809620FEF7DAF92A
:1052100040F2ED23984240F3BC809620FEF7D2F98D
:10522000800080B2337843F050038DF801300723BB
:105230008DF8023094239DF80120ADF806309DF8DA
:105240000230AA321A449DF80630ADF80400134427
:10525000C2B203EB1020831818460025DBB203EB23
:105260002020AA2108236A468DF8000060688DF886
:105270000350FFF7E2FEAF4214BF64210421DFF8C0
:1052800044A14FF00F0B9AF80000DFF83C9100F5B5
:10529000FC7253181A46DBB203EB12238DF8003070
:1052A0004EF22103ADF8023041F621736A468DF8C3
:1052B0000100ADF80430606808238DF80710A821BC
:1052C000DFF808818DF806B0FFF7B7FE99F80030D7
:1052D0006A468DF8003098F80030A9218DF8013029
:1052E0004DF67973ADF80230314B606801930823B5
:1052F000FFF7A3FE2F4F304B397818788DF8061042
:10530000421802F5E4731A468DF80000FF20DBB264
:1053100003EB1223BA216A468DF801008DF805309F
:1053200060680723ADF802B08DF80450FFF785FEE2
:105330003378224A013333701378214801331370D4
:105340009AF80030397801338AF8003099F8003043
:105350000131013389F8003098F800303970013399
:1053600088F8003003780133DBB25C2B03700DD179
:10537000BE231370E92389F800304D230370802386
:1053800035708AF8005088F800503B7003B0BDE8D3
:10539000F08F40F6B83045E7337843F030038DF8AE
:1053A0000130FE238DF80230842344E7D82E0020FC
:1053B0001DC7E021281B0020291B0020251B0020E1
:1053C000271B0020D62E0020261B0020D72E0020D1
:1053D000037E10B5044643B1A920FEF709F9014642
:1053E0002046BDE81040FFF705BF10BD73B5064667
:1053F0007820FEF7E7F801280CBF49F69C630024EB
:105400004FF0860006BF6024ADF80430ADF80440CC
:10541000FEF7E0F8014621480AF04EFE2049054615
:105420000BF010F9002835D128460BF02BF9642336
:1054300043434FF4FA7093FBF0F032300AF0F2FE7F
:1054400018490AF03BFE3C23174D8DF800300BF055
:105450003FF92B786A461C43C3238DF8033048F28A
:10546000CD234FF4E8718DF80100ADF80630706877
:1054700008238DF80240FFF7E0FD0C4A29781378E5
:105480008B4209D10133DBB20F2B08BF00232B70F5
:1054900002B070BD0648D6E71170F9E70000C842B7
:1054A0000040034400004042D92E0020DA2E0020A4
:1054B00000001643037E73B50446A3B148F261238E
:1054C0000093C37A63B9032560686A46036840F2B3
:1054D00032315E680223B047013DF5D10123E3720A
:1054E0002046FFF783FF02B070BD01617047416144
:1054F0007047007A7047007A70470023C372704784
:1055000010B504460022616008464FF4987101F01E
:10551000C8FE00224FF43F71606801F0C2FE002215
:105520004FF49061606801F0BCFE60680022BDE845
:1055300010404FF4D07101F0B4BE2DE9F0410523C5
:1055400001200E460A21BCB00222CDE90030CDE98F
:1055500003100590089014200F25CDE909021927A2
:105560000320CDE90652CDE90C704FF01E0C0B92D2
:105570000E92119004222320CDE90FC2CDE9120230
:105580001492282017922D220024CDE91503CDE98D
:1055900018234FF0320E07224FF037081A930623D4
:1055A0003C20CDE91BE31D930294CDE91E8220939C
:1055B0002392082341224625CDE92423CDE9210366
:1055C00026930923CDE9275329934B235027CDE96F
:1055D0002A310B234FF0550CCDE92D732F930C235B
:1055E0004FF05A0ECDE930C332930E234FF05F08CF
:1055F000CDE933E3359311231022CDE936836423BB
:10560000CDE9382313236D462746A046CDE93A332A
:105610002C9128680AF006FE31460AF0FFFF08B117
:10562000D5E901870134142C05F10C05F1D141466F
:105630006C20FDF7E7FF39466D203CB0BDE8F04136
:10564000FDF7E0BF037E73B50446002B50D09E20CB
:10565000FDF7B8FF324B00284CD10321314A2073AB
:105660001170E1221A701B782F4D8DF800300C2339
:105670008DF801308F238DF802302B7860688DF81B
:105680000330F0238DF8043003686A464FF4E97163
:105690005E680523B0472B7836201033DBB2ED2B44
:1056A00008BF0D232B70FDF78DFF204BC0B21A7879
:1056B000824215D04FF40952ADF8002000228DF837
:1056C00002204FF0FF32019230BB30228DF80320D0
:1056D00018706A46082340F292516068FFF7ADFCEB
:1056E00023688A201D6AFDF775FF01462046A847FA
:1056F00002B070BD421C06D1012202212273094A68
:105700001170D222AEE70128ADD103220821227305
:10571000044A11707822A5E70828D9D13122D5E7AB
:10572000301B00202F1B0020E32E0020DD2E002048
:105730000B7803F0010343720B78C3F38003037209
:105740000B78C3F3001383728B78C3F3C0034376E3
:10575000704700000000000008B54B7808781B0275
:1057600003F4706318440AF08FF909A3D3E9002306
:105770000AF0F4F90AF04CFC07490AF0A7FDBDE86D
:10578000084001469720FDF74BBF00BFAFF30080F4
:105790009A9999999999B93F2B121F3F0B78842BAD
:1057A00003D10121D720FDF72DBF812B01D100218D
:1057B000F8E770474B78323B18BF012303767047F8
:1057C0000B46B3F53F7F11460FD006DCB3F5987F4B
:1057D00007D0B3F5D07F06D07047B3F5906F06D0F1
:1057E0007047FFF7A5BFFFF7B7BFFFF7D7BFFFF7BA
:1057F000E1BF000003682DE9F74F5B6B04460F46DD
:1058000098476A4E002800F0C7809620FDF7DAFE20
:1058100040F2ED23984240F3BC809620FDF7D2FE83
:10582000800080B2337843F050038DF801300723B5
:105830008DF8023094239DF80120ADF806309DF8D4
:105840000230AA321A449DF80630ADF80400134421
:10585000C2B203EB1020831818460025DBB203EB1D
:105860002020AA2108236A468DF8000060688DF880
:105870000350FFF7E2FBAF4214BF64210421DFF8BD
:1058800044A14FF00F0B9AF80000DFF83C9100F5AF
:10589000FC7253181A46DBB203EB12238DF800306A
:1058A0004EF22103ADF8023041F621736A468DF8BD
:1058B0000100ADF80430606808238DF80710A821B6
:1058C000DFF808818DF806B0FFF7B7FB99F80030D4
:1058D0006A468DF8003098F80030A9218DF8013023
:1058E0004DF67973ADF80230314B606801930823AF
:1058F000FFF7A3FB2F4F304B397818788DF806103F
:10590000421802F5E4731A468DF80000FF20DBB25E
:1059100003EB1223BA216A468DF801008DF8053099
:1059200060680723ADF802B08DF80450FFF785FBDF
:105930003378224A013333701378214801331370CE
:105940009AF80030397801338AF8003099F800303D
:105950000131013389F8003098F800303970013393
:1059600088F8003003780133DBB25C2B03700DD173
:10597000BE231370E92389F800304D230370802380
:1059800035708AF8005088F800503B7003B0BDE8CD
:10599000F08F40F6B83045E7337843F030038DF8A8
:1059A0000130FE238DF80230842344E7E02E0020EE
:1059B0001DC7E0212E1B00202F1B00202B1B0020C9
:1059C0002D1B0020DE2E00202C1B0020DF2E0020AF
:1059D000037E10B5044643B1A920FDF709FE014638
:1059E0002046BDE81040FFF705BF10BD73B5064661
:1059F0007820FDF7E7FD01280CBF49F69C630024E1
:105A00004FF0860006BF6024ADF80430ADF80440C6
:105A1000FDF7E0FD014621480AF04EFB204905460E
:105A20000AF010FE002835D128460AF02BFE642328
:105A300043434FF4FA7093FBF0F032300AF0F2FB7C
:105A400018490AF03BFB3C23174D8DF800300AF053
:105A50003FFE2B786A461C43C3238DF8033048F27F
:105A6000CD234FF4E8718DF80100ADF80630706871
:105A700008238DF80240FFF7E0FA0C4A29781378E2
:105A80008B4209D10133DBB20F2B08BF00232B70EF
:105A900002B070BD0648D6E71170F9E70000C842B1
:105AA0000040034400004042E12E0020E22E00208E
:105AB00000001643037E73B50446A3B148F2612388
:105AC0000093C37A63B9032560686A46036840F2AD
:105AD00032315E680223B047013DF5D10123E37204
:105AE0002046FFF783FF02B070BD4069704708B5DC
:105AF000B0F908000AF096FB08BD08B5B0F90C0033
:105B00000AF090FB08BD0000014B1878704700BFF9
:105B10007D2F00200000000038B51D48FEF727FC4F
:105B200004461C48FEF723FC0546204609F0ACFF5E
:105B300013A3D3E900230AF011F813A3D3E9002338
:105B400009F056FE0AF064FA0446284609F09CFF64
:105B50000BA3D3E900230AF001F80BA3D3E9002338
:105B600009F046FE0AF054FA0546014620460AF0BE
:105B700069FD00B92C46204638BD00BFAFF3008058
:105B80001213371BE91495BF988F7B2556484C405C
:105B9000442D0020482D002070B506460D461A4CB5
:105BA0000721204608F056FD20460721174A08F035
:105BB000D3FD32462046072108F0D7FDAAB2204681
:105BC000072108F0E2FD2046072108F0AAFD204643
:105BD000072108F087FD20460022072108F075FD07
:105BE00020460022072108F063FD20464FF4805232
:105BF000072108F050FD2046072108F09BFDBDE875
:105C00007040034809F0C0BB00000240044400405B
:105C10000044004038B50546194C0621204608F0DE
:105C200019FD20460621174A08F096FD2046062158
:105C3000154A08F09AFDAAB22046062108F0A5FDF3
:105C40002046062108F064FD2046062108F04AFDA2
:105C500020460022062108F038FD204600220621B9
:105C600008F026FD20460022062108F014FD2046FB
:105C7000062108F05FFDBDE83840044809F07FBB0D
:105C80000000024004440040EE2E0020004400408A
:105C900038B504462F20FDF795FC00B20228E081BC
:105CA0001ED1344D344A2B78002B33D141F6583174
:105CB000B4F90C00884201DD0121117011782F4ADE
:105CC0008B4249D0012313702D4B93F900002D4BCB
:105CD00010B91878013018701878042823D1E181A0
:105CE000B4F90E30012B08D12748FBF7EFFD274808
:105CF000FBF7ECFD2648FBF7E9FDB4F90E30C3B91C
:105D00002148FBF7E3FD2148FBF7DCFD2048FBF7CA
:105D1000D9FD0EE0012BD1D1B4F90C10B1F5FA6F19
:105D2000CCDA0021C9E7052803D1297000211970B8
:105D30001170B4F90E30032B0DD19E20FDF742FCFB
:105D4000013011480CD1FBF7C1FD1048FBF7BAFD3B
:105D50000F48FBF7B7FD38BDE38100231370BFE7A1
:105D6000FBF7B4FD0948FBF7B1FD0948FBF7AEFDB1
:105D7000F1E700BFEB2E0020EC2E00207B2F00204F
:105D8000E92E0020ED2E0020882B0020A82B0020DB
:105D9000B02B0020000000002DE9F74F074612202D
:105DA0000E46FDF70FFC864BC4B21B78012B40F06A
:105DB000B1803846FFF76CFF304682490AF086FA18
:105DC00081490AF037FB0AF05DFC804DDFF8149240
:105DD00095F900A0A9F8000050460AF023FA3146D0
:105DE0000AF074FA09F062FE73A3D3E9002309F004
:105DF000B5FE0AF00DF9764980460AF067FA724955
:105E00000AF018FB0AF03EFC724B734A19784E46B2
:105E10009B46914638621080D1B1BAF1000F17DD70
:105E20001F20FDF7D7FB019095F900000AF0FAF961
:105E3000019B8246694918460AF048FA01465046D5
:105E40000AF03AF90AF01EFC40B200282DDB287057
:105E500095F90030632B2ADDB7F90E30DBB900214C
:105E600040460AF0D1FBB0B1B9F9000009F00CFED0
:105E700000225B4B09F072FE0AF082F8A9F80000DC
:105E8000B6F9000009F000FE0022554B09F066FE4D
:105E90000AF076F8308014BB3B6A002B02DA514BD3
:105EA00000221A8003B0BDE8F08F00232B709BF80E
:105EB0000030002BD0D11F20FDF78CFB824695F9D6
:105EC00000000AF0AFF951460AF0F8F80AF0DAFBE0
:105ED00040B26428CABF642328702B70BCE7012C31
:105EE00001D13D4BDCE7022CD9D0032CDAD140465E
:105EF0003D490AF0A7FB08B93080D3E740460AF0D5
:105F0000C1FBA0F1320341F217105843322390FB3A
:105F1000F3F0F1E7022B1BD12D4930460AF0D6F9F8
:105F200029490AF087FA0AF0ADFB2B4A03B2138025
:105F300013EB83032B4A48BF03339B103862138053
:105F40000CB90028AAE7012CCBD0022CAAD1A6E7D5
:105F5000032BA7D11E4930460AF0B8F91A490AF0B6
:105F600069FA0AF08FFB1C4A03B2138013EB830318
:105F70001C4A48BF03339B10154638621380002C1F
:105F8000DFD0012CADD0022C89D0032C8AD1304631
:105F900015490AF057FB08B9288083E730460AF014
:105FA00071FBA0F1320341F217105843322390FBEA
:105FB000F3F0F1E7AFF300807B14AE47E17A843F62
:105FC0007A2F002000B888450000C842E92E002042
:105FD00000C05A457B2F0020E62E00200000A04084
:105FE0000000E03FE42E00200000484210B5782079
:105FF000FDF7E8FA08B902F0A1FF7820FDF7E2FA10
:10600000012843D12248FBF743FC0146AF20FDF7AE
:10601000F9FA2048FBF73CFC0146B020FDF7F2FA04
:106020001D48FBF735FC0146B120FDF7EBFA1A4895
:10603000FBF72EFC04461748FBF72AFC84F001040A
:10604000E3B280F00104E4B21148640044EA83043E
:10605000FBF71EFC64B280F00100204340B20F4CFD
:106060000628207003D10021B420FDF7CBFA237855
:10607000052B03D10121B420FDF7C4FA3020FDF730
:10608000A1FABDE8104080B202F058BF10BD00BFB9
:10609000182C0020202C0020282C0020EA2E002084
:1060A000034B1B78012B01D1FFF7A0BF704700BF46
:1060B0007A2F0020002270B50A4C134626468D1E0A
:1060C000954205DD14F8010B013203449BB2F7E75A
:1060D000314411F8012C705D40EA0220C31A584285
:1060E000584170BDEE2E0020002070B5084C0346CC
:1060F00022468D1E854205DD14F8016B01303344C4
:106100009BB2F7E753550A441B1202F8013C70BDDD
:10611000321B0020F8B5BA4D04462B780E2B3ED822
:10612000DFE813F00F0016003B003E007C00C000CB
:10613000C200E100E300150188019401AD01AF0147
:10614000E0016420FFF766FDAE48FBF7BFFB21E0EE
:10615000AD4CAC48FBF7B6FB23787BB90222072194
:10616000AA4808F08EFAA8B107210222A74808F031
:1061700082FA5021A648FFF70FFD0BE05021A548F9
:10618000FFF70AFDA44B5B78002B00F0DB8123783E
:10619000013B23702B78013300E003232B70F8BD03
:1061A0006421FFF787FF9C4E9C4F38B90021A52042
:1061B0006181A1813970FDF725FA29E002220621CB
:1061C000924808F05EFA0028F0D0022206218F489B
:1061D00008F051FA01233B70B6F85230053B03EB4F
:1061E000D3735B10238196F92A000AF01BF86061D3
:1061F00096F956000AF016F8A061F279B37943EAED
:106200000223638196F82020F37F43EA0223A381CF
:10621000002386F8623086F86330BBE7804E982012
:10622000B6F90010FDF7EEF96189A289784B0A44AE
:10623000712112B292FBF1F27A491A70B1F9002081
:106240000978880083F84B0090115242C2F307226C
:106250009A711A7372784942DA7683F8212078228B
:1062600083F83F20EC2283F840206C2283F8412001
:106270006B22C9B25971D972317883F84C00997682
:1062800083F820102046502183F84220FFF72CFF8E
:10629000654A1388642B8EBF002301339BB21380A1
:1062A00000237BE778204DE7574C5648FBF70AFB65
:1062B0002378052B0ED902220721544808F0E1F972
:1062C00000283FF467AF07210222504808F0D3F9B5
:1062D00064214FE76421554801FB0300FFF75CFC94
:1062E0002378013355E7082358E77821FFF7E2FECA
:1062F000494E4A4F00283FF459AF02220621434835
:1063000008F0BFF900283FF451AF022206213F48B0
:1063100008F0B1F901233B70B6F86430053B03EB9C
:10632000D3735B10238196F9140009F07BFF606141
:10633000B6F8560009F076FFA061F279B37943EA26
:106340000223638196F8272096F826305DE7344EC5
:106350009820B6F90010FDF755F9324A2C4B117808
:10636000307852785971D97271789A711A73987716
:10637000D977B6F90020266A002E37DD02EBD272FB
:1063800052101A7712129876D9765A77752183F8B7
:106390004A10122183F84B106021402283F84C10E0
:1063A000252183F84820042283F84D10522183F8D8
:1063B000492083F84F20892283F84E101C4983F826
:1063C000562083F858200A7820460132D2B20A704B
:1063D000D20748BF93F85E204FF0640144BF0132FA
:1063E00083F85E20FFF780FE0523D7E6CED002EBD0
:1063F000D27252109A76121218775977DA76C5E768
:106400007C2F0020F82B0020311B002000000240D0
:10641000321B00208C1C0108EE2E00207D2F002056
:10642000E62E0020E42E00207E2F0020111E0020EA
:10643000E82E00207820FDF7C5F801281CBF0022B7
:10644000414B4FF08C0018BF1A707BE63E4C3F4822
:10645000FBF738FA2378062B0ED9022207213C4895
:1064600008F00FF900283FF495AE072102223848C2
:1064700008F001F969217DE6692136482CE70D23F2
:106480008CE68C21FFF716FE334E40B30222062124
:106490002F4808F0F6F810B3022206212C4808F025
:1064A000EAF8012333702D4EB6F875305B10238166
:1064B00096F9140009F0B6FE6061B6F8190009F00B
:1064C000B1FEA061F27AB37A43EA0223638196F8BF
:1064D0002C2096F82B3043EA0223A3815AE60023AE
:1064E000337057E61E4E9820B6F90010FDF78AF873
:1064F0001C4B2046B3F900201B4B5242D1B2C2F3D1
:1065000007229A711A73B6F900205971DA771212BC
:1065100083F820209A7ED97283F82520DA7E6921BB
:1065200083F82620782283F84F20EC2283F850202D
:10653000102283F85120272283F85220FFF7D4FD40
:106540000A232BE6012324E6311B0020F82B002030
:10655000000002409B1B00207D2F0020EE2E00201B
:10656000E62E0020E42E0020321B002038B5037FE9
:1065700004468B420D460AD051B15920FDF722F84E
:1065800008B9FCF7C1FDFCF7F5FD0123237738BD01
:106590004FF0804008F038FD2577F8E708B5012175
:1065A000FFF7E4FF0A4B1A78042A04D805221A7070
:1065B0000022084B1A7064230749084A11F8010B9E
:1065C000013B02F8010BF9D10222054B1A7008BDFC
:1065D0007C2F0020311B0020281C0108321B0020CA
:1065E0007A2F002008B50121FFF7C0FF064B1A786B
:1065F000042A04D900221A700122044B1A700122C5
:10660000034B1A7008BD00BF7C2F0020311B0020F7
:106610007A2F0020012108B5FFF7A8FF0A4B0B498C
:106620001A78092A9CBF0A221A700022084B1A7095
:106630006923084A11F8010B013B02F8010BF9D15B
:106640000322054B1A7008BD7C2F0020F01C0108A6
:10665000311B0020321B00207A2F00200021FFF781
:1066600085BF01817047000008B508460AF00AF8A6
:10667000A6230F384343412093FBF0F3014A5833DC
:10668000138008BD842F0020A820FCF7B1BF10B5EF
:10669000044600226160084640F2531100F001FEFA
:1066A00060680022BDE8104040F2F31100F0F9BD2F
:1066B00040F25313994210B5044610D1B2F80100CC
:1066C000A0F5B07009F0AEFD4FF0765109F0FEFD77
:1066D00001469720FCF7A4FF0123E37203E040F298
:1066E000F3139942F8D010BD10B50446C07A10B922
:1066F0000348FBF7CDF800232073E37210BD00BF01
:10670000682C002008B50248FBF7C2F808BD00BF9E
:10671000682C002007B540F2EE22038940F21631C2
:10672000934238BF13460522ADF8002041F6583297
:10673000934228BF13460A229B01B3FBF2F3ADF844
:10674000023000236A46019340680823FEF775FC77
:1067500003B05DF804FB000013B5154B00241A7854
:1067600001948DF80020134A12888DF80120C5226B
:10677000ADF80220104A11780131C9B2152994BF31
:1067800011701470127812B911221A7003E0082ADD
:106790000AD00F2A0AD008236A4640F229314068FD
:1067A000FEF74BFC02B010BD8622EEE7D922ECE7E3
:1067B000832F0020842F0020822F0020462313B532
:1067C000ADF80430002340688DF80630036840F2CD
:1067D0003B415C6801AA0323A04702B010BD000042
:1067E00007B50D4A40F245511388406801339BB20A
:1067F000138000228DF801301B128DF80230074BF8
:106800008DF800208DF8032001936A460823FEF7D7
:1068100014FC03B05DF804FB802F00207E100018EC
:10682000812307B58DF80030B1B1012916D00131AF
:1068300016D107238DF801304FF6FF73ADF8023003
:10684000084B6A46019340F23F4108234068FEF737
:10685000F4FB03B05DF804FB0623EBE70523E9E74F
:106860000823E7E70080FFFF037B10B50446BBB1B8
:10687000FFF750FF2046FFF76FFF2046FFF7B0FFFE
:106880002046FFF79BFF0320FCF7B2FE40B19E209D
:10689000FCF798FE41B22046BDE81040FFF7C0BFAC
:1068A00010BD018170477047A820FCF7A1BE000011
:1068B00008B5084B186899889B792BB108F0D1F876
:1068C000B0FA80F0400908BD08F0CBF8003818BFD6
:1068D0000120F8E7682C002030B51F4A1F4B89B013
:1068E000CDE901231E491F4B1F4CCDE903131F4B5C
:1068F0001F4D05930023ADF81930237808AA63F0E3
:106900007F038DF818302B684FF4B061134413F8EF
:106910001C2C40688DF81B2013F8182C8DF81C20B7
:1069200013F8142C8DF81D2013F8102C13F80C3CC0
:106930008DF81E208DF81F3006AA0823FEF77DFB78
:106940002B68013303F003032B602378013303F03A
:106950000F03237009B030BD0F287F281E100010D0
:106960007056F0560C48A748862F00204690289075
:10697000882F002037B540F2EE220389002593428C
:1069800038BF134641F65832934228BF1346044697
:1069900003819A009B09CDE900554FF420718DF8D1
:1069A00003308DF8042008236A464068FEF745FB53
:1069B00008236A464FF4227160688DF803508DF801
:1069C0000450FEF73AFB03B030BD000008B5034B9E
:1069D000B3F9000009F026FC08BD00BF902F00208D
:1069E00008B5034BB3F9000009F01CFC08BD00BF5B
:1069F000982F002008B5024B188809F00FFC08BD3D
:106A0000962F002008B5034BB3F9000009F00AFCEB
:106A100008BD00BF942F0020064B1A78064B0AB918
:106A20001A7001E0012AFBD0044A126802B91A70F8
:106A3000187870478E2F00208F2F00209C2F002069
:106A400010B504460022616008464FF4C87100F09A
:106A500028FC00224FF4CD71606800F022FC002277
:106A60004FF4D271606800F01CFC60680022BDE841
:106A700010404FF4D77100F014BC00002DE9F34131
:106A800006460846344909F021FC09F0FBFD334B6A
:106A900001B298201980FCF7B5FD7820FCF792FD33
:106AA0000546AA20FCF7A4FD044618B1012D0CBF31
:106AB00008240024AB20FCF79BFD18B1012D04BF76
:106AC0001034E4B2A920FCF793FD08B10434E4B219
:106AD000012D3AD1224A13881BB1013B02341380A5
