:020000040800F2
:101000000050002031FC00082DFC00082BFC0008DB
:101010002BFC00082BFC00082BFC00080000000043
:101020000000000000000000000000002DFC00088F
:101030002DFC0008000000002DFC00082DFC00081D
:101040002BFC00082BFC00082BFC0008852800085E
:101050002BFC00082BFC00082BFC00082BFC0008D4
:101060002BFC00082BFC00082BFC00082BFC0008C4
:101070002BFC00082BFC00082BFC00082BFC0008B4
:101080002BFC00082BFC00082BFC00083D8300080B
:101090001D8300082D8300082BFC00082BFC000892
:1010A0002BFC00082BFC00082BFC00082BFC000884
:1010B0002BFC00082BFC0008352800082BFC00083E
:1010C0002BFC00082BFC00082BFC00082BFC000864
:1010D0002BFC00082BFC00082BFC00082BFC000854
:1010E000412800082BFC00082BFC00082BFC000802
:1010F0002BFC00082BFC00082BFC00082BFC000834
:101100002BFC00082BFC00082BFC00082BFC000823
:101110002BFC00082BFC00082BFC00082BFC000813
:101120002BFC00082BFC00082BFC00082BFC000803
:101130002BFC00082BFC00082BFC0008698300082E
:1011400049830008598300082BFC00082BFC000889
:1011500010B404466468084611461A46234610BC7B
:101160001847836818477047704770477047704743
:1011700041607047704770477047704770477047CD
:1011800070470020704700207047000000487047FB
:101190000000484200207047416070477047704728
:1011A0007047704770470020704741607047704734
:1011B0007047704770477047002070477047416024
:1011C00070470020704770477047704770477047FE
:1011D000002070477047416070477047002070479B
:1011E00070474160704770470846704770477047C6
:1011F0007047704700487047003C1C46416070478C
:10120000704770477047704770474160704770473C
:101210000020704700207047002070470020704772
:101220000020704770477047104B10B5186803686E
:101230001B6898470E4B186803681B6898470D4B4E
:10124000186803681B6898470B4B186803681B688D
:1012500098470A4B186803681B689847BDE8104018
:10126000074B186803689B68184700BF20000020E0
:101270001C00002014000020100000200C000020A2
:101280000400002010B5174C206803689B6998473C
:10129000052002F083FA062818D8DFE800F0040AD7
:1012A0000C0E1012200000220F4B1A700F4B2360FF
:1012B0000CE00F4BFBE70F4BF9E70F4BF7E70F4B3A
:1012C000F5E701220E4B23600E4B1A700E4C20687E
:1012D00005F0E0FF6068BDE8104005F0DBBF0B4B98
:1012E000E5E700BF140000209A290020782800209C
:1012F00070280020682800209828002090280020CE
:1013000050280020702900208C29002088280020E7
:1013100010B5114C20680368DB699847042002F07F
:101320003DFA042806D8DFE800F003100E1214007E
:101330000A4B23600A4C206805F0ACFF6068BDE8EA
:10134000104005F0A7BF074BF3E7074BF1E7074B4A
:10135000EFE7074BEDE700BF1000002080280020DA
:101360008C29002048280020402800203828002010
:101370003028002010B5124C206803685B6898473D
:10138000062002F00BFA0138052815D8DFE800F036
:10139000160E0E0310120B4B23600B4C206805F049
:1013A00079FF6068BDE8104005F074BF074BF3E7B4
:1013B000074BF1E7074BEFE7074BEDE7074BEBE791
:1013C00008000020542600208C290020242600201C
:1013D000E82500209C2500207C2600205C2600209B
:1013E00010B50B4C206803685B689847492002F0F1
:1013F000D5F9084A084B012808BF13462360074C5B
:10140000206805F047FF6068BDE8104005F042BF66
:101410000400002084250020942500208C29002031
:10142000022010B502F0BAF90138032815D8DFE818
:1014300000F0020E10120A4B0A4C0B4A206813608F
:1014400005F028FF6068BDE8104005F023BF074B9A
:10145000F2E7074BF0E7074BEEE7074BECE700BF7F
:10146000CC2600208C2900200C000020B42600206F
:10147000A8260020C02600207825002010B50120D5
:1014800002F08CF909280FD8DFE800F0171C2B0EAA
:1014900005091F222528144B144A1A6004E0124A39
:1014A000134B136000229A72124C206805F0F2FE72
:1014B0006068BDE8104005F0EDBE0B4A0C4B1360B0
:1014C0000122F0E7084B0C4AE7E7074B0B4AE4E739
:1014D000054B0B4AE1E7044B0A4ADEE7024B0A4A96
:1014E000DBE7014B094AD8E71C00002090260020CA
:1014F000002900208C2900202C290020F42800201D
:10150000DC28002048290020102900208426002003
:10151000036810B59B6898470FF0E0FC0024014673
:101520009B2002F05BF92146962002F065F92146E6
:10153000972002F061F92146992002F05DF92146D9
:10154000BDE810409A2002F057B9000010B51C4CBD
:10155000206803689B6A9847002002F01FF9092859
:101560000FD8DFE800F005080A0E271C2117292BE9
:10157000144B236005E0144BFBE71448206005F092
:1015800021F8134C206805F085FE6068BDE8104026
:1015900005F080BE0D48206005F02CF8F1E70B48FF
:1015A000206004F0E9FFECE70A4B012223600A4BBC
:1015B0001A70E6E7094BDCE7094BF6E7094BD8E779
:1015C0002000002020280020A0280020B82800208B
:1015D0008C290020002800207029002028280020C5
:1015E000582500202425002010B5144C20680368DD
:1015F0001B699847512002F0D1F8032805D8DFE88D
:1016000000F0020D0F160E4B23600E4C206805F003
:1016100041FE6068BDE8104005F03CBE0A4BF3E7B0
:101620000A4B0B48196820600BF0A2F9EDE7012284
:10163000084B2360084B1A70E7E700BF1800002032
:10164000F82700208C290020EC27002020250020EE
:1016500098260020E027002070290020B52002F005
:10166000B3B800002DE9F74F082002F097F8484C76
:1016700054F820100920019102F090F854F82060ED
:101680000A2002F08BF854F820500B2002F086F864
:1016900054F820A00C2002F081F854F820B00D205E
:1016A00002F07CF854F820900E2002F077F854F8FD
:1016B0002070102002F072F854F82080112002F0FF
:1016C0006DF854F8203001990093324B1868036884
:1016D000DB6A9847304B314618680368DB6B9847E4
:1016E0002E4B594618680368DB6998472C4B5146C6
:1016F000186803681B6A98472A4B494618680368AC
:101700001B699847284B4146186803685B699847EE
:10171000264B3146186803689B6998473946244828
:1017200009F062FF234B0099186803685B699847CA
:10173000072002F033F8012802D1284603F04CFBC1
:10174000072002F02BF8022802D1284609F0F8F809
:10175000072002F023F8032802D1284609F022FBD3
:10176000072002F01BF8042802D128460DF06CF87F
:10177000002240F20161606805F06FFD002240F236
:101780000161206803B0BDE8F04F05F066BD00BF01
:101790008C290020200000201C00002014000020C4
:1017A0001000002008000020040000200C00002091
:1017B000802500201800002038B540F2DF739842E1
:1017C00004460D4606D10A460146314809F014FF89
:1017D000002038BD072001F0E1FF012803D1294690
:1017E000204603F0D7FB072001F0D8FF022803D1E1
:1017F0002946204609F0E4F8072001F0CFFF03282E
:1018000003D12946204609F0FDFA072001F0C6FF62
:10181000042803D1294620460DF038F81D4B2A46EE
:10182000186821460368DB6898471B4B2A461868EE
:10183000214603681B699847184B2A4618682146B9
:1018400003681B699847164B2A46186821460368A7
:101850001B699847134B2A461868214603681B6882
:101860009847114B2A461868214603681B68984719
:101870000E4B2A461868214603681B6998470C4B93
:101880002A461868214603681B689847A0E700BFEE
:1018900080250020200000201C00002014000020D3
:1018A0001000002008000020040000200C00002090
:1018B0001800002008B5034699889B7900682BB171
:1018C0000DF003FDB0FA80F0400908BD0DF0FDFCFD
:1018D000003818BF0120F8E708B50248FFF7EAFF13
:1018E00008BD00BF9C2A0020818800680DF0E8BC7C
:1018F000818800680DF0E6BC2DE9F843A54BA64CA5
:10190000998818680DF0E4FC0DF0ECFCA34BA44E94
:10191000186801F010FF0FF0B1F8A2490FF0B6F906
:101920000146DF2001F068FF06F07CFA01468220C4
:1019300001F054FF802001F031FF21680546306836
:1019400006F0DCFE072001F029FF08B107F08EF950
:101950003068954F03689B6A98470146B32001F0B1
:101960003DFF30680368DB6A98470146B12001F00B
:1019700043FF07F0AFF9386803689B689847306801
:1019800003689B689847894B186803689B68984769
:10199000874B18680368DB689847864B18680368AC
:1019A0001B699847206803689B689847824B1868B2
:1019B00003689B699847814B186805F0B9FC0CF0E7
:1019C00049FF7F4B1B780BB10BF03AFDAA2001F0C9
:1019D000E5FE03467B4C002B606A80F2A980FFF78E
:1019E00083FFE62001F0DAFE002800F0A480AA20A0
:1019F00001F0D4FE022800F09E80AA2001F0CEFE65
:101A0000002800F098806069FFF76EFFBC2001F0AD
:101A1000C5FE0346606C002B00F09180FFF764FF69
:101A2000012D206940F08E80FFF75EFF3868DFF8F7
:101A3000988103689B6998470146AB2001F0DCFE62
:101A4000386803685B6998470146AC2001F0D4FE12
:101A5000386803685B6A98470FF010F80146C120A8
:101A600001F0CAFE3868594F0368DB6998470146A0
:101A70008A2001F0C1FE306803685B6B984701461D
:101A8000C02001F0ABFE524BAE20196801F0A6FE5B
:101A9000504B1B78012B03D0042B01D03B7823B192
:101AA000D8F8000003689B689847D8F80000DFF872
:101AB0002891036899F800105B699847064600284A
:101AC00043D0012D1EBF0122444B1A7001233B70ED
:101AD000A06A434B984205D0FFF7ECFE0146D820A0
:101AE00001F07CFE0BF05AFC0BF074FC042D01D0CD
:101AF000012D7BD1AB2001F059FE0646DB2001F021
:101B000055FE014630460FF0C9F988B3AB2001F00D
:101B10004DFE0646762001F049FE31460FF0A0F951
:101B200040B3E06BFFF7E0FE206CFFF7DDFE63E003
:101B3000FFF7DEFE55E76069FFF7DAFE66E7FFF7BD
:101B4000D7FE6DE7FFF7D4FE70E73B7833B101466F
:101B5000812001F043FE214B3E701E70D8F800003A
:101B600099F8001003689B6998471E4B1870AFE7FF
:101B7000DB20CCE7762001F019FE1B490EF0C8FEF1
:101B800031460FF08BF90028CED0E06BFFF7B0FEA6
:101B9000CAE700BF5C2B00200C0000209C2900201D
:101BA0001C00002000002041200000201400002024
:101BB00008000020040000201800002088290020D0
:101BC00070290020882F0020100000209929002073
:101BD000BC2D002086290020842900209A2900207D
:101BE0008C2A0020732900200000A040E06BFFF742
:101BF0007FFE206CFFF77CFE002001F0CFFD09285E
:101C000016D1012D14D1AA2001F0C8FD094B0A4CB0
:101C10001A68824209D005221860226007480CF039
:101C200027FD2368013B236002E02368002BF5DCDD
:101C3000BDE8F8831C25002018250020242500205D
:101C40002DE9F74FA12001F0A9FD8146802001F088
:101C5000A5FD0446AA2001F0A1FD80460DF016FD69
:101C600006F0ACF8834B844E186803685B689847AD
:101C7000802001F093FD0128054640F0D5800FFA41
:101C800089F989EAE970A0EBE97080B206F008FFF3
:101C9000002107460FF0E4F898B1002001F07EFD26
:101CA00004280ED0232001F079FD002840F0B680F2
:101CB000B9F1000FB8BF4FF0FF35454518BF07F128
:101CC000004740460EF0DAFE39460EF02BFF05467F
:101CD000306803685B689847306829460368DFF816
:101CE0009C811B699847B92001F06EFD002840F0E7
:101CF0009F80D8F82000FFF7FBFD3068DFF880A157
:101D00000368DFF880911B6A98470FF0E7F805B287
:101D10002946A12001F062FD082001F03FFD5AF89C
:101D2000200006F0E5FB012C01D0042C09D1D9F8E4
:101D3000000085EAE5710368A1EBE5719B6989B252
:101D40009847D9F80070AB203B68D3F81CB001F07D
:101D50002DFD01463846D847D9F8000003685B6876
:101D60009847494B18680368DB689847474B1868E1
:101D700003685B689847042C65D1454B1868036875
:101D80005B689847284606F037FD0746A52001F016
:101D900005FD0190182001F001FD8346392001F076
:101DA00005FD0090292001F001FD39460FF076F87D
:101DB0003946B0FA80F500980FF05CF8019BB0FA54
:101DC00080F05B45D4BF002301236D094009ED007D
:101DD00045EA8005872045EA831501F0E7FC0746C0
:101DE000282001F0E3FC014638460FF057F80028A0
:101DF00008BF45F001058320294601F0EFFC1720BC
:101E000001F0CCFC0090052C00F2A080DFE814F07B
:101E100042008201BB0034015001BF01B9F1000F43
:101E2000A8BF4FF0FF3548E706F008FF002553E74D
:101E3000B62001F0C9FC00287FF45BAFD8F8200081
:101E4000FFF752FD59E7052001F0A8FC032804D153
:101E50000F4B186803685B689847012C92D1DE200D
:101E600001F09CFC411C01F00F01DE2001F0B6FCEA
:101E700088E700BF1000002020000020882F0020ED
:101E80008C2900201C000020040000200C000020F1
:101E9000140000204FF0000B904B914E914883F8B6
:101EA00000B086F800B0FFF723FDD8F81800FFF760
:101EB0001FFD0221AA2001F091FCD9F800008A4FF1
:101EC00003685B69984787F800B0DFF820B2BBF879
:101ED0000030002B50D18648FFF70AFDD8F81C00CF
:101EE000FFF706FD8348FFF703FD15F0410F01D012
:101EF000009BB3B1D9F8000003689B6B984780B191
:101F0000D9F8000003685B6B984750B101233B7020
:101F100033701923ABF800300DF0B8FB0224764B78
:101F20001860764B1B786BB115F0480F0AD1192356
:101F3000ABF800300DF0AAFB6F4B022418600123B0
:101F4000664A13702146802001F048FCC02001F051
:101F500025FC20436A4A6B4D40F04181674B1B785A
:101F6000002B40F03C811388002B40F04C81D8F8C6
:101F70004800FFF7BDFC3BE1013B9BB2ABF80030F2
:101F8000002BB2D1A7E7DFF874B19BF80030002B2B
:101F900051D132685C4B9A4202D05248FFF7A4FC00
:101FA000D8F81C00514EFFF79FFCD8F81800FFF737
:101FB0009BFC3388002B48D14E48FFF795FC4A4FD5
:101FC0003B784BB115F0450106D1192385203970B6
:101FD0003380012401F002FC9BF800304BB115F076
:101FE0004C0106D14FF4FA7385203380042401F0AC
:101FF000F5FB3A4B1B7823B19BF80030002B08BF50
:102000000024374D2B7833BB022C9BD10DF03EFBC7
:102010008146152001F0C2FB374B1B6803449945EC
:1020200090D9009B03B32B78F3B100233B701923A5
:102030000124338086E7072001F0B0FB0028AFD1F0
:102040003268324B9A42ABD1A7E7013B9BB2338057
:10205000002BB4D1B0E7D9F8000003685B6B984758
:102060000028D1D100246DE72248FFF741FC0A2067
:1020700005F0AAFE032465E700221B4B1D481A70D9
:10208000FFF736FC154B1B7823B11C4B1B78002B3C
:1020900008BF0024124B1B78002B3FF453AFD9F834
:1020A000000003685B6B9847002808BF002449E7DD
:1020B0000E4A138853B90E48FFF716FC0F4B1B78D6
:1020C0004BB99622124B05241A8004E0013B9BB2C7
:1020D0001380002BEFD005F099FE33E77129002023
:1020E00072290020142B00207429002024000020D5
:1020F000642B00201C2B0020142500209A2900208E
:10210000102500201800002028280020A0280020EA
:102110005C290020684A13884BBB6848FFF7E4FB42
:102120006748FFF7E1FB8020012101F057FB05F034
:102130006DFED9F8000003685B6B984700287FF4B8
:1021400001AFA12001F02AFB00284FF0A10014DA12
:1021500001F024FB404231283FF7F4AEAA2001F001
:102160001DFB68B99622574B05241A80EAE6013B0D
:102170009BB21380002BD6D1CFE701F00FFBEAE72B
:10218000AA2001F00BFB02287FF4DCAEEAE74B4803
:10219000FFF7AAFB4A48FFF7ABFB0221AA2001F098
:1021A0001DFB484A13887BB98F2001F0F7FA0028FD
:1021B00011DA8F2001F0F2FA404204283FF7C2AE54
:1021C000FA223D4B1A804DE7013B9BB21380002B56
:1021D0007FF4B8AEE8E78F2001F0E0FAEDE74FF4C6
:1021E00096731380D8F84800FFF77EFB012C11D0BE
:1021F000D8F80C00FFF77CFB002228681146036822
:10220000DB68984724E0013B9BB21380002B3FF42E
:10221000AEAEE7E7522001F0C1FA012842D1D8F86A
:102220000C00FFF761FB2E68552033689F6801F0B2
:10223000B5FA0EF023FC01463046B8472D6853200E
:102240002B68DE6801F0AAFA012281B22846B04765
:10225000072001F0A3FA022807D10A2001F09EFA14
:102260005AF82010204608F0BDFB072001F096FA2E
:10227000032807D10A2001F091FA5AF820102046CD
:1022800008F0FCFD072001F089FA042810D10A208B
:1022900001F084FA5AF82010204603B0BDE8F04F50
:1022A0000CF0FCBAD82001F08FFA0028B7D19FE7D4
:1022B00003B0BDE8F08F00BF24000020642B002095
:1022C000142B00205C2900202DE9F047802001F02C
:1022D00065FA05469C4BDFF8748218680368DB6872
:1022E0009847042D04D1D8F800000368DB689847AC
:1022F00006F07EFD964BDFF85CA21968D320DFF86C
:10230000589201F06BFAD420DAF8001001F066FA66
:10231000D520D9F8001001F061FA904B904E196861
:10232000D620904F01F05AFAD720318801F056FAA2
:102330003B788D4C022B32D18C4B1B787BBB042D10
:102340001DD1DFF82CA2DFF82C92DAF80030002B38
:1023500044D100235C20237001F020FA4FF49673DF
:102360005843CAF80000D9F80030B3F5967F16D16B
:102370000023C9F800303388013B33800FE07E4AE8
:10238000DAF8003012789A4226D17C4AD9F8003027
:1023900012789A4220D13388F3B1012323703B781D
:1023A0003BBB724B1B780BB9012323706F2001F0EC
:1023B000F5F9012821D1712001F0F0F9704B814627
:1023C000586802F0B4F806460146E02001F006FA2B
:1023D000B1452CDA002331E00023DFE7D9F80020F3
:1023E000013B0132CAF80030C9F80020002BBAD1F5
:1023F000AFE7012BDAD10023D7E7702001F0CEF947
:102400000128D8D0D8F800005E4A036812785B69CA
:102410002178984708B1012D12D15B4B1E78AEB9D7
:102420003146812001F0DAF9584B1E700EE03B78FE
:10243000012BE7D14D4A1278002AE3D12370E1E75E
:102440000121524B8120197001F0C8F9504E3378A8
:10245000022B07D14C4B1B7823B14E4B18680368F5
:10246000DB6898473378012B02D9033B012B0AD84C
:10247000484F38680368DB68984733781BB9386879
:102480000368DB689847042D3CD13F4B1E78002E33
:1024900033D1862001F082F905463E2001F07EF915
:1024A0008542A1BF0122314B26701A703A4B186841
:1024B00003689B68984700210EF0C8FC68B1374A52
:1024C0001368002BDFBF002301212370274BCEBFF1
:1024D00003F1FF3319700A231360314B586B314BF2
:1024E00098420AD0FFF7E6F938B1E52001F056F935
:1024F00018B901221D4B20701A70294B986BFFF7F9
:10250000F7F956E0012DF8D10022184B6F201A7010
:1025100001F044F9022847D1722001F03FF9064644
:10252000732001F03BF9164B0546986801F0FFFF58
:1025300001460446E12001F051F9AE423BDCA642DF
:10254000DBDCA54235DA3AE01C0000201400002054
:102550006C290020682900206429002060290020BF
:102560008029002085290020842900209829002026
:102570007C2900207829002083290020822900203E
:102580007C2F002073290020992900209A290020FF
:1025900086290020100000200800002000000020F4
:1025A000882F00208C2A0020702001F0F7F80228E4
:1025B000B2D0BDE8F087A6429FDBA542F9DD024B11
:1025C000986BFFF791F9F4E7882F0020FEE70000F1
:1025D0000C2838B510D80C2819D8DFE810F0D00036
:1025E000D300E5001800D900D600DF001800E8008D
:1025F000E800E800E800E800512800F0CC8000F294
:10260000B2803C2800F0DB80492800F0CA802320FB
:1026100001F0C4F840B1002001F0C0F8082803D050
:102620000021232001F0DAF8182001F0B7F8664DF8
:10263000664C2860192001F0B1F820601A2001F0E2
:10264000ADF868601B2001F0A9F860601C2001F063
:10265000ADF85F4D5F4C28601D2001F0A7F82060A9
:10266000332001F0A3F85C4B2168186028680EF055
:10267000F7FB50B159491C202960594D256001F0E4
:10268000BBF829461D2001F0B7F81E2001F08EF896
:10269000544B554C18602E2001F088F8534B1860AD
:1026A0002F2001F083F8524B1860312001F07EF8A2
:1026B000504B1860262001F071F84F4B1860202015
:1026C00001F074F84D4B1860242001F06FF84C4B6A
:1026D0001860302001F06AF84A4B18601F2001F0A2
:1026E00065F8494B1860052001F058F8042001F006
:1026F00055F8464B18702378012B22D1592001F050
:102700004DF8434B1860582001F048F8414B1860D1
:10271000572001F043F8404B1860562001F03EF876
:102720003E4B18605A2001F039F83D4B18705B2081
:1027300001F034F83B4B18705C2001F02FF83A4B55
:102740001880452001F02AF820705C2001F026F85E
:102750004FF496735843354B186008F087F8BDE87E
:10276000384008F0C1B8692805D866287FF64FAF11
:1027700000F030FE4BE779380428F9D947E7FEF737
:10278000E5FE44E7FEF77AFE41E7FEF77BFD3EE714
:10279000FEF7BEFD3BE7FEF727FF38E7FEF7EAFD51
:1027A00035E7FEF71DFE32E7FEF73AFE2FE7204C35
:1027B000206804F06FFD606804F06CFD27E704F00A
:1027C00055FB04F041FB22E7B42D0020AC2D002086
:1027D000A82D0020A42D00206C2D00200080BB44DB
:1027E0000000C842A02D002085290020982D00203F
:1027F000902D00208C2D0020702D0020882D002091
:10280000842D0020942D00209C2D0020862900205E
:102810006029002064290020682900206C290020FC
:102820008329002082290020802900207C29002083
:102830008C290020014B186800F046BF9C2900201D
:1028400000B589B003A804F091FB28B1DDF815307C
:102850000193DDF81930029304F003FB4FF40040BC
:102860000CF0ECFB0499A1F58473012B05D8044B03
:1028700001AA186803681B69984709B05DF804FB52
:102880001000002008B500200CF03CFF104B1A6827
:1028900001323B2A1A600F4A05D9116801311160D3
:1028A00019683C39196013683B2B0B4B05D9196823
:1028B0000131196011683C3911601A68172A06D96C
:1028C00006490A6801320A601A68183A1A6008BD97
:1028D0006029002064290020682900206C2900203C
:1028E0002DE9F043ADF68C2D00F0C0FB00F0E8FCC4
:1028F0000022C449C44801F05BFE0122C149C3481B
:1029000001F056FE0122C249C24801F051FE0222E6
:10291000BC49C14801F04CFE0322BA49BF4801F04E
:1029200047FE0522B749BE4801F042FE0422B549E0
:10293000BC4801F03DFE0B22B249BB4801F038FE15
:1029400004232022B949BA4801F0A3FB04238022C2
:10295000B649B84801F09DFB04234FF40042B64944
:10296000B64801F096FB04231022A949B44801F0AF
:1029700090FB04230822A649B24801F08AFB0125F6
:10298000072380229F49B04801F083FB07230422DC
:10299000AE49AF4801F07DFB07234FF40042A34945
:1029A000AC4801F076FB07234FF480429F49AA48C8
:1029B00001F06FFB07234FF400529C49A74801F038
:1029C00068FB07234FF400729849A54801F061FBAA
:1029D00007234FF480729549A24801F05AFB072360
:1029E0004FF480629149A04801F053FB07234FF454
:1029F00000628E499D4801F04CFB0723402281492B
:102A00009B4801F046FB07234FF480728A4999489E
:102A100001F03FFB07234FF400727A49964801F01A
:102A200038FB07234FF480727649944801F031FB5C
:102A300007234FF480527D49914801F02AFB05237A
:102A4000082282498F4801F024FB052310227F4988
:102A50008D4801F01EFB052320227C498B4801F0A4
:102A600018FB072340227949894801F012FB07230C
:102A700008226E49874801F00CFB072304226B49AA
:102A8000854801F006FB07234FF4805260498348D4
:102A900001F0FFFA07234FF480426C49804801F0AF
:102AA000F8FA072301225A497E4801F0F2FA072377
:102AB000802261497C4801F0ECFA072340225E49FC
:102AC0007A4801F0E6FA042340225849784801F098
:102AD000E0FA042310225549764801F0DAFA00237F
:102AE00080225A49744801F0D4FA01F0B3FC7349CA
:102AF0004FF000700CF0DAFB00F072FB00F0A0FB6E
:102B000005F02EF900F012FB00F03CFB00F062FC37
:102B1000E720FFF75DFD5748FEF7EAFE6048FEF745
:102B2000E7FEC4AC0023664A6649009539A800F068
:102B300005FF0DF26C58002302222046624905F081
:102B400045FB022261492B46404605F03FFB604BA6
:102B50000F2004935F4B0DF5F96705935E4B0DF164
:102B60006409069300F01AFE2A46002814BF414665
:102B70002146384605F06AF83A462146484608F0AC
:102B800011FE564E0321484608F028FE204604A9AF
:102B9000C6E9004804F052FB04A9404604F04EFB8D
:102BA0004F4B0A201F604F4B07AC1F6000F0F6FD33
:102BB00056F820700E2000F0F1FD56F820104A481B
:102BC00008F012FD04F052F904F03EF94FF4964279
:102BD0004649204609F042FD454B1C600FACFEF70C
:102BE000B5FCFEF74BFCFEF74DFBFEF791FBFEF745
:102BF000C1FBFEF7F9FCFEF7F3FBFEF711FC3D49C4
:102C0000204679E000100140B02B0020AC2B0020C2
:102C1000000C0140A82B0020A42B0020A02B00209A
:102C20009C2B0020982B0020942B002000140140A6
:102C30008C2B0020842B0020000801407C2B0020DE
:102C4000742B00206C2B0020642B00200018014006
:102C50005C2B0020542B00204C2B0020442B002008
:102C60003C2B0020342B00202C2B0020242B002078
:102C70001C2B0020142B00200C2B0020042B0020E8
:102C8000FC2A0020F42A0020EC2A0020E42A00205C
:102C9000DC2A0020D42A0020CC2A0020C42A0020CC
:102CA000BC2A0020B42A0020AC2A0020A42A00203C
:102CB0009C2A0020942A00208C2A0020C00040007A
:102CC000142B0108004800400064004000680040E8
:102CD00004110108B9170008651600088C290020A6
:102CE000F02E002088290020802500200038014097
:102CF000202500200008004000F090FC1B4B2A46D5
:102D000020461B491C6000F0A9FC0A2220461949F4
:102D100000F0A4FC64222046174900F09FFCC82262
:102D20002046164900F09AFC782000F037FDA842B2
:102D300002D1384602F0B2F804217F2000F04EFDA7
:102D40000021802000F04AFD4FF0000439A88DF8E2
:102D50000F4000F0ABFFD9F81430002BF6D10DF185
:102D60000F011AA806F018FAF0E700BF9C2900200E
:102D700029120008411C0008F9180008C92200089F
:102D800010B50024624B634A1C741A60624B634A9C
:102D90001C721A60DC721C73614A624B62481A60D2
:102DA0001C72DC721C73614A614B1A60614B624A8F
:102DB0001A6007F051FD614B614A1C621A601C7772
:102DC000604A614B61481A60614B624A1A60624B0B
:102DD000624A1A60624B634A1A60634B634A1A6024
:102DE000634B644A1A60644B644A1A60644B654AD8
:102DF0001A60654B654A5C751A60DC82644A654BF3
:102E00001A60654B654A1A60654B664A1A60664BE4
:102E1000664A1A60664B674A1A60674B674A1A60CF
:102E200004F0F0F9664B674A67481A6007F042FB06
:102E3000664B674A67491A60674B684A68481A6078
:102E4000684B694A1A60694B694A1A60694B6A4A59
:102E50001A606A4B6A4A1A606A4B6B4A1C721A60A3
:102E60006A4B6B4A1A606B4B6B4A1A606B4B6C4A2D
:102E70001A606C4A6C4BC2E9024413600023136170
:102E800053619361D361694A1160694A6949C2E932
:102E900004441160C2E90644136253629362D36230
:102EA0006549664A11606649C2E90244C2E90444C0
:102EB0001483D361136253629362D36213635363C7
:102EC0009163604A6049C2E9044411605F49D3607C
:102ED0009361D361148453629362D3621363536327
:102EE0009363D3631364536493649160584B594A5A
:102EF0001A60594B594A1C731A60594B594A1A6047
:102F000009F0A6FBBDE8104057480BF0A1BB00BF7D
:102F100048290020843301082C290020A82B01080F
:102F2000E02C010810290020DC280020D42E010804
:102F300000290020F42800201C2F0108B8280020B8
:102F4000682D0108FC300108A0280020002800207E
:102F5000982800205C32010890280020883201085F
:102F6000882800201C34010880280020381101081E
:102F7000782800206411010870280020B43201086C
:102F800068280020B03101085028002018330108BB
:102F90006031010848280020402800203431010811
:102FA00038280020F0330108302800207C35010843
:102FB00028280020642F010820280020141201086E
:102FC000F827002090110108EC270020E0270020BE
:102FD000D436010854360108D8270020F011010822
:102FE00058250020CC260020CC330108C026002024
:102FF00030360108B4260020D4340108A826002069
:10300000F834010898260020B034010890260020EA
:103010004C12010884260020703601087C2600200E
:10302000B41101085C260020FC320108542600205F
:1030300024260020E0320108B8360108E8250020E7
:103040000000FA439C250020003701080000C84218
:1030500094250020D0110108842500206433010844
:1030600078250020141101082425002008B50CF053
:1030700047FA02200CF01CFA4FF0E0232A4A40F2F3
:103080000230C3F80C2D0CF07FFA40F203300CF044
:103090007BFA4FF441700CF077FA40F205300CF0F7
:1030A00073FA40F206300CF06FFA40F292300CF0F6
:1030B0006BFA40F291300CF067FA40F20E300CF0EF
:1030C00063FA40F20B300CF05FFA4FF460700CF0D2
:1030D0005BFA40F281300CF057FA40F282300CF08B
:1030E00053FA4FF420700CF04FFA40F209300CF014
:1030F0004BFA40F286200CF047FA4FF440700CF087
:1031000043FA40F299300CF03FFA40F29A300CF05A
:103110003BFA40F28E300CF037FABDE8084040F23E
:103120008F300CF031BA00BF0003FA0513B500244C
:10313000202123462246CDE9004410480CF058FBDC
:1031400021460E480CF04CFB0C480CF03BFB0B48A6
:103150000CF041FB4FF420430222032108480CF0FD
:103160006FF84FF480430122214605480CF068F8BF
:10317000024802B0BDE810400CF018BB0038004017
:10318000000C014013B500244FF080514FF0007047
:103190000CF08CF8234622462021CDE900440E484D
:1031A0000CF026FB0C480CF00DFB0B480CF013FB4D
:1031B0004FF4A0530222032108480CF041F84FF4C9
:1031C00000630122214605480CF03AF8024802B09B
:1031D000BDE810400CF0EABA003C0040001001408D
:1031E00008B502220423032112480CF029F8082311
:1031F000012200210F480CF023F80F490F480CF072
:10320000B5FC08210D480CF0C3FC00210B480CF064
:10321000C8FC0C2109480CF0D0FC002107480CF038
:10322000C6FC064800210CF0CEFCBDE8084003486F
:103230000CF0CFBC0008014020A107000044004072
:1032400008B511200CF060FDF02111200CF068FD94
:1032500010200CF059FDF02110200CF061FD1E2013
:103260000CF052FD00211E200CF05AFD14200CF031
:103270004BFDE02114200CF053FD13200CF044FD15
:10328000E02113200CF04CFD28200CF03DFD4FF404
:1032900000400BF0C5FE01214FF400400BF09CFEF6
:1032A00006494FF400400BF0CFFE03200CF02CFD3C
:1032B000BDE80840202103200CF032BD0018014079
:1032C00008B54FF2234103200CF056FA00200CF011
:1032D000E7F900200CF016FABDE8084000200CF0D9
:1032E000EFB90000022208B511464FF400731648EA
:1032F0000BF0A6FF15480CF0C3FA00232022194654
:1033000012480CF096FA202110480CF0BEFA072261
:1033100000210E480CF0BDFA00210C480CF0BEFB59
:103320000A480CF015FC4FF4C872002107480CF055
:10333000FFFB06484FF488610CF0A9FABDE808408D
:1033400002480CF098BA00BF00180140002C014060
:1033500008B5022303211A461D480BF071FF4FF0F8
:1033600080400CF08DFA00234FF080401A46194639
:103370000CF05FFA00214FF080400CF086FA4FF01D
:1033800080400CF05FFA4FF080400CF06FFA8F2114
:103390004FF080400CF07BFA02214FF080400CF09F
:1033A000A2FB062202214FF080400CF072FA0221AB
:1033B0004FF080400CF072FB4FF080404822022119
:1033C0000CF0B6FBBDE808404FF080400CF053BA5B
:1033D00000080140692038B500F0E0F9132808D151
:1033E00002220123114687480BF02AFF00242546BC
:1033F0000DE0692000F0D2F9142840F092800222FA
:10340000012311467F480BF01BFF00240125682093
:1034100000F0C4F9132840F099800222802311465D
:1034200079480BF00DFF672000F0B8F9132840F041
:10343000AE8002224023114673480BF001FF73480F
:103440000CF01EFA002171480CF001FA6F480CF0E4
:10345000F9F9062200216D480CF01BFA0622022120
:103460006A480CF016FA0622042168480CF011FA9A
:10347000002166480CF0D3FA022164480CF0CFFA20
:10348000042162480CF0CBFA002160480CF0E1FA0C
:1034900002215E480CF0DDFA04215C480CF0D9FAF8
:1034A00000215A480CF0FAFA022158480CF0F6FABA
:1034B000042156480CF0F2FA002D40F08980002CCF
:1034C00040F086807A2000F069F901464F480CF000
:1034D000DEF97B2000F062F9214602464B480CF0F1
:1034E00027FB7C2000F05AF90221024647480CF0E5
:1034F0001FFB7D2000F052F90421024643480CF0E6
:1035000017FB012141480CF028FB792000F046F917
:1035100001463E480CF0B9F9BDE838403B480CF094
:10352000AAB9692000F03AF9152808D1022201232E
:10353000114634480BF084FE0124002567E7072379
:1035400001223049324800F0A4FD4FE7682000F026
:1035500025F9142807D10222802311462A480BF0AE
:103560006FFE01255FE7682000F018F9152807D1E4
:1035700002228023114624480BF062FE012452E708
:10358000072380222049234800F083FD4BE7672072
:1035900000F004F9142807D10222402311461A48EA
:1035A0000BF04EFE01254AE7672000F0F7F81528DA
:1035B00007D102224023114613480BF041FE01249B
:1035C0003DE7072340221049134800F062FD36E72B
:1035D00041F68C110D480CF05AF9012200210B48DC
:1035E0000CF0A6FA0122022108480CF0A1FA0122EF
:1035F000042106480CF09CFA012104480CF0ADFAB5
:103600000A2186E7000C0140000801400004004048
:10361000B42A0020AC2A0020A42A002038B50C4689
:103620000546016208460CF00DF920460CF019F928
:10363000084B20461968084BB1FBF3F101390CF037
:1036400024F920464FF6FF710CF021F9002328469B
:103650006B6238BDE0230020A0860100F8B5436A04
:103660000446032B0E4615462ADC006A0CF008F9C6
:10367000144F636A0122F95C206A0CF00AF9636A4C
:103680000022F95C206A0CF053FA0221636A05EB10
:10369000850505EB850503F10802AD0044F82360BC
:1036A000994024F81250206A0CF0B6F80021206AE4
:1036B0000CF059FA206A0CF0DEF8636A0133636299
:1036C000F8BD00BF8C1201082DE9F843044600251F
:1036D0004FF0020800F11006636A08FA05F7AB42E2
:1036E0000ADC3946206A0CF0A1F80135042D06F1F8
:1036F0000206F1D1BDE8F8833946206A0CF090F853
:10370000A8B1206A0CF02DFA236A3188343353F8BB
:10371000252081460A4443F8252054F8253098474F
:10372000206A0CF01EFAA0EB09003081D9E7636A29
:10373000AB42DADCD5E7002170B500F10E03446A34
:103740004FF47A7508468C4200DC70BD5A8933F814
:10375000026F6A43B2FBF6F201311044F3E7000056
:1037600010B51C24084A04FB0022D4688C4209DCF2
:1037700012698A4206DB054A42F82010FEF728FF4C
:10378000002010BDFF20FCE7C4030020280000201B
:10379000014B53F82000704728000020024B53F8DB
:1037A00020004011704700BF2800002008B5054BDD
:1037B00053F820000DF062F94FF074510DF0B2F99A
:1037C00008BD00BF28000020034B53F82000401123
:1037D000431E58425841704728000020024B4901BF
:1037E00043F82010704700BF28000020014B43F829
:1037F000201070472800002010B5044608464FF0FE
:1038000084410DF08FF90DF069FB024B43F8240061
:1038100010BD00BF2800002070B506460024074DEB
:103820003146686800F090FB08B9E0B270BD013421
:10383000E72C05F11C05F3D1E820F7E7C4030020CD
:103840000023064A118B814201D1D8B2704701335F
:10385000E72B02F11C02F5D1E8207047C4030020D9
:103860001C22024B02FB0030704700BFC403002043
:103870000023064A0649108B10B1506941F8230015
:103880000133E72B02F11C02F5D17047C40300207D
:1038900028000020014B1954704700BFA0290020C8
:1038A000024B1A5C11431954704700BFA029002035
:1038B000024A135C23EA010313547047A029002035
:1038C000014B185C704700BFA02900201C22024B4E
:1038D00002FB0033987E7047C40300200048704705
:1038E000AA6A0300024B1A68024BC3F8402E7047C5
:1038F000D4220020C4030020202180680CF08FB95E
:1039000080680CF084B910B504464368597A586849
:103910000BF039FB636804F12A02597A58680BF0FE
:1039200044FB63688022597A58680BF04EFB636849
:10393000BDE81040597A58680BF01CBB70B50261A5
:1039400040F201120D464B498282016001210022A2
:10395000817580F8281004460421C0E9062280F809
:10396000202042629DF81020856080F82920424A7C
:10397000037342601068A84203D01C3201396260B0
:10398000F8D13E490C60002B70D05069138B022295
:1039900003210BF055FC28464FF4E1310CF0E6F81A
:1039A000284608210CF0F4F828464FF400510CF09A
:1039B000F8F828460C210CF000F9284600210CF0FC
:1039C000F6F8002128460CF0FEF828460CF011F914
:1039D00028460CF013F963682E1D197A58680BF00D
:1039E0005FFA6368197A58680BF0BBFA636832466D
:1039F000197A58680BF0D0FA63680022197A58686F
:103A00000BF084FA63680022197A58680BF072FA96
:103A10006368197A58680BF085FA6368597A5868B0
:103A20000BF03EFA63683246597A58680BF0B4FAE4
:103A300063680022597A58680BF068FA63680022BC
:103A4000597A58680BF056FA6368597A58680BF03F
:103A500069FA63685868597A0BF08CFA2046FFF7C8
:103A600052FF28460CF0B5F8204670BDD068138A86
:103A70008DE700BFA02A0108A42A0108882A002097
:103A800038B5437D0D4604691BB90024204638BD76
:103A90000834216821B1284600F056FA0028F7D1F1
:103AA0002368002BF2D1F0E738B504460D46636871
:103AB0000222197A58680BF008FA18B994F82830DD
:103AC000002BF4D06368197A58680BF05CFA6368CD
:103AD000AAB2197A58680BF078FA94F82020636833
:103AE00004EBC212197A5868AA320BF05EFA6368C6
:103AF0000222197A58680BF0E3F96368197A58685A
:103B00000BF038FA94F82030B3FA83F35B0984F8A9
:103B10002030002384F8283038BD837D10B50A4654
:103B2000044623B9BDE8104080680CF057B894F8FB
:103B30002030406ADB01234403440A2A00F10101DA
:103B400083F8AA2001D07F2805D12046FFF7ACFFDB
:103B50000023636210BD6162FCE7802A30B428BF95
:103B600080220C460021914202D130BCFFF79CBF5D
:103B700090F82030655C00EBC3130B4483F8AA5027
:103B80000131F0E738B5054608460C4600F0F3F978
:103B9000214602462846BDE83840FFF7DEBF000058
:103BA00010B50446084600F039FA00F01EFA217DEF
:103BB000227B8142636811D1012161755AB1586934
:103BC0001B8B032102220BF03BFB2046BDE810407B
:103BD0000949FFF7D7BFD8681B8AF2E70021617552
:103BE0003AB158691B8B0122BDE8104000210BF04F
:103BF00027BBD8681B8AF6E7AE23010830B5044618
:103C000085B0084600F00AFA0378302B26D0322B14
:103C1000144D18BF4FF46125637DA3B10A222946D4
:103C200001A800F0B7F920460F49FFF7ABFF204687
:103C30000E49FFF7A7FF204601A9FFF7A3FF204683
:103C40000B49FFF79FFF2946A0680BF08FFF00216B
:103C5000A06805B0BDE830400BF0A3BF4FF4E135DC
:103C6000DAE700BF10552200AD230108B323010895
:103C7000332A010810B50446084600F0CFF903784E
:103C800023B1303B18BF012384F8293094F8293040
:103C90002BB104492046BDE81040FFF773BF02492D
:103CA000F8E700BFC2230108CC2301082DE9F04149
:103CB00043680446597A58680BF080F90546C0F10C
:103CC000800710B92046FFF71EFE94F82930A0683F
:103CD00013B1E369BB4254DB08210BF0A0FF10B124
:103CE000A0680BF094FF002F40F39280651B95F8BD
:103CF000A9300A2B01D00D2B77D16368597A586807
:103D00000BF041F9012F37D00022E31904F12A0604
:103D100083F82A2020213046E26100F033F990F840
:103D200000800546B8F1000F33D10A21304600F07B
:103D300029F9054684F8AA812B7823B90D2130464C
:103D400000F020F90546002330462B703149A3616D
:103D500000F0FAF818BB204604F5D571FFF720FFF4
:103D60000027A369BBB3A0680BF055FFA3692046E9
:103D70005B6804F5D57198472046BDE8F041FFF730
:103D8000C2BD5A1CE261234493F82A100BF026FFAF
:103D90009BE7411C04F5D57000F0E4F8CCE7304611
:103DA0001D4900F0D1F828B9204604F5D571FFF778
:103DB00025FFD5E73046194900F0C6F828B9204656
:103DC00004F5D571FFF756FFCAE731462046FFF7E5
:103DD00057FEA061C5E7012FCEDD637D002BCBD060
:103DE00020460F49FFF7CEFEC6E794F82A30212B74
:103DF0000ED1A36963B12046FFF785FD0023E3617F
:103E0000A369204604F5D5715B68BDE8F041184709
:103E1000BDE8F081D7230108E2230108EB23010864
:103E2000F0230108034BC1B21B681A6818461268D8
:103E3000104700BF882A002004F010B807B50749D2
:103E4000D1F8F027D1F8EC37D1F8E8170091044900
:103E500000F0F2FA03B05DF804FB00BF00F0FF1FB2
:103E60000B24010805F098B973B5144800F0D2FA94
:103E7000134800F0CFFA0025EEB23046FFF7F0FC11
:103E800004463046FFF722FD68B93046FFF718FDBB
:103E9000C3070DD463690B4800936168D4E9032319
:103EA00000F0B8FA04E03046FFF710FD0128ECD02E
:103EB0000135E72DE0D102B070BD00BF1424010828
:103EC0002B2401084724010870B50B4900F0B4FA0F
:103ED0000024E6B23046FFF7C3FC05463046FFF744
:103EE000EFFCC30704D4D5E90112044800F092FAAC
:103EF0000134E72CEDD170BD5A2401087C2401085F
:103F0000F8B505460024E6B23046FFF7A9FC47683D
:103F10003046FFF73DFC013403463A462846034944
:103F200000F08AFAE72CEED1F8BD00BF8624010824
:103F300010B50446FFF79CFC2046BDE8104001493F
:103F400000F07ABA8F240108431E013913F8010FDB
:103F500011F8012F10B10AB19042F7D0801A18BFA2
:103F600001207047013911F8013F0BB90370704708
:103F700000F8013BF7E7034600201A5C02B97047DE
:103F80000130FAE70346184613F8012B0AB18A42BA
:103F9000F9D17047002970B518DA2D23012400F8F3
:103FA000013B4942034691FBF2F602FB1611303108
:103FB0001970311E1D4603F10103F4DC00221A7052
:103FC0000246AA420AD3241A181904E004D1302365
:103FD00041700370012070BD0024E3E711782E7852
:103FE00002F8016B05F80119EBE730B503782D2BCA
:103FF00011D14FF0FF34013000210A25431E01E0AA
:1040000005FB012113F8012F303AD0B20928F7D966
:1040100004FB01F030BD0124EEE7000010B5134CA5
:10402000014610F8012BA2F10A03DBB2162B19D8B6
:1040300024FA03F3DA07F3D40846FFF79CFF0138AC
:104040000844814204460AD2237801380A3BDBB295
:10405000162B04D8054A22FA03F3DB07F1D4002318
:10406000637001E0002AE7D1084610BD0900400056
:10407000002310B5934200D110BD51F8234040F801
:1040800023400133F6E7013A00D2704740F8041BA1
:10409000F9E72DE9F041174682800022013B0E46E8
:1040A00001608271082B0BD8DFE803F0080E0C18B2
:1040B000150524261A000024002513E0012383712E
:1040C0000224F9E701238371022400253946304692
:1040D0000BF0F6F806E001248471EDE70124EBE72C
:1040E000022403253B46224629463046BDE8F041DE
:1040F0000BF0A6B80024F4E701240325E6E770B529
:104100000C1EACBF01234FF0FF335C430133064666
:1041100008BF2D234FF0640208BF06F8013B611170
:1041200004F01F040546544330460A22FFF732FFCD
:104130002E226411092C3254D8BF302206EB000322
:10414000D8BF5A7021464FF00A02CCBF581C981CA9
:10415000FFF720FF284670BDF0B503782D2B17D14F
:104160004FF0FF36013000244FF00A0C02E01846F1
:104170000CFB0454034613F8012BA2F13005EFB2F7
:10418000092FF4D9AAB98C40144406FB04F0F0BD01
:104190000126E8E78B4003EB650393FBF5F30CFB8B
:1041A00005F51A4410F8013F303BDFB2092FF1D971
:1041B000E9E70A250022AC46F4E72DE9F047141E92
:1041C00005460F4616DC4FF02008DB0720D50026F9
:1041D000B94626E00132B95C0029FBD1A242ACBF4E
:1041E0000C46A41A13F0020F14BF4FF030084FF022
:1041F0002008EAE70022EEE72B68494628461B68BC
:104200009847013E002EF7DC24EAE476A41BDFE7A2
:1042100026465FFA88F9F5E72B6828461B68984719
:10422000D146CA461AF8011B0029F5D1A2465FFA09
:1042300088F8BAF1000F06DCF01B4844002CA8BF38
:104240000019BDE8F0872B68414628461B6898474F
:104250000AF1FF3AEDE72DE9FF470746DDE90C8A51
:1042600015461C4651B930234246ADF80030694628
:104270005346FFF7A2FF04B0BDE8F08723B10A2A36
:104280002DD100292BDA494200230E9A8DF80D30EA
:104290003A3A0DF10D03B1FBF5F005FB1016092EAE
:1042A00088BFB61830368D4203F1FF3903F8016C30
:1042B00017D964B1B8F1000F16D01AF0020F13D05D
:1042C0003B682D2138461B68984708F1FF38534654
:1042D000424649463846FFF770FF2044CBE70024AA
:1042E000D2E701464B46D6E72D22002409F8012CDF
:1042F000A3F10209EBE70846FFF794BD2DE9F04171
:1043000007460E46144600254FF00A088CB0317857
:1043100019B928460CB0BDE8F081252972D1717811
:104320000029F6D0252906F101026AD02D290ABFFD
:1043300001230023B21C164612F8011B302915D0A8
:104340000022304610F8011BA1F1300C5FFA8CFE00
:10435000BEF1090F0DD966293FD00ED8632947D089
:1043600064291AD058292ED00136D0E743F0020331
:10437000E1E7064608FB02C2E3E7752926D0782963
:1043800019D07329F0D1216821480434002908BFCD
:1043900001463846FFF711FF0BE061202146CDE9C9
:1043A0000130012300920A22384609680434FFF7DD
:1043B00052FF0544D8E721466120CDE90130009243
:1043C00000231022F0E721464120F6E76120214634
:1043D000CDE9013000920023E5E7216808A8CDE986
:1043E00004230434FFF78BFEDDE9042308A9D0E79A
:1043F000216804348DF81C1000218DF81D1007A9C8
:10440000C7E716463B6838461B6898470135ABE757
:10441000E92401080FB407B504AA52F8041B054BA0
:104420006846CDE90032FFF769FF03B05DF804EBA1
:1044300004B070479C2B01080EB403B503AA52F8D0
:10444000041B0192FFF75AFF02B05DF804EB03B0C2
:104450007047000008B529480AF0B6FA27480AF064
:10446000B8FA26480AF0BFFA24480AF0B7FA012140
:1044700022480AF094FA21480AF058FA1F480AF034
:1044800071FA1E480AF081FA1D4A08211B480AF0F9
:10449000AFFA1A480AF0E4FA4FF4602117480AF01C
:1044A00057FA0121174A18480AF076FD0121174AE8
:1044B00015480AF07AFD4FF48072012112480AF083
:1044C00025FD4FF4806201210F480AF013FD6022A0
:1044D00001210D480AF079FD01210B480AF022FD67
:1044E000012109480AF027FD074801210AF042FD91
:1044F000BDE8084001480AF0A9BA00BF0024014005
:10450000742C00204C24014000000240B42B0020F9
:10451000884205DD914208DC9042A8BF10467047F2
:10452000904203DC9142A8BF11460846704737B558
:104530006D46046804F13003F03433F8102C33F87E
:10454000201C33F8300CFFF7E3FF3033A34225F88B
:10455000020BF2D1BDF80230BDF800001844BDF8DE
:1045600004301844BDF806301844C0F38F0003B07F
:1045700030BD000008B50D4B98420BD003F58063A9
:1045800098420BD0A3F5006398420BD1072909DCB0
:10459000C8B208BD012905DC0831F9E7052901DCAD
:1045A0000A31F5E70AF0CAF91020F2E7000C0140E1
:1045B000012370B593400C4615460022064611466D
:1045C0009BB220460AF03CFE29462046FFF7D2FF68
:1045D0003368034A9B1A034AC3F34F03D05470BD98
:1045E000B42B0020742C00200D4B0E4A991C136034
:1045F0000D4A11600D4A191D11600D4A991D116077
:104600000C4A03F1080111600B4A03F10A01116021
:104610000A4A03F10C011160094A0E331360704716
:10462000B42B0020B02B0020AC2B0020A82B0020A6
:10463000A42B0020A02B00209C2B0020982B0020D6
:10464000942B0020114A124B30B553F8213052F808
:1046500021401946A342A8BF2146026802F1C805BD
:104660008D4206DBA342B8BF234603F1C804A24231
:1046700002DD0160002030BD8A4202DA01600120C3
:10468000F9E79A42FBDD0360F9E700BFB42D002093
:10469000AC2D0020012970B516D80C4B53F82150D1
:1046A0000B4B53F82160B5420ED0401B0CF0E6F9DD
:1046B0000446701B0CF0E2F9014620460CF0E6FAC5
:1046C00004490CF02FFA70BD0020FCE7B42D002047
:1046D000AC2D00200000C842F8B5224B05461C68EE
:1046E000014620460CF0DAFB00B12C461E4B214659
:1046F0001E6830460CF0B4FB00B126461B4D314617
:104700002F68344638460CF0B5FB002198B130468E
:104710000CF0C4FB68B1164B196838460CF0FAF877
:10472000314604460CF0BAFB00B1344620462C60FA
:10473000F8BD104BF0E730460CF0A6FB0028F5D191
:10474000002138460CF0AAFB48B10020094B19683B
:104750000CF0DEF8314604460CF082FBE4E7384604
:10476000F4E700BF982D0020902D0020602D002040
:10477000842D0020882D0020F8B5054685200E46A2
:104780001746FFF70BF83146044628460CF072FB3B
:10479000E0B94FF0804130460CF0BCF829460CF0EF
:1047A0007DFBA8B1A1B2852041F01001FFF716F8FA
:1047B000124D3E68002130460CF066FBA0B1294640
:1047C00030460CF04DFB28B1344604E00C4DF0E7C8
:1047D0000025EEE72C46284609493C600CF040FBDA
:1047E000003818BF0120F8BD05F1004421463046CD
:1047F0000CF054FB0028EED0E6E700BF0000484272
:104800000000C8422DE9F843064628200C46FEF772
:10481000CDFF2D4FDFF8B48038602920FEF7C6FFAA
:10482000C8F800008520FEF7B9FF4FF6FC75D7F8F1
:1048300000900540002148460CF030FB10B30021E9
:1048400030680CF021FB224F10B3494620460CF093
:104850005FF820490CF066F9002104460CF000FBDB
:1048600000B100243C603768214638460CF016FB46
:1048700008B145F00105214638460CF0F1FA00B1C7
:104880003C4634602946BDE8F8438520FEF7A6BFC4
:104890002046D8F800100CF03BF80E490CF042F915
:1048A000002104460CF0FAFA00B100243C6037689D
:1048B000214638460CF0D4FA08B145F002052146ED
:1048C00038460CF0EBFADAE7802D00207C2D002032
:1048D000682D0020000060402DE9F8430D46334C60
:1048E0003349064620680CF01DF929460CF012F8F1
:1048F0004FF076510CF016F920602A20FEF756FF93
:104900002C4FDFF8B48038602B20FEF74FFFC8F83B
:1049100000008520FEF742FF4FF6F375D7F80090B0
:104920000540002148460CF0B9FA00B30021306878
:104930000CF0AAFA2468214FF8B1214648460BF042
:10494000E7FF002104460CF08BFA00B100243C6024
:104950003768214638460CF0A1FA08B145F0080541
:10496000214638460CF07CFA00B13C4634602946BA
:10497000BDE8F8438520FEF731BF2046D8F8001087
:104980000BF0C8FF002104460CF088FA00B10024A7
:104990003C603768214638460CF062FA08B145F0B1
:1049A0000405214638460CF079FADDE7802C00201A
:1049B00000007041742D0020782D0020642D00200F
:1049C000104B70B51A68066801EB0214A41A241182
:1049D0000546002130461C600CF060FA88B10A4B95
:1049E0001B681B1B48BF03339B1023EAE3700CF0CA
:1049F00045F80446014630460CF050FA00B1264610
:104A00002E6070BD7C2C0020702D0020F8B50E4A61
:104A1000054614780D4F0134E4B2312C8ABF0023CF
:104A200023461C460A4E386856F8241013700BF0C3
:104A30006FFF29460BF06EFF0649386046F8245098
:104A40000CF024F9F8BD00BF842C0020502D00206C
:104A5000882C0020000048422DE9F74F0646A1208F
:104A600091468846FEF79AFE0446AA20FEF796FE77
:104A7000074684EAE470A0EBE4700BF0FFFFDFF878
:104A8000F8B10446DBF8005029460BF041FF002145
:104A900001900CF0E5F9019B08B103F10043774A5E
:104AA0001946D2F800A050460CF0DAF950B1294668
:104AB00020460CF0F3F9514600283DD028460BF073
:104AC00029FF0446CBF80040002F00F0CF8020469D
:104AD0000CF004FA0546B9F1000F31D0632840F319
:104AE000C5800BF0CBFF664B0646D3F800804146ED
:104AF0000CF0B6F9002840F0B980624B30461F68D0
:104B0000614B39461C680CF0ABF988B140460CF09B
:104B1000E5F9064620460CF0E1F9AD1B4543384661
:104B20000CF0DCF9801B95FBF0F00BF0A7FF0446BE
:104B3000204603B0BDE8F08F28460BF0E9FEC0E741
:104B400041463046FFF7A6FD504B04461E6801461D
:104B500030460CF0A3F9002876D1314620460BF000
:104B6000D7FE314604464A480BF0D2FE014648487B
:104B70000CF08CF821460BF0D5FF0646454B30462D
:104B80001E60FFF743FF0146044630460BF0C0FEAF
:104B9000414980460CF064F930B94FF07E514046EF
:104BA0000CF07CF900B92646632D4FDD28460BF04A
:104BB00065FF334B8046D3F800A051460CF050F906
:104BC000002843D12F4B4046D3F80090334B494641
:104BD0001C680CF045F998B150460CF07FF98046FE
:104BE00020460CF07BF9A5EB0805454348460CF040
:104BF00075F9A0EB080095FBF0F00BF03FFF0446C1
:104C0000274D012F2C6023D1204626490BF08AFF27
:104C100004462449244B18680BF084FF21460BF00E
:104C200077FE31460BF07EFF19490CF02FF8214634
:104C30000BF070FE0BF066FB0DA3D3E900230BF025
:104C4000B9FB0BF011FE72E7002697E70024D7E7C7
:104C50002720FEF7A3FD08B900232B60114928681F
:104C60000BF060FF0F490446104BD4E700245FE7C8
:104C70009A9999999999B93F5C2D00206C2D002043
:104C8000A42D0020A82D00209C2D00208C2D00207C
:104C90000000C842542D0020000080BFA02D00203D
:104CA000582D002000002041982D0020942D002038
:104CB0002DE9F341DFF8808005462C201E460C4686
:104CC0001746CDF80480FEF771FD01AA014638466B
:104CD000FFF752FD2D20FEF769FD01AA014630467F
:104CE000FFF74AFD294601A8FFF78CFD214601A8E0
:104CF000FFF7F2FD089901A8FFF762FE414601980F
:104D00000BF0C4FF4FF07E5104460CF0C7F820B9F9
:104D1000002120460CF0A4F860B94FF07E512046E7
:104D20000CF0BCF820B14FF07E5002B0BDE8F0812D
:104D30002046FAE70020F8E70000C842F7B51E4613
:104D40001F4B05462C2001930C461746FEF72EFDFF
:104D500001AA01463846FFF70FFD2D20FEF726FD7C
:104D600001AA01463046FFF707FD294601A8FFF7D3
:104D700049FD214601A8FFF7AFFD089901A8FFF7FB
:104D80001FFE01980F4900F100400BF07FFF4FF02C
:104D90007E5104460CF082F820B9002120460CF028
:104DA0005FF858B94FF07E5120460CF077F818B1F3
:104DB0004FF07E5003B0F0BD2046FBE70020F9E73E
:104DC0000000C8C20000C842024B00BF013BFCD13A
:104DD000704700BF00127A0010B50446002240F26E
:104DE000215102F03AFA002240F22251204602F00C
:104DF00034FA002240F22351204602F02EFA00221B
:104E000040F22451204602F028FA002240F22551B7
:104E1000204602F022FA002240F22651204602F0FB
:104E20001CFA002240F22751204602F016FA2046D2
:104E3000BDE8104000224FF4A56102F00EBA000058
:104E4000002313B5054A40F21141CDE90023036860
:104E50006A465C680823A04702B010BD3400010018
:104E60003222002313B5CDE9002303686A465C684B
:104E700040F211410823A04702B010BD002313B532
:104E8000054A40F21141CDE9002303686A465C6897
:104E90000823A04702B010BD340101002DE9F743FB
:104EA0000026174B04461E702025FFF7C9FF4FF060
:104EB0004209FFF789FF4FF4C848236801966A4604
:104EC00040F2114120465F688DF8005008238DF8AC
:104ED0000190ADF802800135B847EDB22046FFF7EA
:104EE00073FFFFF7BDFFFFF76FFF292DE5D12046C8
:104EF000FFF7C4FFFFF768FF03B0BDE8F08300BF12
:104F0000081D0020D0F80220014B1A60704700BF36
:104F1000D82D0020D0F80220014B1A60704700BF46
:104F2000C82D0020D0F80220014B1A60704700BF46
:104F3000C42D0020D0F80220014B1A60704700BF3A
:104F4000C02D0020054A1388013313800A22D0F8AF
:104F5000023093FBF2F3024A13607047DC2D00200D
:104F6000BC2D0020D0F80220014B1A60704700BF12
:104F7000D02D0020D0F80220014B1A60704700BFEE
:104F8000D42D0020D0F80220014B1A60704700BFDA
:104F9000CC2D002003466FF4A46213440846072B6F
:104FA00015D8DFE803F00406080A0C0E1012FFF70C
:104FB000A9BFFFF7AFBFFFF7B5BFFFF7BBBFFFF755
:104FC000C1BFFFF7CFBFFFF7D5BFFFF7DBBF70470C
:104FD0000161704741617047007A7047007A7047FD
:104FE0000023C372704710B5044600226160084672
:104FF0004FF4987102F031F900224FF43F7160686C
:1050000002F02BF900224FF49061606802F025F95C
:1050100060680022BDE810404FF4D07102F01DB965
:105020002DE9F0410025BCB00F46F02268460F493B
:105030000BF09AFF6C461426A84620680BF01EFD64
:1050400039460BF017FF08B1D4E90185013E04F1A0
:105050000C04F2D141467420FEF7C0FB29467520AE
:105060003CB0BDE8F041FEF7B9BB00BFE82B01083A
:1050700010B404686468A44610BC6047037E73B52E
:105080000446002B50D0AA20FEF788FB324B0028A4
:105090004CD10321314A20731170E1221A701B7820
:1050A0002F4D8DF800300C238DF801308F238DF8B3
:1050B00002302B7860688DF80330F0238DF80430CF
:1050C00003686A464FF4E9715E680523B0472B78A0
:1050D0003B201033DBB2ED2B08BF0D232B70FEF706
:1050E0005DFB204BC0B21A78824215D04FF40952B2
:1050F000ADF8002000228DF802204FF0FF3201921F
:1051000030BB30228DF8032018706A46082340F225
:1051100092516068FFF7ACFF236895201D6AFEF787
:1051200045FB01462046A84702B070BD421C06D18F
:10513000012202212273094A1170D222AEE701280E
:10514000ADD1032208212273044A11707822A5E709
:105150000828D9D13122D5E70E1D00200D1D0020D1
:10516000E42D0020DE2D00200B7803F001034372B4
:105170000B78C3F3800303720B78C3F300138372BD
:105180008B78C3F3C0034376704700000000000033
:1051900008B54B7808781B0203F4706318440BF0D1
:1051A0009FF809A3D3E900230BF004F90BF05CFB93
:1051B00007490BF0B7FCBDE808400146A220FEF706
:1051C0001BBB00BFAFF300809A9999999999B93F99
:1051D0002B121F3F0B78842B03D10121E520FEF712
:1051E000FDBA812B01D10021F8E770474B78323BA3
:1051F00018BF0123037670470B46B3F53F7F114676
:105200000FD006DCB3F5987F07D0B3F5D07F06D07A
:105210007047B3F5906F06D07047FFF7A5BFFFF753
:10522000B7BFFFF7D7BFFFF7E1BF000003682DE965
:10523000F74F5B6B04460D469847644E002800F01C
:10524000BE80A120FEF7AAFA40F2ED23984240F377
:10525000B380A120FEF7A2FA800080B20722942139
:10526000337843F0500300278DF802200A44AA3215
:1052700002EB10228DF80130ADF804001344C0B2E7
:1052800003449AB202EB232360686A468DF8061045
:105290008DF80030AA2108238DF807708DF803706F
:1052A000FFF7E6FEBD420CBF04226422DFF820A116
:1052B0004FF00F0B9AF80000DFF8189100F5FC731F
:1052C000D11801EB11238DF800304EF22103ADF817
:1052D000023041F62173A8218DF80100ADF80430A9
:1052E000606808238DF807206A46DFF8EC808DF8A7
:1052F00006B0FFF7BDFE99F800306A468DF8003021
:1053000098F80030A9218DF801304DF67973ADF889
:105310000230324B606801930823FFF7A9FE304D3D
:10532000304B297818788DF8061043188DF8000056
:10533000FF2003F5E47202EB1223BA216A468DF8CE
:1053400001008DF8053060680723ADF802B08DF8D4
:105350000470FFF78DFE33782349013333700B78E7
:10536000224A01330B709AF80030287801338AF80A
:10537000003099F800300130013389F8003098F896
:1053800000302870013388F8003013780133DBB225
:105390005C2B13700DD1BE230B70E92389F800300C
:1053A0004D231370802337708AF8007088F80070DE
:1053B0002B7003B0BDE8F08F40F6B8304EE733787D
:1053C000FE22842143F030034DE700BFDF2D002093
:1053D000E12D00200B1D0020E02D00201DC7E02145
:1053E000091D00200D1D00200C1D00200A1D00209D
:1053F000037E10B5044643B1B620FEF7E5F9014639
:105400002046BDE81040FFF711BF10BD73B506463A
:105410008020FEF7C3F9012815BF00239C231A46FC
:105420009E224FF08F0014BF1D4660258DF804307A
:105430008DF80520FEF7BAF9014622480BF068FA0C
:10544000214904460BF02AFD002836D120460BF0F6
:1054500045FD64234FF4FA72434393FBF2F303F1E7
:1054600032000BF00BFB19490BF054FA3C23184C9B
:105470008DF800300BF058FD23786A461D43C32396
:105480008DF8033048F2CD234FF4E8718DF8010018
:10549000ADF80630706808238DF80250FFF7E8FD7C
:1054A0000C4A217813788B4209D10133DBB20F2BE0
:1054B00008BF0023237002B070BD0748D6E7117003
:1054C000F9E700BF0000C84200400344000040422A
:1054D000E32D0020E22D002000001643037E73B56B
:1054E0000446A3B148F261230093C37A63B903254C
:1054F00060686A46036840F232315E680223B04752
:10550000013DF5D10123E3722046FFF77FFF02B092
:1055100070BD0161704741617047007A7047007A41
:1055200070470023C372704710B5044600226160C3
:1055300008464FF4987101F090FE00224FF43F713D
:10554000606801F08AFE00224FF49061606801F00B
:1055500084FE00224FF4D071606801F07EFE606826
:105560000022BDE8104040F2FE3101F076BE00009E
:105570002DE9F84F00260D463446DFF8A48030466A
:105580000BF07CFAA34629460134074658F83460EC
:1055900008EBC40A0BF06EFC00283CD030460BF040
:1055A0006DFA294681460BF06FFC002833D008EBDA
:1055B000CB0BDBF804000BF061FA0446DAF80400C8
:1055C0000BF05CFA21460BF0A3F939460646284653
:1055D0000BF09EF93946054648460BF099F901460D
:1055E00028460BF053FB014630460BF09BFA214650
:1055F0000BF090F94FF07C510BF08CF90BF06EFC36
:10560000044621467420FEF7E9F82146BDE8F84F2C
:105610007520FEF7E3B8072CB1D1FF24F1E700BFF6
:10562000202D0108037E37B504462BB33B20FEF73F
:10563000B5F8144BC0B21A78824215D04FF4095213
:10564000ADF8002000228DF802204FF0FF320192C9
:10565000A0B930228DF8032018706A46082340F262
:1056600092516068FFF704FD236895201D6AFEF7DC
:105670009DF801462046A84703B030BD0828EBD16D
:105680003122E7E7EC2D00200B7803F00103437291
:105690000B78C3F3800303720B78C3F30013837298
:1056A0008B78C3F3C003437670470000000000000E
:1056B00008B54B7808781B0203F4706318440AF0AD
:1056C0000FFE07A3D3E900230AF074FE0BF0CCF819
:1056D000BDE808400146A220FEF78EB8AFF3008077
:1056E0009A9999999999B93F10B50B780C46842BE2
:1056F0000BD10121E520FEF771F86178E620BDE8C5
:10570000104001F00101FEF769B8812BF5D10021AD
:10571000F0E74B78323B18BF01230376704708B59A
:10572000B1F900000BF0AAF94FF074510BF0FAF93F
:10573000BDE808400146A420FEF75EB80978BC2009
:105740008B1E59425941FEF749B80B46B3F53F7FCE
:10575000114615D008DCB3F5987F0DD0B3F5D07F96
:105760000CD0B62B10D0704740F2FE3293420DD0D1
:10577000B3F5906F06D07047FFF786BFFFF798BF6D
:10578000FFF7B2BFFFF7C5BFFFF7C9BFFFF7D6BF2F
:1057900003682DE9F7435B6B04460D469847534E6B
:1057A000002800F09D80A120FDF7F8FF40F2ED23D6
:1057B000984240F39280A120FDF7F0FF800080B274
:1057C00007229421337843F0500300278DF80220FC
:1057D0000A44AA3202EB10228DF80130ADF8040021
:1057E0001344C0B203449AB202EB232360686A46B2
:1057F0008DF806108DF80030AA2108238DF8077067
:105800008DF80370FFF734FCBD420CBF0422642204
:10581000DFF8DC90DFF8DC8099F800008DF80720D5
:1058200000F5FC73D11801EB11238DF800304EF216
:105830002103ADF8023041F62173ADF804300F2397
:105840006A46A8218DF801008DF8063060680823AB
:10585000FFF70EFC284D98F8003060688DF8003096
:105860002B786A468DF801304DF67973ADF8023029
:10587000224BA92101930823FFF7FAFB3378204834
:105880000133337003781F490133037099F80030F6
:105890001D4A013389F8003098F80030147801333C
:1058A00088F800302B78013401332B700B7814709A
:1058B0000133DBB25C2B0B700CD1BE230370E923E8
:1058C00088F800304D230B708023377089F8007002
:1058D0002F70137003B0BDE8F08340F6B8306FE767
:1058E0003378FE22842143F030036EE7ED2D002053
:1058F000EF2D0020111D0020EE2D00201DC7E021FE
:10590000121D0020101D00200F1D0020037E10B569
:10591000044643B1B620FDF757FF01462046BDE8D7
:105920001040FFF735BF10BD2DE9F3470746AB2008
:10593000FDF73CFF0446AC20FDF738FF4D49054616
:1059400020460AF0E7FF002104460BF089FA002800
:105950007ED1204648490BF0A1FA00287AD1204692
:105960000BF0E2FAC6B2434928460AF0D3FF002101
:1059700004460BF075FA00286ED120463E490BF024
:105980008DFA00286AD120460BF0CEFAC5B28020ED
:10599000FDF704FF01284FF00004DFF8E08061D13B
:1059A0003D20FDF703FF36490BF070F982468B204E
:1059B000FDF7FCFE214681460BF052FA00284FD03D
:1059C000304909F100400BF0ADF851460BF05EF99B
:1059D0002D490BF0A7F8D8F800100AF09BFF4FF004
:1059E0008F4104460BF050FA28B120464FF08F410A
:1059F0000AF08EFF04462046C8F800400BF094FAE7
:105A00006023ADF80400214C4FF4E87122787868E7
:105A100013438DF80230C3238DF8033049F2CD6370
:105A20006A46ADF8063008238DF800608DF8015005
:105A3000FFF71EFB164A217813788B4218D10133E9
:105A4000DBB20F2B08BF0023237002B0BDE8F08744
:105A5000002688E7CF2686E7002598E7CF2596E73A
:105A60002046B2E70023C8F80040ADF80430CAE78A
:105A70001170EAE70000404200004F43E82D00208B
:105A800000007C425304E93700247449F12D0020C2
:105A9000F02D0020037E73B50446A3B148F26123C4
:105AA0000093C37A63B9032560686A46036840F2CD
:105AB00032315E680223B047013DF5D10123E37224
:105AC0002046FFF731FF02B070BD4069704708B54E
:105AD000B0F908000AF0D2FF08BD08B5B0F90C0013
:105AE0000AF0CCFF08BD0000014B1878704700BFDA
:105AF000832E00200000000038B51D48FEF717FD7A
:105B000005461C48FEF713FD044628460AF0E8FB4C
:105B100013A3D3E900230AF04DFC13A3D3E9002318
:105B20000AF092FA0AF0A0FE054620460AF0D8FBD9
:105B30000BA3D3E900230AF03DFC0BA3D3E9002318
:105B40000AF082FA0AF090FE0446014628460BF05D
:105B5000A5F908B1284638BD2046FCE7AFF3008020
:105B60001213371BE91495BF988F7B2556484C407C
:105B70009C2B0020982B002038B505460C461A486F
:105B8000072109F08DF90721184A174809F004FA8E
:105B90002A460721144809F008FAA2B20721124840
:105BA00009F013FA0721104809F0DBF907210E4824
:105BB00009F0B8F9002207210B4809F0A7F90022E3
:105BC0000721094809F096F94FF480520721064849
:105BD00009F084F90448072109F0CCF9BDE8384000
:105BE00003480AF00BB800BF000002400444004024
:105BF0000044004010B504460621194809F050F948
:105C00000621184A164809F0C7F90621164A144811
:105C100009F0CBF9A2B20621114809F0D6F9062104
:105C20000F4809F095F906210D4809F07BF900228B
:105C300006210B4809F06AF900220621084809F0FC
:105C400059F900220621064809F048F904480621BE
:105C500009F090F9BDE81040044809F0CABF00BF40
:105C60000000024004440040F22D002000440040A7
:105C700038B504463420FDF791FD03B2022BE381D1
:105C80001FD1344D344A2B78002B32D141F6583194
:105C9000B4F90C00884201DD0121117011782F4AFE
:105CA0008B4248D0012313702D4B93F900002D4BEC
:105CB00010B91878013018701878042822D10BB266
:105CC000E381012B08D12848FBF712FE2748FBF798
:105CD0000FFE2748FBF70CFEB4F90E30C3B922487B
:105CE000FBF706FE2148FBF7FFFD2148FBF7FCFD13
:105CF0000EE0012BD2D1B4F90C10B1F5FA6FCDDA68
:105D00000021CAE7052803D12970002119701170FC
:105D1000B4F90E30032B0DD1AA20FDF73FFD013061
:105D200011480DD1FBF7E4FD1048FBF7DDFD1048ED
:105D3000FBF7DAFD38BD00211BB2E3811170C0E72B
:105D4000FBF7D6FD0948FBF7D3FD0948FBF7D0FD6B
:105D5000F0E700BF802E00207F2E0020822E002042
:105D6000812E00207E2E0020FC2A00200C2B0020FB
:105D7000042B0020000000002DE9F84F05461220FA
:105D80000E46FDF70BFD8E4BC4B21B78012B40F085
:105D9000B6802846FFF76CFF30468A490AF0C2FEFB
:105DA00089490AF073FF0BF099F8884FDFF82082D9
:105DB00097F900A0A8F8000050460AF05FFE3146AF
:105DC0000AF0B0FE0AF09EFA7BA3D3E900230AF0A2
:105DD000F1FA0AF049FD7F4906460AF0A3FE7A4926
:105DE0000AF054FF0BF07AF87B4BDFF8F0911A7849
:105DF0002862A9F80000002A00F0D880BAF1000F4C
:105E00002EDD2420FDF7D2FC834697F900000AF02E
:105E100035FE7349824658460AF084FE01465046D4
:105E20000AF076FD0BF05AF840B200286A4B3DDBD1
:105E30006328387014DC1B7893B92420FDF7B6FC76
:105E4000824697F900000AF019FE51460AF062FDF9
:105E50000BF044F840B26428CABF642338703B702A
:105E6000B5F90E302BBB002130460AF0F9FF00B324
:105E7000B9F900000AF034FA00225A4B0AF09AFAF3
:105E80000AF0AAFCA9F80000B8F900000AF028FA04
:105E90000022544B0AF08EFA0AF09EFCA8F800008B
:105EA000032C14D8DFE804F00B100E1A00223A700D
:105EB000C1E7032C0BD8DFE804F00207050C2B6ABE
:105EC000002B04DA424B00E0444B00221A80BDE86C
:105ED000F88F304644490AF0E1FF18B90023A8F8CA
:105EE0000030F4E730460AF0F9FF41F21713323878
:105EF0005843322390FBF3F0A8F80000E7E7022BA9
:105F00001ED1344930460AF00DFE2F490AF0BEFE7C
:105F10000AF0E4FF314A03B2138013EB83032C49E8
:105F200048BF03339B1028620B800CB90028C8E7D8
:105F3000012C02D100231380C9E7022CC7D1C1E78D
:105F4000032BC4D1234930460AF0ECFD1E490AF068
:105F50009DFE0AF0C3FF214A03B2138013EB8303B3
:105F6000286248BF03331A4D9B102B80032CAED8F8
:105F700001A353F824F000BF2D5F0008C95E00089C
:105F8000C55E0008895F0008304617490AF086FFA1
:105F900008B928809BE730460AF0A0FF41F21713AA
:105FA00032385843322390FBF3F0F2E7BAF1630F33
:105FB0003FF756AF41E700BF7B14AE47E17A843F1D
:105FC0008D2E002000B888450000C842812E002098
:105FD000862E002000C05A45822E0020842E0020EC
:105FE0000000A0400000E03F0000484210B58020C3
:105FF000FDF7D4FB08B902F0A1FF8020FDF7CEFB2E
:10600000012842D12148FBF755FC0146BD20FDF790
:10601000E5FB1F48FBF74EFC0146BE20FDF7DEFB0B
:106020001C48FBF747FC0146BF20FDF7D7FB19488A
:10603000FBF740FC04461648FBF73CFC84F00103E8
:1060400080F001046400114844EA8304FBF732FC49
:1060500064B280F0010044EA00035BB20E4C062BF0
:10606000237003D10021C220FDF7B8FB2378052B54
:1060700003D10121C220FDF7B1FB3520FDF78EFBD6
:10608000BDE8104080B202F059BF10BDF42A0020D4
:10609000EC2A0020E42A0020882E0020034B1B78E5
:1060A000012B01D1FFF7A2BF704700BF8D2E00204A
:1060B00000220B4870B5134605468C1E944209DC3D
:1060C000294411F8012C285D40EA0220C31A5842E5
:1060D000584170BD10F8016B013233449BB2EDE7BB
:1060E000F22D0020002070B5084C034622468D1E7C
:1060F000854205DC53550A441B0A02F8013C70BD79
:1061000014F8016B013033449BB2F1E745220020C3
:10611000F8B5B64D04462B780E2B3ED8DFE813F0C9
:106120000F0016003B003E007600BB00BD00DC0007
:10613000DE000A0180018C01A501A701D1016420C4
:10614000FFF758FDAA48FBF7D3FB1EE0A94CA8486F
:10615000FBF7CAFB23787BB902220721A64808F087
:10616000B4FE90B107210222A34808F0A9FE5021F5
:10617000A248FFF701FD08E05021A148FFF7FCFC11
:10618000A04B5B7823B9012323702B78013303E004
:106190002378013BF8E703232B70F8BD6421FFF758
:1061A00087FF984E984F38B90021B2206181A181B4
:1061B0003970FDF713FB23E0022206218E4808F018
:1061C00084FE0028F0D0022206218B4808F078FED9
:1061D00001233B70B6F85230053B03EBD3735B10E1
:1061E000238196F92A000AF049FC606196F956006D
:1061F0000AF044FCF388A0616381B6F81F30A381E4
:10620000002386F8623086F86330BEE77F4EA32015
:10621000B6F90010FDF7E2FA6189A289774B0A44CA
:10622000712112B292FBF1F279491A70B1F9002092
:106230000978880083F84B0090115242C2F307227C
:106240009A711A7332884942120ADA7683F8212049
:10625000782283F83F20EC2283F840206C2283F8D8
:1062600041206B22C9B25971D972317883F84C0040
:10627000997683F820102046502183F84220FFF7BA
:1062800031FF644A1388642B8EBF002301339BB215
:106290001380002380E7782052E7564C5448FBF7E0
:1062A00023FB2378052B0ED902220721524808F040
:1062B0000CFE00283FF469AF072102224E4808F087
:1062C000FFFD642154E76421534801FB0300FFF7FD
:1062D00053FC2378013357E708235DE77821FFF764
:1062E000E7FE484E484F00283FF45EAF02220621E9
:1062F000414808F0EAFD00283FF456AF022206218B
:106300003D4808F0DDFD01233B70B6F86430053BE5
:1063100003EBD3735B10238196F914000AF0AEFBF4
:106320006061B6F856000AF0A9FBF388A0616381AA
:10633000F38C64E7354EA320B6F90010FDF74EFA52
:10634000334A2E4B11785278307859719A71D9723C
:106350001A733188B6F90020266A090A002E987748
:10636000D97738DD02EBD27252101A77C2F30722C6
:106370009876D9765A77752183F84A10122183F8D6
:106380004B106021402283F84C10252183F84820CF
:10639000042283F84D10522183F8492083F84F20BE
:1063A000892283F84E101D4983F8562083F858201F
:1063B0000A7820460132D2B20A70D20748BF93F859
:1063C0005E204FF0640144BF013283F85E20FFF786
:1063D00089FE0523E0E6CED002EBD27252109A7607
:1063E000C2F3072218775977DA76C4E78C2E00209B
:1063F000DC2A0020AE2200200000024045220020BE
:10640000652E0108F22D0020832E0020842E00200E
:10641000862E00208A2E0020891F0020892E002031
:106420008020FDF7BBF901281CBF00223D4B4FF037
:106430008C0018BF1A7083E63A4C3B48FBF754FABD
:106440002378062B0ED902220721384808F03DFD9B
:1064500000283FF49AAE07210222344808F030FDAC
:10646000692185E6692132482FE70D2394E68C21C6
:10647000FFF71EFE2F4E08B3022206212B4808F01C
:1064800024FDD8B102220621284808F019FD012375
:106490003370294EB6F875305B10238196F91400DD
:1064A0000AF0ECFA6061B6F819000AF0E7FA7389AD
:1064B000A0616381B6F82B30A38166E600233370B8
:1064C00063E61E4EA320B6F90010FDF787F91C4BBA
:1064D0002046B3F900201B4B5242D1B2C2F307222F
:1064E0009A711A73B6F900205971DA77121283F88B
:1064F00020209A7ED97283F82520DA7E692183F8DC
:106500002620782283F84F20EC2283F85020102296
:1065100083F85120272283F85220FFF7E3FD0A2356
:106520003AE600BFAE220020DC2A00200000024034
:10653000131D0020832E0020F22D0020842E002029
:10654000862E00204522002038B5037F04468B426A
:106550000D460AD051B16020FDF720F908B9FCF7CB
:10656000C1FEFCF7F5FE0123237738BD4FF08040D4
:1065700009F086F92577F8E708B50121FFF7E4FF70
:106580000B4B1A78042A04D805221A700022094BF2
:106590001A7000230849094A11F8010B0133642BD2
:1065A00002F8010BF8D10222054B1A7008BD00BF9A
:1065B0008C2E0020AE220020982D010845220020BC
:1065C0008D2E002008B50121FFF7BEFF064B1A787B
:1065D000042A04D900221A700122044B1A700122E5
:1065E000034B1A7008BD00BF8C2E0020AE22002085
:1065F0008D2E0020012108B5FFF7A6FF0A4B0B499D
:106600001A78092A9CBF0A221A700022084B1A70B5
:106610006923084A11F8010B013B02F8010BF9D17B
:106620000322054B1A7008BD8C2E0020FC2D01089A
:10663000AE220020452200208D2E00200021FFF7F1
:1066400083BF01817047000008B508460AF046FC88
:10665000A622A0F10F035343412293FBF2F3024A17
:106660005833138008BD00BF8E2E0020B520FDF7E3
:10667000ABB810B5044600226160084640F25311E1
:1066800000F0EBFD60680022BDE8104040F2F3111D
:1066900000F0E3BD40F25313994210B5044610D107
:1066A000B2F80100A0F5B0700AF0E8F94FF07651A9
:1066B0000AF038FA0146A220FDF79EF80123E372A2
:1066C00003E040F2F3139942F8D010BD10B5044630
:1066D000C07A10B90348FBF7EDF800232073E3728A
:1066E00010BD00BF9C2A002008B50248FBF7E2F865
:1066F00008BD00BF9C2A002007B540F2EE220389A6
:1067000040F21631934238BF13460522ADF80020FF
:1067100041F65832934228BF13460A229B01B3FB2D
:10672000F2F3ADF8023000236A4601934068082373
:10673000FEF79EFC03B05DF804FB000013B5154A9C
:106740000024137814498DF80030144B01941B88F1
:106750008DF80130C523ADF802300B780133DBB280
:10676000152B0CD80B7063B91123137008236A46DC
:1067700040F229314068FEF77BFC02B010BD0C707E
:10678000F2E7082B01D18623EFE70F2BEED1D923B7
:10679000EBE700BF922E0020932E00208E2E0020CB
:1067A000462313B5ADF80430002340688DF8063059
:1067B000036840F23B415C6801AA0323A04702B092
:1067C00010BD000007B50D4A40F2455113884068DE
:1067D00001339BB2138000228DF801301B0A8DF823
:1067E0000230074B8DF800208DF8032001936A4694
:1067F0000823FEF73DFC03B05DF804FB902E00205B
:106800007E10001807B5D1B101291AD001310CBF93
:10681000072308238DF801304FF6FF738122ADF86E
:106820000230094B8DF8002001936A46082340F29C
:106830003F414068FEF71CFC03B05DF804FB0623F3
:10684000E8E70523E6E700BF0080FFFF037B10B504
:106850000446BBB1FFF750FF2046FFF76FFF20460D
:10686000FFF7B0FF2046FFF79BFF0320FCF7ACFFCC
:1068700040B1AA20FCF792FF41B22046BDE810408B
:10688000FFF7C0BF10BD018170477047B520FCF70E
:106890009BBF000008B5084B186899889B792BB1FD
:1068A00008F013FDB0FA80F0400908BD08F00DFDB6
:1068B000003818BF0120F8E79C2A002030B51F4A95
:1068C0001F4B89B0CDE901231E491F4B1F4CCDE959
:1068D00003131F4B1F4D05930023ADF81930237888
:1068E0004FF4B06163F07F038DF818302B68406877
:1068F00020336B4413F81C2C8DF81B2013F8182C34
:106900008DF81C2013F8142C8DF81D2013F8102C72
:1069100013F80C3C8DF81E208DF81F3006AA0823B2
:10692000FEF7A6FB2B68013303F003032B602378EB
:10693000013303F00F03237009B030BD0F287F2807
:106940001E1000107056F0560C48A748942E0020D8
:1069500046902890982E002037B540F2EE22038909
:106960000025934238BF134641F65832934228BF60
:106970001346044603819A009B09CDE900554FF464
:1069800020718DF803308DF8042008236A46406892
:10699000FEF76EFB08236A464FF4227160688DF89B
:1069A00003508DF80450FEF763FB03B030BD0000C8
:1069B00008B5034BB3F900000AF060F808BD00BF4A
:1069C000A82E002008B5034BB3F900000AF056F8D2
:1069D00008BD00BFAA2E002008B5024B18880AF097
:1069E00049F808BDAE2E002008B5034BB3F90000EE
:1069F0000AF044F808BD00BFAC2E0020064B1A7800
:106A0000064B0AB91A7001E0012AFBD0044A126849
:106A100002B91A7018787047A42E0020A52E002005
:106A2000A02E002010B504460022616008464FF4F5
:106A3000C87100F012FC00224FF4CD71606800F0C4
:106A40000CFC00224FF4D271606800F006FC606814
:106A50000022BDE810404FF4D77100F0FEBB0000EB
:106A60002DE9F3410646084634490AF05BF80AF07E
:106A700035FA334B01B2A3201980FCF7AFFE80201A
:106A8000FCF78CFE0546B720FCF79EFE044618B1C5
:106A90006B1E5C425C41E400B820FCF795FE18B127
:106AA000012D04BF1034E4B2B620FCF78DFE012D99
:106AB00004EB8004E4B23AD1224A13881BB1013BB3
:106AC00002341380E4B2A520FCF768FE0546A62038
:106AD000FCF764FE8046DE20FCF760FE00F0030752
