:020000040800F2
:10100000005000203DFC000839FC000837FC0008B7
:1010100037FC000837FC000837FC0008000000001F
:1010200000000000000000000000000039FC000883
:1010300039FC00080000000039FC000839FC0008F9
:1010400037FC000837FC000837FC00085D28000862
:1010500037FC000837FC000837FC000837FC0008A4
:1010600037FC000837FC000837FC000837FC000894
:1010700037FC000837FC000837FC000837FC000884
:1010800037FC000837FC000837FC0008C98200085C
:10109000A9820008B982000837FC000837FC000864
:1010A00037FC000837FC000837FC000837FC000854
:1010B00037FC000837FC00080D28000837FC000842
:1010C00037FC000837FC000837FC000837FC000834
:1010D00037FC000837FC000837FC000837FC000824
:1010E0001928000837FC000837FC000837FC000806
:1010F00037FC000837FC000837FC000837FC000804
:1011000037FC000837FC000837FC000837FC0008F3
:1011100037FC000837FC000837FC000837FC0008E3
:1011200037FC000837FC000837FC000837FC0008D3
:1011300037FC000837FC000837FC0008F58200087F
:10114000D5820008E582000837FC000837FC00085B
:1011500010B404466468084611461A46234610BC7B
:101160001847836818477047704770477047704743
:1011700041607047704770477047704770477047CD
:1011800070470020704700207047000000487047FB
:101190000000484200207047416070477047704728
:1011A0007047704770470020704741607047704734
:1011B0007047704770477047002070477047416024
:1011C00070470020704770477047704770477047FE
:1011D000002070477047416070477047002070479B
:1011E00070474160704770470846704770477047C6
:1011F0007047704700487047003C1C46416070478C
:10120000704770477047704770474160704770473C
:101210000020704700207047002070470020704772
:101220000020704770477047104B10B5186803686E
:101230001B6898470E4B186803681B6898470D4B4E
:10124000186803681B6898470B4B186803681B688D
:1012500098470A4B186803681B689847BDE8104018
:10126000074B186803689B68184700BF24000020DC
:101270002000002018000020140000201000002092
:101280000800002010B5174C206803689B69984738
:10129000052002F069FA062818D8DFE800F0040AF1
:1012A0000C0E1012200000220F4B1A700F4B2360FF
:1012B0000CE00F4BFBE70F4BF9E70F4BF7E70F4B3A
:1012C000F5E701220E4B23600E4B1A700E4C20687E
:1012D00005F0ACFF6068BDE8104005F0A7BF0B4B00
:1012E000E5E700BF180000205A2B0020382A002014
:1012F000302A0020282A0020582A0020502A0020C6
:10130000102A0020302B00204C2B0020482A0020DF
:1013100010B5114C20680368DB699847042002F07F
:1013200023FA042806D8DFE800F003100E12140098
:101330000A4B23600A4C206805F078FF6068BDE81E
:10134000104005F073BF074BF3E7074BF1E7074B7E
:10135000EFE7074BEDE700BF14000020402A002014
:101360004C2B0020082A0020002A0020F829002009
:10137000F029002010B5124C206803685B6898477C
:10138000062002F0F1F90138052815D8DFE800F051
:10139000160E0E0310120B4B23600B4C206805F049
:1013A00045FF6068BDE8104005F040BF074BF3E71C
:1013B000074BF1E7074BEFE7074BEDE7074BEBE791
:1013C0000C000020142800204C2B0020E4270020D3
:1013D000A82700205C2700203C2800201C28002093
:1013E00010B50B4C206803685B689847492002F0F1
:1013F000BBF9084A084B012808BF13462360074C75
:10140000206805F013FF6068BDE8104005F00EBFCE
:101410000800002044270020542700204C2B0020E7
:10142000022010B502F0A0F90138032815D8DFE832
:1014300000F0020E10120A4B0A4C0B4A206813608F
:1014400005F0F4FE6068BDE8104005F0EFBE074B04
:10145000F2E7074BF0E7074BEEE7074BECE700BF7F
:101460008C2800204C2B0020100000207428002025
:1014700068280020802800203827002010B501208F
:1014800002F072F909280FD8DFE800F0171C2B0EC4
:1014900005091F222528144B144A1A6004E0124A39
:1014A000134B136000229A72124C206805F0BEFEA6
:1014B0006068BDE8104005F0B9BE0B4A0C4B1360E4
:1014C0000122F0E7084B0C4AE7E7074B0B4AE4E739
:1014D000054B0B4AE1E7044B0A4ADEE7024B0A4A96
:1014E000DBE7014B094AD8E7200000205028002004
:1014F000C02A00204C2B0020EC2A0020B42A002017
:101500009C2A0020082B0020D02A002044280020FC
:10151000036810B59B6898470FF006FD002401464C
:101520009B2002F041F92146962002F04BF921461A
:10153000972002F047F92146992002F043F921460D
:10154000BDE810409A2002F03DB9000010B51C4CD7
:10155000206803689B6A9847002002F005F9092873
:101560000FD8DFE800F005080A0E271C2117292BE9
:10157000144B236005E0144BFBE71448206004F093
:10158000F7FF134C206805F051FE6068BDE810407D
:1015900005F04CBE0D48206005F002F8F1E70B485D
:1015A000206004F0BFFFECE70A4B012223600A4BE6
:1015B0001A70E6E7094BDCE7094BF6E7094BD8E779
:1015C00024000020E0290020602A0020782A002042
:1015D0004C2B0020C0290020302B0020E8290020BF
:1015E00018270020E426002010B5144C206803685A
:1015F0001B699847512002F0B7F8032805D8DFE8A7
:1016000000F0020D0F160E4B23600E4C206805F003
:101610000DFE6068BDE8104005F008BE0A4BF3E718
:101620000A4B0B48196820600BF0C4F9EDE7012262
:10163000084B2360084B1A70E7E700BF1C0000202E
:10164000B82900204C2B0020AC290020E0260020E7
:1016500058280020A0290020302B0020B52002F0BF
:1016600099B800002DE9F74F082002F07DF8484CAA
:1016700054F820100920019102F076F854F8206007
:101680000A2002F071F854F820500B2002F06CF898
:1016900054F820A00C2002F067F854F820B00D2078
:1016A00002F062F854F820900E2002F05DF854F831
:1016B0002070102002F058F854F82080112002F019
:1016C00053F854F8203001990093324B186803689E
:1016D000DB6A9847304B314618680368DB6B9847E4
:1016E0002E4B594618680368DB6998472C4B5146C6
:1016F000186803681B6A98472A4B494618680368AC
:101700001B699847284B4146186803685B699847EE
:10171000264B3146186803689B6998473946244828
:1017200009F08AFF234B0099186803685B699847A2
:10173000072002F019F8012802D1284603F036FBF1
:10174000072002F011F8022802D1284609F004F916
:10175000072002F009F8032802D1284609F052FBBD
:10176000072002F001F8042802D128460DF088F87D
:10177000002240F20161606805F03BFD002240F26A
:101780000161206803B0BDE8F04F05F032BD00BF35
:101790004C2B0020240000202000002018000020F6
:1017A000140000200C000020080000201000002081
:1017B000402700201C00002038B540F2DF7398421B
:1017C00004460D4606D10A460146314809F03CFF61
:1017D000002038BD072001F0C7FF012803D12946AA
:1017E000204603F0C1FB072001F0BEFF022803D111
:1017F0002946204609F0F0F8072001F0B5FF03283C
:1018000003D12946204609F02FFB072001F0ACFF49
:10181000042803D1294620460DF054F81D4B2A46D2
:10182000186821460368DB6898471B4B2A461868EE
:10183000214603681B699847184B2A4618682146B9
:1018400003681B699847164B2A46186821460368A7
:101850001B699847134B2A461868214603681B6882
:101860009847114B2A461868214603681B68984719
:101870000E4B2A461868214603681B6998470C4B93
:101880002A461868214603681B689847A0E700BFEE
:101890004027002024000020200000201800002005
:1018A000140000200C000020080000201000002080
:1018B0001C00002008B5034699889B7900682BB16D
:1018C0000DF00FFDB0FA80F0400908BD0DF009FDE4
:1018D000003818BF0120F8E708B50248FFF7EAFF13
:1018E00008BD00BF5C2C0020818800680DF0F4BCAE
:1018F000818800680DF0F2BC2DE9F843A34BA44C9D
:10190000998818680DF0F0FC0DF0F8FCA14BA24F7F
:10191000186801F0F6FE0FF0D7F8A0490FF0DCF9D7
:101920000146DF2001F04EFF06F042FA0146822018
:1019300001F03AFF802001F017FF39680646206861
:1019400006F0A4FE072001F00FFF2068944D036805
:101950009B6A98470146B32001F026FF2068036880
:10196000DB6A98470146B12001F02CFF07F046F9E9
:10197000286803689B689847206803689B689847B5
:10198000884B186803689B689847874B18680368FA
:10199000DB689847854B186803681B699847386867
:1019A00003689B689847824B186803689B6998474F
:1019B000804B186805F086FC0CF068FF7E4B1B78A6
:1019C0000BB10BF05FFDAA2001F0CEFE7B4C00288E
:1019D000606A80F2A180FFF787FFE62001F0C4FE75
:1019E000002800F09C80AA2001F0BEFE022800F032
:1019F0009680AA2001F0B8FE002800F0908060696F
:101A0000FFF772FFBC2001F0AFFE0346606C002BB5
:101A100000F08980FFF768FF012E206940F0868082
:101A2000FFF762FF2868DFF8988103689B69984791
:101A30000146AB2001F0C6FE286803685B69984741
:101A40000146AC2001F0BEFE286803685B6A984737
:101A50000FF03AF80146C12001F0B4FE2868594D54
:101A60000368DB69984701468A2001F0ABFE564BBC
:101A7000AE20196801F098FE544B1B78012B03D05F
:101A8000042B01D02B7823B1D8F8000003689B68A1
:101A90009847D8F80000DFF83891036899F80010EB
:101AA0005B6998470746002843D0012E1EBF0122DC
:101AB000484B1A7001232B70A06A474B984205D0FF
:101AC000FFF7F8FE0146D82001F06EFE0BF088FC0F
:101AD0000BF0A2FC042E01D0012E4ED1AB2001F060
:101AE0004BFE0546DB2001F047FE014628460FF07D
:101AF000FBF988B3AB2001F03FFE0546762001F0EC
:101B00003BFE29460FF0D2F940B3E06BFFF7ECFE45
:101B1000206CFFF7E9FE36E0FFF7EAFE5DE760695B
:101B2000FFF7E6FE6EE7FFF7E3FE75E7FFF7E0FE7F
:101B300078E72B7833B10146812001F035FE254B43
:101B40002F701F70D8F8000099F8001003689B6987
:101B50009847224B1870AFE7DB20CCE7762001F0E6
:101B60000BFE1F490EF0FAFE29460FF0BDF90028C2
:101B7000CED0E06BFFF7BCFECAE7E06BFFF7B8FE24
:101B8000206CFFF7B5FEBDE8F88300BF1C2D0020D8
:101B9000200000205C2B00201000002000002041CD
:101BA00024000020180000200C0000200800002065
:101BB0001C000020482B0020302B00204431002046
:101BC00014000020592B00207C2F0020462B0020E1
:101BD000442B00205A2B00204C2C0020332B0020BB
:101BE0000000A0402DE9F04FA12085B001F0BCFD20
:101BF0008146802001F0B8FD8E4B0446002840F05D
:101C0000EC801A68B2EB000A18BF4FF0010AAA2054
:101C10001C6001F0A9FD07460DF04AFD06F094F89E
:101C2000854BDFF81882186803685B689847802046
:101C300001F09AFD0128054640F0D8800FFA89F995
:101C400089EAE970A0EBE97080B206F0F1FE0021AC
:101C500006460FF02BF990B1002001F085FD042815
:101C60000DD0232001F080FD002840F0B98081458F
:101C7000B8BF4FF0FF35BD4218BF06F100463846E9
:101C80000EF022FF31460EF073FF0546D8F8000033
:101C900003685B689847D8F8000029460368684ED7
:101CA0001B699847B92001F075FD002840F0A2801B
:101CB000306AFFF71DFED8F80000DFF8889103684E
:101CC000614F1B6A98470FF02FF905B22946A120F2
:101CD00001F06AFD082001F047FD59F8200006F0E8
:101CE000CFFB012C01D0042C08D1386885EAE571BE
:101CF0000368A1EBE5719B6989B29847D7F800B0FA
:101D0000AB20DBF80030DB69019301F035FD019B6E
:101D1000014658469847386803685B6898474B4BBC
:101D200018680368DB689847494B186803685B6864
:101D30009847042C68D1474B186803685B6898473C
:101D4000284606F021FD8346A52001F00DFD0190F7
:101D5000182001F009FD0290392001F00DFD0390DB
:101D6000292001F009FD59460FF0BEF8B0FA80F3C2
:101D700059465B090398DD000FF0A2F8DDE9013256
:101D8000B0FA80F09342D4BF00230123400945EA12
:101D90008005872045EA831501F0EEFC8346282064
:101DA00001F0EAFC014658460FF09EF8002808BFF3
:101DB00045F001058320294601F0F6FC172001F0CB
:101DC000D3FC0190052C00F2A080DFE814F0450060
:101DD0008B01BD003F015A01C7014FF0000A16E711
:101DE000B9F1000FA8BF4FF0FF3544E706F0EEFE53
:101DF000002550E7B62001F0CDFC00287FF458AF55
:101E0000306AFFF771FD56E7052001F0ADFC0328AD
:101E100004D1104B186803685B689847012C8FD178
:101E2000DE2001F0A1FC411C01F00F01DE2001F0D9
:101E3000BBFC85E7000000201400002024000020E7
:101E4000443100204C2B00202000002008000020FE
:101E500010000020180000200023954A95481370B8
:101E6000954A1370FFF744FDB069FFF741FDBAF1E1
:101E7000000F03D00221AA2001F096FC3868DFF899
:101E80003C8203685B69984700238D4A1370B8F859
:101E90000030002B51D18B48FFF72AFDF069FFF786
:101EA00027FD8948FFF724FD15F0410F01D0019B64
:101EB000B3B1386803689B6B984788B1386803688A
:101EC0005B6B984760B101237D4A02241370784A06
:101ED00013701923A8F800300DF0EAFB7B4B186053
:101EE0007B4B1B786BB115F0480F0AD11923A8F86A
:101EF00000300DF0DDFB754B0224186001236E4AA3
:101F000013702146802001F04FFC3868714D036842
:101F10005B6B9847002840F049816D4B1B78002B84
:101F200040F04481002C40F041812B88002B40F090
:101F30009481B06CFFF7DCFC3EE1013B9BB2A8F85A
:101F40000030002BB0D1A6E7DFF884B19BF8003059
:101F5000002B59D1D8F800205F4B9A4202D0554847
:101F6000FFF7C2FCF069DFF85481FFF7BDFCB069F0
:101F7000FFF7BAFCB8F80030002B50D15248FFF7F9
:101F8000B3FCDFF83CA19AF800305BB115F04501D5
:101F900008D1192385208AF80010A8F80030012400
:101FA00001F002FC9BF8003053B115F04C0107D151
:101FB0004FF4FA738520A8F80030042401F0F4FBF4
:101FC0003D4B1B7823B19BF80030002B08BF002449
:101FD000374D2B7853BB022C93D10DF069FB834610
:101FE000152001F0C1FB394B1B681844834588D983
:101FF000019B1BB32B780BB300238AF80030192305
:102000000124A8F800307CE7072001F0ADFB002890
:10201000A8D1D8F80020314B9A42A3D19FE7013BC9
:102020009BB2A8F80030002BABD1A7E73868036853
:102030005B6B98470028CED1002462E72248FFF767
:1020400057FC0B2005F086FE03245AE700221C4BA8
:102050001D481A70FFF74CFC174B1B7823B11C4B23
:102060001B78002B08BF0024114B1B78002B3FF47A
:1020700048AF386803685B6B9847002808BF0024A6
:102080003FE70E4A138853B90E48FFF72DFC104B5B
:102090001B784BB99622124B05241A8004E0013BB1
:1020A0009BB21380002BEFD005F076FE29E700BF2E
:1020B000322B0020D42C0020312B002028000020BF
:1020C000342B0020242D0020DC2C0020DC260020D6
:1020D0005A2B0020D8260020E8290020602A002062
:1020E0001C2B0020694A138843BB6948FFF7FCFB9F
:1020F0006848FFF7F9FB8020012101F055FB05F04E
:102100004BFE386803685B6B984700287FF4F9AE94
:10211000A12001F029FB00284FF0A10014DA01F002
:1021200023FB404231283FF7ECAEAA2001F01CFB14
:1021300068B99622584B05241A80E2E6013B9BB20F
:102140001380002BD7D1D0E701F00EFBEAE7AA20DD
:1021500001F00AFB02287FF4D4AEEAE74C48FFF70F
:10216000C3FB4C48FFF7C4FB0221AA2001F01CFB73
:10217000494A13887BB98F2001F0F6FA002811DA5A
:102180008F2001F0F1FA404204283FF7BAAEFA225C
:102190003E4B1A8050E7013B9BB21380002B7FF42B
:1021A000B0AEE8E78F2001F0DFFAEDE74FF4967369
:1021B0002B80B06CFFF798FB2988C020003918BF2E
:1021C000012101F0F1FA012C344D52D1522001F0DD
:1021D000CBFA012848D1F068FFF786FB2E6855201E
:1021E00033689F6801F0C0FA0EF06EFC014630467D
:1021F000B8472D6853202B68DE6801F0B5FA01223C
:1022000081B22846B047072001F0AEFA022807D174
:102210000A2001F0A9FA59F82010204608F0EEFB38
:10222000072001F0A1FA032807D10A2001F09CFA47
:1022300059F82010204608F049FE072001F094FAD2
:10224000042820D10A2001F08FFA59F820102046E6
:1022500005B0BDE8F04F0CF03DBB013B9BB22B80BD
:10226000002B3FF466AEA4E7D82001F093FA0028D3
:10227000B1D1F068FFF73CFB0022286811460368E3
:10228000DB689847BFE705B0BDE8F08F2800002065
:10229000242D0020D42C00201C2B00201C0000200A
:1022A0002DE9F047802001F05FFA0546894BDFF801
:1022B000289218680368DB689847042D04D1D9F880
:1022C00000000368DB68984706F026FD834BDFF8C3
:1022D00010A21968D320834F01F066FAD420DAF8EF
:1022E000001001F061FAD520396801F05DFA7E4BEB
:1022F0007E4E1968D620DFF8F88101F055FAD72014
:10230000318801F051FA98F800307A4C022B2DD127
:10231000794B1B7853BB042D19D1DFF8E0A1784F1E
:10232000DAF80030002B41D15C20237001F01CFA58
:102330004FF496735843CAF800003B68B3F5967F94
:1023400014D100233B603388013B33800EE06D4A9B
:10235000DAF8003012789A4226D16B4A3B6812783C
:102360009A4221D13388FBB10123237098F80030C1
:102370002BBB614B1B780BB9012323706F2001F03D
:10238000F3F901281FD1712001F0EEF95F4B0746E8
:10239000586802F0ABF806460146E02001F004FA66
:1023A000B7422ADA002330E00023DEE73A68013B37
:1023B0000132CAF800303A60002BBED1B4E7012BDD
:1023C000DCD10023D9E7702001F0CEF90128DAD062
:1023D000D9F800004E4A036812785B692178984763
:1023E00008B1012D13D14B4B1E78B6B9314681206F
:1023F00001F0DAF9484B1E700FE098F80030012B1D
:10240000E6D13D4A1278002AE2D12370E0E70121AB
:10241000414B8120197001F0C7F9404E3378022BEF
:1024200007D13C4B1B7823B13D4B18680368DB6830
:1024300098473378012B02D9033B012B0AD8384F38
:1024400038680368DB68984733781BB938680368D5
:10245000DB689847042D6DD12E4B1D78002D33D1AC
:10246000862001F081F906463E2001F07DF9864282
:10247000A1BF0122204B25701A702A4B18680368EF
:102480009B68984700210EF007FD68B1264A136843
:10249000002BDFBF002301212370174BCEBF03F1B8
:1024A000FF3319700A231360204B586B204B98425E
:1024B0000AD0FFF7FFF938B1E52001F055F918B956
:1024C00001220D4B20701A70184B986BFFF710FA11
:1024D00057E000BF20000020180000202C2B002017
:1024E000282B0020242B0020202B0020402B002014
:1024F000452B0020442B0020582B00203C2B002093
:10250000382B0020432B0020422B002038310020A4
:10251000332B0020592B00205A2B0020462B002063
:10252000140000200C000020040000204431002092
:102530004C2C0020012DC7D10022174B6F201A70A0
:1025400001F012F9022817D1722001F00DF90646A8
:10255000732001F009F9114B0546986801F0C6FF98
:1025600001460446E12001F01FF9AE420BDCA64211
:10257000AADCA54205DA0AE0702001F0F5F802288D
:10258000E2D0BDE8F087A6429EDBA542F9DD044B10
:10259000986BFFF7A9F9F4E7582B00203831002099
:1025A00044310020FEE700000C2838B510D80C2874
:1025B00019D8DFE810F0D000D300E5001800D900EA
:1025C000D600DF001800E800E800E800E800E800B6
:1025D000512800F0CC8000F2B2803C2800F0DB8073
:1025E000492800F0CA80232001F0BEF840B1002045
:1025F00001F0BAF8082803D00021232001F0D4F814
:10260000182001F0B1F8664D664C2860192001F0E1
:10261000ABF820601A2001F0A7F868601B2001F0D9
:10262000A3F860601C2001F0A7F85F4D5F4C2860A4
:102630001D2001F0A1F82060332001F09DF85C4BD3
:102640002168186028680EF031FC50B159491C20EF
:102650002960594D256001F0B5F829461D2001F08B
:10266000B1F81E2001F088F8544B554C18602E200C
:1026700001F082F8534B18602F2001F07DF8524B87
:102680001860312001F078F8504B1860262001F0D6
:102690006BF84F4B1860202001F06EF84D4B18601E
:1026A000242001F069F84C4B1860302001F064F8E8
:1026B0004A4B18601F2001F05FF8494B1860052055
:1026C00001F052F8042001F04FF8464B18702378BF
:1026D000012B22D1592001F047F8434B18605820B4
:1026E00001F042F8414B1860572001F03DF8404B93
:1026F0001860562001F038F83E4B18605A2001F05F
:1027000033F83D4B18705B2001F02EF83B4B1870EE
:102710005C2001F029F83A4B1880452001F024F89C
:1027200020705C2001F020F84FF496735843354B2D
:10273000186008F0B9F8BDE8384008F0E1B8692839
:1027400005D866287FF64FAF00F02CFE4BE77938AE
:102750000428F9D947E7FEF7F9FE44E7FEF78EFEB5
:1027600041E7FEF78FFD3EE7FEF7D2FD3BE7FEF7C0
:102770003BFF38E7FEF7FEFD35E7FEF731FE32E7B7
:10278000FEF74EFE2FE7204C206804F04FFD6068F6
:1027900004F04CFD27E704F039FB04F025FB22E7A9
:1027A000742F00206C2F0020682F0020642F002041
:1027B0002C2F00200080BB440000C842602F002066
:1027C000452B0020582F0020502F00204C2F002098
:1027D000302F0020482F0020442F0020542F0020AD
:1027E0005C2F0020462B0020202B0020242B0020D3
:1027F000282B00202C2B0020432B0020422B0020D4
:10280000402B00203C2B00204C2B0020014B186853
:1028100000F040BF5C2B002000B589B003A804F095
:1028200075FB28B1DDF815300193DDF819300293FE
:1028300004F0E7FA4FF400400CF014FC0499A1F501
:102840008473012B05D8044B01AA186803681B691F
:10285000984709B000BD00BF1400002008B5002053
:102860000CF05CFF104B1A6801323B2A1A600F4AC9
:1028700005D911680131116019683C391960136874
:102880003B2B0B4B05D919680131196011683C3994
:1028900011601A68172A06D906490A6801320A60C7
:1028A0001A68183A1A6008BD202B0020242B00203B
:1028B000282B00202C2B00202DE9F043ADF68C2D89
:1028C00000F0BCFB00F0E4FC0022C349C34801F067
:1028D0004DFE0122C049C24801F048FE0122C14913
:1028E000C14801F043FE0222BB49C04801F03EFE50
:1028F0000322B949BE4801F039FE0522B649BD4858
:1029000001F034FE0422B449BB4801F02FFE0B2233
:10291000B149BA4801F02AFE04232022B849B94837
:1029200001F09DFB04238022B549B74801F097FBD5
:1029300004234FF40042B549B54801F090FB04234D
:102940001022A849B34801F08AFB04230822A549B4
:10295000B14801F084FB0125072380229E49AF483E
:1029600001F07DFB07230422AD49AE4801F077FB5F
:1029700007234FF40042A249AB4801F070FB072344
:102980004FF480429E49A94801F069FB07234FF4A8
:1029900000529B49A64801F062FB07234FF40072E6
:1029A0009749A44801F05BFB07234FF480729449D8
:1029B000A14801F054FB07234FF4806290499F48DF
:1029C00001F04DFB07234FF400628D499C4801F054
:1029D00046FB0723402280499A4801F040FB072329
:1029E0004FF480728949984801F039FB07234FF46E
:1029F00000727949954801F032FB07234FF4807249
:102A00007549934801F02BFB07234FF480527C4912
:102A1000904801F024FB0523082281498E4801F0EB
:102A20001EFB052310227E498C4801F018FB05236C
:102A300020227B498A4801F012FB07234022784973
:102A4000884801F00CFB072308226D49864801F0F5
:102A500006FB072304226A49844801F000FB072390
:102A60004FF480525F49824801F0F9FA07234FF48E
:102A700080426B497F4801F0F2FA0723012259494D
:102A80007D4801F0ECFA0723802260497B4801F081
:102A9000E6FA072340225D49794801F0E0FA042371
:102AA00040225749774801F0DAFA042310225449AA
:102AB000754801F0D4FA002380225949734801F087
:102AC000CEFA01F0A7FC72494FF000700CF0FAFB4F
:102AD00000F06EFB00F09CFB05F008F900F00EFB27
:102AE00000F038FB00F05EFCE720FFF75DFD564884
:102AF000FEF7FEFE5F48FEF7FBFEC4AC0023654A0E
:102B00006549009539A800F0FFFE0DF26C580023CE
:102B100002222046614905F01FFB022260492B4634
:102B2000404605F019FB5F4B0F2004935E4B0DF5FB
:102B3000F96705935D4B5E4E069300F015FE2A463D
:102B4000002814BF41462146384605F04BF83A4666
:102B5000214619A808F04AFE032119A808F062FED0
:102B6000204604A9C6E9004804F034FB04A9404605
:102B700004F030FB4F4B0A201F604F4B07AC1F6027
:102B800000F0F2FD56F820700E2000F0EDFD56F832
:102B900020104A4808F050FD04F038F904F024F9F8
:102BA0004FF496424649204609F07AFD454B1C6099
:102BB0000FACFEF7CBFCFEF761FCFEF763FBFEF704
:102BC000A7FBFEF7D7FBFEF70FFDFEF709FCFEF7AC
:102BD00027FC3D49204679E000100140702D00207F
:102BE0006C2D0020000C0140682D0020642D002079
:102BF000602D00205C2D0020582D0020542D002039
:102C0000001401404C2D0020442D002000080140FC
:102C10003C2D0020342D00202C2D0020242D0020C0
:102C2000001801401C2D0020142D00200C2D002028
:102C3000042D0020FC2C0020F42C0020EC2C002083
:102C4000E42C0020DC2C0020D42C0020CC2C0020F4
:102C5000C42C0020BC2C0020B42C0020AC2C002064
:102C6000A42C00209C2C0020942C00208C2C0020D4
:102C7000842C00207C2C0020742C00206C2C002044
:102C8000642C00205C2C0020542C00204C2C0020B4
:102C9000C0004000582B010800480040006400407C
:102CA0000068004034110108B917000865160008D3
:102CB0004C2B0020AC300020482B00204027002067
:102CC00000380140E02600200008004000F08EFCA3
:102CD0001A4B2A4620461A491C6000F0A7FC0A221B
:102CE0002046184900F0A2FC64222046164900F054
:102CF0009DFCC8222046154900F098FC782000F081
:102D000033FDA84202D1384602F0B2F804217F20F8
:102D100000F04AFD0021802000F046FD4FF0000445
:102D200039A88DF80F4000F0A3FF1E9B002BF7D1B0
:102D30000DF10F011AA806F0C1F9F1E75C2B002094
:102D400029120008E51B0008F9180008A122000854
:102D500010B50024624B634A1C741A60624B634ACC
:102D60001C721A60DC721C73614A624B62481A6002
:102D70001C72DC721C73614A614B1A60614B624ABF
:102D80001A6007F087FD614B614A1C621A601C776C
:102D9000604A614B61481A60614B624A1A60624B3B
:102DA000624A1A60624B634A1A60634B634A1A6054
:102DB000634B644A1A60644B644A1A60644B654A08
:102DC0001A60654B654A5C751A60DC82644A654B23
:102DD0001A60654B654A1A60654B664A1A60664B15
:102DE000664A1A60664B674A1A60674B674A1A6000
:102DF00004F0D4F9664B674A67481A6007F078FB1D
:102E0000664B674A67491A60674B684A68481A60A8
:102E1000684B694A1A60694B694A1A60694B6A4A89
:102E20001A606A4B6A4A1A606A4B6B4A1C721A60D3
:102E30006A4B6B4A1A606B4B6B4A1A606B4B6C4A5D
:102E40001A606C4A6C4BC2E90244136000231361A0
:102E500053619361D361694A1160694A6949C2E962
:102E600004441160C2E90644136253629362D36260
:102E70006549664A11606649C2E90244C2E90444F0
:102E80001483D361136253629362D36213635363F7
:102E90009163604A6049C2E9044411605F49D360AC
:102EA0009361D361148453629362D3621363536357
:102EB0009363D3631364536493649160584B594A8A
:102EC0001A60594B594A1C731A60594B594A1A6077
:102ED00009F0E0FBBDE8104057480BF0EBBB00BF2A
:102EE000082B0020D8340108EC2A0020EC2B010824
:102EF000242D0108D02A00209C2A0020182F010828
:102F0000C02A0020B42A0020602F0108782A00205F
:102F1000AC2D010850310108602A0020C029002092
:102F2000582A0020B0320108502A0020DC32010863
:102F3000482A002070360108402A00206811010844
:102F4000382A002094110108302A00200833010893
:102F5000282A002004320108102A00206C340108BD
:102F6000B4310108082A0020002A00208831010815
:102F7000F829002044360108F0290020D037010844
:102F8000E8290020A82F0108E029002044120108A8
:102F9000B8290020C0110108AC290020A029002078
:102FA00028390108A83801089829002020120108B2
:102FB000182700208C2800202035010880280020B8
:102FC0008438010874280020283701086828002068
:102FD0004C370108582800200437010850280020E9
:102FE0007C12010844280020C43801083C28002035
:102FF000E41101081C280020503401081428002086
:10300000E4270020343401080C390108A8270020E7
:103010000000FA435C270020543901080000C84230
:10302000542700200012010844270020B83401086A
:103030003827002044110108E426002008B50CF0D0
:1030400075FA02200CF04AFA4FF0E0232A4A40F2C7
:103050000230C3F80C2D0CF0AFFA40F203300CF044
:10306000ABFA4FF441700CF0A7FA40F205300CF0C7
:10307000A3FA40F206300CF09FFA40F292300CF0C6
:103080009BFA40F291300CF097FA40F20E300CF0BF
:1030900093FA40F20B300CF08FFA4FF460700CF0A2
:1030A0008BFA40F281300CF087FA40F282300CF05B
:1030B00083FA4FF420700CF07FFA40F209300CF0E4
:1030C0007BFA40F286200CF077FA4FF440700CF057
:1030D00073FA40F299300CF06FFA40F29A300CF02B
:1030E0006BFA40F28E300CF067FABDE8084040F20F
:1030F0008F300CF061BA00BF0003FA0513B500244D
:10310000202123462246CDE9004410480CF074FBF0
:1031100021460E480CF068FB0C480CF057FB0B489E
:103120000CF05DFB4FF420430222032108480CF011
:1031300099F84FF480430122214605480CF092F89B
:10314000024802B0BDE810400CF034BB003800402B
:10315000000C014013B500244FF080514FF0007077
:103160000CF0B0F8234622462021CDE900440E4859
:103170000CF042FB0C480CF029FB0B480CF02FFB29
:103180004FF4A0530222032108480CF06BF84FF4CF
:1031900000630122214605480CF064F8024802B0A1
:1031A000BDE810400CF006BB003C004000100140A0
:1031B00008B502220423032112480CF053F8082317
:1031C000012200210F480CF04DF80F490F480CF078
:1031D000D1FC08210D480CF0E1FC00210B480CF05B
:1031E000E6FC0C2109480CF0EEFC002107480CF02D
:1031F000E4FC064800210CF0ECFCBDE80840034864
:103200000CF0EDBC0008014020A107000044004084
:1032100008B511200CF07CFDF02111200CF086FD8A
:1032200010200CF075FDF02110200CF07FFD1E2009
:103230000CF06EFD00211E200CF078FD14200CF027
:1032400067FDE02114200CF071FD13200CF060FDEF
:10325000E02113200CF06AFD28200CF059FD4FF4FA
:1032600000400BF0F5FE01214FF400400BF0D4FEBE
:1032700006494FF400400BF0FBFE03200CF048FD24
:10328000BDE80840202103200CF050BD001801408B
:1032900008B54FF2234103200CF072FA00200CF025
:1032A00011FA00200CF03AFABDE8084000200CF0BA
:1032B00017BA0000022208B511464FF400731648F1
:1032C0000BF0D0FF15480CF0DFFA0023202219463E
:1032D00012480CF0B2FA202110480CF0DAFA07225A
:1032E00000210E480CF0D9FA00210C480CF0DAFB52
:1032F0000A480CF031FC4FF4C872002107480CF06A
:103300001BFC06484FF488610CF0C5FABDE8084084
:1033100002480CF0B4BA00BF00180140002C014074
:1033200008B5022303211A461D480BF09BFF4FF0FE
:1033300080400CF0A9FA00234FF080401A4619464D
:103340000CF07BFA00214FF080400CF0A2FA4FF015
:1033500080400CF07BFA4FF080400CF08BFA8F210C
:103360004FF080400CF097FA02214FF080400CF0B3
:10337000BEFB062202214FF080400CF08EFA0221A3
:103380004FF080400CF08EFB4FF08040482202212D
:103390000CF0D2FBBDE808404FF080400CF06FBA53
:1033A00000080140692038B500F0DEF9132808D183
:1033B00002220123114687480BF054FF00242546C2
:1033C0000DE0692000F0D0F9142840F0928002222C
:1033D000012311467F480BF045FF0024012568209A
:1033E00000F0C2F9132840F0998002228023114690
:1033F00079480BF037FF672000F0B6F9132840F04A
:10340000AE8002224023114673480BF02BFF734815
:103410000CF03AFA002171480CF01DFA6F480CF0DC
:1034200015FA062200216D480CF037FA0622022117
:103430006A480CF032FA0622042168480CF02DFA92
:10344000002166480CF0EFFA022164480CF0EBFA18
:10345000042162480CF0E7FA002160480CF0FDFA04
:1034600002215E480CF0F9FA04215C480CF0F5FAF0
:1034700000215A480CF016FB022158480CF012FBB0
:10348000042156480CF00EFB002D40F08980002CE2
:1034900040F086807A2000F067F901464F480CF032
:1034A000FAF97B2000F060F9214602464B480CF007
:1034B00043FB7C2000F058F90221024647480CF0FB
:1034C0003BFB7D2000F050F90421024643480CF0FC
:1034D00033FB012141480CF044FB792000F044F912
:1034E00001463E480CF0D5F9BDE838403B480CF0A9
:1034F000C6B9692000F038F9152808D10222012345
:10350000114634480BF0AEFE0124002567E707237F
:1035100001223049324800F0A2FD4FE7682000F058
:1035200023F9142807D10222802311462A480BF0E0
:1035300099FE01255FE7682000F016F9152807D1EC
:1035400002228023114624480BF08CFE012452E70E
:10355000072380222049234800F081FD4BE76720A4
:1035600000F002F9142807D10222402311461A481C
:103570000BF078FE01254AE7672000F0F5F81528E2
:1035800007D102224023114613480BF06BFE0124A1
:103590003DE7072340221049134800F060FD36E75D
:1035A00041F68C110D480CF076F9012200210B48F0
:1035B0000CF0C2FA0122022108480CF0BDFA0122E7
:1035C000042106480CF0B8FA012104480CF0C9FAAD
:1035D0000A2186E7000C0140000801400004004079
:1035E000742C00206C2C0020642C002038B50C4674
:1035F0000546016208460CF029F920460CF035F921
:10360000084B20461968084BB1FBF3F101390CF067
:1036100040F920464FF6FF710CF03DF90023284693
:103620006B6238BDCC240020A0860100F8B5436A47
:103630000446032B0F462ADC006A02EB8205144E77
:103640000CF022F9636A0122F15C206A0CF025F982
:10365000636A0022F15C206A0CF06EFA0221636A50
:1036600005EB850503F10802AD0044F8237099408D
:1036700024F81250206A0CF0D3F80021206A0CF0D4
:1036800076FA206A0CF0FBF8636A01336362F8BDD6
:10369000BC1201082DE9F843044600254FF002084A
:1036A00000F11006636A08FA05F7AB420ADC3946F6
:1036B000206A0CF0BFF80135042D06F10206F1D1A5
:1036C000BDE8F8833946206A0CF0AEF8A8B1206A4C
:1036D0000CF04BFA236A3188343353F825208146A5
:1036E0000A4443F8252054F825309847206A0CF006
:1036F0003CFAA0EB09003081D9E7636AAB42DADC1F
:10370000D5E7002170B500F10E03446A4FF47A75D5
:1037100008468C4200DC70BD5A8933F8026F6A4358
:10372000B2FBF6F201311044F3E7000010B51C249F
:10373000084B04FB0033DC688C4209DC1B698B42BC
:1037400006DB054B43F82010FEF72EFF002010BDCE
:10375000FF20FCE7C80300202C000020014B53F899
:10376000200070472C000020024B53F8200040112D
:10377000704700BF2C00002008B5054B53F820000F
:103780000DF0A2F94FF074510DF0F2F908BD00BF31
:103790002C000020034B53F820004011431E5842D8
:1037A000584170472C000020024B490143F820107B
:1037B000704700BF2C000020014B43F820107047D9
:1037C0002C00002010B5044608464FF084410DF04F
:1037D000CFF90DF0A9FB024B43F8240010BD00BF48
:1037E0002C00002070B506460024074D314668685D
:1037F00000F08EFB08B9E0B270BD0134E72C05F192
:103800001C05F3D1E820F7E7C80300200023064A8F
:10381000118B814201D1D8B270470133E72B02F1FD
:103820001C02F5D1E8207047C80300201C22024B7F
:1038300002FB0030704700BFC80300200023064A87
:103840000649108B10B1506941F823000133E72B72
:1038500002F11C02F5D17047C80300202C000020A3
:10386000014B1954704700BF602B0020024B1A5CBB
:1038700011431954704700BF602B0020024A135CAB
:1038800023EA010313547047602B0020014B185C9E
:10389000704700BF602B00201C22024B02FB00334C
:1038A000987E7047C803002000487047AA6A03004A
:1038B000024B1A68024BC3F8402E7047B823002011
:1038C000C8030020202180680CF0AFB980680CF09C
:1038D000A4B910B504464368597A58680BF073FBD5
:1038E000636804F12A02597A58680BF07EFB63681A
:1038F0008022597A58680BF088FB6368BDE8104055
:10390000597A58680BF056BB70B5026140F201124B
:103910000D464A498282016001210022817580F8AA
:10392000281004460421C0E9062280F820204262C3
:103930009DF81020856080F82920414A0373426079
:103940001068A84203D01C3201396260F8D13D49A9
:103950000C60002B6FD05069138B022203210BF0F7
:1039600081FC28464FF4E1310CF004F92846082187
:103970000CF014F928464FF400510CF018F92846C1
:103980000C210CF020F9284600210CF016F900213A
:1039900028460CF01EF928460CF031F928460CF0A8
:1039A00033F96368197A58680BF094FA6368197AE6
:1039B00058680BF0F6FA63682A1D197A58680BF0FC
:1039C0000BFB63680022197A58680BF0BEFA636833
:1039D0000022197A58680BF0ABFA6368197A5868B4
:1039E0000BF0C0FA6368597A58680BF073FA636891
:1039F0002A1D597A58680BF0EFFA63680022597A49
:103A000058680BF0A2FA63680022597A58680BF0E4
:103A10008FFA6368597A58680BF0A4FA636858689B
:103A2000597A0BF0C7FA2046FFF753FF28460CF0EF
:103A3000D6F8204670BDD068138A8EE7E42A0108C4
:103A4000E82A0108482C002038B5437D0D4643B1D3
:103A50000469216819B1284600F05AFA20B9236890
:103A600003B90024204638BD0834F2E738B50446CF
:103A70000D4663680222197A58680BF042FA18B9A9
:103A800094F82830002BF4D06368197A58680BF04A
:103A90009AFA6368AAB2197A58680BF0B6FA94F8E1
:103AA0002020636804EBC212197A5868AA320BF01E
:103AB0009CFA63680222197A58680BF01CFA636852
:103AC000197A58680BF076FA94F82030B3FA83F339
:103AD0005B0984F82030002384F8283038BD10B505
:103AE0000446A37D084623B9A068BDE810400CF049
:103AF0007BB894F82030626A04EBC31313440A289D
:103B000002F1010183F8AA0001D07F2A05D12046E5
:103B1000FFF7ACFF0023636210BD6162FCE7802AFF
:103B200028BF8022002330B4934203D130BC194611
:103B3000FFF79CBF90F82040CD5C00EBC4141C4400
:103B400084F8AA500133EFE738B5054608460C461D
:103B500000F0F5F9214602462846BDE83840FFF757
:103B6000DEBF000010B50446084600F03BFA00F046
:103B700020FA217D227B8142636811D10121617588
:103B80005AB158691B8B032102220BF06BFB2046B4
:103B9000BDE810400949FFF7D7BFD8681B8AF2E794
:103BA000002161753AB158691B8B0122BDE81040B4
:103BB00000210BF057BBD8681B8AF6E7DE2301080B
:103BC00030B5044685B0084600F00CFA0378302B77
:103BD00026D0322B144D18BF4FF46125637DA3B15D
:103BE0000A22294601A800F0BAF920460F49FFF73A
:103BF000ABFF20460E49FFF7A7FF204601A9FFF7BC
:103C0000A3FF20460B49FFF79FFF2946A0680BF052
:103C1000B1FF0021A06805B0BDE830400BF0C7BF80
:103C20004FF4E135DAE700BF10552200DD2301082B
:103C3000E3230108792A010810B50446084600F07C
:103C4000D1F9037823B1303B18BF012384F8293020
:103C500094F829302BB104492046BDE81040FFF705
:103C600073BF0249F8E700BFF2230108FC230108F3
:103C70002DE9F04143680446597A58680BF0BEF9C3
:103C80000546C0F1800710B92046FFF722FE94F8E0
:103C90002930A06813B1E369BB4257DB08210BF060
:103CA000C4FF10B1A0680BF0B8FF7F2D00F398801F
:103CB000631B93F8A9300A2B01D00D2B7DD16368CB
:103CC000597A58680BF07FF97F2D3AD00022E3191A
:103CD00083F82A202021E26104F12A0000F036F95D
:103CE00090F800800546B8F1000F37D10A2104F1A1
:103CF0002A0000F02BF9054684F8AA812B782BB90D
:103D00000D2104F12A0000F021F905460023354970
:103D10002B7004F12A00A36100F0FAF820BB2046C2
:103D200004F5D571FFF71EFF0027A369002B3AD0D9
:103D3000A0680BF076FFA36920465B6804F5D57197
:103D400098472046BDE8F041FFF7C3BD5A1CE26129
:103D5000234493F82A100BF047FF98E7411C04F521
:103D6000D57000F0E3F8C9E71F4904F12A0000F01C
:103D7000CFF828B9204604F5D571FFF721FFD3E726
:103D80001A4904F12A0000F0C3F828B9204604F5C6
:103D9000D571FFF751FFC7E7204604F12A01FFF76D
:103DA00053FEA061C1E7012FCBDD637D002BC8D09E
:103DB00020460F49FFF7C8FEC3E794F82A30212BAD
:103DC0000ED1A36963B12046FFF783FD0023E361B1
:103DD000A369204604F5D5715B68BDE8F04118473A
:103DE000BDE8F08107240108122401081B24010802
:103DF00020240108034BC1B21B681A6818461268D8
:103E0000104700BF482C002003F0EEBF07B506495D
:103E1000D1F8F027D1F8EC37D1F8E8170091034931
:103E200000F0EAFA03B000BD00F0FF1F3B240108D8
:103E300005F044B973B5144800F0CCFA134800F00B
:103E4000C9FA0024E6B23046FFF7F0FC05463046DA
:103E5000FFF722FD68B93046FFF718FDC3070DD400
:103E60006B690B4800936968D5E9032300F0B2FA47
:103E700004E03046FFF710FD0128ECD00134E72CB8
:103E8000E0D102B070BD00BF442401085B240108EA
:103E90007724010870B50B4900F0AEFA0024E0B2B7
:103EA000FFF7C4FC0546E0B2FFF7F0FCC30704D4FB
:103EB000D5E90112044800F08DFA0134E72CEED167
:103EC00070BD00BF8A240108AC240108F8B506467D
:103ED0000024E0B2FFF7AAFC4768E0B2FFF73EFC1F
:103EE000013403463A463046024900F085FAE72C91
:103EF000EFD1F8BDB624010810B50446FFF79EFCCB
:103F00002046BDE81040014900F076BABF24010800
:103F1000431E013913F8010F11F8012F10B10AB136
:103F20009042F7D0801A18BF01207047013911F86C
:103F3000013F0BB90370704700F8013BF7E700231E
:103F4000C25C0AB9184670470133F9E703461A788C
:103F500018461AB18A4203F10103F8D170470029CB
:103F600070B51EDA2D23012400F8013B49420646B4
:103F700091FBF2F302FB131130313170191E3546FB
:103F800006F10106F4DC00220346201A30443270A8
:103F9000AB420BD21A78297803F8011B05F80129E6
:103FA000F6E704D1302341700370012070BD002476
:103FB000DDE730B503782D2B11D14FF0FF34013000
:103FC00000210A25431E01E005FB012113F8012F02
:103FD000303AD0B20928F7D904FB01F030BD0124F2
:103FE000EEE7000010B5144C02780146A2F10A0376
:103FF000DBB2162B1BD824FA03F3DA0700F1010019
:10400000F2D40846FFF79BFF01380844814204467A
:104010000AD203780A3BDBB2162B05D8064A0138D0
:1040200022FA03F3DB07F1D40023637001E0002AD6
:10403000E7D1084610BD00BF09004000002310B5BD
:10404000934200D110BD51F8234040F82340013382
:10405000F6E702B97047013A40F8041BF9E72DE989
:10406000F041174682800022013B0E4601608271BA
:10407000082B0BD8DFE803F0080E0C1815052426D2
:104080001A000024002513E0012383710224F9E7BC
:104090000123837102240025394630460BF01CF9B8
:1040A00006E001248471EDE70124EBE702240325F7
:1040B0003B46224629463046BDE8F0410BF0D2B8D7
:1040C0000024F4E701240325E6E770B50C1EACBF1D
:1040D00001234FF0FF335C430133064608BF2D2315
:1040E0004FF0640208BF06F8013B611104F01F04A1
:1040F0000546544330460A22FFF731FF2E22641151
:10410000092C3254D8BF302206EB0003D8BF5A70B6
:1041100021464FF00A02CCBF581C981CFFF71FFF26
:10412000284670BDF0B5027803462D2A13D14FF012
:10413000FF30013300250A2702E007FB0525013384
:104140001C78A4F13002D6B2092EF6D9A4B98D405C
:1041500025446843F0BD0120ECE78A4002EB66028B
:1041600092FBF6F20CFB06F6144413F8012F303ADA
:10417000D7B2092FF1D9EAE70A260024B446F4E7BA
:104180002DE9F843141E0646894614DC2027DB0778
:104190001FD50025C84626E0013219F80210002973
:1041A000FAD1A242ACBF0C46A41A13F0020F14BFFE
:1041B00030272027EBE70022EFE7336841463046FF
:1041C0001B689847013D002DF7DC24EAE475641B69
:1041D000E0E725465FFA87F8F5E7336830461B6865
:1041E00008F10108984798F800100029F5D1A5EBCF
:1041F00009054544A046FFB2B8F1000F05DC002CCC
:10420000ACBF2819281CBDE8F8833368394630460E
:104210001B68984708F1FF38EEE72DE9F04385B0B9
:104220008046DDE90C691C460D4651B93023324603
:10423000ADF8003069464B46FFF7A2FF05B0BDE878
:10424000F08323B10A2A2DD100292BDA4D42002315
:104250008DF80D300E9B0DF10D0C3A3BB5FBF2F0D5
:1042600002FB1051CF18092988BF3946AA4201F133
:1042700030010CF1FF370CF8011C15D954B1B6B15F
:1042800019F0020F13D0D8F800302D2140461B68DA
:104290009847013E4B46324639464046FFF770FF8D
:1042A0002044CBE70024D2E70546BC46D6E72D23C1
:1042B000002407F8013CACF10207EBE70846FFF7E2
:1042C00099BD00002DE9F04380460E4614460025B6
:1042D0004FF00A098DB0317819B928460DB0BDE804
:1042E000F08325296DD171780029F6D0252906F1B2
:1042F000010065D02D290ABF01270027B01C0378D3
:10430000302B14D0002203780646A3F130015FFA67
:1043100081FCBCF1090F0ED9662B3DD00FD8632B61
:1043200044D0642B1CD0582B2ED00136D3E701305B
:1043300047F00207E3E709FB02120130E3E7752BC0
:1043400024D0782B19D0732BEFD1216820483B461D
:10435000002908BF014604344046FFF711FF0AE078
:104360006123CDE90173012300920A2221684046AE
:104370000434FFF752FF0544D7E76123CDE9017309
:10438000009200231022F1E74123F7E76123009216
:10439000CDE901730023E8E7216808A805920434F9
:1043A000FFF793FE3B46059A08A9D5E7236807A9BE
:1043B0008DF81C30002304348DF81D303B46CBE7CC
:1043C0000646D8F8003040461B6898470135ACE7F0
:1043D000192501080FB407B504AA52F8041B054BB0
:1043E0006846CDE90032FFF76DFF03B05DF804EBDE
:1043F00004B07047E02B01080EB403B503AA52F8CD
:10440000041B0192FFF75EFF02B05DF804EB03B0FE
:104410007047000008B529480AF0F0FA27480AF06A
:10442000F2FA26480AF0F9FA24480AF0F1FA0121D2
:1044300022480AF0CEFA21480AF094FA1F480AF0FE
:10444000ABFA1E480AF0BBFA1D4A08211B480AF0C5
:10445000E9FA1A480AF029FB4FF4602117480AF0DC
:1044600091FA0121174A18480AF0B6FD0121174AAE
:1044700015480AF0BAFD4FF48072012112480AF083
:1044800064FD4FF4806201210F480AF051FD602263
:1044900001210D480AF0B9FD01210B480AF062FD27
:1044A000012109480AF067FD074801210AF082FD51
:1044B000BDE8084001480AF0EEBA00BF0024014000
:1044C000342E00204C24014000000240742D0020B6
:1044D000884207DD914203DC01469142A8BF1146A4
:1044E000084670479042F8DD0146F9E737B56D465A
:1044F000046804F13003F03433F8102C33F8201C36
:1045000033F8300CFFF7E4FF3033A34225F8020BF9
:10451000F2D1BDF80230BDF800001844BDF80430F7
:104520001844BDF806301844C0F38F0003B030BD06
:1045300008B50D4B98420BD003F5806398420BD021
:10454000A3F5006398420BD1072909DCC8B208BD66
:10455000012905DC0831F9E7052901DC0A31F5E715
:104560000AF008FA1020F2E7000C0140012370B5B0
:1045700093400C4615460022064611469BB2204643
:104580000AF070FE29462046FFF7D2FF3368034A3F
:104590009B1A034AC3F34F03D05470BD742D0020FF
:1045A000342E00200D4B0E4A991C13600D4A1160E9
:1045B0000D4A191D11600D4A991D11600C4A03F135
:1045C000080111600B4A03F10A0111600A4A03F164
:1045D0000C011160094A0E3313607047742D0020DE
:1045E000702D00206C2D0020682D0020642D0020EF
:1045F000602D00205C2D0020582D0020542D00201F
:10460000114A124B30B553F8213052F82140194667
:10461000A342A8BF2146026802F1C8058D4206DB0D
:10462000A342B8BF234603F1C804A24202DD0160E1
:10463000002030BD8A4202DA01600120F9E79A4287
:10464000FBDD0360F9E700BF742F00206C2F002012
:10465000012970B516D80C4B53F821400B4B53F879
:104660002150AC420ED0001B0CF02EFA0646281B3F
:104670000CF02AFA014630460CF02EFB04490CF0EF
:1046800077FA70BD0020FCE7742F00206C2F00200B
:104690000000C842F8B5224B05461C68014620467A
:1046A0000CF022FC00B12C461E4B21461E68304601
:1046B0000CF0FCFB00B126461B4D31462F683446FA
:1046C00038460CF0FDFB002198B130460CF00CFC94
:1046D00068B1164B196838460CF042F93146044669
:1046E0000CF002FC00B1344620462C60F8BD104BA3
:1046F000F0E730460CF0EEFB0028F5D100213846FB
:104700000CF0F2FB48B10020094B19680CF026F9B7
:10471000314604460CF0CAFBE4E73846F4E700BF34
:10472000582F0020502F0020202F0020442F002041
:10473000482F0020F8B5054685200E461746FFF79E
:1047400013F83146044628460CF0BAFBE0B94FF0A6
:10475000804130460CF004F929460CF0C5FBA8B1A5
:1047600044F01001852089B2FFF71EF8124D3E6813
:10477000002130460CF0AEFBA0B1294630460CF0CB
:1047800095FB28B1344604E00C4DF0E70025EEE738
:104790002C46284609493C600CF088FB003818BFBD
:1047A0000120F8BD05F10044214630460CF09CFB89
:1047B0000028EED0E6E700BF000048420000C842F3
:1047C0002DE9F843064628200D46FEF7D5FF304F69
:1047D000DFF8C08038602920FEF7CEFFC8F800005F
:1047E0008520FEF7C1FFD7F8009020F003040021D8
:1047F0004846A4B20CF078FB28B3002130680CF0D6
:1048000069FB254F28B3494628460CF0A7F82349F1
:104810000CF0AEF9002105460CF048FB00B1002574
:104820003D603768294638460CF05EFB44F00103D2
:104830009BB2002818BF1C46294638460CF036FBB0
:1048400000B13D4635602146BDE8F8438520FEF7BE
:10485000ABBF2846D8F800100CF080F80F490CF0D8
:1048600087F9002105460CF03FFB00B100253D60B3
:104870003768294638460CF019FB44F002039BB216
:10488000002818BF1C46294638460CF02DFBD7E7F8
:10489000402F00203C2F0020282F002000006040E7
:1048A0002DE9F8430C46364D3649064628680CF08B
:1048B0005FF921460CF054F84FF076510CF058F99E
:1048C00028602A20FEF758FF2F4FDFF8C08038609D
:1048D0002B20FEF751FFC8F800008520FEF744FFAB
:1048E000D7F8009020F00C0400214846A4B20CF048
:1048F000FBFA18B3002130680CF0ECFA2D68244F55
:1049000010B3294648460CF029F8002105460CF062
:10491000CDFA00B100253D603768294638460CF0D5
:10492000E3FA44F008039BB2002818BF1C4629464E
:1049300038460CF0BBFA00B13D4635602146BDE873
:10494000F8438520FEF730BF2846D8F800100CF059
:1049500007F8002105460CF0C7FA00B100253D60BC
:104960003768294638460CF0A1FA44F004039BB29C
:10497000002818BF1C46294638460CF0B5FADAE77D
:10498000402E002000007041342F0020382F0020DE
:10499000242F0020104B70B51A68066801EB021432
:1049A000A41A24110546002130461C600CF09CFA24
:1049B00088B10A4B1868001B48BF0330801020EAFA
:1049C000E0700CF081F80446014630460CF08CFA99
:1049D00000B126462E6070BD3C2E0020302F0020F6
:1049E000F8B50E4A064614780D4F0134E4B2312C66
:1049F0008ABF002323461C460A4D386855F8241008
:104A000013700BF0ABFF31460BF0AAFF064938607C
:104A100045F824600CF060F9F8BD00BF442E00207A
:104A2000102F0020482E0020000048420000000007
:104A30002DE9F74F8046A12092468946FEF794FE65
:104A40000446AA20FEF790FE074684EAE470A0EB35
:104A5000E4700CF039F8DFF8F8B10446DBF80050E8
:104A600029460BF07BFF002101900CF01FFA019BFF
:104A700008B103F10043774A1946166830460CF036
:104A800015FA50B1294620460CF02EFA314600287E
:104A90003CD028460BF064FF0446CBF80040002FC2
:104AA00000F0CE8020460CF03FFA0546BAF1000F28
:104AB00030D0632840F3C4800CF006F8664B804683
:104AC0001E6831460CF0F2F9002840F0B980634BC3
:104AD00040461F68624B39461C680CF0E7F988B104
:104AE00030460CF021FA064620460CF01DFAAD1BAC
:104AF000454338460CF018FA801B95FBF0F00BF09C
:104B0000E3FF0446204603B0BDE8F08F28460BF0D3
:104B100025FFC1E749464046FFF79AFD514B06463F
:104B20001C68014620460CF0DFF9002876D12146AA
:104B300030460BF013FF214606464B480BF00EFFA4
:104B4000014649480CF0C8F831460CF011F804460B
:104B5000464B20461C60FFF743FF014606462046B1
:104B60000BF0FCFE424980460CF0A0F930B94FF042
:104B70007E5140460CF0B8F900B93446632D4FDD44
:104B800028460BF0A1FF344B8246D3F80080414603
:104B90000CF08CF9002843D1304B5046D3F80090EC
:104BA000344B49461E680CF081F998B140460CF030
:104BB000BBF9804630460CF0B7F9A5EB0805454334
:104BC00048460CF0B1F9A0EB080095FBF0F00BF0B3
:104BD0007BFF0646284D012F2E6023D12749304602
:104BE0000BF0C6FF05462549254B18680BF0C0FFA2
:104BF00029460BF0B3FE21460BF0BAFF1A490CF020
:104C00006BF829460BF0ACFE0BF0A2FB0EA3D3E928
:104C100000230BF0F5FB0BF04DFE72E7002497E745
:104C20000026D7E72720FEF79FFD08B900232B6059
:104C3000124928680BF09CFF10490546114BD4E738
:104C400000245FE7AFF300809A9999999999B93F49
:104C50001C2F00202C2F0020642F0020682F002004
:104C60005C2F00204C2F00200000C842142F002091
:104C7000000080BF602F0020182F0020000020417E
:104C8000582F0020542F00202DE9F3411F4C0646D9
:104C90002C201F460D4690460194FEF76DFD01AA9B
:104CA00001464046FFF746FD2D20FEF765FD01AAAF
:104CB00001463846FFF73EFD314601A8FFF780FD6B
:104CC000294601A8FFF7ECFD089901A8FFF762FE4D
:104CD000214601980CF000F84FF07E5104460CF08C
:104CE00003F920B9002120460CF0E0F860B94FF03C
:104CF0007E5120460CF0F8F820B14FF07E5002B003
:104D0000BDE8F0812046FAE70020F8E70000C8423D
:104D1000F7B51E461F4B05462C2001930C4617463F
:104D2000FEF72AFD01AA01463846FFF703FD2D20B4
:104D3000FEF722FD01AA01463046FFF7FBFC29469B
:104D400001A8FFF73DFD214601A8FFF7A9FD08993D
:104D500001A8FFF71FFE01980F4900F100400BF07A
:104D6000BBFF4FF07E5104460CF0BEF820B9002185
:104D700020460CF09BF858B94FF07E5120460CF0BD
:104D8000B3F818B14FF07E5003B0F0BD2046FBE7FA
:104D90000020F9E70000C8C20000C842024B00BF73
:104DA000013BFCD1704700BF00127A0010B50446E9
:104DB000002240F2215102F01CFA002240F222515E
:104DC000204602F016FA002240F22351204602F05B
:104DD00010FA002240F22451204602F00AFA002282
:104DE00040F22551204602F004FA002240F22651FA
:104DF000204602F0FEF9002240F22751204602F040
:104E0000F8F92046BDE8104000224FF4A56102F0F9
:104E1000F0B90000002313B5054A40F21141CDE975
:104E2000002303686A465C680823A04702B010BDEF
:104E3000340001003222002313B5CDE900230368BA
:104E40006A465C6840F211410823A04702B010BDD9
:104E5000002313B5054A40F21141CDE90023036850
:104E60006A465C680823A04702B010BD3401010007
:104E70002DE9F7430026174B05461E702024FFF747
:104E8000C9FF4FF04209FFF789FF4FF4C8482B686C
:104E900001966A4640F2114128465F688DF800404D
:104EA00008238DF80190ADF802800134B847E4B2D0
:104EB0002846FFF773FFFFF7BDFFFFF76FFF292CB1
:104EC000E5D12846FFF7C4FFFFF768FF03B0BDE850
:104ED000F08300BF0C1D0020D0F80220014B1A60A7
:104EE000704700BF982F0020D0F80220014B1A60B5
:104EF000704700BF882F0020D0F80220014B1A60B5
:104F0000704700BF842F0020D0F80220014B1A60A8
:104F1000704700BF802F0020054A1388013313809B
:104F20000A22D0F8023093FBF2F3024A1360704772
:104F30009C2F00207C2F0020D0F80220014B1A600B
:104F4000704700BF902F0020D0F80220014B1A605C
:104F5000704700BF942F0020D0F80220014B1A6048
:104F6000704700BF8C2F00206FF4A463C31808465D
:104F7000072B15D8DFE803F00406080A0C0E101200
:104F8000FFF7AABFFFF7B0BFFFF7B6BFFFF7BCBF81
:104F9000FFF7C2BFFFF7D0BFFFF7D6BFFFF7DCBFF9
:104FA00070470161704741617047007A7047007A2D
:104FB00070470023C372704710B504460022616039
:104FC00008464FF4987102F014F900224FF43F7133
:104FD000606802F00EF900224FF49061606802F000
:104FE00008F960680022BDE810404FF4D07102F06B
:104FF00000B900002DE9F0410025BCB08846F02240
:1050000068460F490CF01CF86C4614262F462068A1
:105010000BF05AFD41460BF053FF08B1D4E901757E
:10502000013E04F10C04F2D139467420FEF7BCFBBA
:10503000294675203CB0BDE8F041FEF7B5BB00BF86
:105040002C2C010810B404686468A44610BC6047A6
:10505000037E73B50446002B50D0AA20FEF784FBD4
:10506000324B00284CD10321314A20731170E122C8
:105070001A701B782F4D8DF800300C238DF80130FD
:105080008F238DF802302B7860688DF80330F02381
:105090008DF8043003686A464FF4E9715E680523B1
:1050A000B0472B783B201033DBB2ED2B08BF0D232C
:1050B0002B70FEF759FB204BC0B21A78824215D0F4
:1050C0004FF40952ADF8002000228DF802204FF075
:1050D000FF32019230BB30228DF8032018706A46EF
:1050E000082340F292516068FFF7ACFF23689520D7
:1050F0001D6AFEF741FB01462046A84702B070BD7D
:10510000421C06D1012202212273094A1170D222C7
:10511000AEE70128ADD1032208212273044A1170A1
:105120007822A5E70828D9D13122D5E7121D002021
:10513000111D0020A42F00209E2F00200B7803F0CB
:10514000010343720B78C3F3800303720B78C3F33C
:10515000001383728B78C3F3C0034376704700005B
:1051600008B54B7808781B0203F4706318440BF001
:10517000DDF809A3D3E900230BF042F90BF09AFB09
:1051800007490BF0F5FCBDE808400146A220FEF7F8
:1051900019BB00BFAFF300809A9999999999B93FCB
:1051A0002B121F3F0B78842B03D10121E520FEF742
:1051B000FBBA812B01D10021F8E770474B78323BD5
:1051C00018BF0123037670470B46B3F53F7F1146A6
:1051D0000FD006DCB3F5987F07D0B3F5D07F06D0AB
:1051E0007047B3F5906F06D07047FFF7A7BFFFF782
:1051F000B7BFFFF7D7BFFFF7E1BF000003682DE996
:10520000F74F5B6B05460E469847634C002800F04D
:10521000BD80A120FEF7A8FA40F2ED23984240F3AA
:10522000B280A120FEF7A0FA800080B2072294216C
:10523000237843F0500300278DF802200A44AA3255
:1052400002EB10228DF80130ADF804001344C0B217
:10525000034403EB23236A4668688DF806108DF833
:105260000030AA2108238DF807708DF80370FFF72E
:10527000E9FEBE420CBF04226422DFF820A14FF0F9
:105280000F0B9AF80010DFF8189101F5FC73134426
:1052900003EB13238DF800304EF22103ADF80230FA
:1052A00041F6217368688DF80110ADF80430A8212B
:1052B00008238DF807206A46DFF8E8808DF806B0ED
:1052C000FFF7C0FE99F800306A468DF8003098F874
:1052D0000030A9218DF801304DF67973ADF8023018
:1052E000314B686801930823FFF7ACFE2F4E304B1B
:1052F0003278197868688B188DF80010FF2103F553
:10530000E47303EB13238DF801108DF80530BA21F7
:1053100007238DF806206A46ADF802B08DF80470B8
:10532000FFF790FE23782349013323700B78224A3C
:1053300001330B709AF80030307801338AF800306E
:1053400099F800300130013389F8003098F80030C6
:105350003070013388F8003013780133DBB25C2BF6
:1053600013700DD1BE230B70E92389F800304D2353
:105370001370802327708AF8007088F800703370EB
:1053800003B0BDE8F08F40F6B8304FE72378FE2237
:10539000842143F030034EE79F2F0020A12F0020EF
:1053A0000F1D0020A02F00201DC7E0210D1D002093
:1053B000111D0020101D00200E1D0020037E10B5C1
:1053C000044643B1B620FEF7E5F901462046BDE8A4
:1053D0001040FFF713BF10BD73B506468020FEF7DF
:1053E000C3F9012815BF00239C231A469E224FF0C3
:1053F0008F0014BF1D4660258DF804308DF8052000
:10540000FEF7BAF9014621480BF0A8FA20490446F4
:105410000BF06AFD002835D120460BF085FD642392
:1054200058434FF4FA7390FBF3F032300BF04CFB1F
:1054300018490BF095FA3C23174C8DF800300BF00F
:1054400099FD23786A461D43C3238DF8033048F243
:10545000CD234FF4E8718DF80100ADF80630706887
:1054600008238DF80250FFF7EDFD0C4A21781378E0
:105470008B4209D10133DBB20F2B08BF002323700D
:1054800002B070BD0648D6E71170F9E70000C842C7
:105490000040034400004042A32F0020A22F002020
:1054A00000001643037E73B50446A3B148F261239E
:1054B0000093C37A63B9032560686A46036840F2C3
:1054C00032315E680223B047013DF5D10123E3721A
:1054D0002046FFF781FF02B070BD01617047416156
:1054E0007047007A7047007A70470023C372704794
:1054F00010B504460022616008464FF4987101F02F
:1055000078FE00224FF43F71606801F072FE0022C5
:105510004FF49061606801F06CFE00224FF4D0718E
:10552000606801F066FE60680022BDE8104040F24D
:10553000FE3101F05EBE00002DE9F84F00250F4658
:105540002C46284E28460BF0BFFAA04639460134B7
:10555000814656F8345006EBC40B0BF0B1FC002822
:105560003CD028460BF0B0FA394682460BF0B2FC2C
:10557000002833D006EBC808D8F804000BF0A4FAD2
:105580000446DBF804000BF09FFA21460BF0E6F925
:105590004946054638460BF0E1F94946064650466D
:1055A0000BF0DCF9014630460BF096FB014628462D
:1055B0000BF0DEFA21460BF0D3F94FF07C510BF0E3
:1055C000CFF90BF0B1FC044621467420FEF7ECF84D
:1055D0002146BDE8F84F7520FEF7E6B8072CB1D19B
:1055E000FF24F1E7642D0108037E37B504462BB391
:1055F0003B20FEF7B9F8144BC0B21A78824215D09E
:105600004FF40952ADF8002000228DF802204FF02F
:10561000FF320192A0B930228DF8032018706A463B
:10562000082340F292516068FFF70CFD2368952033
:105630001D6AFEF7A1F801462046A84703B030BD19
:105640000828EBD13122E7E7AC2F00200B7803F0DC
:10565000010343720B78C3F3800303720B78C3F327
:10566000001383728B78C3F3C00343767047000046
:1056700008B54B7808781B0203F4706318440AF0ED
:1056800055FE07A3D3E900230AF0BAFE0BF012F986
:10569000BDE808400146A220FEF794B8AFF30080B1
:1056A0009A9999999999B93F10B50B780C46842B22
:1056B0000BD10121E520FEF777F86178E620BDE8FF
:1056C000104001F00101FEF76FB8812BF5D10021E8
:1056D000F0E74B78323B18BF01230376704708B5DB
:1056E000B1F900000BF0F0F94FF074510BF040FAF3
:1056F000BDE808400146A420FEF764B80978BC2044
:105700008B1E59425941FEF74FB80B46B3F53F7F08
:10571000114615D008DCB3F5987F0DD0B3F5D07FD6
:105720000CD0B62B10D0704740F2FE3293420DD011
:10573000B3F5906F06D07047FFF788BFFFF798BFAB
:10574000FFF7B2BFFFF7C5BFFFF7C9BFFFF7D6BF6F
:1057500003682DE9F7435B6B05460E469847534CAB
:10576000002800F09C80A120FDF7FEFF40F2ED2311
:10577000984240F39180A120FDF7F6FF800080B2AF
:1057800007229421237843F0500300278DF802204C
:105790000A44AA3202EB10228DF80130ADF8040061
:1057A0001344C0B2034403EB232368686A468DF8B0
:1057B00006108DF80030AA2108238DF807708DF8A7
:1057C0000370FFF73FFCBE420CBF04226422DFF8E7
:1057D000E090DFF8E08099F80010686801F5FC734C
:1057E000134403EB13238DF800304EF22103ADF880
:1057F000023041F62173ADF804300F238DF801100B
:105800008DF80630A82108238DF807206A46FFF797
:1058100019FC294E98F8003068688DF8003033780C
:105820006A468DF801304DF67973ADF80230234B9E
:10583000A92101930823FFF705FC237820480133B1
:10584000237003781F490133037099F800301E4A12
:10585000013389F8003098F800301578013388F862
:10586000003033780135013333700B781570013314
:10587000DBB25C2B0B700CD1BE230370E92388F8DC
:1058800000304D230B708023277089F8007037702B
:10589000137003B0BDE8F08340F6B83070E72378AA
:1058A000FE22842143F030036FE700BFAD2F0020BC
:1058B000AF2F0020151D0020AE2F00201DC7E021B6
:1058C000161D0020141D0020131D0020037E10B59E
:1058D000044643B1B620FDF75DFF01462046BDE812
:1058E0001040FFF735BF10BD2DE9F3470746AB2049
:1058F000FDF742FF0446AC20FDF73EFF4D4905464B
:1059000020460BF02DF8002104460BF0CFFA0028BA
:105910007ED1204648490BF0E7FA00287AD120468C
:105920000BF028FB0646434928460BF019F80021E6
:1059300004460BF0BBFA00286ED120463E490BF01E
:10594000D3FA00286AD120460BF014FB05468020CC
:10595000FDF70AFF01284FF00004DFF8E08061D175
:105960003D20FDF709FF36490BF0B6F981468B2043
:10597000FDF702FF214682460BF098FA00284FD02F
:1059800030490AF100400BF0F3F849460BF0A4F956
:105990002D490BF0EDF8D8F800100AF0E1FF4FF0B8
:1059A0008F4104460BF096FA28B120464FF08F4104
:1059B0000AF0D4FF04462046C8F800400BF0DAFA9B
:1059C0006023ADF80400214C4FF4E8712278786828
:1059D00013438DF80230C3238DF8033049F2CD63B1
:1059E0006A46ADF8063008238DF800608DF8015046
:1059F000FFF728FB164A217813788B4218D1013320
:105A0000DBB20F2B08BF0023237002B0BDE8F08784
:105A1000002688E7CF2686E7002598E7CF2596E77A
:105A20002046B2E70023C8F80040ADF80430CAE7CA
:105A30001170EAE70000404200004F43A82F002009
:105A400000007C425304E93700247449B12F002040
:105A5000B02F0020037E73B50446A3B148F2612342
:105A60000093C37A63B9032560686A46036840F20D
:105A700032315E680223B047013DF5D10123E37264
:105A80002046FFF731FF02B070BD4069704708B58E
:105A9000B0F908000BF018F808BD08B5B0F90C0013
:105AA0000BF012F808BD0000014B1878704700BFDA
:105AB000433000200000000038B51D48FEF716FDF9
:105AC00005461C48FEF712FD044628460AF02EFC47
:105AD00013A3D3E900230AF093FC13A3D3E9002313
:105AE0000AF0D8FA0AF0E6FE054620460AF01EFC47
:105AF0000BA3D3E900230AF083FC0BA3D3E9002313
:105B00000AF0C8FA0AF0D6FE0446014628460BF011
:105B1000EBF908B1284638BD2046FCE7AFF300801A
:105B20001213371BE91495BF988F7B2556484C40BC
:105B30005C2D0020582D002038B505460C461A482B
:105B4000072109F0C7F90721184A174809F044FA54
:105B50002A460721144809F048FAA2B20721124840
:105B600009F053FA0721104809F01BFA07210E48E3
:105B700009F0F8F9002207210B4809F0E6F90022A4
:105B80000721094809F0D4F94FF48052072106484B
:105B900009F0C1F90448072109F00CFABDE83840C2
:105BA00003480AF031B800BF00000240044400403E
:105BB0000044004010B504460621194809F08AF94E
:105BC0000621184A164809F007FA0621164A144811
:105BD00009F00BFAA2B20621114809F016FA0621C3
:105BE0000F4809F0D5F906210D4809F0BBF900224C
:105BF00006210B4809F0A9F900220621084809F0FE
:105C000097F900220621064809F085F90448062183
:105C100009F0D0F9BDE81040044809F0F0BF00BF1A
:105C20000000024004440040B22F00200044004025
:105C300038B504463420FDF797FD00B20228E08114
:105C40001FD1344D344B2878002832D141F65832D8
:105C5000B4F90C10914201DD01221A7019782F4A13
:105C6000884248D0012313702D4B93F900002D4B2F
:105C700010B91878013018701878042822D108B2A9
:105C8000E081012808D12848FBF732FE2748FBF7BE
:105C90002FFE2748FBF72CFEB4F90E30C3B922487B
:105CA000FBF726FE2148FBF71FFE2148FBF71CFEF1
:105CB0000EE00128D2D1B4F90C20B2F5FA6FCDDA9A
:105CC0000022CAE7052803D129700021197011703C
:105CD000B4F90E30032B0DD1AA20FDF745FD01309C
:105CE00011480DD1FBF704FE1048FBF7FDFD1048ED
:105CF000FBF7FAFD38BD002300B2E0811370C0E766
:105D0000FBF7F6FD0948FBF7F3FD0948FBF7F0FD4B
:105D1000F0E700BF403000203F300020423000203C
:105D2000413000203E300020BC2C0020CC2C002034
:105D3000C42C0020000000002DE9F74F0646122079
:105D40008846FDF711FD8E4BC4B21B78012B40F045
:105D5000B4803046FFF76CFF40468A490AF008FFDE
:105D600089490AF0B9FF0BF0DFF8884D884F95F9A3
:105D700000A0388050460AF0A7FE41460AF0F8FE1F
:105D80000AF0E6FA7CA3D3E900230AF039FB0AF013
:105D900091FD804981460AF0EBFE7B490AF09CFFA9
:105DA0000BF0C2F8DFF8F0B1DFF8F0819BF80020CB
:105DB0003062A8F80000002A00F0D880BAF1000F85
:105DC0002EDD2420FDF7D8FC019095F900000AF0A3
:105DD0007BFE7349824601980AF0CAFE014650468E
:105DE0000AF0BCFD0BF0A0F840B200283DDB6328B0
:105DF000287015DC9BF8003093B92420FDF7BCFC1B
:105E0000824695F900000AF05FFE51460AF0A8FDAF
:105E10000BF08AF840B26428CABF642328702B7044
:105E2000B6F90E3023BB002148460BF03FF8F8B11D
:105E3000B8F900000AF07AFA00225A4B0AF0E0FAA8
:105E40000AF0F0FCA8F80000B7F900000AF06EFABA
:105E50000022544B0AF0D4FA0AF0E4FC3880032CF8
:105E600014D8DFE804F00B100E1B00222A70C1E7E3
:105E7000032C0BD8DFE804F00207050D336A002B72
:105E800004DA434B00E0454B00221A8003B0BDE822
:105E9000F08F484644490BF027F810B900233B80A7
:105EA000F4E748460BF040F841F2171332385843F4
:105EB000322390FBF3F03880E8E7022B1ED13549FE
:105EC00040460AF055FE30490AF006FF0BF02CF868
:105ED000324A03B2138013EB83032D4948BF0333C7
:105EE0009B1030620B800CB9A042C9E7012C02D193
:105EF00000231380CAE7022CC8D1C2E7032BC5D107
:105F0000244940460AF034FE1F490AF0E5FE0BF032
:105F10000BF8224A03B2138013EB83031C4D48BFD6
:105F200003339B1030622B80032CAFD801A353F8AE
:105F300024F000BF455F0008875E0008835E00080C
:105F4000495F000800289BE7404617490AF0CCFF4C
:105F500008B928809AE740460AF0E6FF41F2171395
:105F600032385843322390FBF3F0F2E7BAF1630F73
:105F70003FF756AF41E700BF7B14AE47E17A843F5D
:105F80004D30002000B888450000C8424130002054
:105F90004630002000C05A454230002044300020E6
:105FA0000000A0400000E03F0000484210B5802003
:105FB000FDF7DAFB08B902F053FF8020FDF7D4FBB0
:105FC000012841D12148FBF775FC0146BD20FDF7B2
:105FD000EBFB1F48FBF76EFC0146BE20FDF7E4FB20
:105FE0001C48FBF767FC0146BF20FDF7DDFB1948A5
:105FF000FBF760FC04461648FBF75CFC84F00103E9
:1060000080F001046400114844EA8304FBF752FC69
:1060100080F0010044EA00035BB20F4C062B2370B2
:1060200003D10021C220FDF7BFFB2378052B03D14C
:106030000121C220FDF7B8FB3520FDF795FBBDE837
:10604000104080B202F00CBF10BD00BFB42C002085
:10605000AC2C0020A42C002048300020034B1B78DF
:10606000012B01D1FFF7A2BF704700BF4D300020C8
:1060700000220B4870B5134605468C1E944209DC7D
:10608000294411F8012C285D40EA0220C31A584225
:10609000584170BD10F8016B013233449BB2EDE7FB
:1060A000B22F0020002070B5084C034622468D1EFA
:1060B000854205DC53550A441B0A02F8013C70BDB9
:1060C00014F8016B01303344F2E700BF492200208D
:1060D000F8B5B94D04462B780E2B3ED8DFE813F007
:1060E0000F0016003B003E007600B800BA00D90051
:1060F000DB000701600186019F01A101CA01642044
:10610000FFF758FDAD48FBF7F3FB1EE0AC4CAB4886
:10611000FBF7EAFB23787BB902220721A94808F0A4
:10612000F0FE90B107210222A64808F0E4FE5021BB
:10613000A548FFF701FD08E05021A448FFF7FCFC4B
:10614000A34B5B7823B9012323702B78013303E041
:106150002378013BF8E703232B70F8BD6421FFF798
:1061600087FF9B4E9B4F38B9014638706081A081F4
:10617000B220FDF719FB23E002220621914808F026
:10618000C0FE0028F0D0022206218E4808F0B3FE9F
:1061900001233B70B6F85230053B03EBD3735B1021
:1061A000238196F92A000AF08FFC606196F9560067
:1061B0000AF08AFCF388A0616381B6F81F30A381DE
:1061C000002386F8623086F86330BEE7824EA32053
:1061D000B6F90010FDF7E8FA6189A2897A4B0A4402
:1061E000712112B292FBF1F27C491A70B1F90020D0
:1061F0000978880083F84B009011524212129A716C
:106200001A73B6F9002049425971D9729A76110A67
:1062100083F82020782283F83F20EC2283F8402066
:106220006C2283F841206B2283F84C00D97683F8E6
:1062300021102046502183F84220FFF733FF684A9F
:106240001388642B8CBF002301331380002383E762
:10625000782055E75A4C5948FBF746FB2378052B25
:106260000ED902220721574808F04BFE00283FF4C0
:106270006CAF07210222534808F03DFE642157E726
:106280006421584801FB0300FFF756FC23780133D3
:106290005AE7082360E77821FFF7EAFE4C4E4D4F9E
:1062A00000283FF461AF02220621464808F029FE8B
:1062B00000283FF459AF02220621424808F01BFE95
:1062C00001233B70B6F86430053B03EBD3735B10DE
:1062D000238196F914000AF0F7FB6061B6F85600C6
:1062E0000AF0F2FBF388A0616381F38C67E73A4E12
:1062F000A320B6F90010FDF757FA384B206AB3F91E
:106300000020314B11125A71DA72B6F900209971DE
:10631000197300284FEA12219A77D97736DD9A76D9
:1063200002EBD27252101A77120AD9765A77752177
:1063300083F84A10122183F84B106021402283F821
:106340004C10252183F84820042283F84D10522157
:1063500083F8492083F84F20892283F84E10224980
:1063600083F8562083F858200A78204601320A70B4
:10637000D20748BF93F85E204FF0640144BF01325A
:1063800083F85E20FFF78EFE0523E5E6CFD01A776F
:1063900002EBD27252109A76120A5977DA76C6E771
:1063A0008020FDF7E1F901281CBF0022044B4FF0CB
:1063B0008C0018BF1A70A3E64C3000209C2C0020E3
:1063C000B22200200000024049220020A92E01082C
:1063D000B22F0020433000204430002046300020FF
:1063E0004A3000208D1F002049300020384C3948A9
:1063F000FBF77AFA2378062B0ED9022207213648BA
:1064000008F07FFD00283FF4A0AE072102223248A9
:1064100008F071FD69218BE66921304832E70D23D0
:106420009AE68C21FFF724FE2D4E08B302220621A6
:10643000294808F066FDD8B102220621264808F056
:106440005AFD01233370274EB6F875305B10238157
:1064500096F914000AF038FB6061B6F819000AF0EA
:1064600033FB7389A0616381B6F82B30A3816CE69E
:1064700030706AE61C4EA320B6F90010FDF794F9BF
:106480001A4B2046B3F90020194B524211125A718F
:10649000DA72B6F900209971DA77121283F82020A7
:1064A0009A7E197383F82520DA7E692183F82620E5
:1064B000782283F84F20EC2283F85020102283F8B2
:1064C0005120272283F85220FFF7ECFD0A2343E6F0
:1064D000B22200209C2C002000000240171D00204A
:1064E00043300020B22F00204430002046300020EE
:1064F0004922002038B5037F04468B420D460AD05E
:1065000051B16020FDF730F908B9FCF7D3FEFCF774
:1065100007FF0123237738BD4FF0804009F0B4F91D
:106520002577F8E708B50121FFF7E4FF0B4B1A7850
:10653000042A04D805221A700022094B1A7000237D
:106540000849094A11F8010B0133642B02F8010BC9
:10655000F8D10222054B1A7008BD00BF4C30002054
:10656000B2220020DC2D0108492200204D300020FD
:1065700008B50121FFF7BEFF064B1A78042A04D99B
:1065800000221A700122044B1A700122034B1A7068
:1065900008BD00BF4C300020B22200204D3000204A
:1065A000012108B5FFF7A6FF0A4B0B491A78092A03
:1065B0009CBF0A221A700022084B1A706923084AED
:1065C00011F8010B013B02F8010BF9D10322054B35
:1065D0001A7008BD4C300020402E0108B222002065
:1065E000492200204D3000200021FFF783BF0181A8
:1065F0007047000008B508460AF096FCA622A0F1F4
:106600000F035343412293FBF2F3024A58331380A2
:1066100008BD00BF4E300020B520FDF7BBB810B557
:10662000044600226160084640F2531100F0E1FD8B
:1066300060680022BDE8104040F2F31100F0D9BDBF
:1066400040F25313994210B5044610D1B2F801003C
:10665000A0F5B0700AF038FA4FF076510AF088FAD7
:106660000146A220FDF7AEF80123E37203E040F2F9
:10667000F3139942F8D010BD10B50446C07A10B992
:106680000348FBF717F900232073E37210BD00BF26
:106690005C2C002008B50248FBF70CF908BD00BFD0
:1066A0005C2C002007B540F2EE22038940F216313F
:1066B000934238BF13460522ADF8002041F6583208
:1066C000934228BF13460A229B01B3FBF2F3ADF8B5
:1066D000023000236A46019340680823FEF7B2FCAB
:1066E00003B000BD13B5154A0024137814498DF882
:1066F0000030144B01941B888DF80130C523ADF890
:1067000002300B780133DBB2152B0CD80B7063B958
:106710001123137008236A4640F229314068FEF7BE
:1067200091FC02B010BD0C70F2E7082B01D186235A
:10673000EFE70F2BEED1D923EBE700BF523000205B
:10674000533000204E300020462313B5ADF80430FE
:10675000002340688DF80630036840F23B415C68D6
:1067600001AA0323A04702B010BD000007B50C4AE0
:1067700040F24551138840680133138000228DF8A0
:1067800001301B0A8DF80230064B8DF800208DF881
:10679000032001936A460823FEF754FC03B000BDB2
:1067A000503000207E10001807B5C9B1012919D05A
:1067B00001310CBF072308238DF801304FF6FF731A
:1067C0008122ADF80230084B8DF8002001936A4613
:1067D000082340F23F414068FEF734FC03B000BD9F
:1067E0000623E9E70523E7E70080FFFF037B10B5F9
:1067F0000446BBB1FFF756FF2046FFF773FF204664
:10680000FFF7B4FF2046FFF79FFF0320FCF7C2FF0E
:1068100040B1AA20FCF7A8FF41B22046BDE81040D5
:10682000FFF7C2BF10BD018170477047B520FCF76C
:10683000B1BF000008B5084B186899889B792BB147
:1068400008F04FFDB0FA80F0400908BD08F049FD9E
:10685000003818BF0120F8E75C2C002030B51F4A33
:106860001F4B89B0CDE901231E491F4B1F4CCDE9B9
:1068700003131F4B1F4D05930023ADF819302378E8
:106880004FF4B06163F07F038DF818302B684068D7
:1068900020336B4413F81C2C8DF81B2013F8182C94
:1068A0008DF81C2013F8142C8DF81D2013F8102CD3
:1068B00013F80C3C8DF81E208DF81F3006AA082313
:1068C000FEF7C0FB2B68013303F003032B60237832
:1068D000013303F00F03237009B030BD0F287F2868
:1068E0001E1000107056F0560C48A7485430002077
:1068F000469028905830002037B540F2EE220389A8
:106900000025934238BF134641F65832934228BFC0
:106910001346044603819A009B09CDE900554FF4C4
:1069200020718DF803308DF8042008236A464068F2
:10693000FEF788FB08236A464FF4227160688DF8E1
:1069400003508DF80450FEF77DFB03B030BD00000E
:1069500008B5034BB3F900000AF0B6F808BD00BF54
:106960006830002008B5034BB3F900000AF0ACF81A
:1069700008BD00BF6A30002008B5024B18880AF035
:106980009FF808BD6E30002008B5034BB3F9000036
:106990000AF09AF808BD00BF6C300020064B1A7848
:1069A000064B0AB91A7001E0012AFBD0044A1268AA
:1069B00002B91A70187870476430002065300020E2
:1069C0006030002010B504460022616008464FF494
:1069D000C87100F00EFC00224FF4CD71606800F029
:1069E00008FC00224FF4D271606800F002FC60687D
:1069F0000022BDE810404FF4D77100F0FABB000050
:106A00002DE9F3410646084635490AF0B1F80AF087
:106A10008BFA344B01B2A3201980FCF7C5FE80200D
:106A2000FCF7A2FE0546B720FCF7B4FE00284DD0C7
:106A30006B1E5C425C41E400B820FCF7ABFE28B161
:106A400004F11003DBB2012D08BF1C46B620FCF791
:106A5000A1FE012D04EB80043AD1234A138813B11F
:106A6000013B13800234A520FCF77EFEC0F30B052A
:106A7000A620FCF779FE8046DE20FCF775FE00F0CC
:106A80000307B220FCF770FE184B45EA046503EAE1
:106A900008331D43C0F30D0040EA873045EA87758F
:106AA0000190009508F0F4F90221684608F0FEF91B
:106AB000019B6A4643EA00637068019303683F21C3
:106AC0005C680823A04702B0BDE8F0810446B3E744
:106AD000002DC8D14FF49672034B1A80C3E700BF54
