:020000040800F2
:1010000000500020B5FB0008B1FB0008AFFB000852
:10101000AFFB0008AFFB0008AFFB000800000000BA
:10102000000000000000000000000000B1FB00080C
:10103000B1FB000800000000B1FB0008B1FB000894
:10104000AFFB0008AFFB0008AFFB00082928000831
:10105000AFFB0008AFFB0008AFFB0008AFFB0008C8
:10106000AFFB0008AFFB0008AFFB0008AFFB0008B8
:10107000AFFB0008AFFB0008AFFB0008AFFB0008A8
:10108000AFFB0008AFFB0008AFFB0008E5830008DA
:10109000C5830008D5830008AFFB0008AFFB00083C
:1010A000AFFB0008AFFB0008AFFB0008AFFB000878
:1010B000AFFB0008AFFB0008D9270008AFFB000812
:1010C000AFFB0008AFFB0008AFFB0008AFFB000858
:1010D000AFFB0008AFFB0008AFFB0008AFFB000848
:1010E000E5270008AFFB0008AFFB0008AFFB0008D6
:1010F000AFFB0008AFFB0008AFFB0008AFFB000828
:10110000AFFB0008AFFB0008AFFB0008AFFB000817
:10111000AFFB0008AFFB0008AFFB0008AFFB000807
:10112000AFFB0008AFFB0008AFFB0008AFFB0008F7
:10113000AFFB0008AFFB0008AFFB000811840008FC
:10114000F183000801840008AFFB0008AFFB000832
:1011500010B404466468084611461A46234610BC7B
:101160001847836818477047704770477047704743
:1011700041607047704770477047704770477047CD
:1011800070470020704700207047000000487047FB
:101190000000484200207047416070477047704728
:1011A0007047704770470020704741607047704734
:1011B0007047704770477047002070477047416024
:1011C00070470020704770477047704770477047FE
:1011D000002070477047416070477047002070479B
:1011E00070474160704770470846704770477047C6
:1011F0007047704700487047003C1C46416070478C
:10120000704770477047704770474160704770473C
:101210000020704700207047002070470020704772
:101220000020704770477047104B10B5186803686E
:101230001B6898470E4B186803681B6898470D4B4E
:10124000186803681B6898470B4B186803681B688D
:1012500098470A4B186803681B689847BDE8104018
:10126000074B186803689B68184700BF20000020E0
:101270001C00002014000020100000200C000020A2
:101280000400002010B5174C206803689B6998473C
:10129000052002F059FA062818D8DFE800F0040A01
:1012A0000C0E1012200000220F4B1A700F4B2360FF
:1012B0000CE00F4BFBE70F4BF9E70F4BF7E70F4B3A
:1012C000F5E701220E4B23600E4B1A700E4C20687E
:1012D00006F036F86068BDE8104006F031B80B4BF8
:1012E000E5E700BF140000207629002058280020E0
:1012F000502800204828002078280020702800204E
:10130000302800204C29002068290020682800206F
:1013100010B5114C20680368DB699847042002F07F
:1013200013FA042806D8DFE800F003100E121400A8
:101330000A4B23600A4C206806F002F86068BDE89A
:10134000104005F0FDBF074BF3E7074BF1E7074BF4
:10135000EFE7074BEDE700BF1000002060280020FA
:101360006829002028280020202800201828002094
:101370001028002010B5124C206803685B6898475D
:10138000062002F0E1F90138052815D8DFE800F061
:10139000160E0E0310120B4B23600B4C206805F049
:1013A000CFFF6068BDE8104005F0CABF074BF3E708
:1013B000074BF1E7074BEFE7074BEDE7074BEBE791
:1013C0000800002034260020682900200426002080
:1013D000C82500207C2500205C2600203C2600201B
:1013E00010B50B4C206803685B689847492002F0F1
:1013F000ABF9084A084B012808BF13462360074C85
:10140000206805F09DFF6068BDE8104005F098BFBA
:101410000400002064250020742500206829002095
:10142000022010B502F090F90138032815D8DFE842
:1014300000F0020E10120A4B0A4C0B4A206813608F
:1014400005F07EFF6068BDE8104005F079BF074BEE
:10145000F2E7074BF0E7074BEEE7074BECE700BF7F
:10146000AC260020682900200C00002094260020D3
:1014700088260020A02600205825002010B5012035
:1014800002F062F909280FD8DFE800F0171C2B0ED4
:1014900005091F222528144B144A1A6004E0124A39
:1014A000134B136000229A72124C206805F048FF1B
:1014B0006068BDE8104005F043BF0B4A0C4B136059
:1014C0000122F0E7084B0C4AE7E7074B0B4AE4E739
:1014D000054B0B4AE1E7044B0A4ADEE7024B0A4A96
:1014E000DBE7014B094AD8E71C00002070260020EA
:1014F000E0280020682900200C290020D4280020A2
:10150000BC28002028290020F02800206426002084
:10151000036810B59B6898470FF0A2FC00240146B1
:101520009A2002F031F92146952002F03BF921463C
:10153000962002F037F92146982002F033F921462F
:10154000BDE81040992002F02DB9000010B51C4CE8
:10155000206803689B6A9847002002F0F5F8092884
:101560000FD8DFE800F005080A0E271C2117292BE9
:10157000144B236005E0144BFBE71448206005F092
:1015800069F8134C206805F0DBFE6068BDE8104088
:1015900005F0D6BE0D48206005F074F8F1E70B4861
:1015A000206005F031F8ECE70A4B012223600A4B7A
:1015B0001A70E6E7094BDCE7094BF6E7094BD8E779
:1015C00020000020002800208028002098280020EB
:1015D00068290020E02700204C290020082800204E
:1015E000382500200825002010B5144C2068036819
:1015F0001B699847512002F0A7F8032805D8DFE8B7
:1016000000F0020D0F160E4B23600E4C206805F003
:1016100097FE6068BDE8104005F092BE0A4BF3E704
:101620000A4B0B48196820600BF0F2F9EDE7012234
:10163000084B2360084B1A70E7E700BF1800002032
:10164000D827002068290020CC270020042500206E
:1016500078260020C02700204C290020B42002F06A
:1016600089B800002DE9F74F082002F06DF8484CCA
:1016700054F820100920019102F066F854F8206017
:101680000A2002F061F854F820500B2002F05CF8B8
:1016900054F820A00C2002F057F854F820B00D2088
:1016A00002F052F854F820900E2002F04DF854F851
:1016B0002070102002F048F854F82080112002F029
:1016C00043F854F8203001990093324B18680368AE
:1016D000DB6A9847304B314618680368DB6B9847E4
:1016E0002E4B594618680368DB6998472C4B5146C6
:1016F000186803681B6A98472A4B494618680368AC
:101700001B699847284B4146186803685B699847EE
:10171000264B3146186803689B6998473946244828
:1017200009F0B8FF234B0099186803685B69984774
:10173000072002F009F8012802D1284603F030FB07
:10174000072002F001F8022802D1284609F054F9D6
:10175000072001F0F9FF032802D1284609F07AFB9F
:10176000072001F0F1FF042802D128460DF032F8DD
:10177000002240F20161606805F0C5FD002240F2E0
:101780000161206803B0BDE8F04F05F0BCBD00BFAB
:1017900068290020200000201C00002014000020E8
:1017A0001000002008000020040000200C00002091
:1017B000602500201800002038B540F2DF73984201
:1017C00004460D4606D10A460146314809F06AFF33
:1017D000002038BD072001F0B7FF012803D12946BA
:1017E000204603F0BBFB072001F0AEFF022803D127
:1017F0002946204609F040F9072001F0A5FF0328FB
:1018000003D12946204609F055FB072001F09CFF33
:10181000042803D1294620460CF0FEFF1D4B2A4622
:10182000186821460368DB6898471B4B2A461868EE
:10183000214603681B699847184B2A4618682146B9
:1018400003681B699847164B2A46186821460368A7
:101850001B699847134B2A461868214603681B6882
:101860009847114B2A461868214603681B68984719
:101870000E4B2A461868214603681B6998470C4B93
:101880002A461868214603681B689847A0E700BFEE
:1018900060250020200000201C00002014000020F3
:1018A0001000002008000020040000200C00002090
:1018B0001800002008B5034699889B7900682BB171
:1018C0000DF0C3FCB0FA80F0400908BD0DF0BDFC7E
:1018D000003818BF0120F8E708B50248FFF7EAFF13
:1018E00008BD00BF782A0020818800680DF0A8BCE0
:1018F000818800680DF0A6BC2DE9F843A44BA54CE7
:10190000998818680DF0A4FC0DF0ACFCA24BA34E16
:10191000186801F0E6FE0FF073F8A1490FF078F9AE
:101920000146DE2001F03EFF06F0D0FA014681209C
:1019300001F02AFF7F2001F007FF2168054630688B
:1019400006F030FF072001F0FFFE08B107F0E2F9D2
:101950003068944F03689B6A98470146B22001F0B3
:1019600013FF30680368DB6A98470146B02001F036
:1019700019FF07F001FA386803689B6898473068D8
:1019800003689B689847884B186803689B6898476A
:10199000864B18680368DB689847854B18680368AE
:1019A0001B699847206803689B689847814B1868B3
:1019B00003689B699847804B186805F00FFD0CF091
:1019C0000FFF7E4B1B780BB10BF08AFDA92001F0B5
:1019D000BBFE7B4C0028606A80F2A880FFF784FF82
:1019E000E52001F0B1FE002800F0A380A92001F05D
:1019F000ABFE022800F09D80A92001F0A5FE002882
:101A000000F097806069FFF76FFFBB2001F09CFE3C
:101A1000002800F09280606CFFF766FF012D2069BE
:101A200040F08F80FFF760FF3868DFF89881036827
:101A30009B6998470146AA2001F0B4FE3868036804
:101A40005B6998470146AB2001F0ACFE386803683B
:101A50005B6A98470EF0D4FF0146C02001F0A2FE59
:101A60003868594F0368DB6998470146892001F0BF
:101A700099FE306803685B6B98470146BF2001F010
:101A800083FE524BAD20196801F07EFE504B1B784F
:101A9000012B03D0042B01D03B7823B1D8F80000F0
:101AA00003689B689847D8F80000DFF8289103681E
:101AB00099F800105B6998470646002844D0012D2C
:101AC0001EBF0122444B1A7001233B70A06A434B96
:101AD000984205D0FFF7EEFE0146D72001F054FEF4
:101AE0000BF0ACFC0BF0C6FC042D01D0012D7BD11A
:101AF000AA2001F031FE0646DA2001F02DFE014653
:101B000030460FF08DF990B3AA2001F025FE06466D
:101B1000752001F021FE31460FF064F948B3E06B07
:101B2000FFF7E2FE206CFFF7DFFE63E0FFF7E0FE69
:101B300056E76069FFF7DCFE67E7606CFFF7D8FEE9
:101B40006CE7FFF7D5FE6FE73B7833B101468020A5
:101B500001F01AFE204B3E701E70D8F8000099F874
:101B6000001003689B6998471D4B1870AEE7DA2098
:101B7000CBE7752001F0F0FD1A490EF08BFE3146DF
:101B80000FF04EF90028CDD0E06BFFF7B1FEC9E7AA
:101B9000382B00200C000020782900201C00002099
:101BA0000000204120000020140000200800002038
:101BB0000400002018000020642900204C29002087
:101BC000642F00201000002075290020982D00208F
:101BD000622900206029002076290020682A002040
:101BE0004F2900200000A040E06BFFF781FE206C31
:101BF000FFF77EFE002001F0A7FD092816D1012D78
:101C000014D1A92001F0A0FD094B0A4C1A688242A8
:101C100009D005221860226007480CF0ADFD23684A
:101C2000013B236002E02368002BF5DCBDE8F8836C
:101C300000250020FC240020082500202DE9F74F76
:101C4000A02001F081FD81467F2001F07DFD04464A
:101C5000A92001F079FD07460DF0D8FC06F002F945
:101C6000834BDFF81082186803685B6898477F2011
:101C700001F06AFD0128054640F0D6800FFA89F987
:101C800089EAE970A0EBE97080B206F05DFF0021FF
:101C900006460FF0A7F898B1002001F055FD042882
:101CA0000ED0232001F050FD002840F0B780B9F19C
:101CB000000FB8BF4FF0FF35BD4218BF06F1004618
:101CC00038460EF09DFE31460EF0EEFE0546D8F881
:101CD000000003685B689847D8F80000294603684D
:101CE000654E1B699847B82001F044FD002840F07C
:101CF0009F80306AFFF7FCFDD8F800005F4F036853
:101D00001B6A98470FF0ACF805B22946A02001F0F5
:101D10003BFD082001F018FD594B53F8200006F058
:101D20003BFC012C01D0042C08D1386885EAE57110
:101D30000368A1EBE5719B6989B29847D7F80090D9
:101D4000AA20D9F80030D3F81CA001F005FD014607
:101D50004846D047386803685B689847494B18681D
:101D60000368DB689847484B186803685B689847C6
:101D7000042C67D1454B186803685B689847284670
:101D800006F08EFD8146A42001F0DEFC834618207B
:101D900001F0DAFC8246392001F0DEFC01902920B6
:101DA00001F0DAFC49460FF03BF84946B0FA80F5FD
:101DB00001980FF021F8B0FA80F06D094009ED00AC
:101DC000D34545EA80054FF08600D4BF4FF0000BA5
:101DD0004FF0010B01F0C0FC8146282001F0BCFC53
:101DE000014648460FF01CF845EA8B15002808BF4D
:101DF00045F001058220294601F0C6FC172001F0BC
:101E0000A3FCDFF88C900190042C00F2AD80DFE899
:101E100014F04100EB01C200BB01D601B9F1000F83
:101E2000A8BF4FF0FF3547E706F05CFF002553E7FA
:101E3000B52001F09FFC00287FF45BAF306AFFF70C
:101E400053FD59E7052001F07FFC032804D10F4B17
:101E5000186803685B689847012C90D1DD2001F079
:101E600073FC411C01F00F01DD2001F08DFC86E7C1
:101E70001000002020000020642F00201C00002003
:101E800068290020040000200C000020140000201D
:101E9000180000204FF00008AE4BDFF8BCB2AF488E
:101EA00083F800808BF80080FFF722FDB069FFF710
:101EB0001FFD0221A92001F067FC3868DFF8A0A20D
:101EC00003685B6998478AF80080DFF89882B8F861
:101ED0000030002B54D1A448FFF70AFDF069FFF74A
:101EE00007FDA248FFF704FDBF2001F02DFC0028EC
:101EF0004DD19F4B1B78002B49D1B06CFFF7F8FCFC
:101F000015F0410F01D0019BCBB1386803689B6B82
:101F10009847A0B1386803685B6B984778B1B06C9C
:101F2000FFF7E2FC01238AF800308BF80030192318
:101F3000A8F800300DF06AFB02248E4B18608C4B21
:101F40001B786BB115F0480F0AD11923A8F800309F
:101F50000DF05CFB874B0224186001237D4A13704F
:101F600021467F2001F010FCF068FFF7C1FC002241
:101F7000D9F80000114603682546DB68984795E0CC
:101F8000013B9BB2A8F80030002BADD1A3E7B06CA9
:101F9000FFF7AAFCB4E7DFF8D8B19BF80030002BBC
:101FA00040F0B280D8F80020734B9A4202D06B48C0
:101FB000FFF79AFCF069DFF8AC81FFF795FCB06998
:101FC000FFF792FCB8F80030002B40F0AA80674879
:101FD000FFF78AFCDFF888A19AF800305BB115F0B2
:101FE000450108D1192384208AF80010A8F8003090
:101FF000012401F0C9FB9BF8003053B115F04C01EE
:1020000007D14FF4FA738420A8F80030042401F0BB
:10201000BBFB504B1B7823B19BF80030002B08BF53
:1020200000244D4D2B78002B40F08380022C17D1DB
:102030000DF0ECFA0746152001F086FB4D4B1B68AE
:1020400003449F420CD9019B002B7BD02B78002BA3
:1020500078D000238AF8003019230124A8F8003032
:1020600021467F2001F090FB012C7FF47DAF5220B0
:1020700001F06AFB012805467FF476AFF068FFF7B0
:1020800033FCD9F800003D4903689B689847D9F8AC
:10209000006053203368DF6801F056FB0446D72008
:1020A00001F068FBA1B202463046B847072001F0B4
:1020B0004BFB022808D10A2001F046FB304B53F8B5
:1020C0002010284608F0EAFC072001F03DFB032819
:1020D00008D10A2001F038FB294B53F8201028467C
:1020E00008F024FF072001F02FFB042840F0AB800C
:1020F0000A2001F029FB224B53F82010284603B098
:10210000BDE8F04F0CF090BB072001F01DFB00284C
:102110007FF450AFD8F800201A4B9A427FF44AAFB0
:1021200045E7013B9BB2A8F80030002B7FF452AF8B
:102130004DE7386803685B6B984700287FF476AFFB
:1021400000248DE70948FFF7D3FB0A2005F090FE35
:10215000032485E74D2900204E290020F02A002085
:102160005029002024000020402B0020F82A0020C5
:1021700076290020F824002008280020000048428A
:1021800068290020802800200022304B30481A7037
:10219000FFF7AEFB2F4B1B7823B12F4B1B78002B87
:1021A00008BF00242D4B1B78002B3FF4D9AE3868B4
:1021B00003685B6B9847002808BF0024D0E6284DD1
:1021C0002B884BB92748FFF78FFB234B1B7843B96C
:1021D000FA221C462A8004E0013B9BB22B80002B94
:1021E000F0D005F067FEBBE61D4D2B8813BB1D48E4
:1021F000FFF77AFB1C48FFF777FB7F20012101F0F6
:10220000C3FA05F057FE386803685B6B98470028EF
:102210007FF426AFA02001F097FA00284FF0A0002D
:102220000EDA01F091FA404263283FF719AFFA2322
:102230002B8085E7013B9BB22B80002BDDD1D6E7BD
:1022400001F082FAF0E703B0BDE8F08F50290020DA
:10225000F82A00204D290020762900204E29002050
:1022600024000020402B0020F02A00202DE9F04718
:102270007F2001F069FA05469C4BDFF874821868EC
:102280000368DB689847042D04D1D8F80000036880
:10229000DB68984706F0FCFD964BDFF85CA21968F6
:1022A000D220DFF8589201F06FFAD320DAF800104C
:1022B00001F06AFAD420D9F8001001F065FA904BC9
:1022C000904E1968D520904F01F05EFAD6203188E3
:1022D00001F05AFA3B788D4C022B32D18C4B1B7893
:1022E0007BBB042D1DD1DFF82CA2DFF82C92DAF88D
:1022F0000030002B44D100235B20237001F024FA2E
:102300004FF496735843CAF80000D9F80030B3F57B
:10231000967F16D10023C9F800303388013B338003
:102320000FE07E4ADAF8003012789A4226D17C4AD1
:10233000D9F8003012789A4220D13388F3B10123C2
:1023400023703B783BBB724B1B780BB90123237086
:102350006E2001F0F9F9012821D1702001F0F4F983
:10236000704B8146586802F0C4F806460146DF20EB
:1023700001F00AFAB1452CDA002331E00023DFE74F
:10238000D9F80020013B0132CAF80030C9F800201A
:10239000002BBAD1AFE7012BDAD10023D7E76F20AA
:1023A00001F0D2F90128D8D0D8F800005E4A0368BD
:1023B00012785B692178984708B1012D12D15B4BE7
:1023C0001E78AEB93146802001F0DEF9584B1E7000
:1023D0000EE03B78012BE7D14D4A1278002AE3D179
:1023E0002370E1E70121524B8020197001F0CCF9F4
:1023F000504E3378022B07D14C4B1B7823B14E4BF8
:1024000018680368DB6898473378012B02D9033BCF
:10241000012B0AD8484F38680368DB68984733783F
:102420001BB938680368DB689847042D3CD13F4BE3
:102430001E78002E33D1852001F086F905463E2016
:1024400001F082F98542A1BF0122314B26701A703A
:102450003A4B186803689B68984700210EF0B8FC57
:1024600068B1374A1368002BDFBF002301212370B6
:10247000274BCEBF03F1FF3319700A231360314B92
:10248000586B314B98420AD0FFF714FA38B1E42068
:1024900001F05AF918B901221D4B20701A70294B0E
:1024A000986BFFF725FA56E0012DF8D10022184B62
:1024B0006E201A7001F048F9022847D1712001F00E
:1024C00043F90646722001F03FF9164B054698681D
:1024D00002F00FF801460446E02001F055F9AE4243
:1024E0003BDCA642DBDCA54235DA3AE01C000020EA
:1024F0001400002048290020442900204029002001
:102500003C2900205C29002061290020602900204E
:102510007429002058290020542900205F29002018
:102520005E290020582F00204F2900207529002007
:1025300076290020622900201000002008000020D9
:1025400000000020642F0020682A00206F2001F086
:10255000FBF80228B2D0BDE8F087A6429FDBA54277
:10256000F9DD024B986BFFF7BFF9F4E7642F002009
:10257000FEE700000C2838B510D80C2819D8DFE881
:1025800010F0D000D300E5001800D900D600DF001D
:102590001800E800E800E800E800E800512800F032
:1025A000CC8000F2B2803C2800F0DB80492800F0AB
:1025B000CA80232001F0C8F840B1002001F0C4F81F
:1025C000082803D00021232001F0DEF8182001F0B4
:1025D000BBF8664D664C2860192001F0B5F8206004
:1025E0001A2001F0B1F868601B2001F0ADF86060BE
:1025F0001C2001F0B1F85F4D5F4C28601D2001F0F8
:10260000ABF82060332001F0A7F85C4B216818601C
:1026100028680EF0E7FB50B159491C202960594D3C
:10262000256001F0BFF829461D2001F0BBF81E20EF
:1026300001F092F8544B554C18602E2001F08CF8A4
:10264000534B18602F2001F087F8524B186031204F
:1026500001F082F8504B1860262001F075F84F4BBE
:102660001860202001F078F84D4B1860242001F00C
:1026700073F84C4B1860302001F06EF84A4B18602C
:102680001F2001F069F8494B1860052001F05CF843
:10269000042001F059F8464B18702378012B22D101
:1026A000582001F051F8434B1860572001F04CF8C6
:1026B000414B1860562001F047F8404B18605520F8
:1026C00001F042F83E4B1860592001F03DF83D4BB7
:1026D00018705A2001F038F83B4B18705B2001F05D
:1026E00033F83A4B1880452001F02EF820705B201B
:1026F00001F02AF84FF496735843354B186008F0F0
:1027000011F9BDE8384008F04BB9682805D86528AC
:102710007FF64FAF00F034FE4BE778380428F9D944
:1027200047E7FEF713FF44E7FEF7A8FE41E7FEF791
:10273000A9FD3EE7FEF7ECFD3BE7FEF755FF38E766
:10274000FEF718FE35E7FEF74BFE32E7FEF768FEB0
:102750002FE7204C206804F0F3FD606804F0F0FDE2
:1027600027E704F0D9FB04F0C5FB22E7902D0020F9
:10277000882D0020842D0020802D0020482D002051
:102780000080BB440000C8427C2D0020612900204D
:10279000742D00206C2D0020682D00204C2D002071
:1027A000642D0020602D0020702D0020782D002049
:1027B000622900203C2900204029002044290020D3
:1027C000482900205F2900205E2900205C29002084
:1027D0005829002068290020014B186800F04ABFE2
:1027E0007829002000B589B003A804F015FC28B1B1
:1027F000DDF815300193DDF81930029304F087FB02
:102800004FF400400CF0E0FB0499A1F58473012B18
:1028100005D8044B01AA186803681B69984709B0DA
:102820005DF804FB1000002008B500200CF02AFF22
:10283000104B1A6801323B2A1A600F4A05D91168F9
:102840000131116019683C39196013683B2B0B4B3F
:1028500005D919680131196011683C3911601A688D
:10286000172A06D906490A6801320A601A68183A16
:102870001A6008BD3C29002040290020442900207E
:1028800048290020F0B5ADF68C2D00F0BFFB00F01C
:10289000EDFC0022C349C44801F06CFE0122C1498D
:1028A000C24801F067FE0122C149C24801F062FE40
:1028B0000222BC49C04801F05DFE0322B949BF486D
:1028C00001F058FE0522B749BD4801F053FE04222D
:1028D000B449BC4801F04EFE0B22B249BA4801F09F
:1028E00049FE04232022B949B94801F0B0FB042372
:1028F0008022B649B74801F0AAFB04234FF40042F6
:10290000B549B64801F0A3FB04231022A849B448F6
:1029100001F09DFB04230822A549B24801F097FB72
:102920000125072380229F49AF4801F090FB072330
:102930000422AE49AE4801F08AFB07234FF400425F
:10294000A249AC4801F083FB07234FF480429F4922
:10295000A94801F07CFB07234FF400529B49A7488C
:1029600001F075FB07234FF400729849A44801F069
:102970006EFB07234FF480729449A24801F067FB75
:1029800007234FF4806291499F4801F060FB0723C1
:102990004FF400628D499D4801F059FB0723402206
:1029A00080499B4801F053FB07234FF480728A490A
:1029B000984801F04CFB07234FF400727949964880
:1029C00001F045FB07234FF480727649934801F0EC
:1029D0003EFB07234FF480527C49914801F037FBBE
:1029E0000523082281498F4801F031FB052310227D
:1029F0007E498D4801F02BFB052320227B498B4823
:102A000001F025FB072340227849894801F01FFB8C
:102A1000072308226D49874801F019FB0723042288
:102A20006A49854801F013FB07234FF4805260493F
:102A3000824801F00CFB07234FF480426B49804829
:102A400001F005FB0723012259497E4801F0FFFAF6
:102A50000723802260497C4801F0F9FA07234022CD
:102A60005D497A4801F0F3FA042340225749784837
:102A700001F0EDFA042310225449764801F0E7FAF8
:102A8000002380225949744801F0E1FA01F0C2FCA8
:102A900072494FF000700CF0C9FB00F075FB00F0BC
:102AA000A5FB05F0B0F900F011FB00F03DFB00F0D4
:102AB00067FCE620FFF75EFD5648FEF719FF604809
:102AC000FEF716FFC4AC0023654A6649009539A895
:102AD00000F00AFF0DF26C570023022220466249E3
:102AE00005F0C8FB022261492B46384605F0C2FBBF
:102AF0005F4B0F2004935F4B5F4E05935F4B069334
:102B000000F022FE2A46002814BF394621460DF562
:102B1000F96005F0F3F80DF5F962214619A808F0FF
:102B200097FE032119A808F0AFFE204604A9C6E9C4
:102B3000004704F0D9FB04A9384604F0D5FB504BFC
:102B40000DF5F9621A604F4B0A201A6000F0FCFD87
:102B500056F820700E2000F0F7FD07AC56F8201054
:102B6000494808F097FD04F0D7F904F0C3F94FF491
:102B700096424649204609F0C1FD454B1C600FAC0A
:102B8000FEF7E4FCFEF77AFCFEF77CFBFEF7C0FBE9
:102B9000FEF7F0FBFEF728FDFEF722FCFEF740FCF7
:102BA00078E000BF001001408C2B0020882B002013
:102BB000000C0140842B0020802B00207C2B002067
:102BC000782B0020742B0020702B00200014014073
:102BD000682B0020602B002000080140582B0020AB
:102BE000502B0020482B0020402B002000180140D3
:102BF000382B0020302B0020282B0020202B0020F9
:102C0000182B0020102B0020082B0020002B002068
:102C1000F82A0020F02A0020E82A0020E02A0020DC
:102C2000D82A0020D02A0020C82A0020C02A00204C
:102C3000B82A0020B02A0020A82A0020A02A0020BC
:102C4000982A0020902A0020882A0020802A00202C
:102C5000782A0020702A0020682A0020C000400046
:102C6000842A0108004800400064004000680040D9
:102C700094100108B917000868290020651600089B
:102C8000CC2E00206429002060250020003801405F
:102C9000042500201C49204600F096FC1B4B2A46C8
:102CA00020461B491C6000F0AFFC0A22204619494F
:102CB00000F0AAFC64222046174900F0A5FCC822B7
:102CC0002046164900F0A0FC772000F03DFDA84208
:102CD00002D1384602F0C6F804217E2000F054FDEF
:102CE00000217F2000F050FD4FF0000439A88DF83E
:102CF0000F4000F0B3FF1E9B002BF7D10DF10F0129
:102D00001AA806F09FFAF1E7000800407829002091
:102D1000291200083D1C0008F91800086D2200085F
:102D200010B50024624B634A1C741A60624B634AFC
:102D30001C721A60DC721C73614A624B62481A6032
:102D40001C72DC721C73614A614B1A60614B624AEF
:102D50001A6007F0DDFD614B614A1C621A601C7746
:102D6000604A614B61481A60614B624A1A60624B6B
:102D7000624A1A60624B634A1A60634B634A1A6084
:102D8000634B644A1A60644B644A1A60644B654A38
:102D90001A60654B654A5C751A60DC82644A654B53
:102DA0001A60654B654A1A60654B664A1A60664B45
:102DB000664A1A60664B674A1A60674B674A1A6030
:102DC00004F076FA664B674A67481A6007F0D2FB50
:102DD000664B674A67491A60674B684A68481A60D9
:102DE000684B694A1A60694B694A1A60694B6A4ABA
:102DF0001A606A4B6A4A1A606A4B6B4A1C721A6004
:102E00006A4B6B4A1A606B4B6B4A1A606B4B6C4A8D
:102E10001A606C4A6C4BC2E90244136000231361D0
:102E200053619361D361694A1160694A6949C2E992
:102E300004441160C2E90644136253629362D36290
:102E40006549664A11606649C2E90244C2E9044420
:102E50001483D361136253629362D3621363536327
:102E60009163604A6049C2E9044411605F49D360DC
:102E70009361D361148453629362D3621363536387
:102E80009363D3631364536493649160584B594ABA
:102E90001A60594B594A1C731A60594B594A1A60A7
:102EA00009F026FCBDE8104057480BF059BC00BFA4
:102EB00028290020FC3201080C290020182B0108C9
:102EC000502C0108F0280020BC280020442E0108C6
:102ED000E0280020D42800208C2E0108982800200B
:102EE000D82C01087430010880280020E027002039
:102EF00078280020D4310108702800200032010811
:102F0000682800209433010860280020C8100108B8
:102F100058280020F4100108502800202C32010805
:102F2000482800202831010830280020903201086C
:102F3000D83001082828002020280020AC300108C3
:102F4000182800206833010810280020F4340108F4
:102F500008280020D42E010800280020A411010810
:102F6000D827002020110108CC270020C0270020EE
:102F70004C360108CC350108B82700208011010823
:102F800038250020AC26002044330108A02600206C
:102F9000A8350108942600204C340108882600201A
:102FA000703401087826002028340108702600209B
:102FB000DC11010864260020E83501085C260020A9
:102FC000441101083C2600207432010834260020F8
:102FD000042600205832010830360108C825002098
:102FE0000000FA437C250020783601080000C84222
:102FF000742500206011010864250020DC320108DE
:1030000058250020A41001080825002008B50CF060
:1030100037FA02200CF00CFA4FF0E0232A4A40F273
:103020000230C3F80C2D0CF06FFA40F203300CF0B4
:103030006BFA4FF441700CF067FA40F205300CF077
:1030400063FA40F206300CF05FFA40F292300CF076
:103050005BFA40F291300CF057FA40F20E300CF06F
:1030600053FA40F20B300CF04FFA4FF460700CF052
:103070004BFA40F281300CF047FA40F282300CF00B
:1030800043FA4FF420700CF03FFA40F209300CF094
:103090003BFA40F286200CF037FA4FF440700CF007
:1030A00033FA40F299300CF02FFA40F29A300CF0DB
:1030B0002BFA40F28E300CF027FABDE8084040F2BF
:1030C0008F300CF021BA00BF0003FA0573B500245D
:1030D000134D2346224620212846CDE900440CF01A
:1030E00047FB214628460CF03BFB0E4E28460CF0D1
:1030F00029FB28460CF02FFB30464FF420430222D8
:1031000003210CF063F830464FF48043012221463E
:103110000CF05CF8284602B0BDE870400CF006BB2D
:1031200000380040000C014073B50024144D4FF0EE
:1031300080514FF000700CF079F823462246202190
:103140002846CDE900440CF013FB0E4E28460CF047
:10315000F9FA28460CF0FFFA30464FF4A053022249
:1031600003210CF033F830464FF40063012221466E
:103170000CF02CF8284602B0BDE870400CF0D6BA2E
:10318000003C00400010014010B5164C04232046BE
:10319000022203210CF01AF8082301222046002104
:1031A000A4F544440CF012F820460F490CF09EFCA4
:1031B000204608210CF0AEFC204600210CF0B3FCA8
:1031C00020460C210CF0BBFC204600210CF0B1FC89
:1031D000204600210CF0B9FC2046BDE810400CF060
:1031E000BABC00BF0008014020A1070008B51120AB
:1031F0000CF04CFDF02111200CF054FD10200CF0CF
:1032000045FDF02110200CF04DFD1E200CF03EFD80
:1032100000211E200CF046FD14200CF037FDE021AB
:1032200014200CF03FFD13200CF030FDE0211320A2
:103230000CF038FD28200CF029FD4FF400400BF075
:10324000B5FE01214FF400400BF08CFE06494FF40F
:1032500000400BF0BFFE03200CF018FDBDE8084055
:10326000202103200CF01EBD0018014008B54FF2CC
:10327000234103200CF040FA00200CF0D1F900208B
:103280000CF000FABDE8084000200CF0D9B90000AD
:10329000022210B5174C11464FF4007316480BF07C
:1032A00095FF20460CF0ACFA002320221946204658
:1032B0000CF07FFA204620210CF0A7FA07222046C6
:1032C00000210CF0A6FA002120460CF0A7FB2046B6
:1032D0000CF0FEFB20464FF4C87200210CF0E8FB16
:1032E00020464FF488610CF092FA2046BDE8104069
:1032F0000CF081BA002C01400018014008B50223EF
:1033000003211A461D480BF061FF4FF080400CF07E
:1033100077FA00234FF080401A4619460CF049FA1C
:1033200000214FF080400CF070FA4FF080400CF01C
:1033300049FA4FF080400CF059FA8F214FF080404D
:103340000CF065FA02214FF080400CF08CFB062255
:1033500002214FF080400CF05CFA02214FF08040D7
:103360000CF05CFB4FF08040482202210CF0A0FBE7
:10337000BDE808404FF080400CF03DBA0008014025
:10338000682038B500F0E0F9132808D102220123A3
:10339000114687480BF01AFF002425460DE06820EF
:1033A00000F0D2F9142840F0928002220123114645
:1033B0007F480BF00BFF00240125672000F0C4F9C3
:1033C000132840F0998002228023114679480BF09F
:1033D000FDFE662000F0B8F9132840F0AE8002220E
:1033E0004023114673480BF0F1FE73480CF008FAC5
:1033F000002171480CF0EBF96F480CF0E3F906225C
:1034000000216D480CF005FA062202216A480CF0F2
:1034100000FA0622042168480CF0FBF900216648F6
:103420000CF0BDFA022164480CF0B9FA042162489C
:103430000CF0B5FA002160480CF0CBFA02215E488E
:103440000CF0C7FA04215C480CF0C3FA00215A487A
:103450000CF0E4FA022158480CF0E0FA0421564836
:103460000CF0DCFA002D40F08980002C40F08680C2
:10347000792000F069F901464F480CF0C8F97A202C
:1034800000F062F9214602464B480CF011FB7B200C
:1034900000F05AF90221024647480CF009FB7C2053
:1034A00000F052F90421024643480CF001FB0121CF
:1034B00041480CF012FB782000F046F901463E48E6
:1034C0000CF0A3F9BDE838403B480CF094B96820F3
:1034D00000F03AF9152808D1022201231146344898
:1034E0000BF074FE0124002567E707230122304911
:1034F000324800F0ACFD4FE7672000F025F91428B2
:1035000007D10222802311462A480BF05FFE0125D5
:103510005FE7672000F018F9152807D10222802301
:10352000114624480BF052FE012452E70723802263
:103530002049234800F08BFD4BE7662000F004F99A
:10354000142807D10222402311461A480BF03EFEF0
:1035500001254AE7662000F0F7F8152807D1022276
:103560004023114613480BF031FE01243DE70723A9
:1035700040221049134800F06AFD36E741F68C11ED
:103580000D480CF044F9012200210B480CF090FA90
:103590000122022108480CF08BFA0122042106487E
:1035A0000CF086FA012104480CF097FA0A2186E70C
:1035B000000C01400008014000040040902A002057
:1035C000882A0020802A002038B50C460546016272
:1035D00008460CF0F7F820460CF003F9084B20469B
:1035E0001968084BB1FBF3F101390CF00EF92046D4
:1035F0004FF6FF710CF00BF9002328466B6238BDC3
:10360000C4230020A0860100F8B5436A0446032BBA
:103610000E4615462ADC006A0CF0F2F8144F636A75
:103620000122F95C206A0CF0F4F8636A0022F95C6C
:10363000206A0CF03DFA0221636A05EB850505EB73
:10364000850503F10802AD0044F82360994024F891
:103650001250206A0CF0A0F80021206A0CF043FA06
:10366000206A0CF0C8F8636A01336362F8BD00BFDA
:103670001C1201082DE9F843044600254FF002080A
:1036800000F11006636A206AAB4208FA05F70ADC0B
:103690003946206A0CF08AF80135042D06F102063D
:1036A000F0D1BDE8F88339460CF07AF8A8B1206A69
:1036B0000CF017FA236A3188343353F825208146F9
:1036C0000A4443F8252054F825309847206A0CF026
:1036D00008FAA0EB09003081DAE7636AAB42DBDC71
:1036E000D6E7002170B500F10E03446A4FF47A75F5
:1036F00008468C4200DC70BD5A8933F8026F6A4379
:10370000B2FBF6F201311044F3E7000010B51C24BF
:10371000084A04FB0022D4688C4209DC12698A4200
:1037200006DB054A42F82010FEF724FF002010BDFA
:10373000FF20FCE7C003002028000020014B53F8C5
:103740002000704728000020024B53F82000401151
:10375000704700BF2800002008B5054B53F8200033
:103760000DF04EF94FF074510DF09EF908BD00BFF9
:1037700028000020034B53F820004011431E5842FC
:103780005841704728000020024B490143F820109F
:10379000704700BF28000020014B43F820107047FD
:1037A0002800002010B5044608464FF084410DF073
:1037B0007BF90DF055FB024B43F8240010BD00BF10
:1037C0002800002070B506460024074D3146686881
:1037D00000F098FB08B9E0B270BD0134E62C05F1A9
:1037E0001C05F3D1E720F7E7C00300200023064AB9
:1037F000118B814201D1D8B270470133E62B02F11F
:103800001C02F5D1E7207047C00300201C22024BA8
:1038100002FB0030704700BFC00300200023064AAF
:103820000649108B10B1506941F823000133E62B93
:1038300002F11C02F5D17047C003002028000020CF
:10384000014B1954704700BF7C290020024B1A5CC1
:1038500011431954704700BF7C290020024A135CB1
:1038600023EA0103135470477C290020014B185CA4
:10387000704700BF7C2900201C22024B02FB003352
:10388000987E7047C003002000487047146A030008
:10389000024B1A68024BC3F8242E7047B82200204E
:1038A000C0030020202180680CF07BB980680CF0F8
:1038B00070B910B504464368597A58680BF029FB73
:1038C000636804F12A02597A58680BF034FB636884
:1038D0008022597A58680BF03EFB6368BDE81040BF
:1038E000597A58680BF00CBB70B5026140F20112B6
:1038F0000D464C498282016001210022817580F8C9
:10390000281004460421C0E9062280F820204262E3
:103910009DF81020856080F82920434A0373426097
:1039200062681068A84206D1404A146062683BB9D8
:10393000D068138A06E01C3201396260F0D1F3E7E7
:103940005069138B022203210BF040FC28464FF4F0
:10395000E1310CF0CBF8284608210CF0DBF82846C2
:103960004FF400510CF0DFF828460C210CF0E7F87A
:10397000284600210CF0DDF8002128460CF0E5F87F
:1039800028460CF0F8F828460CF0FAF863682E1D6B
:10399000197A58680BF04AFA6368197A58680BF07C
:1039A000A6FA63683246197A58680BF0BBFA636866
:1039B0000022197A58680BF06FFA63680022197AAE
:1039C00058680BF05DFA6368197A58680BF070FA62
:1039D0006368597A58680BF029FA63683246597A55
:1039E00058680BF09FFA63680022597A58680BF008
:1039F00053FA63680022597A58680BF041FA6368F9
:103A0000597A58680BF054FA63685868597A0BF081
:103A100077FA2046FFF74DFF28460CF09CF8204629
:103A200070BD00BF102A0108142A0108642A002072
:103A300038B5437D0D4604691BB90024204638BDC6
:103A40000834216821B1284600F05CFA0028F7D13B
:103A50002368002BF2D1F0E738B504460D466368C1
:103A60000222197A58680BF0F6F918B994F8283040
:103A7000002BF4D06368197A58680BF04AFA63682F
:103A8000AAB2197A58680BF066FA94F82020636895
:103A900004EBC212197A5868AA320BF04CFA636828
:103AA0000222197A58680BF0D1F96368197A5868BC
:103AB0000BF026FA94F82030B3FA83F35B0984F80C
:103AC0002030002384F8283038BD837D10B50A46A5
:103AD000044623B9BDE8104080680CF041B894F862
:103AE0002030406ADB01234403440A2A00F101012B
:103AF00083F8AA2001D07F2805D12046FFF7ACFF2C
:103B00000023636210BD6162FCE7802A30B428BFE5
:103B100080220C460021914202D130BCFFF79CBFAD
:103B200090F82030655C00EBC3130B4483F8AA5077
:103B30000131F0E738B5054608460C4600F0F9F9C2
:103B4000214602462846BDE83840FFF7DEBF0000A8
:103B500010B50446084600F03FFA00F024FA237D31
:103B6000227B8342636811D1012161755AB1586982
:103B70001B8B032102220BF029FB2046BDE81040DD
:103B80000949FFF7D7BFD8681B8AF2E700216175A2
:103B90003AB158691B8B0122BDE8104000210BF09F
:103BA00015BBD8681B8AF6E72023010830B5044608
:103BB00085B0084600F010FA0378302B26D0322B5F
:103BC000144D18BF4FF46125637DA3B10A22294625
:103BD00001A800F0BDF920460F49FFF7ABFF2046D2
:103BE0000E49FFF7A7FF204601A9FFF7A3FF2046D4
:103BF0000B49FFF79FFF2946A0680BF077FF0021D4
:103C0000A06805B0BDE830400BF08DBF4FF4E13542
:103C1000DAE700BF105522001F2301082523010801
:103C2000A529010810B50446084600F0D5F9037827
:103C300023B1303B18BF012384F8293094F8293090
:103C40002BB104492046BDE81040FFF773BF02497D
:103C5000F8E700BF342301083E2301082DE9F041B5
:103C600043680446597A58680BF06EF90546C0F16E
:103C7000800710B92046FFF71CFE94F82930A06891
:103C800013B1E369BB4254DB08210BF08AFF10B18A
:103C9000A0680BF07EFF002F40F39280651B95F823
:103CA000A9300A2B01D00D2B77D16368597A586857
:103CB0000BF02FF9012F37D00022E31904F12A0667
:103CC00083F82A2020213046E26100F039F990F88B
:103CD00000800546B8F1000F33D10A21304600F0CC
:103CE0002FF9054684F8AA812B7823B90D21304697
:103CF00000F026F90546002330462B703149A361B8
:103D000000F000F918BB204604F5D571FFF720FF3D
:103D10000027A369BBB3A0680BF03FFFA36920464F
:103D20005B6804F5D57198472046BDE8F041FFF780
:103D3000C0BD5A1CE261234493F82A100BF010FF17
:103D40009BE7411C04F5D57000F0EAF8CCE730465B
:103D50001D4900F0D7F828B9204604F5D571FFF7C2
:103D600025FFD5E73046194900F0CCF828B92046A0
:103D700004F5D571FFF756FFCAE731462046FFF735
:103D800057FEA061C5E7012FCEDD637D002BCBD0B0
:103D900020460F49FFF7CEFEC6E794F82A30212BC4
:103DA0000ED1A36963B12046FFF783FD0023E361D1
:103DB000A369204604F5D5715B68BDE8F04118475A
:103DC000BDE8F08149230108542301085D2301085F
:103DD00062230108034BC1B21B681A6818461268B7
:103DE000104700BF642A002004F08CB807B50749CB
:103DF000D1F8F027D1F8EC37D1F8E8170091044951
:103E000000F0FAFA03B05DF804FB00BF00F0FF1FFA
:103E10007D23010805F016BAF7B5144800F0DAFA68
:103E2000134800F0D7FA0025124FEEB23046FFF7E4
:103E3000EDFC04463046FFF71FFD68B93046FFF73A
:103E400015FDC3070DD46369384600936168D4E952
:103E5000032300F0BFFA04E03046FFF70DFD012810
:103E6000ECD00135E62DE0D103B0F0BD862301088A
:103E70009D230108B9230108F8B50C4900F0BCFAEC
:103E800000240B4FE6B23046FFF7C0FC0546304633
:103E9000FFF7ECFCC30704D4D5E90112384600F063
:103EA00099FA0134E62CEDD1F8BD00BFCC2301080E
:103EB000EE2301082DE9F041054600240A4FE6B241
:103EC0003046FFF7A3FCD0F804803046FFF736FCFD
:103ED0000134034642463946284600F08DFAE62C66
:103EE000EDD1BDE8F08100BFF823010810B504460C
:103EF000FFF794FC2046BDE81040014900F07CBA71
:103F000001240108431E013913F8010F11F8012F94
:103F100010B10AB19042F7D0801A18BF0120704743
:103F2000013911F8013F0BB90370704700F8013BEC
:103F3000F7E7034600201A5C02B970470130FAE740
:103F40000346184613F8012B0AB18A42F9D170478B
:103F5000002970B518DA2D23012400F8013B4942ED
:103F6000034691FBF2F602FB161130311970311E37
:103F70001D4603F10103F4DC00221A70024695424B
:103F80000AD8241A181904E004D1302341700370B0
:103F9000012070BD0024E3E711782E7802F8016B50
:103FA00005F80119EBE730B503782D2B11D14FF04F
:103FB000FF34013000210A25431E01E005FB0121E9
:103FC00013F8012F303AD0B20928F7D904FB01F0D9
:103FD00030BD0124EEE7000010B5134C014610F887
:103FE000012BA2F10A03DBB2162B19D824FA03F332
:103FF000DA07F3D40846FFF79CFF013808448142F2
:1040000004460AD2237801380A3BDBB2162B04D8C7
:10401000054A22FA03F3DB07F1D40023637001E0C1
:10402000002AE7D1084610BD09004000002310B562
:10403000934200D110BD51F8234040F82340013392
:10404000F6E7013A00D2704740F8041BF9E72DE982
:10405000F041174682800022013B0E4601608271CA
:10406000082B0BD8DFE803F0080E0C17151A0526ED
:1040700024000024032513E00123837102240BE0B4
:104080000123837102240025394630460BF0D8F80D
:1040900006E0012383710124002501E00024254668
:1040A0003B46224629463046BDE8F0410BF08EB82B
:1040B0000224DFE701240325E6E770B50C1EACBF40
:1040C00001234FF0FF335C430133064608BF2D2325
:1040D0004FF0640208BF06F8013B611104F01F04B1
:1040E0000546544330460A22FFF732FF2E22641160
:1040F000092C3254D8BF302206EB0003D8BF5A70C7
:1041000021464FF00A02CCBF581C981CFFF720FF35
:10411000284670BDF0B503782D2B17D14FF0FF3630
:10412000013000244FF00A0C02E018460CFB045446
:10413000034613F8012BA2F13005EFB2092FF4D991
:10414000AAB98C40144406FB04F0F0BD0126E8E750
:104150008B4003EB650393FBF5F30CFB05F51A4469
:1041600010F8013F303BDFB2092FF1D9E9E70A250A
:104170000022AC46F4E72DE9F047141E05460F4631
:1041800016DC4FF02008DB0720D50026B94626E0D4
:104190000132B95C0029FBD1A242ACBF0C46A41A83
:1041A00013F0020F14BF4FF030084FF02008EAE779
:1041B0000022EEE72B68494628461B689847013ED7
:1041C000002EF7DC24EAE476A41BDFE726465FFA3C
:1041D00088F9F5E72B6828461B689847D146CA46F8
:1041E0001AF8011B0029F5D1A2465FFA88F8BAF146
:1041F000000F06DCF01B4844002CA8BF0019BDE8E6
:10420000F0872B68414628461B6898470AF1FF3A19
:10421000EDE72DE9FF470746DDE90C8A15461C4608
:1042200051B930234246ADF8003069465346FFF796
:10423000A2FF04B0BDE8F08723B10A2A2DD10029DE
:104240002BDA494200230E9A8DF80D303A3A0DF1DF
:104250000D03B1FBF5F005FB1016092E88BFB6184B
:1042600030368D4203F1FF3903F8016C17D964B180
:10427000B8F1000F16D01AF0020F13D03B682D21B1
:1042800038461B68984708F1FF385346424649466E
:104290003846FFF770FF2044CBE70024D2E7014601
:1042A0004B46D6E72D22002409F8012CA3F1020980
:1042B000EBE70846FFF78EBD2DE9F04107460E46B5
:1042C000144600254FF00A088CB033781BB92846F5
:1042D0000CB0BDE8F081252B72D17378002BF6D09D
:1042E000252B06F101026AD02D2B0ABF01230023E2
:1042F000B21C164612F8011B302915D00022304698
:1043000010F8011BA1F1300C5FFA8CFEBEF1090F11
:104310000DD966293FD00ED8632947D064291AD019
:1043200058292ED00136D0E743F00203E1E70646D4
:1043300008FB02C2E3E7752926D0782919D0732932
:10434000F0D1216822480434002908BF01463846CC
:10435000FFF711FF0BE061202146CDE90130012379
:1043600000920A22384609680434FFF752FF0544D8
:10437000D8E721466120CDE90130009200231022C8
:10438000F0E721464120F6E761202146CDE90130E2
:1043900000920023E5E7216808A8CDE9042304344E
:1043A000FFF78BFEDDE9042308A9D0E72168043478
:1043B0008DF81C1000218DF81D1007A9C7E71646BF
:1043C0003B6838461B68317898470135AAE700BF3B
:1043D0005B2401080FB407B504AA52F8041B054B6F
:1043E0006846CDE90032FFF767FF03B05DF804EBE4
:1043F00004B070470C2B01080EB403B503AA52F8A1
:10440000041B0192FFF758FF02B05DF804EB03B004
:104410007047000038B52A4C2A4D20460AF09AFA17
:1044200020460AF09CFA20460AF0A3FA20460AF039
:104430009BFA012120460AF078FA20460AF03CFA5D
:1044400020460AF055FA20460AF065FA1E4A08216D
:1044500020460AF093FA20460AF0C8FA20464FF4A4
:1044600060210AF03BFA28460121184A0AF05AFD59
:1044700028460121164A0AF05EFD28464FF4807254
:1044800001210AF009FD28464FF4806201210AF05B
:10449000F7FC6022284601210AF05DFD2846012133
:1044A0000AF006FD284601210AF00BFD28460121ED
:1044B0000AF026FD2046BDE838400AF08DBA00BF5C
:1044C0000024014000000240502C00204C240140F8
:1044D000902B0020884205DD914208DC9042A8BF65
:1044E00010467047904203DC9142A8BF114608462F
:1044F000704737B56D46046804F13003F03433F883
:10450000102C33F8201C33F8300CFFF7E3FF303366
:10451000A34225F8020BF2D1BDF80230BDF800002D
:104520001844BDF804301844BDF806301844C0F3F0
:104530008F0003B030BD000008B50D4B98420BD082
:1045400003F5806398420BD0A3F5006398420BD12A
:10455000072909DCC8B208BD012905DC0831F9E7E3
:10456000052901DC0A31F5E70AF0AEF91020F2E77F
:10457000000C0140012370B593400C461546002203
:10458000064611469BB220460AF020FE29462046E8
:10459000FFF7D2FF3368034A9B1A034AC3F34F0362
:1045A000D05470BD902B0020502C00200D4B0E4A93
:1045B000991C13600D4A11600D4A191D11600D4AB6
:1045C000991D11600C4A03F1080111600B4A03F1B7
:1045D0000A0111600A4A03F10C011160094A0E3305
:1045E00013607047902B00208C2B0020882B00201C
:1045F000842B0020802B00207C2B0020782B002097
:10460000742B0020702B0020114A124B30B553F848
:10461000213052F821401946A342A8BF2146026822
:1046200002F1C8058D4206DBA342B8BF234603F161
:10463000C804A24202DD0160002030BD8A4202DAD5
:1046400001600120F9E79A42FBDD0360F9E700BF52
:10465000902D0020882D0020012970B516D80C4B14
:1046600053F821500B4B53F82160B5420ED0401B3C
:104670000CF0C6F90446701B0CF0C2F90146204646
:104680000CF0C6FA04490CF00FFA70BD0020FCE7EC
:10469000902D0020882D00200000C842F8B5264B40
:1046A00004461D68014628460CF0BAFB00B12546B9
:1046B000224B29461C6820460CF094FB00B12C4686
:1046C0001F4D21462E6830460CF096FB98B1002114
:1046D00020460CF0A5FB60B11A4B304619680CF06F
:1046E000DBF8214606460CF09BFB00B1264634461B
:1046F0001EE0154BF1E70027204639460CF086FBFB
:10470000B0B9394630460CF08BFB00B12F602E68F3
:10471000214630460CF066FB50B90B4B3046196809
:104720000CF0B8F8214606460CF05CFB0028DED001
:1047300020462C60F8BD00BF742D00206C2D002099
:104740003C2D0020602D0020642D0020F8B505468A
:1047500084200F461646FEF7F7FF394604462846E2
:104760000CF04AFBE8B94FF0804138460CF094F861
:1047700029460CF055FBB0B1A1B2842041F01001E4
:10478000FFF702F8114C3568002128460CF03EFB7B
:1047900058B1214628460CF025FB00B925462F4686
:1047A0000BE00B4CEFE70024EDE704F1004739463E
:1047B00028460CF035FB0028F1D12046044937602B
:1047C0000CF010FB003818BF0120F8BD0000484273
:1047D0000000C8422DE9F843064628200C46FEF7A3
:1047E000BBFF2F4FDFF8BC8038602920FEF7B4FFF5
:1047F000C8F800008420FEF7A7FF4FF6FC75D7F835
:1048000000900540002148460CF00AFBE0B1002171
:1048100030680CF0FBFA244F20B3494620460CF0D8
:1048200039F822490CF040F9002104460CF0DAFA7C
:1048300000B100243C603768214638460CF0F0FA9D
:1048400040B145F0010534602946BDE8F8438420B5
:10485000FEF79ABF214638460CF0C4FA0028F2D081
:104860003C46F0E72046D8F800100CF013F80F494A
:104870000CF01AF9002104460CF0D2FA00B1002421
:104880003C603768214638460CF0ACFA10B145F070
:104890000205D8E7214638460CF0C2FADEE700BF31
:1048A0005C2D0020582D0020442D00200000604089
:1048B0002DE9F8430D46354C3549064620680CF085
:1048C000F3F829460BF0E8FF4FF076510CF0ECF8C6
:1048D00020602A20FEF740FF2E4FDFF8BC803860B2
:1048E0002B20FEF739FFC8F800008420FEF72CFFCC
:1048F0004FF6F375D7F800900540002148460CF0BC
:104900008FFAD0B1002130680CF080FA2468234F70
:1049100008B3214648460BF0BDFF002104460CF0C9
:1049200061FA00B100243C603768214638460CF03B
:1049300077FA40B145F0080534602946BDE8F843F0
:104940008420FEF721BF214638460CF04BFA0028A0
:10495000F2D03C46F0E72046D8F800100BF09CFF60
:10496000002104460CF05CFA00B100243C6037687A
:10497000214638460CF036FA10B145F00405DBE765
:10498000214638460CF04CFAE1E700BF5C2C0020D1
:1049900000007041502D0020542D0020402D00209B
:1049A000104B70B51A68066801EB0214A41A2411A2
:1049B0000546002130461C600CF032FA88B10A4BE3
:1049C0001B681B1B48BF03339B1023EAE3700CF0EA
:1049D00017F80446014630460CF022FA00B126468C
:1049E0002E6070BD582C00204C2D0020F8B50D4ACB
:1049F000054613780C4F0133DBB2322B28BF00235E
:104A00000A4E386856F8231013701C460BF042FF0C
:104A100029460BF041FF0649386046F824500CF057
:104A2000F7F8F8BD602C00202C2D0020642C00200D
:104A300000004842000000002DE9F74F0646A02084
:104A400091468846FEF780FE0446A920FEF77CFECC
:104A5000074684EAE470A0EBE4700BF0D1FFDFF8C6
:104A6000F8B10446DBF8005029460BF013FF002193
:104A700001900CF0B7F9019B08B103F10043774AAC
:104A80001946D2F800A050460CF0ACF950B12946B6
:104A900020460CF0C5F9514600283DD028460BF0C1
:104AA000FBFE0446CBF80040002F00F0CF802046EC
:104AB0000CF0D6F90546B9F1000F31D0632840F368
:104AC000C5800BF09DFF664B0646D3F8008041463B
:104AD0000CF088F9002840F0B980624B30461F681E
:104AE000614B39461C680CF07DF988B140460CF0EA
:104AF000B7F9064620460CF0B3F9AD1B45433846DE
:104B00000CF0AEF9801B95FBF0F00BF079FF04463A
:104B1000204603B0BDE8F08F28460BF0BBFEC0E78F
:104B200041463046FFF798FD504B04461E6801464B
:104B300030460CF075F9002876D1314620460BF04E
:104B4000A9FE314604464A480BF0A4FE01464848F7
:104B50000CF05EF821460BF0A7FF0646454B3046A9
:104B60001E60FFF743FF0146044630460BF092FEFD
:104B7000414980460CF036F930B94FF07E5140463D
:104B80000CF04EF900B92646632D4FDD28460BF098
:104B900037FF334B8046D3F800A051460CF022F982
:104BA000002843D12F4B4046D3F80090334B494661
:104BB0001C680CF017F998B150460CF051F980467A
:104BC00020460CF04DF9A5EB0805454348460CF08E
:104BD00047F9A0EB080095FBF0F00BF011FF04463D
:104BE000274D012F2C6023D1204626490BF05CFF76
:104BF00004462449244B18680BF056FF21460BF05D
:104C000049FE31460BF050FF19490CF001F82146DE
:104C10000BF042FE0BF038FB0DA3D3E900230BF0A1
:104C20008BFB0BF0E3FD72E7002697E70024D7E744
:104C30002720FEF789FD08B900232B601149286859
:104C40000BF032FF0F490446104BD4E700245FE716
:104C50009A9999999999B93F382D0020482D0020AB
:104C6000802D0020842D0020782D0020682D00202C
:104C70000000C842302D0020000080BF7C2D0020A5
:104C8000342D002000002041742D0020702D0020C4
:104C90002DE9F341DFF8748005462C201E460C46B2
:104CA0001746CDF80480FEF757FD01AA01463846A5
:104CB000FFF74CFD2D20FEF74FFD01AA01463046BF
:104CC000FFF744FD294601A8FFF784FD214601A80E
:104CD000FFF7EEFD089901A8FFF762FE4146019833
:104CE0000BF096FF4FF07E5104460CF099F848B94E
:104CF000002120460CF076F800B10024204602B0D6
:104D0000BDE8F0814FF07E54F8E700BF0000C842D4
:104D1000F7B51E461C4B05462C2001930C46174642
:104D2000FEF71AFD01AA01463846FFF70FFD2D20B8
:104D3000FEF712FD01AA01463046FFF707FD29469E
:104D400001A8FFF747FD214601A8FFF7B1FD08992B
:104D500001A8FFF725FE01980C4900F100400BF077
:104D600057FF4FF07E5104460CF05AF840B900212D
:104D700020460CF037F800B10024204603B0F0BD07
:104D80004FF07E54F9E700BF0000C8C20000C842DF
:104D9000024B00BF013BFCD1704700BF00127A00FC
:104DA00010B50446002240F2215102F0ACFA002274
:104DB00040F22251204602F0A6FA002240F223518E
:104DC000204602F0A0FA002240F22451204602F0D0
:104DD0009AFA002240F22551204602F094FA00226D
:104DE00040F22651204602F08EFA002240F227516E
:104DF000204602F088FA2046BDE8104000224FF419
:104E0000A56102F080BA0000002313B5054A40F204
:104E10001141CDE9002303686A465C680823A04776
:104E200002B010BD340001003222002313B5CDE9D9
:104E3000002303686A465C6840F211410823A047DA
:104E400002B010BD002313B5054A40F21141CDE96F
:104E5000002303686A465C680823A04702B010BDBF
:104E6000340101002DE9F7430026174B04461E705C
:104E70002025FFF7C9FF4FF04209FFF789FF4FF4E4
:104E8000C848236801966A4640F2114120465F688F
:104E90008DF8005008238DF80190ADF8028001359F
:104EA000B847EDB22046FFF773FFFFF7BDFFFFF7EE
:104EB0006FFF292DE5D12046FFF7C4FFFFF768FFFC
:104EC00003B0BDE8F08300BFE81C0020D0F802204A
:104ED000014B1A60704700BFB42D0020D0F80220AB
:104EE000014B1A60704700BFA42D0020D0F80220AB
:104EF000014B1A60704700BFA02D0020D0F802209F
:104F0000014B1A60704700BF9C2D0020054A138892
:104F1000013313800A22D0F8023093FBF2F3024AE5
:104F200013607047B82D0020982D0020D0F8022083
:104F3000014B1A60704700BFAC2D0020D0F8022052
:104F4000014B1A60704700BFB02D0020D0F802203E
:104F5000014B1A60704700BFA82D002003466FF474
:104F6000A46213440846072B15D8DFE803F00406B3
:104F7000080A0C0E1012FFF7A9BFFFF7AFBFFFF72B
:104F8000B5BFFFF7BBBFFFF7C1BFFFF7CFBFFFF74D
:104F9000D5BFFFF7DBBF70470161704741617047C4
:104FA000007A7047007A70470023C372704710B5CB
:104FB00004460022616008464FF4987102F0A3F99C
:104FC00000224FF43F71606802F09DF900224FF417
:104FD0009061606802F097F960680022BDE81040B7
:104FE0004FF4D07102F08FB92DE9F0410025BCB02B
:104FF0000F46F02268460F490BF0D2FF6C4614268C
:10500000A84620680BF0FCFC39460BF0F5FE08B111
:10501000D4E90185013E04F10C04F2D1414673202C
:10502000FEF7B2FB294674203CB0BDE8F041FEF724
:10503000ABBB00BF582B010810B404686468A446D9
:1050400010BC6047037E73B50446002B50D0A920E6
:10505000FEF77AFB324B00284CD10321314A2073F2
:105060001170E1221A701B782F4D8DF800300C233F
:105070008DF801308F238DF802302B7860688DF821
:105080000330F0238DF8043003686A464FF4E97169
:105090005E680523B0472B783B201033DBB2ED2B45
:1050A00008BF0D232B70FEF74FFB204BC0B21A78C0
:1050B000824215D04FF40952ADF8002000228DF83D
:1050C00002204FF0FF32019230BB30228DF80320D6
:1050D00018706A46082340F292516068FFF7ACFFEF
:1050E000236894201D6AFEF737FB01462046A84737
:1050F00002B070BD421C06D1012202212273094A6E
:105100001170D222AEE70128ADD10322082122730B
:10511000044A11707822A5E70828D9D13122D5E7B1
:10512000EE1C0020ED1C0020C02D0020BA2D002018
:105130000B7803F0010343720B78C3F3800303720F
:105140000B78C3F3001383728B78C3F3C0034376E9
:10515000704700000000000008B54B7808781B027B
:1051600003F4706318440BF07DF809A3D3E900231E
:105170000BF0E2F80BF03AFB07490BF095FCBDE8A9
:1051800008400146A120FEF70DBB00BFAFF3008031
:105190009A9999999999B93F2B121F3F0B78842BB3
:1051A00003D10121E420FEF7EFBA812B01D10021C8
:1051B000F8E770474B78323B18BF012303767047FE
:1051C0000B46B3F53F7F11460FD006DCB3F5987F51
:1051D00007D0B3F5D07F06D07047B3F5906F06D0F7
:1051E0007047FFF7A5BFFFF7B7BFFFF7D7BFFFF7C0
:1051F000E1BF000003682DE9F74F5B6B04460D46E5
:105200009847644E002800F0BE80A020FEF79CFA6C
:1052100040F2ED23984240F3B380A020FEF794FAC9
:10522000800080B207219423327842F05002002798
:105230008DF80120AA328DF8021011448DF8063045
:105240000B44ADF8040003EB1023C0B203449AB240
:1052500002EB2323AA216A4660688DF800300823F8
:105260008DF807708DF80370FFF7E6FEBD420CBFA6
:1052700004226422DFF820A14FF00F0B9AF80000FF
:10528000DFF8189100F5FC73D11801EB11238DF8AC
:1052900000304EF22103ADF8023041F62173A8210F
:1052A0008DF80100ADF80430606808238DF8072000
:1052B0006A46DFF8EC808DF806B0FFF7BDFE99F87E
:1052C00000306A468DF8003098F80030A9218DF83A
:1052D00001304DF67973ADF80230324B60680193BE
:1052E0000823FFF7A9FE304D304B297818788DF848
:1052F000061043188DF80000FF2003F5E47202EB5E
:105300001223BA216A468DF801008DF805306068D5
:105310000723ADF802B08DF80470FFF78DFE3378E7
:105320002349013333700B78224A01330B709AF80A
:105330000030287801338AF8003099F800300130C5
:10534000013389F8003098F800302870013388F86C
:10535000003013780133DBB25C2B13700DD1BE2308
:105360000B70E92389F800304D23137080233770C8
:105370008AF8007088F800702B7003B0BDE8F08FD9
:1053800040F6B8304EE73278FE21842342F03002F6
:105390004DE700BFBB2D0020BD2D0020EB1C0020E1
:1053A000BC2D00201DC7E021E91C0020ED1C0020C1
:1053B000EC1C0020EA1C0020037E10B5044643B11B
:1053C000B520FEF7D7F901462046BDE81040FFF7AB
:1053D00011BF10BD73B506467F20FEF7B5F9012851
:1053E00015BF00239C231A469E224FF08E0014BF47
:1053F0001D4660258DF804308DF80520FEF7ACF9C8
:10540000014622480BF046FA214904460BF008FDFC
:10541000002836D120460BF023FD64234FF4FA72A6
:10542000434393FBF2F303F132000BF0E9FA19491D
:105430000BF032FA3C23184C8DF800300BF036FD9F
:1054400023786A461D43C3238DF8033048F2CD23E9
:105450004FF4E8718DF80100ADF80630706808234C
:105460008DF80250FFF7E8FD0C4A217813788B4243
:1054700009D10133DBB20F2B08BF0023237002B028
:1054800070BD0748D6E71170F9E700BF0000C842B9
:105490000040034400004042BF2D0020BE2D0020EC
:1054A00000001643037E73B50446A3B148F261239E
:1054B0000093C37A63B9032560686A46036840F2C3
:1054C00032315E680223B047013DF5D10123E3721A
:1054D0002046FFF77FFF02B070BD01617047416158
:1054E0007047007A7047007A70470023C372704794
:1054F00010B504460022616008464FF4987101F02F
:1055000002FF00224FF43F71606801F0FCFE0022B0
:105510004FF49061606801F0F6FE00224FF4D07104
:10552000606801F0F0FE60680022BDE8104040F2C3
:10553000FE3101F0E8BE00002DE9F0472A4D0E468D
:105540000024AA4628680BF05BFA3146A1460746BC
:10555000D5F8088001340BF04FFC00283DD04046C0
:105560000BF04EFA314680460BF050FC002834D048
:105570000AEBC909D9F804000BF042FA05460AEB18
:10558000C40460680BF03CFA29460BF083F93946F5
:10559000044630460BF07EF93946064640460BF08D
:1055A00079F9014630460BF033FB014620460BF0FB
:1055B0007BFA29460BF070F94FF07C510BF06CF937
:1055C0000BF04EFC044621467320FEF7DDF8214621
:1055D000BDE8F0477420FEF7D7B8072C05F10805A1
:1055E000B0D1FF24EFE700BF902C0108037E73B514
:1055F0000446002B50D0A920FEF7A6F8324B002815
:105600004CD10321314A20731170E1221A701B78AA
:105610002F4D8DF800300C238DF801308F238DF83D
:1056200002302B7860688DF80330F0238DF8043059
:1056300003686A464FF4E9715E680523B0472B782A
:105640003B201033DBB2ED2B08BF0D232B70FEF790
:105650007BF8204BC0B21A78824215D04FF4095221
:10566000ADF8002000228DF802204FF0FF320192A9
:1056700030BB30228DF8032018706A46082340F2B0
:1056800092516068FFF7D8FC236894201D6AFEF7EA
:1056900063F801462046A84702B070BD421C06D1FF
:1056A000012202212273094A1170D222AEE7012899
:1056B000ADD1032208212273044A11707822A5E794
:1056C0000828D9D13122D5E7F41C0020F31C002092
:1056D000CE2D0020C82D00200B7803F0010343726B
:1056E0000B78C3F3800303720B78C3F30013837248
:1056F0008B78C3F3C00343767047000000000000BE
:1057000008B54B7808781B0203F4706318440AF05C
:10571000A9FD07A3D3E900230AF00EFE0BF066F8FB
:10572000BDE808400146A120FEF73CB8AFF3008079
:105730009A9999999999B93F10B50B780C46842B91
:105740000BD10121E420FEF71FF86178E520BDE8C8
:10575000104001F00101FEF717B8812BF5D10021AF
:10576000F0E74B78323B18BF01230376704708B54A
:10577000B1F900000BF044F94FF074510BF094F9BB
:10578000BDE808400146A320FEF70CB80978BB200D
:105790008B1E59425941FDF7F7BF0B46B3F53F7FCA
:1057A000114615D008DCB3F5987F0DD0B3F5D07F46
:1057B0000CD0B62B10D0704740F2FE3293420DD081
:1057C000B3F5906F06D07047FFF786BFFFF798BF1D
:1057D000FFF7B2BFFFF7C5BFFFF7C9BFFFF7D6BFDF
:1057E00003682DE9F74F5B6B04460D469847644EFE
:1057F000002800F0BE80A020FDF7A6FF40F2ED23B8
:10580000984240F3B380A020FDF79EFF800080B255
:1058100007219423327842F0500200278DF80120AE
:10582000AA328DF8021011448DF806300B44ADF801
:10583000040003EB1023C0B203449AB202EB23230B
:10584000AA216A4660688DF8003008238DF8077039
:105850008DF80370FFF7F0FBBD420CBF04226422F9
:10586000DFF820A14FF00F0B9AF80000DFF8189135
:1058700000F5FC73D11801EB11238DF800304EF2C6
:105880002103ADF8023041F62173A8218DF8010003
:10589000ADF80430606808238DF807206A46DFF809
:1058A000EC808DF806B0FFF7C7FB99F800306A4628
:1058B0008DF8003098F80030A9218DF801304DF6B0
:1058C0007973ADF80230324B606801930823FFF71B
:1058D000B3FB304D304B297818788DF806104318FB
:1058E0008DF80000FF2003F5E47202EB1223BA21C9
:1058F0006A468DF801008DF8053060680723ADF821
:1059000002B08DF80470FFF797FB33782349013319
:1059100033700B78224A01330B709AF800302878E4
:1059200001338AF8003099F800300130013389F8EA
:10593000003098F800302870013388F80030137870
:105940000133DBB25C2B13700DD1BE230B70E92346
:1059500089F800304D231370802337708AF8007067
:1059600088F800702B7003B0BDE8F08F40F6B830B7
:105970004EE73278FE21842342F030024DE700BF2B
:10598000C92D0020CB2D0020F11C0020CA2D0020A5
:105990001DC7E021EF1C0020F31C0020F21C00209A
:1059A000F01C0020037E10B5044643B1B520FDF77E
:1059B000E1FE01462046BDE81040FFF711BF10BDD3
:1059C0002DE9F3470746AA20FDF7C6FE0446AB20A3
:1059D000FDF7C2FE4D49054620460AF05DFF002155
:1059E00004460BF0FFF900287ED1204648490BF011
:1059F00017FA00287AD120460BF058FAC6B243496C
:105A000028460AF049FF002104460BF0EBF9002874
:105A10006ED120463E490BF003FA00286AD1204699
:105A20000BF044FAC5B27F20FDF78EFE01284FF03F
:105A30000004DFF8E08061D13D20FDF78DFE36499E
:105A40000BF0E6F882468A20FDF786FE2146814665
:105A50000BF0C8F900284FD0304909F100400BF095
:105A600023F851460BF0D4F82D490BF01DF8D8F867
:105A700000100AF011FF4FF08F4104460BF0C6F9F9
:105A800028B120464FF08F410AF004FF044620461B
:105A9000C8F800400BF00AFA6023ADF80400214C6E
:105AA0004FF4E8712278786813438DF80230C323ED
:105AB0008DF8033049F2CD636A46ADF8063008230D
:105AC0008DF800608DF80150FFF7B6FA164A21787C
:105AD00013788B4218D10133DBB20F2B08BF0023A0
:105AE000237002B0BDE8F087002688E7CF2686E75E
:105AF000002598E7CF2596E72046B2E70023C8F8AF
:105B00000040ADF80430CAE71170EAE700004042F7
:105B100000004F43C42D002000007C425304E937AD
:105B200000247449CD2D0020CC2D0020037E73B5B8
:105B30000446A3B148F261230093C37A63B90325F5
:105B400060686A46036840F232315E680223B047FB
:105B5000013DF5D10123E3722046FFF731FF02B08A
:105B600070BD4069704708B5B0F908000AF048FFF9
:105B700008BD08B5B0F90C000AF042FF08BD0000EE
:105B8000014B1878704700BF602E00200000000015
:105B900038B51D48FEF7ADFC05461C48FEF7A9FCCC
:105BA000044628460AF05EFB13A3D3E900230AF05B
:105BB000C3FB13A3D3E900230AF008FA0AF016FE88
:105BC000054620460AF04EFB0BA3D3E900230AF05A
:105BD000B3FB0BA3D3E900230AF0F8F90AF006FEA1
:105BE0000446014628460BF01BF900B12C4620461E
:105BF00038BD00BFAFF300801213371BE91495BF07
:105C0000988F7B2556484C40782B0020742B002021
:105C100070B506460D461A4C0721204609F006F9D4
:105C200020460721174A09F07DF932462046072110
:105C300009F081F9AAB22046072109F08CF9204623
:105C4000072109F054F92046072109F031F92046CF
:105C50000022072109F020F920460022072109F03F
:105C60000FF920464FF48052072109F0FDF8204635
:105C7000072109F045F9BDE87040034809F080BFED
:105C800000000240044400400044004038B505468E
:105C9000194C0621204609F0C9F820460621174A6A
:105CA00009F040F920460621154A09F044F9AAB244
:105CB0002046062109F04FF92046062109F00EF989
:105CC0002046062109F0F4F820460022062109F0BA
:105CD000E3F820460022062109F0D2F820460022EF
:105CE000062109F0C1F82046062109F009F9BDE8AE
:105CF0003840044809F03FBF00000240044400401F
:105D0000CF2D00200044004038B504463420FDF774
:105D10001BFD00B20228E0811ED1344D344A2B789D
:105D2000002B33D141F65831B4F90C00884201DD23
:105D30000121117011782F4A8B4249D00123137031
:105D40002D4B93F900002D4B10B9187801301870C5
:105D50001878042823D1E181B4F90E30012B08D141
:105D60002748FBF7C5FD2748FBF7C2FD2648FBF790
:105D7000BFFDB4F90E30C3B92148FBF7B9FD214886
:105D8000FBF7B2FD2048FBF7AFFD0EE0012BD1D1B0
:105D9000B4F90C10B1F5FA6FCCDA0021C9E7052887
:105DA00003D12970002119701170B4F90E30032B42
:105DB0000DD1A920FDF7C8FC013011480CD1FBF72B
:105DC00097FD1048FBF790FD0F48FBF78DFD38BDA0
:105DD000E38100231370BFE7FBF78AFD0948FBF757
:105DE00087FD0948FBF784FDF1E700BF5D2E002029
:105DF0005C2E00205F2E00205E2E00205B2E0020F7
:105E0000D82A0020E82A0020E02A00200000000014
:105E10002DE9F84F054612200F46FDF795FC8C4BF7
:105E2000C4B21B78012B40F0B9802846FFF76CFF05
:105E3000384688490AF038FE87490AF0E9FE0BF037
:105E40000FF8864EDFF8188296F900A0A8F8000037
:105E500050460AF0D5FD39460AF026FE0AF014FA3B
:105E600079A3D3E900230AF067FA0AF0BFFC7D4961
:105E700007460AF019FE78490AF0CAFE0AF0F0FF58
:105E8000794BDFF8E8911A782862A9F80000D2B1BE
:105E9000BAF1000F1BDD2420FDF75EFC834696F966
:105EA00000000AF0ADFD7249824658460AF0FCFD3A
:105EB000014650460AF0EEFC0AF0D2FF40B200283C
:105EC000694B2CDB307096F90020632A29DDB5F987
:105ED0000E30002B3CD1002138460AF083FF002809
:105EE00036D0B9F900000AF0BDF90022614B0AF082
:105EF00023FA0AF033FCA9F80000B8F900000AF010
:105F0000B1F900225B4B0AF017FA0AF027FCA8F857
:105F10000000032C2AD8DFE804F0212624300022D8
:105F200032701B78002BD2D12420FDF715FC82465D
:105F300096F900000AF064FD51460AF0ADFC0AF043
:105F40008FFF40B26428CABF642330703370BEE74D
:105F5000032C0BD8DFE804F00207050C2B6A002B9A
:105F600004DA3F4B00E0414B00221A80BDE8F88F75
:105F7000384641490AF054FF18B90023A8F8003008
:105F8000F4E738460AF06CFF41F2171332385843F1
:105F9000322390FBF3F0A8F80000E7E7022B1ED1B4
:105FA000304938460AF080FD2B490AF031FE0AF0EC
:105FB00057FF2E4A03B2138013EB8303284948BFCF
:105FC00003339B1028620B800CB90028C8E7012C12
:105FD00002D100231380C9E7022CC7D1C1E7032BEC
:105FE000C4D1204938460AF05FFD1B490AF010FE73
:105FF0000AF036FF1D4A03B2138013EB83032862B5
:1060000048BF0333164D9B102B80032CAED801A341
:1060100053F824F0CB5F0008675F0008635F000857
:1060200025600008384614490AF0FAFE08B92880AD
:106030009CE738460AF014FF41F2171332385843F0
:10604000322390FBF3F0F2E77B14AE47E17A843F12
:106050006B2E002000B888450000C8425E2E00204C
:10606000642E002000C05A455F2E0020622E0020C2
:106070000000A0400000E03F0000484210B57F2033
:10608000FDF762FB08B902F0A9FF7F20FDF75CFB7A
:10609000012842D12148FBF70DFC0146BC20FDF749
:1060A00073FB1F48FBF706FC0146BD20FDF76CFBA8
:1060B0001C48FBF7FFFB0146BE20FDF765FB1948B6
:1060C000FBF7F8FB04461648FBF7F4FB84F00103EA
:1060D00080F001046400114844EA8304FBF7EAFB02
:1060E00064B280F0010044EA00035BB20E4C062B60
:1060F000237003D10021C120FDF746FB2378052B37
:1061000003D10121C120FDF73FFB3520FDF71CFB2A
:10611000BDE8104080B202F061BF10BDD02A00205F
:10612000C82A0020C02A0020662E0020034B1B78BE
:10613000012B01D1FFF7A2BF704700BF6B2E0020DB
:1061400000220B4870B5134605468C1E944209DCAC
:10615000294411F8012C285D40EA0220C31A584254
:10616000584170BD10F8016B013233449BB2EDE72A
:10617000CF2D0020002070B5084C034622468D1E0E
:10618000854205DC53550A441B0A02F8013C70BDE8
:1061900014F8016B013033449BB2F1E72722002051
:1061A000F8B5B64D04462B780E2B3ED8DFE813F039
:1061B0000F0016003B003E007600BB00BD00DC0077
:1061C000DE000A0180018C01A501A701D101642034
:1061D000FFF75CFDAA48FBF78BFB1EE0A94CA84823
:1061E000FBF782FB23787BB902220721A64808F03F
:1061F00032FE90B107210222A34808F027FE502169
:10620000A248FFF705FD08E05021A148FFF700FD77
:10621000A04B5B7823B9012323702B78013303E073
:106220002378013BF8E703232B70F8BD6421FFF7C7
:1062300087FF984E984F38B90021B1206181A18124
:106240003970FDF7A1FA23E0022206218E4808F0FA
:1062500002FE0028F0D0022206218B4808F0F6FD4D
:1062600001233B70B6F85230053B03EBD3735B1050
:10627000238196F92A000AF0C3FB606196F9560063
:106280000AF0BEFBF388A0616381B6F81F30A381DA
:10629000002386F8623086F86330BEE77F4EA22086
:1062A000B6F90010FDF770FA6189A289774B0A44AC
:1062B000712112B292FBF1F279491A70B1F9002002
:1062C0000978880083F84B0090115242C2F30722EC
:1062D0009A711A7332884942120ADA7683F82120B9
:1062E000782283F83F20EC2283F840206C2283F848
:1062F00041206B22C9B25971D972317883F84C00B0
:10630000997683F820102046502183F84220FFF729
:1063100031FF644A1388642B8EBF002301339BB284
:106320001380002380E7782052E7564C5448FBF74F
:10633000DBFA2378052B0ED902220721524808F0F8
:106340008AFD00283FF469AF072102224E4808F079
:106350007DFD642154E76421534801FB0300FFF7EE
:1063600057FC2378013357E708235DE77821FFF7CF
:10637000E7FE484E484F00283FF45EAF0222062158
:10638000414808F068FD00283FF456AF022206217C
:106390003D4808F05BFD01233B70B6F86430053BD7
:1063A00003EBD3735B10238196F914000AF028FBEA
:1063B0006061B6F856000AF023FBF388A0616381A0
:1063C000F38C64E7354EA220B6F90010FDF7DCF936
:1063D000334A2E4B11785278307859719A71D972AC
:1063E0001A733188B6F90020266A090A002E9877B8
:1063F000D97738DD02EBD27252101A77C2F3072236
:106400009876D9765A77752183F84A10122183F845
:106410004B106021402283F84C10252183F848203E
:10642000042283F84D10522183F8492083F84F202D
:10643000892283F84E101D4983F8562083F858208E
:106440000A7820460132D2B20A70D20748BF93F8C8
:106450005E204FF0640144BF013283F85E20FFF7F5
:1064600089FE0523E0E6CED002EBD27252109A7676
:10647000C2F3072218775977DA76C4E76A2E00202C
:10648000B82A00209022002000000240272200208D
:10649000D52D0108CF2D0020602E0020622E002077
:1064A000642E0020682E00206B1F0020672E002025
:1064B0007F20FDF749F901281CBF00223D4B4FF01A
:1064C0008C0018BF1A7083E63A4C3B48FBF70CFA75
:1064D0002378062B0ED902220721384808F0BBFC8E
:1064E00000283FF49AAE07210222344808F0AEFC9F
:1064F000692185E6692132482FE70D2394E68C2136
:10650000FFF71EFE2F4E08B3022206212B4808F08B
:10651000A2FCD8B102220621284808F097FC0123EA
:106520003370294EB6F875305B10238196F914004C
:106530000AF066FA6061B6F819000AF061FA738928
:10654000A0616381B6F82B30A38166E60023337027
:1065500063E61E4EA220B6F90010FDF715F91C4B9C
:106560002046B3F900201B4B5242D1B2C2F307229E
:106570009A711A73B6F900205971DA77121283F8FA
:1065800020209A7ED97283F82520DA7E692183F84B
:106590002620782283F84F20EC2283F85020102206
:1065A00083F85120272283F85220FFF7E3FD0A23C6
:1065B0003AE600BF90220020B82A002000000240E6
:1065C000F51C0020602E0020CF2D0020622E002020
:1065D000642E00202722002038B5037F04468B421A
:1065E0000D460AD051B15F20FDF7AEF808B9FCF7AF
:1065F0004FFEFCF783FE0123237738BD4FF0804028
:1066000009F0FEF82577F8E708B50121FFF7E4FF68
:106610000B4B1A78042A04D805221A700022094B61
:106620001A7000230849094A11F8010B0133642B41
:1066300002F8010BF8D10222054B1A7008BD00BF09
:106640006A2E002090220020082D01082722002019
:106650006B2E002008B50121FFF7BEFF064B1A780C
:10666000042A04D900221A700122044B1A70012254
:10667000034B1A7008BD00BF6A2E00209022002034
:106680006B2E0020012108B5FFF7A6FF0A4B0B492E
:106690001A78092A9CBF0A221A700022084B1A7025
:1066A0006923084A11F8010B013B02F8010BF9D1EB
:1066B0000322054B1A7008BD6A2E00206C2D0108BC
:1066C00090220020272200206B2E00200021FFF7BF
:1066D00083BF01817047000008B508460AF0C0FB7F
:1066E000A622A0F10F035343412293FBF2F3024A87
:1066F0005833138008BD00BF6C2E0020B420FDF776
:1067000039B810B5044600226160084640F25311C2
:1067100000F0F9FD60680022BDE8104040F2F3117E
:1067200000F0F1BD40F25313994210B5044610D168
:10673000B2F80100A0F5B0700AF062F94FF076519E
:106740000AF0B2F90146A120FDF72CF80123E3720B
:1067500003E040F2F3139942F8D010BD10B504469F
:10676000C07A10B90348FBF7A5F800232073E37241
:1067700010BD00BF782A002008B50248FBF79AF840
:1067800008BD00BF782A002007B540F2EE22038939
:1067900040F21631934238BF13460522ADF800206F
:1067A00041F65832934228BF13460A229B01B3FB9D
:1067B000F2F3ADF8023000236A46019340680823E3
:1067C000FEF73AFC03B05DF804FB000007B5154A7C
:1067D000154913788DF80030144B1B888DF8013063
:1067E000C523ADF80230002301930B780133DBB2EF
:1067F000162B28BF00230B705BB9112313700823DD
:106800006A4640F229314068FEF716FC03B05DF895
:1068100004FB082B01D18623F0E70F2BEFD1D923FE
:10682000ECE700BF702E0020712E00206C2E00209F
:10683000462313B5ADF80430002340688DF80630C8
:10684000036840F23B415C6801AA0323A04702B001
:1068500010BD000007B50D4A40F24551138840684D
:1068600001339BB2138000228DF801301B0A8DF892
:106870000230074B8DF800208DF8032001936A4603
:106880000823FEF7D9FB03B05DF804FB6E2E002051
:106890007E10001807B5D1B101291AD001310CBF03
:1068A000072308238DF801304FF6FF738122ADF8DE
:1068B0000230094B8DF8002001936A46082340F20C
:1068C0003F414068FEF7B8FB03B05DF804FB0623C8
:1068D000E8E70523E6E700BF0080FFFF037B10B574
:1068E0000446BBB1FFF750FF2046FFF76FFF20467D
:1068F000FFF7B0FF2046FFF79BFF0320FCF73AFFAE
:1069000040B1A920FCF720FF41B22046BDE810406D
:10691000FFF7C0BF10BD018170477047B420FCF77E
:1069200029BF000008B5084B186899889B792BB1DE
:1069300008F08BFCB0FA80F0400908BD08F085FC37
:10694000003818BF0120F8E7782A002030B51F4A28
:106950001F4B89B0CDE901231E491F4B1F4CCDE9C8
:1069600003131F4B1F4D05930023ADF819302378F7
:106970004FF4B06163F07F038DF818302B684068E6
:1069800020336B4413F81C2C8DF81B2013F8182CA3
:106990008DF81C2013F8142C8DF81D2013F8102CE2
:1069A00013F80C3C8DF81E208DF81F3006AA082322
:1069B000FEF742FB2B68013303F003032B602378BF
:1069C000013303F00F03237009B030BD0F287F2877
:1069D0001E1000107056F0560C48A748722E00206A
:1069E00046902890742E002037B540F2EE2203899D
:1069F0000025934238BF134641F65832934228BFD0
:106A00001346044603819A009B09CDE900554FF4D3
:106A100020718DF803308DF8042008236A46406801
:106A2000FEF70AFB08236A464FF4227160688DF86E
:106A300003508DF80450FEF7FFFA03B030BD00009C
:106A400008B5034BB3F9000009F0DAFF08BD00BF39
:106A5000842E002008B5034BB3F9000009F0D0FFE5
:106A600008BD00BF862E002008B5024B188809F02B
:106A7000C3FF08BD8A2E002008B5034BB3F9000000
:106A800009F0BEFF08BD00BF882E0020064B1A7813
:106A9000064B0AB91A7001E0012AFBD0044A1268B9
:106AA00002B91A7018787047802E0020812E0020BD
:106AB0007C2E002010B504460022616008464FF489
:106AC000C87100F020FC00224FF4CD71606800F026
:106AD0001AFC00224FF4D271606800F014FC606868
