:020000040800F2
:1010000000500020D1FA0008CDFA0008CBFA000801
:10101000CBFA0008CBFA0008CBFA00080000000069
:10102000000000000000000000000000CDFA0008F1
:10103000CDFA000800000000CDFA0008CDFA000843
:10104000CBFA0008CBFA0008CBFA000869270008A1
:10105000CBFA0008CBFA0008CBFA0008CBFA00085C
:10106000CBFA0008CBFA0008CBFA0008CBFA00084C
:10107000CBFA0008CBFA0008CBFA0008CBFA00083C
:10108000CBFA0008CBFA0008CBFA0008418400082C
:101090002184000831840008CBFA0008CBFA00084C
:1010A000CBFA0008CBFA0008CBFA0008CBFA00080C
:1010B000CBFA0008CBFA000819270008CBFA000881
:1010C000CBFA0008CBFA0008CBFA0008CBFA0008EC
:1010D000CBFA0008CBFA0008CBFA0008CBFA0008DC
:1010E00025270008CBFA0008CBFA0008CBFA000845
:1010F000CBFA0008CBFA0008CBFA0008CBFA0008BC
:10110000CBFA0008CBFA0008CBFA0008CBFA0008AB
:10111000CBFA0008CBFA0008CBFA0008CBFA00089B
:10112000CBFA0008CBFA0008CBFA0008CBFA00088B
:10113000CBFA0008CBFA0008CBFA00086D8400084F
:101140004D8400085D840008CBFA0008CBFA000843
:1011500010B404466468084611461A46234610BC7B
:101160001847836818477047704770477047704743
:1011700041607047704770477047704770477047CD
:1011800070470020704700207047000000487047FB
:101190000000484200207047416070477047704728
:1011A0007047704770470020704741607047704734
:1011B0007047704770477047002070477047416024
:1011C00070470020704770477047704770477047FE
:1011D000002070477047416070477047002070479B
:1011E00070474160704770470846704770477047C6
:1011F0007047704700487047003C1C46416070478C
:10120000704770477047704770474160704770473C
:101210000020704700207047002070470020704772
:101220000020704770477047104B10B5186803686E
:101230001B6898470E4B186803681B6898470D4B4E
:10124000186803681B6898470B4B186803681B688D
:1012500098470A4B186803681B689847BDE8104018
:10126000074B186803689B68184700BF18000020E8
:10127000140000200C0000201C00002010000020A2
:101280000400002010B5174C206803689B6998473C
:10129000052002F0F9F92346062818D8DFE800F007
:1012A000040A0C0E1012200000210F4A11700F4A80
:1012B0001A600CE00E4AFBE70E4AF9E70E4AF7E720
:1012C0000E4AF5E70E4A0F4B226001221A700E4CAF
:1012D000206806F067F86068BDE8104006F062B864
:1012E0000A4AE5E70C0000200C270020882A00208D
:1012F000FC2A0020A42A002010270020F827002024
:10130000B02A00201829002028290020F0270020DA
:1013100010B5114C20680368DB699847042002F07F
:10132000B3F92346042806D8DFE800F003100E12B4
:1013300014000A4A1A600A4C206806F033F8606804
:10134000BDE8104006F02EB8064AF3E7064AF1E77A
:10135000064AEFE7064AEDE71C0000209C2A002021
:1013600028290020682B00207C2A0020902A0020B9
:10137000602B002010B5134C206803685B68984709
:10138000062002F081F901382346052817D8DFE846
:1013900000F00310100E12140B4A0C4C1A60206857
:1013A00006F000F86068BDE8104005F0FBBF084A91
:1013B000F3E7084AF1E7084AEFE7084AEDE7084A89
:1013C000EBE700BF00000020D82A002028290020D9
:1013D000C82A00206C2900202C2A0020A0270020E9
:1013E000D02A002010B50B4C206803685B68984732
:1013F000472002F049F9012814BF074B074B23602F
:10140000074C206805F0CEFF6068BDE8104005F08D
:10141000C9BF00BF04000020302B0020502B00204B
:1014200028290020022010B502F02EF901380D4BBA
:10143000032803D8DFE800F00D0F11130A4A0B4C04
:101440001A60206805F0AEFF6068BDE8104005F046
:10145000A9BF074AF3E7074AF1E7074AEFE7074A58
:10146000EDE700BF10000020982700202829002069
:101470000C280020EC260020F82600200028002060
:1014800010B5012002F000F909280FD8DFE800F0BC
:10149000171C2B0E05091F222528144B144A1A600D
:1014A00004E0124A134B136000229A72124C206817
:1014B00005F078FF6068BDE8104005F073BF0B4A87
:1014C0000C4B13600122F0E7084B0C4AE7E7074B8F
:1014D0000B4AE4E7054B0B4AE1E7044B0A4ADEE717
:1014E000024B0A4ADBE7014B094AD8E71400002007
:1014F0008C2700202C270020282900203C270020B2
:1015000074270020F42900201827002058270020E5
:1015100038290020036810B59B6898470FF03CFC01
:1015200000240146942002F0CFF821468F2002F0DB
:10153000D9F82146902002F0D5F82146922002F0F9
:10154000D1F82146BDE81040932002F0CBB800004E
:1015500010B51D4C206803689B6A9847002002F074
:1015600093F8234609280FD8DFE800F005080A0E93
:10157000271C2117292B154A1A6005E0144AFBE79E
:101580001448206005F092F8134C206805F00AFF1B
:101590006068BDE8104005F005BF0E48206005F00A
:1015A0009DF8F1E70B48206005F05CF8ECE70B4A8A
:1015B0001A6001220A4B1A70E6E70A4ADCE70A4A77
:1015C000F6E70A4AD8E700BF1800002004270020E9
:1015D000042B0020D02900202829002048290020A1
:1015E00018290020202B00200C2A0020A0290020F0
:1015F00010B5144C206803681B6998474F2002F00F
:1016000043F82346032805D8DFE800F0020D0F1643
:101610000D4A1A600D4C206805F0C4FE6068BDE8F4
:10162000104005F0BFBE0A4AF3E70A4B0A481968A2
:1016300020600BF09BF9EDE7084A094B226001227C
:101640001A70E7E708000020E4260020282900207F
:101650001C290020742A00203C2B0020682A00202E
:1016600018290020AD2002F025B800002DE9F74F21
:10167000082002F009F8484C54F820100920019184
:1016800002F002F854F820600A2001F0FDFF54F83F
:1016900020500B2001F0F8FF54F820B00C2001F08E
:1016A000F3FF54F820200D20009201F0EDFF54F8D4
:1016B00020A00E2001F0E8FF54F82080102001F057
:1016C000E3FF54F82090112001F0DEFF334B54F873
:1016D0002070186801990368DB6A9847304B3146DF
:1016E00018680368DB6B98472E4B009A1868114600
:1016F0000368DB6998472C4B5946186803681B6AD6
:1017000098472A4B5146186803681B699847284B2D
:101710004946186803685B699847264B3146186844
:1017200003689B6998474146234809F097FF234B7C
:101730003946186803685B699847072001F0A4FFE1
:10174000012802D1284603F033FB072001F09CFF5B
:10175000022802D1284609F07DF9072001F094FF04
:10176000032802D1284609F053FB072001F08CFF23
:10177000042802D128460CF0DFFF002240F201616C
:10178000606805F0F2FD002240F20161206803B0BC
:10179000BDE8F04F05F0E9BD282900201800002021
:1017A000140000200C0000201C000020000000207D
:1017B0000400002010000020F82A0020080000206B
:1017C00038B540F2DF73984204460D4606D10A460A
:1017D0000146314809F04AFF002038BD072001F0DA
:1017E00053FF012803D12946204603F0BFFB072001
:1017F00001F04AFF022803D12946204609F06AF980
:10180000072001F041FF032803D12946204609F0B3
:101810002FFB072001F038FF042803D1294620467A
:101820000CF0ACFF1D4B2A46186821460368DB68A4
:1018300098471B4B2A461868214603681B6998473E
:10184000184B2A461868214603681B699847164BAF
:101850002A461868214603681B699847134B2A4695
:101860001868214603681B689847114B2A46186878
:10187000214603681B6898470E4B2A461868214684
:1018800003681B6998470C4B2A4618682146036871
:101890001B689847A0E700BFF82A00201800002026
:1018A000140000200C0000201C000020000000207C
:1018B00004000020100000200800002008B50346A6
:1018C00099889B7900682BB10DF055FCB0FA80F037
:1018D000400908BD0DF04FFC003818BF0120F8E7A3
:1018E00008B50248FFF7EAFF08BD00BF642D0020DD
:1018F000818800680DF03ABC818800680DF038BC22
:101900002DE9F843A74BA84D998818680DF036FCCF
:101910000DF03EFCA54BA64E186801F081FE0FF0BD
:101920000BF8A4490FF010F90146D62001F0DAFEB9
:1019300006F0F8FA01467E2001F0C6FE7C2001F098
:10194000A3FE29680446306806F058FF072001F01E
:101950009BFE08B107F0F2F93068974F03689B6A65
:1019600098470146AB2001F0AFFE30680368DB6AA0
:1019700098470146A92001F0B5FE07F013FA386830
:1019800003689B689847306803689B6898478B4B4F
:10199000186803689B689847894B18680368DB6878
:1019A0009847884B186803681B699847286803683C
:1019B0009B689847844B186803689B699847834BDA
:1019C000186805F03DFD0CF0BDFE814B1B780BB196
:1019D0000BF03EFDA22001F057FE7E4D0028686A04
:1019E00080F2A980FFF784FF012C286940F0A680CF
:1019F000FFF77EFF3868DFF808820368DFF804929B
:101A00009B6998470146A32001F06CFE3868036883
:101A10005B6998470146A42001F064FE38680368BA
:101A20005B6A98470EF088FF0146B82001F05AFE25
:101A300038680368DB6998470146862001F052FE4A
:101A4000306803685B6B98470146B72001F03CFEA5
:101A5000614BA620196801F037FE604B1B78012B03
:101A600004D0042B02D098F8003023B1D9F800003C
:101A700003689B689847D9F80000594F0368397884
:101A80005B699847064600285BD0012C1EBF0122E7
:101A9000544B1A70012388F80030A86A524B9842C0
:101AA00005D0FFF70BFF0146CF2001F00DFE0BF034
:101AB00085FC0BF09BFC042C01D0012C66D1A320EB
:101AC00001F0EAFD0646D22001F0E6FD014630466F
:101AD0000FF042F9002848D0A32001F0DDFD0646B2
:101AE000722001F0D9FD31460FF018F900283ED0E0
:101AF000A86BFFF7FDFE042C01D0012C49D1E86B47
:101B0000FFF7F6FE002001F0BFFD092848D1012CA7
:101B100046D1A22001F0B8FD344B354C1A68824200
:101B20003BD005221860226032480CF0D7FD2368B4
:101B3000013B236034E0FFF7DFFE55E7FFF7DCFEF3
:101B400058E798F800303BB101467D2001F0BCFD1C
:101B5000244B88F800601E70D9F8000039780368BB
:101B60009B699847244B187097E7D220B5E77220FD
:101B700001F092FD21490EF029FE31460FF0ECF8FC
:101B80000028B8D0A86BFFF7B7FEB4E7A86BFFF743
:101B9000B3FEE86BFFF7B0FEB4E72368002BC3DCAD
:101BA000BDE8F883D42C002010000020702B00200A
:101BB0001400002000002041180000200C0000202C
:101BC000000000200400002008000020AC2A0020B3
:101BD0001829002074310020B02F0020682900202F
:101BE0009A2A00200C2700200C2D00207C2B00209E
:101BF000782B0020A02900204C2B00200000A040C2
:101C0000342900201C0000202DE9F74F9A2001F014
:101C10003BFD80467C2001F037FD0446A22001F008
:101C200033FD07460DF08EFC06F048F9B54BDFF8A2
:101C30000C93186803685B6898477C2001F024FDCA
:101C40000128054640F0D5800FFA88F888EAE87048
:101C5000A0EBE87080B206F09FFF002106460FF06F
:101C60005DF898B1002001F00FFD04280ED021206E
:101C700001F00AFD002840F0B680B8F1000FB8BFAF
:101C80004FF0FF35BD4218BF06F1004638460EF052
:101C900053FE31460EF0A4FE0546D9F80000036855
:101CA0005B689847D9F8000029460368964E1B697F
:101CB0009847A12001F0E8FC0546302001F0E4FC43
:101CC0008542306A80F29980FFF712FED9F8000051
:101CD0008E4F03688E4D1B6A98470FF05DF80FFA20
:101CE00080F841469A2001F0EFFC082001F0CCFC7E
:101CF00057F8200006F07EFC012C01D0042C08D1FE
:101D0000286888EAE8710368A1EBE8719B6989B2E9
:101D10009847D5F800A0A320DAF80030D3F81CB01B
:101D200001F0BAFC01465046D847286803685B6852
:101D30009847784B18680368DB689847764B1868B3
:101D400003685B689847042C5AD1744B1868036881
:101D50005B689847404606F0CFFD82469D2001F023
:101D600093FC8046162001F08FFC8045CCBF4FF0DD
:101D700040084FF00008372001F08EFC51460EF06D
:101D8000D7FF002814BF0020042048EA00082720BD
:101D900001F082FC51460EF0DFFF002814BF002046
:101DA000082040EA0808982001F06EFC82464E2088
:101DB00001F06AFC824539DA002C14BF4FF400733D
:101DC000002343EA080841467F2001F07DFCDFF84C
:101DD00070B1042C00F28980DFE814F02A00BD0104
:101DE000BE008B01A601B8F1000FA8BF4FF0FF3570
:101DF00048E706F08BFF002554E7FFF77DFD65E718
:101E0000052001F041FC032804D1444B1868036805
:101E10005B689847012C9DD1D52001F035FC411C11
:101E200001F00F01D52001F04FFC93E70023C8E734
:101E30004FF00008DFF80C91DFF80CA1384889F862
:101E400000808AF80080FFF757FDB069FFF754FD66
:101E50004146A22001F038FC286803685B69984776
:101E6000304A3149138881F8008000919046002B58
:101E70006CD12E48FFF740FDF069FFF73DFD2C487F
:101E8000FFF73AFD9D2001F0FFFB0190162001F0C5
:101E9000FBFB019B834216DA286803689B6B98471B
:101EA00088B1286803685B6B984760B10124009B88
:101EB0001C701923A8F800300DF044FB89F800408D
:101EC00002241C4B18601C4B1B7853B11923A8F833
:101ED00000300DF037FB174B0224186001238AF8FD
:101EE000003021467C2001F0EFFBF068FFF704FD95
:101EF0000022DBF80000114603682546DB6898479E
:101F0000A1E000BF1C00002074310020282900201F
:101F10001400002004000020100000200C0000200D
:101F2000CC2C002020000020382B0020042D002085
:101F3000442D0020742B00200C27002018000020C6
:101F4000080000209427002044290020013B9BB278
:101F50001380002B96D18CE7914B1A789A46002A71
:101F600040F09C80D9F800208E4B9A4202D08E48D7
:101F7000FFF7BEFCF069FFF7BBFCB069FFF7B8FCE8
:101F80008A4A13889146002B40F095808848FFF7D5
:101F9000AFFCB8F1000F0ED1864B1A78002A00F082
:101FA000918083F80080192341468120A9F80030F0
:101FB000012401F089FB804B1B7823B19AF8003093
:101FC000002B08BF00247D4B1B78002B40F088803D
:101FD000022C11D10DF0B6FA0546152001F054FB84
:101FE000774B1B6803449D4206D97148FFF784FC78
:101FF0000A2005F069FF032421467C2001F064FBE0
:10200000012C7FF472AF502001F03EFB0128054601
:102010007FF46BAFF068FFF76BFCDBF800006949F9
:1020200003689B689847DBF8006051203368D3F859
:102030000C8001F029FB0446CF2001F03BFBA1B24C
:1020400002463046C047072001F01EFB022807D198
:102050000A2001F019FB57F82010284608F04CFD23
:10206000072001F011FB032807D10A2001F00CFB27
:1020700057F82010284608F035FF072001F004FB30
:10208000042840F089800A2001F0FEFA57F8201059
:10209000284603B0BDE8F04F0CF078BB072001F0F4
:1020A000F3FA00287FF466AFD9F80020464B9A4235
:1020B0007FF460AF5BE7013B9BB21380002B7FF4A2
:1020C00068AF63E79AF80030002B3FF474AF192330
:1020D00041468120A9F80030042401F0F5FA6AE7AE
:1020E000286803685B6B984700287FF471AF04464B
:1020F00082E700222F4B2E481A70FFF7FDFB2E4B74
:102100001B7823B1264B1B78002B08BF00242B4BD8
:102110001B78002B3FF470AF286803685B6B98470F
:10212000002808BF002467E7204D2B886BB927489B
:10213000FFF7DEFB05F0EAFE194B1B78002B7FF45E
:10214000D0AEFA221C462A80CBE6013B9BB22B8004
:10215000002BEFD1EBE7154A13889046B3B91B4823
:10216000FFF7C6FB1048FFF7C3FB7C20012101F0FD
:10217000ABFA05F0CBFE286803685B6B9847002834
:102180007FF43AAFFA23A8F80030B0E7013B9BB2E6
:102190001380002BE9D1E2E703B0BDE8F08F00BF68
:1021A0000C270020202B0020CC2C00202000002019
:1021B000442D0020382B00204429002094270020A3
:1021C000742B002000004842042B0020042D002026
:1021D0002DE9F84F7C2001F057FA05469E4BDFF8B9
:1021E000C08218680368DB689847042D04D1D8F8CA
:1021F00000000368DB68984706F062FE974B984F33
:102200001968CA20DFF89CB201F05EFACB20396869
:1022100001F05AFACC20DBF8001001F055FA914B8E
:10222000DFF884921968CD208F4E01F04DFACE2050
:10223000B9F8001001F048FA3378CA46022B8B4CEB
:1022400040F0E9808A4B1B78002B40F0E480042D9D
:1022500000F0BE8087493A68097891420AD18649E0
:10226000DBF800200978914204D1B9F80030003B36
:1022700018BF01232370CEE0012B40F0D58000234E
:10228000D1E06C2001F000FA012800F0D380D8F8EA
:1022900000007A4A036812785B692178984708B190
:1022A000012D12D1764B1E78AEB931467D2001F05A
:1022B0000BFA744B1E700EE03378012BE7D16C4A99
:1022C0001278002AE3D12370E1E701216D4B7D20D4
:1022D000197001F0F9F96C4E3378022B07D1684B75
:1022E0001B7823B1694B18680368DB68984733781B
:1022F000012B02D9033B012B0AD8644F38680368CD
:10230000DB68984733781BB938680368DB689847FF
:10231000042D2BD15A4B1E781EBB822001F0B4F93C
:1023200005463C2001F0B0F985420CDB8A2001F023
:10233000ABF905463E2001F0A7F98542DFBF012237
:102340004B4B26701A70524B186803689B6898476D
:1023500000210EF0D9FC20B1002301222370444B50
:102360001A704C4B586BFFF7C7FA26E0012DF8D1D5
:1023700000223F4B6B201A7001F086F9022817D11A
:102380006E2001F081F906466F2001F07DF9424B85
:102390000546986802F04DF801460446D82001F041
:1023A00093F9AE420BDCA642DBDCA54205DA0AE07B
:1023B0006C2001F069F90228E2D0BDE8F88FA6424E
:1023C000CFDBA542F9DD334B586BFFF791FAF4E709
:1023D000324FDFF8D8903B683BB1D9F80020013B81
:1023E00001323B60C9F8002043B900235920237013
:1023F00001F04AF94FF4967343433B60D9F800303B
:10240000B3F5967F07D10023C9F80030BAF8003041
:10241000013BAAF800303378002B7FF42DAF144B2A
:102420001B780BB9012323706B2001F02DF90128D3
:102430007FF427AF6D2001F027F9174B81465868CC
:1024400001F0F7FF07460146D72001F03DF9B945F5
:10245000BFF632AF002336E714000020782A0020B0
:10246000842A0020282B0020992A00209A2A002064
:10247000982A0020E2260020802700204C2B0020F4
:10248000342900200C270020682900201C0000208F
:102490000000002074310020C03100202C2B0020CF
:1024A0000C0000201C2B0020E02600209C2900208E
:1024B000FEE700000C2838B510D80C2819D8DFE842
:1024C00010F0D000D300E5001800D900D600DF00DE
:1024D0001800E800E800E800E800E8004F2800F0F5
:1024E000CC8000F2B2803A2800F0DB80472800F070
:1024F000CA80212001F0C8F840B1002001F0C4F8E2
:10250000082803D00021212001F0DEF8162001F078
:10251000BBF8664D664C2860172001F0B5F82060C6
:10252000182001F0B1F86860192001F0ADF8606082
:102530001A2001F0B1F85F4D5F4C28601B2001F0BC
:10254000ABF82060312001F0A7F85C4B21681860DF
:1025500028680EF0E3FB50B159491A202960594D03
:10256000256001F0BFF829461B2001F0BBF81C20B4
:1025700001F092F8544B554C18602C2001F08CF867
:10258000534B18602D2001F087F8524B18602F2014
:1025900001F082F8504B1860242001F075F84F4B81
:1025A00018601E2001F078F84D4B1860222001F0D1
:1025B00073F84C4B18602E2001F06EF84A4B1860EF
:1025C0001D2001F069F8494B1860052001F05CF806
:1025D000042001F059F8464B18702378012B22D1C2
:1025E000562001F051F8434B1860552001F04CF88B
:1025F000414B1860542001F047F8404B18605320BD
:1026000001F042F83E4B1860572001F03DF83D4B79
:102610001870582001F038F83B4B1870592001F021
:1026200033F83A4B1880432001F02EF820705920DF
:1026300001F02AF84FF496734343354A136008F0CB
:10264000A7F9BDE8384008F0D9B9652805D862284F
:102650007FF64FAF00F032FE4BE775380428F9D90A
:1026600047E7FEF775FF44E7FEF70AFF41E7FEF78D
:1026700009FE3EE7FEF74CFE3BE7FEF7B9FF38E701
:10268000FEF778FE35E7FEF7ADFE32E7FEF7CAFE4D
:102690002FE7204C206804F085FE606804F082FE7D
:1026A00027E704F067FC04F053FC22E7742F0020B6
:1026B0006C2F0020882F0020502F0020582F002042
:1026C0000080BB440000C8428C2F0020992A0020C3
:1026D000942F0020982F0020A42F0020482F0020A6
:1026E000A02F00205C2F0020542F0020442F00201A
:1026F00068290020282B00201C2B0020842A002081
:10270000782A0020E226002080270020E0260020F2
:102710002C2B002028290020014B186800F048BF0E
:10272000702B002000B589B003A804F0A3FC28B1E9
:10273000DDF815300193DDF81930029304F015FC33
:102740004FF400400CF0D8FB0499A1F58473012BE1
:1027500005D8044B01AA186803681B69984709B09B
:102760005DF804FB1C00002008B500200CF020FFE1
:10277000104B1A6801323B2A1A600F4A05D91168BA
:102780000131116019683C39196013683B2B0B4B00
:1027900005D919680131196011683C3911601A684E
:1027A000172A06D906490A6801320A601A68183AD7
:1027B0001A6008BD282B00201C2B0020842A002032
:1027C000782A0020F0B5ADF68C2D00F0BDFB00F0AE
:1027D000EBFC0022C349C44801F06CFE0122C14950
:1027E000C24801F067FE0122C149C24801F062FE01
:1027F0000222BC49C04801F05DFE0322B949BF482E
:1028000001F058FE0522B749BD4801F053FE0422ED
:10281000B449BC4801F04EFE0B22B249BA4801F05F
:1028200049FE04232022B949B94801F0B2FB042330
:102830008022B649B74801F0ACFB04234FF40042B4
:10284000B549B64801F0A5FB04231022A849B448B5
:1028500001F09FFB04230822A549B24801F099FB2F
:102860000125072380229F49AF4801F092FB0723EF
:102870000422AE49AE4801F08CFB07234FF400421E
:10288000A249AC4801F085FB07234FF480429F49E1
:10289000A94801F07EFB07234FF400529B49A7484B
:1028A00001F077FB07234FF400729849A44801F028
:1028B00070FB07234FF480729449A24801F069FB32
:1028C00007234FF4806291499F4801F062FB072380
:1028D0004FF400628D499D4801F05BFB07234022C5
:1028E00080499B4801F055FB07234FF480728A49C9
:1028F000984801F04EFB07234FF40072794996483F
:1029000001F047FB07234FF480727649934801F0AA
:1029100040FB07234FF480527C49914801F039FB7A
:102920000523082281498F4801F033FB052310223B
:102930007E498D4801F02DFB052320227B498B48E1
:1029400001F027FB072340227849894801F021FB49
:10295000072308226D49874801F01BFB0723042247
:102960006A49854801F015FB07234FF480526049FE
:10297000824801F00EFB07234FF480426B498048E8
:1029800001F007FB0723012259497E4801F001FBB2
:102990000723802260497C4801F0FBFA072340228C
:1029A0005D497A4801F0F5FA0423402257497848F6
:1029B00001F0EFFA042310225449764801F0E9FAB5
:1029C000002380225949744801F0E3FA01F0C0FC69
:1029D00072494FF000700CF0BFFB00F073FB00F089
:1029E000A3FB05F03DFA00F00FFB00F03BFB00F00D
:1029F00065FCDD20FFF75EFD5648FEF77DFF604871
:102A0000FEF77AFFC4AC0023654A6649009539A8F1
:102A100000F00AFF0DF26C570023022220466249A3
:102A200005F056FC022261492B46384605F050FC61
:102A30005F4B0F2004935F4B5F4E05935F4B0693F4
:102A400000F022FE2A4600280CBF214639460DF52B
:102A5000F96005F089F90DF5F962214619A808F029
:102A6000DBFE032119A808F0F5FE204604A9C6E9FB
:102A7000004704F06BFC04A9384604F067FC504B97
:102A80000DF5F9621A604F4B0A201A6000F0FCFD48
:102A900056F820700E2000F0F7FD07AC56F8201015
:102AA000494808F0DBFD04F065FA04F051FA4FF4F0
:102AB00096424649204609F0CFFD454B1C600FACBD
:102AC000FEF746FDFEF7DCFCFEF7DCFBFEF720FC24
:102AD000FEF750FCFEF78CFDFEF784FCFEF7A2FC2F
:102AE00078E000BF001001404C2E0020502E002046
:102AF000000C01407C2D00206C2D0020702D00204A
:102B0000402E0020442E0020482E002000140140BA
:102B10007C2C00204C2D002000080140FC2C0020C3
:102B20008C2C00209C2C0020042D0020001801403B
:102B3000D42C0020B42C0020BC2C0020C42C00205D
:102B4000542D00205C2D00203C2D0020342D002031
:102B5000442D0020CC2C0020A42C0020AC2C0020E4
:102B6000842C0020142D00201C2D0020242D00205A
:102B7000F42C0020E42C0020EC2C0020942C0020CD
:102B8000DC2C0020742C00206C2C0020642C0020F5
:102B9000642D00202C2D00200C2D0020C0004000B2
:102BA00080220108004800400064004000680040A6
:102BB000D80E0108C1170008282900206D1600084A
:102BC000E4300020AC2A0020F82A00200038014020
:102BD000742A00201C49204600F094FC1B4B2A4616
:102BE00020461B491C6000F0ADFC0A222046194912
:102BF00000F0A8FC64222046174900F0A3FCC8227C
:102C00002046164900F09EFC742000F03DFDA842CD
:102C100002D1384602F02EF904217B2000F054FD49
:102C200000217C2000F050FD4FF0000439A88DF801
:102C30000F4000F0AFFF1E9B002BF7D10DF10F01ED
:102C40001AA806F015FBF1E700080040702B0020E1
:102C500029120008091C000801190008D1210008E8
:102C600010B50024624B634A1C741A60624B634ABD
:102C70001C721A60DC721C73614A624B62481A60F3
:102C80001C72DC721C73614A614B1A60614B624AB0
:102C90001A6007F073FE614B614A1C621A601C7770
:102CA000604A614B61481A60614B624A1A60624B2C
:102CB000624A1A60624B634A1A60634B634A1A6045
:102CC000634B644A1A60644B644A1A60644B654AF9
:102CD0001A60654B654A5C751A60DC82644A654B14
:102CE0001A60654B654A1A60654B664A1A60664B06
:102CF000664A1A60664B674A1A60674B674A1A60F1
:102D000004F008FB664B674A67481A6007F068FCE6
:102D1000664B674A67491A60674B684A68481A6099
:102D2000684B694A1A60694B694A1A60694B6A4A7A
:102D30001A606A4B6A4A1A606A4B6B4A1C721A60C4
:102D40006A4B6B4A1A606B4B6B4A1A606B4B6C4A4E
:102D50001A606C4A6C4BC2E9024413600023136191
:102D600053619361D361694A1160694A6949C2E953
:102D700004441160C2E90644136253629362D36251
:102D80006549664A11606649C2E90244C2E90444E1
:102D90001483D361136253629362D36213635363E8
:102DA0009163604A6049C2E904449360D3609361CF
:102DB000D361136253629362D36213635363936369
:102DC000D363136453649364D3641160574B584ABC
:102DD0001A60584B584A1C731A60584B584A1A606C
:102DE00009F034FCBDE8104056480BF06BBC00BF46
:102DF000182700207C2F01083C2700201C230108F5
:102E00006423010858270020F42900201825010810
:102E10002C2700207427002060250108D0290020DD
:102E2000E024010840290108042B00204829002043
:102E300010270020402E0108F82700206C2E0108E2
:102E4000F0270020143001089C2A00200C0F0108F4
:102E5000882A0020380F0108FC2A0020982E01083B
:102E6000A42A0020982D0108B02A0020102F010864
:102E7000482D0108682B00207C2A00201C2D010809
:102E8000902A0020E82F0108602B0020FC31010867
:102E9000202B0020A825010804270020E80F0108A6
:102EA000E4260020640F01081C290020682A002065
:102EB000CC3201084C32010884270020C40F0108DD
:102EC0000C2A00200C280020C42F01080028002014
:102ED00028320108EC260020CC300108F82600201A
:102EE000503101083C2B0020A83001088C2700201D
:102EF000201001083829002068320108D02A00205B
:102F0000880F0108D82A0020F42E0108C82A0020C2
:102F10006C290020D82E0108B03201082C2A00208C
:102F20000000FA43A027002000330108302B0020C6
:102F3000A40F0108502B00205C2F010898270020C7
:102F4000E80E0108A029002008B50CF039FA02208B
:102F50000CF00EFA2A4B2B4A40F202301A600CF0A9
:102F600075FA40F203300CF071FA4FF441700CF036
:102F70006DFA40F205300CF069FA40F206300CF0C0
:102F800065FA40F292300CF061FA40F291300CF0A8
:102F90005DFA40F20E300CF059FA40F20B300CF0B2
:102FA00055FA4FF460700CF051FA40F281300CF099
:102FB0004DFA40F282300CF049FA4FF420700CF0D8
:102FC00045FA40F209300CF041FA40F286200CF04C
:102FD0003DFA4FF440700CF039FA40F299300CF0A1
:102FE00035FA40F29A300CF031FA40F28E300CF0A3
:102FF0002DFABDE8084040F28F300CF027BA00BF30
:103000000CED00E00003FA0573B50024134D2346D0
:10301000224620212846CDE900440CF037FB21460A
:1030200028460CF02BFB0E4E28460CF019FB2846C8
:103030000CF01FFB30464FF42043022203210CF01A
:103040005BF830464FF48043012221460CF054F8DF
:10305000284602B0BDE870400CF0F6BA00380040D7
:10306000000C014073B50024144D4FF080514FF017
:1030700000700CF071F82346224620212846CDE945
:1030800000440CF003FB0E4E28460CF0E9FA2846EB
:103090000CF0EFFA30464FF4A053022203210CF05B
:1030A0002BF830464FF40063012221460CF024F83F
:1030B000284602B0BDE870400CF0C6BA003C0040A3
:1030C0000010014010B5164C0423204602220321B3
:1030D0000CF012F80823012220460021A4F54444F4
:1030E0000CF00AF820460F490CF08EFC204608210F
:1030F0000CF09EFC204600210CF0A3FC20460C2185
:103100000CF0ABFC204600210CF0A1FC2046002175
:103110000CF0A9FC2046BDE810400CF0AABC00BF92
:103120000008014020A1070008B511200CF03AFD6D
:10313000F02111200CF044FD10200CF033FDF021A3
:1031400010200CF03DFD1E200CF02CFD00211E2057
:103150000CF036FD14200CF025FDE02114200CF0BD
:103160002FFD13200CF01EFDE02113200CF028FD94
:1031700028200CF017FD4FF400400BF0B3FE0121A6
:103180004FF400400BF092FE06494FF400400BF064
:10319000B9FE03200CF006FDBDE808402021032005
:1031A0000CF00EBD0018014008B54FF2234103207A
:1031B0000CF030FA00200CF0CFF900200CF0F8F9F8
:1031C000BDE8084000200CF0D5B90000022210B57F
:1031D000174C11464FF4007316480BF08DFF204634
:1031E0000CF09CFA00232022194620460CF06FFABE
:1031F000204620210CF097FA0722204600210CF0EF
:1032000096FA002120460CF097FB20460CF0EEFBCE
:1032100020464FF4C87200210CF0D8FB20464FF432
:1032200088610CF082FA2046BDE810400CF071BABB
:10323000002C01400018014008B5022303211A4662
:103240001D480BF059FF4FF080400CF067FA002347
:103250004FF080401A4619460CF039FA00214FF021
:1032600080400CF060FA4FF080400CF039FA4FF0DB
:1032700080400CF049FA8F214FF080400CF055FA55
:1032800002214FF080400CF07CFB062202214FF01F
:1032900080400CF04CFA02214FF080400CF04CFBC7
:1032A0004FF08040482202210CF090FBBDE808401E
:1032B0004FF080400CF02DBA00080140652038B571
:1032C00000F0E2F9102808D10222012311468748B4
:1032D0000BF012FF002425460DE0652000F0D4F924
:1032E000112840F092800222012311467F480BF002
:1032F00003FF00240125642000F0C6F9102840F0E7
:10330000998002228023114679480BF0F5FE632054
:1033100000F0BAF9102840F0AE8002224023114696
:1033200073480BF0E9FE73480CF0F8F9002171487E
:103330000CF0DBF96F480CF0D3F9062200216D4840
:103340000CF0F5F9062202216A480CF0F0F9062289
:10335000042168480CF0EBF9002166480CF0ADFA46
:10336000022164480CF0A9FA042162480CF0A5FA85
:10337000002160480CF0BBFA02215E480CF0B7FA5D
:1033800004215C480CF0B3FA00215A480CF0D4FA3E
:10339000022158480CF0D0FA042156480CF0CCFA1F
:1033A000002D40F08980002C40F08680762000F0CF
:1033B0006BF901464F480CF0B8F9772000F064F93A
:1033C000214602464B480CF001FB782000F05CF9E6
:1033D0000221024647480CF0F9FA792000F054F92E
:1033E0000421024643480CF0F1FA012141480CF057
:1033F00002FB752000F048F901463E480CF093F9B5
:10340000BDE838403B480CF084B9652000F03CF939
:10341000122808D102220123114634480BF06CFE19
:103420000124002567E7072301223049324800F0D4
:10343000B0FD4FE7642000F027F9112807D10222E0
:10344000802311462A480BF057FE01255FE76420D0
:1034500000F01AF9122807D10222802311462448CD
:103460000BF04AFE012452E707238022204923481B
:1034700000F08FFD4BE7632000F006F9112807D11B
:103480000222402311461A480BF036FE01254AE776
:10349000632000F0F9F8122807D1022240231146D8
:1034A00013480BF029FE01243DE707234022104971
:1034B000134800F06EFD36E741F68C110D480CF014
:1034C00034F9012200210B480CF080FA012202217C
:1034D00008480CF07BFA0122042106480CF076FA29
:1034E000012104480CF087FA0A2186E7000C01400C
:1034F0000008014000040040742C00206C2C0020C7
:10350000642C002038B50C460546016208460CF0D4
:10351000E7F820460CF0F3F8084B20461968084BF2
:10352000B1FBF3F101390CF0FEF820464FF6FF71C4
:103530000CF0FBF8002328466B6238BDA422002063
:10354000A0860100F8B5436A0446032B0E461546D3
:103550002ADC006A0CF0E2F8144F636A0122F95C7D
:10356000206A0CF0E4F8636A0022F95C206A0CF02F
:103570002DFA0221636A05EB850505EB850503F14C
:103580000802AD0044F82360994024F81250206AE4
:103590000CF090F80021206A0CF033FA206A0CF04D
:1035A000B8F8636A01336362F8BD00BF60100108B8
:1035B0002DE9F04704460025022700F1100800F12C
:1035C0001809636A07FA05F6AB4208DC3146206A3F
:1035D0000CF07AF80135042DF3D1BDE8F0873146BF
:1035E000206A0CF06BF8B8B1206A0CF008FA236A74
:1035F00038F81510343353F8252082460A4443F82E
:10360000252054F825309847206A0CF0F8F9A0EBF3
:103610000A0029F81500D9E7636AAB42DADCD5E77E
:10362000002170B500F11003466A4FF47A75084620
:103630008E4209DD1C461A8924886A43B2FBF4F2E3
:10364000023310440131F3E770BD00001C2210B5B5
:10365000084C02FB0042D4688C4209DC12698A42A1
:1036600006DB054A42F82010FEF724FF002010BDBB
:10367000FF20FCE79803002024000020014B53F8B2
:103680002000704724000020024B53F82000401116
:10369000704700BF2400002008B5054B53F82000F8
:1036A0000DF04AF94FF074510DF09AF908BD00BFC2
:1036B00024000020034B53F820004011431E5842C1
:1036C0005841704724000020024B490143F8201064
:1036D000704700BF24000020014B43F820107047C2
:1036E0002400002010B5044608464FF084410DF038
:1036F00077F90DF051FB024B43F8240010BD00BFD9
:103700002400002070B506460024074D3146686845
:1037100000F098FB08B9E0B270BD0134DD2C05F172
:103720001C05F3D1DE20F7E7980300200023064AAA
:10373000118B814201D1D8B270470133DD2B02F1E8
:103740001C02F5D1DE207047980300201C22024B9A
:1037500002FB0030704700BF980300200023064A98
:103760000649108B10B1506941F823000133DD2B5D
:1037700002F11C02F5D170479803002024000020BC
:10378000014B1954704700BF802B0020024B1A5C7C
:1037900011431954704700BF802B0020024A135C6C
:1037A00023EA010313547047802B0020014B185C5F
:1037B000704700BF802B00201C22024B02FB003010
:1037C000807E70479803002000487047C936030088
:1037D000024B1A68024BC3F8D02D70479421002089
:1037E00098030020202180680CF069B980680CF0F3
:1037F0005EB910B504464368597A58680BF02DFB42
:10380000636804F12A02597A58680BF038FB636840
:103810008022597A58680BF042FB6368BDE810407B
:10382000597A58680BF010BB70B5026140F2011272
:103830000D464C498282016001210022817580F889
:10384000281004460421C0E9062280F820204262A4
:103850009DF81020856080F82920434A0373426058
:1038600062681068A84206D1404A146062683BB999
:10387000D068138A06E01C3201396260F0D1F3E7A8
:103880005069138B022203210BF036FC28464FF4BB
:10389000E1310CF0B9F8284608210CF0C9F82846A7
:1038A0004FF400510CF0CDF828460C210CF0D5F85F
:1038B000284600210CF0CBF8002128460CF0D3F864
:1038C00028460CF0E6F828460CF0E8F863682E1D50
:1038D000197A58680BF048FA6368197A58680BF03F
:1038E000AAFA63683246197A58680BF0BFFA63681F
:1038F0000022197A58680BF072FA63680022197A6C
:1039000058680BF05FFA6368197A58680BF074FA1C
:103910006368597A58680BF027FA63683246597A17
:1039200058680BF0A3FA63680022597A58680BF0C4
:1039300056FA63680022597A58680BF043FA6368B4
:10394000597A58680BF058FA63685868597A0BF03E
:103950007BFA2046FFF74DFF28460CF08AF82046F8
:1039600070BD00BF9C21010824210108602C0020AB
:1039700038B5437D0D4604694BB1216839B12846FD
:1039800000F060FA08B10834F7E7236803B90024AF
:10399000204638BD38B504460D4663680222197AC0
:1039A00058680BF0F8F918B994F82830002BF4D0C7
:1039B0006368197A58680BF050FA6368AAB2197AEA
:1039C00058680BF06CFA94F82020636804EBC2127C
:1039D000197A5868AA320BF052FA63680222197AEF
:1039E00058680BF0D2F96368197A58680BF02CFA12
:1039F00094F82030B3FA83F35B0984F82030002375
:103A000084F8283038BD837D10B5044623B9BDE85D
:103A1000104080680CF032B890F82030426ADB0128
:103A2000234413440A2902F1010083F8AA1001D0AB
:103A30007F2A06D101462046FFF7ACFF00236362D0
:103A400010BD6062FCE7802A30B428BF80220C469B
:103A50000021914209D090F82030655C00EBC3133F
:103A60000B4483F8AA500131F3E730BCFFF792BF53
:103A700038B5054608460C4600F0FBF921460246DB
:103A80002846BDE83840FFF7DEBF000010B5044609
:103A9000084600F043FA00F028FA237D227B834297
:103AA000636811D1012161755AB158691B8B0321DB
:103AB00002220BF021FB2046BDE810400949FFF728
:103AC000D7BFD8681B8AF2E7002161753AB15869FF
:103AD0001B8B0122BDE8104000210BF00DBBD86804
:103AE0001B8AF6E7C520010830B5044685B00846B4
:103AF00000F014FA0378302B25D0322B134D18BF69
:103B00004FF46125637DA3B10A22294601A800F084
:103B1000BFF920460E49FFF7ABFF20460D49FFF7DE
:103B2000A7FF204601A9FFF7A3FF20460A49FFF798
:103B30009FFF2946A0680BF067FF0021A0680BF0EB
:103B400080FF05B030BD4FF4E135DBE710552200B2
:103B5000C4200108CA200108C12C010810B5044680
:103B6000084600F0DBF9037823B1303B18BF01238E
:103B700084F8293094F829302BB104492046BDE857
:103B80001040FFF775BF0249F8E700BFD9200108D0
:103B9000E32001082DE9F04143680446597A58684A
:103BA0000BF076F90546C0F1800710B92046FFF703
:103BB00020FE94F82930A06853B1E369BB4207DACC
:103BC0005A1CE261234493F82A100BF057FFF0E7E8
:103BD00008210BF074FF10B1A0680BF068FF002FF4
:103BE00040F38D80651B95F8A9300A2B01D00D2B71
:103BF00072D16368597A58680BF02FF9012F37D0CA
:103C00000022E31904F12A0683F82A2020213046F5
:103C1000E26100F035F990F800800546B8F1000F38
:103C20002BD10A21304600F02BF9054684F8AA81F1
:103C30002B7823B90D21304600F022F905460023E8
:103C400030462B702F49A36100F0FCF80546D0B92F
:103C5000204604F5D571FFF719FFA36993B3A06857
:103C60000BF029FFA36920465B6804F5D5719847DE
:103C70002046BDE8F041FFF7BCBD411C04F5D570FE
:103C800000F0EEF8D4E730461F4900F0DBF80546B7
:103C900028B9204604F5D571FFF726FFDDE7304649
:103CA0001A4900F0CFF8054628B9204604F5D57129
:103CB000FFF754FFD1E731462046FFF759FE3D4656
:103CC000A061CAE7012DD3DD637D002BD0D0204653
:103CD0000F49FFF7CDFECBE794F82A30212B0ED108
:103CE000A36963B12046FFF784FD0023E361A36964
:103CF000204604F5D5715B68BDE8F0411847BDE882
:103D0000F08100BFEE200108F9200108022101081E
:103D100007210108034BC1B21B681A6818461268D4
:103D2000104700BF602C002004F018B907B5064BFF
:103D300006491A68043B1B6809680091044900F0B1
:103D4000F9FA03B05DF804FBF0F7FF1FE8F7FF1F77
:103D5000A021010805F08CBAF7B5144800F0D8FA94
:103D6000134800F0D5FA0025124FEEB23046FFF7A7
:103D7000EDFC04463046FFF71FFD68B93046FFF7FB
:103D800015FDC3070DD46369384600936168D4E913
:103D9000032300F0BDFA04E03046FFF70DFD0128D3
:103DA000ECD00135DD2DE0D103B0F0BDA921010833
:103DB000C0210108DC210108F8B50C4900F0BAFA6D
:103DC00000240B4FE6B23046FFF7C0FC05463046F4
:103DD000FFF7ECFCC30704D4D5E90112384600F024
:103DE00097FA0134DD2CEDD1F8BD00BFEF210108B9
:103DF000112201082DE9F041054600240A4FE6B2E0
:103E00003046FFF7A3FCD0F804803046FFF736FCBD
:103E10000134034642463946284600F08BFADD2C31
:103E2000EDD1BDE8F08100BF1B22010810B50446AA
:103E3000FFF794FC2046BDE81040014900F07ABA33
:103E400024220108431E013913F8010F11F8012F34
:103E500010B10AB19042F7D0801A18BF0120704704
:103E6000013911F8013F0BB90370704700F8013BAD
:103E7000F7E7034600201A5C02B970470130FAE701
:103E80000346184613F8012B0AB18A42F9D170474C
:103E900000290346F0B520DA2D2003F8010B01209C
:103EA00049421D46C71A91FBF2FC02FB1C1130313E
:103EB00029702C46BCF1000105F101051E4605EBF9
:103EC0000700F0DC00232B70B4420BD93378227842
:103ED00006F8012B04F80139F6E704D130224170CD
:103EE00002700120F0BD0020DBE730B503782D2BF8
:103EF00011D14FF0FF34013000210A25431E01E0AB
:103F000005FB012113F8012F303AD0B20928F7D967
:103F100004FB01F030BD0124EEE7000010B5134CA6
:103F200002780146A2F10A03DBB2162B00F1010070
:103F300017D9A2B10846FFF79CFF0C4C0138084482
:103F40008142024609D2137801380A3BDBB2162BB4
:103F500003D824FA03F3DB07F2D400235370084696
:103F600010BD24FA03F3DA07DAD4E3E709004000CE
:103F7000002310B5934200D110BD51F8234040F802
:103F800023400133F6E7013A00D2704740F8041BA2
:103F9000F9E72DE9F0411C4600238371631E0E46AC
:103FA000174601608280082B12D8DFE803F00F1655
:103FB0001327180C1B05250001240325394630461C
:103FC0000BF0D4F810E0002400250DE001238371EC
:103FD0000224F9E70123022483710025EEE701247E
:103FE0008471F1E7002403253B46224629463046EA
:103FF000BDE8F0410BF080B80224F4E70124E3E7C8
:104000000029B4BF4FF0FF32012270B5642401FBD8
:1040100002F3591103F01F03634301324FEA6314A3
:10402000054604BF2D2305F8013B06460A22284613
:10403000FFF72EFF2E23092C2B54D8BF302305EB7E
:104040000002CEBF501C5370901C21460A22FFF77D
:104050001FFF304670BDF0B503782D2B17D14FF000
:10406000FF36013000244FF00A0C02E018460CFB2A
:104070000454034613F8012BA2F13005EFB2092FC7
:10408000F4D9AAB98C40224406FB02F0F0BD012607
:10409000E8E78B4003EB650393FBF5F30CFB05F5B9
:1040A0001A4410F8013F303BDFB2092FF1D9E9E79C
:1040B0000A250022AC46F4E72DE9F843141E064613
:1040C0000D4624DD0022A95C09B10132FBE7A242C2
:1040D000ACBF0C46A41A13F0020F0CBF20273027E8
:1040E000DB071ED4A0465FFA87F9B8F1000F10DC99
:1040F00024EAE473E41AA3EB050808EB050915F8B4
:10410000011B81B1336830461B689847F5E72027CB
:10411000E6E73368494630461B68984708F1FF38A0
:10412000E3E70023E7E72546FFB2002D06DD33680D
:10413000394630461B689847013DF6E7002CACBF76
:1041400009EB040009F10000BDE8F8832DE9FF4701
:104150000746DDE90C8A15461C4651B93023424614
:10416000ADF8003069465346FFF7A6FF04B0BDE83E
:10417000F08723B10A2A2DD100292BDA49420023E6
:104180008DF80D300E9B0DF10D023A3BB1FBF5F0B1
:1041900005FB1016092E88BFF61830368D4202F145
:1041A000FF3902F8016C17D964B1B8F1000F16D0CD
:1041B0001AF0020F13D03B682D2138461B68984730
:1041C00008F1FF385346424649463846FFF774FF28
:1041D0002044CBE70024D2E701464A46D6E72D2308
:1041E000002409F8013CA2F10209EBE70846FFF7B9
:1041F00091BD00002DE9F04307460E461446002508
:104200004FF00A08DFF804918DB03378002B78D096
:10421000252B6FD17378002B73D0252B06F101026B
:1042200067D02D2B0ABF01230023B21C164612F8BB
:10423000011B302902D143F00203F7E70022304688
:1042400010F8011BA1F1300C5FFA8CFEBEF1090FD2
:1042500003D8064608FB02C2F1E7732908D121689A
:104260000434002908BF49463846FFF725FF0DE012
:1042700064290ED161202146CDE90130012300924D
:104280000A22384609680434FFF760FF0544013606
:10429000BBE7782907D121466120CDE901300092A2
:1042A00000231022EDE7582902D121464120F4E7EE
:1042B000752906D161202146CDE901300092002305
:1042C000DEE766290AD1216808A8CDE90423043471
:1042D000FFF796FEDDE9042308A9C5E76329D6D1D7
:1042E000216804348DF81C1000218DF81D1007A9D9
:1042F000BAE716463B6838461B683178984701355F
:10430000C5E728460DB0BDE8F08300BF00230108D3
:104310000FB407B504AA52F8041B054B6846CDE953
:104320000032FFF767FF03B05DF804EB04B070479D
:10433000102301080EB403B503AA52F8041B01921E
:10434000FFF758FF02B05DF804EB03B070470000C0
:1043500038B52A4C2A4D20460AF09AFA20460AF02F
:104360009CFA20460AF0A3FA20460AF09BFA0121A3
:1043700020460AF078FA20460AF03EFA20460AF073
:1043800055FA20460AF065FA1E4A082120460AF02E
:1043900093FA20460AF0D3FA20464FF460210AF03F
:1043A0003BFA28460121184A0AF060FD28460121FF
:1043B000164A0AF064FD28464FF4807201210AF083
:1043C0000EFD28464FF4806201210AF0FBFC6022BA
:1043D000284601210AF063FD284601210AF00CFD60
:1043E000284601210AF011FD284601210AF02CFD82
:1043F0002046BDE838400AF098BA00BF00240140CA
:1044000000000240742D00204C240140802D00202B
:1044100003468B42084606DD914203DC9342A8BF67
:104420001346184670479342FBDC9142A8BF1046E2
:10443000704773B56E46056805F13004F03534F801
:10444000102C34F8201C34F8300CFFF7E1FF303426
:10445000AC4226F8020BF2D1BDF80230BDF80000E4
:104460001844BDF804301844BDF806301844C0F3B1
:104470008F0002B070BD000008B50D4B98420BD004
:1044800003F5806398420BD0A3F5006398420BD1EB
:10449000072909DCC8B208BD012905DC0831F9E7A4
:1044A000052901DC0A31F5E70AF0AEF91020F2E740
:1044B000000C0140012370B593400C4615460022C4
:1044C000064611469BB220460AF016FE29462046B3
:1044D000FFF7D2FF3368034A9B1A034AC3F34F0323
:1044E000D05470BD802D0020742D00200D4B0E4A3D
:1044F000991C13600D4A11600D4A191D11600D4A77
:10450000991D11600C4A03F1080111600B4A03F177
:104510000A0111600A4A03F10C011160094A0E33C5
:1045200013607047802D00204C2E0020502E00205C
:104530007C2D00206C2D0020702D0020402E0020AE
:10454000442E0020482E0020114A124B30B553F85B
:10455000213052F821401946A342A8BF21460268E3
:1045600002F1C8058D4206DBA342B8BF234603F122
:10457000C804A24202DD0160002030BD8A4202DA96
:1045800001600120F9E79A42C8BF0360F9E700BF64
:10459000742F00206C2F0020012970B516D80C4B09
:1045A00053F821500B4B53F82160B5420ED0401BFD
:1045B0000CF0C2F90446701B0CF0BEF9014620460F
:1045C0000CF0C2FA04490CF00BFA70BD0020FCE7B5
:1045D000742F00206C2F00200000C8422E4B2DE9C4
:1045E000F0411D680446014628460CF0B5FB00B9B1
:1045F0002C462A4B21461D6828460CF08FFB00B93B
:104600002C46DFF8A4802146D8F8005046462846BC
:104610000CF08EFBE8B1002120460CF09DFB2146FA
:1046200080B128460CF098FB50B91D4B28461968FC
:104630000CF0CEF8214605460CF08EFB00B92C4656
:1046400034600EE028460CF087FB0028F8D1154BAB
:10465000ECE70027204639460CF074FB20B1C8F87F
:1046600000402046BDE8F081394628460CF074FB36
:1046700008B1C8F800703568214628460CF04EFB9A
:104680000028DDD1074B284619680CF09FF8214619
:1046900005460CF043FBD1E7942F0020982F002013
:1046A0005C2F0020A02F0020382F002038B5114AA1
:1046B000114B1468196804FA01F318440F4B001BDE
:1046C0001B6808411060181A0CF036F90C4B196879
:1046D0000CF086F90B4904460CF03EFB00B1094C86
:1046E000094B21461D6828460CF036FB00B12C46CC
:1046F000204638BD602F0020902F00204C2F002036
:10470000842F00200000C8429C2F0020F8B50546E9
:1047100081200F461646FEF7B7FF39460446284665
:104720000CF006FB20BB4FF0804138460CF050F8EF
:1047300029460CF011FBE8B1A1B2812041F0100133
:10474000FEF7C2FF114D3468002120460CF0FAFA42
:1047500090B1294620460CF0E1FA00B92C462846D3
:104760000B4934600CF0DAFA003818BF0120F8BDAC
:10477000074DE8E70025E6E705F100473946204602
:104780000CF0EAFA0028EAD13C46E8E7000048428B
:104790000000C8422DE9F047064626200C46FEF7E9
:1047A0007BFF4F4DDFF8509128602720FEF774FF04
:1047B000C9F800008120FEF767FFD5F800A0074682
:1047C000002150460CF0C8FA002837D0002130688C
:1047D0000CF0B8FADFF82481424DBFB2002842D075
:1047E000514620460BF0F2FF3F490CF0F9F800214A
:1047F00004460CF093FA00B10024C8F80040D5F844
:104800000080214640460CF0A7FAC8B12146404638
:104810000CF084FA50B9354B404619680BF0D6FFBE
:10482000214680460CF07AFA00B944462C6047F0E5
:1048300001018120FEF748FF2B683360BDE8F08757
:104840003768404639460CF069FA50B1274B40466C
:1048500019680BF0BDFF214607460CF07DFA00B148
:1048600027462F60E8E72046D9F800100BF0AEFF8E
:104870001F490CF0B5F8002104460CF06DFA00B1A8
:104880000024C8F80040D5F80080214640460CF0CE
:1048900045FA98B1214640460CF05EFA50B9154BE6
:1048A000404619680BF094FF214680460CF054FAFC
:1048B00000B944462C6047F00201BAE73768404629
:1048C00039460CF049FA0028CBD00A4B404619680B
:1048D0000BF07CFF214607460CF020FABFE700BF33
:1048E000802F00205C2E00200000A0405C2F0020C4
:1048F00000006040A02F00207C2F0020602E0020B0
:104900002DE9F0470D465A4C5A49064620680CF0EE
:1049100067F829460BF05CFF4FF076510CF060F819
:1049200020602820FEF7B8FE534DDFF85C91286028
:104930002920FEF7B1FEC9F800008120FEF7A4FE91
:10494000D5F800A00746002150460CF005FA0028D3
:1049500048D0002130680CF0F5F92468DFF82C818C
:10496000464DBFB200283FD0214650460BF02EFFE7
:10497000002104460CF0D2F900B10024C8F8004030
:10498000D5F80080214640460CF0E6F9B0B121464A
:1049900040460CF0C3F950B9394B404619680BF04A
:1049A00015FF214680460CF0B9F900B944462C6049
:1049B00047F008018120FEF787FE11E03768404686
:1049C00039460CF0ABF950B12D4B404619680BF04D
:1049D000FFFE214607460CF0BFF900B127462F60C5
:1049E0002B683360BDE8F0872046D9F800100BF043
:1049F000EFFE002104460CF0AFF900B10024C8F826
:104A00000040D6F80090214648460CF087F9D5F8CA
:104A10000080414690B120460CF080F950B9194B06
:104A2000404619680BF0D4FE214680460CF094F9FC
:104A300000B944462C6047F00401BBE748460CF03F
:104A40006DF988B1414620460CF086F950B90D4BFE
:104A5000404619680BF0BAFE214607460CF05EF995
:104A600000B93C462C60BBE7C5F80090B8E700BF32
:104A7000A82F002000007041642F0020542E002039
:104A80005C2F0020A02F0020682F0020582E00202F
:104A900070B505460F4B2E68186801EB0014241AF8
:104AA0002411002130461C600CF056F988B10A4BE5
:104AB0001B681C1B48BF0334A41024EAE4700BF0ED
:104AC0003BFF0446014630460CF046F900B9344637
:104AD0002C6070BDAC2F0020482F0020F8B50D4B86
:104AE00004461A780C4F0132D2B2312A88BF002214
:104AF0001A701E78094D386855F826100BF066FEBE
:104B000021460BF065FE0649386045F826400CF05A
:104B10001BF8F8BD2C2F0020302F0020642E002021
:104B200000004842000000002DE9F74F80469A201F
:104B300089460192FEF7A8FD0446A220FEF7A4FDD7
:104B4000064684EAE470A0EBE4700BF0F5FE864CB8
:104B50000746D4F800B059460BF038FE0021054650
:104B60000CF0DCF808B105F10045804B2946D3F87C
:104B700000A050460CF0D2F8002846D059463846DE
:104B80000CF0EAF8514600283BD058460BF020FEC6
:104B90002060002E00F0E18020680CF0FDF8019B01
:104BA0000446002B33D0632840F3D7800BF0C4FEBB
:104BB0006F4B0646D3F8008041460CF0AFF8002852
:104BC00040F0CB806B4B30461F686B4B39461D68FD
:104BD0000CF0A4F888B140460CF0DEF806462846F2
:104BE0000CF0DAF8A41B444338460CF0D5F8801BCF
:104BF00094FBF0F00BF0A0FE0546284603B0BDE89C
:104C0000F08F58460BF0E2FDC2E72760C1E7494646
:104C10004046FFF7C1FC594B05461F680146384620
:104C20000CF09AF800285CD1394628460BF0CEFDEE
:104C30003946054652480BF0C9FD014650480BF075
:104C400083FF29460BF0CCFE05464E4B28461D60DF
:104C5000FFF744FF0146074628460BF0B7FD4A49D7
:104C600080460CF05BF830B94FF07E5140460CF0B6
:104C700073F800B93D46632C444F0ADD20460BF023
:104C80005BFE3B4B8046D3F800B059460CF046F82B
:104C900048B300233B6028460CF07EF8012E044602
:104CA00044D13B4938680BF09BFE0CF075F8394B4A
:104CB0000546374918680BF093FE0CF06DF8431B5E
:104CC0005C43642094FBF0F028440BF035FE0BF0BD
:104CD00077FA23A3D3E900230BF0CAFA0BF022FDE5
:104CE0008AE70025B1E7234B4046D3F800A02A4BC2
:104CF0005146D3F800900CF011F8A0B158460CF0D2
:104D00004BF8804648460CF047F8A4EB08044443AF
:104D100050460CF041F8A0EB080094FBF0F00BF0CB
:104D20000BFE3860B7E7C7F80090B4E72520FEF720
:104D3000ABFC08B900233B60154938680BF050FE06
:104D40000CF02AF8154B0546114918680BF048FE7F
:104D50000CF022F8401B4443B3E700254DE700BFA9
:104D60009A9999999999B93F342F0020582F00208A
:104D7000502F0020882F0020442F0020A42F002037
:104D80000000C8423C2F0020000080BF402F0020C0
:104D900000002041942F00208C2F0020542F002051
:104DA000024B00BF013BFCD1704700BF00127A00EC
:104DB00010B50446002240F2215102F0D6FA00223A
:104DC00040F22251204602F0D0FA002240F2235154
:104DD000204602F0CAFA002240F22451204602F096
:104DE000C4FA002240F22551204602F0BEFA002209
:104DF00040F22651204602F0B8FA002240F2275134
:104E0000204602F0B2FA2046BDE8104000224FF4DE
:104E1000A56102F0AABA0000002313B5054A40F2CA
:104E20001141CDE9002303686A465C680823A04766
:104E300002B010BD340001003222002313B5CDE9C9
:104E4000002303686A465C6840F211410823A047CA
:104E500002B010BD002313B5054A40F21141CDE95F
:104E6000002303686A465C680823A04702B010BDAF
:104E7000340101002DE9F7430026174B04461E704C
:104E80002025FFF7C9FF4FF04209FFF789FF4FF4D4
:104E9000C84823688DF800508DF8019001966A4645
:104EA00040F2114120465F68ADF8028008230135C9
:104EB000B847EDB2FFF774FF2046FFF7BDFFFFF7DD
:104EC0006FFF292DE5D12046FFF7C4FFFFF768FFEC
:104ED00003B0BDE8F08300BFC41B0020D0F802205F
:104EE000014B1A60704700BFC02F0020D0F802208D
:104EF000014B1A60704700BFC42F0020D0F8022079
:104F0000014B1A60704700BFC82F0020D0F8022064
:104F1000014B1A60704700BFCC2F0020054A138850
:104F2000013313800A22D0F8023093FBF2F3024AD5
:104F300013607047D02F0020B02F0020D0F802203F
:104F4000014B1A60704700BFB82F0020D0F8022034
:104F5000014B1A60704700BFB42F0020D0F8022028
:104F6000014B1A60704700BFBC2F002003466FF44E
:104F7000A46213440846072B15D8DFE803F00406A3
:104F8000080A0C0E1012FFF7A9BFFFF7AFBFFFF71B
:104F9000B5BFFFF7BBBFFFF7C1BFFFF7CFBFFFF73D
:104FA000D5BFFFF7DBBF70470161704741617047B4
:104FB000007A7047007A70470023C372704710B5BB
:104FC00004460022616008464FF4987102F0CDF962
:104FD00000224FF43F71606802F0C7F900224FF4DD
:104FE0009061606802F0C1F960680022BDE810407D
:104FF0004FF4D07102F0B9B92DE9F0410523012039
:105000000E460A21BCB00222CDE90030CDE90310E2
:105010000590089014200F25CDE9090219270320D7
:10502000CDE90652CDE90C704FF01E0C0B920E929A
:10503000119004222320CDE90FC2CDE9120214926F
:10504000282017922D220024CDE91503CDE918233D
:105050004FF0320E07224FF037081A9306233C20F8
:10506000CDE91BE31D930294CDE91E822093239288
:10507000082341224625CDE92423CDE921032693A7
:105080000923CDE9275329934B235027CDE92A3112
:105090000B234FF0550CCDE92D732F930C234FF0BC
:1050A0005A0ECDE930C332930E234FF05F08CDE99D
:1050B00033E3359311231022CDE936836423CDE900
:1050C000382313236D462746A046CDE93A332C9169
:1050D00028680BF031FC31460BF02AFE08B1D5E907
:1050E00001870134142C05F10C05F1D141467020E3
:1050F000FEF7EAFA394671203CB0BDE8F041FEF710
:10510000E3BA10B404686468A44610BC60470000A9
:10511000037E73B50446002B50D0A220FEF7B4FAEC
:10512000324B00284CD10321314A20731170E12207
:105130001A701B782F4D8DF800300C238DF801303C
:105140008F238DF802302B7860688DF80330F023C0
:105150008DF8043003686A464FF4E9715E680523F0
:10516000B0472B7839201033DBB2ED2B08BF0D236D
:105170002B70FEF789FA204BC0B21A78824215D004
:105180004FF40952ADF8002000228DF802204FF0B4
:10519000FF32019230BB30228DF8032018706A462E
:1051A000082340F292516068FFF7ABFF23688E201E
:1051B0001D6AFEF771FA01462046A84702B070BD8D
:1051C000421C06D1012202212273094A1170D22207
:1051D000AEE70128ADD1032208212273044A1170E1
:1051E0007822A5E70828D9D13122D5E7CA1B0020AB
:1051F000C91B0020D72F0020D82F00200B7803F0E8
:10520000010343720B78C3F3800303720B78C3F37B
:10521000001383728B78C3F3C0034376704700009A
:1052200008B54B7808781B0203F4706318440AF041
:10523000B5FF09A3D3E900230BF01AF80BF072FABB
:1052400007490BF0CDFBBDE8084001469B20FEF767
:1052500049BA00BFAFF300809A9999999999B93FDB
:105260002B121F3F0B78842B03D10121DC20FEF78A
:105270002BBA812B01D10021F8E770474B78323BE4
:1052800018BF0123037670470B46B3F53F7F1146E5
:105290000FD006DCB3F5987F07D0B3F5D07F06D0EA
:1052A0007047B3F5906F06D07047FFF7A7BFFFF7C1
:1052B000B7BFFFF7D7BFFFF7E1BF000003682DE9D5
:1052C000F74F5B6B04460F4698476A4E002800F084
:1052D000C7809A20FEF7D8F940F2ED23984240F3B8
:1052E000BC809A20FEF7D0F9800080B2337843F07A
:1052F00050038DF8013007238DF8023094239DF878
:105300000120ADF806309DF80230AA321A449DF80B
:105310000630ADF804001344C2B203EB102083182A
:1053200018460025DBB203EB2020AA2108236A4699
:105330008DF8000060688DF80350FFF7E2FEAF4281
:1053400014BF64210421DFF844A14FF00F0B9AF839
:105350000000DFF83C9100F5FC7253181A46DBB2EE
:1053600003EB12238DF800304EF22103ADF802302A
:1053700041F621736A468DF80100ADF8043060688B
:1053800008238DF80710A821DFF808818DF806B0F2
:10539000FFF7B7FE99F800306A468DF8003098F8AC
:1053A0000030A9218DF801304DF67973ADF8023047
:1053B000314B606801930823FFF7A3FE2F4F304B5A
:1053C000397818788DF80610421802F5E4731A46F9
:1053D0008DF80000FF20DBB203EB1223BA216A46EE
:1053E0008DF801008DF8053060680723ADF802B034
:1053F0008DF80450FFF785FE3378224A013333706D
:1054000013782148013313709AF80030397801334A
:105410008AF8003099F800300131013389F8003002
:1054200098F800303970013388F800300378013380
:10543000DBB25C2B03700DD1BE231370E92389F816
:1054400000304D230370802335708AF8005088F8AF
:1054500000503B7003B0BDE8F08F40F6B83045E730
:10546000337843F030038DF80130FE238DF802309D
:10547000842344E7D42F00201DC7E021C81B00204F
:10548000C91B0020C51B0020C71B0020D22F0020F5
:10549000C61B0020D32F0020037E10B5044643B165
:1054A000AE20FEF707F901462046BDE81040FFF7A1
:1054B00005BF10BD73B506467C20FEF7E5F8012850
:1054C0000CBF49F69C6300244FF08A0006BF60249D
:1054D000ADF80430ADF80440FEF7DEF8014621488F
:1054E0000BF074F9204905460BF036FC002835D145
:1054F00028460BF051FC642343434FF4FA7093FBAE
:10550000F0F032300BF018FA18490BF061F93C2337
:10551000174D8DF800300BF065FC2B786A461C4364
:10552000C3238DF8033048F2CD234FF4E8718DF892
:105530000100ADF80630706808238DF80240FFF7CF
:10554000E0FD0C4A297813788B4209D10133DBB294
:105550000F2B08BF00232B7002B070BD0648D6E7A2
:105560001170F9E70000C8420040034400004042C7
:10557000D52F0020D62F002000001643037E73B5E0
:105580000446A3B148F261230093C37A63B90325AB
:1055900060686A46036840F232315E680223B047B1
:1055A000013DF5D10123E3722046FFF783FF02B0EE
:1055B00070BD0161704741617047007A7047007AA1
:1055C00070470023C372704710B504460022616023
:1055D00008464FF4987101F0C8FE00224FF43F7165
:1055E000606801F0C2FE00224FF49061606801F033
:1055F000BCFE60680022BDE810404FF4D07101F09D
:10560000B4BE2DE9F041052301200E460A21BCB0AD
:105610000222CDE90030CDE9031005900890142056
:105620000F25CDE9090219270320CDE90652CDE95E
:105630000C704FF01E0C0B920E921190042223203E
:10564000CDE90FC2CDE912021492282017922D2223
:105650000024CDE91503CDE918234FF0320E0722BF
:105660004FF037081A9306233C20CDE91BE31D9326
:105670000294CDE91E8220932392082341224625DD
:10568000CDE92423CDE9210326930923CDE927532E
:1056900029934B235027CDE92A310B234FF0550C8A
:1056A000CDE92D732F930C234FF05A0ECDE930C363
:1056B00032930E234FF05F08CDE933E33593112386
:1056C0001022CDE936836423CDE9382313236D46B8
:1056D0002746A046CDE93A332C9128680BF02CF9E7
:1056E00031460BF025FB08B1D5E901870134142CB4
:1056F00005F10C05F1D141467020FDF7E5FF394673
:1057000071203CB0BDE8F041FDF7DEBF037E73B50C
:105710000446002B50D0A220FDF7B6FF324B0028E4
:105720004CD10321314A20731170E1221A701B7889
:105730002F4D8DF800300C238DF801308F238DF81C
:1057400002302B7860688DF80330F0238DF8043038
:1057500003686A464FF4E9715E680523B0472B7809
:1057600039201033DBB2ED2B08BF0D232B70FDF772
:105770008BFF204BC0B21A78824215D04FF40952E9
:10578000ADF8002000228DF802204FF0FF32019288
:1057900030BB30228DF8032018706A46082340F28F
:1057A00092516068FFF7ADFC23688E201D6AFDF7FB
:1057B00073FF01462046A84702B070BD421C06D1C7
:1057C000012202212273094A1170D222AEE7012878
:1057D000ADD1032208212273044A11707822A5E773
:1057E0000828D9D13122D5E7D01B0020CF1B0020BB
:1057F000DF2F0020D92F00200B7803F00103437224
:105800000B78C3F3800303720B78C3F30013837226
:105810008B78C3F3C003437670470000000000009C
:1058200008B54B7808781B0203F4706318440AF03B
:10583000B5FC09A3D3E900230AF01AFD0AF072FFB0
:1058400007490BF0CDF8BDE8084001469B20FDF765
:1058500049BF00BFAFF300809A9999999999B93FD0
:105860002B121F3F0B78842B03D10121DC20FDF785
:105870002BBF812B01D10021F8E770474B78323BD9
:1058800018BF0123037670470B46B3F53F7F1146DF
:105890000FD006DCB3F5987F07D0B3F5D07F06D0E4
:1058A0007047B3F5906F06D07047FFF7A5BFFFF7BD
:1058B000B7BFFFF7D7BFFFF7E1BF000003682DE9CF
:1058C000F74F5B6B04460F4698476A4E002800F07E
:1058D000C7809A20FDF7D8FE40F2ED23984240F3AE
:1058E000BC809A20FDF7D0FE800080B2337843F070
:1058F00050038DF8013007238DF8023094239DF872
:105900000120ADF806309DF80230AA321A449DF805
:105910000630ADF804001344C2B203EB1020831824
:1059200018460025DBB203EB2020AA2108236A4693
:105930008DF8000060688DF80350FFF7E2FBAF427E
:1059400014BF64210421DFF844A14FF00F0B9AF833
:105950000000DFF83C9100F5FC7253181A46DBB2E8
:1059600003EB12238DF800304EF22103ADF8023024
:1059700041F621736A468DF80100ADF80430606885
:1059800008238DF80710A821DFF808818DF806B0EC
:10599000FFF7B7FB99F800306A468DF8003098F8A9
:1059A0000030A9218DF801304DF67973ADF8023041
:1059B000314B606801930823FFF7A3FB2F4F304B57
:1059C000397818788DF80610421802F5E4731A46F3
:1059D0008DF80000FF20DBB203EB1223BA216A46E8
:1059E0008DF801008DF8053060680723ADF802B02E
:1059F0008DF80450FFF785FB3378224A013333706A
:105A000013782148013313709AF800303978013344
:105A10008AF8003099F800300131013389F80030FC
:105A200098F800303970013388F80030037801337A
:105A3000DBB25C2B03700DD1BE231370E92389F810
:105A400000304D230370802335708AF8005088F8A9
:105A500000503B7003B0BDE8F08F40F6B83045E72A
:105A6000337843F030038DF80130FE238DF8023097
:105A7000842344E7DC2F00201DC7E021CE1B00203B
:105A8000CF1B0020CB1B0020CD1B0020DA2F0020D5
:105A9000CC1B0020DB2F0020037E10B5044643B151
:105AA000AE20FDF707FE01462046BDE81040FFF797
:105AB00005BF10BD73B506467C20FDF7E5FD012846
:105AC0000CBF49F69C6300244FF08A0006BF602497
:105AD000ADF80430ADF80440FDF7DEFD0146214885
:105AE0000AF074FE204905460BF036F9002835D13E
:105AF00028460BF051F9642343434FF4FA7093FBAB
:105B0000F0F032300AF018FF18490AF061FE3C2329
:105B1000174D8DF800300BF065F92B786A461C4361
:105B2000C3238DF8033048F2CD234FF4E8718DF88C
:105B30000100ADF80630706808238DF80240FFF7C9
:105B4000E0FA0C4A297813788B4209D10133DBB291
:105B50000F2B08BF00232B7002B070BD0648D6E79C
:105B60001170F9E70000C8420040034400004042C1
:105B7000DD2F0020DE2F002000001643037E73B5CA
:105B80000446A3B148F261230093C37A63B90325A5
:105B900060686A46036840F232315E680223B047AB
:105BA000013DF5D10123E3722046FFF783FF02B0E8
:105BB00070BD4069704708B5B0F908000AF0BCFE36
:105BC00008BD08B5B0F90C000AF0B6FE08BD00002B
:105BD000014B1878704700BF7930002000000000AA
:105BE00038B51D48FEF725FC04461C48FEF721FC8D
:105BF000054620460AF0D2FA13A3D3E900230AF09F
:105C000037FB13A3D3E900230AF07CF90AF08AFDDD
:105C1000044628460AF0C2FA0BA3D3E900230AF08F
:105C200027FB0BA3D3E900230AF06CF90AF07AFDF5
:105C30000546014620460BF08FF800B92C46204659
:105C400038BD00BFAFF300801213371BE91495BFB6
:105C5000988F7B2556484C40402E0020442E002033
:105C600070B506460D461A4C0721204609F07CF80F
:105C700020460721174A09F0F9F832462046072145
:105C800009F0FDF8AAB22046072109F008F92046DC
:105C9000072109F0D0F82046072109F0ADF8204689
:105CA0000022072109F09BF820460022072109F075
:105CB00089F820464FF48052072109F076F82046F3
:105CC000072109F0C1F8BDE87040034809F0E6BEBD
:105CD00000000240044400400044004038B505463E
:105CE000194C0621204609F03FF820460621174AA4
:105CF00009F0BCF820460621154A09F0C0F8AAB2FE
:105D00002046062109F0CBF82046062109F08AF842
:105D10002046062109F070F820460022062109F0ED
:105D20005EF820460022062109F04CF820460022A9
:105D3000062109F03AF82046062109F085F8BDE869
:105D40003840044809F0A5BE000002400444004069
:105D5000EA2F00200044004038B504463220FDF709
:105D600093FC00B20228E0811ED1344D344A2B78D6
:105D7000002B33D141F65831B4F90C00884201DDD3
:105D80000121117011782F4A8B4249D001231370E1
:105D90002D4B93F900002D4B10B918780130187075
:105DA0001878042823D1E181B4F90E30012B08D1F1
:105DB0002748FBF7A1FD2748FBF79EFD2648FBF788
:105DC0009BFDB4F90E30C3B92148FBF795FD21487E
:105DD000FBF78EFD2048FBF78BFD0EE0012BD1D1A8
:105DE000B4F90C10B1F5FA6FCCDA0021C9E7052837
:105DF00003D12970002119701170B4F90E30032BF2
:105E00000DD1A220FDF740FC013011480CD1FBF769
:105E100073FD1048FBF76CFD0F48FBF769FD38BDBB
:105E2000E38100231370BFE7FBF766FD0948FBF72A
:105E300063FD0948FBF760FDF1E700BFE72F002095
:105E4000E82F002077300020E52F0020E92F0020E8
:105E5000842C0020A42C0020AC2C0020000000008A
:105E60002DE9F74F074612200E46FDF70DFC864B35
:105E7000C4B21B78012B40F0B1803846FFF76CFFAD
:105E8000304682490AF0ACFD81490AF05DFE0AF015
:105E900083FF804DDFF8149295F900A0A9F8000067
:105EA00050460AF049FD31460AF09AFD0AF088F999
:105EB00073A3D3E900230AF0DBF90AF033FC764937
:105EC00080460AF08DFD72490AF03EFE0AF064FF3A
:105ED000724B734A19784E469B4691463862108041
:105EE000D1B1BAF1000F17DD2220FDF7D5FB0190EB
:105EF00095F900000AF020FD019B82466949184689
:105F00000AF06EFD014650460AF060FC0AF044FFBC
:105F100040B200282DDB287095F90030632B2ADD74
:105F2000B7F90E30DBB9002140460AF0F7FEB0B1F8
:105F3000B9F900000AF032F900225B4B0AF098F937
:105F40000AF0A8FBA9F80000B6F900000AF026F94B
:105F50000022554B0AF08CF90AF09CFB308014BBF0
:105F60003B6A002B02DA514B00221A8003B0BDE8D5
:105F7000F08F00232B709BF80030002BD0D1222013
:105F8000FDF78AFB824695F900000AF0D5FC5146E0
:105F90000AF01EFC0AF000FF40B26428CABF642366
:105FA00028702B70BCE7012C01D13D4BDCE7022CA3
:105FB000D9D0032CDAD140463D490AF0CDFE08B9CC
:105FC0003080D3E740460AF0E7FEA0F1320341F209
:105FD00017105843322390FBF3F0F1E7022B1BD14B
:105FE0002D4930460AF0FCFC29490AF0ADFD0AF0C3
:105FF000D3FE2B4A03B2138013EB83032B4A48BF13
:1060000003339B10386213800CB90028AAE7012CD7
:10601000CBD0022CAAD1A6E7032BA7D11E4930462C
:106020000AF0DEFC1A490AF08FFD0AF0B5FE1C4AA0
:1060300003B2138013EB83031C4A48BF03339B1046
:10604000154638621380002CDFD0012CADD0022C15
:1060500089D0032C8AD1304615490AF07DFE08B953
:10606000288083E730460AF097FEA0F1320341F220
:1060700017105843322390FBF3F0F1E7AFF30080A1
:106080007B14AE47E17A843F7630002000B8884523
:106090000000C842E52F002000C05A45773000209C
:1060A000E22F00200000A0400000E03FE02F002091
:1060B0000000484210B57C20FDF7E6FA08B902F06E
:1060C000A5FF7C20FDF7E0FA012843D12248FBF729
:1060D000F5FB0146B420FDF7F7FA2048FBF7EEFB8D
:1060E0000146B520FDF7F0FA1D48FBF7E7FB014636
:1060F000B620FDF7E9FA1A48FBF7E0FB044617481B
:10610000FBF7DCFB84F00104E3B280F00104E4B2AD
:106110001148640044EA8304FBF7D0FB64B280F0CA
:106120000100204340B20F4C0628207003D100210B
:10613000B920FDF7C9FA2378052B03D10121B92035
:10614000FDF7C2FA3320FDF79FFABDE8104080B298
:1061500002F05CBF10BD00BF142D00201C2D0020DC
:10616000242D0020E62F0020034B1B78012B01D1AA
:10617000FFF7A0BF704700BF76300020002270B547
:106180000A4C134626468D1E954205DD14F8010B78
:10619000013203449BB2F7E7314411F8012C705DE2
:1061A00040EA0220C31A5842584170BDEA2F00202D
:1061B000002070B5084C034622468D1E854205DD41
:1061C00014F8016B013033449BB2F7E753550A448E
:1061D0001B1202F8013C70BDD21B0020F8B5BA4D6D
:1061E00004462B780E2B3ED8DFE813F00F00160084
:1061F0003B003E007C00C000C200E100E30015014E
:1062000088019401AD01AF01E0016420FFF766FD54
:10621000AE48FBF771FB21E0AD4CAC48FBF768FBE7
:1062200023787BB902220721AA4808F0B4FDA8B15F
:1062300007210222A74808F0A8FD5021A648FFF731
:106240000FFD0BE05021A548FFF70AFDA44B5B783A
:10625000002B00F0DB812378013B23702B78013386
:1062600000E003232B70F8BD6421FFF787FF9C4EED
:106270009C4F38B90021AA206181A1813970FDF7B6
:1062800023FA29E002220621924808F084FD002822
:10629000F0D0022206218F4808F077FD01233B70E1
:1062A000B6F85230053B03EBD3735B10238196F9AC
:1062B0002A000AF041FB606196F956000AF03CFBA7
:1062C000A061F279B37943EA0223638196F8202032
:1062D000F37F43EA0223A381002386F8623086F825
:1062E0006330BBE7804E9C20B6F90010FDF7ECF957
:1062F0006189A289784B0A44712112B292FBF1F2B2
:106300007A491A70B1F900200978880083F84B00A7
:1063100090115242C2F307229A711A73727849425D
:10632000DA7683F82120782283F83F20EC2283F864
:1063300040206C2283F841206B22C9B25971D97276
:10634000317883F84C00997683F82010204650214C
:1063500083F84220FFF72CFF654A1388642B8EBF19
:10636000002301339BB2138000237BE778204DE7A5
:10637000574C5648FBF7BCFA2378052B0ED902225E
:106380000721544808F007FD00283FF467AF0721B4
:106390000222504808F0F9FC64214FE76421554877
:1063A00001FB0300FFF75CFC2378013355E708236A
:1063B00058E77821FFF7E2FE494E4A4F00283FF4A4
:1063C00059AF02220621434808F0E5FC00283FF4BB
:1063D00051AF022206213F4808F0D7FC01233B7051
:1063E000B6F86430053B03EBD3735B10238196F959
:1063F00014000AF0A1FA6061B6F856000AF09CFA9F
:10640000A061F279B37943EA0223638196F82720E9
:1064100096F826305DE7344E9C20B6F90010FDF763
:1064200053F9324A2C4B1178307852785971D9721D
:1064300071789A711A739877D977B6F90020266A1D
:10644000002E37DD02EBD27252101A7712129876B4
:10645000D9765A77752183F84A10122183F84B10A8
:106460006021402283F84C10252183F84820042223
:1064700083F84D10522183F8492083F84F20892258
:1064800083F84E101C4983F8562083F858200A7868
:1064900020460132D2B20A70D20748BF93F85E207C
:1064A0004FF0640144BF013283F85E20FFF780FEA5
:1064B0000523D7E6CED002EBD27252109A76121292
:1064C00018775977DA76C5E778300020F42C002069
:1064D000D11B002000000240D21B0020082401082C
:1064E000EA2F002079300020E22F0020E02F00204A
:1064F0007A300020B11E0020E42F00207C20FDF720
:10650000C3F801281CBF0022414B4FF08C0018BF7C
:106510001A707BE63E4C3F48FBF7EAF92378062BDE
:106520000ED9022207213C4808F035FC00283FF430
:1065300095AE07210222384808F027FC69217DE644
:10654000692136482CE70D238CE68C21FFF716FED7
:10655000334E40B3022206212F4808F01CFC10B332
:10656000022206212C4808F010FC012333702D4E26
:10657000B6F875305B10238196F914000AF0DCF947
:106580006061B6F819000AF0D7F9A061F27AB37A1F
:1065900043EA0223638196F82C2096F82B3043EAD5
:1065A0000223A3815AE60023337057E61E4E9C2037
:1065B000B6F90010FDF788F81C4B2046B3F900200F
:1065C0001B4B5242D1B2C2F307229A711A73B6F929
:1065D00000205971DA77121283F820209A7ED9723E
:1065E00083F82520DA7E692183F82620782283F833
:1065F0004F20EC2283F85020102283F851202722CC
:1066000083F85220FFF7D4FD0A232BE6012324E66A
:10661000D11B0020F42C0020000002403B1C002075
:1066200079300020EA2F0020E22F0020E02F002008
:10663000D21B002038B5037F04468B420D460AD09A
:1066400051B15D20FDF720F808B9FCF7BFFDFCF75C
:10665000F3FD0123237738BD4FF0804009F05EF849
:106660002577F8E708B50121FFF7E4FF0A4B1A7810
:10667000042A04D805221A700022084B1A706423D9
:106680000749084A11F8010B013B02F8010BF9D147
:106690000222054B1A7008BD78300020D11B002063
:1066A000A4230108D21B00207630002008B5012168
:1066B000FFF7C0FF064B1A78042A04D900221A708B
:1066C0000122044B1A700122034B1A7008BD00BF4F
:1066D00078300020D11B002076300020012108B541
:1066E000FFF7A8FF0A4B0B491A78092A9CBF0A2218
:1066F0001A700022084B1A706923084A11F8010B1E
:10670000013B02F8010BF9D10322054B1A7008BDB9
:10671000783000206C240108D11B0020D21B0020FF
:10672000763000200021FFF785BF0181704700000F
:1067300008B508460AF030FBA6230F384343412032
:1067400093FBF0F3014A5833138008BD80300020DA
:10675000AD20FCF7AFBF10B50446002261600846CB
:1067600040F2531100F001FE60680022BDE81040C5
:1067700040F2F31100F0F9BD40F25313994210B505
:10678000044610D1B2F80100A0F5B0700AF0D4F8B8
:106790004FF076510AF024F901469B20FCF7A2FF46
:1067A0000123E37203E040F2F3139942F8D010BDE5
:1067B00010B50446C07A10B90348FBF77FF80023F0
:1067C0002073E37210BD00BF642D002008B502489D
:1067D000FBF774F808BD00BF642D002007B540F238
:1067E000EE22038940F21631934238BF1346052248
:1067F000ADF8002041F65832934228BF13460A22D2
:106800009B01B3FBF2F3ADF8023000236A4601931B
:1068100040680823FEF775FC03B05DF804FB000038
:1068200013B5154B00241A7801948DF80020134AF3
:1068300012888DF80120C522ADF80220104A117887
:106840000131C9B2152994BF11701470127812B9B0
:1068500011221A7003E0082A0AD00F2A0AD008234E
:106860006A4640F229314068FEF74BFC02B010BD89
:106870008622EEE7D922ECE77F300020803000202E
:106880007E300020462313B5ADF804300023406865
:106890008DF80630036840F23B415C6801AA03238F
:1068A000A04702B010BD000007B50D4A40F24551A7
:1068B0001388406801339BB2138000228DF80130A9
:1068C0001B128DF80230074B8DF800208DF8032045
:1068D00001936A460823FEF714FC03B05DF804FB3D
:1068E0007C3000207E100018812307B58DF8003021
:1068F000B1B1012916D0013116D107238DF801302D
:106900004FF6FF73ADF80230084B6A46019340F230
:106910003F4108234068FEF7F4FB03B05DF804FB39
:106920000623EBE70523E9E70823E7E70080FFFFFD
:10693000037B10B50446BBB1FFF750FF2046FFF7BD
:106940006FFF2046FFF7B0FF2046FFF79BFF0320B5
:10695000FCF7B0FE40B1A220FCF796FE41B2204603
:10696000BDE81040FFF7C0BF10BD01817047704700
:10697000AD20FCF79FBE000008B5084B1868998849
:106980009B792BB108F0F7FBB0FA80F0400908BD05
:1069900008F0F1FB003818BF0120F8E7642D002053
:1069A00030B51F4A1F4B89B0CDE901231E491F4B4B
:1069B0001F4CCDE903131F4B1F4D05930023ADF86A
:1069C0001930237808AA63F07F038DF818302B68FC
:1069D0004FF4B061134413F81C2C40688DF81B2051
:1069E00013F8182C8DF81C2013F8142C8DF81D208A
:1069F00013F8102C13F80C3C8DF81E208DF81F3066
:106A000006AA0823FEF77DFB2B68013303F003037E
:106A10002B602378013303F00F03237009B030BDDE
:106A20000F287F281E1000107056F0560C48A748FB
:106A300082300020469028908430002037B540F204
:106A4000EE2203890025934238BF134641F658329F
:106A5000934228BF1346044603819A009B09CDE95F
:106A600000554FF420718DF803308DF80420082371
:106A70006A464068FEF745FB08236A464FF42271D8
:106A800060688DF803508DF80450FEF73AFB03B0B0
:106A900030BD000008B5034BB3F9000009F04CFF0E
:106AA00008BD00BF8C30002008B5034BB3F90000CF
:106AB00009F042FF08BD00BF9430002008B5024B2A
:106AC000188809F035FF08BD9230002008B5034B47
:106AD000B3F9000009F030FF08BD00BF903000207E
